:020000040800F2
:1000000000000320491300084510000847100008AD
:10001000491000084B1000084D10000800000000B7
:10002000000000000000000000000000E163000884
:100030004F10000800000000816400081D5F0008E8
:1000400099130008991300089913000899130008E0
:1000500099130008991300089913000899130008D0
:1000600099130008991300089913000899130008C0
:1000700099130008991300089913000899130008B0
:1000800099130008991300089913000851100008EB
:1000900061100008991300089913000899130008CB
:1000A0009913000899130008991300089913000880
:1000B0009913000899130008991300089913000870
:1000C0009913000899130008991300089913000860
:1000D000991300087110000899130008991300087B
:1000E0009913000899130008991300089913000840
:1000F0009913000899130008991300089913000830
:10010000991300089913000899130008991300081F
:10011000991300089913000899130008811000082A
:10012000991300089913000891100008991300080A
:10013000991300089913000899130008A1100008EA
:1001400099130008B110000899130008C1100008A5
:1001500099130008991300089913000899130008CF
:1001600099130008991300089913000899130008BF
:100170009913000899130008991300080000000063
:10018000991300089913000899130008991300089F
:10019000991300089913000899130008991300088F
:0C01A0000000000000000000991300089F
:1001B00053B94AB9002908BF00281CBF4FF0FF31CE
:1001C0004FF0FF3000F00CB8ADF1080C6DE904CE33
:1001D00008F05EFBDDF804E0DDE9022304B07047BF
:1001E000704700BF844641EA000313F003036DD15A
:1001F000403A41D351F8043B40F8043B51F8043BEA
:1002000040F8043B51F8043B40F8043B51F8043BF0
:1002100040F8043B51F8043B40F8043B51F8043BE0
:1002200040F8043B51F8043B40F8043B51F8043BD0
:1002300040F8043B51F8043B40F8043B51F8043BC0
:1002400040F8043B51F8043B40F8043B51F8043BB0
:1002500040F8043B51F8043B40F8043B51F8043BA0
:1002600040F8043B51F8043B40F8043B51F8043B90
:1002700040F8043B403ABDD2303211D351F8043B30
:1002800040F8043B51F8043B40F8043B51F8043B70
:1002900040F8043B51F8043B40F8043B103AEDD2DF
:1002A0000C3205D351F8043B40F8043B043AF9D230
:1002B000043208D0D2071CBF11F8013B00F8013B03
:1002C00001D30B8803806046704700BF082A13D310
:1002D0008B078DD010F003038AD0C3F10403D21A28
:1002E000DB071CBF11F8013B00F8013B80D331F85C
:1002F000023B20F8023B7BE7043AD9D3013A11F8DC
:10030000013B00F8013BF9D20B7803704B78437046
:100310008B788370604670470348044B834202D059
:10032000034B03B1184770475806002058060020B9
:10033000000000000548064B1B1AD90F01EBA30172
:10034000491002D0034B03B11847704758060020EC
:10035000580600200000000010B5064C237843B971
:10036000FFF7DAFF044B13B10448AFF30080012319
:10037000237010BD58060020000000009090000877
:1003800008B5054B1BB105490548AFF30080BDE832
:100390000840FFF7CFBF00BF000000005C06002050
:1003A0009090000810B5044C204601F0DDF80321C0
:1003B000204601F007F910BD4408002010B5044C98
:1003C000204601F0D1F80321204601F0FBF810BDD2
:1003D0001C080020034B08221A6100229A60DA6090
:1003E000704700BF7406002008B5064B834204D056
:1003F000054B186805F0C6FE08BD044B186805F0EB
:10040000C1FEF9E7440800206C08002070080020B5
:1004100008B5FFF7E9FF08BD08B5FFF7E5FF08BD20
:1004200008B5FFF7E1FF08BD10B5044603F03CFF37
:10043000E36B1A68136823F00803136010BD000013
:1004400010B52DED028B9FED1A8A1A4C0123F0EEA8
:10045000480AB0EE480A40F201220021204600F08E
:100460002BF80123F0EE480AB0EE480A40F20222CF
:10047000002104F1380000F01FF80123F0EE480AD3
:10048000B0EE480A40F20322194604F1700000F071
:1004900013F80123F0EE480AB0EE480A4FF4017257
:1004A000194604F1A80000F007F8BDEC028B10BD5E
:1004B000000000008C06002080F83510026080EDFE
:1004C0000A0AC0ED0B0A80F83430002380F8363079
:1004D00070470000014B00225A7170476C070020E2
:1004E000034B5B79C72B02D80133014A5371704724
:1004F0006C070020054B5B79962B03D9034B002238
:100500001A717047014B01221A7170476C07002065
:100510000346002848D001784278120202F4E062D3
:100520001143224A518540789978490141EAD00126
:10053000C1F30A019185987893F803C0197989026B
:1005400041EA8C0109B241EA9011C1F30A01D18557
:1005500018795979C90141EA5001C1F30A0111869C
:100560005979890951865979C1F30111918699798F
:10057000D87941EA0021D186197A587A41EA0021D6
:100580001187997AD87A41EA00215187197B82F83C
:100590003C10597B82F83D10997BD187197C5B7C9C
:1005A00041EA0323A2F84030704700BF6C070020E7
:1005B00038B52DED028B05F025FF914D05F1700446
:1005C00005F1440CBCE80F000FC4BCE80F000FC4D9
:1005D0009CE8070084E807006B8DA3F57B7292B25C
:1005E000282A00F2C3804FF480626A85844B9B8D79
:1005F000A3F57B7292B2282A00F2C280804B4FF49E
:1006000080629A857E4BDB8DA3F57B7292B2282A9D
:1006100000F2C0807A4B4FF48062DA85784B1B8EF3
:10062000A3F57B7292B2282A00F2BE80744B4FF47D
:1006300080621A86724C638D07EE903AF8EE677A04
:10064000DFED708A77EEE87A9FED6F8A87EE880A91
:1006500084ED130AF7EE000A08F006F984ED130A98
:10066000A38D07EE903AF8EE677A77EEE87A87EE98
:10067000880A84ED140AF7EE000A08F0F5F884ED14
:10068000140AE38D07EE903AF8EE677A77EEE87A8F
:1006900087EE880A84ED110AF7EE000A08F0E4F804
:1006A00084ED110A238E07EE903AF8EE677A77EE22
:1006B000E87A87EE880A84ED120AF7EE000A08F05D
:1006C000D3F884ED120A94F8343084F8543094F856
:1006D000323084F85530B4F9363007EE903AF8EEFF
:1006E000E77A9FED4A7AC7EE876A16EE903AC4F829
:1006F0005630B4F9383007EE903AF8EEE77A87EEE4
:10070000876A16EE103AC4F85A30B4F93A3007EE58
:10071000903AF8EEE77AF3EE045A87EEA57A17EEF0
:10072000103AC4F85E3094F83D3084F8633094F8A1
:100730003C3084F86230E38FA4F86430002B3DD164
:10074000B4F86230D3BBF5EE406AF1EE10FA35D161
:10075000B5EE406AF1EE10FA30D1B5EE407AF1EE26
:1007600010FA2BD1002284F86C202BE0A3F5B6738D
:100770009BB2B3F5A56F7FF639AF05F065FE3CE09F
:10078000A3F5B6739BB2B3F5A56F7FF63BAF05F04B
:100790005BFE32E0A3F5B6739BB2B3F5A56F7FF6AF
:1007A0003DAF05F051FE28E0A3F5B6739BB2B3F55B
:1007B000A56F7FF63FAF05F047FE1EE0104B01220C
:1007C00083F86C200E4CB4F8403007EE903AF8EE07
:1007D000677AF1EE677A9FED0B7A77EEC77A9FED35
:1007E0000A7A87EE870A84ED1A0AF7EE000A08F003
:1007F0003BF884ED1A0A05F027FEBDEC028B38BDEC
:100800006C07002000008044000025440000FA43EB
:1008100008B505F0F7FD784BB3F89020D04300B24F
:10082000B3F86410B3F964C00140A3F8A01022EA41
:100830000C02A3F89E2093F88E302BB96E4A92F8E2
:1008400062205AB9002100E000216B4A82F8A5100D
:1008500033B192F8623083B1002202E00121F4E763
:100860000022654B83F8A42093F88F303BB9624A8D
:1008700092F863206AB9002102E00122F1E7002129
:100880005D4A82F8A31033B192F8633003BB0022B3
:1008900002E00121F4E70022574B83F8A22093F8ED
:1008A0005530012B16D0032B26D0032B36D0022B2C
:1008B00046D0514B93F85430012B53D0032B63D0C7
:1008C000032B73D0022B00F0838005F0BDFD08BD23
:1008D0000122E1E7484A92F88120032AE3D1464AFF
:1008E000B2F89C3023F0F0039BB2A2F89C3043F0A6
:1008F0002003A2F89C30DCE73F4A92F88120012ACD
:10090000D3D13D4AB2F89C3023F0F0039BB2A2F859
:100910009C3043F01003A2F89C30CAE7364A92F8A4
:100920008120022AC3D1344AB2F89C3023F0F0036C
:100930009BB2A2F89C3043F08003A2F89C30B8E749
:100940002D4B93F88130032BB3D12B4AB2F89C3056
:1009500023F0F0039BB2A2F89C3043F04003A2F8CE
:100960009C30A6E7244A92F88020032AA6D1224A86
:10097000B2F89C3023F00F039BB2A2F89C3043F0F6
:100980000203A2F89C30A0E71B4A92F88020012ABB
:1009900096D1194AB2F89C3023F00F039BB2A2F80B
:1009A0009C3043F00103A2F89C308EE7124A92F883
:1009B0008020022A86D1104AB2F89C3023F00F031F
:1009C0009BB2A2F89C3043F00803A2F89C307CE76D
:1009D000094B93F88030032B7FF477AF064AB2F8C7
:1009E0009C3023F00F039BB2A2F89C3043F0040329
:1009F000A2F89C3069E700BF6C07002008B5FFF73C
:100A00001FFD08BD08B5FFF7F9FFFEE708B5FFF7C2
:100A1000C9FCFFF7DFFC08BD08B5FFF7F7FF4FF093
:100A2000FF31044B186805F079FB012005F00FFB3E
:100A3000F5E700BF7008002008B5FFF7BFFC0120F4
:100A400005F005FBFBE7000008B5044B186805F04E
:100A500099FB0348FFF75CFD08BD00BF7408002048
:100A60007207002010B5094C09482060094903F0BD
:100A700003FA214651F8060B1222FFF7D5FC00219C
:100A80002171054B186805F049FB10BD6C0700206B
:100A90008C090020490A00087408002008B5FFF7F7
:100AA000E1FF0EE0104A136801331360FFF712FDF7
:100AB000FFF77EFDFFF7ACFEFFF71CFD012005F000
:100AC000C6FA0A49122251F8060CFFF7ADFC1421B0
:100AD000074B186805F022FB064B18600028E1D090
:100AE000FFF7FEFCE8E700BF940800207207002033
:100AF000740800201408002008B50E480E4B03604F
:100B00000323436000228260C2604FF4C02303616C
:100B10004FF4A00343610276012343768376C376C4
:100B20000277437700F07AFC00B908BD00F0A2F923
:100B3000FBE700BF440800200064004008B50E48F1
:100B40000E4B03600323436000228260C2604FF4B7
:100B5000C02303614FF4A00343610276012343766F
:100B60008376C3760277437700F058FC00B908BD5E
:100B700000F080F9FBE700BF1C080020006800407F
:100B800010B58AB000230593069307930893099341
:100B90000368464A934204D0454A93423CD00AB087
:100BA00010BD444A136801331360012B27D0002481
:100BB0000194414B1A6B42F008021A631B6B03F05D
:100BC00008030193019B03230593022206920893D5
:100BD0000923099305A9394801F002F922460521A4
:100BE000132000F087FE132000F094FE224605211A
:100BF000142000F07FFE142000F08CFECFE70023CD
:100C000000932D4B1A6C42F000721A641B6C03F0B7
:100C100000730093009BCAE700230293264B1A6CD3
:100C200042F080621A641B6C03F080630293029BA3
:100C3000204A136801331360012B29D00024049447
:100C40001D4B1A6B42F002021A631B6B03F0020386
:100C50000493049B4FF4405305930223069303230C
:100C600008930923099305A9154801F0B9F822460C
:100C700005213F2000F03EFE3F2000F04BFE2246C3
:100C80000521412000F036FE412000F043FE86E7BA
:100C900000230393084B1A6C42F000721A641B6C19
:100CA00003F000730393039BC8E700BF0064004098
:100CB000006800401808002000380240000C024084
:100CC0000004024000B583B000220192094B196B69
:100CD00041F4800119631B6B03F480030193019BB2
:100CE00005213A2000F006FE3A2000F013FE03B082
:100CF0005DF804FB0038024008B507F075FB0120E1
:100D000005F0A5F9FBE7000008B5234A01210846D4
:100D100005F0ABF9214B1860214A0021032005F0B2
:100D2000A4F9204B1860204A0021032005F09DF90A
:100D30001E4B18601E4A0621202005F052FA1D4B5A
:100D400018601D4A0621202005F04BFA1B4B186045
:100D50001B4A00211B4805F01BF91B4B18601B4A5E
:100D600000211B4805F014F91A4B18601A4A00219B
:100D70001A4805F00DF91A4B18601A4A00211A4852
:100D800005F006F9194B1860194A0021194805F0B9
:100D9000FFF8194B186008BDC091000874080020C6
:100DA000B091000870080020A09100086C08002095
:100DB000E89100087C080020D09100087808002005
:100DC00090920008F90C0008900800206C9200082E
:100DD0009D0A00088C08002048920008190A0008A3
:100DE0008808002024920008390A0008840800209E
:100DF00000920008050A00088008002084B0002244
:100E00000092154B196B41F001011963196B01F048
:100E10000101009100990192196B41F002011963DF
:100E2000196B01F00201019101990292196B41F0D5
:100E300008011963196B01F00801029102990392EC
:100E40001A6B42F080021A631B6B03F0800303935A
:100E5000039B04B0704700BF0038024008B5026829
:100E6000034B9A4200D008BD00F0B2FAFBE700BF86
:100E70000014004072B6FEE700B595B030220021A4
:100E800008A807F063FE00230393049305930693D9
:100E900007930193204A116C41F080511164126C48
:100EA00002F080520192019A02931C4B1A6842F49C
:100EB00040421A601B6803F440430293029B0123E3
:100EC00008934FF48033099302230E934FF480026A
:100ED0000F9206221092A8221192129307231393C5
:100EE00008A801F0BDFE98B90F23039302230493D1
:100EF000002305934FF4A05306934FF480530793B8
:100F0000052103A802F0FCF820B915B05DF804FB38
:100F1000FFF7B0FFFFF7AEFF00380240007000405F
:100F200008B500F03BFAFFF7A7FFFFF767FFFFF7F1
:100F3000C9FE00F089F900F03DF9FFF7DDFDFFF78C
:100F4000FDFD054B00221A6004F0F4FFFFF7DCFE04
:100F500005F002F8FEE700BF9408002000B583B05A
:100F6000002200920D4B596C41F480415964596C38
:100F700001F48041009100990192196C41F0805177
:100F800019641B6C03F080530193019B0F216FF0D8
:100F9000010000F0AFFC03B05DF804FB0038024034
:100FA00030B589B0044600230193214B1A6C42F0FE
:100FB00020021A641B6C03F020030193019B02A919
:100FC00003A802F073F9069BCBB902F04FF9034670
:100FD000184AA2FB03239B0C013B1748174A0260E7
:100FE00040F2E732C26043600023036183608361A3
:100FF00002F0A6FB054630B1284609B030BD02F02C
:1010000035F94300E4E70C4802F036FA05460028BB
:10101000F2D1372000F07EFC0F2C01D90125EBE73F
:1010200000222146372000F065FC054B1C60E3E7F9
:101030000038024083DE1B43980800200014004063
:1010400008000020FEE7FEE7FEE7FEE7FEE7704748
:1010500008B5024800F0D2FA08BD00BF44080020DD
:1010600008B5024800F0CAFA08BD00BF44080020D5
:1010700008B5024802F022FF08BD00BF8C0900201D
:1010800008B5024802F041FA08BD00BF98080020E8
:1010900008B5024800F0B6FD08BD00BF2C090020CD
:1010A00008B5024800F0AAFA08BD00BF1C080020DD
:1010B00008B5024800F0A2FA08BD00BF1C080020D5
:1010C00008B5024801F0C1FA08BD00BFE45C012088
:1010D00010B503460C4A0D490D48006840B10C4854
:1010E00000680344521A934206D8094A136010BD9F
:1010F0000748084C0460F2E707F0B0FD0C230360DA
:101100004FF0FF30F3E700BF0000032000040000B1
:10111000E0080020D0640120034AD2F8883043F46C
:101120007003C2F88830704700ED00E00268094B98
:101130009A4200D0704782B000230193064B1A6C8C
:1011400042F040021A641B6C03F040030193019BC0
:1011500002B07047001800400038024000B587B068
:1011600000230193029303930493059302680E4BAB
:101170009A4202D007B05DF804FB002300930B4BAA
:101180001A6B42F080021A631B6B03F0800300931A
:10119000009B40230193022302930923059301A995
:1011A000034800F01DFEE5E700180040003802404B
:1011B000001C024000B58DB00023089309930A93E8
:1011C0000B93019302930393049305930693079360
:1011D0001B481C4A026053224260836040F2711235
:1011E000C2600361836102F0ABFAE0B94FF480534F
:1011F000089308A9124802F0AEFBB8B9104802F0F3
:10120000CBFAB0B9602301930022029203920592B7
:1012100001A90B4802F024FB70B90948FFF79EFFB3
:101220000DB05DF804FBFFF725FEDFE7FFF722FEB8
:10123000E4E7FFF71FFEE5E7FFF71CFEEDE700BF61
:10124000E40800200018004008B50C480C4B03606F
:101250000C4B43604FF4805383600023C3604FF412
:10126000806202610C2242618361C36102F08EFFE1
:1012700000B908BDFFF7FEFDFBE700BF8C090020A9
:1012800000100140A086010030B589B0002303930F
:101290000493059306930793026803F1804303F5D3
:1012A00088339A4201D009B030BD0446002501952B
:1012B00003F594335A6C42F010025A645A6C02F0EF
:1012C00010020192019A02951A6B42F002021A630F
:1012D0001B6B03F002030293029BC02303930223C0
:1012E0000493032306930723079303A9134800F0ED
:1012F00077FD1348134B03604FF000634360856034
:10130000C5604FF48063036145618561C5614FF439
:1013100000330362456200F07DFB58B9084BE3637C
:101320009C6300220521252000F0E4FA252000F02E
:10133000F1FAB8E7FFF79EFDF0E700BF00040240B6
:101340002C09002040640240DFF834D0FFF7E4FEAF
:101350000C480D490D4A002302E0D458C450043310
:10136000C4188C42F9D30A4A0A4C002301E01360E6
:101370000432A242FBD307F077FCFFF7D1FD7047A0
:10138000000003200000002058060020E89200081A
:1013900058060020CC640120FEE7000008B50B4B86
:1013A0001A6842F400721A601A6842F480621A6085
:1013B0001A6842F480721A60032000F089FA0F2044
:1013C000FFF7EEFDFFF7CAFD002008BD003C02401C
:1013D000034A1168034B1B780B441360704700BF2E
:1013E000040A002004000020014B1868704700BF69
:1013F000040A002038B50446FFF7F6FF0546B4F1AD
:10140000FF3F02D0044B1B781C44FFF7EDFF401B4D
:10141000A042FAD338BD00BF04000020002800F02D
:10142000A18038B5044690F82030D3B12268136803
:1014300043F001031360FFF7D7FF054623685A689E
:1014400012F0010F10D1FFF7CFFF401B0A28F5D98A
:10145000636A43F400336362052384F8203001207B
:1014600038BDFFF78DFBE1E71A6822F002021A602F
:10147000FFF7BAFF054623685A6812F0020F0DD035
:10148000FFF7B2FF401B0A28F5D9636A43F4003323
:101490006362052384F820300120E1E7227E012ADF
:1014A0003DD01A6822F080021A60637E012B3BD087
:1014B0002268136823F040031360A37E012B39D008
:1014C0002268136823F020031360E37E012B37D0DA
:1014D0002268136843F010031360237F012B35D07B
:1014E0002268136823F008031360637F012B33D055
:1014F0002268136823F004031360A368E2681343AF
:1015000022691343626913436268013A21681343F5
:10151000CB6100206062012384F82030A0E71A68C4
:1015200042F080021A60C0E72268136843F040036B
:101530001360C2E72268136843F020031360C4E716
:101540002268136823F010031360C6E7226813684B
:1015500043F008031360C8E72268136843F00403EC
:101560001360CAE70120704770B5044690F8205018
:10157000EDB2012D06D0436A43F4002343620125F6
:10158000284670BD022380F820300268136823F0DB
:1015900001031360FFF728FF064623685B6813F01A
:1015A000010F0CD0FFF720FF831B0A2BF5D9636ACC
:1015B00043F400336362052384F82030E0E700251C
:1015C0006562DDE790F82030013BDBB2012B05D9E5
:1015D000436A43F4802343620120704702685369E1
:1015E0000B43536100207047704770477047704746
:1015F0007047704770477047704770472DE9F84F44
:10160000054603685C69D3F804809F68D3F80CA092
:10161000D3F81090D3F818B014F001063BD017F0AF
:10162000010616D001229A6017F0020F08D117F0B8
:10163000040F0CD117F0080606D04FF4805608E0CE
:10164000FEF7E6FE002604E0FFF7CEFF01E04FF4D0
:10165000006617F4807F0DD02B684FF480729A607B
:1016600017F4007F40F0968017F4806F00F09680AA
:1016700046F4005617F4803F0DD02B684FF48032AB
:101680009A6017F4003F40F0938017F4802F00F029
:10169000938046F4004614F0080F07D01AF0100F9C
:1016A00004D046F400762B681022DA6014F0040FA0
:1016B00003D01AF0080F40F0898014F0020F05D013
:1016C0002B68DB6813F0030F40F0878014F0400FA5
:1016D00007D019F0100F04D046F480662B68102252
:1016E0001A6114F0200F02D019F0080F79D114F00C
:1016F000100F04D02B681B6913F0030F78D114F47A
:10170000003F02D018F0100F76D114F4803F02D0C1
:1017100018F0080F77D114F4004F37D018F0040FE9
:1017200031D014F4807F04D01BF0010F01D046F0BB
:10173000010614F4007F04D01BF0020F01D046F024
:10174000020614F4806F04D01BF0040F01D046F0A1
:10175000040614F4006F16D01BF0700B13D0BBF10D
:10176000400F66D056D8BBF1200F5CD0BBF1300FD4
:101770005CD0BBF1100F01D146F008062A689369CE
:1017800023F0700393612B6804225A60002E56D117
:10179000BDE8F88F2846FEF73FFE6BE717F4006FB1
:1017A00002D046F4804665E72846FFF71EFF61E752
:1017B0002846FEF735FE6EE717F4002F02D046F4F8
:1017C000803668E72846FFF711FF64E72B68082298
:1017D000DA602846FFF70CFF6FE72846FFF707FFA0
:1017E00074E72B6808221A612846FFF703FF7EE79B
:1017F0002846FFF7FEFE82E72B6810225A60284633
:10180000FFF7F9FE81E72B6808225A602846FFF7A8
:10181000F3FE80E7BBF1500F0ED0BBF1600FADD1EE
:1018200046F48076AAE746F01006A7E746F02006C1
:10183000A4E746F04006A1E746F080069EE76B6A03
:1018400033436B622846FFF7D8FEA1E7002807DB89
:1018500000F01F02400901239340024A42F8203061
:10186000704700BF00E100E0002808DB0901C9B2B1
:1018700000F1604000F5614080F80013704700F00F
:101880000F000901C9B2014B1954704714ED00E073
:1018900000B500F00700C0F1070CBCF1040F28BF31
:1018A0004FF0040C031D062B0FD9C31E4FF0FF3E53
:1018B0000EFA0CF021EA000199400EFA03FE22EA2A
:1018C0000E0241EA02005DF804FB0023EEE700008F
:1018D000074AD36823F4E0631B041B0C000200F4E6
:1018E000E060034343F0BF6343F40033D3607047C9
:1018F00000ED00E010B50446054BD868C0F30220A7
:10190000FFF7C6FF01462046FFF7AEFF10BD00BF40
:1019100000ED00E008B5FFF799FF08BD30B4056899
:101920002C6824F480242C60046863608368402B56
:1019300005D0036899600368DA6030BC70470368BB
:101940009A600368D960F8E710B40368D9B2103917
:101950000A4AA2FB01421209094CA25CC2655F2936
:1019600007D96FF3090304338365806D5DF8044B79
:1019700070476FF309038365F7E700BFABAAAAAA14
:10198000CC920008836A826992B9012B0AD0022B9B
:1019900002D00BB100207047C36A13F0807F28D1BA
:1019A00000207047C36AB3F1C07F24D00020704785
:1019B000B2F5005F09D0022B25D9032B25D1C36ACC
:1019C00013F0807F23D100207047032B03D8DFE87A
:1019D00003F01404140A00207047C36A13F0807FD8
:1019E0000DD100207047C36AB3F1C07F09D0002039
:1019F0007047012070470120704701207047012087
:101A00007047012070470120704700207047012077
:101A10007047000070B50446FFF7E6FC002C5BD071
:101A20000546022384F83530002384F834302268D8
:101A3000136823F00103136023681A6812F0010F82
:101A40000AD0FFF7D1FC431B052BF5D92023636592
:101A5000032084F8350070BD1A682049114062687F
:101A6000A0680243E06802432069024360690243C0
:101A7000A0690243E0690243206A02430A43616AA3
:101A800004291ED01A602668756925F00705636A67
:101A90001D43042B07D1A36A1D43E36A1BB12046F3
:101AA000FFF770FF90B975612046FFF74DFFE26DBB
:101AB0003F239340836000206065012384F8353024
:101AC000C9E7E16A206B01430A43DBE74023636512
:101AD000012084F83500BEE70120BCE73F8010F00C
:101AE00038B50446856D90F8340001282BD00120CC
:101AF00084F8340094F83500C0B2012804D00023E3
:101B000084F83430022038BD022084F835000020EB
:101B100060652046FFF702FFE26D3F239340AB6014
:101B20002268136843F016031360236C23B1226804
:101B3000136843F0080313602268136843F001033D
:101B400013600020DFE70220DDE770B50446866DF4
:101B5000FFF74AFC94F83530DBB2022B06D0802325
:101B60006365002384F83430012070BD0546226887
:101B7000136823F0160313602268536923F080036F
:101B80005361236CE3B12268136823F008031360E8
:101B90002268136823F00103136023681B6813F0A5
:101BA000010F11D0FFF720FC431B052BF5D9202393
:101BB0006365032084F83500002384F83430D4E7CB
:101BC000A36C002BDFD1E3E7E26D3F239340B360CA
:101BD000012384F83530002084F83400C5E790F8FC
:101BE0003530DBB2022B03D08023436501207047E0
:101BF000052380F835300268136823F00103136071
:101C000000207047F0B583B0044600230193724B67
:101C10001D68724BA3FB0535AD0A876D3E68C26D2A
:101C200008239340334210D003681A6812F0040F5F
:101C30000BD01A6822F004021A60C26D0823934088
:101C4000BB60436D43F001034365E26D01239340A4
:101C5000334209D02268526912F0800F04D0BB6071
:101C6000636D43F002036365E26D042393403342E6
:101C700009D02268126812F0020F04D0BB60636DB5
:101C800043F004036365E26D10239340334224D094
:101C90002268126812F0080F1FD0BB6023681A6810
:101CA00012F4802F0DD01B6813F4002F04D1236C85
:101CB0009BB12046984710E0A36C73B1204698472B
:101CC0000BE01A6812F4807F03D11A6822F0080230
:101CD0001A60236C0BB120469847E26D2023934095
:101CE000334255D02268126812F0100F50D0BB60FA
:101CF00094F83530DBB2052B0ED023681A6812F445
:101D0000802F33D01B6813F4002F2AD1636C002B73
:101D10003ED0204698473BE02268136823F0160324
:101D200013602268536923F080035361236CA3B1CD
:101D30002268136823F008031360E26D3F23934089
:101D4000BB60012384F83530002384F83430236DE0
:101D5000002B3FD0204698473CE0A36C002BE7D1F6
:101D6000EBE7E36BA3B12046984711E01A6812F441
:101D7000807F09D11A6822F010021A60012384F8CA
:101D80003530002384F83430E36B0BB1204698479C
:101D9000636DFBB1636D13F0010F17D0052384F859
:101DA00035302268136823F001031360019B01336F
:101DB0000193AB4204D823681B6813F0010FF5D1DF
:101DC000012384F83530002384F83430E36C0BB100
:101DD0002046984703B0F0BD00000020B5814E1B9F
:101DE00000230F2B00F2F68070B582B066E08568A4
:101DF0004FEA430E032404FA0EF425EA0405CC68E6
:101E000004FA0EF42C438460446824EA02044A680D
:101E1000C2F300129A40224342605DE0DC080834BD
:101E200050F8242003F00705AD004FF00F0E0EFA16
:101E300005FE22EA0E0E0A69AA4042EA0E0240F8A6
:101E400024205DE0092200E0002202FA0EF22A437B
:101E50000234614D45F82420604A94686FEA0C0210
:101E600024EA0C054E6816F4801F01D04CEA0405E4
:101E70005A4CA560E46802EA04054E6816F4001F97
:101E800001D04CEA0405554CE560646802EA04059B
:101E90004E6816F4003F01D04CEA04054F4C6560D3
:101EA000246822404D6815F4803F01D04CEA0402BA
:101EB0004A4C226001330F2B00F28A8001229A40A3
:101EC0000C6804EA020C32EA0404F3D14C6804F012
:101ED0000304013C012C8AD94A6802F00302032A58
:101EE00009D0C4685D000322AA4024EA02048A687B
:101EF000AA402243C2604A6802F00302022A8DD03F
:101F000004684FEA430E032202FA0EF224EA0204A6
:101F10004A6802F0030202FA0EF2224302604A68A3
:101F200012F4403FC6D0002201922D4A546C44F472
:101F300080445464526C02F480420192019A9C08DD
:101F4000A51C254A52F8255003F0030E4FEA8E0EC9
:101F50000F2202FA0EF225EA0205224A90423FF4CD
:101F600073AF02F58062904222D002F58062904207
:101F700020D002F5806290421ED002F5806290422D
:101F80001CD002F5806290421AD002F58062904225
:101F900018D002F58062904216D002F5806290421D
:101FA00014D002F5806290423FF44CAF0A224CE715
:101FB00001224AE7022248E7032246E7042244E7D7
:101FC000052242E7062240E707223EE708223CE7D7
:101FD00002B070BD704700BF00380140003C0140B6
:101FE00000380240000002402DE9F04383B0D0F8F1
:101FF000008001EBC10300EB83039A6A5B6A9A429B
:1020000054D807460C469B1A01EBC10200EB820232
:10201000D2699A4200D31A4602F103094FEA99099C
:1020200015E006F103094FEA9909BB7904EBC405F1
:1020300007EB8505296A0093B3B2E2B2404602F08D
:102040009AFC2B6A33442B62AB6A3344AB6208EBD5
:10205000441303F510639B699BB24B4512D304EB09
:10206000C40307EB83039A6A5B6A9A420AD24BB1B4
:102070009B1A04EBC40207EB8202D6699E42D0D3BE
:102080001E46CEE704EBC40307EB83077A6ABB6AFC
:102090009A420FD804F00F040122A240D8F8343835
:1020A00023EA0203C8F83438002000E0012003B01E
:1020B000BDE8F0830020FAE730B583B000287AD07D
:1020C0000446056890F89534C3B1032384F8953429
:1020D000B5F1A04F17D0206802F000FA237C8DF8EC
:1020E0000030231D0ECB206802F036F970B10223B8
:1020F00084F895340125284603B030BD80F8943427
:1021000006F05EFAE1E70023A371E4E7002120680E
:1021100002F047FE024608B9034617E0022384F89E
:1021200095340125E7E703EBC30104EB81010120AE
:1021300048750B75CB8500200876C861086203EBF3
:10214000C30104EB810148620133DBB2207998427C
:10215000E9D816E002EBC20304EB8303002183F805
:10216000551283F8542283F85812C3F85C12C3F84E
:10217000601202EBC20304EB8303C3F86412013262
:10218000D2B29042E6D8237C8DF80030231D0ECBCE
:10219000206802F0F9F9054620B1022384F895344D
:1021A0000125A8E700236374012384F8953420688F
:1021B00002F0B6FD9FE701259DE7036890F894249F
:1021C000012A1AD010B50446012280F89424DA6856
:1021D00012F0400F02D0427B012A09D0206802F0A1
:1021E00077F9206802F08EFD002084F8940410BD79
:1021F0009A6B42F480329A63F0E702207047000045
:1022000070B504460D460068066C00EB411303F5FB
:1022100030639A68A179012911D038498E4256D08D
:102220003DB905EBC50304EB8303D3F86432002BFF
:102230005ED0E9B2204606F00DFA002070BD12F023
:10224000080F09D02E498E42F7D912F4004FF4D06E
:102250004FF400429A60F0E712F0200F02D02022E3
:102260009A60EAE712F0280FE7D125498E4206D995
:1022700012F4004F03D04FF400429A60DDE705EB03
:10228000C50204EB8202D2F874121B69C3F3120375
:10229000CB1AC2F868327DB905EBC50204EB8202A5
:1022A000D2F864226AB105EBC50204EB8202D2F8CF
:1022B00060121944C2F86012E9B2204606F0CAF969
:1022C000BBE704F29C42012102F0AAFDF4E712F4FC
:1022D000004F03D04FF400429A60AEE712F0200F97
:1022E00001D020229A60E9B2204606F0B3F9A4E7B3
:1022F00004F29C42002102F093FD9AE70A31544F08
:102300000A30544F38B5044603681D6C03EB411383
:10231000D3F8081B0E4A954207D903F5306311F430
:10232000004F02D04FF400429A60204606F08AF92E
:10233000074B9D4202D9A379012B01D0002038BD63
:1023400004F29C420121206802F06AFDF6E700BF1A
:102350000A30544F90F89434012B0CD010B5044639
:10236000012380F894344174006802F0BBFC002023
:1023700084F8940410BD0220704738B505468C4699
:1023800011F0800F2BD101F00F0E0EEBCE04A40044
:1023900004F514740444211D0EEBCE0E00EB8E0EDA
:1023A00000208EF855020CF00F0C81F800C0C2F32B
:1023B0000A028A600B714A780AB1A1F81AC0022B8E
:1023C0001CD095F89434012B1BD0012385F894344C
:1023D000286802F0B4F9002085F8940438BD01F0B3
:1023E0000F0000EBC001890010312944043100EBDB
:1023F000C00005EB800001244475D4E700234B7135
:10240000DFE70220EAE710B504460A4611F0800F24
:1024100020D101F00F0000EBC0039B0003F5147303
:102420002344191D00EBC00004EB8000002380F85A
:10243000553202F00F020A7094F89434012B18D030
:10244000012384F89434206802F0C6F9002084F84F
:10245000940410BD01F00F0000EBC0039B0010338B
:102460002344191D00EBC00004EB800001234375D9
:10247000DFE70220EDE710B5144601F00F0C0CEB7E
:10248000CC01890001F51471014404310CEBCC0E30
:1024900000EB8E0ECEF86022CEF864320023CEF828
:1024A00068328EF855328EF854C28279012A04D0EF
:1024B000006802F077FA002010BDCEF87042F7E70E
:1024C00001F00F0101EBC10100EB8100D0F86802BF
:1024D000704710B5144601F00F0C0CEBCC018900CD
:1024E0001031014404310CEBCC0E00EB8E0ECEF813
:1024F0002020CEF824300023CEF8283001238EF897
:1025000015308EF814C082799A4204D0006802F027
:1025100049FA002010BDCEF83040F7E738B501F099
:102520000F050279AA4238D304460B4611F0800FFA
:102530001FD101EBC101890001F51471014404317F
:1025400003EBC30300EB8303002283F8552201232E
:102550008B700D7094F89434012B20D0012384F8F3
:102560009434206802F063FB85B1002084F8940461
:1025700038BD05EBC501890010310144043105EB7C
:10258000C50300EB830301225A75E0E704F29C4285
:10259000A179206802F044FCE7E70120E8E7022087
:1025A000E6E701F00F0302799A4230D310B50446F2
:1025B00011F0800F1ED103EBC301890001F51471E6
:1025C0000144043103EBC30200EB8202002082F8D5
:1025D000550200228A700B7094F89434012B18D0A5
:1025E000012384F89434206802F04EFB002084F824
:1025F000940410BD03EBC301890010310144043180
:1026000003EBC30200EB820201205075E1E70120D9
:1026100070470220EDE708B511F0800F0CD101F0F2
:102620000F0101EBC101890001F51471014404316E
:10263000006802F041F908BD01F00F0101EBC10192
:102640008900103101440431F2E72DE9F04F83B0E5
:1026500004460568284602F0A0FB10B103B0BDE8AF
:10266000F08F0646206802F069FB0028F6D005F5D9
:102670000067BB68C3F30D23C4F8D434206802F0AC
:102680005DFB10F0020F04D02268536903F00203CF
:102690005361206802F052FB10F0100F15D0226831
:1026A000936923F010039361D5F8208008F00F0997
:1026B00008F4F013B3F5802F4CD0B3F5402F6FD052
:1026C0002268936943F010039361206802F036FB9F
:1026D00010F4002F76D1206802F030FB10F4802F28
:1026E00040F0E080206802F029FB0028C0F2618100
:1026F000206802F023FB10F4006F09D0BB6813F0D0
:10270000010F40F06E812268536903F40063536146
:10271000206802F013FB10F4805F40F066812068AF
:1027200002F00CFB10F4005F40F0B381206802F06F
:1027300005FB10F0080F40F0C481206802F0FEFA9B
:1027400010F0800F00F0D781AB6923F08003AB61FC
:102750000126C0E147F6F07318EA030FB0D04FEA44
:10276000181A4FEAC903019309EBC90B04EB8B0B51
:10277000C8F30A12DBF86012284602F035FADBF8DB
:102780006032CAF30A0A5344CBF86032DBF868328D
:10279000019A4A4404EB82025344C2F868328FE73C
:1027A000082204F29C41284602F01EFA09EBC903F4
:1027B00004EB8303D3F86822C8F30A184244C3F831
:1027C00068227DE7206802F0BDFA8046B14635E018
:1027D00005EB49130122C3F8082B49462046FFF7B1
:1027E0000FFD3CE005EB49130822C3F8082B4946CE
:1027F0002046FFF787FD35E009EBC90304EB8303AF
:1028000093F85732012B41D005EB49130222C3F84C
:10281000082B1AF0200F04D005EB49132022C3F82F
:10282000082B1AF4005F05D005EB49134FF4005252
:10283000C3F8082B09F101094FEA5808B8F1000F55
:102840003FF449AF18F0010FF4D05FFA89FB594605
:10285000206802F087FA824610F0010FB8D11AF012
:10286000080FBFD11AF0100F04D005EB4913102246
:10287000C3F8082B1AF0020FCBD06B6913F0800F4E
:10288000BAD07B6843F480637B60B5E709EBC9038A
:1028900004EB8303002283F857225946204605F0B3
:1028A00029FFB1E7206802F055FA8046B14625E0DD
:1028B0005946204605F0DAFE1AF0080F04D005EB61
:1028C00049130822C3F808291AF0100F04D005EBA9
:1028D00049131022C3F808291AF0400F04D005EB61
:1028E00049134022C3F808291AF0020F40D11AF008
:1028F000800F59D109F101094FEA5808B8F1000FCA
:102900003FF4F0AE18F0010FF4D05FFA89FB59469E
:10291000206802F030FA824610F0010FCCD009F0A6
:102920000F02012101FA02F27B6B23EA02037B63AF
:1029300005EB4913C3F80819A3798B42B8D109EB09
:10294000C90304EB83031A6AD9690A441A62B9F10C
:10295000000FADD109EBC90304EB83035B6A002BC5
:10296000A6D104F29C420121206802F059FA9FE7A7
:102970004946284601F0B8FD09EBC90304EB83037F
:10298000DB7D012B05D005EB49130222C3F8082992
:10299000ADE709EBC90304EB83030022DA7559465E
:1029A000204605F0ADFEEEE749462046FFF71CFB4A
:1029B000A0E77B6823F001037B6094F8CC34012B03
:1029C00008D0204605F090FE2268536903F00043CA
:1029D00053618DE6002184F8CC14204600F03FF9C5
:1029E000F2E7204605F068FE8DE67B6823F00103E0
:1029F0007B601021206801F077FD1AE005EB46139B
:102A00004FF67F31C3F80819D3F8002922F40012D9
:102A1000C3F80029C3F8081BD3F8002B22F40012D6
:102A2000C3F8002BD3F8002B42F00062C3F8002B50
:102A300001362379B342E1D8FB6943F00113FB610E
:102A4000E37BDBB1D7F8843043F00B03C7F8843065
:102A50007B6C43F00B037B64D5F8003823F4FE63F2
:102A6000C5F8003804F29C42A179206802F0D8F938
:102A70002268536903F48053536150E67B6943F441
:102A8000005343F02B037B613B6943F00B033B6135
:102A9000E2E7206802F0B6F9206801F03FFEE0713D
:102AA000266800F0DDFB0146E279304601F09EFC2D
:102AB000204605F0ECFD2268536903F4005353618E
:102AC00034E6204605F0DDFD2268536903F0080373
:102AD000536132E601362379B3420CD906EBC603C3
:102AE00004EB830393F85732012BF3D1F1B2204664
:102AF000FFF791FDEEE7206802F020F910F4801F47
:102B000025D1206802F01AF910F4001F59D00123D2
:102B100026E001362379B3421BD905EB4613D3F8DF
:102B2000002906EBC60304EB83031B7E012BF0D1C7
:102B3000002AEEDA06EBC60304EB83030122DA7502
:102B400066F07F01C9B22046FFF765FDE1E7012687
:102B5000E0E72268536903F480135361D1E701333E
:102B600022799A4228D905EB4312D2F8001B03EBD5
:102B7000C30204EB820292F85822012AEFD1002905
:102B8000EDDA01F48031D4F8D42402F0010291424C
:102B9000E5D103EBC30204EB8202012182F8571254
:102BA000AA6942F08002AA616A6912F0800FD6D148
:102BB0007B6843F400737B602268536903F400135D
:102BC0005361206802F0BAF810F0804F10D12068ED
:102BD00002F0B4F810F0040F3FF440AD23685D68D4
:102BE00015F0040F0DD1226853682B43536035E56F
:102BF000204605F08BFD2268536903F08043536142
:102C0000E5E7204605F088FDEDE710B40468606A4A
:102C100031B940EA0240A06200205DF8044B7047E1
:102C20008C46A36A00EB1340002308E003F1400147
:102C300004EB8101496800EB11400133DBB20CF178
:102C4000FF318B42F2D340EA02400CF13F0104EB2A
:102C500081046060E0E703685962002070477047B4
:102C6000002800F0E08170B582B00446036813F0DC
:102C7000010F3BD09F4B9B6803F00C03042B2CD01F
:102C80009C4B9B6803F00C03082B21D06368B3F5C1
:102C9000803F4FD0B3F5A02F52D0964B1A6822F444
:102CA00080321A601A6822F480221A606368002B4E
:102CB00050D0FEF799FB05468E4B1B6813F4003F7E
:102CC00014D1FEF791FB401B6428F5D90320B1E134
:102CD000884B5B6813F4800FD8D0864B1B6813F4C5
:102CE000003F03D06368002B00F09F81236813F03E
:102CF000020F54D07F4B9B6813F00C0F3ED07D4BDE
:102D00009B6803F00C03082B33D0E368002B68D0DA
:102D1000794B01221A60FEF767FB0546754B1B686D
:102D200013F0020F54D1FEF75FFB401B0228F5D9C8
:102D300003207FE16F4A136843F480331360B5E7E3
:102D40006C4B1A6842F480221A601A6842F480328E
:102D50001A60ABE7FEF748FB0546664B1B6813F4A9
:102D6000003FC3D0FEF740FB401B6428F5D9032089
:102D700060E1604B5B6813F4800FC6D15D4B1B684C
:102D800013F0020F03D0E368012B40F05081594A41
:102D9000136823F0F803216943EAC1031360236831
:102DA00013F0080F42D063696BB3534B0122C3F891
:102DB000802EFEF719FB05464E4B5B6F13F0020F9A
:102DC00034D1FEF711FB401B0228F5D9032031E175
:102DD000484A136823F0F803216943EAC1031360EA
:102DE000DDE7454B00221A60FEF7FEFA0546414B2F
:102DF0001B6813F0020FD2D0FEF7F6FA401B022830
:102E0000F5D9032016E13C4B0022C3F8802EFEF7D3
:102E1000EBFA0546374B5B6F13F0020F06D0FEF757
:102E2000E3FA401B0228F5D9032003E1236813F0DD
:102E3000040F77D02F4B1B6C13F0805F33D100232E
:102E400001932C4B1A6C42F080521A641B6C03F0F5
:102E500080530193019B0125284B1B6813F4807F4D
:102E600023D0A368012B34D0052B38D0214B1A6F07
:102E700022F001021A671A6F22F004021A67A3688F
:102E8000002B3DD0FEF7B0FA06461A4B1B6F13F02D
:102E9000020F46D1FEF7A8FA801B41F28833984210
:102EA000F3D90320C6E00025D6E7144A136843F49B
:102EB00080731360FEF798FA0646104B1B6813F4F4
:102EC000807FCED1FEF790FA801B0228F5D903202F
:102ED000B0E0084A136F43F001031367CFE7054BD7
:102EE0001A6F42F004021A671A6F42F001021A6761
:102EF000C5E700BF003802400000474200700040B4
:102F0000FEF772FA0646524B1B6F13F0020F08D001
:102F1000FEF76AFA801B41F288339842F3D9032006
:102F200088E0EDB9A369002B00F08380484A9268DD
:102F300002F00C02082A51D0022B17D0454B002278
:102F40001A66FEF751FA0446414B1B6813F0007FE6
:102F500042D0FEF749FA001B0228F5D9032069E0A8
:102F60003B4A136C23F080531364DBE7394B002298
:102F70001A66FEF739FA0546354B1B6813F0007FD9
:102F800006D0FEF731FA401B0228F5D9032051E0A4
:102F9000E369226A1343626A43EA8213A26A52080F
:102FA000013A43EA0243E26A43EA0263284A536071
:102FB000284B01221A66FEF717FA0446244B1B68B9
:102FC00013F0007F06D1FEF70FFA001B0228F5D997
:102FD00003202FE000202DE000202BE0012B2BD040
:102FE0001B4B5B6803F48001E269914226D103F038
:102FF0003F02216A8A4223D1616A47F6C0721A40B1
:10300000B2EB811F1ED103F44031A26A5208013A8B
:10301000B1EB024F18D103F07063E26AB3EB026FB9
:1030200014D1002006E001207047012002E00120B9
:1030300000E0002002B070BD0120FBE70120F9E7AD
:103040000120F7E70120F5E70120F3E70120F1E790
:10305000003802400000474208B5264B9B6803F049
:103060000C03042B41D0082B41D1224B5A6802F0AB
:103070003F025B6813F4800F12D01E4B5968C1F3F6
:1030800088111D480023A1FB0001FDF791F8194BA1
:103090005B68C3F3014301335B00B0FBF3F008BD91
:1030A000144B5868C0F388104FEA401CBCEB000C6E
:1030B0006EEB0E0E4FEA8E1343EA9C634FEA8C11BF
:1030C000B1EB0C0163EB0E03DB0043EA5173C90063
:1030D00011EB000C43F10003990200234FEA8C200E
:1030E00041EA9C51FDF764F8D1E70348D7E703486C
:1030F000D5E700BF00380240001BB7000024F400F1
:10310000002800F09B8070B50D4604464F4B1B68AD
:1031100003F00F038B4208D2CBB24C4A13701368F2
:1031200003F00F038B4240F08B80236813F0020FF3
:1031300017D013F0040F04D0454A936843F4E053CA
:103140009360236813F0080F04D0414A936843F456
:10315000604393603E4A936823F0F003A1680B43F9
:103160009360236813F0010F32D06368012B21D0E4
:103170009A1E012A25D9364A126812F0020F61D030
:1031800033498A6822F0030213438B60FEF72CF95F
:1031900006462F4B9B6803F00C036268B3EB820F6B
:1031A00016D0FEF721F9801B41F288339842F0D9FE
:1031B000032042E0264A126812F4003FE0D10120C9
:1031C0003BE0234A126812F0007FD9D1012034E09D
:1031D0001E4B1B6803F00F03AB4207D9EAB21B4B2F
:1031E0001A701B6803F00F03AB422DD1236813F054
:1031F000040F06D0164A936823F4E053E1680B43AA
:103200009360236813F0080F07D0114A936823F4E2
:103210006043216943EAC1039360FFF71DFF0C4B34
:103220009B68C3F303130B4AD35CD8400A4B186066
:103230000A4B1868FDF7B4FE002070BD01207047EE
:103240000120FAE70120F8E70120F6E7003C024000
:1032500000380240BC920008000000200800002056
:10326000014B1868704700BF0000002008B5FFF749
:10327000F7FF044B9B68C3F38223034AD35CD84017
:1032800008BD00BF00380240B492000808B5FFF73F
:10329000E7FF044B9B68C3F34233034AD35CD84037
:1032A00008BD00BF00380240B49200080F2303603D
:1032B0000B4B9A6802F0030242609A6802F0F00237
:1032C00082609A6802F4E052C2609B68DB0803F4F3
:1032D000E0530361034B1B6803F00F030B6070475F
:1032E00000380240003C024030B4036A026A22F017
:1032F000010202624268846924F0730C0C6844EA9B
:103300000C0423F0020C8B6843EA0C03114DA84215
:1033100003D005F58065A84205D123F00803CD68E8
:103320002B4323F004030B4DA84203D005F5806521
:10333000A84207D122F440724D6945EA020C8A691D
:1033400042EA0C02426084614A684263036230BC14
:10335000704700BF0000014030B4036A026A22F4E3
:10336000807202624268C46924F0730C0C6844EAFB
:103370000C0523F400738C6843EA0423114CA0422B
:1033800003D004F58064A04206D123F40063CC6826
:1033900043EA042323F480630A4CA04203D004F5DB
:1033A0008064A04207D122F440524C6942EA0412E0
:1033B0008C6942EA04124260C5614A68C2630362D2
:1033C00030BC70470000014030B4036A026A22F446
:1033D000805202624468C26922F4E6420D6842EA01
:1033E000052223F400538D6843EA0533094DA842B2
:1033F00003D005F58065A84204D124F480444D69CA
:1034000044EA85144460C2614A680264036230BCC5
:10341000704700BF0000014010B4036A046A24F042
:1034200001040462846924F0F00C4CEA021223F0D7
:103430000A030B43826103625DF8044B704710B4CA
:10344000036A046A24F010040462846924F4704C52
:103450004CEA023223F0A00343EA011382610362C3
:103460005DF8044B7047836823F070030B4343F00F
:10347000070383607047000090F83D30DBB2012BFA
:1034800037D1022380F83D300268D36843F001034E
:10349000D3600368194A934220D0B3F1804F1DD006
:1034A000A2F57C42934219D002F58062934215D076
:1034B00002F58062934211D002F5784293420DD01A
:1034C00002F57052934209D0A2F59432934205D08E
:1034D0001A6842F001021A60002070479A6802F0F0
:1034E0000702062A07D01A6842F001021A6000207B
:1034F0007047012070470020704700BF0000014066
:103500007047704770477047704770B5044603684E
:10351000DE681D6915F0020F10D016F0020F0DD0F5
:103520006FF002021A610123037703689B6913F0AD
:10353000030F5ED0FFF7E6FF0023237715F0040F9B
:1035400012D016F0040F0FD023686FF004021A6136
:103550000223237723689B6913F4407F4FD02046D2
:10356000FFF7D0FF0023237715F0080F12D016F0D5
:10357000080F0FD023686FF008021A610423237725
:103580002368DB6913F0030F40D02046FFF7BAFF32
:103590000023237715F0100F12D016F0100F0FD064
:1035A00023686FF010021A61082323772368DB6910
:1035B00013F4407F31D02046FFF7A4FF0023237788
:1035C00015F0010F02D016F0010F2DD115F0800F6C
:1035D00002D016F0800F2FD115F0400F02D016F058
:1035E000400F31D115F0200F02D016F0200F33D14B
:1035F00070BDFFF786FF2046FFF785FF9CE720465A
:10360000FFF77FFF2046FFF77EFFABE72046FFF77F
:1036100078FF2046FFF777FFBAE72046FFF771FFF4
:103620002046FFF770FFC9E723686FF001021A61B7
:103630002046FDF713FCC9E723686FF080021A618A
:10364000204600F008FAC7E723686FF040021A61CD
:103650002046FFF759FFC5E723686FF020021A6183
:10366000204600F0F7F9C3E70368344A904212D0CD
:10367000B0F1804F0FD0A2F57C4290420BD002F502
:103680008062904207D002F58062904203D002F53A
:103690007842904203D123F070034A681343274ACB
:1036A00090422AD0B0F1804F27D0A2F57C429042C0
:1036B00023D002F5806290421FD002F580629042D2
:1036C0001BD002F57842904217D002F5705290421A
:1036D00013D002F5806290420FD002F580629042D2
:1036E0000BD0A2F59832904207D002F5806290424A
:1036F00003D002F58062904203D123F44073CA687C
:10370000134323F080034A69134303608B68C36249
:103710000B688362094B984203D003F5806398429B
:1037200001D10B69036301234361036913F0010FA6
:1037300003D0036923F001030361704700000140D7
:1037400040B310B5044690F83D30F3B1022384F83D
:103750003D30214651F8040BFFF786FF012384F822
:10376000463084F83E3084F83F3084F8403084F8A6
:10377000413084F8423084F8433084F8443084F88F
:10378000453084F83D30002010BD80F83C30FDF716
:10379000CDFCDBE70120704740B310B5044690F83C
:1037A0003D30F3B1022384F83D30214651F8040B3B
:1037B000FFF75AFF012384F8463084F83E3084F83E
:1037C0003F3084F8403084F8413084F8423084F847
:1037D000433084F8443084F8453084F83D3000208C
:1037E00010BD80F83C30FFF78BFEDBE7012070470F
:1037F00030B4036A026A22F01002026244688269ED
:1038000022F4E6420D6842EA052223F020038D6887
:1038100043EA0513114DA84203D005F58065A8427F
:1038200006D123F08003CD6843EA051323F040035B
:103830000A4DA84203D005F58065A84207D124F4BB
:1038400040644D6944EA85048D6944EA8504446016
:1038500082614A688263036230BC704700000140A5
:1038600038B590F83C30012B66D004460D46012354
:1038700080F83C300C2A5AD8DFE802F00759595931
:103880001B5959593059595944000068FFF72CFD0C
:103890002268936943F0080393612268936923F0D7
:1038A000040393612268936929690B4393610020A3
:1038B0003EE00068FFF79CFF2268936943F40063D1
:1038C00093612268936923F480639361226893690A
:1038D000296943EA01239361002029E00068FFF78A
:1038E0003BFD2268D36943F00803D3612268D369A2
:1038F00023F00403D3612268D36929690B43D361A0
:10390000002015E00068FFF75FFD2268D36943F4EB
:103910000063D3612268D36923F48063D361226892
:10392000D369296943EA0123D361002000E0012023
:10393000002384F83C3038BD0220FCE710B48468D2
:1039400024F47F4C42EA03220A4342EA0C028260DA
:103950005DF8044B704790F83C30012B78D010B5DF
:103960000446012380F83C30022380F83D30026891
:10397000936823F47F4323F0770393600B68602BF5
:103980004CD023D8402B54D011D8202B03D00AD8A8
:103990000BB1102B05D119462068FFF764FD0020FC
:1039A00028E0012026E0302BF5D0012022E0502B2A
:1039B0000AD1CA6849680068FFF72EFD50212068C7
:1039C000FFF751FD002015E0012013E0B3F5805F03
:1039D0003AD0B3F5005F14D0702B37D1CB684A686A
:1039E00089680068FFF7AAFF2268936843F07703AD
:1039F00093600020012384F83D30002384F83C309C
:103A000010BDCB684A6889680068FFF797FF226895
:103A1000936843F4804393600020EBE7CA684968E9
:103A20000068FFF70CFD60212068FFF71CFD0020F7
:103A3000E0E7CA6849680068FFF7EEFC40212068AB
:103A4000FFF711FD0020D5E70020D3E70120D1E7E3
:103A50000220704770477047704770477047704743
:103A60007047704770477047704708B50346806BD2
:103A70001B681B6813F4807F2BD10023C385026869
:103A800002F10C0353E8003F23F480730C3242E848
:103A900000310029F3D1026802F1140353E8003F1A
:103AA00023F00103143242E800310029F3D1026807
:103AB00002F1140353E8003F23F04003143242E8BC
:103AC00000310029F3D1202380F84230036B012B11
:103AD00007D000234363036B012B0FD0436D98473E
:103AE00008BD026802F10C0353E8003F23F0100305
:103AF0000C3242E800310029F3D1EAE7C36E818D30
:103B00009847EDE708B5806B01234363036B012BF6
:103B100002D0036D984708BDC36E818D4908984750
:103B2000F9E7026802F10C0353E8003F23F0C003F9
:103B30000C3242E800310029F3D1202380F84130D3
:103B40007047026802F10C0353E8003F23F49073BE
:103B50000C3242E800310029F3D1026802F114036B
:103B600053E8003F23F00103143242E800310029FA
:103B7000F3D1036B012B05D0202380F842300023C2
:103B800003637047026802F10C0353E8003F23F01F
:103B900010030C3242E800310029F3D1ECE710B5F4
:103BA000846B23685A6994F84130DBB2212B10D022
:103BB00023685A6902F0400294F84230DBB2222BAB
:103BC00011D0636C43F010036364A36D20469847E3
:103BD00010BD02F08002002AEAD00023E3842046D0
:103BE000FFF79FFFE4E7002AEBD00023E3852046A0
:103BF000FFF7A7FFE5E708B5806B0023C385C38403
:103C0000836D984708BD90F84130DBB2212B01D07D
:103C1000022070478368B3F5805F17D0036A5A1C8F
:103C200002621A7803685A60C38C9BB2013B9BB254
:103C3000C3844BB90268D36823F08003D360026861
:103C4000D36843F04003D360002070470369002B22
:103C5000E4D1036A1B880268C3F308035360036A54
:103C600002330362E0E708B50168CA6822F0400247
:103C7000CA60202280F84120C36C9847002008BD0C
:103C800090F84230DBB2222B69D18368B3F5805FB4
:103C900034D0826AB3F5805F04D0002B3BD1036936
:103CA000002B38D103685B681370836A0133836229
:103CB000C38D9BB2013B9BB2C385002B51D100B594
:103CC00083B00268D36823F02003D3600268D3680E
:103CD00023F48073D3600268536923F001035361B6
:103CE000202380F8423000234363036B012B18D05C
:103CF000436D9847002003B05DF804FB0269002A79
:103D0000C7D1826A03685B68C3F308031380836AC0
:103D100002338362CCE703685B6803F07F031370B0
:103D2000C3E700230363026802F10C0353E8003F7A
:103D300023F010030C3242E800310029F3D103686C
:103D40001A6812F0100F06D0002201921A68019230
:103D50005B680193019BC36E818D9847CAE702207F
:103D6000704700207047000010B5044602681369D0
:103D700023F44053C1680B431361836802691A43FB
:103D800043691A43C3691A430168CB6823F4164395
:103D900023F00C031343CB600268536923F4407390
:103DA00081690B4353610368314A934206D002F59F
:103DB0008062934202D0FFF759FA01E0FFF766FAFA
:103DC000E369B3F5004F29D00021031849411B18BE
:103DD00041F10001C90041EA5371DB001818636822
:103DE0004FEA83024FEA937341F10001FCF7E0F9D7
:103DF000204AA2FB00314909642303FB11031B0184
:103E00003233A2FB03235B0903F0F00202EB011241
:103E100003F00F03216813448B6010BD00230218C8
:103E200043EB0301121841F10001C90041EA52714C
:103E3000D200101841F10001626892185B41FCF752
:103E4000B7F90C4AA2FB00314909642303FB1103B3
:103E5000DB003233A2FB03235B095A0002F4F87241
:103E600002EB011203F00703216813448B60D4E7CF
:103E7000001001401F85EB510346A1B193F840208B
:103E8000012A19D0012283F8402093F84120D2B2B0
:103E9000202A0ED05A6C42F020025A6401200022DF
:103EA00083F8402070475A6C42F020025A64012087
:103EB0007047D9660020F2E70220704710B582B043
:103EC000044602681368D068516913F00F0F09D1D6
:103ED00013F0200F0CD010F0200F09D02046FFF770
:103EE000CFFE16E011F0010115D110F4907F12D130
:103EF000216B012979D013F0800F03D010F0800FCF
:103F000040F0148113F0400F03D010F0400F40F048
:103F1000118102B010BD13F0010F06D010F4807FA4
:103F200003D0626C42F00102626413F0040F04D00B
:103F300019B1626C42F00202626413F0020F04D005
:103F400019B1626C42F00402626413F0080F07D0EA
:103F500010F0200F00D119B1626C42F008026264C7
:103F6000626C002AD5D013F0200F02D010F0200F81
:103F700029D123685B6903F04003626C12F0080FDB
:103F800000D163B32046FFF7DCFD23685B6913F0C3
:103F9000400F20D0226802F1140353E8003F23F0C1
:103FA0004003143242E800310029F3D1E36B73B1CE
:103FB000624A1A65E06BFDF712FE0028A9D0E06B9B
:103FC000036D9847A5E72046FFF75AFED1E7A36D9A
:103FD000204698479DE7A36D2046984799E7A36D33
:103FE000204698470023636493E713F0100F82D0B4
:103FF00010F0100F3FF47FAF00230193136801937B
:1040000053680193019B536913F0400F52D0E26B48
:1040100013685B689BB2002B3FF47BAFA18D994284
:104020007FF677AFE385D369B3F5807F37D0226819
:1040300002F10C0353E8003F23F480730C3242E892
:1040400000310029F3D1226802F1140353E8003F44
:1040500023F00103143242E800310029F3D1226831
:1040600002F1140353E8003F23F04003143242E806
:1040700000310029F3D1202384F842300023236348
:10408000226802F10C0353E8003F23F010030C32C6
:1040900042E800310029F3D1E06BFDF756FD022321
:1040A0006363E26EA18DE38D9BB2C91A89B220468B
:1040B00090472EE7A18DE38D9BB2C91A89B2E38D9B
:1040C0009BB2002B3FF425AF00293FF422AF2268BA
:1040D00002F10C0353E8003F23F490730C3242E8E2
:1040E00000300028F3D1226802F1140353E8003FA6
:1040F00023F00103143242E800300028F3D12023DA
:1041000084F8423000232363226802F10C0353E851
:10411000003F23F010030C3242E800300028F3D1B6
:1041200002236363E36E20469847F2E62046FFF7DA
:104130006AFDEEE62046FFF796FDEAE6F73B00084B
:10414000094B8364094BC364094B0365094B436501
:10415000094B8365094BC365094B0366094B4366ED
:10416000094BC366704700BF5B3A0008593A000824
:104170005F3A00085D3A0008613A0008633A0008B7
:10418000653A0008673A0008693A0008002834D008
:1041900010B5044690F8413013B3242384F841301D
:1041A0002268D36823F40053D3602046FFF7DCFD78
:1041B0002268136923F4904313612268536923F042
:1041C0002A0353612268D36843F40053D36000206C
:1041D0006064202384F8413084F84230606310BD6D
:1041E00080F84030FFF7ACFF236F1BB1236F2046F0
:1041F0009847D2E7024B2367F8E70120704700BFDA
:104200008912000830B583B0044613468162828566
:1042100000254564222280F84220C26B1F48D063EB
:10422000E26B1F481064E26B1E48D064E26B1565B8
:1042300020680A46011DE06BFDF752FC01952368DA
:104240001A6801925B680193019B23695BB1226844
:1042500002F10C0353E8003F43F480730C3242E850
:1042600000310029F3D1226802F1140353E8003F22
:1042700043F00103143242E800310029F3D12268EF
:1042800002F1140353E8003F43F04003143242E8C4
:1042900000310029F3D1002003B030BD6B3A000893
:1042A000053B00089F3B000890F84230DBB2202B12
:1042B00029D110B582B0044639B312B9012002B039
:1042C00010BD0123036300234363FFF79BFF002816
:1042D000F5D1236B012B01D00120F0E700230193DE
:1042E00023681A6801925B680193019B226802F1BE
:1042F0000C0353E8003F43F010030C3242E8003156
:104300000029F3D1DBE7022070470120D7E782B014
:1043100000230193019B01330193019BB3F1706F63
:1043200015D80369002BF5DA00230193036943F0E4
:1043300001030361019B01330193019BB3F1706F92
:1043400008D8036913F0010FF4D1002000E0032026
:1043500002B070470320FBE784B010B5044603A801
:1043600080E80E009DF81130012B21D1A36B23F4BE
:104370008033A363E36823F4840323F04003E36002
:10438000E36823F44013E3609DF81830012B0AD052
:104390002046FFF7BCFF9DF80E30012B1CD0BDE876
:1043A000104004B07047E36843F48013E360EFE724
:1043B000E36843F04003E3602046FFF7A8FF9DF861
:1043C000153023B9A36B43F48033A363E3E7A36BF6
:1043D00023F48033A363DEE7A36843F00603A360FE
:1043E000A36843F02003A360D9E70000022A0AD0A3
:1043F0000922C36823F47053C360C36843EA82236D
:10440000C36000207047234B0B44234A93422FD9AB
:10441000224B0B44224A93422CD9A1F57403A3F5F5
:104420001053204A934227D9A1F18373A3F5E743A0
:104430001D4A934222D31D4B0B441D4A93421FD960
:104440001C4B0B441C4A93421CD31C4B0B441C4A70
:10445000934219D3A1F1B773A3F55853194A934264
:1044600014D3194B0B44194A934211D20722C0E7C7
:104470000F22BEE70E22BCE70D22BAE70C22B8E7F6
:104480000B22B6E70A22B4E70922B2E70822B0E716
:104490000622AEE7405327FFFF340C00401E1BFFEF
:1044A0003F420F007F4F120020D6130060B6E5FE9A
:1044B0005FE3160000D3CEFE40771B00C05BB3FE67
:1044C000C091210020753800E05459FEE09C410065
:1044D000836843F00103836000207047836823F002
:1044E000010383600020704782B000230193019B89
:1044F00001330193019BB3F1706F15D80369002B51
:10450000F5DA00230193890141F020010161019B4B
:1045100001330193019BB3F1706F08D8036913F065
:10452000200FF4D1002000E0032002B070470320E8
:10453000FBE782B000230193019B01330193019BB0
:10454000B3F1706F13D80369002BF5DA00230193E0
:1045500010230361019B01330193019BB3F1706F41
:1045600008D8036913F0100FF4D1002000E00320F5
:1045700002B070470320FBE7D0F800381943C0F8B9
:10458000001800207047000084B0F8B5044607A862
:1045900080E80E00002306E003F1400204EB8202F3
:1045A0000021516001330E2BF6D99DF8266006BB21
:1045B000D4F8043843F00203C4F80438A36B43F47E
:1045C0000013A363A36B23F40023A363A36B23F45F
:1045D0008023A3630023C4F8003E9DF82130012B03
:1045E00015D19DF81F306BB900212046FFF7C4FF9D
:1045F00011E0A36B23F40013A363A36B43F4002324
:10460000A363E7E701212046FFF7B6FF03E003219C
:104610002046FFF7B1FF10212046FFF765FF054652
:1046200000B101252046FFF784FF00B1012504F504
:10463000006C0023CCF81030CCF81430CCF81C30CF
:104640000AE0CBB94FF00060C2F8000900220A610D
:104650004FF67F328A6001339DF81C10994210D9C1
:1046600004EB431202F51061D2F800090028E8DBE0
:104670000020C2F80009E9E74FF09040C2F80009B5
:10468000E4E700230AE0BBB14FF09047C2F8007B9B
:10469000002202614FF67F3282600133994210D9C5
:1046A00004EB431202F53060D2F8007B002FEADB06
:1046B0000027C2F8007BEBE74FF00067C2F8007BF1
:1046C000E6E7DCF8103023F48073CCF810300023D8
:1046D000A3616FF0804363619DF81E301BB9A3692D
:1046E00043F01003A361A2690B4B1343A3619DF830
:1046F00022301BB1A36943F00803A361012E04D04B
:104700002846BDE8F84004B07047A36943F08043F1
:1047100043F00403A361F3E700383C80D0F8083885
:1047200003F00603022B04D0062B04D02BB9002083
:10473000704702207047022070470F20704710B565
:1047400091F800C04B78012B23D000F5006ED0F813
:104750001C380CF00F040122A24043EA0243C0F8C7
:104760001C3800EB4C10D0F8003B13F4004F0ED176
:10477000D0F8003B8A68C2F30A02097942EA814212
:10478000134343F0805343F40043C0F8003B002040
:1047900010BDD0F81C280CF00F0E03FA0EF39BB2DC
:1047A0001343C0F81C3800EB4C10D0F8003913F458
:1047B000004FECD1D0F800398A68C2F30A020979B7
:1047C00042EA814242EA8C52134343F0805343F45D
:1047D0000043C0F80039DAE730B40B784A78012A90
:1047E00026D000EB4313D3F8002B002A52DBD0F87D
:1047F0003C480A7802F00F024FF0010C0CFA02F26A
:1048000024EA0242C0F83C28D0F81C28097801F0BC
:104810000F010CFA01FC22EA0C42C0F81C28D3F864
:10482000001B234A0A40C3F8002B002030BC70470D
:1048300000EB4313D3F80029002A1EDBD0F83C58C4
:104840000A7802F00F02012404FA02F292B225EA79
:104850000202C0F83C28D0F81C28097801F00F01AA
:104860008C40A4B222EA0402C0F81C28D3F8001934
:10487000104A0A40C3F80029D7E7D3F8002942F0CC
:104880000062C3F80029D3F8002942F08042C3F83F
:104890000029D3E7D3F8002B42F00062C3F8002BC5
:1048A000D3F8002B42F08042C3F8002B9FE700BFF3
:1048B0000078F3EF007833EC10B483B002460023A5
:1048C0000193487801280BD00B7802EB4313D3F8FF
:1048D000000B00282DDB002003B05DF8044B70476F
:1048E0000B7802EB4313D3F80049002C01DB0020C6
:1048F000F2E7D3F8004944F00064C3F800490B78AC
:1049000002EB4313D3F8004944F08044C3F8004954
:10491000019B01330193019C42F210739C42DBD84E
:104920000B7802EB4313D3F80039002BF0DB0020A7
:10493000D2E7D3F8000B40F00060C3F8000B0B780F
:1049400002EB4313D3F8000B40F08040C3F8000B98
:10495000019B01330193019842F21073984208D8E9
:104960000B7802EB4313D3F8003B002BF0DB002065
:10497000B2E70120B0E710B59DF8084084B90333D1
:104980004FEA930E4FF0000C08E000EB023303F502
:10499000805351F8044B1C600CF1010CF445F4D326
:1049A000002010BDF0B583B00C784B78012B2DD0D2
:1049B00000EB441C0CF530631D696FF312051D619B
:1049C0001D696FF3DC451D61002C40F0CE800C6941
:1049D0000CB18C680C618C680C621D69C4F3120404
:1049E0002C431C611C6944F400241C61012A00F062
:1049F000DF800B79012B00F0E180DCF8003B43F015
:104A00000443CCF8003B002003B0F0BD0B6973BB3E
:104A100000EB4413D3F810596FF3DC45C3F8105979
:104A2000D3F8105945F40025C3F81059D3F810599C
:104A30006FF31205C3F81059012A54D000EB441447
:104A4000D4F8003943F00443C4F800390B79012B42
:104A500072D00B69002BD6D0D0F83438097801F029
:104A60000F0101228A401343C0F83438CBE700EB32
:104A7000441303F510631D696FF312051D611D6971
:104A80006FF3DC451D6184B90E698D68AE4200D9B3
:104A90000D611D6945F400251D611D690E69C6F390
:104AA000120C45EA0C051D61C6E70D698E68354498
:104AB000013DB5FBF6F51E691FFA85FC494F07EA73
:104AC000C54535431D610D79012DE6D11D6925F0E0
:104AD000C0451D611D694FEA4C7C0CF0C04C45EA95
:104AE0000C051D61D9E7CB691BB100EB4412C2F87C
:104AF00014390B79012B08D000EB4414D4F8003999
:104B000043F00443C4F800397DE7D0F8083813F4C3
:104B1000807F08D100EB4412D2F8003943F00053F3
:104B2000C2F80039E8E700EB4412D2F8003943F04C
:104B30008053C2F80039DFE7D0F8083813F4807FDB
:104B40000CD1D4F8003943F00053C4F80039009276
:104B50000B8A0A78C968FFF70EFF54E7D4F80039CA
:104B600043F08053C4F80039F1E70C6954B91C696B
:104B70008D68C5F312052C431C611C6944F40024A4
:104B80001C6133E78D682C44013CB4FBF5F4A4B2FE
:104B900004FB05F50D621D69124E06EAC4442C4360
:104BA0001C611C690D6AC5F312052C431C611DE7CD
:104BB000CA68002A3FF41DAF5A611AE7D0F80838D6
:104BC00013F4807F06D1DCF8003B43F00053CCF8AF
:104BD000003B12E7DCF8003B43F08053CCF8003B8D
:104BE0000BE700BF0000F81F10B5844608464FEAE7
:104BF000920E02F00302002305E00CF580510968D3
:104C000040F8041B01337345F7D37AB10CF5805C8F
:104C1000DCF800400021CBB2DB0024FA03F300F8FB
:104C2000013B0131013A92B2002AF4D110BD0B7858
:104C30004A78012A14D000EB4310D0F8002B002A48
:104C400006DB2BB1D0F8003B23F08043C0F8003BDB
:104C5000D0F8003B43F40013C0F8003B002070473D
:104C600000EB4310D0F80029002A06DB2BB1D0F866
:104C7000003923F08043C0F80039D0F8003943F4FC
:104C80000013C0F80039E9E70B784A78012A0ED002
:104C900000EB4310D0F8003B23F40013C0F8003BB6
:104CA0000B79023BDBB2012B15D90020704700EBDA
:104CB0004310D0F8003923F40013C0F800390B7901
:104CC000023BDBB2012BF0D8D0F8003943F080531F
:104CD000C0F80039E9E7D0F8003B43F08053C0F852
:104CE000003BE2E7D0F8003823F4FE63C0F8003858
:104CF000D0F80038090101F4FE610B43C0F8003818
:104D000000207047D0F8003E23F00303C0F8003EB7
:104D1000D0F8043823F00203C0F8043800207047AC
:104D2000D0F8003E23F00303C0F8003ED0F804386A
:104D300043F00203C0F804380020704742698069DC
:104D400010407047D0F8183800F50060C06918406E
:104D5000000C7047D0F8183800F50060C0691840A2
:104D600080B2704700EB4111D1F8082B00F50060CC
:104D7000406910407047D0F81028D0F8343801F05E
:104D80000F0C23FA0CF3DB01DBB2134300EB4110F1
:104D900000F51060806818407047406900F001001D
:104DA000704738B50546C36823F0C043C360012986
:104DB00013D019BBC36843F08043C36000240A20AA
:104DC000FCF718FB0A342846FFF7E7FF08B1C72CA9
:104DD000F5D9C82C14D0002038BDC36843F0005367
:104DE000C36000240A20FCF705FB0A342846FFF7BD
:104DF000D4FF0128EDD0C72CF4D9EAE70120EBE776
:104E00000120E9E7D0F800396FF30A03C0F8003950
:104E1000D0F8043843F48073C0F804380020704799
:104E200010B4046C154B9C4203D9D0F8003B002B06
:104E300016DB0024C0F8104BD0F8104B44F40024CB
:104E4000C0F8104BD0F8104B44F01804C0F8104BC9
:104E5000D0F8104B44F0C044C0F8104B012903D0E7
:104E600000205DF8044B7047C0F8142BD0F8003BCD
:104E700043F08023C0F8003BF2E700BF0A30544FF4
:104E800010B5D0F8D43203F1B00250F822408CB102
:104E900000EB820043687BB194F80002FF280DD03C
:104EA0009B6894F8012221469847FF2384F800323A
:104EB000002010BD0320FCE70020FAE70020F8E7FF
:104EC0000A2303800048704788000020F8B5064692
:104ED0000F4F8221384600F029FC05460121384653
:104EE00000F024FC04468121384600F01FFC0DB17F
:104EF0001022AA711CB1402222710022627118B1E5
:104F00004022027100224271432333800048F8BDE1
:104F10000C000020F8B506460F4F8221384600F0FD
:104F200005FC05460121384600F000FC04468121BD
:104F3000384600F0FBFB0DB11022AA711CB14022D3
:104F400022710022627118B1402202710022427166
:104F5000432333800048F8BD0C000020F8B5064616
:104F60000F4F8221384600F0E1FB0546012138460B
:104F700000F0DCFB04468121384600F0D7FB0DB180
:104F80001022AA711CB1002222710222627118B192
:104F90000022027102224271432333800048F8BD8F
:104FA0000C00002038B5D0F8D432B03350F823507C
:104FB00095B1044603F000FCC5F80C02D4F8D432D5
:104FC000B03304EB83046368DB6805F50371D5F83F
:104FD00004029847002038BD0320FCE738B5D0F81C
:104FE000C852D0F8D432B03350F8234084B301F023
:104FF0000F0303EB830200EB820292694AB103EBD9
:10500000C30C05EB8C05ED69B2FBF5FC05FB1C221E
:1050100092B10023C4F81432D0F8D432B03300EB8C
:10502000830043681B69ABB10A4604F50471D4F8E8
:1050300008029847002038BD03EB830300EB83038D
:1050400000249C612346224603F0FEFB2046F2E743
:105050000320F0E70020EEE7F0B583B0D0F8D432BB
:1050600003F1B00250F8227000228DF80720ADF84D
:105070000420002F7BD004460D46097811F060060D
:1050800034D0202E6CD1EA882AB311F0800F07D1DA
:105090006B7887F80032EA883F2A13D8D2B212E040
:1050A000B03300EB83035B689B68394668789847A8
:1050B000EA88072A28BF07223946204600F0ECFE7E
:1050C000002651E0402287F801223946204600F0B0
:1050D000F8FE002648E0B03300EB83035B689B6872
:1050E000002229466878984700263DE06F780B2F0C
:1050F00031D8DFE807F0063930303030303030302A
:10510000162690F89C32DBB2032B04D0294600F01F
:105110004AFB032628E0022201A900F0BDFE3E461C
:1051200022E090F89C32DBB2032B04D0294600F039
:105130003AFB032618E001220DF1070100F0ACFE56
:1051400012E090F89C32DBB2032B0DD0294600F020
:105150002AFB032608E0294600F025FB032603E08E
:10516000294600F020FB0326304603B0F0BD03269D
:10517000FAE738B50446812103F046FB0025258770
:105180000121204603F040FBA4F8785182212046FB
:1051900003F03AFBA4F84C50A4F84E50D4F8D432A3
:1051A00003F1B00254F822209AB1B03304EB830328
:1051B0005B685B689847D4F8D432B03354F8230066
:1051C00003F004FBD4F8D432B03344F82350C4F8CD
:1051D000BC52002038BD70B504464FF4077003F090
:1051E000F1FA002849D005464FF40772002103F078
:1051F000ADFCD4F8D432B03344F82350C4F8BC52D8
:10520000237C002B41D14FF40073022281212046E0
:1052100003F0EFFA012626874FF40073022231468D
:10522000204603F0E6FAA4F878611023A4F84E3083
:10523000082303228221204603F0DBFA0123A4F88D
:105240004C300026C5F80462D4F8D432B03304EBF5
:1052500083035B681B689847C5F81462C5F8186239
:10526000D5F8042262B3257C1DBB4FF400730121E5
:10527000204603F0F1FA284670BDD4F8D432B0339A
:10528000002244F823200225F5E740230222812151
:10529000204603F0AEFA012626874023022231463B
:1052A000204603F0A6FAA4F878611023A4F84E3043
:1052B000BEE740230121204603F0CEFA0025DAE7BD
:1052C0000225D8E739B1D0F8D432B03300EB8300EF
:1052D00041600020704703207047D0F8D432B033CB
:1052E00050F823302BB1C3F80812C3F81022002065
:1052F000704703207047D0F8D432B03350F82330D1
:105300001BB1C3F80412002070470320704710B58A
:10531000D0F8D432B03350F8232092B1047C44B991
:105320004FF40073D2F80422012103F095FA2046CD
:1053300010BD4023D2F80422012103F08DFA00248D
:10534000F5E70324F3E798B108B503460020C3F856
:10535000B802C3F8C402C3F8D00209B1C3F8B4124A
:10536000012183F89C121A70184603F0DBF908BD7E
:105370000320704710B582B00023ADF80630B9B1F4
:105380000446C0F8B812D0F8D422CB6A43B1AE328A
:1053900050F82230DB6A0DF106009847C4F8D002BD
:1053A000D4F8D8320133C4F8D832002002B010BD8E
:1053B0000320FBE708B503F014FA08BD08B5D0F8E0
:1053C000B83213B11B68984708BD0020FCE708B548
:1053D000D0F8B8325B68984700B908BD0320FCE7F5
:1053E00038B5044600F2AA25284600F0C8F9012382
:1053F000C4F89432B4F8B032C4F8983294F8AA12CF
:1054000001F01F03012B07D0022B0AD073B92946E4
:10541000204600F089FB38BD2946204600F0BFFB3E
:10542000F9E72946204600F0FCFBF4E701F0800193
:10543000204603F0F1F9EEE7F8B50446012380F8C1
:105440009C320023C0F894324360C0F8A43280F844
:10545000A032D0F8B832DBB15B68DBB100219847ED
:105460000746C8B9402300221146204603F0C1F97F
:105470000126A4F864614025C4F860512B4600223F
:105480008021204603F0B5F9A68425623846F8BD90
:105490000027E7E70027E5E70327E3E7017400209B
:1054A000704790F89C32DBB2042B04D090F89C3209
:1054B000DBB280F89D32042380F89C3200207047D4
:1054C00090F89C32DBB2042B01D00020704790F89A
:1054D0009D32DBB280F89C32F7E708B590F89C3239
:1054E000DBB2032B01D0002008BDD0F8B832002B6E
:1054F000F9D0DB69002BF6D09847F4E708B5D0F86F
:10550000D432AE3350F823205AB190F89C32DBB23B
:10551000032B01D0002008BD136A23B19847002057
:10552000F9E70320F7E70020F5E708B5D0F8D43213
:10553000AE3350F823205AB190F89C32DBB2032BE3
:1055400001D0002008BD536A23B198470020F9E735
:105550000320F7E70020F5E70020704708B5012396
:1055600080F89C32D0F8B83223B15B680179984753
:1055700010B908BD0020FCE70320FAE700207047BF
:105580000020704738B504460D46002942D1134625
:10559000D0F89422032A01D0084638BDD0F85C1117
:1055A000D0F86021914209D890F8AA3203F01F0385
:1055B000012B0ED0022B1BD028460FE0891AC0F811
:1055C0005C118A4228BF0A46194600F089FC284629
:1055D000E3E790F8AE12FFF7D1FF20B994F89C32C0
:1055E000DBB2032B09D0204600F082FC2846D4E72A
:1055F00090F8AE12FFF7C4FFEFE700F1AE0354F8E6
:1056000023301A69002AEED0C4F8D4021B69204660
:105610009847E8E701F07F01FFF7B2FF90B994F8EF
:105620009C32DBB2032BB8D100F1AE0354F8233027
:105630009A69002AB1D0C4F8D4029B692946204651
:105640009847AAE70020A8E738B504460D46002988
:105650004BD11346D0F89422022A07D094F8A00226
:1056600018B1002384F8A032284638BDC269016A07
:105670008A420ED88A4218D094F89C32DBB2032BAF
:1056800027D08021204603F0C7F8204600F03BFCDD
:10569000E4E7521AC261194600F00BFC00231A46D7
:1056A0001946204603F0D8F8D8E783699942E3D831
:1056B000D0F898229342DFD20022114600F0F9FB85
:1056C0000021C4F898120B460A46204603F0C4F89D
:1056D000C4E7D4F8B832DA68002AD2D00022C4F87D
:1056E000D422DB6820469847CBE741F08001FFF7E2
:1056F00047FF90B994F89C32DBB2032BB5D100F18F
:10570000AE0354F823305A69002AAED0C4F8D4024C
:105710005B69294620469847A7E70020A5E70B8844
:10572000027813440B80037818447047428803784A
:105730009A4218D930B583B004460D46ADF806300C
:105740006388BDF806209A420AD20DF10601FFF7E0
:10575000E6FF4378052BF3D18378AB42F0D100E02C
:10576000002003B030BD002070470346002002E057
:105770000130C0B201331A78002AF9D170470B7892
:1057800003704B7843708B78CA7843EA02234380D6
:105790000B794A7943EA022383808B79CA7943EAF9
:1057A0000223C380704710B50446802103F034F80B
:1057B0000021204603F030F810BD30B583B0044618
:1057C0000D460023ADF806304A88130A013B062B2C
:1057D00000F2AB80DFE803F0041F33A9A98D9A0023
:1057E000D0F8B4321B680DF10601007C9847EA88B6
:1057F000002A00F0A380BDF80630002B00F099804D
:105800009A4228BF1A46ADF806200146204600F00D
:1058100043FB03B030BD037C43B9D0F8B8329B6A78
:105820000DF10600984702234370E0E7D0F8B83244
:10583000DB6A0DF10600984702234370D7E7D2B226
:10584000052A52D8DFE802F003101D2A3744D0F8A9
:10585000B4325B6823B10DF10601007C9847C6E7BE
:105860002946FFF7A0FFD4E7D0F8B4329B6823B1F4
:105870000DF10601007C9847B9E72946FFF793FF31
:10588000C7E7D0F8B432DB6823B10DF10601007C24
:105890009847ACE72946FFF786FFBAE7D0F8B4325D
:1058A0001B6923B10DF10601007C98479FE729464B
:1058B000FFF779FFADE7D0F8B4325B6923B10DF1A2
:1058C0000601007C984792E72946FFF76CFFA0E7A6
:1058D000D0F8B4329B6923B10DF10601007C9847E2
:1058E00085E72946FFF75FFF93E72946FFF75BFF50
:1058F0008FE7037C33B9D0F8B8325B6B0DF106004B
:10590000984774E72946FFF74EFF82E7037C43B9C7
:10591000D0F8B8321B6B0DF106009847072343708F
:1059200065E72946FFF73FFF73E72946FFF73BFF8F
:105930006FE729462046FFF736FF6AE7204600F06A
:10594000D7FA66E738B504468B88FBB9CB88EBB944
:105950004B887F2B1AD803F07F0590F89C32DBB27E
:10596000032B0CD080F89E52294602F065FF20469A
:1059700000F0BEFA35B1022384F89C3209E0FFF74B
:1059800012FF06E0012384F89C3202E02046FFF774
:105990000AFF38BD70B504460E468D782F4B1D703A
:1059A000012D10D890F89C32DBB2022B0FD0032BC4
:1059B00026D0FFF7F8FE294B19782046FFF707FDA0
:1059C0000325284670BDFFF7EEFE0325F9E7A5B1D4
:1059D00045602946FFF7F2FC054638B131462046BE
:1059E000FFF7E1FE022384F89C32EAE7204600F04C
:1059F0007FFA032384F89C32E3E700F079FAE0E7CA
:105A0000CDB141688D4225D0C9B2FFF7E0FC134B00
:105A1000197861602046FFF7D1FC0546B0B13146E8
:105A20002046FFF7C0FE21792046FFF7D0FC022375
:105A300084F89C32C5E7022380F89C3245602946F1
:105A4000FFF7C5FC204600F053FABAE7204600F005
:105A50004FFAB6E700F04CFA0025B2E7080A00203A
:105A600008B5CB88012B0BD190F89C32DBB2022B0E
:105A700009D9032B11D10122011D00F00DFA01E01B
:105A8000FFF791FE08BD5BB23BB10146002341F830
:105A9000083F012200F000FAF4E7FFF784FEF1E787
:105AA00008B590F89C32013B022B12D8CB88022B10
:105AB0000CD10123C360D0F8A4320BB10323C3601F
:105AC000022200F10C0100F0E7F908BDFFF76BFEC0
:105AD000FBE7FFF768FEF8E708B54B88012B04D019
