:020000040800F2
:1000000000000320B14900083540000837400008CF
:10001000394000083B4000083D4000080000000057
:10002000000000000000000000000000A1A4000883
:100030003F4000080000000041A50008D59E0008D0
:10004000014A0008014A0008014A0008014A000864
:10005000014A0008014A0008014A0008014A000854
:10006000014A0008014A0008014A0008414000080E
:1000700051400008014A0008614000087140000832
:10008000014A000881400008014A00089140000828
:10009000A1400008014A0008014A0008014A00087E
:1000A000014A0008014A0008014A0008014A000804
:1000B000014A0008014A0008014A0008014A0008F4
:1000C000014A0008014A0008014A0008014A0008E4
:1000D000014A0008B1400008014A0008C140000878
:1000E000014A0008014A0008014A0008014A0008C4
:1000F000014A0008014A0008014A0008014A0008B4
:10010000014A0008014A0008014A0008014A0008A3
:10011000014A0008014A0008014A0008D1400008CD
:10012000014A0008E1400008F140000801410008D0
:1001300011410008014A0008014A00082141000855
:10014000014A000831410008014A00084141000805
:10015000014A000851410008014A000861410008B5
:10016000014A0008014A0008014A0008014A000843
:10017000014A0008014A0008014A00080000000086
:10018000014A0008014A0008714100088141000845
:10019000014A000891410008014A0008014A00088C
:0C01A0000000000000000000014A000800
:1001C00081F0004102E000BF83F0004330B54FEA08
:1001D00041044FEA430594EA050F08BF90EA020F75
:1001E0001FBF54EA000C55EA020C7FEA645C7FEA08
:1001F000655C00F0E2804FEA5454D4EB5555B8BF2B
:100200006D420CDD2C4480EA020281EA030382EA9B
:10021000000083EA010180EA020281EA0303362D2D
:1002200088BF30BD11F0004F4FEA01314FF4801C00
:100230004CEA113102D0404261EB410113F0004F12
:100240004FEA03334CEA133302D0524263EB4303C9
:1002500094EA050F00F0A780A4F10104D5F1200E67
:100260000DDB02FA0EFC22FA05F2801841F10001C2
:1002700003FA0EF2801843FA05F359410EE0A5F196
:1002800020050EF1200E012A03FA0EFC28BF4CF0C7
:10029000020C43FA05F3C01851EBE37101F000457D
:1002A00007D54FF0000EDCF1000C7EEB00006EEB8A
:1002B0000101B1F5801F1BD3B1F5001F0CD3490814
:1002C0005FEA30004FEA3C0C04F101044FEA44526B
:1002D00012F5800F80F09A80BCF1004F08BF5FEAF2
:1002E000500C50F1000041EB045141EA050130BDD2
:1002F0005FEA4C0C404141EB0101013C28BFB1F5E4
:10030000801FE9D291F0000F04BF01460020B1FA2E
:1003100081F308BF2033A3F10B03B3F120020CDA01
:100320000C3208DD02F1140CC2F10C0201FA0CF0DF
:1003300021FA02F10CE002F11402D8BFC2F1200C44
:1003400001FA02F120FA0CFCDCBF41EA0C019040FA
:10035000E41AA2BF01EB0451294330BD6FEA040443
:100360001F3C1CDA0C340EDC04F11404C4F120022E
:1003700020FA04F001FA02F340EA030021FA04F340
:1003800045EA030130BDC4F10C04C4F1200220FA97
:1003900002F001FA04F340EA0300294630BD21FAD5
:1003A00004F0294630BD94F0000F83F4801306BF9B
:1003B00081F480110134013D4EE77FEA645C18BF8F
:1003C0007FEA655C29D094EA050F08BF90EA020F26
:1003D00005D054EA000C04BF1946104630BD91EA1E
:1003E000030F1EBF0021002030BD5FEA545C05D121
:1003F0004000494128BF41F0004130BD14F5800460
:100400003CBF01F5801130BD01F0004545F0FE41D3
:1004100041F470014FF0000030BD7FEA645C1ABF08
:10042000194610467FEA655C1CBF0B46024650EA3F
:10043000013406BF52EA033591EA030F41F400216B
:1004400030BD00BF90F0000F04BF0021704730B5F1
:100450004FF4806404F132044FF000054FF00001C6
:1004600050E700BF90F0000F04BF0021704730B587
:100470004FF4806404F1320410F0004548BF40425C
:100480004FF000013EE700BF42004FEAE2014FEAB1
:1004900031014FEA02701FBF12F07F4393F07F4F8C
:1004A00081F06051704732F07F4208BF704793F08F
:1004B0007F4F04BF41F40021704730B54FF46074A2
:1004C00001F0004521F000411CE700BF50EA0102A5
:1004D00008BF704730B54FF000050AE050EA01024E
:1004E00008BF704730B511F0004502D5404261EBBE
:1004F00041014FF4806404F132045FEA915C3FF4FF
:10050000D8AE4FF003025FEADC0C18BF03325FEA9B
:10051000DC0C18BF033202EBDC02C2F1200300FA4C
:1005200003FC20FA02F001FA03FE40EA0E0021FA71
:1005300002F11444BDE600BF70B54FF0FF0C4CF45F
:10054000E06C1CEA11541DBF1CEA135594EA0C0F11
:1005500095EA0C0F00F0DEF82C4481EA030621EA4C
:100560004C5123EA4C5350EA013518BF52EA033587
:1005700041F4801143F4801338D0A0FB02CE4FF039
:100580000005E1FB02E506F00042E0FB03E54FF069
:100590000006E1FB03569CF0000F18BF4EF0010E61
:1005A000A4F1FF04B6F5007F64F5407404D25FEA5D
:1005B0004E0E6D4146EB060642EAC62141EA555110
:1005C0004FEAC52040EA5E504FEACE2EB4F1FD0C52
:1005D00088BFBCF5E06F1ED8BEF1004F08BF5FEAD0
:1005E000500E50F1000041EB045170BD06F0004682
:1005F00046EA010140EA020081EA0301B4EB5C042F
:10060000C2BFD4EB0C0541EA045170BD41F4801126
:100610004FF0000E013C00F3AB8014F1360FDEBF4B
:10062000002001F0004170BDC4F10004203C35DA27
:100630000C341BDC04F11404C4F1200500FA05F3AA
:1006400020FA04F001FA05F240EA020001F000424B
:1006500021F0004110EBD37021FA04F642EB0601C1
:100660005EEA430E08BF20EAD37070BDC4F10C04EB
:10067000C4F1200500FA04F320FA05F001FA04F2AF
:1006800040EA020001F0004110EBD37041F100019B
:100690005EEA430E08BF20EAD37070BDC4F12005A6
:1006A00000FA05F24EEA020E20FA04F301FA05F20E
:1006B00043EA020321FA04F001F0004121FA04F2B6
:1006C00020EA020000EBD3705EEA430E08BF20EA86
:1006D000D37070BD94F0000F0FD101F000464000C0
:1006E00041EB010111F4801F08BF013CF7D041EA42
:1006F000060195F0000F18BF704703F00046520046
:1007000043EB030313F4801F08BF013DF7D043EA16
:100710000603704794EA0C0F0CEA135518BF95EACC
:100720000C0F0CD050EA410618BF52EA4306D1D153
:1007300081EA030101F000414FF0000070BD50EA72
:10074000410606BF1046194652EA430619D094EAFC
:100750000C0F02D150EA013613D195EA0C0F05D1E6
:1007600052EA03361CBF104619460AD181EA03013A
:1007700001F0004141F0FE4141F470014FF00000F2
:1007800070BD41F0FE4141F4780170BD70B54FF08D
:10079000FF0C4CF4E06C1CEA11541DBF1CEA13550D
:1007A00094EA0C0F95EA0C0F00F0A7F8A4EB0504EF
:1007B00081EA030E52EA03354FEA013100F08880E6
:1007C0004FEA03334FF0805545EA131343EA1263AF
:1007D0004FEA022245EA111545EA10654FEA002664
:1007E0000EF000419D4208BF964244F1FD0404F51D
:1007F000407402D25B084FEA3202B61A65EB030579
:100800005B084FEA32024FF480104FF4002CB6EB35
:10081000020E75EB030E22BFB61A754640EA0C00B5
:100820005B084FEA3202B6EB020E75EB030E22BFF5
:10083000B61A754640EA5C005B084FEA3202B6EB36
:10084000020E75EB030E22BFB61A754640EA9C00F5
:100850005B084FEA3202B6EB020E75EB030E22BFC5
:10086000B61A754640EADC0055EA060E18D04FEA83
:10087000051545EA16754FEA06164FEAC30343EA23
:1008800052734FEAC2025FEA1C1CC0D111F4801FF0
:100890000BD141EA00014FF000004FF0004CB6E7E9
:1008A00011F4801F04BF01430020B4F1FD0C88BF88
:1008B000BCF5E06F3FF6AFAEB5EB030C04BFB6EB93
:1008C000020C5FEA500C50F1000041EB045170BD86
:1008D0000EF0004E4EEA113114EB5C04C2BFD4EBB3
:1008E0000C0541EA045170BD41F480114FF0000E37
:1008F000013C90E645EA060E8DE60CEA135594EAB3
:100900000C0F08BF95EA0C0F3FF43BAF94EA0C0FB5
:100910000AD150EA01347FF434AF95EA0C0F7FF42A
:1009200025AF104619462CE795EA0C0F06D152EA7E
:1009300003353FF4FDAE1046194622E750EA410662
:1009400018BF52EA43067FF4C5AE50EA41047FF473
:100950000DAF52EA43057FF4EBAE12E74FF0FF3CD8
:1009600006E000BF4FF0010C02E000BF4FF0010CA9
:100970004DF804CD4FEA410C7FEA6C5C4FEA430C22
:1009800018BF7FEA6C5C1BD001B050EA410C0CBF71
:1009900052EA430C91EA030F02BF90EA020F0020D3
:1009A000704710F1000F91EA030F58BF994208BF3A
:1009B00090422CBFD8176FEAE37040F001007047F7
:1009C0004FEA410C7FEA6C5C02D150EA013C07D14E
:1009D0004FEA430C7FEA6C5CD6D152EA033CD3D099
:1009E0005DF8040B704700BF8446104662468C4693
:1009F0001946634600E000BF01B5FFF7B7FF0028C6
:100A000048BF10F1000F01BD4DF808EDFFF7F4FFEE
:100A10000CBF012000205DF808FB00BF4DF808ED79
:100A2000FFF7EAFF34BF012000205DF808FB00BF9C
:100A30004DF808EDFFF7E0FF94BF012000205DF8BE
:100A400008FB00BF4DF808EDFFF7CEFF94BF012073
:100A500000205DF808FB00BF4DF808EDFFF7C4FF6C
:100A600034BF012000205DF808FB00BF53B94AB92C
:100A7000002908BF00281CBF4FF0FF314FF0FF30A6
:100A800000F0E2B8ADF1080C6DE904CE13F0C4FA41
:100A9000DDF804E0DDE9022304B0704700F1340121
:100AA00091E838009C46A6464CF8045D90E8FF0F9C
:100AB000E54600BD90EC210B704700BF80EC210B98
:100AC000704700BF90EC200B704700BF80EC200BFC
:100AD000704700BFD0EC200B704700BFC0EC200B6C
:100AE000704700BFF0EC0201F0EC0211F0EC0221C3
:100AF000F0EC0231F0EC0241F0EC0251F0EC02615A
:100B0000F0EC0271F0EC0281F0EC0291F0EC02A149
:100B1000F0EC02B1F0EC02C1F0EC02D1F0EC02E139
:100B2000F0EC02F1704700BFE0EC0201E0EC0211D2
:100B3000E0EC0221E0EC0231E0EC0241E0EC025199
:100B4000E0EC0261E0EC0271E0EC0281E0EC029189
:100B5000E0EC02A1E0EC02B1E0EC02C1E0EC02D179
:100B6000E0EC02E1E0EC02F1704700BFB0FC018173
:100B7000B0FC0191B0FC01A1B0FC01B1704700BF15
:100B8000A0FC0181A0FC0191A0FC01A1A0FC01B18D
:100B9000704700BFEC4600B52DE900502DE9FF1F5E
:100BA0004FF000032DE90C0001A913F0EFFCDDF874
:100BB00040E012B0704700BFEC4600B52DE9005090
:100BC0002DE9FF1F4FF000032DE90C0001A913F0E0
:100BD00019FDDDF840E012B0704700BFEC4600B5EB
:100BE0002DE900502DE9FF1F4FF000032DE90C0007
:100BF00001A913F029FDDDF840E012B0704700BFF5
:100C0000EC4600B52DE900502DE9FF1F4FF0000321
:100C10002DE90C0001AB13F0EDFCDDF840E012B063
:100C2000704700BFEC4600B52DE900502DE9FF1FCD
:100C30004FF000032DE90C0001AA13F065FDDDF86B
:100C400040E012B0704700BF704700BF00000000D6
:100C50000000000000000000000000000000000094
:100C600002780B78012A28BF9A4240F0D8806DE9BB
:100C7000044540EA0104CDE902676FF0000C4FEA39
:100C800044721AB380EA010414F0070F6BD100F02C
:100C9000070420F0070004F0030521F007014FEAE4
:100CA000C505F0E8042314F0040FF1E804670CFA1A
:100CB00005F462EA040266EA04060BD063EA040360
:100CC000624667EA0407664604E000BFF0E80423D2
:100CD000F1E8046782FA4CF582EA0604A4FA8CF47F
:100CE0006CBB83FA4CF583EA0705A5FA8CF595B938
:100CF00050E9022351E9026782FA4CF582EA0604C0
:100D0000A4FA8CF483FA4CF583EA0705A5FA8CF56E
:100D10002543DBD09CB92DBAB5FA85F424F007043D
:100D200027FA04F1DDE9026723FA04F303F0FF0078
:100D300001F0FF01FDE80445A0EB0100704724BA73
:100D4000B4FA84F424F0070426FA04F1DDE902671A
:100D500022FA04F202F0FF0001F0FF01FDE8044571
:100D6000A0EB0100704714F0030F3CD110F0030416
:100D700028D150F8082B51F8083B82FA4CF582EA4A
:100D80000305A5FA8CF55DB950F8042C51F8043C24
:100D900082FA4CF582EA0305A5FA8CF5002DE8D01D
:100DA0002DBAB5FA85F424F0070423FA04F122FAE7
:100DB00004F202F0FF0001F0FF01FDE80445A0EBA2
:100DC000010070474FEAC40420F0030050F8082BDC
:100DD00021F0030151F8083B0CFA04F462EA040222
:100DE00063EA0403C9E710F003041DD0A1EB04017A
:100DF00020F00300E40750F8042B06D012D28B78C1
:100E00005FFAA2F4E41A06D12BB1CB785FFAB2F400
:100E1000E41A00D133B920465DF8104B7047A2EBBD
:100E20000300704701F1040150F8042BCC0721F0B6
:100E3000030151F8043B48D824D222F07F4482FABF
:100E40004CF594EA1325A5FA8CF50AD165B951F849
:100E5000043B84EA0204B4EB036F0ED150F8042B78
:100E6000EBE74FEA132355E035F07F454DD1087885
:100E7000FDE80445C0F1000070474FEA126203F03C
:100E8000FF0347E002EA1C4482FA4CF594EA13455A
:100E9000A5FA8CF50AD165B951F8043B84EA02043D
:100EA000B4EB034F0CD150F8042BEBE74FEA13439C
:100EB00030E015EA1C4528D10B884FEA124229E0A0
:100EC0004FEA124203EA1C4324E002F0FF0482FAD4
:100ED0004CF594EA1365A5FA8CF50AD165B951F879
:100EE000043B84EA0204B4EB032F09D150F8042B2D
:100EF000EBE74FEA13630DE015F0FF0F05D10B6828
:100F00004FEA122223F07F4304E04FF00000FDE897
:100F10000445704712BA1BBA82FA4CF482EA030401
:100F2000A4FA8CF5B5FA85F402FA04F203FA04F394
:100F30004FEA1260FDE80445A0EB1360704700BF64
:100F400001F0FF01102A2BDB10F0070F08D010F87A
:100F5000013B013A8B422DD010F0070F42B3F6D17E
:100F6000F0B441EA012141EA014122F007047FF097
:100F700000070023F0E80256083C85EA010586EAEE
:100F8000010685FA47F5A3FA87F586FA47F6A5FA2A
:100F900087F68EB9EED1F0BC01F0FF0102F0070236
:100FA00032B110F8013B013A83EA010313B1F8D1E1
:100FB0000020704701387047002D06BF35460338C2
:100FC000073815F0010F07D1013015F4807F02BFFB
:100FD000013015F4C03F0130F0BC0138704700BF4C
:100FE000844641EA000313F003036DD1403A41D334
:100FF00051F8043B40F8043B51F8043B40F8043BF3
:1010000051F8043B40F8043B51F8043B40F8043BE2
:1010100051F8043B40F8043B51F8043B40F8043BD2
:1010200051F8043B40F8043B51F8043B40F8043BC2
:1010300051F8043B40F8043B51F8043B40F8043BB2
:1010400051F8043B40F8043B51F8043B40F8043BA2
:1010500051F8043B40F8043B51F8043B40F8043B92
:1010600051F8043B40F8043B51F8043B40F8043B82
:10107000403ABDD2303211D351F8043B40F8043B22
:1010800051F8043B40F8043B51F8043B40F8043B62
:1010900051F8043B40F8043B103AEDD20C3205D332
:1010A00051F8043B40F8043B043AF9D2043208D02A
:1010B000D2071CBF11F8013B00F8013B01D30B889C
:1010C00003806046704700BF082A13D38B078DD07A
:1010D00010F003038AD0C3F10403D21ADB071CBF4C
:1010E00011F8013B00F8013B80D331F8023B20F8B6
:1010F000023B7BE7043AD9D3013A11F8013B00F8EF
:10110000013BF9D20B7803704B7843708B78837076
:101110006046704700000000000000000000000072
:1011200000000000000000000000000000000000BF
:1011300000000000000000000000000000000000AF
:1011400030B490F800F020F007016FF0000C10F0C0
:10115000070491F820F040F048804FF000046FF051
:101160000700D1E9002391F840F000F1080082FA6D
:101170004CF2A4FA8CF283FA4CF3A2FA8CF34BBB38
:10118000D1E9022382FA4CF200F10800A4FA8CF2B1
:1011900083FA4CF3A2FA8CF3E3B9D1E9042382FA7F
:1011A0004CF200F10800A4FA8CF283FA4CF3A2FA94
:1011B0008CF37BB9D1E9062301F1200182FA4CF2CC
:1011C00000F10800A4FA8CF283FA4CF3A2FA8CF333
:1011D000002BC6D0002A04BF04301A4612BAB2FA55
:1011E00082F200EBD20030BC7047D1E9002304F05A
:1011F0000305C4F100004FEAC50514F0040F91F88F
:1012000040F00CFA05F562EA05021CBF63EA05032B
:1012100062464FF00004AAE74FEA410C7FEA6C5C9B
:1012200002D150EA013C0AD14FEA430C7FEA6C5CE0
:1012300002D152EA033C02D14FF0000070474FF058
:10124000010070474FEA410212F5001215D211D584
:101250006FF47873B3EB625212D94FEAC12343F0B3
:10126000004343EA505311F0004F23FA02F018BF35
:10127000404270474FF00000704750EA013005D1FE
:1012800011F0004008BF6FF0004070474FF00000C1
:10129000704700BF0348044B834202D0034B03B1A5
:1012A0001847704750090020500900200000000036
:1012B0000548064B1B1AD90F01EBA301491002D0B8
:1012C000034B03B118477047500900205009002014
:1012D0000000000010B5064C237843B9FFF7DAFF91
:1012E000044B13B10448AFF300800123237010BDF9
:1012F000500900200000000010B8010808B5054B97
:101300001BB105490548AFF30080BDE80840FFF771
:10131000CFBF00BF000000005409002010B8010832
:1013200008B502680A4B9A4208D000231A4600F119
:1013300008010848006808F07BFF08BD00231A4632
:1013400000F108010448006808F072FFF5E700BFEB
:1013500024170020881700208C17002008B5064BA2
:10136000834204D0054B186808F0E8FE08BD044B22
:10137000186808F0E3FEF9E7241700204C17002056
:101380005017002008B5FFF7E9FF08BD08B5FFF7C3
:10139000E5FF08BD08B5FFF7E1FF08BD2DE9F04105
:1013A00004460D4690461E46069F09F08BF82368BA
:1013B00013B16368002B4FD12560B8F1000F01D045
:1013C000C4F8048006B1666107B1A7612B4B9D424A
:1013D00045D001232A4A13611D462A4A52F8232088
:1013E000372A2AD8E261C3EBC30102EBC1012648C8
:1013F00040F82140E169C3EBC300400000EB9100DD
:101400001F4E706101F003016068204F01EB830102
:1014100047F8210001321B4941F823201A0107EB4C
:101420000313BA58520172605A685201F2609A6806
:1014300052013260DB685B01B3601149206803F040
:10144000C7FB104B53F8253003F00303032B0AD0DE
:1014500009F05AF8BDE8F08109F056F8FAE70023E0
:10146000074A1361B8E72901084A02EB0515002372
:1014700053506B60AB60EB60EAE700BF24170020BD
:10148000000000208C090020940900206C09002035
:1014900010B58AB001AB03AA002103F0D8FC099A69
:1014A000064B53F822403CB1A06928B108F046FE33
:1014B000636901A9204698470AB010BD940900202D
:1014C00010B58AB001AB03AA012103F0C0FC099B4F
:1014D0003833074A52F823403CB1A06928B108F0DC
:1014E0002DFE636901A9204698470AB010BD00BFD0
:1014F0009409002008B5062306F013FC012008F02B
:1015000082FD08BD08B506F073FC012008F07BFDE4
:1015100008BD10B5044606F0A3FEE36B1A68136815
:1015200023F00803136010BD10B5044608461146A9
:101530002388002210E073460CF1010CBCF1070F68
:1015400009D84FEA430E13F4004FF4D08EF48153C0
:1015500083F00103F0E701328A4206D210F802C09C
:1015600083EA0C234FF0000CE8E7238010BD30EE37
:10157000600A80ED070A90ED007A20EE077A80ED90
:101580000A7AD0ED0B6AD0ED017A60EE277A76EE1A
:10159000A76AC0ED0B6AD0ED027A90ED086A30EED2
:1015A000466A67EE867AC0ED0C7A90ED056AF4EE35
:1015B000C66AF1EE10FA1DD880ED0B6AD0ED0B6A09
:1015C00037EE267A77EE877AC0ED0D7A90ED037AC2
:1015D000F1EE476AF4EEE67AF1EE10FA14D8C0EDB7
:1015E0000D6A80ED080A037E0BB90023436390ED7A
:1015F0000D0A704790ED046AF4EEC66AF1EE10FA37
:10160000DCDB80ED0B6AD9E7F4EEC77AF1EE10FA75
:10161000E7DB80ED0D7AE4E7C0ED010A80ED021A08
:1016200080ED042A80ED000AC0ED031A7047000027
:1016300070B504460646032504E0304600F034FC4D
:10164000013DE436002DF8DA012384F890330022BE
:1016500084F8912384F8923384F8962384F89323B2
:1016600084F8943384F89533044BC4F8EC334FF08A
:101670007C53C4F8E833204670BD00BF3333733F5A
:1016800008B50248FFF7D4FF08BD00BF540B002087
:10169000F0B52DED048B83B004469FED718A714D3A
:1016A000714F3B68019300260096F0EE480AB0EEB9
:1016B000480A2B46012240F2012100F0F9FB6B4B56
:1016C0001B6801930096F0EE480AB0EE480A2B46DC
:1016D000012240F2022104F1E40000F0E9FB3B6842
:1016E00001930096F0EE480AB0EE480A2B4601221C
:1016F00040F2032104F5E47000F0DAFB3B6801934B
:101700000096F0EE480AB0EE480A2B4601224FF44C
:10171000017104F52B7000F0CBFBDFED558AB7EEBD
:10172000002AF0EE681AB0EE481AF0EE480AB0EE61
:10173000420A04F1AC001AF077F8B7EE002AF0EE96
:10174000681AB0EE481AF0EE480AB0EE420A04F504
:10175000C8701AF069F8B7EE002AF0EE681AB0EE19
:10176000481AF0EE480AB0EE420A04F51D701AF06D
:101770005BF8B7EE002AF0EE681AB0EE481AF0EE09
:10178000480AB0EE420A04F556701AF04DF8B7EE6A
:10179000002AF0EE681AB0EE481AF0EE480AB0EEF1
:1017A000420A04F174001AF03FF8B7EE002AF0EE96
:1017B000681AB0EE481AF0EE480AB0EE420A04F594
:1017C000AC701AF031F8B7EE002AF0EE681AB0EEFD
:1017D000481AF0EE480AB0EE420A04F50F701AF00B
:1017E00023F8B7EE002AF0EE681AB0EE481AF0EED1
:1017F000480AB0EE420A04F548701AF015F89FED59
:101800001D9AB0EE482AF6EE001AB0EE491AF0EE34
:10181000490AB0EE480A04F56670FFF7FDFEB0EE27
:10182000482AF6EE001AB0EE491AF0EE490AB0EE78
:10183000480A04F56D70FFF7EFFEB7EE002AF0EEF0
:10184000681AB0EE481AF0EE480AB0EE420A04F206
:101850009C4019F0E9FF03B0BDEC048BF0BD00BF64
:1018600000000000241700207C17002078170020BB
:101870000000C8420AD7A33B034600F564729342B6
:1018800004D093F8330010B1E433F8E70120704737
:10189000F8B50646044600F56477002508E02046C2
:1018A00000F050FD204600F0FDFC0544EDB2E434AC
:1018B000BC42F4D125B1012386F890332846F8BD07
:1018C000002386F89033F9E790F89103704790F879
:1018D0009203704738B5044600F5647503E020466E
:1018E00000F04AFDE434AC42F9D138BD90F89033B1
:1018F0001BB1002380F891337047012380F89133A6
:1019000070470246034600F5647C00E0E43363451B
:1019100008D092F890130029F8D192F89303002888
:10192000F4D100E001207047054B1B791BB1012366
:1019300080F892337047002380F89233704700BFDD
:101940003C12002010B504460F21064B186808F021
:10195000C1FB18B1012384F8943310BD002384F82F
:101960009433FAE76417002090F89403704708B5A1
:10197000FFF786FE08BD000010B5044600F094FA9B
:10198000002384F8E430012384F8E53084F8E6305D
:10199000034BC4F8E8300023C4F8EC30204610BDF7
:1019A000000082C308B50248FFF7E6FF08BD00BF8C
:1019B0002C10002010B504460F21064B186808F0C3
:1019C00089FB18B1012084F8300010BD84F8300084
:1019D000FBE700BF5C17002090F8E600704708B5F1
:1019E000FFF7E0FF08BD704738B5012001F0C2FAEB
:1019F000D0B1164B93F86C3023B1042001F0BAFA41
:101A0000D8B138BD114D124C95ED120A204600F0A8
:101A1000C7F995ED110A204600F0CCF995ED130AAF
:101A2000204600F0D1F9E8E7032001F0A3FA0028EE
:101A3000E3D1022001F09EFADFE7062001F09AFAD6
:101A40000028DED1052001F095FADAE73C120020EB
:101A50001C110020014B5B78012B70471C110020EA
:101A6000014B5B78012B70471C110020014B5B7808
:101A7000012B70471C110020014B5B78012B704734
:101A80001C110020014B5B78012B70471C110020BA
:101A9000014B5B78012B70471C110020014B5B78D8
:101AA000012B70471C110020014B5B78012B704704
:101AB0001C110020014B5B78012B70471C1100208A
:101AC000014B5B78012B70471C110020014B5B78A8
:101AD000012B70471C110020014B5B78012B7047D4
:101AE0001C110020014B5B78012B70471C1100205A
:101AF000014B5B78012B70471C110020014B5B7878
:101B0000012B70471C110020014B5B78012B7047A3
:101B10001C11002038B50546002407E004F110032D
:101B200055F82330002098470134E4B20F2C0BD82D
:101B3000204601F0B1F90028F0D004F1100355F867
:101B4000233001209847EFE738BD38B5054600241B
:101B500005E055F82430002098470134E4B20F2CFA
:101B600009D8204601F098F90028F2D055F8243021
:101B700001209847F1E738BD8167002380F8743071
:101B8000012280F8752080F87630D0ED167A90ED3D
:101B9000147AF4EEC77AF1EE10FA02D880ED167AD4
:101BA000704790ED157AF4EEC77AF1EE10FA01DB8A
:101BB00080ED167A7047000010B5044690ED170AC4
:101BC000806F00F005FCA06F00F051FBA06F00F0EB
:101BD00064FBA06F00F0CCFA0F4A13680133136066
:101BE000A06F90F8323003B910BD94ED180AD4ED0F
:101BF0001A7A30EE270A00F085FB9FED080AA06FE5
:101C000000F0E6FBA06F00F032FBA06F00F045FB98
:101C1000012384F87630E7E7C81F022000000000A7
:101C200010B5044690ED187A90ED166AD0ED147A4E
:101C300036EE676AD0ED156A76EEE76AC6EE267A6A
:101C4000D0ED196A36EEC76A67EE867A77EE277AA4
:101C5000C0ED1C7AB4EEE77AF1EE10FA0DDB80ED00
:101C60001C7A94ED1C0AA06F00F0CBFBA06F00F073
:101C7000FEFAA06F00F011FB10BDF4EEE76AF1EE82
:101C800010FAEED8C0ED1C6AEBE710B50446806F81
:101C900000F0EAFAD4ED1C7A30EE670A0AF080FE12
:101CA000D4ED1B7AF4EEC07AF1EE10FA01DC0020DC
:101CB00010BD0120FCE790F87530002B63D010B503
:101CC00088B0044690F87430032B1DD8DFE803F089
:101CD000021E2B360DF1080C8646BEE80F00ACE85C
:101CE0000F00DEF80030CCF8003004F1200393E858
:101CF00003008DE8030004F114030ECBA06F00F085
:101D0000DBFA012384F8743008B010BD90F8763007
:101D100033B1022380F87430002380F87630F3E783
:101D2000FFF74AFFF0E7FFF77BFF2046FFF7ADFF25
:101D30000028E9D0032384F87430E5E7FFF7A5FF16
:101D4000E8B1002384F8743084F875300DF1080C84
:101D500004F1280EBEE80F00ACE80F00DEF80030FA
:101D6000CCF8003004F1480393E803008DE8030049
:101D700004F13C030ECBA06F00F09EFAC4E72046AE
:101D8000FFF74EFFC0E770470122027042707047B4
:101D900008B50248FFF7F8FF08BD00BF1C1100207E
:101DA000034BD3EDFA7A67EE807AC3EDF47A70478D
:101DB000540B0020034BD3EDFA7A67EE807AC3ED23
:101DC000F47A7047540B0020034BD3EDFA7A67EE98
:101DD000807AC3EDF47A7047540B002008B5FFF702
:101DE000D7FF08BD70477047014B5B78012B7047E8
:101DF0001C110020014B5B78012B70471C11002047
:101E0000014B5B78012B70471C110020014B5B7864
:101E1000012B70471C110020014B5B78012B704790
:101E20001C110020014B5B78012B70471C11002016
:101E3000014B5B78012B70471C110020014B5B7834
:101E4000012B70471C110020014B5B78012B704760
:101E50001C110020014B5B78012B70471C110020E6
:101E6000014B5B78012B70471C110020014B5B7804
:101E7000012B70471C110020014B5B78012B704730
:101E80001C110020014B5B78012B70471C110020B6
:101E9000014B5B78012B70471C110020014B5B78D4
:101EA000012B70471C110020002280F8322070475F
:101EB00010B582B0044608464FF0010C84F830C0DB
:101EC0004FF0000C84F831C084F833C09DF810C086
:101ED00084F800C084ED0D0AC4ED0E0A01F1FF3C48
:101EE000BCF1070F37D81946606084F83C2002F136
:101EF000FF3C5FFA8CFCBCF1010F16D9032A28D1F4
:101F00002D4B994240D004284ED82C4BC4F81D309C
:101F100040F2FF13A361059B0093294B00F501726A
:101F200004F11000FFF73AFA13E0234B994214D062
:101F3000042822D8234BC4F81D304FF40073A3614A
:101F4000059B00931E4B00F5007204F11000FFF793
:101F500025FA0823237702B010BD042806D81A4BAF
:101F6000C4F81D304FF40073A361E9E7174BC4F8C0
:101F70001D3040F2FF13A361E2E7104BC4F81D309F
:101F800040F2FF13A361DBE7042806D80F4BC4F827
:101F90001D3040F2FF13A361BDE70D4BC4F81D30A7
:101FA00040F2FF23A361B6E70A4BC4F81D3040F2AC
:101FB000FF23A361AFE700BF2417002028110020F2
:101FC000DB210008301100204811002040110020C2
:101FD000381100202011002000B50A784B7843EA20
:101FE0000223C3878A7891F803C04CEA022C0FFAC7
:101FF0008CFCA0F840C091F804E04A7942EA0E2235
:1020000012B2A0F84220897980F8441090ED177A36
:1020100080ED187A416D816590F83C10022920D03E
:10202000032929D0012909D107EE90CAF8EEE77AF1
:102030009FED4B6AC7EE866AC0ED156AD0ED157A42
:10204000FFEE006AF4EEE67AF1EE10FA1FD9F7EE31
:10205000006AF4EEE67AF1EE10FA1ADBC0ED156ACA
:1020600017E007EE90CAF8EEE77A9FED3E6AC7EEFA
:10207000866AC0ED156AE1E707EE90CAF8EEE77AE6
:102080009FED396AC7EE866AC0ED156AD6E7C0EDE6
:10209000156A07EE903AF8EE677ADFED346A67EE7C
:1020A000A67AC0ED177AFFEE006AF4EEE67AF1EE5A
:1020B00010FA09D9F7EE006AF4EEE67AF1EE10FABA
:1020C00004DBC0ED176A01E0C0ED176AD0ED176AB6
:1020D00036EEC77AF6EE007AB4EEE77AF1EE10FA51
:1020E0002ADDB0F96830013BA0F86830B0F96830FB
:1020F00007EE903AF8EEE77A76EEA77A90ED197A45
:1021000077EEC77AC0ED1B7A90F830301BB1002310
:10211000836080F833308368312B02D890F8331015
:10212000B9B1012380F8333007EE902AF8EEE77A50
:10213000C0ED1C7A5DF804FBFEEE007AB4EEE77A9F
:10214000F1EE10FAD2D5B0F968300133A0F868305A
:10215000CCE7C0ED196A0022C26001338360E9E771
:10216000000016460010A4460000A04300000039FD
:1021700010B52DED028B044690ED0D0A0AF010FC0F
:10218000B0EE408A94ED1C0A0AF00AFCB4EEC08A54
:10219000F1EE10FA0AD40023E360E368142B18D997
:1021A000012384F83230BDEC028B10BD94ED0E0A91
:1021B0000AF0F6FBB0EE408A94ED150A0AF0F0FB47
:1021C000B4EEC08AF1EE10FAE5DDE3680133E360B6
:1021D000E3E7002384F83230E5E710B5A0F11004FE
:1021E0002046FFF7F9FE2046FFF7C2FF10BD0000B2
:1021F000FFEE007AB4EEE70AF1EE10FA09D9F7EE35
:10220000007AB4EEE70AF1EE10FA04DBB7EE000A4A
:1022100001E0BFEE000A90F83C30022B0AD0032BFD
:1022200013D0012B1BD1BEEEC90A10EE103AA0F854
:1022300050307047DFED0A7A20EE270ABDEEC00A63
:1022400010EE103AA0F850307047DFED067A20EE1D
:10225000270ABDEEC00A10EE103AA0F850307047C1
:1022600000401C460060EA4690ED1B0A7047426839
:10227000D3B2042A01D9043BDBB2013BDBB25B00E1
:10228000DBB290F95110D0F81D20D154B0F95010A4
:10229000D0F81D200133D154704708B51030FFF736
:1022A0003FF808BD90F83000704708B50022A0F84C
:1022B0005020FFF7DCFF08BD84B010B5044603A82A
:1022C00080E80E009DED082ADDED091A9DED0C1A3F
:1022D000DDED0B0A9DED0A0A04F1AC0019F0A4FA39
:1022E0009DED032ADDED041A9DED071ADDED060ACA
:1022F0009DED050A04F1740019F096FABDE810404E
:1023000004B07047FDEEC07AB8EEE77A30EE470AC7
:1023100090F8333053B117EE903AA0F86830D0ED12
:10232000177A77EEC07AC0ED197A704717EE903AB7
:102330005B42A0F86830D0ED177A77EE807AC0ED76
:10234000197A704710B504460F21806A07F0C2FE63
:1023500058B994F830305BB19FED060A2046FFF77C
:10236000D1FF002384F8303002E0012384F83030BC
:1023700010BD00BF0000000008B50022826080F898
:102380003320A0F85020FFF772FF08BD10B50446B7
:10239000D0ED150A90ED130A7430FFF7E8F82046E7
:1023A000FFF726FF10BD10B52DED028B044690ED12
:1023B000128AFFF759FFF0EE400AB0EE480A04F126
:1023C000AC00FFF7D4F884ED130ABDEC028B10BD0E
:1023D00008B580ED130AFFEE007AB4EEE70AF1EEDD
:1023E00010FA09D9F7EE007AB4EEE70AF1EE10FA26
:1023F00004DBC0ED137A01E0C0ED137AFFF7C6FFEE
:1024000008BD10B5044680ED120AFFF7CCFF204648
:10241000FFF7BCFF10BD00887047000010B5084CE6
:1024200020601C220749FFF765F8012384F8EB3090
:1024300084F8E830002384F8EA3084F8E93010BDED
:102440005011002030B80108634B93ED276A83EDEB
:10245000286A93ED215A83ED225AD3ED1B5AC3ED1E
:102460001C5AB3F9262007EE902AF8EEE77AB2EE6E
:10247000047AC7EE876AC3ED276AB3F9222007EE14
:10248000102AB8EEC77A9FED554AC7EE047AC3ED1D
:102490001B7AB3F9242004EE902AF8EEE44A84EE85
:1024A000847A83ED217A36EEC66ADFED4D4AB4EECA
:1024B000E46AF1EE10FA67D51A46D3F8A830013372
:1024C000C2F8A830444B93ED2A6AB8EEC66ADFED35
:1024D000454A26EE246A36EE066A76EE866A93ED63
:1024E0002C6A76EEC66A9FED406A66EE866AC3ED98
:1024F0002B6A37EE455ADFED3A6AB4EEE65AF1EE52
:1025000010FA4FD51A46D3F890300133C2F8903004
:10251000314BD3ED246AF8EEE66A9FED326A66EE3F
:10252000866A76EEA66A37EE267AD3ED266A37EE0D
:10253000667ADFED2D6A27EE267A83ED257A77EE2F
:10254000E55A9FED2A7AF4EEC75AF1EE10FA37D524
:102550001A469B6F013393671F4B93ED1E7AB8EEBB
:10256000C77ADFED236A27EE267A37EE077A77EE11
:10257000877A93ED207A77EEC77A9FED1B7A67EE24
:10258000877AC3ED1F7A7047DFED164AB4EEE46A2E
:10259000F1EE10FA96DD104AD2F8A830013BC2F8ED
:1025A000A8308FE7DFED0F6AB4EEE65AF1EE10FACD
:1025B000AEDD094AD2F89030013BC2F89030A7E76F
:1025C0009FED0B7AF4EEC75AF1EE10FAC4DD024A21
:1025D000936F013B9367BFE7501100200000C84292
:1025E000000034C300003443610B363B0000B4C22A
:1025F0000000B44210B5784CD4F8DC30C4F8E030B8
:102600000AF0B4F984ED370AD4ED387A30EE670A6F
:10261000DFED727A20EE270A84ED390A07F052FFC7
:1026200094F8E93033B9D4F8D830322B02D90022EB
:10263000C4F8D820684AD2F8D8300133C2F8D8306C
:10264000322B40F2C4801346012283F8E92007F0C0
:102650005BFF614B93F8E930DBBB5F4B0022C3F8B3
:10266000E420DA6E1A67B3F9222007EE902AF8EE1A
:10267000E77A9FED5B7A67EE877AC3ED1B7AC3ED4D
:10268000207A00229A67D3F88410C3F88810B3F92F
:10269000241007EE901AF8EEE77A67EE877AC3ED1A
:1026A000217AC3ED267AC3F89020D3F89C10C3F8A2
:1026B000A010B3F9261007EE901AF8EEE77A9FED16
:1026C000497A67EE877AC3ED277AC3ED2C7AC3F88F
:1026D000A820FFF7B9FE404BB3F9142007EE902A6B
:1026E000F8EEE77A9FED3F7A67EE877AC3ED187AC6
:1026F000B3F9162007EE902AF8EEE77A67EE877AAC
:10270000C3ED197AB3F9182007EE902AF8EEE77AAC
:1027100067EE877AC3ED1A7AB3F90D2006EE902A98
:10272000F8EEE66ADFED2D5A66EEA56A9FED2E6A99
:1027300066EE866AC3ED2D6AB3F90F2007EE102A04
:10274000B8EEC77A27EE257A27EE067A83ED2E7A41
:10275000B3F9112007EE902AF8EEE77A67EEA57A32
:1027600067EE867AC3ED2F7AD3ED305A93ED396A4E
:1027700066EE866A75EEA65AC3ED305AD3ED316A1D
:1027800027EE067A36EE877A83ED317AD3ED326A18
:1027900067EE867A76EEA77AC3ED327AD3ED336AA6
:1027A00066EE255A76EEA56AC3ED336AD3ED346A38
:1027B00026EE077A36EE877A83ED347A93ED357A12
:1027C00026EE276A77EE067AC3ED357A10BD024B06
:1027D000002283F8E9203AE7501100206F12833A73
:1027E0000AD7233CCDCCCC3D0AE81C41084B93F8DA
:1027F000E83043B9064B93F8E93023B1044B01228A
:1028000083F8EA207047024B002283F8EA207047E1
:102810005011002008B503495A2251F8040CFEF764
:1028200078FE08BD5411002010B582B00446002384
:10283000ADF80630042201460DF10600FEF774FEE5
:102840006288A11D0DF10600FEF76EFE201DFFF748
:10285000E2FDBDF80630984202D1012002B010BD61
:102860000020FBE708B5064B9A884AF25A539A4271
:1028700001D0002008BD0348FFF7D6FFFAE700BFEC
:102880005011002054110020044B0022C3F8D8201E
:1028900083F8E920012283F8E820704750110020D6
:1028A000024B002283F8E820704700BF501100203F
:1028B00010B5002409E00C220549064B1868FEF704
:1028C00021FE052007F09FFB0134042CF3DD10BD31
:1028D00050B8010850110020014B00225A71704776
:1028E0003C120020034B5B79C72B02D80133014A0D
:1028F000537170473C120020054B5B790A2B03D9BA
:10290000034B00221A717047014B01221A71704764
:102910003C1200200346002848D001784278120279
:1029200002F4E0621143224A5185407899784901C6
:1029300041EAD001C1F30A019185987893F803C068
:102940001979890241EA8C0109B241EA9011C1F377
:102950000A01D18518795979C90141EA5001C1F3B9
:102960000A0111865979890951865979C1F30111F2
:1029700091869979D87941EA0021D186197A587AD5
:1029800041EA00211187997AD87A41EA00215187DA
:10299000197B82F83C10597B82F83D10997BD187D6
:1029A000197C5B7C41EA0323A2F84030704700BFEA
:1029B0003C12002010B507F085FDB84C04F1700CF6
:1029C00004F1440EBEE80F00ACE80F00BEE80F00B3
:1029D000ACE80F009EE807008CE80700638DA3F5C4
:1029E0007B7292B2282A45D84FF480626285AB4B45
:1029F0009B8DA3F57B7292B2282A44D8A74B4FF443
:102A000080629A85A54BDB8DA3F57B7292B2282A52
:102A100042D8A24B4FF48062DA85A04B1B8EA3F5FF
:102A20007B7292B2282A40D89C4B4FF480621A865F
:102A30009A4B5A8D07EE902AF8EE677A9FED987AB6
:102A400077EEC77ADFED976A87EEA67A83ED137A81
:102A5000FFEE007AB4EEE77AF1EE10FA2ED9F7EE37
:102A6000007AB4EEE77AF1EE10FA29DB8B4BC3ED76
:102A7000137A25E0A3F5B6739BB2B3F5A56FB6D96B
:102A800007F042FD08E1A3F5B6739BB2B3F5A56F5D
:102A9000B8D907F039FDFFE0A3F5B6739BB2B3F5E3
:102AA000A56FBAD907F030FDF6E0A3F5B6739BB277
:102AB000B3F5A56FBCD907F027FDEDE0C3ED137AA0
:102AC000764B9A8D07EE902AF8EE677A9FED747A2E
:102AD00077EEC77ADFED736A87EEA67A83ED147A14
:102AE000FFEE007AB4EEE77AF1EE10FA0AD9F7EECB
:102AF000007AB4EEE77AF1EE10FA05DB674BC3ED2E
:102B0000147A01E0C3ED147A644BDA8D07EE902A53
:102B1000F8EE677A9FED627A77EEC77ADFED616A49
:102B200087EEA67A83ED117AFFEE007AB4EEE77AAB
:102B3000F1EE10FA0AD9F7EE007AB4EEE77AF1EE88
:102B400010FA05DB554BC3ED117A01E0C3ED117AA4
:102B5000524B1A8E07EE902AF8EE677A9FED507A64
:102B600077EEC77ADFED4F6A87EEA67A83ED127AA9
:102B7000FFEE007AB4EEE77AF1EE10FA0AD9F7EE3A
:102B8000007AB4EEE77AF1EE10FA05DB434BC3EDC1
:102B9000127A01E0C3ED127A404B93F8322083F8A9
:102BA000542093F8342083F85520B3F9362007EEEB
:102BB000902AF8EEE77A9FED3C7AC7EE876A16EE28
:102BC000902AC3F85620B3F9382007EE902AF8EE81
:102BD000E77A87EE876A16EE102AC3F85A20B3F90F
:102BE0003A2007EE902AF8EEE77AF3EE045A87EEE1
:102BF000A57A17EE102AC3F85E2093F83D2083F8DB
:102C0000632093F83C2083F86220DA8FA3F86420D5
:102C1000AAB9B3F8623093B9F5EE406AF1EE10FA52
:102C20000DD1B5EE406AF1EE10FA08D1B5EE407A5A
:102C3000F1EE10FA03D1194B83F86C2003E0174B27
:102C4000012283F86C20154BB3F8402007EE902A40
:102C5000F8EE677AF1EE677A9FED117A77EEC77A30
:102C6000DFED106A87EEA67A83ED1A7AFFEE007A1E
:102C7000B4EEE77AF1EE10FA0AD9F7EE007AB4EE84
:102C8000E77AF1EE10FA05DB044BC3ED1A7A01E0A6
:102C9000C3ED1A7A07F038FC10BD00BF3C120020CB
:102CA00000008044000025440000FA4308B507F006
:102CB00009FC784BB3F89020D04300B2B3F864100D
:102CC000B3F964C00140A3F8A01022EA0C02A3F8F3
:102CD0009E2093F88E302BB96E4A92F862205AB932
:102CE000002100E000216B4A82F8A51033B192F870
:102CF000623083B1002202E00121F4E70022654B3B
:102D000083F8A42093F88F303BB9624A92F863208D
:102D10006AB9002102E00122F1E700215D4A82F850
:102D2000A31033B192F8633003BB002202E001210B
:102D3000F4E70022574B83F8A22093F85530012B7B
:102D400016D0032B26D0032B36D0022B46D0514B66
:102D500093F85430012B53D0032B63D0032B73D043
:102D6000022B00F0838007F0CFFB08BD0122E1E7D2
:102D7000484A92F88120032AE3D1464AB2F89C30AF
:102D800023F0F0039BB2A2F89C3043F02003A2F89A
:102D90009C30DCE73F4A92F88120012AD3D13D4A9A
:102DA000B2F89C3023F0F0039BB2A2F89C3043F0C1
:102DB0001003A2F89C30CAE7364A92F88120022A12
:102DC000C3D1344AB2F89C3023F0F0039BB2A2F88E
:102DD0009C3043F08003A2F89C30B8E72D4B93F869
:102DE0008130032BB3D12B4AB2F89C3023F0F0038F
:102DF0009BB2A2F89C3043F04003A2F89C30A6E7B7
:102E0000244A92F88020032AA6D1224AB2F89C30A4
:102E100023F00F039BB2A2F89C3043F00203A2F808
:102E20009C30A0E71B4A92F88020012A96D1194ACB
:102E3000B2F89C3023F00F039BB2A2F89C3043F011
:102E40000103A2F89C308EE7124A92F88020022AF1
:102E500086D1104AB2F89C3023F00F039BB2A2F83F
:102E60009C3043F00803A2F89C307CE7094B93F8B0
:102E70008030032B7FF477AF064AB2F89C3023F002
:102E80000F039BB2A2F89C3043F00403A2F89C30DD
:102E900069E700BF3C1200200F2867D8DFE800F088
:102EA000543C08195A60301F36242A4248134E0EEB
:102EB0002F4B93F86400C0F3800070472C4B93F8BD
:102EC0006500C00970472A4B93F86500C0F34010B5
:102ED0007047274B93F86400C0F3C0007047244B41
:102EE00093F86400C0097047214B93F86500C0F364
:102EF000400070471E4B93F86500C0F38000704798
:102F00001B4B93F86400C0F380107047184B93F884
:102F1000650000F001007047154B93F86400C0F3A2
:102F200040007047124B93F86500C0F3C000704733
:102F30000F4B93F86500C0F3001070470C4B93F8EB
:102F40006500C0F380107047094B93F8640000F0EF
:102F500001007047064B93F86400C0F300107047FF
:102F6000034B93F86400C0F3401070470020704793
:102F70003C120020032806D8094B93F854308342B2
:102F800009D0002070470338054B93F8553098421C
:102F900003D000207047012070470120704700BF18
:102FA0003C1200200022022304E0C15C0A4492B2D9
:102FB0000133DBB2C17801319942F6DAD043C0B2B5
:102FC0007047000070B584B0054600EB810046688C
:102FD000141E05DBB4F57A7F03DD4FF47A7400E04C
:102FE000002447F23052934228BF134655228DF8F1
:102FF00005208DF804208DF8061007228DF8072093
:1030000001228DF808208DF80940C4F307228DF8BD
:103010000A208DF80B301B0A8DF80C3001A8FFF741
:10302000C1FF8DF80D000A2201A9D5F8FC03FEF7B7
:1030300069FAF48107EE904AF8EEE77A9FED037A99
:1030400067EE877AC6ED087A04B070BD8FC2753E10
:1030500010B51548FEF71CFB02E0012006F0D3FF77
:103060001148FEF709FC0028F7D005E00E48FEF7EE
:1030700031FC012006F0C7FF0B4C2046FEF754FC44
:103080002046FEF733FC2046FEF71EFC0028EDD05C
:103090002046FEF71CFC0028E8D02046FEF731FC55
:1030A0000028E6D1E8E700BF540B002070B52DEDF5
:1030B000028B82B0344C354B1B6801930025009580
:1030C000DFED330A9FED330A334B02220521204600
:1030D000FEF7EEFE9FED318AB7EE002AF0EE481AB9
:1030E000B0EE421AF0EE480AB1EE000A04F17400A4
:1030F00018F09AFBB7EE002AF0EE481A9FED281A56
:10310000F0EE480A9FED270A04F1AC0018F08CFBA2
:10311000254E21463046FEF72FFD86F8755084F87F
:10312000E6501AE0184C2046FFF73DF92046FFF71D
:103130002DF92046FFF79BF82046FFF7AEF809E08F
:10314000114C2046FFF7B1F82046FFF790F82046D3
:10315000FFF7A3F8012006F056FF144B1B79002B54
:10316000EED00948FEF738FC0028DBD00E4C204694
:10317000FEF7A1FD94F87530002BEBD1024B002235
:1031800083F8E620E6E700BF2C1000205C17002043
:10319000295C8F3D0080A24424170020000000001D
:1031A00066662640AE47E13DA80000203C120020A4
:1031B00010B54FF4FA6006F026FF0CE0084C2046EC
:1031C000FEF711FC2046FEF70FFC2046FEF7A2FC9E
:1031D000022006F018FF034B1B78002BEED1FAE714
:1031E000280000201C1100200B4B1B78002BFBD06B
:1031F00010B50A4C2046FEF7F5FD2046FEF7F3FD1C
:103200002046FEF7A2FC012006F0FDFE024B1B78D3
:10321000002BEED1FAE700BF1C110020280000208F
:1032200000B58BB00023039302934FF0FF310C4B9A
:10323000186806F04FFF4FF0FF33002206A9094837
:10324000006807F037F8069B00939DF81C30049344
:1032500009ABDDF81D206946034801F083FDE4E772
:10326000501700208C1700202417002000B58BB0C9
:103270000023039302934FF0FF310E4B186806F0C2
:1032800029FF4FF0FF33002207A90B48006807F021
:1032900011F8079B00939DF82030049306ABDDF8EE
:1032A00021206946054801F05DFD012006F0ABFED6
:1032B000E1E700BF4C17002088170020FC16002013
:1032C00008B5024B186806F039FF08BD6C170020DE
:1032D00010B5084C2046FFF7A1F80021064B1868EE
:1032E00006F0F8FE0549204604F0F9FCFFF7E0FA85
:1032F00010BD00BFCC1E00206C170020C13200089A
:1033000008B5FFF7E5FF06E0FFF7BEFAFFF76EFA34
:10331000012006F078FEFFF77DFA1421084B1868AB
:1033200006F0D8FE074B18600028EDD1FFF7B8FA79
:10333000FFF798FA0028E9D0FFF75CF9E6E700BF4D
:103340006C170020E416002010B54FF4FA6006F068
:103350005AFE0A21204B186806F0BCFE0A211F4BBA
:10336000186806F0B7FE0A211D4B186806F0B2FE79
:103370000A211C4B186806F0ADFE0A211A4B18688A
:1033800006F0A8FE0A21194B186806F0A3FE0A21D0
:10339000174B186806F09EFE03E0164A13680133C7
:1033A0001360062006F02FFE1348FEF771FA04465C
:1033B0001248FEF7FFFA2044C0B20428EDD830B915
:1033C0000F4B01221A700B4B00221A60E9E7094BE0
:1033D00000221A60E5E700BF7C1700207817002064
:1033E0007017002074170020601700205C17002061
:1033F00058170020E8160020540B00202C10002045
:103400001C11002008B5044B186806F097FE03480D
:10341000FFF780FA08BD00BF80170020421200208D
:1034200010B5094C09482060094904F058FC2146B0
:1034300051F8060B1222FEF76CF800212171054BA2
:10344000186806F047FE10BD3C120020DC1D00206D
:10345000053400088017002008B5FFF7E1FF0AE0F7
:10346000FFF73AFAFFF7A6FAFFF720FCFFF744FA56
:10347000012006F0C8FD0949122251F8060CFEF79A
:1034800048F81421064B186806F024FE054B186016
:103490000028E5D0FFF726FAE8E700BF4212002037
:1034A00080170020EC16002008B5024B186806F0C3
:1034B00045FE08BD5417002000B583B00F4A012116
:1034C0000F4804F0B2FB0F4B186806F037FE4FF0C0
:1034D000FF310C4B186806F0FDFD4FF0FF33002262
:1034E00001A90948006806F0E5FE0023BDF90420A3
:1034F0009DF806100548FFF765FDE8E7A9340008C8
:10350000EC1C00205417002084170020E412002037
:1035100010B50A210F4B186806F0DCFD09E00E4AD1
:103520001368013313600D4B00221A60062006F069
:103530006AFD0B4C2046FEF705FA2046FEF714FA0A
:103540000028ECD1054A136801331360024B0022B6
:103550001A60EBE764170020F4160020F016002034
:10356000540B002008B50E480E4B03600323436044
:1035700000228260C2604FF4C02303614FF4A003B5
:1035800043610276012343768376C37602774377DD
:1035900001F078FA00B908BD00F0B2FBFBE700BF0C
:1035A000241700200064004008B50E480E4B03604D
:1035B0000323436000228260C2604FF4C023036192
:1035C0004FF4A00343610276012343768376C376EA
:1035D0000277437701F056FA00B908BD00F090FB7E
:1035E000FBE700BFFC1600200068004010B58AB061
:1035F0000023059306930793089309930368464AAB
:10360000934204D0454A93423CD00AB010BD444A8C
:10361000136801331360012B27D000240194414B20
:103620001A6B42F008021A631B6B03F00803019344
:10363000019B032305930222069208930923099311
:1036400005A9394802F0C4F822460521132001F0EB
:1036500049FE132001F056FE22460521142001F0F8
:1036600041FE142001F04EFECFE7002300932D4BC6
:103670001A6C42F000721A641B6C03F00073009322
:10368000009BCAE700230293264B1A6C42F080622B
:103690001A641B6C03F080630293029B204A136838
:1036A00001331360012B29D0002404941D4B1A6BA5
:1036B00042F002021A631B6B03F002030493049BA3
:1036C0004FF44053059302230693032308930923E1
:1036D000099305A9154802F07BF8224605213F20F1
:1036E00001F000FE3F2001F00DFE224605214120A1
:1036F00001F0F8FD412001F005FE86E70023039369
:10370000084B1A6C42F000721A641B6C03F00073D1
:103710000393039BC8E700BF0064004000680040BB
:10372000F816002000380240000C0240000402405D
:1037300010B582B000240094324B1A6B42F4800220
:103740001A631A6B02F480020092009A01941A6BB9
:1037500042F400121A631B6B03F400130193019BE4
:10376000224605210B2001F0BDFD0B2001F0CAFD12
:10377000224605210C2001F0B5FD0C2001F0C2FD10
:10378000224605210E2001F0ADFD0E2001F0BAFD0C
:10379000224605210F2001F0A5FD0F2001F0B2FD0A
:1037A00022460521112001F09DFD112001F0AAFD06
:1037B00022460521392001F095FD392001F0A2FDB6
:1037C000224605213A2001F08DFD3A2001F09AFDB4
:1037D000224605213B2001F085FD3B2001F092FDB2
:1037E000224605213C2001F07DFD3C2001F08AFDB0
:1037F00022460521452001F075FD452001F082FD9E
:1038000002B010BD0038024008B508F04FFE01209C
:1038100006F0F9FBFBE708B5012006F0F4FBFBE737
:1038200008B5012006F0EFFBFBE708B5012006F024
:10383000EAFBFBE708B5704A0021012006F0F1FB26
:103840006E4B18606E4A0021012006F0EAFB6D4BBA
:1038500018606D4A0021012006F0E3FB6B4B1860F5
:103860006B4A0021012006F0DCFB6A4B18606A4AB3
:103870000021012006F0D5FB684B1860684A002142
:10388000012006F0CEFB674B1860674A002101203B
:1038900006F0C7FB654B1860654A0021012006F061
:1038A000C0FB644B1860644A0021012006F0B9FB9C
:1038B000624B1860624A0021012006F0B2FB614BA6
:1038C0001860614A0021012006F0ABFB5F4B1860D5
:1038D0005F4A0021012006F0A4FB5E4B18605E4A9F
:1038E0000321084606F09DFB5C4B18605C4A0321EF
:1038F000084606F096FB5B4B18605B4A09214020A6
:1039000006F04BFC594B1860594A0921402006F03B
:1039100044FC584B1860584A0421102006F03DFC26
:10392000564B1860564A0021564806F00DFB564B80
:103930001860564A0021564806F006FB554B1860A1
:10394000554A0021554806F0FFFA554B1860554A74
:103950000021554806F0F8FA544B1860544A0021EB
:10396000544806F0F1FA544B1860544A0021544868
:1039700006F0EAFA534B1860534A0021534806F008
:10398000E3FA534B1860534A0021534806F0DCFA1F
:10399000524B1860524A0021524806F0D5FA524B59
:1039A0001860524A0021524806F0CEFA514B186076
:1039B000514A0021514806F0C7FA514B1860514A4C
:1039C0000021514806F0C0FA504B1860504A0021BF
:1039D000504806F0B9FA504B1860504A0021504840
:1039E00006F0B2FA4F4B18604F4A00214F4806F0DC
:1039F000ABFA4F4B186008BD4CC701088017002078
:103A00003CC701087C1700202CC70108781700204C
:103A10001CC70108741700200CC70108701700208C
:103A2000FCC601086C170020ECC6010868170020CE
:103A3000DCC6010864170020CCC60108601700200E
:103A4000BCC601085C170020ACC60108581700204E
:103A50009CC60108541700208CC60108501700208E
:103A60007CC601084C1700208CC701088C17002069
:103A700074C70108881700205CC70108841700205C
:103A80009CC9010809380008C817002078C9010836
:103A900059340008C417002054C901082132000815
:103AA000C017002030C901086D320008BC17002083
:103AB0000CC9010851300008B8170020E8C80108F7
:103AC00001330008B4170020C4C8010817380008E3
:103AD000B0170020A0C8010811350008AC1700205D
:103AE0007CC8010849330008A817002058C80108FD
:103AF000B9340008A417002034C80108AD3000080C
:103B0000A017002010C80108213800089C170020C9
:103B1000ECC701082B38000898170020C8C7010817
:103B2000B131000894170020A4C70108E93100084A
:103B3000901700202DE9F04F8FB0002409940A94CB
:103B40000B940C940D940094614B1A6B42F010028C
:103B50001A631A6B02F010020092009A01941A6B19
:103B600042F002021A631A6B02F002020192019AF9
:103B700002941A6B42F040021A631A6B02F0400280
:103B80000292029A03941A6B42F001021A631A6BB2
:103B900002F001020392039A04941A6B42F00802A5
:103BA0001A631A6B02F008020492049A05941A6BC5
:103BB00042F480721A631A6B02F480720592059ABD
:103BC00006941A6B42F080021A631A6B02F08002AC
:103BD0000692069A07941A6B42F020021A631A6B37
:103BE00002F020020792079A08941A6B42F004022E
:103BF0001A631B6B03F004030893089B354E22469F
:103C000041F27001304601F0E7FEDFF8CCB0224609
:103C10000521584601F0E0FEDFF8C0A0224644F23C
:103C20004001504601F0D8FEDFF8B49022464FF430
:103C3000C051484601F0D0FEDFF8A880224611218D
:103C4000404601F0C9FE01224FF40061304601F008
:103C5000C3FE41F27003099301250A950B950227D3
:103C60000C9709A9304601F0B3FD052309930A9585
:103C70000B940C9409A9584601F0AAFD44F24003A4
:103C800009930A950B940C9409A9504601F0A0FDE4
:103C90004FF4C05309930A950B940C9709A9484611
:103CA00001F096FD112309930A950B950C9709A92C
:103CB000404601F08DFD4FF4006309930A950B9483
:103CC0000C9409A9304601F083FD0FB0BDE8F08FD8
:103CD0000038024000100240002002400014024060
:103CE000001C02400008024008B50268034B9A42DB
:103CF00000D008BD00F0A0FEFBE700BF00140040AC
:103D000072B6FEE700B595B03022002108A813F086
:103D10004BFD0023039304930593069307930193AC
:103D2000204A116C41F080511164126C02F08052F3
:103D30000192019A02931C4B1A6842F440421A60A5
:103D40001B6803F440430293029B012308934FF442
:103D50008033099302230E934FF480020F920622C0
:103D60001092A822119212930723139308A802F02D
:103D700075FC98B90F230393022304930023059342
:103D80004FF4A05306934FF480530793052103A8E3
:103D900002F0B4FE20B915B05DF804FBFFF7B0FFE8
:103DA000FFF7AEFF003802400070004008B5154A2A
:103DB000936823F00303936000F024FEFFF7A2FF53
:103DC000FFF7B8FEFFF7B4FC00F08EFB00F00EFB2F
:103DD000FFF7C8FBFFF7E8FB00F016F800F0C4FAA5
:103DE00000F04EFB00F066FB00F09EFB00F0B6FB1F
:103DF00008F09CFD06F07AF8FFF71CFD06F088F845
:103E0000FEE700BF0038024008B50E480E4B0360C5
:103E10004FF48273436000238360C3600361436196
:103E20004FF4007282613022C26103624362836296
:103E30000A23C36202F066FF00B908BDFFF760FF06
:103E4000FBE700BF8C1800200050014030B589B05E
:103E50000023039304930593069307930268354B5D
:103E60009A4201D009B030BD04460025019503F502
:103E700068435A6C42F480125A645A6C02F48012FD
:103E80000192019A02951A6B42F020021A631B6B91
:103E900003F020030293029B4FF460730393022309
:103EA0000493032306930523079303A9224801F0F3
:103EB0008FFC2248224B03604FF080634360856093
:103EC000C5604FF48063036145618561C5614FF44E
:103ED00000330362456201F095FA28BB174BE36497
:103EE0009C631848184B03604FF080634360402385
:103EF00083600023C3604FF4806202614361836189
:103F0000C3614FF400320262436201F07BFA70B980
:103F10000C4BA3649C6300220521552001F0E2F9BB
:103F2000552001F0EFF99DE7FFF7EAFED6E7FFF72E
:103F3000E7FEEDE700500140001402402C1800207D
:103F400058640240CC1700207064024000B583B072
:103F5000002200920D4B596C41F480415964596C18
:103F600001F48041009100990192196C41F0805157
:103F700019641B6C03F080530193019B0F216FF0B8
:103F8000010001F0AFF903B05DF804FB0038024016
:103F900030B589B0044600230193214B1A6C42F0DE
:103FA00020021A641B6C03F020030193019B02A9F9
:103FB00003A802F079FE069BCBB902F055FE03463A
:103FC000184AA2FB03239B0C013B1748174A0260C7
:103FD00040F2E732C2604360002303618360836183
:103FE00003F0D4F9054630B1284609B030BD02F0DF
:103FF0003BFE4300E4E70C4803F064F80546002864
:10400000F2D1372001F07EF90F2C01D90125EBE721
:1040100000222146372001F065F9054B1C60E3E7DB
:104020000038024083DE1B430C19002000140040BE
:1040300030010020FEE7FEE7FEE7FEE7FEE77047FF
:1040400008B5024801F0D6FA08BD00BFCC1B00201D
:1040500008B5024801F0CEFA08BD00BF0C1B0020D5
:1040600008B5024801F0C6FA08BD00BF8C1C00204C
:1040700008B5024801F0BEFA08BD00BFAC1A002026
:1040800008B5024801F0B6FA08BD00BF2C1C00209C
:1040900008B5024800F0AAFF08BD00BF24170020A1
:1040A00008B5024800F0A2FF08BD00BF2417002099
:1040B00008B5024803F0DEFE08BD00BFDC1D00208D
:1040C00008B5024803F0D6FE08BD00BF641D0020FD
:1040D00008B5024803F03EF808BD00BF0C190020E7
:1040E00008B5024801F086FA08BD00BF4C1A00204E
:1040F00008B5024801F07EFA08BD00BF6C1B002025
:1041000008B5024801F076FA08BD00BF2C1800205F
:1041100008B5024801F06EFA08BD00BFCC170020B8
:1041200008B5024800F062FF08BD00BFFC16002081
:1041300008B5024800F05AFF08BD00BFFC16002079
:1041400008B5024801F07FFF08BD00BFE41A022055
:1041500008B5024801F04EFA08BD00BFEC19002076
:1041600008B5024803F086FE08BD00BFEC1C002025
:1041700008B5024803F07EFE08BD00BFCC1E00203B
:1041800008B5024803F076FE08BD00BF541E0020AB
:1041900008B5024802F03CFE08BD00BF8C180020A4
:1041A0000120704708B513F01DFD162303604FF082
:1041B000FF3008BD08B54FF0FF31FFF7F3FFFEE712
:1041C00070B50C461646002506E0AFF30080214688
:1041D00001F8010B01350C46B542F6DB304670BDE7
:1041E00070B50C461646002504E014F8010BAFF339
:1041F00000800135B542F8DB304670BD4FF0FF302E
:1042000070474FF400534B60002070470120704707
:104210000020704710B503460C4A0D490D48006850
:1042200040B10C4800680344521A934206D8094A28
:10423000136010BD0748084C0460F2E713F0D2FC8D
:104240000C2303604FF0FF30F3E700BF00000320B2
:10425000001000005819002008230220034AD2F859
:10426000883043F47003C2F88830704700ED00E0F6
:104270000268094B9A4200D0704782B00023019334
:10428000064B1A6C42F002021A641B6C03F0020324
:104290000193019B02B070470004004000380240C7
:1042A0000268094B9A4200D0704782B00023019304
:1042B000064B1A6C42F040021A641B6C03F0400378
:1042C0000193019B02B07047001800400038024083
:1042D00000B589B0002303930493059306930793D5
:1042E00003681C4A934205D01B4A93421BD009B075
:1042F0005DF804FB00230193184B1A6B42F0020295
:104300001A631B6B03F002030193019B20230393A9
:1043100002230493012205920693079303A91048F0
:1043200001F056FAE3E7002302930C4B1A6B42F0BC
:1043300080021A631B6B03F080030293029B4023ED
:104340000393022304930923079303A9054801F06B
:104350003FFACCE70004004000180040003802405B
:1043600000040240001C024000B58BB000230893FB
:104370000993019302930393049305930693079380
:104380001848194A02604360836042F20F72C260AB
:104390000361836103F026F8D0B9002308930993E1
:1043A00008A9104803F07CF9A8B960230193002301
:1043B00002930393059304220DEB0201094803F0D5
:1043C00075F858B90748FFF783FF0BB05DF804FB99
:1043D000FFF796FCE1E7FFF793FCE6E7FFF790FCB9
:1043E000F0E700BFA41900200004004000B58DB024
:1043F0000023089309930A930B9301930293039369
:1044000004930593069307931B481C4A02605322AA
:104410004260836040F27112C2600361836102F006
:10442000B5FFE0B94FF48053089308A9124803F090
:10443000B8F8B8B9104802F0D5FFB0B960230193BD
:10444000002202920392059201A90B4803F02EF874
:1044500070B90948FFF73CFF0DB05DF804FBFFF7AA
:104460004FFCDFE7FFF74CFCE4E7FFF749FCE5E72B
:10447000FFF746FCEDE700BF5C1900200018004084
:1044800008B50A480A4B03604FF4E1234360002358
:104490008360C36003610C2242618361C36103F0E6
:1044A00051FE00B908BDFFF72BFCFBE7CC1E002036
:1044B0000078004008B50A480A4B03604FF4E13326
:1044C000436000238360C36003610C224261836107
:1044D000C36103F037FE00B908BDFFF711FCFBE72D
:1044E000541E0020007C004008B50C480C4B0360B3
:1044F0000C4B43604FF4805383600023C3604FF440
:10450000806202610C2242618361C36103F01AFE82
:1045100000B908BDFFF7F4FBFBE700BFDC1D00207E
:1045200000100140A086010008B50A480A4B03604C
:104530004FF4E133436000238360C36003610C22C6
:1045400042618361C36103F0FDFD00B908BDFFF75F
:10455000D7FBFBE7641D00200048004008B50A486F
:104560000A4B03604FF4E133436000238360C36070
:1045700003610C2242618361C36103F0E3FD00B972
:1045800008BDFFF7BDFBFBE7EC1C00200014014059
:1045900030B591B0044600230B930C930D930E930A
:1045A0000F930368824A934210D0824A934254D0B8
:1045B000814A934200F0B580804A934200F018810E
:1045C0007F4A934200F07A8111B030BD00250195F9
:1045D0007C4B1A6C42F080421A641A6C02F08042E2
:1045E0000192019A02951A6B42F010021A631B6B3A
:1045F00003F010030293029B4FF4C0730B9302234A
:104600000C9303230E9308230F930BA96E4801F01C
:10461000DFF86E486E4B03604FF0206343608560A7
:10462000C5604FF48063036145618561C5614FF4E6
:1046300000330362456200F0E5FE58B9634BE36363
:104640009C6300220521522000F04CFE522000F015
:1046500059FEB9E7FFF754FBF0E700250395594BE6
:104660001A6C42F000421A641A6C02F00042039283
:10467000039A04951A6B42F010021A631B6B03F045
:1046800010030493049B03230B9302220C920E93BA
:1046900008230F930BA94C4801F09AF84D484E4B54
:1046A00003604FF0206343608560C5604FF4806312
:1046B0000361456185614FF48073C3614FF400333A
:1046C0000362456200F09EFE28BB424BE3639C639D
:1046D0004248434B03604FF02063436040238360B4
:1046E0000023C3604FF48062026143618361C36150
:1046F0004FF400320262436200F084FE70B9374B1F
:10470000A3639C6300220521532000F0EBFD53209E
:1047100000F0F8FD58E7FFF7F3FAD6E7FFF7F0FAF5
:10472000EDE700250595274B5A6C42F010025A64BC
:104730005A6C02F010020592059A06951A6B42F027
:1047400002021A631B6B03F002030693069BC0234D
:104750000B9302230C9303230E9307230F930BA9B0
:10476000204801F035F82048204B03604FF00063EB
:1047700043608560C5604FF4806303614561856176
:10478000C5614FF400330362456200F03BFE58B947
:10479000154BE3639C6300220521252000F0A2FD58
:1047A000252000F0AFFD0FE7FFF7AAFAF0E700BF02
:1047B00000780040007C00400010014000480040AC
:1047C0000014014000380240001002408C1C002000
:1047D000586002402C1C0020A0600240CC1B00202E
:1047E00010600240000402406C1B00204064024044
:1047F00000250795634B1A6C42F480221A641A6CE8
:1048000002F480220792079A08951A6B42F0080278
:104810001A631B6B03F008030893089B4FF4407363
:104820000B9302230C9303230E9307230F930BA9DF
:10483000554800F0CDFF5548554B03604FF00063DD
:1048400043608560C5604FF48063036145618561A5
:104850004FF48073C3614FF400330362456200F08C
:10486000D1FD28BB494BE3639C634A484A4B036034
:104870004FF060634360402383600023C3604FF4C4
:104880008062026143618361C3614FF4003202625E
:10489000436200F0B7FD70B93E4BA3639C630022F6
:1048A0000521272000F01EFD272000F02BFD8BE6C0
:1048B000FFF726FAD6E7FFF723FAEDE7002509957B
:1048C000304B5A6C42F020025A645A6C02F02002BB
:1048D0000992099A0A951A6B42F040021A631B6BFF
:1048E00003F040030A930A9B4FF484430B93022383
:1048F0000C9303230E9308230F930BA9274800F072
:1049000067FF2748274B03604FF0206343608560B3
:10491000C5604FF48063036145618561C5614FF4F3
:1049200000330362456200F06DFD28BB1C4BE3635E
:104930009C631D481D4B03604FF020634360402380
:1049400083600023C3604FF480620261436183612E
:10495000C3614FF400320262436200F053FD70B94C
:10496000114BA3639C6300220521472000F0BAFC91
:10497000472000F0C7FC27E6FFF7C2F9D6E7FFF7AC
:10498000BFF9EDE700380240000C02400C1B00208C
:1049900028600240AC1A00207060024000180240FB
:1049A0004C1A002028640240EC190020A064024048
:1049B000DFF834D0FFF752FC0C480D490D4A0023B4
:1049C00002E0D458C4500433C4188C42F9D30A4AC4
:1049D0000A4C002301E013600432A242FBD313F01F
:1049E00007F9FFF7E3F970470000032000000020FB
:1049F0005009002090DA0108500900200823022005
:104A0000FEE7000008B50B4B1A6842F400721A600A
:104A10001A6842F480621A601A6842F480721A605E
:104A2000032000F04DFC0F20FFF7B2FAFFF78EFADB
:104A3000002008BD003C0240034A1168034B1B786C
:104A40000B441360704700BF441F00202C0100205E
:104A5000014B1868704700BF441F002038B504465A
:104A6000FFF7F6FF0546B4F1FF3F02D0044B1B7879
:104A70001C44FFF7EDFF401BA042FAD338BD00BF36
:104A80002C010020002800F0A18038B5044690F8E1
:104A90002030D3B12268136843F001031360FFF79D
:104AA000D7FF054623685A6812F0010F10D1FFF7AF
:104AB000CFFF401B0A28F5D9636A43F400336362D1
:104AC000052384F82030012038BDFEF78FFDE1E793
:104AD0001A6822F002021A60FFF7BAFF054623683F
:104AE0005A6812F0020F0DD0FFF7B2FF401B0A28E0
:104AF000F5D9636A43F400336362052384F82030F8
:104B00000120E1E7227E012A3DD01A6822F08002CE
:104B10001A60637E012B3BD02268136823F04003A8
:104B20001360A37E012B39D02268136823F0200381
:104B30001360E37E012B37D02268136843F0100323
:104B40001360237F012B35D02268136823F00803FC
:104B50001360637F012B33D02268136823F00403B2
:104B60001360A368E2681343226913436269134325
:104B70006268013A21681343CB610020606201231F
:104B800084F82030A0E71A6842F080021A60C0E77B
:104B90002268136843F040031360C2E72268136879
:104BA00043F020031360C4E72268136823F0100366
:104BB0001360C6E72268136843F008031360C8E770
:104BC0002268136843F004031360CAE701207047AA
:104BD00090F82030013BDBB2012B05D9436A43F446
:104BE000802343620120704730B5464BD3F8002242
:104BF00042F00102C3F80022D3F8002222F47C52D2
:104C0000C3F80022D3F80022486A42EA0022C3F81F
:104C100000224A6902F01F02012000FA02F2D3F8D2
:104C20001C026FEA020C20EA0200C3F81C02CB69E6
:104C3000C3B9344BD3F80C020CEA0000C3F80C02E1
:104C40008C884869CD6844EA0544483043F83040D0
:104C50008C68088840EA04404C6904F1480E03EB74
:104C6000CE035860CB69012B1ED08B69002B33D14A
:104C70002448D0F804320CEA0303C0F804320B696C
:104C80008BBB2048D0F814320CEA0303C0F814326E
:104C90000B6A012B2ED01B4AD2F8003223F00103FD
:104CA000C2F80032002030BD164BD3F80C0210437E
:104CB000C3F80C028C8848690D6844EA0544483002
:104CC00043F8304088894C698D6840EA0540483493
:104CD00003EBC4035860C8E70A48D0F80432134312
:104CE000C0F80432CBE70748D0F814321343C0F8B9
:104CF0001432CDE70349D1F81C321343C1F81C32FA
:104D0000C9E700BF0064004070B5044690F8205029
:104D1000EDB2012D06D0436A43F40023436201251E
:104D2000284670BD022380F820300268136823F003
:104D300001031360FFF78CFE064623685B6813F0DF
:104D4000010F0CD0FFF784FE831B0A2BF5D9636A91
:104D500043F400336362052384F82030E0E7002544
:104D60006562DDE730B590F820C00468A4680CF1F6
:104D7000FF3C5FFA8CFCBCF1010F62D814F0E05FDD
:104D800059D0C4F3016C012404FA0CF41C608B6844
:104D9000002B3DD10D68CB68046843EA45550CF102
:104DA00018031B01E55003680C690CF1180E03EBA6
:104DB0000E135C600B7D012B35D0D17993791B04E8
:104DC00043EA0163517943EA0123147901682343DB
:104DD00001EB0C11C1F88C31D17893781B0443EAB4
:104DE0000163517843EA0123117802680B4302EB17
:104DF0000C12C2F8883102680CF1180C4FEA0C1C36
:104E000052F80C3043F0010342F80C3000201DE052
:104E10004C6843EAC403CC6823430CF11804240112
:104E200005682B51BFE7036803EB0E13596841F483
:104E300080715960C1E7436A43F400134362012063
:104E400004E0436A43F480234362012030BD90F8BC
:104E500020C00CF1FF3C5FFA8CFCBCF1010F00F2AA
:104E6000A58030B451B90468E46814F0030F10D180
:104E7000436A43F40013436201207EE0046824691E
:104E800014F0030F05D1436A43F400134362012079
:104E900073E0056801F11B0424012C5904F004049B
:104EA0009460002C6BD1056801F11B0424012C597E
:104EB000640D1460046801F11B0C4FEA0C1C54F8DB
:104EC0000C4004F00204D4600468A444DCF80450EC
:104ED00015F0080F5BD008241461046801F11B0C65
:104EE00004EB0C146468C4F307249461046804EBB5
:104EF0000C146468240C5461026802EB0112D2F8AD
:104F0000B8211A70026802EB0112D2F8B821C2F37C
:104F100007225A70026802EB0112D2F8B821C2F3DC
:104F200007429A70026802EB0112D2F8B821120E01
:104F3000DA70026802EB0112D2F8BC211A71026821
:104F400002EB0112D2F8BC21C2F307225A710268A7
:104F500002EB0112D2F8BC21C2F307429A71026837
:104F600002EB0112D2F8BC21120EDA71C1B902684B
:104F7000D36843F02003D360002030BC704705683D
:104F800001F11B0424012C59E408546092E701F15B
:104F90001B0504EB0514646804F00F0414619CE71E
:104FA0000268136943F020031361E5E7436A43F4A1
:104FB000802343620120704790F82030013BDBB230
:104FC000012B05D9436A43F48023436201207047D3
:104FD000026853690B435361002070477047704764
:104FE0007047704770477047704770472DE9F84F1A
:104FF000054603685C69D3F804809F68D3F80CA069
:10500000D3F81090D3F818B014F001063BD017F085
:10501000010616D001229A6017F0020F08D117F08E
:10502000040F0CD117F0080606D04FF4805608E0A4
:10503000FCF7A8F9002604E0FFF7D0FF01E04FF4E9
:10504000006617F4807F0DD02B684FF480729A6051
:1050500017F4007F40F0968017F4806F00F0968080
:1050600046F4005617F4803F0DD02B684FF4803281
:105070009A6017F4003F40F0938017F4802F00F0FF
:10508000938046F4004614F0080F07D01AF0100F72
:1050900004D046F400762B681022DA6014F0040F76
:1050A00003D01AF0080F40F0898014F0020F05D0E9
:1050B0002B68DB6813F0030F40F0878014F0400F7B
:1050C00007D019F0100F04D046F480662B68102228
:1050D0001A6114F0200F02D019F0080F79D114F0E2
:1050E000100F04D02B681B6913F0030F78D114F450
:1050F000003F02D018F0100F76D114F4803F02D098
:1051000018F0080F77D114F4004F37D018F0040FBF
:1051100031D014F4807F04D01BF0010F01D046F091
:10512000010614F4007F04D01BF0020F01D046F0FA
:10513000020614F4806F04D01BF0040F01D046F077
:10514000040614F4006F16D01BF0700B13D0BBF1E3
:10515000400F66D056D8BBF1200F5CD0BBF1300FAA
:105160005CD0BBF1100F01D146F008062A689369A4
:1051700023F0700393612B6804225A60002E56D1ED
:10518000BDE8F88F2846FCF701F96BE717F4006FCC
:1051900002D046F4804665E72846FFF720FF61E726
:1051A0002846FCF7F7F86EE717F4002F02D046F414
:1051B000803668E72846FFF713FF64E72B6808226C
:1051C000DA602846FFF70DFF6FE72846FCF760F925
:1051D00074E72B6808221A612846FFF703FF7EE771
:1051E0002846FCF76DF982E72B6810225A602846A2
:1051F000FFF7F9FE81E72B6808225A602846FFF77F
:10520000F3FE80E7BBF1500F0ED0BBF1600FADD1C4
:1052100046F48076AAE746F01006A7E746F0200697
:10522000A4E746F04006A1E746F080069EE76B6AD9
:1052300033436B622846FFF7D8FEA1E7002807DB5F
:1052400000F01F02400901239340024A42F8203037
:10525000704700BF00E100E0002808DB0901C9B287
:1052600000F1604000F5614080F80013704700F0E5
:105270000F000901C9B2014B1954704714ED00E049
:1052800000B500F00700C0F1070CBCF1040F28BF07
:105290004FF0040C031D062B0FD9C31E4FF0FF3E29
:1052A0000EFA0CF021EA000199400EFA03FE22EA00
:1052B0000E0241EA02005DF804FB0023EEE7000065
:1052C000074AD36823F4E0631B041B0C000200F4BC
:1052D000E060034343F0BF6343F40033D36070479F
:1052E00000ED00E010B50446054BD868C0F302207D
:1052F000FFF7C6FF01462046FFF7AEFF10BD00BF17
:1053000000ED00E008B5FFF799FF08BD30B405686F
:105310002C6824F480242C60046863608368402B2C
:1053200005D0036899600368DA6030BC7047036891
:105330009A600368D960F8E710B40368D9B21039ED
:105340000A4AA2FB01421209094CA25CC2655F290C
:1053500007D96FF3090304338365806D5DF8044B4F
:1053600070476FF309038365F7E700BFABAAAAAAEA
:10537000D8C90108836A826992B9012B0AD0022B2D
:1053800002D00BB100207047C36A13F0807F28D190
:1053900000207047C36AB3F1C07F24D0002070475B
:1053A000B2F5005F09D0022B25D9032B25D1C36AA2
:1053B00013F0807F23D100207047032B03D8DFE850
:1053C00003F01404140A00207047C36A13F0807FAE
:1053D0000DD100207047C36AB3F1C07F09D000200F
:1053E000704701207047012070470120704701205D
:1053F000704701207047012070470020704701204E
:105400007047000070B50446FFF722FB002C5BD00C
:105410000546022384F83530002384F834302268AE
:10542000136823F00103136023681A6812F0010F58
:105430000AD0FFF70DFB431B052BF5D9202363652D
:10544000032084F8350070BD1A6820491140626855
:10545000A0680243E0680243206902436069024396
:10546000A0690243E0690243206A02430A43616A79
:1054700004291ED01A602668756925F00705636A3D
:105480001D43042B07D1A36A1D43E36A1BB12046C9
:10549000FFF770FF90B975612046FFF74DFFE26D91
:1054A0003F239340836000206065012384F83530FA
:1054B000C9E7E16A206B01430A43DBE740236365E8
:1054C000012084F83500BEE70120BCE73F8010F0E2
:1054D00038B50446856D90F8340001282BD00120A2
:1054E00084F8340094F83500C0B2012804D00023B9
:1054F00084F83430022038BD022084F835000020C2
:1055000060652046FFF702FFE26D3F239340AB60EA
:105510002268136843F016031360236C23B12268DA
:10552000136843F0080313602268136843F0010313
:1055300013600020DFE70220DDE770B50446866DCA
:10554000FFF786FA94F83530DBB2022B06D08023C1
:105550006365002384F83430012070BD054622685D
:10556000136823F0160313602268536923F0800345
:105570005361236CE3B12268136823F008031360BE
:105580002268136823F00103136023681B6813F07B
:10559000010F11D0FFF75CFA431B052BF5D920232F
:1055A0006365032084F83500002384F83430D4E7A1
:1055B000A36C002BDFD1E3E7E26D3F239340B360A0
:1055C000012384F83530002084F83400C5E790F8D2
:1055D0003530DBB2022B03D08023436501207047B6
:1055E000052380F835300268136823F00103136047
:1055F00000207047F0B583B0044600230193724B3E
:105600001D68724BA3FB0535AD0A876D3E68C26D00
:1056100008239340334210D003681A6812F0040F35
:105620000BD01A6822F004021A60C26D082393405E
:10563000BB60436D43F001034365E26D012393407A
:10564000334209D02268526912F0800F04D0BB6047
:10565000636D43F002036365E26D042393403342BC
:1056600009D02268126812F0020F04D0BB60636D8B
:1056700043F004036365E26D10239340334224D06A
:105680002268126812F0080F1FD0BB6023681A68E6
:1056900012F4802F0DD01B6813F4002F04D1236C5B
:1056A0009BB12046984710E0A36C73B12046984701
:1056B0000BE01A6812F4807F03D11A6822F0080206
:1056C0001A60236C0BB120469847E26D202393406B
:1056D000334255D02268126812F0100F50D0BB60D0
:1056E00094F83530DBB2052B0ED023681A6812F41B
:1056F000802F33D01B6813F4002F2AD1636C002B4A
:105700003ED0204698473BE02268136823F01603FA
:1057100013602268536923F080035361236CA3B1A3
:105720002268136823F008031360E26D3F2393405F
:10573000BB60012384F83530002384F83430236DB6
:10574000002B3FD0204698473CE0A36C002BE7D1CC
:10575000EBE7E36BA3B12046984711E01A6812F417
:10576000807F09D11A6822F010021A60012384F8A0
:105770003530002384F83430E36B0BB12046984772
:10578000636DFBB1636D13F0010F17D0052384F82F
:1057900035302268136823F001031360019B013345
:1057A0000193AB4204D823681B6813F0010FF5D1B5
:1057B000012384F83530002384F83430E36C0BB1D6
:1057C0002046984703B0F0BD28010020B5814E1B4C
:1057D00000230F2B00F2F68070B582B066E085687A
:1057E0004FEA430E032404FA0EF425EA0405CC68BC
:1057F00004FA0EF42C438460446824EA02044A68E4
:10580000C2F300129A40224342605DE0DC08083493
:1058100050F8242003F00705AD004FF00F0E0EFAEC
:1058200005FE22EA0E0E0A69AA4042EA0E0240F87C
:1058300024205DE0092200E0002202FA0EF22A4351
:105840000234614D45F82420604A94686FEA0C02E6
:1058500024EA0C054E6816F4801F01D04CEA0405BA
:105860005A4CA560E46802EA04054E6816F4001F6D
:1058700001D04CEA0405554CE560646802EA040571
:105880004E6816F4003F01D04CEA04054F4C6560A9
:10589000246822404D6815F4803F01D04CEA040290
:1058A0004A4C226001330F2B00F28A8001229A4079
:1058B0000C6804EA020C32EA0404F3D14C6804F0E8
:1058C0000304013C012C8AD94A6802F00302032A2E
:1058D00009D0C4685D000322AA4024EA02048A6851
:1058E000AA402243C2604A6802F00302022A8DD015
:1058F00004684FEA430E032202FA0EF224EA02047D
:105900004A6802F0030202FA0EF2224302604A6879
:1059100012F4403FC6D0002201922D4A546C44F448
:1059200080445464526C02F480420192019A9C08B3
:10593000A51C254A52F8255003F0030E4FEA8E0E9F
:105940000F2202FA0EF225EA0205224A90423FF4A3
:1059500073AF02F58062904222D002F580629042DD
:1059600020D002F5806290421ED002F58062904203
:105970001CD002F5806290421AD002F580629042FB
:1059800018D002F58062904216D002F580629042F3
:1059900014D002F5806290423FF44CAF0A224CE7EB
:1059A00001224AE7022248E7032246E7042244E7AD
:1059B000052242E7062240E707223EE708223CE7AD
:1059C00002B070BD704700BF00380140003C01408C
:1059D00000380240000002400AB1816170470904AA
:1059E000816170472DE9F04383B0D0F8008001EB6E
:1059F000C10300EB83039A6A5B6A9A4254D8074654
:105A00000C469B1A01EBC10200EB8202D2699A425A
:105A100000D31A4602F103094FEA990915E006F18D
:105A200003094FEA9909BB7904EBC40507EB850527
:105A3000296A0093B3B2E2B2404602F078FF2B6AC3
:105A400033442B62AB6A3344AB6208EB441303F577
:105A500010639B699BB24B4512D304EBC40307EB65
:105A600083039A6A5B6A9A420AD24BB19B1A04EB8F
:105A7000C40207EB8202D6699E42D0D31E46CEE70F
:105A800004EBC40307EB83077A6ABB6A9A420FD818
:105A900004F00F040122A240D8F8343823EA0203AC
:105AA000C8F83438002000E0012003B0BDE8F083DE
:105AB0000020FAE730B583B000287AD004460568A4
:105AC00090F89534C3B1032384F89534B5F1A04F11
:105AD00017D0206802F0DEFC237C8DF80030231DF7
:105AE0000ECB206802F014FC70B1022384F89534C8
