:020000040800F2
:1000000000000320A1D7000825CE000827CE000855
:1000100029CE00082BCE00082DCE000800000000DD
:100020000000000000000000000000009134010802
:100030002FCE00080000000031350108652D0108B1
:10004000F1D70008F1D70008F1D70008F1D7000870
:10005000F1D70008F1D70008F1D70008F1D7000860
:10006000F1D70008F1D70008F1D7000831CE000819
:1000700041CE0008F1D7000851CE000861CE00083B
:10008000F1D7000871CE0008F1D7000881CE000832
:1000900091CE0008F1D70008F1D70008F1D7000889
:1000A000F1D70008F1D70008F1D70008F1D7000810
:1000B000F1D70008F1D70008F1D70008F1D7000800
:1000C000F1D70008F1D70008F1D70008F1D70008F0
:1000D000F1D70008A1CE0008F1D70008B1CE000882
:1000E000F1D70008F1D70008F1D70008F1D70008D0
:1000F000F1D70008F1D70008F1D70008F1D70008C0
:10010000F1D70008F1D70008F1D70008F1D70008AF
:10011000F1D70008F1D70008F1D70008C1CE0008D8
:10012000F1D70008D1CE0008E1CE0008F1CE0008DA
:1001300001CF0008F1D70008F1D7000811CF00085F
:10014000F1D7000821CF0008F1D7000831CF00080F
:10015000F1D7000841CF0008F1D7000851CF0008BF
:10016000F1D70008F1D70008F1D70008F1D700084F
:10017000F1D70008F1D70008F1D70008000000000F
:10018000F1D70008F1D7000861CF000871CF00084F
:10019000F1D7000881CF0008F1D70008F1D7000897
:0C01A0000000000000000000F1D7000883
:1001C00081F0004102E000BF83F0004330B54FEA08
:1001D00041044FEA430594EA050F08BF90EA020F75
:1001E0001FBF54EA000C55EA020C7FEA645C7FEA08
:1001F000655C00F0E2804FEA5454D4EB5555B8BF2B
:100200006D420CDD2C4480EA020281EA030382EA9B
:10021000000083EA010180EA020281EA0303362D2D
:1002200088BF30BD11F0004F4FEA01314FF4801C00
:100230004CEA113102D0404261EB410113F0004F12
:100240004FEA03334CEA133302D0524263EB4303C9
:1002500094EA050F00F0A780A4F10104D5F1200E67
:100260000DDB02FA0EFC22FA05F2801841F10001C2
:1002700003FA0EF2801843FA05F359410EE0A5F196
:1002800020050EF1200E012A03FA0EFC28BF4CF0C7
:10029000020C43FA05F3C01851EBE37101F000457D
:1002A00007D54FF0000EDCF1000C7EEB00006EEB8A
:1002B0000101B1F5801F1BD3B1F5001F0CD3490814
:1002C0005FEA30004FEA3C0C04F101044FEA44526B
:1002D00012F5800F80F09A80BCF1004F08BF5FEAF2
:1002E000500C50F1000041EB045141EA050130BDD2
:1002F0005FEA4C0C404141EB0101013C28BFB1F5E4
:10030000801FE9D291F0000F04BF01460020B1FA2E
:1003100081F308BF2033A3F10B03B3F120020CDA01
:100320000C3208DD02F1140CC2F10C0201FA0CF0DF
:1003300021FA02F10CE002F11402D8BFC2F1200C44
:1003400001FA02F120FA0CFCDCBF41EA0C019040FA
:10035000E41AA2BF01EB0451294330BD6FEA040443
:100360001F3C1CDA0C340EDC04F11404C4F120022E
:1003700020FA04F001FA02F340EA030021FA04F340
:1003800045EA030130BDC4F10C04C4F1200220FA97
:1003900002F001FA04F340EA0300294630BD21FAD5
:1003A00004F0294630BD94F0000F83F4801306BF9B
:1003B00081F480110134013D4EE77FEA645C18BF8F
:1003C0007FEA655C29D094EA050F08BF90EA020F26
:1003D00005D054EA000C04BF1946104630BD91EA1E
:1003E000030F1EBF0021002030BD5FEA545C05D121
:1003F0004000494128BF41F0004130BD14F5800460
:100400003CBF01F5801130BD01F0004545F0FE41D3
:1004100041F470014FF0000030BD7FEA645C1ABF08
:10042000194610467FEA655C1CBF0B46024650EA3F
:10043000013406BF52EA033591EA030F41F400216B
:1004400030BD00BF90F0000F04BF0021704730B5F1
:100450004FF4806404F132044FF000054FF00001C6
:1004600050E700BF90F0000F04BF0021704730B587
:100470004FF4806404F1320410F0004548BF40425C
:100480004FF000013EE700BF42004FEAE2014FEAB1
:1004900031014FEA02701FBF12F07F4393F07F4F8C
:1004A00081F06051704732F07F4208BF704793F08F
:1004B0007F4F04BF41F40021704730B54FF46074A2
:1004C00001F0004521F000411CE700BF50EA0102A5
:1004D00008BF704730B54FF000050AE050EA01024E
:1004E00008BF704730B511F0004502D5404261EBBE
:1004F00041014FF4806404F132045FEA915C3FF4FF
:10050000D8AE4FF003025FEADC0C18BF03325FEA9B
:10051000DC0C18BF033202EBDC02C2F1200300FA4C
:1005200003FC20FA02F001FA03FE40EA0E0021FA71
:1005300002F11444BDE600BF70B54FF0FF0C4CF45F
:10054000E06C1CEA11541DBF1CEA135594EA0C0F11
:1005500095EA0C0F00F0DEF82C4481EA030621EA4C
:100560004C5123EA4C5350EA013518BF52EA033587
:1005700041F4801143F4801338D0A0FB02CE4FF039
:100580000005E1FB02E506F00042E0FB03E54FF069
:100590000006E1FB03569CF0000F18BF4EF0010E61
:1005A000A4F1FF04B6F5007F64F5407404D25FEA5D
:1005B0004E0E6D4146EB060642EAC62141EA555110
:1005C0004FEAC52040EA5E504FEACE2EB4F1FD0C52
:1005D00088BFBCF5E06F1ED8BEF1004F08BF5FEAD0
:1005E000500E50F1000041EB045170BD06F0004682
:1005F00046EA010140EA020081EA0301B4EB5C042F
:10060000C2BFD4EB0C0541EA045170BD41F4801126
:100610004FF0000E013C00F3AB8014F1360FDEBF4B
:10062000002001F0004170BDC4F10004203C35DA27
:100630000C341BDC04F11404C4F1200500FA05F3AA
:1006400020FA04F001FA05F240EA020001F000424B
:1006500021F0004110EBD37021FA04F642EB0601C1
:100660005EEA430E08BF20EAD37070BDC4F10C04EB
:10067000C4F1200500FA04F320FA05F001FA04F2AF
:1006800040EA020001F0004110EBD37041F100019B
:100690005EEA430E08BF20EAD37070BDC4F12005A6
:1006A00000FA05F24EEA020E20FA04F301FA05F20E
:1006B00043EA020321FA04F001F0004121FA04F2B6
:1006C00020EA020000EBD3705EEA430E08BF20EA86
:1006D000D37070BD94F0000F0FD101F000464000C0
:1006E00041EB010111F4801F08BF013CF7D041EA42
:1006F000060195F0000F18BF704703F00046520046
:1007000043EB030313F4801F08BF013DF7D043EA16
:100710000603704794EA0C0F0CEA135518BF95EACC
:100720000C0F0CD050EA410618BF52EA4306D1D153
:1007300081EA030101F000414FF0000070BD50EA72
:10074000410606BF1046194652EA430619D094EAFC
:100750000C0F02D150EA013613D195EA0C0F05D1E6
:1007600052EA03361CBF104619460AD181EA03013A
:1007700001F0004141F0FE4141F470014FF00000F2
:1007800070BD41F0FE4141F4780170BD70B54FF08D
:10079000FF0C4CF4E06C1CEA11541DBF1CEA13550D
:1007A00094EA0C0F95EA0C0F00F0A7F8A4EB0504EF
:1007B00081EA030E52EA03354FEA013100F08880E6
:1007C0004FEA03334FF0805545EA131343EA1263AF
:1007D0004FEA022245EA111545EA10654FEA002664
:1007E0000EF000419D4208BF964244F1FD0404F51D
:1007F000407402D25B084FEA3202B61A65EB030579
:100800005B084FEA32024FF480104FF4002CB6EB35
:10081000020E75EB030E22BFB61A754640EA0C00B5
:100820005B084FEA3202B6EB020E75EB030E22BFF5
:10083000B61A754640EA5C005B084FEA3202B6EB36
:10084000020E75EB030E22BFB61A754640EA9C00F5
:100850005B084FEA3202B6EB020E75EB030E22BFC5
:10086000B61A754640EADC0055EA060E18D04FEA83
:10087000051545EA16754FEA06164FEAC30343EA23
:1008800052734FEAC2025FEA1C1CC0D111F4801FF0
:100890000BD141EA00014FF000004FF0004CB6E7E9
:1008A00011F4801F04BF01430020B4F1FD0C88BF88
:1008B000BCF5E06F3FF6AFAEB5EB030C04BFB6EB93
:1008C000020C5FEA500C50F1000041EB045170BD86
:1008D0000EF0004E4EEA113114EB5C04C2BFD4EBB3
:1008E0000C0541EA045170BD41F480114FF0000E37
:1008F000013C90E645EA060E8DE60CEA135594EAB3
:100900000C0F08BF95EA0C0F3FF43BAF94EA0C0FB5
:100910000AD150EA01347FF434AF95EA0C0F7FF42A
:1009200025AF104619462CE795EA0C0F06D152EA7E
:1009300003353FF4FDAE1046194622E750EA410662
:1009400018BF52EA43067FF4C5AE50EA41047FF473
:100950000DAF52EA43057FF4EBAE12E74FF0FF3CD8
:1009600006E000BF4FF0010C02E000BF4FF0010CA9
:100970004DF804CD4FEA410C7FEA6C5C4FEA430C22
:1009800018BF7FEA6C5C1BD001B050EA410C0CBF71
:1009900052EA430C91EA030F02BF90EA020F0020D3
:1009A000704710F1000F91EA030F58BF994208BF3A
:1009B00090422CBFD8176FEAE37040F001007047F7
:1009C0004FEA410C7FEA6C5C02D150EA013C07D14E
:1009D0004FEA430C7FEA6C5CD6D152EA033CD3D099
:1009E0005DF8040B704700BF8446104662468C4693
:1009F0001946634600E000BF01B5FFF7B7FF0028C6
:100A000048BF10F1000F01BD4DF808EDFFF7F4FFEE
:100A10000CBF012000205DF808FB00BF4DF808ED79
:100A2000FFF7EAFF34BF012000205DF808FB00BF9C
:100A30004DF808EDFFF7E0FF94BF012000205DF8BE
:100A400008FB00BF4DF808EDFFF7CEFF94BF012073
:100A500000205DF808FB00BF4DF808EDFFF7C4FF6C
:100A600034BF012000205DF808FB00BF53B94AB92C
:100A7000002908BF00281CBF4FF0FF314FF0FF30A6
:100A800000F0E2B8ADF1080C6DE904CE1EF026F8D6
:100A9000DDF804E0DDE9022304B0704700F1340121
:100AA00091E838009C46A6464CF8045D90E8FF0F9C
:100AB000E54600BD90EC210B704700BF80EC210B98
:100AC000704700BF90EC200B704700BF80EC200BFC
:100AD000704700BFD0EC200B704700BFC0EC200B6C
:100AE000704700BFF0EC0201F0EC0211F0EC0221C3
:100AF000F0EC0231F0EC0241F0EC0251F0EC02615A
:100B0000F0EC0271F0EC0281F0EC0291F0EC02A149
:100B1000F0EC02B1F0EC02C1F0EC02D1F0EC02E139
:100B2000F0EC02F1704700BFE0EC0201E0EC0211D2
:100B3000E0EC0221E0EC0231E0EC0241E0EC025199
:100B4000E0EC0261E0EC0271E0EC0281E0EC029189
:100B5000E0EC02A1E0EC02B1E0EC02C1E0EC02D179
:100B6000E0EC02E1E0EC02F1704700BFB0FC018173
:100B7000B0FC0191B0FC01A1B0FC01B1704700BF15
:100B8000A0FC0181A0FC0191A0FC01A1A0FC01B18D
:100B9000704700BFEC4600B52DE900502DE9FF1F5E
:100BA0004FF000032DE90C0001A91EF051FADDF809
:100BB00040E012B0704700BFEC4600B52DE9005090
:100BC0002DE9FF1F4FF000032DE90C0001A91EF0D5
:100BD0007BFADDF840E012B0704700BFEC4600B58C
:100BE0002DE900502DE9FF1F4FF000032DE90C0007
:100BF00001A91EF08BFADDF840E012B0704700BF8B
:100C0000EC4600B52DE900502DE9FF1F4FF0000321
:100C10002DE90C0001AB1EF04FFADDF840E012B0F8
:100C2000704700BFEC4600B52DE900502DE9FF1FCD
:100C30004FF000032DE90C0001AA1EF0C7FADDF801
:100C400040E012B0704700BF704700BF00000000D6
:100C50000000000000000000000000000000000094
:100C600002780B78012A28BF9A4240F0D8806DE9BB
:100C7000044540EA0104CDE902676FF0000C4FEA39
:100C800044721AB380EA010414F0070F6BD100F02C
:100C9000070420F0070004F0030521F007014FEAE4
:100CA000C505F0E8042314F0040FF1E804670CFA1A
:100CB00005F462EA040266EA04060BD063EA040360
:100CC000624667EA0407664604E000BFF0E80423D2
:100CD000F1E8046782FA4CF582EA0604A4FA8CF47F
:100CE0006CBB83FA4CF583EA0705A5FA8CF595B938
:100CF00050E9022351E9026782FA4CF582EA0604C0
:100D0000A4FA8CF483FA4CF583EA0705A5FA8CF56E
:100D10002543DBD09CB92DBAB5FA85F424F007043D
:100D200027FA04F1DDE9026723FA04F303F0FF0078
:100D300001F0FF01FDE80445A0EB0100704724BA73
:100D4000B4FA84F424F0070426FA04F1DDE902671A
:100D500022FA04F202F0FF0001F0FF01FDE8044571
:100D6000A0EB0100704714F0030F3CD110F0030416
:100D700028D150F8082B51F8083B82FA4CF582EA4A
:100D80000305A5FA8CF55DB950F8042C51F8043C24
:100D900082FA4CF582EA0305A5FA8CF5002DE8D01D
:100DA0002DBAB5FA85F424F0070423FA04F122FAE7
:100DB00004F202F0FF0001F0FF01FDE80445A0EBA2
:100DC000010070474FEAC40420F0030050F8082BDC
:100DD00021F0030151F8083B0CFA04F462EA040222
:100DE00063EA0403C9E710F003041DD0A1EB04017A
:100DF00020F00300E40750F8042B06D012D28B78C1
:100E00005FFAA2F4E41A06D12BB1CB785FFAB2F400
:100E1000E41A00D133B920465DF8104B7047A2EBBD
:100E20000300704701F1040150F8042BCC0721F0B6
:100E3000030151F8043B48D824D222F07F4482FABF
:100E40004CF594EA1325A5FA8CF50AD165B951F849
:100E5000043B84EA0204B4EB036F0ED150F8042B78
:100E6000EBE74FEA132355E035F07F454DD1087885
:100E7000FDE80445C0F1000070474FEA126203F03C
:100E8000FF0347E002EA1C4482FA4CF594EA13455A
:100E9000A5FA8CF50AD165B951F8043B84EA02043D
:100EA000B4EB034F0CD150F8042BEBE74FEA13439C
:100EB00030E015EA1C4528D10B884FEA124229E0A0
:100EC0004FEA124203EA1C4324E002F0FF0482FAD4
:100ED0004CF594EA1365A5FA8CF50AD165B951F879
:100EE000043B84EA0204B4EB032F09D150F8042B2D
:100EF000EBE74FEA13630DE015F0FF0F05D10B6828
:100F00004FEA122223F07F4304E04FF00000FDE897
:100F10000445704712BA1BBA82FA4CF482EA030401
:100F2000A4FA8CF5B5FA85F402FA04F203FA04F394
:100F30004FEA1260FDE80445A0EB1360704700BF64
:100F400001F0FF01102A2BDB10F0070F08D010F87A
:100F5000013B013A8B422DD010F0070F42B3F6D17E
:100F6000F0B441EA012141EA014122F007047FF097
:100F700000070023F0E80256083C85EA010586EAEE
:100F8000010685FA47F5A3FA87F586FA47F6A5FA2A
:100F900087F68EB9EED1F0BC01F0FF0102F0070236
:100FA00032B110F8013B013A83EA010313B1F8D1E1
:100FB0000020704701387047002D06BF35460338C2
:100FC000073815F0010F07D1013015F4807F02BFFB
:100FD000013015F4C03F0130F0BC0138704700BF4C
:100FE000844641EA000313F003036DD1403A41D334
:100FF00051F8043B40F8043B51F8043B40F8043BF3
:1010000051F8043B40F8043B51F8043B40F8043BE2
:1010100051F8043B40F8043B51F8043B40F8043BD2
:1010200051F8043B40F8043B51F8043B40F8043BC2
:1010300051F8043B40F8043B51F8043B40F8043BB2
:1010400051F8043B40F8043B51F8043B40F8043BA2
:1010500051F8043B40F8043B51F8043B40F8043B92
:1010600051F8043B40F8043B51F8043B40F8043B82
:10107000403ABDD2303211D351F8043B40F8043B22
:1010800051F8043B40F8043B51F8043B40F8043B62
:1010900051F8043B40F8043B103AEDD20C3205D332
:1010A00051F8043B40F8043B043AF9D2043208D02A
:1010B000D2071CBF11F8013B00F8013B01D30B889C
:1010C00003806046704700BF082A13D38B078DD07A
:1010D00010F003038AD0C3F10403D21ADB071CBF4C
:1010E00011F8013B00F8013B80D331F8023B20F8B6
:1010F000023B7BE7043AD9D3013A11F8013B00F8EF
:10110000013BF9D20B7803704B7843708B78837076
:101110006046704700000000000000000000000072
:1011200000000000000000000000000000000000BF
:1011300000000000000000000000000000000000AF
:1011400030B490F800F020F007016FF0000C10F0C0
:10115000070491F820F040F048804FF000046FF051
:101160000700D1E9002391F840F000F1080082FA6D
:101170004CF2A4FA8CF283FA4CF3A2FA8CF34BBB38
:10118000D1E9022382FA4CF200F10800A4FA8CF2B1
:1011900083FA4CF3A2FA8CF3E3B9D1E9042382FA7F
:1011A0004CF200F10800A4FA8CF283FA4CF3A2FA94
:1011B0008CF37BB9D1E9062301F1200182FA4CF2CC
:1011C00000F10800A4FA8CF283FA4CF3A2FA8CF333
:1011D000002BC6D0002A04BF04301A4612BAB2FA55
:1011E00082F200EBD20030BC7047D1E9002304F05A
:1011F0000305C4F100004FEAC50514F0040F91F88F
:1012000040F00CFA05F562EA05021CBF63EA05032B
:1012100062464FF00004AAE74FEA410C7FEA6C5C9B
:1012200002D150EA013C0AD14FEA430C7FEA6C5CE0
:1012300002D152EA033C02D14FF0000070474FF058
:10124000010070474FEA410212F5001215D211D584
:101250006FF47873B3EB625212D94FEAC12343F0B3
:10126000004343EA505311F0004F23FA02F018BF35
:10127000404270474FF00000704750EA013005D1FE
:1012800011F0004008BF6FF0004070474FF00000C1
:10129000704700BF0348044B834202D0034B03B1A5
:1012A00018477047801000208010002000000000C8
:1012B0000548064B1B1AD90F01EBA301491002D0B8
:1012C000034B03B1184770478010002080100020A6
:1012D0000000000010B5064C237843B9FFF7DAFF91
:1012E000044B13B10448AFF300800123237010BDF9
:1012F0008010002000000000E062020808B5054BE5
:101300001BB105490548AFF30080BDE80840FFF771
:10131000CFBF00BF0000000084100020E062020880
:1013200001608260C0F80D30009B037370470000BD
:1013300008B502680A4B9A4208D000231A4600F109
:1013400008010848006811F03BFF08BD00231A4659
:1013500000F108010448006811F032FFF5E700BF12
:10136000344F0020B44F0020B84F002008B5064B82
:10137000834204D0054B186811F0A8FE08BD044B49
:10138000186811F0A3FEF9E7344F0020644F0020E5
:10139000684F002008B5FFF7E9FF08BD08B5FFF763
:1013A000E5FF08BD08B5FFF7E1FF08BD2DE9F041F5
:1013B00004460D4690461E46069F12F07BF82368B1
:1013C00013B16368002B4ED12560B8F1000F01D036
:1013D000C4F8048006B1666107B1A7612A4B9D423B
:1013E00044D00123294A13611D46294A52F823207B
:1013F000372A2AD8E261C3EBC30102EBC1012548B9
:1014000040F82140E169C3EBC300400000EB9100CC
:101410001E4E706101F0030160681F4F01EB8301F4
:1014200047F8210001321A4941F823201A0107EB3D
:101430000313BA58520172605A685201F2609A68F6
:1014400052013260DB685B01B360104920680CF028
:10145000B7FA0F4B53F8253013F0030F0AD012F0F0
:101460004BF8BDE8F08112F047F8FAE70023074A8D
:101470001361B9E72901084A02EB0515002353500F
:101480006B60AB60EB60EAE7344F002004000020A3
:10149000BC100020C41000209C10002010B58AB0A1
:1014A00001AB03AA00210CF0CAFB099A064B53F8C2
:1014B00022403CB1A06928B111F008FE636901A97E
:1014C000204698470AB010BDC410002010B58AB05D
:1014D00001AB03AA01210CF0B2FB099B3833074A88
:1014E00052F823403CB1A06928B111F0EFFD6369C7
:1014F00001A9204698470AB010BD00BFC4100020C3
:1015000008B506230FF055FB012011F00AFD08BDB8
:1015100008B50FF0B5FB012011F003FD08BD10B5B3
:1015200004460FF0E5FDE36B1A68136823F0080327
:10153000136010BD10B504460846114623880022EA
:1015400010E073460CF1010CBCF1070F09D84FEA0B
:10155000430E13F4004FF4D08EF4815383F0010353
:10156000F0E701328A4206D210F802C083EA0C2367
:101570004FF0000CE8E7238010BD000070B52DEDA2
:10158000048B84B00646F0EE418AB0EE619AFFEE1D
:10159000007AB4EEE70AF1EE10FA0BD9B0EE408A09
:1015A000F7EE007AB4EEE70AF1EE10FA04DBB7EEDC
:1015B000008A01E0BFEE008AFFEE007AF4EEE70A4F
:1015C000F1EE10FA09D9F7EE007AF4EEE70AF1EE3F
:1015D00010FA04DBF7EE000A01E0FFEE000A68EE05
:1015E000087A20EEA07A77EE877AF5EEC07AF1EEEF
:1015F00010FA08DBF1EEE77AB7EE007AF4EEC77A7C
:10160000F1EE10FA1BDC78EE607A9FED2B7A28EE73
:10161000871A37EEC17A8DED007A38EE208A38EEDF
:10162000417A8DED017A77EE817ACDED027A31EE55
:10163000081A8DED031AB0EE497A6B4611E080EE80
:10164000880A1CF0D5F9F0EE409A14F0BFFAB0EE1B
:10165000408AB0EE690A14F005FBF0EE400AD2E7CA
:10166000043304AA93420BD0D3ED007AF0EEE77A6C
:10167000F4EEC77AF1EE10FAF2DDB0EE677AEFE73A
:1016800089EE078A002410E0EC2505FB046504AB15
:1016900003EB840313ED040A20EE080A284607F042
:1016A000F1FD284607F0D8FD0134032CECDD04B031
:1016B000BDEC048B70BD00BFCDCC4C3F10B50446D3
:1016C00020EE200A14F064FAB5EEC00AF1EE10FA2A
:1016D00009D9DFED097AB4EEE70AF1EE10FA04DB7E
:1016E0009FED050A01E09FED050A84ED040AB1EEC5
:1016F000400A84ED050A10BD3333333F000000007B
:1017000010B5044670EE600AC0ED070AD0ED007A0D
:1017100060EEA77AC0ED0A7AD0ED0B7A90ED017AEF
:1017200020EE877A77EE877AC0ED0B7AD0ED027AD9
:1017300090ED087A30EEC77A67EE877AC0ED0C7AC2
:10174000437E83B3F0EE400A90ED0E0AFFF7B6FF3A
:10175000D4ED0B7A94ED057AF4EEC77AF1EE10FA37
:1017600026D884ED0B7AD4ED0A7A94ED0B7A77EED5
:10177000877A94ED0C7A77EE877AC4ED0D7A94ED42
:10178000037AF1EE476AF4EEE67AF1EE10FA19D830
:10179000C4ED0D6AE3692362237E0BB90023636302
:1017A00094ED0D0A10BD90ED0E0AFFF787FFCFE70D
:1017B00094ED047AF4EEC77AF1EE10FAD3DB84EDFF
:1017C0000B7AD0E7F4EEC77AF1EE10FAE2DB84EDA3
:1017D0000D7ADFE701230370002303658361C36192
:1017E0004361C36003610362436280ED110AF5EE59
:1017F000C00AF1EE10FA12DBC0ED120AF1EE600A37
:10180000C0ED130A80ED0A1AC0ED0B1A80ED0C2A08
:10181000C0ED0D2A80ED0E3AC0ED0F3A7047F1EEA3
:10182000607AC0ED127AC0ED130AEBE7C0ED010A51
:1018300080ED021A80ED042A80ED000AC0ED031A43
:101840007047D0ED046AD0ED037AB1EE677AB4EE5A
:10185000E67AF1EE10FA06DAF4EEE67AF1EE10FA34
:1018600022D9B0EE667AD0ED007AF5EEC07AF1EECC
:1018700010FA1CDDF4EEC77AF1EE10FA20DC012339
:101880001A4677EE676AF0EEE66A02B390ED016AF7
:10189000F0EEC65AF4EEE65AF1EE10FA1CDD80EDD9
:1018A000007A90ED000A7047B0EE677ADBE7F4EE5D
:1018B000C77AF1EE10FA06D44FF0FF330122E0E7C9
:1018C00001230022DDE74FF0FF330022D9E790ED3E
:1018D000026AB1EE466ADBE7F0EEE77A77EE867AE7
:1018E000C0ED007A07EE103AB8EEC77A67EE877A55
:1018F000C0ED007AD5E780ED010AC0ED020A80ED67
:10190000031A704780ED050AC0ED040A0022027632
:10191000704701230376704700230376704710B5A4
:101920002DED068BB0EE409AF0EE608AB0EE418A63
:10193000044614F04BF9F0EE409AB0EE680A14F049
:1019400045F969EE809AC4ED009AB0EE490A14F0A8
:101950003DF9F0EE409AB0EE680A14F083F969EEB2
:10196000809AB0EE480A14F07DF969EE809AB0EEE4
:10197000490A14F077F9B0EE40AAB0EE480A14F024
:1019800025F92AEE00AA79EECA9AC4ED019AB0EEC2
:10199000490A14F01BF9F0EE409AB0EE680A14F010
:1019A00061F969EE809AB0EE480A14F00FF969EE19
:1019B000809AB0EE490A14F055F9B0EE40AAB0EEA4
:1019C000480A14F04FF92AEE00AA79EE8A9AC4ED7B
:1019D000029AB0EE490A14F045F9F0EE409AB0EEE2
:1019E000680A14F0F3F869EE809AC4ED039AB0EE39
:1019F000490A14F037F9F0EE409AB0EE680A14F094
:101A000031F969EE809AB0EE480A14F02BF969EECC
:101A1000809AB0EE490A14F0D9F8B0EE40AAB0EEC0
:101A2000480A14F0D3F82AEE00AA79EE8A9AC4ED97
:101A3000049AB0EE490A14F015F9F0EE409AB0EEAF
:101A4000680A14F00FF969EE809AB0EE480A14F0B3
:101A5000BDF869EE809AB0EE490A14F0B7F8B0EE1E
:101A6000409AB0EE480A14F0FDF829EE009A79EE9B
:101A7000C99AC4ED059AB0EE680A14F0F3F8B1EE15
:101A8000400A84ED060AB0EE680A14F09FF8B0EE42
:101A9000409AB0EE480A14F0E5F829EE009A84ED79
:101AA000079AB0EE680A14F091F8F0EE408AB0EEB2
:101AB000480A14F08BF868EE808AC4ED088ABDEC01
:101AC000068B10BD10B583680268012B12D08368A5
:101AD000002B1FDCC468012C22D1D1F800C0416862
:101AE0005C1C846003EB4303194402EB8102C2F8DF
:101AF00000C010BD4368C468234443600024846070
:101B00000124C460022BE2DD084B094A4821094840
:101B10001EF052F8084B064A4B2106481EF04CF8BE
:101B2000064B034A4D2103481EF046F8DC630208C9
:101B30002C640208CC640208146502086C65020873
:101B400008B503464268C1680A440068032A03D105
:101B50009B68012B00D108BD024B034A7A21034840
:101B60001EF02AF88465020824660208CC64020884
:101B700030B597B005460C4603900023049301232B
:101B80000593069300230360079307A903A8FFF7B3
:101B900099FF0023089308A9FFF794FF03A8FFF714
:101BA000CFFF0D940E9402A8D4ED080A94ED050A17
:101BB00014F0A0F80F94D4ED050A109460EEA00A7A
:101BC0001194D4ED087A129467EEA77A70EEA70A02
:101BD000F5EEC00AF1EE10FA1FDBF1EEE00A139405
:101BE00094ED020A01A8B1EE400A14F083F81494AF
:101BF00015946846D4ED000A94ED010A14F07AF8C1
:101C0000099500230A9301230B930C93009B2B60EF
:101C100001A909A8FFF756FF02E0DFED0B0ADEE796
:101C200002A9FFF74FFF09E003A8FFF789FF14F0AF
:101C30009DF909A8FFF784FF14F098F909A8FFF7A8
:101C40007FFF284617B030BD0000000010B50446E5
:101C5000806803F063FF0223E371FD2363710023B7
:101C6000E370A3706370237110BD10B50446406922
:101C700002F09CF9A06804F057F8FD23637100237B
:101C8000E370A3706370237194F82230032B05D0A6
:101C9000E06804F0FDFA0023E37110BD204601F076
:101CA00065F9F5E710B5044690F8C430012B04D06F
:101CB00093B9022380F8C43002E0002380F8C430D6
:101CC0000121A06904F090FB0221204606F0EAFA07
:101CD000032011F026F910BD022BF1D1012380F869
:101CE000C430EDE7C379022B40F0978010B52DED9D
:101CF000028B044690F8C430022B3BD0012B54D009
:101D0000002B6DD0606902F0F5FBDFED448A9FED9A
:101D1000448AF0EE680AB0EE480A0521606902F0D4
:101D20001CFBF0EE680AB0EE480A0721606902F079
:101D300014FBF0EE680AB0EE480A0421606902F074
:101D40000CFB606902F0D6FBF7EE000A9FED350A46
:101D50000021606902F001FBF7EE000AB3EE040A0D
:101D60000221606902F0F9FA606902F0C3FBBDEC80
:101D7000028B10BD9FED298AF0EE480AB2EE0E0AE2
:101D80000621406902F0E9FAF0EE480AB2EE0E0AC6
:101D90000321606902F0E1FAF7EE000A9FED220AE2
:101DA0000121606902F0D9FAACE79FED1C8AF0EEE0
:101DB000480AB2EE0E0A0621406902F0CEFAF0EEB1
:101DC000480AB2EE0E0A0321606902F0C6FAF7EE85
:101DD000000A9FED150A0121606902F0BEFA91E741
:101DE000DFED0E8A9FED0E8AF0EE680AB0EE480A2B
:101DF0000621406902F0B1FAF0EE680AB0EE480A36
:101E00000321606902F0A9FAF7EE000A9FED070AC4
:101E10000121606902F0A1FA74E770479A99193EAE
:101E2000000000000000C8430000704200008C4227
:101E3000C379022B00D0704710B504460221C06957
:101E400001F08AF9DFED1C0A9FED1C0A042160698C
:101E500002F083FA606902F04DFB94F8C4303BB1A4
:101E6000013BDBB2012B0BD9606902F043FB12E0AE
:101E7000F7EE000A9FED120A606902F0B9F9F3E784
:101E8000F7EE000A9FED0E0A606902F0B1F9EBE788
:101E9000012011F046F8606902F04EFA40B90221C3
:101EA000E06901F09BF918B9E379022BF0D002E068
:101EB000606902F07BF810BD9A99193E000000009D
:101EC00000001643C379022B00D0704710B50446BA
:101ED0000221C06901F082F900B110BDDFED140AE2
:101EE0009FED140A606902F083F9606902F002FB59
:101EF0000221E06901F072F968B9E379022BECD1B3
:101F0000DFED0B0AB7EE000A606902F071F91920E3
:101F100011F007F8ECE7606902F048F8E06901F0B9
:101F20003EF9032107F074FC0A2010F0FAFFD4E711
:101F30009A99993E00004843C379022B00D070471C
:101F400010B50446DFED0B0ABAEE080A0421406919
:101F500002F003FA606902F0CDFAF7EE000A9FED95
:101F6000060A0221606902F0F8F9606902F0C2FA1B
:101F700010BD00BF9A99193E0000A84238B5C37938
:101F8000022B30D1054690F8C430CBB1013BDBB217
:101F9000012B1DD9686902F0ADFA0024B4F5C87FA1
:101FA0001ED2EB79022B1ED10134F7EE000ABFEEF0
:101FB000000A686902F01CF9052010F0B2FFEDE795
:101FC000F7EE000A9FED080A406902F011F9E1E717
:101FD000F7EE000A9FED050A406902F009F9D9E71A
:101FE000686901F0E3FF38BD00005CC30000C8C2AF
:101FF000C379022B00D0704710B52DED028B04463B
:102000000021806904F0F0F99FED1C8AF0EE480A87
:10201000B9EE000A0421606902F09FF9DFED188A29
:10202000F0EE480AB0EE680A0321606902F095F903
:10203000F0EE480AB0EE680A0621606902F08DF9F8
:102040009FED108AF0EE480AB3EE040A022160699F
:1020500002F083F9606902F04DFA606901F0D8FF7F
:10206000F0EE480A9FED080A0121606902F075F957
:10207000606902F03FFABDEC028B10BD9A99193EDF
:1020800000000000CDCC4C3F00008C4210B504464F
:10209000002106F0C9FA0021204606F003F910BD20
:1020A00010B50446204606F0D1F968B9204606F07E
:1020B000E3F970B9204606F0D4F90028F2D00121E6
:1020C000E06901F049F803E00221E06901F044F819
:1020D00010BD0021E06901F03FF8F9E710B52DEDE2
:1020E000028B0446DFED248A9FED248AF0EE680A15
:1020F000B0EE480A0621406902F02FF9F0EE680AB6
:10210000B0EE480A0721606902F027F9606902F021
:10211000F1F9F0EE680AB0EE480A0321606902F0B6
:102120001CF9F0EE680AB0EE480A0421606902F07A
:1021300014F9F0EE680AB0EE480A0521606902F071
:102140000CF9606902F0D6F99FED0D8AF0EE480AAD
:102150009FED0C0A0021606902F0FFF8F0EE480ADA
:102160009FED090A0121606902F0F7F8606902F049
:10217000C1F9BDEC028B10BDCDCCCC3D0000000000
:10218000CDCC4C3F0000FA4300008C4210B52DED41
:10219000068B0446DFED478ADFED479AF0EE680ACA
:1021A000B0EE690A0021406902F0D7F8F0EE680A43
:1021B0009FED420A0121606902F0CFF89FED409A3D
:1021C000F0EE680AB0EE490A0221606902F0C5F833
:1021D000606902F08FF99FED3B8AF0EE480AB3EE9A
:1021E0000E0A0621606902F0B8F89FED37AAF0EEFA
:1021F000480AB0EE4A0A0721606902F0AEF8606949
:1022000002F078F9F0EE480AB1EE040A04216069A0
:1022100002F0A3F8F0EE480AB0EE490A0321606923
:1022200002F09BF8F0EE480AB0EE4A0A0521606918
:1022300002F093F8606902F05DF9F0EE680AB0EE22
:10224000690A0021606902F088F8F0EE680A9FEDE3
:102250001F0A0121606902F080F8F0EE680AB0EE12
:10226000490A0221606902F078F8606902F042F9D7
:10227000F0EE480A9FED160A0121606902F06DF840
:10228000606902F037F90221204606F063FD002163
:10229000E06900F06AFFE06900F081FF012107F0CA
:1022A000B7FA606990ED550A012101F0EDF9BDEC36
:1022B000068B10BDCDCC4C3F0000A54300008C42E6
:1022C0000000B442CDCCCC3D0000000000006643CD
:1022D0000000964310B52DED068B0446DFED4B8ACA
:1022E0009FED4BAAF0EE680AB0EE4A0A0021406961
:1022F00002F033F8F0EE680A9FED460A01216069AA
:1023000002F02BF8DFED449AF0EE680AB0EE690AAD
:102310000221606902F021F89FED408A9FED409A0A
:10232000F0EE480AB0EE490A0421606902F015F89F
:10233000606902F0DFF8F0EE480ABBEE0E0A0621F3
:10234000606902F00AF8F0EE480AB0EE490A072187
:10235000606902F002F8606902F0CCF8F0EE480A19
:10236000B1EE040A0421606901F0F7FFF0EE480ABB
:102370009FED2C0A0321606901F0EFFFF0EE480A9F
:10238000B0EE490A0521606901F0E7FF606902F0DB
:10239000B1F8F0EE680AB0EE4A0A0021606901F077
:1023A000DCFFF0EE680A9FED200A0121606901F070
:1023B000D4FFF0EE680AB0EE690A0221606901F00C
:1023C000CCFF606902F096F8F0EE480A9FED170A1C
:1023D0000121606901F0C1FF606902F08BF8022100
:1023E000204606F0B7FC0121E06900F0BEFEE0697E
:1023F00000F0D5FE012107F00BFA606990ED550A57
:10240000012101F041F9BDEC068B10BDCDCC4C3F54
:102410000000A54300008C420000B442CDCCCC3D6E
:10242000000000000000B4C2000048C2000020C349
:1024300038B504460221C06900F0D0FE00B138BDB5
:102440000221E06900F088FEE06900F0BAFE05466E
:1024500010F1030FF3D0204606F002F940F6C41045
:1024600010F05FFD606902F09FF8022010F059FD46
:102470007DB92046FFF78AFE2046FFF72FFE204653
:1024800000F0A0F9C82010F04CFD606902F0A4F83B
:10249000D5E72046FFF71EFFEEE770B50646FFF7CB
:1024A000FFFD304600F0E4FB0BF0CAF904460125BD
:1024B0000BF0C6F904F54873834208D9012010F0E7
:1024C00030FD07F015FD0028F2D00025F0E705B932
:1024D00070BD3046FFF7ACFFFAE738B5044602217D
:1024E000C06900F042FE236900259D70204605F07A
:1024F000DEFE2946A06903F077FF204600F036FD96
:10250000032010F00EFD38BD10B50446B2EE040AEB
:10251000C06803F0EBFD0021A06903F065FFA3682C
:10252000002283F8B623032010F0FBFC10BD00004E
:10253000C379022B00D0704710B52DED028B0446F5
:10254000DFED248A9FED248AF0EE680AB0EE480A97
:102550000421406901F001FFF0EE680AB0EE480A7C
:102560000521606901F0F9FE606901F0C3FFF0EE3A
:10257000680AB0EE480A0621606901F0EEFEF0EE4E
:10258000680AB0EE480A0721606901F0E6FE60695A
:1025900001F0B0FF9FED118AF0EE480A9FED100A9E
:1025A0000021606901F0D9FEF0EE480A9FED0D0AA6
:1025B0000121606901F0D1FEF0EE480AB3EE040A91
:1025C0000221606901F0C9FE606901F093FFBDEC72
:1025D000028B10BDCDCCCC3D00000000CDCC4C3FDB
:1025E0000000FA4300008C42C379022B00D07047F0
:1025F00010B52DED028B04469FED168AF0EE480AC9
:102600009FED150A0421406901F0A7FEF0EE480A8B
:102610009FED120A0721606901F09FFE606901F0D9
:1026200069FF9FED0F8AF0EE480A9FED0E0A002128
:10263000606901F092FEF0EE480A9FED0B0A02215C
:10264000606901F08AFE606901F054FFBDEC028B05
:1026500010BD00BFCDCCCC3D0000B6420000B4425E
:10266000CDCC4C3F000034440000B4C2C379022BEF
:1026700000D0704710B52DED028B04469FED188AEF
:10268000F0EE480A9FED170A0321406901F065FE4C
:10269000606901F02FFF0221E06900F05DFDF0EEBE
:1026A000480A9FED110A0221606901F056FE64207C
:1026B00010F037FC606901F03FFE40B90221E0698B
:1026C00000F08CFD18B9012010F02BFCF2E76069D6
:1026D00090ED560A022100F0D7FFBDEC028B10BD31
:1026E000CDCCCC3D00000000000034C3C379022BE8
:1026F00000D0704710B52DED028B04469FED278A60
:10270000F0EE480A9FED260A0221406901F025FEFD
:10271000606901F0EFFEF0EE480A9FED220A002109
:10272000606901F01AFE606901F0E4FEDFED1E8AC7
:102730009FED1E8AF0EE680AB0EE480A0321606938
:1027400001F00BFEF0EE680AB0EE480A0521606960
:1027500001F003FE606901F0CDFEF0EE680AB0EE14
:10276000480A0421606901F0F8FDF0EE680AB0EE55
:10277000480A0721606901F0F0FD606901F0BAFEC6
:10278000E06900F011FD6071B0F1FF3F02D0BDECD7
:10279000028B10BD02236371F9E700BFCDCC4C3F23
:1027A0000000484300000244CDCCCC3D00000000B6
:1027B00008B58368012283F8B623002105F034FFB1
:1027C00008BD0000C379022B00D0704710B52DED75
:1027D000028B0446406901F0E7FEDFED2C8A9FED95
:1027E0002C8AF0EE680AB0EE480A0521606901F013
:1027F000B4FD606901F07EFEF0EE680AB0EE480AB2
:102800000721606901F0A9FDF0EE680AB0EE480A00
:102810000421606901F0A1FD606901F06BFEF0EE3A
:10282000680AB0EE480A0321606901F096FDDFED09
:10283000190AB0EE480A0621606901F08EFD606950
:1028400001F058FEF7EE000A9FED130A00216069BF
:1028500001F083FDF7EE000A9FED100A0121606987
:1028600001F07BFDF7EE000AB3EE040A0221606975
:1028700001F073FD606901F03DFE642010F051FB32
:10288000606901F0A9FEBDEC028B10BD9A99193E5A
:1028900000000000CDCC4C3E0000C84300008C423C
:1028A000C379022B00D0704710B52DED028B044682
:1028B000406901F079FEDFED2B8A9FED2B8AF0EE67
:1028C000680AB0EE480A0521606901F046FD6069BA
:1028D00001F010FEF0EE680AB0EE480A06216069C9
:1028E00001F03BFDF0EE680AB0EE480A0321606992
:1028F00001F033FD606901F0FDFDF0EE680AB0EE15
:10290000480A0721606901F028FDF0EE680A9FED92
:10291000170A0421606901F020FD606901F0EAFDF9
:10292000F7EE000A9FED120A0021606901F015FD23
:10293000F7EE000A9FED0F0A0121606901F00DFD1D
:10294000F7EE000AB0EE480A0221606901F005FDC9
:10295000606901F0CFFD606901F03EFEBDEC028BC5
:1029600010BD00BF9A99193E000000000000B4425B
:102970000080094400008C42C379022B00D07047CC
:1029800010B52DED048B0446B0EE408A406901F08D
:102990000BFEF7EE000A9FED430A0021606901F08B
:1029A000DCFCF7EE000A9FED400A0121606901F0AE
:1029B000D4FCF7EE000A9FED3D0A0221606901F0A8
:1029C000CCFC606901F096FDDFED398A9FED399A04
:1029D000F0EE680AB0EE490A0521606901F0BDFC1D
:1029E000606901F087FDF0EE680AB3EE060A062181
:1029F000606901F0B2FCF0EE680A9FED2F0A032136
:102A0000606901F0AAFC606901F074FDF0EE680AEB
:102A1000B8EE080A0421606901F09FFCF0EE680A34
:102A2000B0EE490A0721606901F097FC606901F086
:102A300061FD606990ED730AF7EE000A30EE080A56
:102A4000002101F08AFC6069F7EE000A90ED740A3B
:102A5000012101F082FC606901F04CFD0021E06978
:102A600000F07AFB642010F05CFAF7EE000A9FEDAC
:102A7000130A0221606901F070FC606901F03AFDFF
:102A80000021204606F066F9606901F08FFA022104
:102A9000E06900F06AFB606901F09EFDBDEC048B0B
:102AA00010BD00BF0000AB4300005C430000964334
:102AB0009A99193E000000000000C24200007042D6
:102AC000C379022B00D0704710B52DED048B04465E
:102AD000B0EE408A406901F067FDF7EE000A9FED15
:102AE000430A0021606901F038FCF7EE000A9FED0F
:102AF000400A0121606901F030FCF7EE000A9FED09
:102B00003D0A0221606901F028FC606901F0F2FCD5
:102B1000DFED398A9FED399AF0EE680AB0EE490A86
:102B20000521606901F019FC606901F0E3FCF0EE39
:102B3000680ABBEE060A0621606901F00EFCF0EEA1
:102B4000680A9FED2F0A0321606901F006FC6069A5
:102B500001F0D0FCF0EE680AB0EE490A0721606986
:102B600001F0FBFBF0EE680AB8EE080A0421606988
:102B700001F0F3FB606901F0BDFC606990ED730A40
:102B8000F7EE000A30EE080A002101F0E6FB60696A
:102B9000F7EE000A90ED7C0A012101F0DEFB60698E
:102BA00001F0A8FC0121E06900F0D6FA642010F0E1
:102BB000B8F9F7EE000A9FED130A0221606901F0EF
:102BC000CCFB606901F096FC0121204606F0C2F8BA
:102BD000606901F0EBF90221E06900F0C6FA606972
:102BE00001F0FAFCBDEC048B10BD00BF0000AB434C
:102BF0000000A0C2000048439A99193E000000005E
:102C00000000C2C200007042C379022B00D070479E
:102C100010B50446C06900F0C2FA06F0F7FD0328BB
:102C200004D0042810D1B2EE040A01E09FED0E0A90
:102C300094F90530022B0AD06BB1012B0FD04FF461
:102C40007A7010F06EF910BD9FED080AF0E720468B
:102C5000FFF726FEF3E72046FFF78EFEEFE720465C
:102C6000FFF72EFFEBE700BF000000800000000030
:102C7000C379022B00D0704710B50446002180694B
:102C800003F0B2FB606901F08FFC032010F049F9FA
:102C90002046FFF7B9FFE36993F870301BB1606914
:102CA00001F09AFC10BD2046FFF78CFDF7E700000D
:102CB000C379012B40F0E98010B52DED028B04465D
:102CC0000369D3EDB27AF5EEC07AF1EE10FA43DD86
:102CD00093EDAF0AD3EDB00ADFED6C7A70EEE70A40
:102CE000DFED6B7A30EE670A806803F057F8E06832
:102CF00003F0A2FADFED670A9FED670A0021606921
:102D000001F041FB23699FED658AF0EE480A93EDDF
:102D1000B40A0521606901F020FB2369F0EE480A3E
:102D200093EDB20A0321606901F017FB2369F0EE0D
:102D3000480A93EDB30A0421606901F00EFB606953
:102D400001F0D8FB4FF4FA7010F0EBF8E379012BA7
:102D500015D0BDEC028B10BD93EDAF0AD3EDB00AD8
:102D6000DFED4F7A70EEA70ADFED497A30EE670AA1
:102D7000806803F013F8E06803F074FABAE760695A
:102D8000DFED440A90ED7D0A022101F0E6FA606968
:102D9000DFED440A90ED7B0A002101F0DEFA2369A1
:102DA0000122DA704FF47A7010F0BBF8E379012B4E
:102DB000CFD1606990ED540A002100F065FC606994
:102DC00090ED560A022100F05FFC642010F0A9F893
:102DD0002369DFED300A93EDAF0A0021606901F04D
:102DE000D2FA6069D0ED577AF5EEC07AF1EE10FABA
:102DF0003ED4236993EDB00ADFED260ADFED2A7A8F
:102E000030EE670A012101F0BEFA2369DFED210AE5
:102E100093EDB10A0221606901F0B5FA606901F031
:102E200069FB23690022DA70E379012B91D12369D0
:102E30009FED1A8AF0EE480A93EDB40A0521606905
:102E400001F08BFA2369F0EE480A93EDB20A0321F0
:102E5000606901F082FA2369F0EE480A93EDB30A43
:102E60000421606901F079FA606901F043FB70E7C1
:102E7000236993EDB00ADFED070ADFED0C7A30EE3F
:102E8000270A012101F07FFABFE770470000704276
:102E90000000DC439A99193F00007043CDCC4C3EB2
:102EA0000000B4429A99993E0000A0420000C84236
:102EB00038B5044603690122DA704FF47A7010F0D5
:102EC00030F82369D3ED9D7AF5EE407AF1EE10FAF1
:102ED0000DD1D3ED9E7AF5EE407AF1EE10FA06D1DF
:102EE000D3ED9F7AF5EE407AF1EE10FA22D000256C
:102EF000DD702369DFED100A93ED9F0A02216069FE
:102F000001F041FA2369DFED0D0A93ED9D0A294690
:102F1000606901F038FA2369DFED090A93ED9E0A32
:102F20000121606901F02FFA606901F0E3FA642081
:102F30000FF0F7FF38BD00BFCDCC4C3F9A99193F39
:102F4000CECCCC3EC379012B00D0704710B50446DF
:102F5000F6EE000A9FED040A406902F051F860693C
:102F600001F0C8FA10BD00BF0000664308B500219B
:102F7000C171806903F038FA08BD0123C37170473D
:102F80000B88A0F882304B88A0F884308B88A0F89A
:102F90008630704710B52DED028B0446DFED168AA2
:102FA0009FED168AF0EE680AB0EE480A203004F071
:102FB00085FFF0EE680AB0EE480A04F13C0004F028
:102FC0007DFFDFED0F0A9FED0F0A04F1580004F0BA
:102FD00075FF002104F1740006F016FC002384F84C
:102FE0007830012284F8752084F8763084F87730C0
:102FF0002046BDEC028B10BD00C0F3440040E74406
:103000000080F2440000F04408B50248FFF7C2FF18
:1030100008BD00BF8412002070B582B004460D4682
:1030200016461A460823009300F17903FEF778F953
:10303000069B0093034B324629462046FEF7B6F91D
:1030400002B070BD812F000810B50446B0F884307E
:1030500000EE103AB8EE400A203004F03DFFB4F81C
:10306000863000EE103AB8EE400A04F13C0004F05D
:1030700033FFB4F8823000EE103AB8EE400A04F1A3
:10308000580004F029FF10BD10B5044690F87530C3
:1030900073B1002380F87630203004F077FF04F11C
:1030A0003C0004F073FF04F1580004F06FFF10BD02
:1030B000012380F87630203004F06BFF04F13C00EF
:1030C00004F067FF04F1580004F063FFEFE700002D
:1030D00010B504460F21064B18680FF0C3FF18B156
:1030E000012384F8753010BD002384F87530FAE7A9
:1030F0007C4F002070B506460024254601E00134CF
:1031000064B2022C0BDCC4EBC400800020303044DD
:1031100004F042FF0028F2D00135EDB2EFE786F867
:10312000785070BD08B590F86E1090F8792061F372
:10313000000280F8792090F83610D2B261F3410293
:1031400080F8792090F85210D2B261F3820280F8B0
:103150007920FEF7EDF808BD08B5C1EBC101890083
:103160002031084404F01AFF08BD70B506460C462D
:10317000CD00C1EBC1039B002033184404F011FFC4
:103180002D1B06EB8505012385F83730022C00D076
:1031900070BD002106F1740006F03AFBF8E77430C8
:1031A000704790F87800704790F838302BB190F85D
:1031B000543023B14FF0FF3070470020704701209A
:1031C000704790F838303BB990F854300BB101207B
:1031D00070476FF00200704700207047C1EBC101DB
:1031E00000EB810090F83800704710B5044610F0ED
:1031F00061F994F86E3013B194F8703073B194F8AB
:10320000363013B194F838307BB194F8523013B1A2
:1032100094F8543083B110F06FF910BD04F15800E8
:1032200004F0C2FE10F068F9F7E704F1200004F0A2
:10323000BBFE10F061F9F0E704F13C0004F0B4FECD
:1032400010F05AF9E9E70000054B1B791BB1012387
:1032500080F877307047002380F87730704700BFE0
:10326000341F002090F87700704708B5FFF7CCFEB8
:1032700008BD0000012300F8083C0B784A7802F0F2
:10328000030243EA022307EE903AF8EE677A9FEDD5
:103290002D7A77EE877AC0ED0A7A4A788B7803F038
:1032A0000F039B0143EA920307EE903AF8EE677A28
:1032B0009FED257A77EEC77AC0ED0B7A8A78CB78C6
:1032C00003F03F031B0143EA121307EE903AF8EEB6
:1032D000677A9FED1E7A77EEC77AC0ED0C7A0A798D
:1032E0004B7903F07F035B0043EAD2135BB207EE36
:1032F000903AF8EEE77AC0ED107A4A798B795B0064
:1033000043EAD21343F308031BB207EE903AF8EEF8
:10331000E77AC0ED0F7ACA780B7903F07F039B0040
:1033200043EA921343F308031BB207EE903AF8EE18
:10333000E77AC0ED0E7A064B5A6C42639B6C43648D
:10334000704700BF000048430000C8430000164318
:10335000381C002010B52DED028B04469FED278A06
:10336000F0EE480AB0EE000AFEF7CCFAF0EE480A9A
:10337000B0EE000A04F12000FEF7C4FAF0EE480AAD
:10338000B0EE000A04F14000FEF7BCFA9FED1C8A83
:10339000F0EE480AB0EE000A04F16000FEF7B2FA5F
:1033A000F0EE480AB0EE000A04F18000FEF7AAFA37
:1033B000F0EE480AB0EE000A04F1A000FEF7A2FA0F
:1033C000F0EE480AB0EE000A04F1C000FEF79AFAE7
:1033D000F0EE480AB0EE000A04F1E000FEF792FABF
:1033E000002384F8213184F82331012284F8242138
:1033F000A4F826312046BDEC028B10BD9A99993E67
:10340000CDCCCC3D08B50248FFF7A4FF08BD00BFF6
:1034100018130020164BC0F8CC31164BC0F8EC3115
:10342000154BC0F8D031154BC0F8F031144BC0F833
:10343000D431144BC0F8F431134AC0F8E421134BD3
:10344000C0F804320021C0F8E811C0F80832104971
:10345000C0F8E0110F49C0F800120F49C0F8D811A8
:103460000E49C0F8F811C0F8FC31C0F8DC217047F3
:103470000000484300E083440080C5C30040054489
:10348000000043C3000025440000B4C20000B44261
:1034900000007FC300007F43000020C300002043E2
:1034A00010B504460F21064B18680FF0DBFD18B964
:1034B000012384F8223110BD002384F82231FAE779
:1034C000744F002090F8210170470000054B1B79D4
:1034D0001BB1012380F821317047002380F821318E
:1034E000704700BF341F002010B504460FF0E2FF04
:1034F00004F59470FDF71CFF0FF0FEFF10BD0000F7
:1035000010B504460FF0D6FF94ED5C0ADFED437A68
:1035100030EE670A30EE000A1AF0C8FBBCEEC00AB3
:10352000B4F8483110EE102A62F30A03A4F84831C7
:1035300094ED5D0ADFED3A7A30EE270A30EE000AAC
:103540001AF0B4FBBCEEC00AD4F8483110EE102AD1
:1035500062F3D523C4F8483194ED5E0ADFED317A89
:1035600030EE270A30EE000A1AF0A0FBFCEEC07A1B
:1035700017EE903AC3F30901B4F84A2102F03F0272
:1035800042EA8112A4F84A21C3F3802394F84C2123
:1035900022F00102134384F84C3194ED610A30EEBD
:1035A000000A1AF083FBBDEEC00A10EE103A43F396
:1035B0000903B4F84E2163F30D12A4F84E2194EDE3
:1035C000620A30EE000A1AF071FBBDEEC00A10EE7E
:1035D000103A43F30803D4F84C2163F3D322C4F820
:1035E0004C2194ED600A30EE000A1AF05FFBBDEE4C
:1035F000C00A10EE103A43F30903B4F84C2163F308
:103600004A02A4F84C21D4F88C21074B1A63D4F851
:103610007C215A630FF070FF10BD00BF00004843CB
:103620000000C84300001643381C002001F140038D
:1036300000EB830383ED000A012924D9CB1EDBB202
:10364000012B20D901F1720300EB8303D3ED017A42
:10365000F4EEC07AF1EE10FA05DB403100EB8100A8
:10366000C0ED007A704701F17A0300EB8303D3EDDC
:10367000017AF4EEC07AF1EE10FA04D8403100EB92
:103680008100C0ED007A704738B52DED028B0446FD
:103690000D4601F1720300EB830393ED018AB4EE52
:1036A000C08AF1EE10FA0CDA01F17A0300EB830321
:1036B00093ED018AB4EEC08AF1EE10FA01D9B0EEB2
:1036C000408AB0EE480A29462046FFF7AFFFB0EE29
:1036D000480A04EB451022F033FEBDEC028B38BDE6
:1036E00010B52DED028B04469FED190A0021FFF75E
:1036F000CBFF9FED180A01212046FFF7C5FFB3EE6F
:10370000040A02212046FFF7BFFF9FED138AB0EEA7
:10371000480A03212046FFF7B7FFB0EE480A04210C
:103720002046FFF7B1FFB0EE480A05212046FFF71B
:10373000ABFFB0EE480A06212046FFF7A5FFB0EE2A
:10374000480A07212046FFF79FFFBDEC028B10BD02
:103750000000C84300008C4200000000F0B583B0B8
:1037600004460D461E4600F59477089B00930A4BCD
:103770003846FDF71BFE0823009304F5A473324678
:1037800029463846FDF7CCFD2046FFF743FE20468C
:10379000FFF7A6FF03B0F0BD7532000810B52DEDA0
:1037A000048B044690ED5B0A9FED179A20EE090A00
:1037B000DFED168A80EE280A12F008FADFED147A9F
:1037C00020EE278ADFED137A38EE278A84ED648AAB
:1037D000D4ED577A67EE897A87EEA80A84ED670AF6
:1037E00012F0F4F928EE008A84ED668A94ED648A7A
:1037F00094ED670A12F036FA28EE008A84ED658AA5
:10380000BDEC048B10BD00BFDB0F4940000034430A
:103810000000434300004843D0ED667AC0ED737A60
:103820009FED037A77EE877AC0ED7B7A704700BF11
:1038300000002544D0ED657AC0ED747A9FED037ADF
:1038400077EE877AC0ED7C7A704700BF00000A43AC
:1038500010B50446D0ED3F7A9FED0D7A67EE877A7A
:103860009FED0C0A87EE800A12F0FCF9DFED0A7A70
:1038700020EE270ADFED097A77EEC07AC4ED757A7B
:103880009FED077A77EE877AC4ED7D7A10BD00BF91
:10389000DB0F4940000034430000434300000000B8
:1038A00000002544D0ED377A9FED057A77EEC76AA0
:1038B000C0ED766A77EE877AC0ED7E7A704700BFFA
:1038C0000000A442D0ED3F7A9FED047A77EEC77AEC
:1038D000C0ED777A80ED7F7A704700BF0000B44278
:1038E00010B50446FFF798FF2046FFF7A3FF2046D8
:1038F000FFF7AEFF2046FFF7D5FF2046FFF7E2FFB8
:1039000010BD000010B50446D0ED407A90ED7B0A62
:10391000F4EEC07AF1EE10FA1DDC90ED730AF4EECD
:10392000C07AF1EE10FA2DD5012380F8233190ED05
:10393000687A77EEC07A37EE277A80ED687A22F0DF
:1039400007FDD4F8CC31C4F800312360114B0022BC
:10395000C3F8682510BD012380F8233190ED687A03
:1039600077EEC07A37EE277A80ED687A22F0F0FCA5
:10397000D4F8EC31C4F800312360064B0022C3F8C0
:103980006825E7E7B0EE670A22F0E2FCD4F80031E0
:103990002360DFE72415002010B50446D0ED417AFE
:1039A00090ED7C0AF4EEC07AF1EE10FA1EDC90ED98
:1039B000740AF4EEC07AF1EE10FA2FD5012380F8E4
:1039C000233190ED697A77EEC07A37EE277A80ED71
:1039D000697A203022F0BCFCD4F8D031C4F804312C
:1039E0002362134B0022C3F8682510BD012380F821
:1039F000233190ED697A77EEC07A37EE277A80ED41
:103A0000697A203022F0A4FCD4F8F031C4F80431F3
:103A10002362074B0022C3F86825E6E7B0EE670A89
:103A2000203022F095FCD4F804312362DDE700BF9A
:103A30002415002038B501F1400300EB8303D3EDDA
:103A4000007A01F1720300EB830393ED017AF4EE47
:103A5000C77AF1EE10FA13D801F1400300EB8303AB
:103A600083ED007A01F1400500EB850500EB411480
:103A700095ED000A204622F06BFC2B68236038BDD0
:103A800001F17A0300EB830393ED017AF4EEC77A38
:103A9000F1EE10FAE6DB01F1400300EB830383ED66
:103AA000007ADFE710B50446D0ED437A90ED7E0A48
:103AB000F4EEC07AF1EE10FA19DC90ED760AF4EE2D
:103AC000C07AF1EE10FA23D590ED467A77EEC07AFF
:103AD00037EE277A80ED467A80ED430A603022F097
:103AE00037FCD4F8D831C4F80C31236610BD90ED02
:103AF000467A77EEC07A37EE277A80ED467A6030E4
:103B000022F026FCD4F8F831C4F80C312366EDE736
:103B1000B0EE670A603022F01BFCD4F80C3123664B
:103B2000E4E710B50446D0ED447A90ED7F0AF4EE58
:103B3000C07AF1EE10FA1ADC90ED770AF4EEC07A52
:103B4000F1EE10FA25D590ED477A77EEC07A37EE90
:103B5000277A80ED477A80ED440A803022F0F8FB26
:103B6000D4F8DC31C4F81031C4F8803010BD90EDC9
:103B7000477A77EEC07A37EE277A80ED477A803041
:103B800022F0E6FBD4F8FC31C4F81031C4F88030E0
:103B9000ECE7B0EE670A803022F0DAFBD4F810319F
:103BA000C4F88030E2E7000038B5054600240CE098
:103BB000032C46D0042C48D021462846FFF73AFF74
:103BC000244801F089FF0134E4B2072C41D8214B8D
:103BD000D3EDFD7AF5EE407AF1EE10FAE8D1D3EDAF
:103BE000FE7AF5EE407AF1EE10FAE1D193EDFF0A9C
:103BF00011F0CEFFDFED187AB4EEE70AF1EE10FA1D
:103C0000D6D595F82431002BD2D0042C14D8DFE877
:103C100004F00307130B0F002846FFF773FED2E7EB
:103C20002846FFF7B9FECEE72846FFF73BFFCAE775
:103C30002846FFF776FFC6E721462846FFF7FAFE3B
:103C4000C1E72846FFF72EFFBDE72846FFF769FFCB
:103C5000B9E738BD241500200AD7233C38B50546FE
:103C6000002405E005EB441022F056FB0134E4B2D9
:103C7000072CF7D938BD80ED5C0AD0ED737AF4EEED
:103C8000C07AF1EE10FA02DBC0ED5C7A7047D0ED3D
:103C90007B7AF4EEC07AF1EE10FA01D8C0ED5C7ACE
:103CA000704780ED5D0AD0ED747AF4EEC07AF1EEE3
:103CB00010FA02DBC0ED5D7A7047D0ED7C7AF4EE4D
:103CC000C07AF1EE10FA01D8C0ED5D7A704780ED50
:103CD0005E0AD0ED757AF4EEC07AF1EE10FA02DBEE
:103CE000C0ED5E7A7047D0ED7D7AF4EEC07AF1EEE9
:103CF00010FA01D8C0ED5E7A704780ED620AD0ED0F
:103D0000777AF4EEC07AF1EE10FA02DBC0ED627A57
:103D10007047D0ED7F7AF4EEC07AF1EE10FA01D858
:103D2000C0ED627A704780ED610AD0ED787AF4EEEA
:103D3000C07AF1EE10FA02DBC0ED617A7047D0ED87
:103D4000807AF4EEC07AF1EE10FA01D8C0ED617A13
:103D5000704780ED600AD0ED617A90ED767AF4EEEE
:103D6000C77AF1EE10FA02D880ED617A704790EDD3
:103D70007E7AF4EEC77AF1EE10FA01DB80ED617A1B
:103D8000704780ED630AD0ED7A7AF4EEC07AF1EEF6
:103D900010FA02DBC0ED637A7047D0ED827AF4EE60
:103DA000C07AF1EE10FA01D8C0ED637A704780ED69
:103DB0005F0AD0ED797AF4EEC07AF1EE10FA02DB08
:103DC000C0ED5F7A7047D0ED817AF4EEC07AF1EE03
:103DD00010FA01D8C0ED5F7A704710B5044690ED37
:103DE000070AFFF748FF94ED0F0A2046FFF759FF37
:103DF00094ED170A2046FFF76AFF94ED270A204644
:103E0000FFF77BFF94ED2F0A2046FFF78CFF94ED20
:103E10001F0A2046FFF79DFF94ED3F0A2046FFF75B
:103E2000B0FF94ED370A2046FFF7C1FF10BD10B573
:103E30000446FFF7B3FC2046FFF752FD2046FFF78C
:103E4000B3FE2046FFF70AFF2046FFF7C6FF2046D5
:103E5000FFF756FB10BD000038B52DED028B05466F
:103E60000C46F0EE408AB0EEC08ADFED4B7AB4EE3D
:103E7000E78AF1EE10FA10DD02292FD89FED470AEC
:103E8000F7EE007AB4EEE78AF1EE10FA01DD20EEEB
:103E9000080A05EB441022F04FFAF7EE007AB4EE70
:103EA000E78AF1EE10FA1CD9F7EE007AB4EEE78A51
:103EB000F1EE10FA25DD04F1400305EB8303D3EDA9
:103EC000007A88EE887A05EB4412D2ED046A27EE78
:103ED000267A77EE877AC3ED007A12E09FED300AFA
:103EE000CEE704F1400305EB8303D3ED007A05EB45
:103EF000441292ED047A27EE287A77EE877AC3EDA2
:103F0000007ADFED257AB4EEE78AF1EE10FA10DDE3
:103F1000022C2DD89FED230AF7EE007AB4EEE78A43
:103F2000F1EE10FA01DD20EE080A05EB441022F054
:103F300003FA012C19D9E31EDBB2012B15D904F1C8
:103F4000400305EB8303D3ED007A04F1720305EB24
:103F5000830393ED017AF4EEC77AF1EE10FA0AD8F2
:103F6000403405EB840484ED007ABDEC028B38BD4F
:103F70009FED0D0AD0E704F17A0305EB830393ED7F
:103F8000017AF4EEC77AF1EE10FAEEDB403405EB7D
:103F9000840585ED007AE8E717B7D1389A99993EFC
:103FA000CDCCCC3D6766E63E9A99193E10B50446E5
:103FB00090ED540A0021FFF767FB94ED550A0121AB
:103FC0002046FFF761FB94ED560A02212046FFF7D9
:103FD0005BFB94ED570A06212046FFF755FB94ED55
:103FE0005B0A07212046FFF74FFB94ED580A032197
:103FF0002046FFF749FB94ED5A0A04212046FFF7BB
:1040000043FB94ED590A05212046FFF73DFB10BD07
:1040100010B50446FFF7CAFF002384F823310023BC
:10402000C4F8A031C4F8A43110BDB0F8263141F273
:104030008732934201D9012070470133A0F826311D
:104040000020704701F1400300EB8303D3ED007AB9
:1040500037EE800A83ED000A012924D9CB1EDBB29A
:10406000012B20D901F1720300EB8303D3ED017A18
:10407000B4EEE70AF1EE10FA05D8403100EB81000A
:10408000C0ED007A704701F17A0300EB8303D3EDB2
:10409000017AB4EEE70AF1EE10FA04DB403100EBEE
:1040A0008100C0ED007A7047022900D9704730B511
:1040B0002DED088B8BB005460C46F0EE408AB0EE35
:1040C000608AB0EE41AA2422002101A81EF0D4F893
:1040D00095ED1F7ADFED447A87EE270A95ED277A72
:1040E00037EE287AC7EE270A95ED2F7A87EE271A42
:1040F000DFED3E7A01A821EE271A60EEA70A20EE36
:10410000270AFDF70CFC0AAB03EB840313ED090A45
:1041100020EE08BAE31C0AAA02EB830313ED097A26
:1041200067EE08AA063402EB840454ED097A27EE00
:10413000888A60EE0A9A27EE0A9A27EE8AAAF0EE9B
:10414000E97A17EE900AFCF79FF925A3D3E900233B
:10415000FCF782FC68BBF0EEC97A17EE900AFCF718
:1041600093F91FA3D3E90023FCF776FC38BBF0EEEC
:10417000CA7A17EE900AFCF787F919A3D3E900234E
:10418000FCF76AFC10BBB0EE4B0A00212846FFF793
:1041900059FFB0EE6A0A01212846FFF753FFB0EE3F
:1041A000480A02212846FFF74DFF0BB0BDEC088BF3
:1041B00030BDB0EE690A284622F0BEF8CBE7B0EE7B
:1041C000490A05F1200022F0B7F8D0E7B0EE4A0A1C
:1041D00005F1400022F0B0F8D5E700BFAFF3008052
:1041E000FCA9F1D24D62503F00003443DB0F49403F
:1041F00010B52DED068B8AB00446B0EE408AF0EE85
:10420000608A2422002101A81EF036F894ED377A46
:10421000DFED397A87EE270ADFED380A01A8B0EE24
:10422000601ADFED377A20EE270AFDF778FB9DED67
:10423000010A9DED047A67EE08AADDED077A27EE04
:1042400088AA60EE289A27EE289A67EEA88A20EEC0
:10425000080A00212046FFF7F5FEB0EE6A0A0121A8
:104260002046FFF7EFFEB0EE4A0A02212046FFF794
:10427000E9FEF0EEE97A17EE900AFCF705F91CA3C7
:10428000D3E90023FCF7E8FBD8B9F0EEC97A17EEC2
:10429000900AFCF7F9F816A3D3E90023FCF7DCFB3E
:1042A000A8B9F0EEE87A17EE900AFCF7EDF810A343
:1042B000D3E90023FCF7D0FB80B90AB0BDEC068B34
:1042C00010BDB0EE690A204622F036F8DDE7B0EE08
:1042D000490A04F1200022F02FF8E2E7B0EE680A64
:1042E00004F1400022F028F8E7E700BFAFF30080B8
:1042F000FCA9F1D24D62503F0000344300000000A1
:10430000DB0F494038B50546002405E005EB4410B5
:10431000FDF7FFFA0134E4B2072CF7D938BD38B500
:104320000546002405E005EB4410FDF7F5FA0134DD
:10433000E4B2072CF7D938BD38B505460024072C60
:1043400008D805EB441021F0E3FF034618B101340F
:10435000E4B2F4E70123184638BD38B52DED028BE1
:1043600004460D46B0EE408AB0EE600A00EB411004
:1043700021F0E2FFB0EE480A29462046FFF756F941
:10438000BDEC028B38BD38B505460C4601F1400343
:1043900000EB8303D3ED007A77EE807AC3ED007AE9
:1043A000B0EE600A00EB411021F0C6FF012C19D9D4
:1043B000E31EDBB2012B15D904F1400305EB8303A7
:1043C000D3ED007A04F1720305EB830393ED017AD8
:1043D000F4EEC77AF1EE10FA05D8403405EB840408
:1043E00084ED007A38BD04F17A0305EB830393ED85
:1043F000017AF4EEC77AF1EE10FAF3DB403405EB04
:10440000840585ED007AEDE710B52DED028B0446AD
:10441000B0EE408A603021F08FFFB0EE480A04F120
:10442000800021F089FFB0EE480A04F1A00021F0DD
:1044300083FFB0EE480A04F1C00021F07DFFB0EE2A
:10444000480A04F1E00021F077FFBDEC028B10BDBB
:1044500010B52DED028B0446B0EE408A21F06CFFC2
:10446000B0EE480A04F1200021F066FFB0EE480AE1
:1044700004F1400021F060FFBDEC028B10BD000094
:10448000D0ED077A9FED197A77EEC77AF0EEE77AEA
:10449000B0EE007AF4EEC77AF1EE10FA1FD5D0ED47
:1044A0000F7A9FED137A77EEC77AF0EEE77AB0EEE7
:1044B000007AF4EEC77AF1EE10FA12D5D0ED177A41
:1044C000B3EE047A77EEC77AF0EEE77AB0EE007AD0
:1044D000F4EEC77AF1EE10FA05D400207047002000
:1044E0007047002070470120704700BF0000C8439C
:1044F00000008C4238B504460A200EF012FD09F087
:104500009FF9054602E001200EF00BFD2046FFF763
:1045100013FF28B909F094F905F57A638342F2D2C2
:1045200009F08EF9054694F824311BB11D4B93F820
:10453000B633DBB90023C4F8A031C4F8A431194C58
:104540000023C4F86835204601F090FA204601F0B7
:10455000E5FA204601F0AEFA38BD09F071F905F52B
:104560007A638342E6D301200EF0DBFC2046FFF79E
:10457000E3FE0028F1D094ED680A11F009FBF7EE94
:10458000007AB4EEE70AF1EE10FAE6DC94ED690A7F
:1045900011F0FEFAF7EE007AB4EEE70AF1EE10FA47
:1045A000DBDCC7E72415002010B5002380F8243198
:1045B0000022C0F8A021C0F8A421064CC4F8683538
:1045C000204601F053FA204601F0A8FA204601F0F7
:1045D00071FA10BD24150020012380F824317047A2
:1045E00090F8220180F001007047D1ED007A37EE9B
:1045F000A76AD1ED015A35EEA55A91ED027A77EE10
:10460000074AD1ED036A26EE864A26EE853A66EE23
:10461000A46A27EE866A67EE852A67EEA47A25EEFD
:10462000855A65EEA45A27EE247A75EE073AF7EE1E
:10463000004A74EEE33AC0ED003A72EEE63AC0ED9D
:10464000033A73EE273AC0ED063A76EEA26AC0ED61
:10465000016A36EE077A34EEC77A80ED047A35EED9
:10466000C47A80ED077A77EEC37AC0ED027A34EE31
:10467000254A80ED054A36EE056A74EEC64AC0ED5D
:10468000084A704710B58AB0044601A8FFF7ADFF8D
:10469000A6460DF1040CBCE80F00AEE80F00BCE824
:1046A0000F00AEE80F00DCF80030CEF800302046F6
:1046B0000AB010BD032900D1704708B5024B034A68
:1046C000852103481BF078FA8C6602089C66020874
:1046D0000467020870B505460E461446FFF7EAFF68
:1046E0002146681CFFF7E6FF032E05D1002C03DBF3
:1046F000032C01D1284670BD024B034A47210348D1
:104700001BF05AFA48670208E0670208CC68020802
:1047100038B50446154600234360826003210C30FF
:10472000FFF7C8FF002D03DB022D01DC204638BD5A
:10473000024B034A782103481BF03EFA1069020835
:10474000B8690208D86A020830B583B004460D463D
:1047500001AB032211466846FFF7BCFF2A466946B3
:104760002046FFF7D5FF204603B030BD012900D118
:10477000704708B5024B034A852103481BF01CFA19
:104780008C660208146B020804670208F8B5044638
:104790000E4615461F46FFF78DFF2946601CFFF7A2
:1047A000E5FF3B686360032E05D1002D03DB012D7F
:1047B00001D12046F8BD034B034A472103481BF0B3
:1047C000FBF900BF486702087C6B0208CC6802084E
:1047D00010F00F0F00D1704708B5034B034A6D214D
:1047E00003481BF0E9F900BF706C0208606D020815
:1047F000EC6D020810B52DED048B0446D1ED037A63
:1048000092ED036A67EE868AD1ED006A92ED007A36
:1048100066EE875A78EEE58AD1ED015A92ED015A9B
:1048200065EE854A78EEE48AD1ED024A92ED024ABD
:1048300064EE843A78EEE38A67EE879A66EE263A6B
:1048400079EEA39A65EE843A79EEA39A65EE243A5E
:1048500079EEE39A27EE859A66EE253A39EE239AA9
:1048600067EE243A39EE239A66EE843A39EE639A7B
:1048700027EE848A26EE246A38EE068A66EE856A7A
:1048800038EE268A27EE257A38EE478AFFF7A0FF12
:10489000C4ED009A84ED019A84ED028AC4ED038A86
:1048A0002046BDEC048B10BD03681968426853684C
:1048B0000133926893420CD000234B60036819685F
:1048C0004268536802339268934205D000238B609C
:1048D00070474FF07E53F0E74FF07E53F7E708B58F
:1048E00003681A68436859689B68994204D000239A
:1048F0001360FFF7D9FF08BD4FF07E53F8E700B50E
:104900008BB04B6807938B680893059005AB0193B8
:1049100006AB02930392049001A8FFF7E0FF0BB0EF
:104920005DF804FB01B9704708B5034B034A8521C4
:1049300003481BF041F900BF8C660208306E020884
:104940000467020803681B684268126852685A606C
:1049500003681B684268126892689A60704708B5DD
:104960000268126843681B681B681360FFF7EAFF60
:1049700008BD00B587B00591049004AB009305AB6A
:104980000193029203906846FFF7E9FF07B05DF8D4
:1049900004FB0000F8B504460E4617461D4640F8D5
:1049A000041B1146FFF786FE2946601DFFF7DEFE59
:1049B0002EB1032F05D1002D03DB012D01D120469F
:1049C000F8BD034B034AB02103481BF0F5F800BFC4
:1049D000986E0208446F020804700208F8B5044695
:1049E0000F4616461D4602EB8301079B069A07EB0E
:1049F0008101FFF7CFFFA760E660294604F11000B0
:104A0000FFF790FF042363612046F8BD2DE9F041D4
:104A100082B0804616461F46089C099D0195009469
:104A2000FFF7DCFF032C15D1012D13D1002E17DB6E
:104A3000002C15DBC4F10404B44211DB002F0FDBA2
:104A4000002D0DDBC5F10105BD4209DB404602B07A
:104A5000BDE8F081054B064A902106481BF0ACF8F2
:104A6000054B034A922103481BF0A6F84070020848
:104A7000C0700208D86A0208C071020803681A6888
:104A80004368D3ED017ADB6893ED017A67EE877AAC
:104A9000C2ED017A03681A684368D3ED017ADB68D6
:104AA00093ED027A67EE877AC2ED027A704708B515
:104AB000026812684368D3ED017ADB6893ED007AEF
:104AC00067EE877AC2ED007AFFF7D8FF08BD0000D5
:104AD000042900D1704708B5024B034A85210348D9
:104AE0001BF06AF88C66020850720208046702081C
:104AF00010B504460B6840F8043B0121FFF736FE71
:104B00000421601DFFF7E4FF204610BD70B58AB098
:104B1000044615468B680793CB68099304AE01469B
:104B20003046FFF7E5FF009606AB0193029503942C
:104B30006846FFF7BCFF0AB070BD30B52DED028BA3
:104B400093B004460D4691ED038AF6EE007A28EE06
:104B5000278AB0EE480A19F021F8109484ED030A70
:104B6000B0EE480A19F05AF88DED0D0A0DAB01228E
:104B700003210EA8FFF70AFE0F9B0493059501235E
:104B800001930323009300231A46214607A8FFF749
:104B90003DFF11AA02A907A8FFF7B8FF204613B0EE
:104BA000BDEC028B30BD2DE9F0418AB00546884648
:104BB00017460DF10F0424F00F0404F110063046DF
:104BC000FFF706FE41463046FFF7B7FF2046FFF7E6
:104BD000FFFD39462046FFF7B0FF22463146284602
:104BE000FFF708FE28460AB0BDE8F081F0B587B0AF
:104BF00005460E4617460DF10F0424F00F0420461B
:104C0000FFF7E6FD39462046FFF797FF224631467B
:104C10002846FFF7EFFD284607B0F0BD70B52DED33
:104C2000048BA6B004460DF10F0525F00F05D0ED5D
:104C3000587A9FED259A87EE898ADFED248A28EE3F
:104C4000288A02210FA8FFF77FFD23AA0FA90BA82E
:104C5000FFF755FE8DED0E8AD4ED5A7A87EE898ADC
:104C600028EE288A012117A8FFF76EFD24AA17A9AC
:104C700013A8FFF744FE8DED168A05F1100613AA5E
:104C80000BA93046FFF78FFFD4ED597A87EE898A5A
:104C900028EE288A00211FA8FFF756FD25AA1FA984
:104CA0001BA8FFF72CFE8DED1E8A1BAA3146284655
:104CB000FFF79CFF294604F5D470FFF7E3FC26B00C
:104CC000BDEC048B70BD00BF00003443DB0F4940D6
:104CD000F8B504460E4617461D4640F8041B11461B
:104CE000FFF744FD2946601DFFF7E4FC2EB1012FBC
:104CF00005D1002D03DB032D01D12046F8BD034B68
:104D0000034AB02103481AF057FF00BF986E02080B
:104D1000B87202080470020870B504460E461546C3
:104D20000323012201EB8501FFF7D2FFA660E560B6
:104D30000023236101236361204670BD38B5054619
:104D40001446FFF7E9FF002C03DB022C01DC2846A8
:104D500038BD034B034A782103481AF02DFF00BFEA
:104D60001069020884730208D86A0208F8B504467C
:104D70000E4617461D4640F8041B1146FFF79AFCE5
:104D80002946601DFFF7F2FC2EB1032F05D1002D3F
:104D900003DB012D01D12046F8BD034B034AB021AE
:104DA00003481AF009FF00BF986E020860740208F9
:104DB0000470020870B504460E46154602EB420127
:104DC0000123032206EB8101FFF7D0FFA660002339
:104DD000E360294604F11000FFF7A4FD032363619B
:104DE000204670BD38B505461446FFF7E3FF002C9A
:104DF00002DB01DC284638BD024B034A7821034818
:104E00001AF0DAFE106902082C750208D86A020846
:104E1000436801EB410C944403EB8C03D3ED007A1F
:104E2000C36802EB4202114403EB810393ED000AD5
:104E300020EE270A704710B52DED028B04460022A4
:104E40000121FFF7E5FFB0EE408A00220221204653
:104E5000FFF7DEFF30EE080ABDEC028B10BD38B55F
:104E60002DED028B04460D4600221146FFF7D0FFC0
:104E7000B0EE408A29462046FFF7DDFF30EE080AF3
:104E8000BDEC028B38BD10B504460B6840F8043BFE
:104E90000121FFF76BFC0321601DFFF70BFC20468F
:104EA00010BD10B504460B6840F8043B0321FFF722
:104EB00001FC0121601DFFF759FC204610BD38B5EB
:104EC00004460D460430FFF7ECFF05F1180104F12C
:104ED0000C00FFF7D8FF204638BD10B586B00C4651
:104EE000014601A8FFF7EBFF214601A8FFF7B7FF36
:104EF00006B010BD10B5A0B004460A46016813A85C
:104F0000FFF71CFF0DF1340E0DF14C0CBCE80F0047
:104F1000AEE80F009CE803008EE803000022616801
:104F200019A8FFF75FFFEC460DF1340EBEE80F0045
:104F3000ACE80F009EE803008CE803000DF1180EAA
:104F40000DF1640CBCE80F00AEE80F009CE8030014
:104F50008EE803001FA96846FFF7BFFF20B010BD11
:104F600010B503681C6804EB81044068FFF7C2FFBA
:104F700084ED000A10BD10B504460121FFF7F0FFD3
:104F800002212046FFF7ECFF10BD10B504460021BA
:104F9000FFF7E6FF2046FFF7EEFF10BD10B58AB021
:104FA0000C6805944B6806930794089303230993B0
:104FB000049004AB009305AB019302920390684602
:104FC000FFF7E3FF0AB010BD10B584B004460A68CD
:104FD0004B680292039301AA02A9FFF7DFFF204664
:104FE00004B010BD10B584B004466846FFF7ECFF6E
:104FF00003AA69462046FFF7BCFC04B010BD0000C0
:1050000010B52DED048B8EB00446F0EE408AB0EE64
:10501000608ACDF80CD000230493012305930693F6
:105020004FF07E5300930023079307A903A8FCF7D2
:1050300049FD0023089308A9FCF744FD03A8FCF7E9
:105040007FFD04F5D4730993CDF828D009A96846EB
:10505000FFF7C8FFCDF82CD09DED000A394B83ED4A
:10506000000ACDF830D0384B019A1A60CDF834D010
:10507000364B029A1A6020EE289A10F089FD20EE35
:10508000080ADFED337AB4EEE70AF1EE10FA3BDC02
:10509000DFED2F0AB0EE490A00212046FFF773F931
:1050A000294B93ED000A20EE289A10F071FD28EEAE
:1050B000000ADFED277AB4EEE70AF1EE10FA2BDCF6
:1050C000DFED230AB0EE490A01212046FFF75BF924
:1050D0001E4B93ED000A60EE288A10F059FD28EE71
:1050E000000ADFED1B7AB4EEE70AF1EE10FA1BDCE2
:1050F000DFED170AB0EE680A02212046FFF743F9F8
:105100000EB0BDEC048B10BD0E4B93ED000A10F0F9
:105110003FFD68EE000ABDE70B4B93ED000A10F06F
:1051200037FD68EE000ACDE7084B93ED000A10F05A
:105130002FFD68EE000ADDE703A8FCF701FD10F083
:1051400015FF00BF14130020101300200C130020C3
:105150000AD7233C08B5FEF755F908BD0B8807EEC2
:10516000903AA0F5AA73F8EE677AC3ED007A4B88FF
:1051700007EE903AA0F5A870F8EE677AC0ED007AD5
:105180007047000070B504460646032504E030462B
:1051900003F0A8FE013DEC36002DF8DA012284F878
:1051A000B023002384F8B13384F8B22384F8B933F0
:1051B00084F8B33384F8B42304F204400C4901604A
:1051C00004F580604FF07C55056004F58160016056
:1051D000C4F8683584F8B83384F8B62304F28C52E6
:1051E0000449116084F8B73384F8B533204670BDA4
:1051F0003333733F9A99993F08B50248FFF7C2FFCE
:1052000008BD00BF24150020034600F56C729342D0
:1052100004D093F8330010B1EC33F8E70120704765
:10522000F8B50646044600F56C77002508E02046F0
:1052300003F0EAFF204603F09CFF0544EDB2EC3496
:10524000BC42F4D125B1012386F8B0332846F8BD1D
:10525000002386F8B033F9E790F8B103704790F86F
:10526000B203704790F8B0331BB1002380F8B1331C
:105270007047012380F8B1337047034600F56C7125
:1052800000E0EC338B4208D093F83020002AF8D1AC
:1052900093F833000028F4D100E0012070470000AB
:1052A000064B1B7933B190F8B6331BB1012380F85C
:1052B000B2337047002380F8B2337047341F0020A8
:1052C00010B504461E21064B18680DF0CBFE18B130
:1052D000012384F8B43310BD002384F8B433FAE713
:1052E000904F002090F8B403704700F21443D3EDC0
:1052F000007A37EE800A83ED000AFBEE0E7AB4EEF8
:10530000E70AF1EE10FA02D8C3ED007A7047F3EE27
:105310000E7AB4EEE70AF1EE10FA03DB00F2144065
:10532000C0ED007A704780EDF30A00F58163D3ED9C
:10533000007AB1EE677AB4EEC07AF1EE10FA02DBD1
:1053400080EDF37A7047F4EEC07AF1EE10FA01D8EE
:10535000C0EDF37A704780EDFA0A00F58163D3ED72
:10536000007AB1EE677AB4EEC07AF1EE10FA02DBA1
:1053700080EDFA7A7047F4EEC07AF1EE10FA01D8B7
:10538000C0EDFA7A7047000010B5044680EDFD0AC2
:105390009FED0E0A00F57D7010F003FC94EDFD7A90
:1053A00004F58163D3ED007AF1EE676AB4EEE67A34
:1053B000F1EE10FA02D8C4EDFD6A10BDB4EEE77A42
:1053C000F1EE10FAF9DBC4EDFD7AF6E70AD7A33B5C
:1053D00010B5044680EDFE0A9FED0E0A00F57E70C2
:1053E00010F0DFFB94EDFE7A04F58163D3ED007AD3
:1053F000F1EE676AB4EEE67AF1EE10FA02D8C4ED87
:10540000FE6A10BDB4EEE77AF1EE10FAF9DBC4EDF6
:10541000FE7AF6E70AD7A33B10B5044680EDFF0AF3
:105420009FED0E0A00F57F7010F0BBFB94EDFF7A44
:1054300004F58163D3ED007AF1EE676AB4EEE67AA3
:10544000F1EE10FA02D8C4EDFF6A10BDB4EEE77AAF
:10545000F1EE10FAF9DBC4EDFF7AF6E70AD7A33BC9
:1054600010B52DED028B044690F8B433002B5CD1BF
:1054700000F21C4393ED008A00F58363D3ED008AAC
:1054800038EE680ADFED497A80EE270A18F0B0FAA4
:1054900004F22C4383ED000A78EE280AF6EE007A37
:1054A00060EEA70A04F22443C3ED000A94F8B53372
:1054B000002B6DD004F5846393ED000ADFED3C7A98
:1054C00070EE277AF4EEE70AF1EE10FA40D904F212
:1054D0002C4393ED000A9FED377AC0EE077A04F56E
:1054E0008563C3ED007A10F053FBDFED337AB4EE41
:1054F000E70AF1EE10FA13D804F5836393ED007A0E
:10550000DFED2E7AB4EEE77AF1EE10FA2ED404F243
:105510001C4393ED007AB4EEE77AF1EE10FA25D44D
:1055200004F59664002323600FE000F595620023E4
:10553000136000F2AC42136000F59662136000F253
:105540002C42136000F585642360BDEC028B10BD16
:1055500004F58660FCF7D4F8B1EE400A04F59563D3
:1055600083ED000A2046FFF70FFFB0E704F58563DF
:10557000DFED130A93ED000A04F26C40FCF7C0F86B
:1055800004F5966383ED000A2046FFF745FFDCE74C
:1055900004F595620023136004F2AC42136004F535
:1055A0009662136004F585642360CEE70000324301
:1055B00000009643DB0FC9400000484200002F4422
:1055C0000000000000F5A863144A1A6000230DE0F3
:1055D00003F5A47200EB82021049516003F5A27238
:1055E00000EB82020E4911600133DBB2032BEFD9CD
:1055F00000F5A7630B4A1A6000F23C530A4A1A608E
:1056000000F244520023136000F20C52136000F5C4
:10561000A1600360054B1360704700BF6666D6400B
:105620000AD7233C17B7513A17B7513900007043D6
:10563000F0B52DED068B83B00446DFED7F8A9FED3C
:105640007F8A7F4F7F4B1B68019300260096F0EE08
:10565000680AB0EE480A3B460122114603F046FCB8
:10566000794B1B6801930096F0EE680AB0EE480A89
:105670003B460122022104F1EC0003F037FC734B9E
:105680001B68019301250095F0EE680AB0EE480A08
:105690003B462A46032104F5EC7003F027FC6C4BD3
:1056A0001B6801930095F0EE680AB0EE480A3B468D
:1056B0002A46042104F5317003F018FC9FED658A39
:1056C0009FED659ADFED658A3146B0EE482AF0EE2F
:1056D000491AB0EE481AF0EE680A9FED610A04F12B
:1056E000B00020F011FE9FED5FAADFED5F9A31461A
:1056F000B0EE482AF0EE491AB0EE481AF0EE4A0A27
:10570000B0EE690A04F5CE7020F0FEFD3146B0EE31
:10571000482AF0EE491AB0EE481AF0EE4A0AB0EE06
:10572000690A04F5227020F0EFFD3146B0EE482AF8
:10573000F0EE491AB0EE481AF0EE680A9FED4B0AF7
:1057400004F55D7020F0E0FD9FED499A2946B0EE2A
:10575000482AF0EE491AB0EE481AF0EE680AB1EEA7
:10576000040A04F1740020F0CFFD2946B0EE482A67
:10577000F0EE491AB0EE481AF0EE680AB1EE040AEB
:1057800004F5B07020F0C0FD2946B0EE482AF0EED6
:10579000491AB0EE481AF0EE680AB1EE040A04F5B0
:1057A000137020F0B1FD2946B0EE482AF0EE491AF8
:1057B000B0EE481AF0EE680AB1EE040A04F54E7035
:1057C00020F0A2FDDFED2B8AB0EE482AF6EE001A9B
:1057D000B0EE681AF0EE680AB0EE480A04F56F7091
:1057E000FCF724F8B0EE482AF6EE001AB0EE681A7C
:1057F000F0EE680AB0EE480A04F57670FCF716F889
:10580000F0EE483AB0EE483AF0EE482AB1EE002AFF
:10581000F1EE041A9FED181AF2EE040A9FED170A32
:1058200004F2B440FBF7D6FF2046FFF7CBFE03B0EF
:10583000BDEC068BF0BD00BF9A99993E0000FA447A
:10584000344F0020A84F0020A44F0020A04F00207C
:105850009C4F0020000000009A99193E0AD7233C73
:10586000295C8F3D6F12033BCDCCCC3DEC51B83D54
:105870003333733F0AD7A33B6666E6403333333F87
:1058800010B52DED028B044600F20C53D3ED008AC7
:10589000002318E0EC2202FB034292ED2A7A03F582
:1058A000A47104EB8101D1ED017AB0EEC77A67EE05
:1058B000877A92ED157AB0EEC77A67EE877A38EE7E
:1058C000278A0133DBB2032BE4D904F24C53514A4B
:1058D0001A6004F5AA6383ED008A04F25453C3ED01
:1058E000008A28EE080ADFED4C7A68EEA77ADFED31
:1058F0004B6A87EEA67A30EE070A18F057F830EEBA
:10590000480A9FED477AC0EE077AB7EE007AF4EEC8
:10591000C77AF1EE10FA11DDF7EE007AB7EE007AF1
:10592000F4EEC77AF1EE10FA01DBF7EE007A04F537
:10593000A964C4ED007ABDEC028B10BDB0EEC88A3C
:105940009FED387AB4EEC78AF1EE10FA59DD04F50E
:10595000A16393ED006A36EE686A04F2445393ED56
:10596000007A04F5A762D2ED006A66EE866A37EE29
:10597000267A83ED007AFEEE006AB4EEE67AF1EE66
:1059800010FA03D8C3ED006A00231AE0F1EE0C6AA6
:10599000B4EEE67AF1EE10FAF6DB04F24453C3ED0E
:1059A000006AF1E7F3EE066AB4EEE67AF1EE10FA79
:1059B00005DB03F5A47104EB8101C1ED016A01333C
:1059C000DBB2032B1DD803F5A47204EB820292ED27
:1059D000017A04F23C50D0ED006A66EE866A37EE3A
:1059E000267A82ED017AF0EE086AB4EEE67AF1EEFC
:1059F00010FAD7D803F5A47204EB8202C2ED016A53
:105A0000DDE7F5EEC07AF1EE10FA87D8DFED067A21
:105A10008DE700BFBD378635BD3786360000A04212
:105A2000BD370636DC2434280000000000F2645044
:105A300090ED000ADFED027A80EE270A704700BF82
:105A40000000B44310B5044603F058FE04F264535A
:105A50009FED030A83ED000A2046FFF7DDFC10BD31
:105A600000000000012380F8B933704738B50546BF
:105A70000DF020FD2846FFF7E5FF05F20C4200235C
:105A8000136005F58262136005F2144213602C4620
:105A900005F56C7509E00023A4F85030204603F0AA
:105AA0004DFB204603F060FBEC34AC42F3D10DF02B
:105AB00023FD38BD002380F8B933704700F204435A
:105AC00083ED001A00F5816383ED000A00F5806024
:105AD000C0ED000A7047000010B52DED028B0446A2
:105AE0009FED0D8AB0EE480A03F06EFBB0EE480A57
