:020000040800F2
:1000000000000320AD39000831300008333000080B
:100010003530000837300008393000080000000093
:100020000000000000000000000000000192000835
:100030003B30000800000000A1920008B18C0008CD
:10004000FD390008FD390008FD390008FD390008B8
:10005000FD390008FD390008FD390008FD390008A8
:10006000FD390008FD390008FD3900083D30000861
:100070004D300008FD3900085D3000086D30000883
:10008000FD3900087D300008FD3900088D3000087A
:100090009D300008FD390008FD390008FD390008D1
:1000A000FD390008FD390008FD390008FD39000858
:1000B000FD390008FD390008FD390008FD39000848
:1000C000FD390008FD390008FD390008FD39000838
:1000D000FD390008AD300008FD390008BD300008CA
:1000E000FD390008FD390008FD390008FD39000818
:1000F000FD390008FD390008FD390008FD39000808
:10010000FD390008FD390008FD390008FD390008F7
:10011000FD390008FD390008FD390008CD30000820
:10012000FD390008DD300008ED300008FD30000822
:100130000D310008FD390008FD3900081D310008A7
:10014000FD3900082D310008FD3900083D31000857
:10015000FD3900084D310008FD3900085D31000807
:10016000FD390008FD390008FD390008FD39000897
:10017000FD390008FD390008FD39000800000000C5
:10018000FD390008FD3900086D3100087D31000897
:10019000FD3900088D310008FD390008FD390008DF
:0C01A0000000000000000000FD39000815
:1001C00081F0004102E000BF83F0004330B54FEA08
:1001D00041044FEA430594EA050F08BF90EA020F75
:1001E0001FBF54EA000C55EA020C7FEA645C7FEA08
:1001F000655C00F0E2804FEA5454D4EB5555B8BF2B
:100200006D420CDD2C4480EA020281EA030382EA9B
:10021000000083EA010180EA020281EA0303362D2D
:1002200088BF30BD11F0004F4FEA01314FF4801C00
:100230004CEA113102D0404261EB410113F0004F12
:100240004FEA03334CEA133302D0524263EB4303C9
:1002500094EA050F00F0A780A4F10104D5F1200E67
:100260000DDB02FA0EFC22FA05F2801841F10001C2
:1002700003FA0EF2801843FA05F359410EE0A5F196
:1002800020050EF1200E012A03FA0EFC28BF4CF0C7
:10029000020C43FA05F3C01851EBE37101F000457D
:1002A00007D54FF0000EDCF1000C7EEB00006EEB8A
:1002B0000101B1F5801F1BD3B1F5001F0CD3490814
:1002C0005FEA30004FEA3C0C04F101044FEA44526B
:1002D00012F5800F80F09A80BCF1004F08BF5FEAF2
:1002E000500C50F1000041EB045141EA050130BDD2
:1002F0005FEA4C0C404141EB0101013C28BFB1F5E4
:10030000801FE9D291F0000F04BF01460020B1FA2E
:1003100081F308BF2033A3F10B03B3F120020CDA01
:100320000C3208DD02F1140CC2F10C0201FA0CF0DF
:1003300021FA02F10CE002F11402D8BFC2F1200C44
:1003400001FA02F120FA0CFCDCBF41EA0C019040FA
:10035000E41AA2BF01EB0451294330BD6FEA040443
:100360001F3C1CDA0C340EDC04F11404C4F120022E
:1003700020FA04F001FA02F340EA030021FA04F340
:1003800045EA030130BDC4F10C04C4F1200220FA97
:1003900002F001FA04F340EA0300294630BD21FAD5
:1003A00004F0294630BD94F0000F83F4801306BF9B
:1003B00081F480110134013D4EE77FEA645C18BF8F
:1003C0007FEA655C29D094EA050F08BF90EA020F26
:1003D00005D054EA000C04BF1946104630BD91EA1E
:1003E000030F1EBF0021002030BD5FEA545C05D121
:1003F0004000494128BF41F0004130BD14F5800460
:100400003CBF01F5801130BD01F0004545F0FE41D3
:1004100041F470014FF0000030BD7FEA645C1ABF08
:10042000194610467FEA655C1CBF0B46024650EA3F
:10043000013406BF52EA033591EA030F41F400216B
:1004400030BD00BF90F0000F04BF0021704730B5F1
:100450004FF4806404F132044FF000054FF00001C6
:1004600050E700BF90F0000F04BF0021704730B587
:100470004FF4806404F1320410F0004548BF40425C
:100480004FF000013EE700BF42004FEAE2014FEAB1
:1004900031014FEA02701FBF12F07F4393F07F4F8C
:1004A00081F06051704732F07F4208BF704793F08F
:1004B0007F4F04BF41F40021704730B54FF46074A2
:1004C00001F0004521F000411CE700BF50EA0102A5
:1004D00008BF704730B54FF000050AE050EA01024E
:1004E00008BF704730B511F0004502D5404261EBBE
:1004F00041014FF4806404F132045FEA915C3FF4FF
:10050000D8AE4FF003025FEADC0C18BF03325FEA9B
:10051000DC0C18BF033202EBDC02C2F1200300FA4C
:1005200003FC20FA02F001FA03FE40EA0E0021FA71
:1005300002F11444BDE600BF70B54FF0FF0C4CF45F
:10054000E06C1CEA11541DBF1CEA135594EA0C0F11
:1005500095EA0C0F00F0DEF82C4481EA030621EA4C
:100560004C5123EA4C5350EA013518BF52EA033587
:1005700041F4801143F4801338D0A0FB02CE4FF039
:100580000005E1FB02E506F00042E0FB03E54FF069
:100590000006E1FB03569CF0000F18BF4EF0010E61
:1005A000A4F1FF04B6F5007F64F5407404D25FEA5D
:1005B0004E0E6D4146EB060642EAC62141EA555110
:1005C0004FEAC52040EA5E504FEACE2EB4F1FD0C52
:1005D00088BFBCF5E06F1ED8BEF1004F08BF5FEAD0
:1005E000500E50F1000041EB045170BD06F0004682
:1005F00046EA010140EA020081EA0301B4EB5C042F
:10060000C2BFD4EB0C0541EA045170BD41F4801126
:100610004FF0000E013C00F3AB8014F1360FDEBF4B
:10062000002001F0004170BDC4F10004203C35DA27
:100630000C341BDC04F11404C4F1200500FA05F3AA
:1006400020FA04F001FA05F240EA020001F000424B
:1006500021F0004110EBD37021FA04F642EB0601C1
:100660005EEA430E08BF20EAD37070BDC4F10C04EB
:10067000C4F1200500FA04F320FA05F001FA04F2AF
:1006800040EA020001F0004110EBD37041F100019B
:100690005EEA430E08BF20EAD37070BDC4F12005A6
:1006A00000FA05F24EEA020E20FA04F301FA05F20E
:1006B00043EA020321FA04F001F0004121FA04F2B6
:1006C00020EA020000EBD3705EEA430E08BF20EA86
:1006D000D37070BD94F0000F0FD101F000464000C0
:1006E00041EB010111F4801F08BF013CF7D041EA42
:1006F000060195F0000F18BF704703F00046520046
:1007000043EB030313F4801F08BF013DF7D043EA16
:100710000603704794EA0C0F0CEA135518BF95EACC
:100720000C0F0CD050EA410618BF52EA4306D1D153
:1007300081EA030101F000414FF0000070BD50EA72
:10074000410606BF1046194652EA430619D094EAFC
:100750000C0F02D150EA013613D195EA0C0F05D1E6
:1007600052EA03361CBF104619460AD181EA03013A
:1007700001F0004141F0FE4141F470014FF00000F2
:1007800070BD41F0FE4141F4780170BD70B54FF08D
:10079000FF0C4CF4E06C1CEA11541DBF1CEA13550D
:1007A00094EA0C0F95EA0C0F00F0A7F8A4EB0504EF
:1007B00081EA030E52EA03354FEA013100F08880E6
:1007C0004FEA03334FF0805545EA131343EA1263AF
:1007D0004FEA022245EA111545EA10654FEA002664
:1007E0000EF000419D4208BF964244F1FD0404F51D
:1007F000407402D25B084FEA3202B61A65EB030579
:100800005B084FEA32024FF480104FF4002CB6EB35
:10081000020E75EB030E22BFB61A754640EA0C00B5
:100820005B084FEA3202B6EB020E75EB030E22BFF5
:10083000B61A754640EA5C005B084FEA3202B6EB36
:10084000020E75EB030E22BFB61A754640EA9C00F5
:100850005B084FEA3202B6EB020E75EB030E22BFC5
:10086000B61A754640EADC0055EA060E18D04FEA83
:10087000051545EA16754FEA06164FEAC30343EA23
:1008800052734FEAC2025FEA1C1CC0D111F4801FF0
:100890000BD141EA00014FF000004FF0004CB6E7E9
:1008A00011F4801F04BF01430020B4F1FD0C88BF88
:1008B000BCF5E06F3FF6AFAEB5EB030C04BFB6EB93
:1008C000020C5FEA500C50F1000041EB045170BD86
:1008D0000EF0004E4EEA113114EB5C04C2BFD4EBB3
:1008E0000C0541EA045170BD41F480114FF0000E37
:1008F000013C90E645EA060E8DE60CEA135594EAB3
:100900000C0F08BF95EA0C0F3FF43BAF94EA0C0FB5
:100910000AD150EA01347FF434AF95EA0C0F7FF42A
:1009200025AF104619462CE795EA0C0F06D152EA7E
:1009300003353FF4FDAE1046194622E750EA410662
:1009400018BF52EA43067FF4C5AE50EA41047FF473
:100950000DAF52EA43057FF4EBAE12E74FF0FF3CD8
:1009600006E000BF4FF0010C02E000BF4FF0010CA9
:100970004DF804CD4FEA410C7FEA6C5C4FEA430C22
:1009800018BF7FEA6C5C1BD001B050EA410C0CBF71
:1009900052EA430C91EA030F02BF90EA020F0020D3
:1009A000704710F1000F91EA030F58BF994208BF3A
:1009B00090422CBFD8176FEAE37040F001007047F7
:1009C0004FEA410C7FEA6C5C02D150EA013C07D14E
:1009D0004FEA430C7FEA6C5CD6D152EA033CD3D099
:1009E0005DF8040B704700BF8446104662468C4693
:1009F0001946634600E000BF01B5FFF7B7FF0028C6
:100A000048BF10F1000F01BD4DF808EDFFF7F4FFEE
:100A10000CBF012000205DF808FB00BF4DF808ED79
:100A2000FFF7EAFF34BF012000205DF808FB00BF9C
:100A30004DF808EDFFF7E0FF94BF012000205DF8BE
:100A400008FB00BF4DF808EDFFF7CEFF94BF012073
:100A500000205DF808FB00BF4DF808EDFFF7C4FF6C
:100A600034BF012000205DF808FB00BF53B94AB92C
:100A7000002908BF00281CBF4FF0FF314FF0FF30A6
:100A800000F0E2B8ADF1080C6DE904CE12F06AF99D
:100A9000DDF804E0DDE9022304B0704700F1340121
:100AA00091E838009C46A6464CF8045D90E8FF0F9C
:100AB000E54600BD90EC210B704700BF80EC210B98
:100AC000704700BF90EC200B704700BF80EC200BFC
:100AD000704700BFD0EC200B704700BFC0EC200B6C
:100AE000704700BFF0EC0201F0EC0211F0EC0221C3
:100AF000F0EC0231F0EC0241F0EC0251F0EC02615A
:100B0000F0EC0271F0EC0281F0EC0291F0EC02A149
:100B1000F0EC02B1F0EC02C1F0EC02D1F0EC02E139
:100B2000F0EC02F1704700BFE0EC0201E0EC0211D2
:100B3000E0EC0221E0EC0231E0EC0241E0EC025199
:100B4000E0EC0261E0EC0271E0EC0281E0EC029189
:100B5000E0EC02A1E0EC02B1E0EC02C1E0EC02D179
:100B6000E0EC02E1E0EC02F1704700BFB0FC018173
:100B7000B0FC0191B0FC01A1B0FC01B1704700BF15
:100B8000A0FC0181A0FC0191A0FC01A1A0FC01B18D
:100B9000704700BFEC4600B52DE900502DE9FF1F5E
:100BA0004FF000032DE90C0001A912F095FBDDF8D0
:100BB00040E012B0704700BFEC4600B52DE9005090
:100BC0002DE9FF1F4FF000032DE90C0001A912F0E1
:100BD000BFFBDDF840E012B0704700BFEC4600B547
:100BE0002DE900502DE9FF1F4FF000032DE90C0007
:100BF00001A912F0CFFBDDF840E012B0704700BF52
:100C0000EC4600B52DE900502DE9FF1F4FF0000321
:100C10002DE90C0001AB12F093FBDDF840E012B0BF
:100C2000704700BFEC4600B52DE900502DE9FF1FCD
:100C30004FF000032DE90C0001AA12F00BFCDDF8C7
:100C400040E012B0704700BF704700BF00000000D6
:100C50000000000000000000000000000000000094
:100C600002780B78012A28BF9A4240F0D8806DE9BB
:100C7000044540EA0104CDE902676FF0000C4FEA39
:100C800044721AB380EA010414F0070F6BD100F02C
:100C9000070420F0070004F0030521F007014FEAE4
:100CA000C505F0E8042314F0040FF1E804670CFA1A
:100CB00005F462EA040266EA04060BD063EA040360
:100CC000624667EA0407664604E000BFF0E80423D2
:100CD000F1E8046782FA4CF582EA0604A4FA8CF47F
:100CE0006CBB83FA4CF583EA0705A5FA8CF595B938
:100CF00050E9022351E9026782FA4CF582EA0604C0
:100D0000A4FA8CF483FA4CF583EA0705A5FA8CF56E
:100D10002543DBD09CB92DBAB5FA85F424F007043D
:100D200027FA04F1DDE9026723FA04F303F0FF0078
:100D300001F0FF01FDE80445A0EB0100704724BA73
:100D4000B4FA84F424F0070426FA04F1DDE902671A
:100D500022FA04F202F0FF0001F0FF01FDE8044571
:100D6000A0EB0100704714F0030F3CD110F0030416
:100D700028D150F8082B51F8083B82FA4CF582EA4A
:100D80000305A5FA8CF55DB950F8042C51F8043C24
:100D900082FA4CF582EA0305A5FA8CF5002DE8D01D
:100DA0002DBAB5FA85F424F0070423FA04F122FAE7
:100DB00004F202F0FF0001F0FF01FDE80445A0EBA2
:100DC000010070474FEAC40420F0030050F8082BDC
:100DD00021F0030151F8083B0CFA04F462EA040222
:100DE00063EA0403C9E710F003041DD0A1EB04017A
:100DF00020F00300E40750F8042B06D012D28B78C1
:100E00005FFAA2F4E41A06D12BB1CB785FFAB2F400
:100E1000E41A00D133B920465DF8104B7047A2EBBD
:100E20000300704701F1040150F8042BCC0721F0B6
:100E3000030151F8043B48D824D222F07F4482FABF
:100E40004CF594EA1325A5FA8CF50AD165B951F849
:100E5000043B84EA0204B4EB036F0ED150F8042B78
:100E6000EBE74FEA132355E035F07F454DD1087885
:100E7000FDE80445C0F1000070474FEA126203F03C
:100E8000FF0347E002EA1C4482FA4CF594EA13455A
:100E9000A5FA8CF50AD165B951F8043B84EA02043D
:100EA000B4EB034F0CD150F8042BEBE74FEA13439C
:100EB00030E015EA1C4528D10B884FEA124229E0A0
:100EC0004FEA124203EA1C4324E002F0FF0482FAD4
:100ED0004CF594EA1365A5FA8CF50AD165B951F879
:100EE000043B84EA0204B4EB032F09D150F8042B2D
:100EF000EBE74FEA13630DE015F0FF0F05D10B6828
:100F00004FEA122223F07F4304E04FF00000FDE897
:100F10000445704712BA1BBA82FA4CF482EA030401
:100F2000A4FA8CF5B5FA85F402FA04F203FA04F394
:100F30004FEA1260FDE80445A0EB1360704700BF64
:100F400001F0FF01102A2BDB10F0070F08D010F87A
:100F5000013B013A8B422DD010F0070F42B3F6D17E
:100F6000F0B441EA012141EA014122F007047FF097
:100F700000070023F0E80256083C85EA010586EAEE
:100F8000010685FA47F5A3FA87F586FA47F6A5FA2A
:100F900087F68EB9EED1F0BC01F0FF0102F0070236
:100FA00032B110F8013B013A83EA010313B1F8D1E1
:100FB0000020704701387047002D06BF35460338C2
:100FC000073815F0010F07D1013015F4807F02BFFB
:100FD000013015F4C03F0130F0BC0138704700BF4C
:100FE000844641EA000313F003036DD1403A41D334
:100FF00051F8043B40F8043B51F8043B40F8043BF3
:1010000051F8043B40F8043B51F8043B40F8043BE2
:1010100051F8043B40F8043B51F8043B40F8043BD2
:1010200051F8043B40F8043B51F8043B40F8043BC2
:1010300051F8043B40F8043B51F8043B40F8043BB2
:1010400051F8043B40F8043B51F8043B40F8043BA2
:1010500051F8043B40F8043B51F8043B40F8043B92
:1010600051F8043B40F8043B51F8043B40F8043B82
:10107000403ABDD2303211D351F8043B40F8043B22
:1010800051F8043B40F8043B51F8043B40F8043B62
:1010900051F8043B40F8043B103AEDD20C3205D332
:1010A00051F8043B40F8043B043AF9D2043208D02A
:1010B000D2071CBF11F8013B00F8013B01D30B889C
:1010C00003806046704700BF082A13D38B078DD07A
:1010D00010F003038AD0C3F10403D21ADB071CBF4C
:1010E00011F8013B00F8013B80D331F8023B20F8B6
:1010F000023B7BE7043AD9D3013A11F8013B00F8EF
:10110000013BF9D20B7803704B7843708B78837076
:101110006046704700000000000000000000000072
:1011200000000000000000000000000000000000BF
:1011300000000000000000000000000000000000AF
:1011400030B490F800F020F007016FF0000C10F0C0
:10115000070491F820F040F048804FF000046FF051
:101160000700D1E9002391F840F000F1080082FA6D
:101170004CF2A4FA8CF283FA4CF3A2FA8CF34BBB38
:10118000D1E9022382FA4CF200F10800A4FA8CF2B1
:1011900083FA4CF3A2FA8CF3E3B9D1E9042382FA7F
:1011A0004CF200F10800A4FA8CF283FA4CF3A2FA94
:1011B0008CF37BB9D1E9062301F1200182FA4CF2CC
:1011C00000F10800A4FA8CF283FA4CF3A2FA8CF333
:1011D000002BC6D0002A04BF04301A4612BAB2FA55
:1011E00082F200EBD20030BC7047D1E9002304F05A
:1011F0000305C4F100004FEAC50514F0040F91F88F
:1012000040F00CFA05F562EA05021CBF63EA05032B
:1012100062464FF00004AAE74FEA410C7FEA6C5C9B
:1012200002D150EA013C0AD14FEA430C7FEA6C5CE0
:1012300002D152EA033C02D14FF0000070474FF058
:10124000010070474FEA410212F5001215D211D584
:101250006FF47873B3EB625212D94FEAC12343F0B3
:10126000004343EA505311F0004F23FA02F018BF35
:10127000404270474FF00000704750EA013005D1FE
:1012800011F0004008BF6FF0004070474FF00000C1
:10129000704700BF0348044B834202D0034B03B1A5
:1012A00018477047040800200408002000000000D0
:1012B0000548064B1B1AD90F01EBA301491002D0B8
:1012C000034B03B1184770470408002004080020AE
:1012D0000000000010B5064C237843B9FFF7DAFF91
:1012E000044B13B10448AFF300800123237010BDF9
:1012F000080800200000000060A5010808B5054BA3
:101300001BB105490548AFF30080BDE80840FFF771
:10131000CFBF00BF000000000C08002060A501083E
:1013200008B5064B834204D0054B186807F0F4FD5E
:1013300008BD044B186807F0EFFDF9E7E410002042
:101340000C1100201011002008B5FFF7E9FF08BDBF
:1013500008B5FFF7E5FF08BD08B5FFF7E1FF08BDD9
:101360002DE9F0410446884616461D46069F07F0C3
:1013700059FF236813B16368002B44D1C4F800807F
:1013800006B1666005B1656107B1A761264B984556
:101390003CD00123254A13611846254A52F82320E0
:1013A000372A25D8C3EBC30102EBC101214D45F813
:1013B000214002F0030101F10E061C4D6E616668CA
:1013C0001D4C01EB830144F821600132184941F8BA
:1013D00023201A0104EB0313A25852012A605A6811
:1013E00052016A609A685201AA60DB685B01EB6097
:1013F0000F4B53F8203003F00303032B0AD007F000
:1014000033FFBDE8F08107F02FFFFAE70023074A1A
:101410001361C1E70401084901EB001300220A51DE
:101420005A609A60DA60EAE7E410002000000020C9
:10143000440800204C0800202408002010B58AB081
:101440000B4A13680133136001AB03AA002102F0B9
:10145000EBFB099A074B53F822403CB1A06928B135
:1014600007F05AFD636901A9204698470AB010BDEC
:10147000881902204C08002010B58AB001AB03AADD
:10148000012102F0D1FB099B3833074A52F823406F
:101490003CB1A06928B107F03FFD636901A920466E
:1014A00098470AB010BD00BF4C08002008B50623BD
:1014B00005F025FB012007F094FC08BD08B505F0F8
:1014C00085FB012007F08DFC08BD10B5044605F032
:1014D000B5FDE36B1A68136823F00803136010BDB1
:1014E00010B50446084611462388002210E07346D2
:1014F0000CF1010CBCF1070F09D84FEA430E13F4AD
:10150000004FF4D08EF4815383F00103F0E70132F1
:101510008A4206D210F802C083EA0C234FF0000C76
:10152000E8E7238010BD10B5044600F002F820461D
:1015300010BD002280F82E207047000010B582B048
:10154000044608464FF0010C84F82CC04FF0000C04
:1015500084F82DC084F82FC09DF810C084F800C016
:1015600084ED0C0AC4ED0D0A01F1FF3CBCF1070F3C
:1015700035D81946606084F8382002F1FF3C5FFAE4
:101580008CFCBCF1010F15D9032A26D1294B9942B5
:101590003BD0042847D8284BE36140F2FF13A361F6
:1015A000059B0093254B00F5017204F11000FFF735
:1015B000D7FE12E01F4B994213D004281FD8204BAE
:1015C000E3614FF40073A361059B00931B4B00F58F
:1015D000007204F11000FFF7C3FE0823236202B07B
:1015E00010BD042805D8174BE3614FF40073A361C5
:1015F000EAE7154BE36140F2FF13A361E4E70E4B0A
:10160000E36140F2FF13A361DEE7042805D80E4B27
:10161000E36140F2FF13A361C2E70C4BE36140F2C8
:10162000FF23A361BCE70A4BE36140F2FF23A36100
:10163000B6E700BFE4100020140A0020ED170008F0
:101640001C0A0020340A00202C0A0020240A002052
:101650000C0A002000B50A784B7843EA022343873E
:101660008A7891F803C04CEA022C0FFA8CFCA0F89F
:101670003CC091F804E04A7942EA0E2212B2C287D5
:10168000897980F8401090ED167A80ED177A016D17
:10169000416590F83810022920D0032929D001296A
:1016A00009D107EE90CAF8EEE77A9FED4C6AC7EED3
:1016B000866AC0ED146AD0ED147AFFEE006AF4EE8B
:1016C000E67AF1EE10FA1FD9F7EE006AF4EEE67A48
:1016D000F1EE10FA1ADBC0ED146A17E007EE90CABB
:1016E000F8EEE77A9FED3E6AC7EE866AC0ED146AAF
:1016F000E1E707EE90CAF8EEE77A9FED3A6AC7EEA7
:10170000866AC0ED146AD6E7C0ED146A07EE903A17
:10171000F8EE677ADFED346A67EEA67AC0ED167AE6
:10172000FFEE006AF4EEE67AF1EE10FA09D9F7EE70
:10173000006AF4EEE67AF1EE10FA04DBC0ED166A08
:1017400001E0C0ED166AD0ED166A36EEC77AF6EE05
:10175000007AB4EEE77AF1EE10FA2ADDB0F96430DF
:10176000013BA0F86430B0F9643007EE903AF8EE2F
:10177000E77A76EEA77A90ED187A77EEC77AC0ED21
:101780001A7A90F82C301BB10023836080F82F3038
:101790008368312B02D890F82F10B9B1012380F85B
:1017A0002F3007EE902AF8EEE77AC0ED1B7A5DF84D
:1017B00004FBFEEE007AB4EEE77AF1EE10FAD2D531
:1017C000B0F964300133A0F86430CCE7C0ED186A9A
:1017D0000022C26001338360E9E700BF00001646C3
:1017E0000010A4460000A0430000003908B51038DE
:1017F000FFF730FF08BD00887047000010B5084CA7
:1018000020601C220749FFF751FE012384F8EB30CA
:1018100084F8E830002384F8EA3084F8E93010BD19
:101820003C0A002078A50108634B93ED276A83EDFD
:10183000286A93ED215A83ED225AD3ED1B5AC3ED4A
:101840001C5AB3F9262007EE902AF8EEE77AB2EE9A
:10185000047AC7EE876AC3ED276AB3F9222007EE40
:10186000102AB8EEC77A9FED554AC7EE047AC3ED49
:101870001B7AB3F9242004EE902AF8EEE44A84EEB1
:10188000847A83ED217A36EEC66ADFED4D4AB4EEF6
:10189000E46AF1EE10FA67D51A46D3F8A83001339E
:1018A000C2F8A830444B93ED2A6AB8EEC66ADFED61
:1018B000454A26EE246A36EE066A76EE866A93ED8F
:1018C0002C6A76EEC66A9FED406A66EE866AC3EDC4
:1018D0002B6A37EE455ADFED3A6AB4EEE65AF1EE7E
:1018E00010FA4FD51A46D3F890300133C2F8903031
:1018F000314BD3ED246AF8EEE66A9FED326A66EE6C
:10190000866A76EEA66A37EE267AD3ED266A37EE39
:10191000667ADFED2D6A27EE267A83ED257A77EE5B
:10192000E55A9FED2A7AF4EEC75AF1EE10FA37D550
:101930001A469B6F013393671F4B93ED1E7AB8EEE7
:10194000C77ADFED236A27EE267A37EE077A77EE3D
:10195000877A93ED207A77EEC77A9FED1B7A67EE50
:10196000877AC3ED1F7A7047DFED164AB4EEE46A5A
:10197000F1EE10FA96DD104AD2F8A830013BC2F819
:10198000A8308FE7DFED0F6AB4EEE65AF1EE10FAF9
:10199000AEDD094AD2F89030013BC2F89030A7E79B
:1019A0009FED0B7AF4EEC75AF1EE10FAC4DD024A4D
:1019B000936F013B9367BFE73C0A00200000C842D9
:1019C000000034C300003443610B363B0000B4C256
:1019D0000000B44210B5784CD4F8DC30C4F8E030E4
:1019E00009F074FE84ED370AD4ED387A30EE670AD8
:1019F000DFED727A20EE270A84ED390A07F012FC37
:101A000094F8E93033B9D4F8D830322B02D9002217
:101A1000C4F8D820684AD2F8D8300133C2F8D83098
:101A2000322B40F2C4801346012283F8E92007F0EC
:101A30001BFC614B93F8E930DBBB5F4B0022C3F822
:101A4000E420DA6E1A67B3F9222007EE902AF8EE46
:101A5000E77A9FED5B7A67EE877AC3ED1B7AC3ED79
:101A6000207A00229A67D3F88410C3F88810B3F95B
:101A7000241007EE901AF8EEE77A67EE877AC3ED46
:101A8000217AC3ED267AC3F89020D3F89C10C3F8CE
:101A9000A010B3F9261007EE901AF8EEE77A9FED42
:101AA000497A67EE877AC3ED277AC3ED2C7AC3F8BB
:101AB000A820FFF7B9FE404BB3F9142007EE902A97
:101AC000F8EEE77A9FED3F7A67EE877AC3ED187AF2
:101AD000B3F9162007EE902AF8EEE77A67EE877AD8
:101AE000C3ED197AB3F9182007EE902AF8EEE77AD9
:101AF00067EE877AC3ED1A7AB3F90D2006EE902AC5
:101B0000F8EEE66ADFED2D5A66EEA56A9FED2E6AC5
:101B100066EE866AC3ED2D6AB3F90F2007EE102A30
:101B2000B8EEC77A27EE257A27EE067A83ED2E7A6D
:101B3000B3F9112007EE902AF8EEE77A67EEA57A5E
:101B400067EE867AC3ED2F7AD3ED305A93ED396A7A
:101B500066EE866A75EEA65AC3ED305AD3ED316A49
:101B600027EE067A36EE877A83ED317AD3ED326A44
:101B700067EE867A76EEA77AC3ED327AD3ED336AD2
:101B800066EE255A76EEA56AC3ED336AD3ED346A64
:101B900026EE077A36EE877A83ED347A93ED357A3E
:101BA00026EE276A77EE067AC3ED357A10BD024B32
:101BB000002283F8E9203AE73C0A00206F12833ABA
:101BC0000AD7233CCDCCCC3D0AE81C41084B93F806
:101BD000E83043B9064B93F8E93023B1044B0122B6
:101BE00083F8EA207047024B002283F8EA2070470E
:101BF0003C0A002008B503495A2251F8040CFFF7AB
:101C000064FC08BD400A002010B582B004460023E1
:101C1000ADF80630042201460DF10600FFF760FC26
:101C20006288A11D0DF10600FFF75AFC201DFFF789
:101C3000E2FDBDF80630984202D1012002B010BD8D
:101C40000020FBE708B5064B9A884AF25A539A429D
:101C500001D0002008BD0348FFF7D6FFFAE700BF18
:101C60003C0A0020400A0020044B0022C3F8D82080
:101C700083F8E920012283F8E82070473C0A00201D
:101C8000024B002283F8E820704700BF3C0A002086
:101C900010B5002409E00C220549064B1868FFF72F
:101CA0000DFC052007F09DF80134042CF3DD10BD78
:101CB00098A501083C0A0020014B00225A71704788
:101CC000280B0020034B5B79C72B02D80133014A54
:101CD00053717047280B0020054B5B790A2B03D901
:101CE000034B00221A717047014B01221A71704791
:101CF000280B00200346002848D0017842781202C1
:101D000002F4E0621143224A5185407899784901F2
:101D100041EAD001C1F30A019185987893F803C094
:101D20001979890241EA8C0109B241EA9011C1F3A3
:101D30000A01D18518795979C90141EA5001C1F3E5
:101D40000A0111865979890951865979C1F301111E
:101D500091869979D87941EA0021D186197A587A01
:101D600041EA00211187997AD87A41EA0021518706
:101D7000197B82F83C10597B82F83D10997BD18702
:101D8000197C5B7C41EA0323A2F84030704700BF16
:101D9000280B002010B507F045FAB84C04F1700C80
:101DA00004F1440EBEE80F00ACE80F00BEE80F00DF
:101DB000ACE80F009EE807008CE80700638DA3F5F0
:101DC0007B7292B2282A45D84FF480626285AB4B71
:101DD0009B8DA3F57B7292B2282A44D8A74B4FF46F
:101DE00080629A85A54BDB8DA3F57B7292B2282A7F
:101DF00042D8A24B4FF48062DA85A04B1B8EA3F52C
:101E00007B7292B2282A40D89C4B4FF480621A868B
:101E10009A4B5A8D07EE902AF8EE677A9FED987AE2
:101E200077EEC77ADFED976A87EEA67A83ED137AAD
:101E3000FFEE007AB4EEE77AF1EE10FA2ED9F7EE63
:101E4000007AB4EEE77AF1EE10FA29DB8B4BC3EDA2
:101E5000137A25E0A3F5B6739BB2B3F5A56FB6D997
:101E600007F002FA08E1A3F5B6739BB2B3F5A56FCC
:101E7000B8D907F0F9F9FFE0A3F5B6739BB2B3F553
:101E8000A56FBAD907F0F0F9F6E0A3F5B6739BB2E7
:101E9000B3F5A56FBCD907F0E7F9EDE0C3ED137A10
:101EA000764B9A8D07EE902AF8EE677A9FED747A5A
:101EB00077EEC77ADFED736A87EEA67A83ED147A40
:101EC000FFEE007AB4EEE77AF1EE10FA0AD9F7EEF7
:101ED000007AB4EEE77AF1EE10FA05DB674BC3ED5A
:101EE000147A01E0C3ED147A644BDA8D07EE902A80
:101EF000F8EE677A9FED627A77EEC77ADFED616A76
:101F000087EEA67A83ED117AFFEE007AB4EEE77AD7
:101F1000F1EE10FA0AD9F7EE007AB4EEE77AF1EEB4
:101F200010FA05DB554BC3ED117A01E0C3ED117AD0
:101F3000524B1A8E07EE902AF8EE677A9FED507A90
:101F400077EEC77ADFED4F6A87EEA67A83ED127AD5
:101F5000FFEE007AB4EEE77AF1EE10FA0AD9F7EE66
:101F6000007AB4EEE77AF1EE10FA05DB434BC3EDED
:101F7000127A01E0C3ED127A404B93F8342083F8D3
:101F8000542093F8322083F85520B3F9362007EE19
:101F9000902AF8EEE77A9FED3C7AC7EE876A16EE54
:101FA000902AC3F85620B3F9382007EE902AF8EEAD
:101FB000E77A87EE876A16EE102AC3F85A20B3F93B
:101FC0003A2007EE902AF8EEE77AF3EE045A87EE0D
:101FD000A57A17EE102AC3F85E2093F83D2083F807
:101FE000632093F83C2083F86220DA8FA3F8642002
:101FF000AAB9B3F8623093B9F5EE406AF1EE10FA7F
:102000000DD1B5EE406AF1EE10FA08D1B5EE407A86
:10201000F1EE10FA03D1194B83F86C2003E0174B53
:10202000012283F86C20154BB3F8402007EE902A6C
:10203000F8EE677AF1EE677A9FED117A77EEC77A5C
:10204000DFED106A87EEA67A83ED1A7AFFEE007A4A
:10205000B4EEE77AF1EE10FA0AD9F7EE007AB4EEB0
:10206000E77AF1EE10FA05DB044BC3ED1A7A01E0D2
:10207000C3ED1A7A07F0F8F810BD00BF280B002056
:1020800000008044000025440000FA4308B507F032
:10209000C9F8784BB3F89020D04300B2B3F864107D
:1020A000B3F964C00140A3F8A01022EA0C02A3F81F
:1020B0009E2093F88E302BB96E4A92F862205AB95E
:1020C000002100E000216B4A82F8A51033B192F89C
:1020D000623083B1002202E00121F4E70022654B67
:1020E00083F8A42093F88F303BB9624A92F86320BA
:1020F0006AB9002102E00122F1E700215D4A82F87D
:10210000A31033B192F8633003BB002202E0012137
:10211000F4E70022574B83F8A22093F85530012BA7
:1021200016D0032B26D0032B36D0022B46D0514B92
:1021300093F85430012B53D0032B63D0032B73D06F
:10214000022B00F0838007F08FF808BD0122E1E741
:10215000484A92F88120032AE3D1464AB2F89C30DB
:1021600023F0F0039BB2A2F89C3043F02003A2F8C6
:102170009C30DCE73F4A92F88120012AD3D13D4AC6
:10218000B2F89C3023F0F0039BB2A2F89C3043F0ED
:102190001003A2F89C30CAE7364A92F88120022A3E
:1021A000C3D1344AB2F89C3023F0F0039BB2A2F8BA
:1021B0009C3043F08003A2F89C30B8E72D4B93F895
:1021C0008130032BB3D12B4AB2F89C3023F0F003BB
:1021D0009BB2A2F89C3043F04003A2F89C30A6E7E3
:1021E000244A92F88020032AA6D1224AB2F89C30D1
:1021F00023F00F039BB2A2F89C3043F00203A2F835
:102200009C30A0E71B4A92F88020012A96D1194AF7
:10221000B2F89C3023F00F039BB2A2F89C3043F03D
:102220000103A2F89C308EE7124A92F88020022A1D
:1022300086D1104AB2F89C3023F00F039BB2A2F86B
:102240009C3043F00803A2F89C307CE7094B93F8DC
:102250008030032B7FF477AF064AB2F89C3023F02E
:102260000F039BB2A2F89C3043F00403A2F89C3009
:1022700069E700BF280B00200022022304E0C15CB4
:102280000A4492B20133DBB2C17801319942F6DAE5
:10229000D043C0B27047000070B584B0054600EB73
:1022A00081004668141E05DBB4F57A7F03DD4FF428
:1022B0007A7400E0002447F23052934228BF13465C
:1022C00055228DF805208DF804208DF80610072280
:1022D0008DF8072001228DF808208DF80940C4F3FD
:1022E00007228DF80A208DF80B301B0A8DF80C3070
:1022F00001A8FFF7C1FF8DF80D000A2201A9D5F84A
:10230000FC03FFF7DBF8F48107EE904AF8EEE77A7A
:102310009FED037A67EE877AC6ED087A04B070BD48
:102320008FC2753E08B5012006F05BFDFBE700009B
:1023300008B50248FFF7F7F808BD00BFD00F00202E
:1023400000B583B00A4B01221A600A4B1B68019347
:1023500000230093DFED080A9FED080A084B0222D4
:1023600005210848FFF7EAF8012006F03AFDFBE7EF
:10237000881902201C110020295C8F3D0080A24496
:10238000E4100020D00F002008B5FFF7D1FF08BDF2
:1023900008B5024B186806F0BFFD08BD2C110020DF
:1023A00010B5084C2046FFF729FA0021064B1868A3
:1023B00006F07EFD0549204604F07FFBFFF768FC30
:1023C00010BD00BF8C1800202C11002091230008A4
:1023D00008B5FFF7E5FF06E0FFF746FCFFF7F6FB61
:1023E000012006F0FEFCFFF705FC1421084B1868DD
:1023F00006F05EFD074B18600028EDD1FFF740FCAA
:10240000FFF720FC0028E9D0FFF7E4FAE6E700BF79
:102410002C110020B010002008B5044B186806F0FD
:102420007BFD0348FFF766FC08BD00BF401100209C
:102430002E0B002010B5094C09482060094904F012
:102440003CFB214651F8060B1222FFF73EF8002113
:102450002171054B186806F02BFD10BD280B0020DC
:102460009C170020192400084011002008B5FFF730
:10247000E1FF0AE0FFF720FCFFF78CFCFFF706FE08
:10248000FFF72AFC012006F0ACFC0949122251F8A2
:10249000060CFFF71AF81421064B186806F008FD21
:1024A000054B18600028E5D0FFF70CFCE8E700BFFB
:1024B0002E0B002040110020B410002008B5024B64
:1024C000186806F029FD08BD1411002000B583B07E
:1024D0000F4A01210F4804F096FA0F4B186806F0D6
:1024E0001BFD4FF0FF310C4B186806F0E1FC4FF07C
:1024F000FF33002201A90948006806F087FD002388
:10250000BDF904209DF806100548FFF7C5FEE8E771
:10251000BD240008AC160020141100204411002036
:10252000D00B002008B50E480E4B03600323436018
:1025300000228260C2604FF4C02303614FF4A00305
:1025400043610276012343768376C376027743772D
:1025500001F096FA00B908BD00F0D0FBFBE700BF20
:10256000E41000200064004008B50E480E4B0360E4
:102570000323436000228260C2604FF4C0230361E2
:102580004FF4A00343610276012343768376C3763A
:102590000277437701F074FA00B908BD00F0AEFB92
:1025A000FBE700BFBC1000200068004010B58AB0F7
:1025B0000023059306930793089309930368464AFB
:1025C000934204D0454A93423CD00AB010BD444ADD
:1025D000136801331360012B27D000240194414B71
:1025E0001A6B42F008021A631B6B03F00803019395
:1025F000019B032305930222069208930923099362
:1026000005A9394801F0D2FF22460521132001F027
:1026100057FD132001F064FD22460521142001F02E
:102620004FFD142001F05CFDCFE7002300932D4BFC
:102630001A6C42F000721A641B6C03F00073009372
:10264000009BCAE700230293264B1A6C42F080627B
:102650001A641B6C03F080630293029B204A136888
:1026600001331360012B29D0002404941D4B1A6BF5
:1026700042F002021A631B6B03F002030493049BF3
:102680004FF4405305930223069303230893092331
:10269000099305A9154801F089FF224605213F202D
:1026A00001F00EFD3F2001F01BFD224605214120D7
:1026B00001F006FD412001F013FD86E7002303939E
:1026C000084B1A6C42F000721A641B6C03F0007322
:1026D0000393039BC8E700BF00640040006800400C
:1026E000B810002000380240000C024000040240F4
:1026F00010B582B000240094324B1A6B42F4800271
:102700001A631A6B02F480020092009A01941A6B09
:1027100042F400121A631B6B03F400130193019B34
:10272000224605210B2001F0CBFC0B2001F0D8FC48
:10273000224605210C2001F0C3FC0C2001F0D0FC46
:10274000224605210E2001F0BBFC0E2001F0C8FC42
:10275000224605210F2001F0B3FC0F2001F0C0FC40
:1027600022460521112001F0ABFC112001F0B8FC3C
:1027700022460521392001F0A3FC392001F0B0FCEC
:10278000224605213A2001F09BFC3A2001F0A8FCEA
:10279000224605213B2001F093FC3B2001F0A0FCE8
:1027A000224605213C2001F08BFC3C2001F098FCE6
:1027B00022460521452001F083FC452001F090FCD4
:1027C00002B010BD0038024008B508F01FFD01201E
:1027D00006F007FBFBE708B5012006F002FBFBE76C
:1027E00008B5012006F0FDFAFBE708B5012006F068
:1027F000F8FAFBE708B5012006F0F3FAFBE708B5A5
:10280000012006F0EEFAFBE708B5012006F0E9FA30
:10281000FBE708B5012006F0E4FAFBE708B5012064
:1028200006F0DFFAFBE708B5012006F0DAFAFBE76D
:1028300008B5704A0121084606F0E1FA6E4B1860AF
:102840006E4A0121084606F0DAFA6D4B18606D4AAF
:102850000121084606F0D3FA6B4B18606B4A012140
:10286000084606F0CCFA6A4B18606A4A012108460D
:1028700006F0C5FA684B1860684A0121084606F060
:10288000BEFA674B1860674A0121084606F0B7FA9E
:10289000654B1860654A0121084606F0B0FA644BA2
:1028A0001860644A0121084606F0A9FA624B1860D4
:1028B000624A0121084606F0A2FA614B1860614A9B
:1028C0000121084606F09BFA5F4B18605F4A012120
:1028D000084606F094FA5E4B18605E4A03210846EB
:1028E00006F08DFA5C4B18605C4A0321084606F03E
:1028F00086FA5B4B18605B4A0C21202006F03BFBFC
:10290000594B1860594A0C21202006F034FB584BD3
:102910001860584A0421102006F02DFB564B186011
:10292000564A0021564806F0FDF9564B1860564AA3
:102930000021564806F0F6F9554B1860554A00211B
:10294000554806F0EFF9554B1860554A0021554897
:1029500006F0E8F9544B1860544A0021544806F038
:10296000E1F9544B1860544A0021544806F0DAF952
:10297000534B1860534A0021534806F0D3F9534B88
:102980001860534A0021534806F0CCF9524B1860A6
:10299000524A0021524806F0C5F9524B1860524A7B
:1029A0000021524806F0BEF9514B1860514A0021EF
:1029B000514806F0B7F9514B1860514A002151486F
:1029C00006F0B0F9504B1860504A0021504806F00C
:1029D000A9F9504B1860504A0021504806F0A2F95E
:1029E0004F4B18604F4A00214F4806F09BF94F4B60
:1029F000186008BD90B401084011002080B401089F
:102A00003C11002070B401083811002060B40108A6
:102A10003411002050B401083011002040B40108E6
:102A20002C11002030B401082811002020B4010826
:102A30002411002010B401082011002000B4010866
:102A40001C110020F0B3010818110020E0B30108A8
:102A500014110020D0B3010810110020C0B30108E8
:102A60000C110020D0B401084C110020B8B40108AA
:102A700048110020A0B4010844110020E0B601086C
:102A8000C927000888110020BCB601086D24000881
:102A90008411002098B60108D72700088011002073
:102AA00074B60108E12700087C11002050B6010827
:102AB00025230008781100202CB60108EB27000818
:102AC0007411002008B60108D123000870110020FD
:102AD000E4B50108F52700086C110020C0B5010815
:102AE000FF270008681100209CB50108092800088C
:102AF0006411002078B50108132800086011002037
:102B000054B50108CD2400085C11002030B501083F
:102B100041230008581100200CB501081D280008A9
:102B200054110020E8B401082728000850110020A3
:102B30002DE9F04F8FB0002409940A940B940C9463
:102B40000D940094614B1A6B42F010021A631A6BD9
:102B500002F010020092009A01941A6B42F00202F5
:102B60001A631A6B02F002020192019A02941A6B24
:102B700042F040021A631A6B02F040020292029A7B
:102B800003941A6B42F001021A631A6B02F00102FD
:102B90000392039A04941A6B42F008021A631A6BA8
:102BA00002F008020492049A05941A6B42F48072AF
:102BB0001A631A6B02F480720592059A06941A6BD6
:102BC00042F080021A631A6B02F080020692069AA3
:102BD00007941A6B42F020021A631A6B02F020026B
:102BE0000792079A08941A6B42F004021A631B6B4F
:102BF00003F004030893089B354E224641F270010E
:102C0000304601F0D7FDDFF8CCB02246052158460A
:102C100001F0D0FDDFF8C0A0224644F2400150464A
:102C200001F0C8FDDFF8B49022464FF4C051484689
:102C300001F0C0FDDFF8A88022461121404601F0D6
:102C4000B9FD01224FF40061304601F0B3FD41F2BD
:102C50007003099301250A950B9502270C9709A982
:102C6000304601F0A3FC052309930A950B940C94BC
:102C700009A9584601F09AFC44F2400309930A95C9
:102C80000B940C9409A9504601F090FC4FF4C053EA
:102C900009930A950B940C9709A9484601F086FC04
:102CA000112309930A950B950C9709A9404601F049
:102CB0007DFC4FF4006309930A950B940C9409A9C9
:102CC000304601F073FC0FB0BDE8F08F00380240D1
:102CD000001002400020024000140240001C02408C
:102CE0000008024008B50268034B9A4200D008BDB4
:102CF00000F0A0FEFBE700BF0014004072B6FEE744
:102D000000B595B03022002108A813F0F3FB002392
:102D1000039304930593069307930193204A116C40
:102D200041F080511164126C02F080520192019ABC
:102D300002931C4B1A6842F440421A601B6803F469
:102D400040430293029B012308934FF4803309937D
:102D500002230E934FF480020F9206221092A822B3
:102D6000119212930723139308A802F065FB98B9F8
:102D70000F23039302230493002305934FF4A053DE
:102D800006934FF480530793052103A802F0A4FD96
:102D900020B915B05DF804FBFFF7B0FFFFF7AEFFF9
:102DA000003802400070004008B5154A936823F0CF
:102DB0000303936000F024FEFFF7A2FFFFF7B8FEC5
:102DC000FFF796FC00F08EFB00F00EFBFFF7AAFB6E
:102DD000FFF7CAFB00F016F800F0C4FA00F04EFB53
:102DE00000F066FB00F09EFB00F0B6FB08F04EFC26
:102DF00005F06AFFFFF71CFD05F078FFFEE700BF56
:102E00000038024008B50E480E4B03604FF4827341
:102E1000436000238360C360036143614FF4007229
:102E200082613022C2610362436283620A23C36209
:102E300002F056FE00B908BDFFF760FFFBE700BFD8
:102E40004C1200200050014030B589B0002303939C
:102E500004930593069307930268354B9A4201D079
:102E600009B030BD04460025019503F568435A6C4E
:102E700042F480125A645A6C02F480120192019A50
:102E800002951A6B42F020021A631B6B03F02003B9
:102E90000293029B4FF46073039302230493032372
:102EA00006930523079303A9224801F07FFB2248DC
:102EB000224B03604FF0806343608560C5604FF430
:102EC0008063036145618561C5614FF4003303622E
:102ED000456201F085F928BB174BE3649C631848F1
:102EE000184B03604FF080634360402383600023EE
:102EF000C3604FF48062026143618361C3614FF438
:102F000000320262436201F06BF970B90C4BA364AA
:102F10009C6300220521552001F0D2F8552001F0D4
:102F2000DFF89DE7FFF7EAFED6E7FFF7E7FEEDE7FC
:102F30000050014000140240EC110020586402408F
:102F40008C1100207064024000B583B00022009212
:102F50000D4B596C41F480415964596C01F4804126
:102F6000009100990192196C41F0805119641B6C19
:102F700003F080530193019B0F216FF0010001F0DA
:102F80009FF803B05DF804FB0038024030B589B00B
:102F9000044600230193214B1A6C42F020021A646C
:102FA0001B6C03F020030193019B02A903A802F00C
:102FB00069FD069BCBB902F045FD0346184AA2FB0A
:102FC00003239B0C013B1748174A026040F2E7328B
:102FD000C2604360002303618360836103F0C4F82F
:102FE000054630B1284609B030BD02F02BFD430044
:102FF000E4E70C4802F054FF05460028F2D13720E0
:1030000001F06EF80F2C01D90125EBE700222146D3
:10301000372001F055F8054B1C60E3E7003802400B
:1030200083DE1B43CC12002000140040340000203B
:10303000FEE7FEE7FEE7FEE7FEE7704708B5024859
:1030400001F0C6F908BD00BF8C15002008B5024884
:1030500001F0BEF908BD00BFCC14002008B502483D
:1030600001F0B6F908BD00BF4C16002008B50248B3
:1030700001F0AEF908BD00BF6C14002008B502488D
:1030800001F0A6F908BD00BFEC15002008B5024804
:1030900000F099FE08BD00BFE410002008B502480A
:1030A00000F091FE08BD00BFE410002008B5024802
:1030B00003F0CEFD08BD00BF9C17002008B50248F4
:1030C00003F0C6FD08BD00BF2417002008B5024864
:1030D00002F02EFF08BD00BFCC12002008B5024848
:1030E00001F076F908BD00BF0C14002008B50248B5
:1030F00001F06EF908BD00BF2C15002008B502488C
:1031000001F066F908BD00BFEC11002008B50248C7
:1031100001F05EF908BD00BF8C11002008B502481F
:1031200000F051FE08BD00BFBC10002008B50248E9
:1031300000F049FE08BD00BFBC10002008B50248E1
:1031400001F06FFE08BD00BFA414022008B50248BC
:1031500001F03EF908BD00BFAC13002008B50248DD
:1031600003F076FD08BD00BFAC16002008B502488C
:1031700003F06EFD08BD00BF8C18002008B50248A2
:1031800003F066FD08BD00BF1418002008B5024812
:1031900002F02CFD08BD00BF4C120020012070473A
:1031A00008B513F0C5FB162303604FF0FF3008BDD0
:1031B00008B54FF0FF31FFF7F3FFFEE770B50C469F
:1031C0001646002506E0AFF30080214601F8010B0A
:1031D00001350C46B542F6DB304670BD70B50C4685
:1031E0001646002504E014F8010BAFF3008001350A
:1031F000B542F8DB304670BD4FF0FF3070474FF4FA
:1032000000534B600020704701207047002070473A
:1032100010B503460C4A0D490D48006840B10C48F2
:1032200000680344521A934206D8094A136010BD3D
:103230000748084C0460F2E713F07AFB0C230360A4
:103240004FF0FF30F3E700BF000003200010000044
:1032500018130020C81C0220034AD2F8883043F417
:103260007003C2F88830704700ED00E00268094B37
:103270009A4200D0704782B000230193064B1A6C2B
:1032800042F002021A641B6C03F002030193019BDB
:1032900002B0704700040040003802400268094B49
:1032A0009A4200D0704782B000230193064B1A6CFB
:1032B00042F040021A641B6C03F040030193019B2F
:1032C00002B07047001800400038024000B589B0D5
:1032D00000230393049305930693079303681C4A02
:1032E000934205D01B4A93421BD009B05DF804FB02
:1032F00000230193184B1A6B42F002021A631B6BF6
:1033000003F002030193019B202303930223049300
:10331000012205920693079303A9104801F046F98C
:10332000E3E7002302930C4B1A6B42F080021A630E
:103330001B6B03F080030293029B40230393022341
:1033400004930923079303A9054801F02FF9CCE75B
:103350000004004000180040003802400004024011
:10336000001C024000B58BB0002308930993019321
:103370000293039304930593069307931848194AFD
:1033800002604360836042F20F72C2600361836136
:1033900002F016FFD0B900230893099308A910483A
:1033A00003F06CF8A8B96023019300230293039300
:1033B000059304220DEB0201094802F065FF58B99C
:1033C0000748FFF783FF0BB05DF804FBFFF796FC9F
:1033D000E1E7FFF793FCE6E7FFF790FCF0E700BFBB
:1033E000641300200004004000B58DB00023089352
:1033F00009930A930B930193029303930493059308
:10340000069307931B481C4A026053224260836064
:1034100040F27112C2600361836102F0A5FEE0B95F
:103420004FF48053089308A9124802F0A8FFB8B9D6
:10343000104802F0C5FEB0B9602301930022029249
:103440000392059201A90B4802F01EFF70B90948CA
:10345000FFF73CFF0DB05DF804FBFFF74FFCDFE723
:10346000FFF74CFCE4E7FFF749FCE5E7FFF746FC14
:10347000EDE700BF1C1300200018004008B50A4803
:103480000A4B03604FF4E123436000238360C36071
:1034900003610C2242618361C36103F041FD00B905
:1034A00008BDFFF72BFCFBE78C18002000780040DC
:1034B00008B50A480A4B03604FF4E1334360002328
:1034C0008360C36003610C2242618361C36103F0C6
:1034D00027FD00B908BDFFF711FCFBE71418002019
:1034E000007C004008B50C480C4B03600C4B43605B
:1034F0004FF4805383600023C3604FF48062026105
:103500000C2242618361C36103F00AFD00B908BD6A
:10351000FFF7F4FBFBE700BF9C1700200010014001
:10352000A086010008B50A480A4B03604FF4E13356
:10353000436000238360C36003610C2242618361A6
:10354000C36103F0EDFC00B908BDFFF7D7FBFBE753
:10355000241700200048004008B50A480A4B0360C1
:103560004FF4E133436000238360C36003610C22A6
:1035700042618361C36103F0D3FC00B908BDFFF76A
:10358000BDFBFBE7AC1600200014014030B591B044
:10359000044600230B930C930D930E930F93036833
:1035A000824A934210D0824A934254D0814A934235
:1035B00000F0B580804A934200F018817F4A934220
:1035C00000F07A8111B030BD002501957C4B1A6C5A
:1035D00042F080421A641A6C02F080420192019A11
:1035E00002951A6B42F010021A631B6B03F0100372
:1035F0000293029B4FF4C0730B9302230C9303239B
:103600000E9308230F930BA96E4800F0CFFF6E486E
:103610006E4B03604FF0206343608560C5604FF4DC
:103620008063036145618561C5614FF400330362C6
:10363000456200F0D5FD58B9634BE3639C630022FB
:103640000521522000F03CFD522000F049FDB9E771
:10365000FFF754FBF0E700250395594B1A6C42F035
:1036600000421A641A6C02F000420392039A049515
:103670001A6B42F010021A631B6B03F010030493E1
:10368000049B03230B9302220C920E9308230F93A7
:103690000BA94C4800F08AFF4D484E4B03604FF099
:1036A000206343608560C5604FF4806303614561BA
:1036B00085614FF48073C3614FF400330362456248
:1036C00000F08EFD28BB424BE3639C634248434BB2
:1036D00003604FF020634360402383600023C36096
:1036E0004FF48062026143618361C3614FF4003231
:1036F0000262436200F074FD70B9374BA3639C63B0
:1037000000220521532000F0DBFC532000F0E8FCF0
:1037100058E7FFF7F3FAD6E7FFF7F0FAEDE70025F1
:103720000595274B5A6C42F010025A645A6C02F00D
:1037300010020592059A06951A6B42F002021A636E
:103740001B6B03F002030693069BC0230B9302231B
:103750000C9303230E9307230F930BA9204800F02B
:1037600025FF2048204B03604FF0006343608560D5
:10377000C5604FF48063036145618561C5614FF4A5
:1037800000330362456200F02BFD58B9154BE3632B
:103790009C6300220521252000F092FC252000F0EA
:1037A0009FFC0FE7FFF7AAFAF0E700BF00780040A0
:1037B000007C00400010014000480040001401401F
:1037C00000380240001002404C16002058600240B1
:1037D000EC150020A06002408C1500201060024013
:1037E000000402402C15002040640240002507958B
:1037F000634B1A6C42F480221A641A6C02F4802221
:103800000792079A08951A6B42F008021A631B6B1D
:1038100003F008030893089B4FF440730B930223B3
:103820000C9303230E9307230F930BA9554800F025
:10383000BDFE5548554B03604FF000634360856003
:10384000C5604FF480630361456185614FF4807307
:10385000C3614FF400330362456200F0C1FC28BB32
:10386000494BE3639C634A484A4B03604FF06063F3
:103870004360402383600023C3604FF48062026191
:1038800043618361C3614FF400320262436200F01E
:10389000A7FC70B93E4BA3639C630022052127203F
:1038A00000F00EFC272000F01BFC8BE6FFF726FA49
:1038B000D6E7FFF723FAEDE700250995304B5A6C60
:1038C00042F020025A645A6C02F020020992099ACE
:1038D0000A951A6B42F040021A631B6B03F0400317
:1038E0000A930A9B4FF484430B9302230C93032304
:1038F0000E9308230F930BA9274800F057FE274883
:10390000274B03604FF0206343608560C5604FF430
:103910008063036145618561C5614FF400330362D3
:10392000456200F05DFC28BB1C4BE3639C631D48B3
:103930001D4B03604FF020634360402383600023EE
:10394000C3604FF48062026143618361C3614FF4DD
:1039500000320262436200F043FC70B9114BA36372
:103960009C6300220521472000F0AAFB472000F0BD
:10397000B7FB27E6FFF7C2F9D6E7FFF7BFF9EDE798
:1039800000380240000C0240CC14002028600240A5
:103990006C14002070600240001802400C140020DB
:1039A00028640240AC130020A0640240DFF834D049
:1039B000FFF752FC0C480D490D4A002302E0D45891
:1039C000C4500433C4188C42F9D30A4A0A4C002369
:1039D00001E013600432A242FBD312F0AFFFFFF705
:1039E000E3F97047000003200000002004080020D5
:1039F00030C6010808080020C81C0220FEE70000AD
:103A000008B50B4B1A6842F400721A601A6842F447
:103A100080621A601A6842F480721A60032000F013
:103A20003DFB0F20FFF7B2FAFFF78EFA002008BD2A
:103A3000003C0240034A1168034B1B780B4413609F
:103A4000704700BF0419002030000020014B1868A7
:103A5000704700BF0419002038B50446FFF7F6FF91
:103A60000546B4F1FF3F02D0044B1B781C44FFF71E
:103A7000EDFF401BA042FAD338BD00BF300000204C
:103A8000002800F0A18038B5044690F82030D3B16A
:103A90002268136843F001031360FFF7D7FF054660
:103AA00023685A6812F0010F10D1FFF7CFFF401BB7
:103AB0000A28F5D9636A43F400336362052384F866
:103AC0002030012038BDFEF771FDE1E71A6822F0D1
:103AD00002021A60FFF7BAFF054623685A6812F01F
:103AE000020F0DD0FFF7B2FF401B0A28F5D9636A19
:103AF00043F400336362052384F820300120E1E7BA
:103B0000227E012A3DD01A6822F080021A60637E6C
:103B1000012B3BD02268136823F040031360A37E7F
:103B2000012B39D02268136823F020031360E37E51
:103B3000012B37D02268136843F010031360237FF2
:103B4000012B35D02268136823F008031360637FCC
:103B5000012B33D02268136823F004031360A36899
:103B6000E268134322691343626913436268013AAE
:103B700021681343CB6100206062012384F8203068
:103B8000A0E71A6842F080021A60C0E72268136852
:103B900043F040031360C2E72268136843F0200338
:103BA0001360C4E72268136823F010031360C6E7AC
:103BB0002268136843F008031360C8E7226813689B
:103BC00043F004031360CAE70120704770B5044650
:103BD00090F82050EDB2012D06D0436A43F4002343
:103BE00043620125284670BD022380F82030026818
:103BF000136823F001031360FFF728FF06462368CC
:103C00005B6813F0010F0CD0FFF720FF831B0A2B1A
:103C1000F5D9636A43F400336362052384F82030E6
:103C2000E0E700256562DDE790F820C00CF1FF3C7D
:103C30005FFA8CFCBCF1010F00F2A58030B451B9E1
:103C40000468E46814F0030F10D1436A43F40013CE
:103C5000436201207EE00468246914F0030F05D15B
:103C6000436A43F400134362012073E0056801F1E5
:103C70001B0424012C5904F004049460002C6BD123
:103C8000056801F11B0424012C59640D14600468BB
:103C900001F11B0C4FEA0C1C54F80C4004F0020418
:103CA000D4600468A444DCF8045015F0080F5BD01D
:103CB00008241461046801F11B0C04EB0C14646803
:103CC000C4F307249461046804EB0C146468240CA6
:103CD0005461026802EB0112D2F8B8211A7002682E
:103CE00002EB0112D2F8B821C2F307225A7002681F
:103CF00002EB0112D2F8B821C2F307429A700268AF
:103D000002EB0112D2F8B821120EDA70026802EB4F
:103D10000112D2F8BC211A71026802EB0112D2F82A
:103D2000BC21C2F307225A71026802EB0112D2F8D9
:103D3000BC21C2F307429A71026802EB0112D2F869
:103D4000BC21120EDA71C1B90268D36843F02003B6
:103D5000D360002030BC7047056801F11B042401CA
:103D60002C59E408546092E701F11B0504EB05149B
:103D7000646804F00F0414619CE70268136943F05F
:103D800020031361E5E7436A43F480234362012083
:103D9000704790F82030013BDBB2012B05D9436A14
:103DA00043F48023436201207047026853690B4348
:103DB00053610020704770477047704770477047E5
:103DC0007047704770472DE9F84F054603685C69F6
:103DD000D3F804809F68D3F80CA0D3F81090D3F8E0
:103DE00018B014F001063BD017F0010616D00122DE
:103DF0009A6017F0020F08D117F0040F0CD117F0DA
:103E0000080606D04FF4805608E0FDF79DFA00261C
:103E100004E0FFF7D0FF01E04FF4006617F4807F65
:103E20000DD02B684FF480729A6017F4007F40F039
:103E3000968017F4806F00F0968046F4005617F4D1
:103E4000803F0DD02B684FF480329A6017F4003F0A
:103E500040F0938017F4802F00F0938046F40046E2
:103E600014F0080F07D01AF0100F04D046F40076B3
:103E70002B681022DA6014F0040F03D01AF0080F38
:103E800040F0898014F0020F05D02B68DB6813F036
:103E9000030F40F0878014F0400F07D019F0100F87
:103EA00004D046F480662B6810221A6114F0200FAB
:103EB00002D019F0080F79D114F0100F04D02B683C
:103EC0001B6913F0030F78D114F4003F02D018F0EF
:103ED000100F76D114F4803F02D018F0080F77D17C
:103EE00014F4004F37D018F0040F31D014F4807F51
:103EF00004D01BF0010F01D046F0010614F4007F3E
:103F000004D01BF0020F01D046F0020614F4806FBB
:103F100004D01BF0040F01D046F0040614F4006F27
:103F200016D01BF0700B13D0BBF1400F66D056D8E3
:103F3000BBF1200F5CD0BBF1300F5CD0BBF1100F98
:103F400001D146F008062A68936923F07003936153
:103F50002B6804225A60002E56D1BDE8F88F2846FF
:103F6000FDF7F6F96BE717F4006F02D046F48046D0
:103F700065E72846FFF720FF61E72846FDF7ECF9E3
:103F80006EE717F4002F02D046F4803668E7284623
:103F9000FFF713FF64E72B680822DA602846FFF773
:103FA0000DFF6FE72846FDF749FA74E72B680822F2
:103FB0001A612846FFF703FF7EE72846FDF75CFA03
:103FC00082E72B6810225A602846FFF7F9FE81E746
:103FD0002B6808225A602846FFF7F3FE80E7BBF102
:103FE000500F0ED0BBF1600FADD146F48076AAE73A
:103FF00046F01006A7E746F02006A4E746F0400684
:10400000A1E746F080069EE76B6A33436B62284661
:10401000FFF7D8FEA1E70000002807DB00F01F0231
:10402000400901239340024A42F82030704700BF04
:1040300000E100E0002808DB0901C9B200F160409E
:1040400000F5614080F80013704700F00F0009018F
:10405000C9B2014B1954704714ED00E000B500F0EF
:104060000700C0F1070CBCF1040F28BF4FF0040C8F
:10407000031D062B0FD9C31E4FF0FF3E0EFA0CF0A6
:1040800021EA000199400EFA03FE22EA0E0241EAFB
:1040900002005DF804FB0023EEE70000074AD36846
:1040A00023F4E0631B041B0C000200F4E0600343F4
:1040B00043F0BF6343F40033D360704700ED00E08A
:1040C00010B50446054BD868C0F30220FFF7C6FFC1
:1040D00001462046FFF7AEFF10BD00BF00ED00E037
:1040E00008B5FFF799FF08BD30B405682C6824F4C3
:1040F00080242C60046863608368402B05D00368CB
:1041000099600368DA6030BC704703689A6003689E
:10411000D960F8E710B40368D9B210390A4AA2FB93
:1041200001421209094CA25CC2655F2907D96FF3ED
:10413000090304338365806D5DF8044B70476FF3AA
:1041400009038365F7E700BFABAAAAAA1CB7010859
:10415000836A826992B9012B0AD0022B02D00BB17B
:1041600000207047C36A13F0807F28D10020704779
:10417000C36AB3F1C07F24D000207047B2F5005F5E
:1041800009D0022B25D9032B25D1C36A13F0807FD8
:1041900023D100207047032B03D8DFE803F0140479
:1041A000140A00207047C36A13F0807F0DD10020ED
:1041B0007047C36AB3F1C07F09D000207047012067
:1041C000704701207047012070470120704701208F
:1041D00070470120704700207047012070470000A1
:1041E00070B50446FFF732FC002C5BD00546022375
:1041F00084F83530002384F834302268136823F0C3
:104200000103136023681A6812F0010F0AD0FFF748
:104210001DFC431B052BF5D920236365032084F87F
:10422000350070BD1A68204911406268A0680243D9
:10423000E06802432069024360690243A0690243C7
:10424000E0690243206A02430A43616A04291ED0DE
:104250001A602668756925F00705636A1D43042BFB
:1042600007D1A36A1D43E36A1BB12046FFF770FF25
:1042700090B975612046FFF74DFFE26D3F239340F3
:10428000836000206065012384F83530C9E7E16A66
:10429000206B01430A43DBE740236365012084F878
:1042A0003500BEE70120BCE73F8010F038B504467A
:1042B000856D90F8340001282BD0012084F834005B
:1042C00094F83500C0B2012804D0002384F83430BB
:1042D000022038BD022084F83500002060652046A9
:1042E000FFF702FFE26D3F239340AB602268136843
:1042F00043F016031360236C23B12268136843F064
:10430000080313602268136843F001031360002060
:10431000DFE70220DDE770B50446866DFFF796FB08
:1043200094F83530DBB2022B06D08023636500237E
:1043300084F83430012070BD05462268136823F0EC
:10434000160313602268536923F080035361236CC2
:10435000E3B12268136823F008031360226813682E
:1043600023F00103136023681B6813F0010F11D0C1
:10437000FFF76CFB431B052BF5D920236365032056
:1043800084F83500002384F83430D4E7A36C002B84
:10439000DFD1E3E7E26D3F239340B360012384F86C
:1043A0003530002084F83400C5E790F83530DBB2B2
:1043B000022B03D08023436501207047052380F83A
:1043C00035300268136823F0010313600020704742
:1043D000F0B583B0044600230193724B1D68724B05
:1043E000A3FB0535AD0A876D3E68C26D0823934077
:1043F000334210D003681A6812F0040F0BD01A6809
:1044000022F004021A60C26D08239340BB60436D22
:1044100043F001034365E26D01239340334209D029
:104420002268526912F0800F04D0BB60636D43F0C4
:1044300002036365E26D04239340334209D022688E
:10444000126812F0020F04D0BB60636D43F00403E6
:104450006365E26D10239340334224D022681268D2
:1044600012F0080F1FD0BB6023681A6812F4802F67
:104470000DD01B6813F4002F04D1236C9BB1204690
:10448000984710E0A36C73B1204698470BE01A6878
:1044900012F4807F03D11A6822F008021A60236C9C
:1044A0000BB120469847E26D20239340334255D00C
:1044B0002268126812F0100F50D0BB6094F83530AB
:1044C000DBB2052B0ED023681A6812F4802F33D08C
:1044D0001B6813F4002F2AD1636C002B3ED02046BA
:1044E00098473BE02268136823F0160313602268A4
:1044F000536923F080035361236CA3B122681368CE
:1045000023F008031360E26D3F239340BB60012357
:1045100084F83530002384F83430236D002B3FD0ED
:10452000204698473CE0A36C002BE7D1EBE7E36B18
:10453000A3B12046984711E01A6812F4807F09D190
:104540001A6822F010021A60012384F83530002323
:1045500084F83430E36B0BB120469847636DFBB1B0
:10456000636D13F0010F17D0052384F835302268EE
:10457000136823F001031360019B01330193AB42E5
:1045800004D823681B6813F0010FF5D1012384F8C8
:104590003530002384F83430E36C0BB12046984763
:1045A00003B0F0BD2C000020B5814E1B00230F2B63
:1045B00000F2F68070B582B066E085684FEA430E7F
:1045C000032404FA0EF425EA0405CC6804FA0EF478
:1045D0002C438460446824EA02044A68C2F300124F
:1045E0009A40224342605DE0DC08083450F8242001
:1045F00003F00705AD004FF00F0E0EFA05FE22EA9C
:104600000E0E0A69AA4042EA0E0240F824205DE03C
:10461000092200E0002202FA0EF22A430234614D20
:1046200045F82420604A94686FEA0C0224EA0C05DD
:104630004E6816F4801F01D04CEA04055A4CA56060
:10464000E46802EA04054E6816F4001F01D04CEA43
:104650000405554CE560646802EA04054E6816F4EA
:10466000003F01D04CEA04054F4C656024682240AD
:104670004D6815F4803F01D04CEA04024A4C226098
:1046800001330F2B00F28A8001229A400C6804EA61
:10469000020C32EA0404F3D14C6804F00304013C38
:1046A000012C8AD94A6802F00302032A09D0C4689F
:1046B0005D000322AA4024EA02048A68AA40224339
:1046C000C2604A6802F00302022A8DD004684FEAF1
:1046D000430E032202FA0EF224EA02044A6802F0B0
:1046E000030202FA0EF2224302604A6812F4403FCB
:1046F000C6D0002201922D4A546C44F48044546484
:10470000526C02F480420192019A9C08A51C254A31
:1047100052F8255003F0030E4FEA8E0E0F2202FAD4
:104720000EF225EA0205224A90423FF473AF02F5E9
:104730008062904222D002F58062904220D002F541
:10474000806290421ED002F5806290421CD002F539
:10475000806290421AD002F58062904218D002F531
:104760008062904216D002F58062904214D002F529
:10477000806290423FF44CAF0A224CE701224AE7A4
:10478000022248E7032246E7042244E7052242E7E3
:10479000062240E707223EE708223CE702B070BD50
:1047A000704700BF00380140003C01400038024023
:1047B000000002400AB181617047090481617047BD
:1047C0002DE9F04383B0D0F8008001EBC10300EB8A
:1047D00083039A6A5B6A9A4254D807460C469B1A2E
:1047E00001EBC10200EB8202D2699A4200D31A4661
:1047F00002F103094FEA990915E006F103094FEAAE
:104800009909BB7904EBC40507EB8505296A009378
:10481000B3B2E2B2404602F078FF2B6A33442B6217
:10482000AB6A3344AB6208EB441303F510639B6936
:104830009BB24B4512D304EBC40307EB83039A6A84
:104840005B6A9A420AD24BB19B1A04EBC40207EB93
:104850008202D6699E42D0D31E46CEE704EBC40343
:1048600007EB83077A6ABB6A9A420FD804F00F04F9
:104870000122A240D8F8343823EA0203C8F83438B9
:10488000002000E0012003B0BDE8F0830020FAE73B
:1048900030B583B000287AD00446056890F8953486
:1048A000C3B1032384F89534B5F1A04F17D0206825
:1048B00002F0DEFC237C8DF80030231D0ECB206837
:1048C00002F014FC70B1022384F8953401252846C7
:1048D00003B030BD80F8943406F084FDE1E7002396
:1048E000A371E4E70021206803F025F9024608B926
:1048F000034617E0022384F895340125E7E703EB2C
:10490000C30104EB8101012048750B75CB850020A4
:104910000876C861086203EBC30104EB81014862B9
:104920000133DBB220799842E9D816E002EBC203EA
:1049300004EB8303002183F8551283F8542283F893
:104940005812C3F85C12C3F8601202EBC20304EB06
:104950008303C3F864120132D2B29042E6D8237CBA
:104960008DF80030231D0ECB206802F0D7FC0546E1
:1049700020B1022384F895340125A8E7002363744D
:10498000012384F89534206803F094F89FE701250B
:104990009DE7036890F89424012A1AD010B50446C4
:1049A000012280F89424DA6812F0400F02D0427B92
:1049B000012A09D0206802F055FC206803F06CF849
:1049C000002084F8940410BD9A6B42F480329A63FC
:1049D000F0E702207047000070B504460D460068FD
:1049E000066C00EB411303F530639A68A179012945
:1049F00011D038498E4256D03DB905EBC50304EBC2
:104A00008303D3F86432002B5ED0E9B2204606F06F
:104A100033FD002070BD12F0080F09D02E498E42E0
:104A2000F7D912F4004FF4D04FF400429A60F0E747
:104A300012F0200F02D020229A60EAE712F0280F2D
:104A4000E7D125498E4206D912F4004F03D04FF426
:104A500000429A60DDE705EBC50204EB8202D2F862
:104A600074121B69C3F31203CB1AC2F868327DB902
:104A700005EBC50204EB8202D2F864226AB105EBB1
:104A8000C50204EB8202D2F860121944C2F8601227
:104A9000E9B2204606F0F0FCBBE704F29C4201219B
:104AA00003F088F8F4E712F4004F03D04FF400420B
:104AB0009A60AEE712F0200F01D020229A60E9B28E
:104AC000204606F0D9FCA4E704F29C42002103F042
:104AD00071F89AE70A31544F0A30544F38B50446FA
:104AE00003681D6C03EB4113D3F8081B0E4A954273
:104AF00007D903F5306311F4004F02D04FF40042A0
:104B00009A60204606F0B0FC074B9D4202D9A3797B
:104B1000012B01D0002038BD04F29C420121206805
:104B200003F048F8F6E700BF0A30544F90F8943489
:104B3000012B0CD010B50446012380F89434417445
:104B4000006802F099FF002084F8940410BD022050
:104B5000704738B505468C4611F0800F2BD101F017
:104B60000F0E0EEBCE04A40004F514740444211DB2
:104B70000EEBCE0E00EB8E0E00208EF855020CF0E0
:104B80000F0C81F800C0C2F30A028A600B714A78E8
:104B90000AB1A1F81AC0022B1CD095F89434012B4D
:104BA0001BD0012385F89434286802F092FC002081
:104BB00085F8940438BD01F00F0000EBC0018900B6
:104BC00010312944043100EBC00005EB80000124C2
:104BD0004475D4E700234B71DFE70220EAE710B504
:104BE00004460A4611F0800F20D101F00F0000EBBF
:104BF000C0039B0003F514732344191D00EBC00090
:104C000004EB8000002380F8553202F00F020A7096
:104C100094F89434012B18D0012384F8943420683C
:104C200002F0A4FC002084F8940410BD01F00F00F1
:104C300000EBC0039B0010332344191D00EBC000A0
:104C400004EB800001234375DFE70220EDE710B598
:104C5000144601F00F0C0CEBCC01890001F5147126
:104C6000014404310CEBCC0E00EB8E0ECEF860222A
:104C7000CEF864320023CEF868328EF855328EF8C2
:104C800054C28279012A04D0006802F055FD002048
:104C900010BDCEF87042F7E701F00F0101EBC10142
:104CA00000EB8100D0F86802704710B5144601F09F
:104CB0000F0C0CEBCC0189001031014404310CEBDA
:104CC000CC0E00EB8E0ECEF82020CEF82430002340
:104CD000CEF8283001238EF815308EF814C0827972
:104CE0009A4204D0006802F027FD002010BDCEF8E3
:104CF0003040F7E738B501F00F050279AA4238D302
:104D000004460B4611F0800F1FD101EBC101890051
:104D100001F514710144043103EBC30300EB830379
:104D2000002283F8552201238B700D7094F894347F
:104D3000012B20D0012384F89434206802F041FE36
:104D400085B1002084F8940438BD05EBC5018900C5
:104D500010310144043105EBC50300EB830301224C
:104D60005A75E0E704F29C42A179206802F022FF24
:104D7000E7E70120E8E70220E6E701F00F03027908
:104D80009A4230D310B5044611F0800F1ED103EBC8
:104D9000C301890001F514710144043103EBC3021E
:104DA00000EB8202002082F8550200228A700B700C
:104DB00094F89434012B18D0012384F8943420689B
:104DC00002F02CFE002084F8940410BD03EBC30114
:104DD000890010310144043103EBC30200EB82026D
:104DE00001205075E1E7012070470220EDE708B58A
:104DF00011F0800F0CD101F00F0101EBC10189000E
:104E000001F5147101440431006802F01FFC08BD73
:104E100001F00F0101EBC10189001031014404319F
:104E2000F2E72DE9F04F83B004460568284602F00A
:104E30007EFE10B103B0BDE8F08F0646206802F098
:104E400047FE0028F6D005F50067BB68C3F30D23C5
:104E5000C4F8D434206802F03BFE10F0020F04D0F6
:104E60002268536903F002035361206802F030FEA8
:104E700010F0100F15D02268936923F0100393618E
:104E8000D5F8208008F00F0908F4F013B3F5802F4F
:104E90004CD0B3F5402F6FD02268936943F01003D4
:104EA0009361206802F014FE10F4002F76D1206880
:104EB00002F00EFE10F4802F40F0E080206802F037
:104EC00007FE0028C0F26181206802F001FE10F4A4
:104ED000006F09D0BB6813F0010F40F06E812268AB
:104EE000536903F400635361206802F0F1FD10F48C
:104EF000805F40F06681206802F0EAFD10F4005FF8
:104F000040F0B381206802F0E3FD10F0080F40F09C
:104F1000C481206802F0DCFD10F0800F00F0D78122
:104F2000AB6923F08003AB610126C0E147F6F07363
:104F300018EA030FB0D04FEA181A4FEAC9030193D9
:104F400009EBC90B04EB8B0BC8F30A12DBF86012F8
:104F5000284602F013FDDBF86032CAF30A0A534414
:104F6000CBF86032DBF86832019A4A4404EB8202E3
:104F70005344C2F868328FE7082204F29C41284665
:104F800002F0FCFC09EBC90304EB8303D3F86822AD
:104F9000C8F30A184244C3F868227DE7206802F08B
:104FA0009BFD8046B14635E005EB49130122C3F86D
:104FB000082B49462046FFF70FFD3CE005EB49135F
:104FC0000822C3F8082B49462046FFF787FD35E045
:104FD00009EBC90304EB830393F85732012B41D04B
:104FE00005EB49130222C3F8082B1AF0200F04D056
:104FF00005EB49132022C3F8082B1AF4005F05D0F3
:1050000005EB49134FF40052C3F8082B09F10109CD
:105010004FEA5808B8F1000F3FF449AF18F0010FFC
:10502000F4D05FFA89FB5946206802F065FD82469C
:1050300010F0010FB8D11AF0080FBFD11AF0100FFD
:1050400004D005EB49131022C3F8082B1AF0020F05
:10505000CBD06B6913F0800FBAD07B6843F48063C8
:105060007B60B5E709EBC90304EB8303002283F8F7
:1050700057225946204606F04FFAB1E7206802F061
:1050800033FD8046B14625E05946204606F000FA39
:105090001AF0080F04D005EB49130822C3F80829B9
:1050A0001AF0100F04D005EB49131022C3F8082999
:1050B0001AF0400F04D005EB49134022C3F8082929
:1050C0001AF0020F40D11AF0800F59D109F10109ED
:1050D0004FEA5808B8F1000F3FF4F0AE18F0010F96
:1050E000F4D05FFA89FB5946206802F00EFD824633
:1050F00010F0010FCCD009F00F02012101FA02F2E9
:105100007B6B23EA02037B6305EB4913C3F80819A1
:10511000A3798B42B8D109EBC90304EB83031A6A64
:10512000D9690A441A62B9F1000FADD109EBC9037C
:1051300004EB83035B6A002BA6D104F29C4201219D
:10514000206802F037FD9FE74946284602F096F8AE
:1051500009EBC90304EB8303DB7D012B05D005EBD1
:1051600049130222C3F80829ADE709EBC90304EB90
:1051700083030022DA755946204606F0D3F9EEE79C
:1051800049462046FFF71CFBA0E77B6823F001039C
:105190007B6094F8CC34012B08D0204606F0B6F999
:1051A0002268536903F0004353618DE6002184F8BF
:1051B000CC14204600F03FF9F2E7204606F08EF9C5
:1051C0008DE67B6823F001037B601021206802F0EC
:1051D00055F81AE005EB46134FF67F31C3F808196E
:1051E000D3F8002922F40012C3F80029C3F8081BE1
:1051F000D3F8002B22F40012C3F8002BD3F8002BB5
:1052000042F00062C3F8002B01362379B342E1D8A3
:10521000FB6943F00113FB61E37BDBB1D7F884301A
:1052200043F00B03C7F884307B6C43F00B037B64C3
:10523000D5F8003823F4FE63C5F8003804F29C4228
:10524000A179206802F0B6FC2268536903F4805308
:10525000536150E67B6943F4005343F02B037B61B9
:105260003B6943F00B033B61E2E7206802F094FCEA
:10527000206802F01DF9E071266800F0DDFB0146B0
:10528000E279304601F07CFF204606F012F92268F0
:10529000536903F40053536134E6204606F003F9E2
:1052A0002268536903F00803536132E6013623791B
:1052B000B3420CD906EBC60304EB830393F85732D1
:1052C000012BF3D1F1B22046FFF791FDEEE7206804
:1052D00002F0FEFB10F4801F25D1206802F0F8FBDD
:1052E00010F4001F59D0012326E001362379B34280
:1052F0001BD905EB4613D3F8002906EBC60304EBD4
:1053000083031B7E012BF0D1002AEEDA06EBC603E5
:1053100004EB83030122DA7566F07F01C9B22046EF
:10532000FFF765FDE1E70126E0E72268536903F432
:1053300080135361D1E7013322799A4228D905EBD2
:105340004312D2F8001B03EBC30204EB820292F873
:105350005822012AEFD10029EDDA01F48031D4F886
:10536000D42402F001029142E5D103EBC30204EB25
:105370008202012182F85712AA6942F08002AA61D2
:105380006A6912F0800FD6D17B6843F400737B60AA
:105390002268536903F400135361206802F098FBFC
:1053A00010F0804F10D1206802F092FB10F0040F33
:1053B0003FF440AD23685D6815F0040F0DD12268FD
:1053C00053682B43536035E5204606F0B1F8226858
:1053D000536903F080435361E5E7204606F0AEF8D9
:1053E000EDE710B40468606A31B940EA0240A06297
:1053F00000205DF8044B70478C46A36A00EB134015
:10540000002308E003F1400104EB8101496800EB4F
:1054100011400133DBB20CF1FF318B42F2D340EA91
:1054200002400CF13F0104EB81046060E0E7036897
:105430005962002070477047002800F0E08170B585
:1054400082B00446036813F0010F3BD09F4B9B686A
:1054500003F00C03042B2CD09C4B9B6803F00C0333
:10546000082B21D06368B3F5803F4FD0B3F5A02F50
:1054700052D0964B1A6822F480321A601A6822F4CD
:1054800080221A606368002B50D0FEF7DFFA0546D1
:105490008E4B1B6813F4003F14D1FEF7D7FA401B64
:1054A0006428F5D90320B1E1884B5B6813F4800FC1
:1054B000D8D0864B1B6813F4003F03D06368002BE1
:1054C00000F09F81236813F0020F54D07F4B9B683C
:1054D00013F00C0F3ED07D4B9B6803F00C03082BA0
:1054E00033D0E368002B68D0794B01221A60FEF7B5
:1054F000ADFA0546754B1B6813F0020F54D1FEF749
:10550000A5FA401B0228F5D903207FE16F4A1368F2
:1055100043F480331360B5E76C4B1A6842F4802281
:105520001A601A6842F480321A60ABE7FEF78EFA0E
:105530000546664B1B6813F4003FC3D0FEF786FA9E
:10554000401B6428F5D9032060E1604B5B6813F4CD
:10555000800FC6D15D4B1B6813F0020F03D0E368C8
:10556000012B40F05081594A136823F0F803216958
:1055700043EAC1031360236813F0080F42D0636944
:105580006BB3534B0122C3F8802EFEF75FFA05463A
:105590004E4B5B6F13F0020F34D1FEF757FA401BEE
:1055A0000228F5D9032031E1484A136823F0F803B3
:1055B000216943EAC1031360DDE7454B00221A600D
:1055C000FEF744FA0546414B1B6813F0020FD2D098
:1055D000FEF73CFA401B0228F5D9032016E13C4BAC
:1055E0000022C3F8802EFEF731FA0546374B5B6F79
:1055F00013F0020F06D0FEF729FA401B0228F5D956
:10560000032003E1236813F0040F77D02F4B1B6CAA
:1056100013F0805F33D1002301932C4B1A6C42F0BE
:1056200080521A641B6C03F080530193019B012587
:10563000284B1B6813F4807F23D0A368012B34D040
:10564000052B38D0214B1A6F22F001021A671A6F0E
:1056500022F004021A67A368002B3DD0FEF7F6F98A
:1056600006461A4B1B6F13F0020F46D1FEF7EEF9F8
:10567000801B41F288339842F3D90320C6E000250D
:10568000D6E7144A136843F480731360FEF7DEF91B
:105690000646104B1B6813F4807FCED1FEF7D6F977
:1056A000801B0228F5D90320B0E0084A136F43F0AD
:1056B00001031367CFE7054B1A6F42F004021A6724
:1056C0001A6F42F001021A67C5E700BF00380240B6
:1056D0000000474200700040FEF7B8F90646524B02
:1056E0001B6F13F0020F08D0FEF7B0F9801B41F2D8
:1056F00088339842F3D9032088E0EDB9A369002BE1
:1057000000F08380484A926802F00C02082A51D0C7
:10571000022B17D0454B00221A66FEF797F9044674
:10572000414B1B6813F0007F42D0FEF78FF9001B3E
:105730000228F5D9032069E03B4A136C23F080531B
:105740001364DBE7394B00221A66FEF77FF9054642
:10575000354B1B6813F0007F06D0FEF777F9401B2E
:105760000228F5D9032051E0E369226A1343626AF3
:1057700043EA8213A26A5208013A43EA0243E26A08
:1057800043EA0263284A5360284B01221A66FEF757
:105790005DF90446244B1B6813F0007F06D1FEF729
:1057A00055F9001B0228F5D903202FE000202DE039
:1057B00000202BE0012B2BD01B4B5B6803F48001F6
:1057C000E269914226D103F03F02216A8A4223D145
:1057D000616A47F6C0721A40B2EB811F1ED103F412
:1057E0004031A26A5208013AB1EB024F18D103F0DE
:1057F0007063E26AB3EB026F14D1002006E001206F
:105800007047012002E0012000E0002002B070BDDE
:105810000120FBE70120F9E70120F7E70120F5E788
:105820000120F3E70120F1E7003802400000474281
:1058300008B5264B9B6803F00C03042B41D0082BC2
:1058400041D1224B5A6802F03F025B6813F4800F8B
:1058500012D01E4B5968C1F388111D480023A1FBCB
:105860000001FBF703F9194B5B68C3F301430133F4
:105870005B00B0FBF3F008BD144B5868C0F3881010
:105880004FEA401CBCEB000C6EEB0E0E4FEA8E1381
:1058900043EA9C634FEA8C11B1EB0C0163EB0E03FE
:1058A000DB0043EA5173C90011EB000C43F1000324
:1058B000990200234FEA8C2041EA9C51FBF7D6F86D
:1058C000D1E70348D7E70348D5E700BF00380240D7
:1058D000001BB7000024F400002800F09B8070B586
:1058E0000D4604464F4B1B6803F00F038B4208D252
:1058F000CBB24C4A1370136803F00F038B4240F095
:105900008B80236813F0020F17D013F0040F04D01C
:10591000454A936843F4E0539360236813F0080FFB
:1059200004D0414A936843F4604393603E4A9368CD
:1059300023F0F003A1680B439360236813F0010F79
:1059400032D06368012B21D09A1E012A25D9364A0C
:10595000126812F0020F61D033498A6822F0030204
:1059600013438B60FEF772F806462F4B9B6803F0DB
:105970000C036268B3EB820F16D0FEF767F8801B4A
:1059800041F288339842F0D9032042E0264A126857
:1059900012F4003FE0D101203BE0234A126812F0EC
:1059A000007FD9D1012034E01E4B1B6803F00F03A8
:1059B000AB4207D9EAB21B4B1A701B6803F00F0306
:1059C000AB422DD1236813F0040F06D0164A93681A
:1059D00023F4E053E1680B439360236813F0080F4E
:1059E00007D0114A936823F46043216943EAC10355
:1059F0009360FFF71DFF0C4B9B68C3F303130B4A27
:105A0000D35CD8400A4B18600A4B1868FDF7BEFA01
:105A1000002070BD012070470120FAE70120F8E75F
:105A20000120F6E7003C0240003802400CB70108B4
:105A30002C00002034000020014B1868704700BF84
:105A40002C00002008B5FFF7F7FF044B9B68C3F359
:105A50008223034AD35CD84008BD00BF003802400F
:105A600004B7010808B5FFF7E7FF044B9B68C3F3D1
:105A70004233034AD35CD84008BD00BF003802401F
:105A800004B701080F2303600B4B9A6802F003026E
:105A900042609A6802F0F00282609A6802F4E05272
:105AA000C2609B68DB0803F4E0530361034B1B688F
:105AB00003F00F030B60704700380240003C0240C7
:105AC000704770477047704770477047704770471E
:105AD00008B5806B0023C387C386036F984708BD52
:105AE00000286ED010B50446436A33B94368B3F555
