:020000040800F2
:10000000000003209D1F00089516000897160008A1
:10001000991600089B1600089D16000800000000B5
:100020000000000000000000000000002177000830
:100030009F16000800000000C1770008DD7100086D
:10004000ED1F0008ED1F0008ED1F0008ED1F000860
:10005000ED1F0008ED1F0008ED1F0008ED1F000850
:10006000ED1F0008ED1F0008ED1F0008A116000895
:10007000B1160008ED1F0008C1160008D1160008CF
:10008000ED1F0008E1160008ED1F0008F11600083A
:1000900001170008ED1F0008ED1F0008ED1F000804
:1000A000ED1F0008ED1F0008ED1F0008ED1F000800
:1000B000ED1F0008ED1F0008ED1F0008ED1F0008F0
:1000C000ED1F0008ED1F0008ED1F0008ED1F0008E0
:1000D000ED1F000811170008ED1F00082117000888
:1000E000ED1F0008ED1F0008ED1F0008ED1F0008C0
:1000F000ED1F0008ED1F0008ED1F0008ED1F0008B0
:10010000ED1F0008ED1F0008ED1F0008ED1F00089F
:10011000ED1F0008ED1F0008ED1F00083117000853
:10012000ED1F00084117000851170008611700086B
:1001300071170008ED1F0008ED1F00088117000867
:10014000ED1F000891170008ED1F0008A117000817
:10015000ED1F0008B1170008ED1F0008C1170008C7
:10016000ED1F0008ED1F0008ED1F0008ED1F00083F
:10017000ED1F0008ED1F0008ED1F00080000000043
:10018000ED1F0008ED1F0008D1170008E117000857
:10019000ED1F0008F1170008ED1F0008ED1F000813
:0C01A0000000000000000000ED1F00083F
:1001B00053B94AB9002908BF00281CBF4FF0FF31CE
:1001C0004FF0FF3000F00CB8ADF1080C6DE904CE33
:1001D00009F0FEFCDDF804E0DDE9022304B070471D
:1001E000704700BF844641EA000313F003036DD15A
:1001F000403A41D351F8043B40F8043B51F8043BEA
:1002000040F8043B51F8043B40F8043B51F8043BF0
:1002100040F8043B51F8043B40F8043B51F8043BE0
:1002200040F8043B51F8043B40F8043B51F8043BD0
:1002300040F8043B51F8043B40F8043B51F8043BC0
:1002400040F8043B51F8043B40F8043B51F8043BB0
:1002500040F8043B51F8043B40F8043B51F8043BA0
:1002600040F8043B51F8043B40F8043B51F8043B90
:1002700040F8043B403ABDD2303211D351F8043B30
:1002800040F8043B51F8043B40F8043B51F8043B70
:1002900040F8043B51F8043B40F8043B103AEDD2DF
:1002A0000C3205D351F8043B40F8043B043AF9D230
:1002B000043208D0D2071CBF11F8013B00F8013B03
:1002C00001D30B8803806046704700BF082A13D310
:1002D0008B078DD010F003038AD0C3F10403D21A28
:1002E000DB071CBF11F8013B00F8013B80D331F85C
:1002F000023B20F8023B7BE7043AD9D3013A11F8DC
:10030000013B00F8013BF9D20B7803704B78437046
:100310008B788370604670470348044B834202D059
:10032000034B03B1184770475806002058060020B9
:10033000000000000548064B1B1AD90F01EBA30172
:10034000491002D0034B03B11847704758060020EC
:10035000580600200000000010B5064C237843B971
:10036000FFF7DAFF044B13B10448AFF30080012319
:10037000237010BD5806002000000000D0A3000824
:1003800008B5054B1BB105490548AFF30080BDE832
:100390000840FFF7CFBF00BF000000005C06002050
:1003A000D0A3000810B5044C204601F0A3FF0321A0
:1003B000204602F0F7F810BDE80A002010B5044C02
:1003C000204601F097FF0321204602F0EBF810BD14
:1003D000C00A0020034B08221A6100229A60DA60EA
:1003E000704700BF90060020034B08221A610022CC
:1003F0009A60DA60704700BF78060020054B012242
:100400001A629A610021D9610E2058621961024B6B
:100410001A7070479008002075060020054B0122D5
:100420001A629A610021D9610E2159621A61024B48
:100430001A707047680800207406002030B583B039
:1004400002AB03E90300174C2268930816494B617D
:1004500002F00300154B019D43F820501448009D05
:1004600040F822501A6852014A605A685201CA6024
:100470009A6852010A60DB685B018B600D4801F0ED
:100480009DFE236803F00302032A04D00133054ACA
:10049000136003B030BD054A0021116051609160C6
:1004A000D160F3E7B808002090080020C0080020C1
:1004B000A8060020E80A002008B5064B834204D0B5
:1004C000054B186806F0BEFF08BD044B186806F01F
:1004D000B9FFF9E7E80A0020100B0020140B0020F8
:1004E00008B5FFF7E9FF08BD08B5FFF7E5FF08BD50
:1004F00008B5FFF7E1FF08BD00B58BB001AB03AA5B
:10050000002101F09AFF07F01DF9099A044B53F8F6
:10051000223001A8984707F037F90BB05DF804FBCB
:10052000A806002000B58BB001AB03AA012101F0A1
:1005300084FF07F007F9099B3833054A52F8233046
:1005400001A8984707F020F90BB05DF804FB00BF45
:10055000A806002010B5044605F006F8E36B1A68FB
:10056000136823F00803136010BD000030B52DEDB3
:10057000028B83B09FED288A284C294D00950123DA
:10058000F0EE480AB0EE480A40F20122002120466F
:1005900000F048F800950123F0EE480AB0EE480A52
:1005A00040F20222002104F14C0000F03BF80095DB
:1005B0000123F0EE480AB0EE480A40F20322194641
:1005C00004F1980000F02EF800950123F0EE480A9F
:1005D000B0EE480A4FF40172194604F1E40000F04D
:1005E00021F804F1140393E80300FFF727FF04F157
:1005F000600393E80300FFF721FF04F1AC0393E8E5
:100600000300FFF71BFFF83494E80300FFF716FF21
:1006100003B0BDEC028B30BD00000000E0080020FC
:10062000E80A002030B4029C0025057404601D4DCA
:10063000AC4201D00124446080F8491080F8483071
:100640008261591EC9B201290AD9032B19D080ED44
:100650000F0AC0ED100A002380F84A3030BC704702
:10066000B2F5017F06D8A2F201225200C260002337
:100670008360ECE7A2F205225200C260012383608E
:10068000E5E7B2F5027F06D8A2F205225200C26069
:1006900001238360DBE7A2F209225200C260022339
:1006A0008360D4E7E80A0020014B00225A717047AA
:1006B000100A0020034B5B79C72B02D80133014A93
:1006C00053717047100A0020054B5B79962B03D9B4
:1006D000034B00221A717047014B01221A717047B7
:1006E000100A00200346002848D001784278120200
:1006F00002F4E0621143224A518540789978490119
:1007000041EAD001C1F30A019185987893F803C0BA
:100710001979890241EA8C0109B241EA9011C1F3C9
:100720000A01D18518795979C90141EA5001C1F30B
:100730000A0111865979890951865979C1F3011144
:1007400091869979D87941EA0021D186197A587A27
:1007500041EA00211187997AD87A41EA002151872C
:10076000197B82F83C10597B82F83D10997BD18728
:10077000197C5B7C41EA0323A2F84030704700BF3C
:10078000100A002038B52DED028B06F0DBFF914DED
:1007900005F1700405F1440CBCE80F000FC4BCE87F
:1007A0000F000FC49CE8070084E807006B8DA3F5D9
:1007B0007B7292B2282A00F2C3804FF480626A856D
:1007C000844B9B8DA3F57B7292B2282A00F2C280E3
:1007D000804B4FF480629A857E4BDB8DA3F57B7254
:1007E00092B2282A00F2C0807A4B4FF48062DA85F8
:1007F000784B1B8EA3F57B7292B2282A00F2BE8042
:10080000744B4FF480621A86724C638D07EE903AF7
:10081000F8EE677ADFED708A77EEE87A9FED6F8AFF
:1008200087EE880A84ED130AF7EE000A09F0BCF996
:1008300084ED130AA38D07EE903AF8EE677A77EE0F
:10084000E87A87EE880A84ED140AF7EE000A09F0C8
:10085000ABF984ED140AE38D07EE903AF8EE677A6F
:1008600077EEE87A87EE880A84ED110AF7EE000A3F
:1008700009F09AF984ED110A238E07EE903AF8EE0A
:10088000677A77EEE87A87EE880A84ED120AF7EE47
:10089000000A09F089F984ED120A94F8343084F8DA
:1008A000543094F8323084F85530B4F9363007EECD
:1008B000903AF8EEE77A9FED4A7AC7EE876A16EE2D
:1008C000903AC4F85630B4F9383007EE903AF8EE62
:1008D000E77A87EE876A16EE103AC4F85A30B4F910
:1008E0003A3007EE903AF8EEE77AF3EE045A87EEE4
:1008F000A57A17EE103AC4F85E3094F83D3084F8CB
:10090000633094F83C3084F86230E38FA4F86430AC
:10091000002B3DD1B4F86230D3BBF5EE406AF1EE66
:1009200010FA35D1B5EE406AF1EE10FA30D1B5EEDD
:10093000407AF1EE10FA2BD1002284F86C202BE0E3
:10094000A3F5B6739BB2B3F5A56F7FF639AF06F08A
:100950001BFF3CE0A3F5B6739BB2B3F5A56F7FF622
:100960003BAF06F011FF32E0A3F5B6739BB2B3F5CF
:10097000A56F7FF63DAF06F007FF28E0A3F5B6733D
:100980009BB2B3F5A56F7FF63FAF06F0FDFE1EE00C
:10099000104B012283F86C200E4CB4F8403007EE67
:1009A000903AF8EE677AF1EE677A9FED0B7A77EE80
:1009B000C77A9FED0A7A87EE870A84ED1A0AF7EE66
:1009C000000A09F0F1F884ED1A0A06F0DDFEBDEC2C
:1009D000028B38BD100A002000008044000025442E
:1009E0000000FA4308B506F0ADFE784BB3F890204E
:1009F000D04300B2B3F86410B3F964C00140A3F867
:100A0000A01022EA0C02A3F89E2093F88E302BB996
:100A10006E4A92F862205AB9002100E000216B4A28
:100A200082F8A51033B192F8623083B1002202E05F
:100A30000121F4E70022654B83F8A42093F88F305E
:100A40003BB9624A92F863206AB9002102E00122B0
:100A5000F1E700215D4A82F8A31033B192F86330C8
:100A600003BB002202E00121F4E70022574B83F888
:100A7000A22093F85530012B16D0032B26D0032B40
:100A800036D0022B46D0514B93F85430012B53D023
:100A9000032B63D0032B73D0022B00F0838006F06E
:100AA00073FE08BD0122E1E7484A92F88120032A3B
:100AB000E3D1464AB2F89C3023F0F0039BB2A2F88F
:100AC0009C3043F02003A2F89C30DCE73F4A92F8C8
:100AD0008120012AD3D13D4AB2F89C3023F0F003A3
:100AE0009BB2A2F89C3043F01003A2F89C30CAE7F6
:100AF000364A92F88120022AC3D1344AB2F89C3097
:100B000023F0F0039BB2A2F89C3043F08003A2F8DC
:100B10009C30B8E72D4B93F88130032BB3D12B4A8F
:100B2000B2F89C3023F0F0039BB2A2F89C3043F063
:100B30004003A2F89C30A6E7244A92F88020032ABA
:100B4000A6D1224AB2F89C3023F00F039BB2A2F840
:100B50009C3043F00203A2F89C30A0E71B4A92F8B5
:100B60008020012A96D1194AB2F89C3023F00F0355
:100B70009BB2A2F89C3043F00103A2F89C308EE7B0
:100B8000124A92F88020022A86D1104AB2F89C308C
:100B900023F00F039BB2A2F89C3043F00803A2F8A5
:100BA0009C307CE7094B93F88030032B7FF477AFC0
:100BB000064AB2F89C3023F00F039BB2A2F89C3097
:100BC00043F00403A2F89C3069E700BF100A00203C
:100BD00008B5FFF7CBFC08BD08B5FFF7F9FFFEE746
:100BE00008B5FFF7DFFBFFF7F5FBFFF707FC08BDD4
:100BF00000B585B0FFF7F4FF4FF0FF310B4B1868DD
:100C000006F0ECFB4FF0FF33002202A90848006811
:100C100006F092FC0749039B0B6001AB029A064861
:100C200001F096FB012006F072FBE5E7140B0020B3
:100C3000300B002090060020E80A002008B5FFF7DE
:100C4000BDFBFFF7D1FBFFF7E9FB08BD00B585B0A1
:100C5000FFF7F4FF4FF0FF310B4B186806F0BEFBB7
:100C60004FF0FF33002202A90848006806F064FC38
:100C70000749039B0B6001AB029A064801F068FB31
:100C8000012006F044FBE5E7100B00202C0B0020B0
:100C900078060020C00A002008B5044B186806F04A
:100CA000D1FB0348FFF71EFD08BD00BF280B002045
:100CB000160A002010B5094C09482060094904F0C3
:100CC0003BFA214651F8060B1222FFF743FC0021A4
:100CD0002171054B186806F081FB10BD100A002039
:100CE00040110020990C0008280B002008B5FFF7E0
:100CF000E1FF0EE0104A136801331360FFF7D4FCE4
:100D0000FFF740FDFFF76EFEFFF7DEFC012006F067
:100D1000FEFA0A49122251F8060CFFF71BFC1421B7
:100D2000074B186806F05AFB064B18600028E1D004
:100D3000FFF7C0FCE8E700BF580B0020160A0020B0
:100D4000280B0020B80A002008B50E480E4B03609F
:100D50000323436000228260C2604FF4C02303611A
:100D60004FF4A00343610276012343768376C37672
:100D70000277437701F07CF900B908BD00F0F0FA82
:100D8000FBE700BFE80A00200064004008B50E48F9
:100D90000E4B03600323436000228260C2604FF465
:100DA000C02303614FF4A00343610276012343761D
:100DB0008376C3760277437701F05AF900B908BD0C
:100DC00000F0CEFAFBE700BFC00A00200068004038
:100DD00010B58AB0002305930693079308930993EF
:100DE0000368464A934204D0454A93423CD00AB035
:100DF00010BD444A136801331360012B27D000242F
:100E00000194414B1A6B42F008021A631B6B03F00A
:100E100008030193019B0323059302220692089382
:100E20000923099305A9394801F0C8FF2246052185
:100E3000132001F04DFD132001F05AFD224605213B
:100E4000142001F045FD142001F052FDCFE70023EE
:100E500000932D4B1A6C42F000721A641B6C03F065
:100E600000730093009BCAE700230293264B1A6C81
:100E700042F080621A641B6C03F080630293029B51
:100E8000204A136801331360012B29D000240494F5
:100E90001D4B1A6B42F002021A631B6B03F0020334
:100EA0000493049B4FF440530593022306930323BA
:100EB00008930923099305A9154801F07FFF2246ED
:100EC00005213F2001F004FD3F2001F011FD2246E5
:100ED0000521412001F0FCFC412001F009FD86E7DD
:100EE00000230393084B1A6C42F000721A641B6CC7
:100EF00003F000730393039BC8E700BF0064004046
:100F000000680040BC0A002000380240000C02408B
:100F10000004024010B582B000240094324B1A6BDA
:100F200042F480021A631A6B02F480020092009A63
:100F300001941A6B42F400121A631B6B03F4001342
:100F40000193019B224605210B2001F0C1FC0B20DF
:100F500001F0CEFC224605210C2001F0B9FC0C204A
:100F600001F0C6FC224605210E2001F0B1FC0E2046
:100F700001F0BEFC224605210F2001F0A9FC0F2044
:100F800001F0B6FC22460521112001F0A1FC112040
:100F900001F0AEFC22460521392001F099FC3920F0
:100FA00001F0A6FC224605213A2001F091FC3A20EE
:100FB00001F09EFC224605213B2001F089FC3B20EC
:100FC00001F096FC224605213C2001F081FC3C20EA
:100FD00001F08EFC22460521452001F079FC4520D8
:100FE00001F086FC02B010BD0038024008B508F0E0
:100FF0009BFB012006F08BF9FBE708B5012006F00A
:1010000086F9FBE708B5354A0121084606F08DF957
:10101000334B1860334A0121084606F086F9324BFB
:101020001860324A0121084606F07FF9304B1860FB
:10103000304A0121084606F078F92F4B18602F4AF4
:101040000121084606F071F92D4B18602D4A002148
:10105000032006F06AF92C4B18602C4A002103206B
:1010600006F063F92A4B18602A4A0821202006F06E
:1010700018FA294B1860294A0821202006F011FA95
:10108000274B1860274A0021274806F0E1F8274B34
:101090001860274A0021274806F0DAF8264B186026
:1010A000264A0021264806F0D3F8264B1860264A27
:1010B0000021264806F0CCF8254B1860254A00216F
:1010C000254806F0C5F8254B1860254A002125481B
:1010D00006F0BEF8244B186008BD00BFBCA5000890
:1010E000280B0020ACA50008240B00209CA50008BC
:1010F000200B00208CA500081C0B00207CA50008FC
:10110000180B00206CA50008140B00205CA500083B
:10111000100B0020E4A50008300B0020CCA500082F
:101120002C0B0020B0A60008ED0F0008480B002093
:101130008CA60008ED0C0008440B002068A60008EF
:10114000F10B0008400B002044A600084D0C0008DD
:101150003C0B002020A60008D90B0008380B00200B
:10116000FCA50008FB0F0008340B00202DE9F04F10
:101170008FB0002409940A940B940C940D9400945D
:10118000614B1A6B42F010021A631A6B02F01002E4
:101190000092009A01941A6B42F002021A631A6BD1
:1011A00002F002020192019A02941A6B42F040028C
:1011B0001A631A6B02F040020292029A03941A6BAD
:1011C00042F001021A631A6B02F001020392039AC1
:1011D00004941A6B42F008021A631A6B02F00802B8
:1011E0000492049A05941A6B42F480721A631A6B83
:1011F00002F480720592059A06941A6B42F08002FE
:101200001A631A6B02F080020692069A07941A6B10
:1012100042F020021A631A6B02F020020792079A2A
:1012200008941A6B42F004021A631B6B03F0040368
:101230000893089B354E224641F27001304601F07A
:10124000C1FEDFF8CCB022460521584601F0BAFEB7
:10125000DFF8C0A0224644F24001504601F0B2FE41
:10126000DFF8B49022464FF4C051484601F0AAFE80
:10127000DFF8A88022461121404601F0A3FE01229A
:101280004FF40061304601F09DFE41F27003099376
:1012900001250A950B9502270C9709A9304601F004
:1012A0008DFD052309930A950B940C9409A95846C2
:1012B00001F084FD44F2400309930A950B940C94C9
:1012C00009A9504601F07AFD4FF4C05309930A95DD
:1012D0000B940C9709A9484601F070FD112309935E
:1012E0000A950B950C9709A9404601F067FD4FF44C
:1012F000006309930A950B940C9409A9304601F0F8
:101300005DFD0FB0BDE8F08F0038024000100240D4
:101310000020024000140240001C0240000802406D
:1013200008B50748074B03600423436040F271236C
:10133000836001F04DFE00B908BD00F011F8FBE735
:101340004C0B00200030004008B50268034B9A4265
:1013500000D008BD00F066FEFBE700BF00140040AF
:1013600072B6FEE700B595B03022002108A808F05B
:101370008DFD002303930493059306930793019334
:10138000214A116C41F080511164126C02F08052BC
:101390000192019A02931D4B1A6842F440421A606E
:1013A0001B6803F440430293029B092308934FF404
:1013B0008033099301230D9302230E934FF480028F
:1013C0000F9206221092A8221192129307231393D0
:1013D00008A802F065FC98B90F2303930223049335
:1013E000002305934FF4A05306934FF480530793C3
:1013F000052103A802F0A4FE20B915B05DF804FB96
:10140000FFF7AEFFFFF7ACFF00380240007000406E
:1014100008B500F0EDFDFFF7A5FFFFF7A7FEFFF70A
:1014200079FD00F057FB00F0D7FAFFF78DFCFFF7CE
:10143000ADFCFFF775FF00F017F800F08BFA00F035
:1014400015FB00F02DFB00F065FB00F07DFB054B6C
:1014500000221A6005F0CEFEFFF7D4FD05F0DCFE99
:10146000FEE700BF580B002008B50E480E4B036086
:101470004FF48273436000238360C3600361436160
:101480004FF4007282613022C26103624362836260
:101490000A23C36202F048FF00B908BDFFF760FFEE
:1014A000FBE700BF1C0C00200050014030B589B0A4
:1014B0000023039304930593069307930268354B27
:1014C0009A4201D009B030BD04460025019503F5CC
:1014D00068435A6C42F480125A645A6C02F48012C7
:1014E0000192019A02951A6B42F020021A631B6B5B
:1014F00003F020030293029B4FF4607303930223D3
:101500000493032306930523079303A9224801F0BC
:1015100055FC2248224B03604FF080634360856096
:10152000C5604FF48063036145618561C5614FF417
:1015300000330362456201F05BFA28BB174BE3649A
:101540009C631848184B03604FF08063436040234E
:1015500083600023C3604FF4806202614361836152
:10156000C3614FF400320262436201F041FA70B984
:101570000C4BA3649C6300220521552001F0A8F9BF
:10158000552001F0B5F99DE7FFF7EAFED6E7FFF732
:10159000E7FEEDE70050014000140240BC0B0020C4
:1015A000586402405C0B00207064024000B583B0B8
:1015B000002200920D4B596C41F480415964596CE2
:1015C00001F48041009100990192196C41F0805121
:1015D00019641B6C03F080530193019B0F216FF082
:1015E000010001F075F903B05DF804FB003802401A
:1015F00030B589B0044600230193214B1A6C42F0A8
:1016000020021A641B6C03F020030193019B02A9C2
:1016100003A802F06BFE069BCBB902F047FE03461F
:10162000184AA2FB03239B0C013B1748174A026090
:1016300040F2E732C260436000230361836083614C
:1016400003F098F9054630B1284609B030BD02F0E4
:101650002DFE4300E4E70C4803F028F80546002877
:10166000F2D1372001F044F90F2C01D90125EBE725
:1016700000222146372001F02BF9054B1C60E3E7DF
:101680000038024083DE1B43740C0020001400402D
:1016900008000020FEE7FEE7FEE7FEE7FEE77047F2
:1016A00008B5024801F09CFA08BD00BF300F0020C9
:1016B00008B5024801F094FA08BD00BF700E002082
:1016C00008B5024801F08CFA08BD00BFF00F0020F9
:1016D00008B5024801F084FA08BD00BF100E0020D2
:1016E00008B5024801F07CFA08BD00BF900F002049
:1016F00008B5024800F070FF08BD00BFE80A0020EE
:1017000008B5024800F068FF08BD00BFE80A0020E5
:1017100008B5024803F032FD08BD00BF40110020AB
:1017200008B5024803F02AFD08BD00BFC81000201C
:1017300008B5024803F002F808BD00BF740C002091
:1017400008B5024801F04CFA08BD00BFB00D0020FA
:1017500008B5024801F044FA08BD00BFD00E0020D1
:1017600008B5024801F03CFA08BD00BFBC0B0020E0
:1017700008B5024801F034FA08BD00BF5C0B002038
:1017800008B5024800F028FF08BD00BFC00A0020CD
:1017900008B5024800F020FF08BD00BFC00A0020C5
:1017A00008B5024801F071FF08BD00BF8465012043
:1017B00008B5024801F014FA08BD00BF500D002022
:1017C00008B5024803F0DAFC08BD00BF5010002045
:1017D00008B5024803F0D2FC08BD00BF301200205B
:1017E00008B5024803F0CAFC08BD00BFB8110020CC
:1017F00008B5024802F0F8FD08BD00BF1C0C00202F
:1018000010B503460C4A0D490D48006840B10C481C
:1018100000680344521A934206D8094A136010BD67
:101820000748084C0460F2E708F0B8FB0C2303609B
:101830004FF0FF30F3E700BF00000320000400007A
:10184000BC0C0020706D0120034AD2F8883043F4AC
:101850007003C2F88830704700ED00E00268094B61
:101860009A4200D0704782B000230193064B1A6C55
:1018700042F002021A641B6C03F002030193019B05
:1018800002B0704700040040003802400268094B73
:101890009A4200D0704782B000230193064B1A6C25
:1018A00042F040021A641B6C03F040030193019B59
:1018B00002B07047001800400038024000B589B0FF
:1018C00000230393049305930693079303681C4A2C
:1018D000934205D01B4A93421BD009B05DF804FB2C
:1018E00000230193184B1A6B42F002021A631B6B20
:1018F00003F002030193019B20230393022304932B
:10190000012205920693079303A9104801F056FAA5
:10191000E3E7002302930C4B1A6B42F080021A6338
:101920001B6B03F080030293029B4023039302236B
:1019300004930923079303A9054801F03FFACCE774
:10194000000400400018004000380240000402403B
:10195000001C024000B58BB000230893099301934B
:101960000293039304930593069307931848194A27
:1019700002604360836042F20F72C2600361836160
:1019800003F024F8D0B900230893099308A910485C
:1019900003F07AF9A8B9602301930023029303931B
:1019A000059304220DEB0201094803F073F858B9BE
:1019B0000748FFF783FF0BB05DF804FBFFF7D0FC8F
:1019C000E1E7FFF7CDFCE6E7FFF7CAFCF0E700BF71
:1019D000080D00200004004000B58DB000230893DE
:1019E00009930A930B930193029303930493059332
:1019F000069307931B481C4A02605322426083608F
:101A000040F27112C2600361836102F0B3FFE0B97A
:101A10004FF48053089308A9124803F0B6F8B8B9F8
:101A2000104802F0D3FFB0B9602301930022029264
:101A30000392059201A90B4803F02CF870B90948EC
:101A4000FFF73CFF0DB05DF804FBFFF789FCDFE713
:101A5000FFF786FCE4E7FFF783FCE5E7FFF780FC90
:101A6000EDE700BFC00C00200018004008B50A4890
:101A70000A4B03604FF4E123436000238360C3609B
:101A800003610C2242618361C36103F0DFFC00B992
:101A900008BDFFF765FCFBE730120020007800402E
:101AA00008B50A480A4B03604FF4E1334360002352
:101AB0008360C36003610C2242618361C36103F0F0
:101AC000C5FC00B908BDFFF74BFCFBE7B8110020CF
:101AD000007C004008B50C480C4B03600C4B436085
:101AE0004FF4805383600023C3604FF4806202612F
:101AF0000C2242618361C36103F0A8FC00B908BDF8
:101B0000FFF72EFCFBE700BF401100200010014052
:101B1000A086010008B50A480A4B03604FF4E13380
:101B2000436000238360C36003610C2242618361D0
:101B3000C36103F08BFC00B908BDFFF711FCFBE7A4
:101B4000C81000200048004008B50A480A4B03604E
:101B50004FF4E133436000238360C36003610C22D0
:101B600042618361C36103F071FC00B908BDFFF7F6
:101B7000F7FBFBE7501000200014014030B591B096
:101B8000044600230B930C930D930E930F9303685D
:101B9000824A934210D0824A934254D0814A93425F
:101BA00000F0B580804A934200F018817F4A93424A
:101BB00000F07A8111B030BD002501957C4B1A6C84
:101BC00042F080421A641A6C02F080420192019A3B
:101BD00002951A6B42F010021A631B6B03F010039C
:101BE0000293029B4FF4C0730B9302230C930323C5
:101BF0000E9308230F930BA96E4801F0DFF86E488F
:101C00006E4B03604FF0206343608560C5604FF406
:101C10008063036145618561C5614FF400330362F0
:101C2000456200F0E5FE58B9634BE3639C63002214
:101C30000521522000F04CFE522000F059FEB9E779
:101C4000FFF78EFBF0E700250395594B1A6C42F025
:101C500000421A641A6C02F000420392039A04953F
:101C60001A6B42F010021A631B6B03F0100304930B
:101C7000049B03230B9302220C920E9308230F93D1
:101C80000BA94C4801F09AF84D484E4B03604FF0B9
:101C9000206343608560C5604FF4806303614561E4
:101CA00085614FF48073C3614FF400330362456272
:101CB00000F09EFE28BB424BE3639C634248434BCB
:101CC00003604FF020634360402383600023C360C0
:101CD0004FF48062026143618361C3614FF400325B
:101CE0000262436200F084FE70B9374BA3639C63C9
:101CF00000220521532000F0EBFD532000F0F8FDF9
:101D000058E7FFF72DFBD6E7FFF72AFBEDE70025A5
:101D10000595274B5A6C42F010025A645A6C02F037
:101D200010020592059A06951A6B42F002021A6398
:101D30001B6B03F002030693069BC0230B93022345
:101D40000C9303230E9307230F930BA9204801F054
:101D500035F82048204B03604FF0006343608560F6
:101D6000C5604FF48063036145618561C5614FF4CF
:101D700000330362456200F03BFE58B9154BE36344
:101D80009C6300220521252000F0A2FD252000F003
:101D9000AFFD0FE7FFF7E4FAF0E700BF007800407F
:101DA000007C004000100140004800400014014049
:101DB0000038024000100240F00F0020586002403E
:101DC000900F0020A0600240300F00201060024001
:101DD00000040240D00E0020406402400025079518
:101DE000634B1A6C42F480221A641A6C02F480224B
:101DF0000792079A08951A6B42F008021A631B6B48
:101E000003F008030893089B4FF440730B930223DD
:101E10000C9303230E9307230F930BA9554800F04F
:101E2000CDFF5548554B03604FF00063436085601C
:101E3000C5604FF480630361456185614FF4807331
:101E4000C3614FF400330362456200F0D1FD28BB4B
:101E5000494BE3639C634A484A4B03604FF060631D
:101E60004360402383600023C3604FF480620261BB
:101E700043618361C3614FF400320262436200F048
:101E8000B7FD70B93E4BA3639C6300220521272058
:101E900000F01EFD272000F02BFD8BE6FFF760FA17
:101EA000D6E7FFF75DFAEDE700250995304B5A6C50
:101EB00042F020025A645A6C02F020020992099AF8
:101EC0000A951A6B42F040021A631B6B03F0400341
:101ED0000A930A9B4FF484430B9302230C9303232E
:101EE0000E9308230F930BA9274800F067FF27489C
:101EF000274B03604FF0206343608560C5604FF45B
:101F00008063036145618561C5614FF400330362FD
:101F1000456200F06DFD28BB1C4BE3639C631D48CC
:101F20001D4B03604FF02063436040238360002318
:101F3000C3604FF48062026143618361C3614FF407
:101F400000320262436200F053FD70B9114BA3638B
:101F50009C6300220521472000F0BAFC472000F0D6
:101F6000C7FC27E6FFF7FCF9D6E7FFF7F9F9EDE73D
:101F700000380240000C0240700E00202860024031
:101F8000100E00207060024000180240B00D0020CA
:101F900028640240500D0020A0640240DFF834D0D5
:101FA000FFF752FC0C480D490D4A002302E0D458BB
:101FB000C4500433C4188C42F9D30A4A0A4C002393
:101FC00001E013600432A242FBD307F0EDFFFFF7FC
:101FD0001FFA704700000320000000205806002070
:101FE00008A70008580600206C6D0120FEE70000DD
:101FF00008B50B4B1A6842F400721A601A6842F472
:1020000080621A601A6842F480721A60032000F03D
:102010004DFC0F20FFF7ECFAFFF7C8FA002008BDCF
:10202000003C0240034A1168034B1B780B441360C9
:10203000704700BFA812002004000020014B186860
:10204000704700BFA812002038B50446FFF7F6FF1E
:102050000546B4F1FF3F02D0044B1B781C44FFF748
:10206000EDFF401BA042FAD338BD00BF04000020A2
:10207000002800F0A18038B5044690F82030D3B194
:102080002268136843F001031360FFF7D7FF05468A
:1020900023685A6812F0010F10D1FFF7CFFF401BE1
:1020A0000A28F5D9636A43F400336362052384F890
:1020B0002030012038BDFEF78BFEE1E71A6822F0E0
:1020C00002021A60FFF7BAFF054623685A6812F049
:1020D000020F0DD0FFF7B2FF401B0A28F5D9636A43
:1020E00043F400336362052384F820300120E1E7E4
:1020F000227E012A3DD01A6822F080021A60637E97
:10210000012B3BD02268136823F040031360A37EA9
:10211000012B39D02268136823F020031360E37E7B
:10212000012B37D02268136843F010031360237F1C
:10213000012B35D02268136823F008031360637FF6
:10214000012B33D02268136823F004031360A368C3
:10215000E268134322691343626913436268013AD8
:1021600021681343CB6100206062012384F8203092
:10217000A0E71A6842F080021A60C0E7226813687C
:1021800043F040031360C2E72268136843F0200362
:102190001360C4E72268136823F010031360C6E7D6
:1021A0002268136843F008031360C8E722681368C5
:1021B00043F004031360CAE70120704790F8203011
:1021C000013BDBB2012B05D9436A43F48023436210
:1021D0000120704730B5464BD3F8002242F001028F
:1021E000C3F80022D3F8002222F47C52C3F8002264
:1021F000D3F80022486A42EA0022C3F800224A6962
:1022000002F01F02012000FA02F2D3F81C026FEA6A
:10221000020C20EA0200C3F81C02CB69C3B9344B9C
:10222000D3F80C020CEA0000C3F80C028C88486951
:10223000CD6844EA0544483043F830408C6808884B
:1022400040EA04404C6904F1480E03EBCE035860A9
:10225000CB69012B1ED08B69002B33D12448D0F8D9
:1022600004320CEA0303C0F804320B698BBB20482C
:10227000D0F814320CEA0303C0F814320B6A012BB5
:102280002ED01B4AD2F8003223F00103C2F80032EC
:10229000002030BD164BD3F80C021043C3F80C02DB
:1022A0008C8848690D6844EA0544483043F830405A
:1022B00088894C698D6840EA0540483403EBC403C3
:1022C0005860C8E70A48D0F804321343C0F8043213
:1022D000CBE70748D0F814321343C0F81432CDE7E7
:1022E0000349D1F81C321343C1F81C32C9E700BFBF
:1022F0000064004070B5044690F82050EDB2012D06
:1023000006D0436A43F4002343620125284670BD8A
:10231000022380F820300268136823F00103136061
:10232000FFF78CFE064623685B6813F0010F0CD0A4
:10233000FFF784FE831B0A2BF5D9636A43F400334D
:102340006362052384F82030E0E700256562DDE75D
:1023500030B590F820C00468A4680CF1FF3C5FFA27
:102360008CFCBCF1010F62D814F0E05F59D0C4F3CB
:10237000016C012404FA0CF41C608B68002B3DD125
:102380000D68CB68046843EA45550CF118031B013E
:10239000E55003680C690CF1180E03EB0E135C603A
:1023A0000B7D012B35D0D17993791B0443EA01636E
:1023B000517943EA012314790168234301EB0C119D
:1023C000C1F88C31D17893781B0443EA01635178CA
:1023D00043EA0123117802680B4302EB0C12C2F8A6
:1023E000883102680CF1180C4FEA0C1C52F80C30C2
:1023F00043F0010342F80C3000201DE04C6843EA32
:10240000C403CC6823430CF11804240105682B5144
:10241000BFE7036803EB0E13596841F480715960FC
:10242000C1E7436A43F400134362012004E0436AB6
:1024300043F480234362012030BD90F820C00CF1AA
:10244000FF3C5FFA8CFCBCF1010F00F2A58030B4B8
:1024500051B90468E46814F0030F10D1436A43F4DF
:102460000013436201207EE00468246914F0030F26
:1024700005D1436A43F400134362012073E0056809
:1024800001F11B0424012C5904F004049460002C75
:102490006BD1056801F11B0424012C59640D1460F3
:1024A000046801F11B0C4FEA0C1C54F80C4004F0BA
:1024B0000204D4600468A444DCF8045015F0080F4A
:1024C0005BD008241461046801F11B0C04EB0C14AC
:1024D0006468C4F307249461046804EB0C14646812
:1024E000240C5461026802EB0112D2F8B8211A7070
:1024F000026802EB0112D2F8B821C2F307225A7027
:10250000026802EB0112D2F8B821C2F307429A70B6
:10251000026802EB0112D2F8B821120EDA700268DA
:1025200002EB0112D2F8BC211A71026802EB01120F
:10253000D2F8BC21C2F307225A71026802EB0112E1
:10254000D2F8BC21C2F307429A71026802EB011271
:10255000D2F8BC21120EDA71C1B90268D36843F017
:102560002003D360002030BC7047056801F11B04D4
:1025700024012C59E408546092E701F11B0504EB97
:102580000514646804F00F0414619CE70268136981
:1025900043F020031361E5E7436A43F48023436279
:1025A0000120704790F82030013BDBB2012B05D9A8
:1025B000436A43F4802343620120704702685369F1
:1025C0000B43536100207047704770477047704756
:1025D00070477047704770472DE9F84F054603680C
:1025E0005C69D3F804809F68D3F80CA0D3F81090EE
:1025F000D3F818B014F001063BD017F0010616D03E
:1026000001229A6017F0020F08D117F0040F0CD1C5
:1026100017F0080606D04FF4805608E0FDF760FF7B
:10262000002604E0FFF7D0FF01E04FF4006617F446
:10263000807F0DD02B684FF480729A6017F4007F72
:1026400040F0968017F4806F00F0968046F40056B4
:1026500017F4803F0DD02B684FF480329A6017F446
:10266000003F40F0938017F4802F00F0938046F4F1
:10267000004614F0080F07D01AF0100F04D046F4EB
:1026800000762B681022DA6014F0040F03D01AF0E1
:10269000080F40F0898014F0020F05D02B68DB682A
:1026A00013F0030F40F0878014F0400F07D019F0AB
:1026B000100F04D046F480662B6810221A6114F0C3
:1026C000200F02D019F0080F79D114F0100F04D0A8
:1026D0002B681B6913F0030F78D114F4003F02D06C
:1026E00018F0100F76D114F4803F02D018F0080FC4
:1026F00077D114F4004F37D018F0040F31D014F410
:10270000807F04D01BF0010F01D046F0010614F4C5
:10271000007F04D01BF0020F01D046F0020614F433
:10272000806F04D01BF0040F01D046F0040614F4AF
:10273000006F16D01BF0700B13D0BBF1400F66D0AA
:1027400056D8BBF1200F5CD0BBF1300F5CD0BBF191
:10275000100F01D146F008062A68936923F0700330
:1027600093612B6804225A60002E56D1BDE8F88F81
:102770002846FDF7B9FE6BE717F4006F02D046F468
:10278000804665E72846FFF720FF61E72846FDF70A
:10279000AFFE6EE717F4002F02D046F4803668E7EC
:1027A0002846FFF713FF64E72B680822DA60284603
:1027B000FFF70DFF6FE72846FDF79EFE74E72B68D5
:1027C00008221A612846FFF703FF7EE72846FDF737
:1027D000A9FE82E72B6810225A602846FFF7F9FE0F
:1027E00081E72B6808225A602846FFF7F3FE80E74E
:1027F000BBF1500F0ED0BBF1600FADD146F4807627
:10280000AAE746F01006A7E746F02006A4E746F040
:102810004006A1E746F080069EE76B6A33436B6291
:102820002846FFF7D8FEA1E7002807DB00F01F02CB
:10283000400901239340024A42F82030704700BF0C
:1028400000E100E0002808DB0901C9B200F16040A6
:1028500000F5614080F80013704700F00F00090197
:10286000C9B2014B1954704714ED00E000B500F0F7
:102870000700C0F1070CBCF1040F28BF4FF0040C97
:10288000031D062B0FD9C31E4FF0FF3E0EFA0CF0AE
:1028900021EA000199400EFA03FE22EA0E0241EA03
:1028A00002005DF804FB0023EEE70000074AD3684E
:1028B00023F4E0631B041B0C000200F4E0600343FC
:1028C00043F0BF6343F40033D360704700ED00E092
:1028D00010B50446054BD868C0F30220FFF7C6FFC9
:1028E00001462046FFF7AEFF10BD00BF00ED00E03F
:1028F00008B5FFF799FF08BD30B405682C6824F4CB
:1029000080242C60046863608368402B05D00368D2
:1029100099600368DA6030BC704703689A600368A6
:10292000D960F8E710B40368D9B210390A4AA2FB9B
:1029300001421209094CA25CC2655F2907D96FF3F5
:10294000090304338365806D5DF8044B70476FF3B2
:1029500009038365F7E700BFABAAAAAAECA60008A3
:10296000836A826992B9012B0AD0022B02D00BB183
:1029700000207047C36A13F0807F28D10020704781
:10298000C36AB3F1C07F24D000207047B2F5005F66
:1029900009D0022B25D9032B25D1C36A13F0807FE0
:1029A00023D100207047032B03D8DFE803F0140481
:1029B000140A00207047C36A13F0807F0DD10020F5
:1029C0007047C36AB3F1C07F09D00020704701206F
:1029D0007047012070470120704701207047012097
:1029E00070470120704700207047012070470000A9
:1029F00070B50446FFF722FB002C5BD0054602238E
:102A000084F83530002384F834302268136823F0CA
:102A10000103136023681A6812F0010F0AD0FFF750
:102A20000DFB431B052BF5D920236365032084F898
:102A3000350070BD1A68204911406268A0680243E1
:102A4000E06802432069024360690243A0690243CF
:102A5000E0690243206A02430A43616A04291ED0E6
:102A60001A602668756925F00705636A1D43042B03
:102A700007D1A36A1D43E36A1BB12046FFF770FF2D
:102A800090B975612046FFF74DFFE26D3F239340FB
:102A9000836000206065012384F83530C9E7E16A6E
:102AA000206B01430A43DBE740236365012084F880
:102AB0003500BEE70120BCE73F8010F038B5044682
:102AC000856D90F8340001282BD0012084F8340063
:102AD00094F83500C0B2012804D0002384F83430C3
:102AE000022038BD022084F83500002060652046B1
:102AF000FFF702FFE26D3F239340AB60226813684B
:102B000043F016031360236C23B12268136843F06B
:102B1000080313602268136843F001031360002068
:102B2000DFE70220DDE770B50446866DFFF786FA21
:102B300094F83530DBB2022B06D080236365002386
:102B400084F83430012070BD05462268136823F0F4
:102B5000160313602268536923F080035361236CCA
:102B6000E3B12268136823F0080313602268136836
:102B700023F00103136023681B6813F0010F11D0C9
:102B8000FFF75CFA431B052BF5D92023636503206F
:102B900084F83500002384F83430D4E7A36C002B8C
:102BA000DFD1E3E7E26D3F239340B360012384F874
:102BB0003530002084F83400C5E790F83530DBB2BA
:102BC000022B03D08023436501207047052380F842
:102BD00035300268136823F001031360002070474A
:102BE000F0B583B0044600230193724B1D68724B0D
:102BF000A3FB0535AD0A876D3E68C26D082393407F
:102C0000334210D003681A6812F0040F0BD01A6810
:102C100022F004021A60C26D08239340BB60436D2A
:102C200043F001034365E26D01239340334209D031
:102C30002268526912F0800F04D0BB60636D43F0CC
:102C400002036365E26D04239340334209D0226896
:102C5000126812F0020F04D0BB60636D43F00403EE
:102C60006365E26D10239340334224D022681268DA
:102C700012F0080F1FD0BB6023681A6812F4802F6F
:102C80000DD01B6813F4002F04D1236C9BB1204698
:102C9000984710E0A36C73B1204698470BE01A6880
:102CA00012F4807F03D11A6822F008021A60236CA4
:102CB0000BB120469847E26D20239340334255D014
:102CC0002268126812F0100F50D0BB6094F83530B3
:102CD000DBB2052B0ED023681A6812F4802F33D094
:102CE0001B6813F4002F2AD1636C002B3ED02046C2
:102CF00098473BE02268136823F0160313602268AC
:102D0000536923F080035361236CA3B122681368D5
:102D100023F008031360E26D3F239340BB6001235F
:102D200084F83530002384F83430236D002B3FD0F5
:102D3000204698473CE0A36C002BE7D1EBE7E36B20
:102D4000A3B12046984711E01A6812F4807F09D198
:102D50001A6822F010021A60012384F8353000232B
:102D600084F83430E36B0BB120469847636DFBB1B8
:102D7000636D13F0010F17D0052384F835302268F6
:102D8000136823F001031360019B01330193AB42ED
:102D900004D823681B6813F0010FF5D1012384F8D0
:102DA0003530002384F83430E36C0BB1204698476B
:102DB00003B0F0BD00000020B5814E1B00230F2B97
:102DC00000F2F68070B582B066E085684FEA430E87
:102DD000032404FA0EF425EA0405CC6804FA0EF480
:102DE0002C438460446824EA02044A68C2F3001257
:102DF0009A40224342605DE0DC08083450F8242009
:102E000003F00705AD004FF00F0E0EFA05FE22EAA3
:102E10000E0E0A69AA4042EA0E0240F824205DE044
:102E2000092200E0002202FA0EF22A430234614D28
:102E300045F82420604A94686FEA0C0224EA0C05E5
:102E40004E6816F4801F01D04CEA04055A4CA56068
:102E5000E46802EA04054E6816F4001F01D04CEA4B
:102E60000405554CE560646802EA04054E6816F4F2
:102E7000003F01D04CEA04054F4C656024682240B5
:102E80004D6815F4803F01D04CEA04024A4C2260A0
:102E900001330F2B00F28A8001229A400C6804EA69
:102EA000020C32EA0404F3D14C6804F00304013C40
:102EB000012C8AD94A6802F00302032A09D0C468A7
:102EC0005D000322AA4024EA02048A68AA40224341
:102ED000C2604A6802F00302022A8DD004684FEAF9
:102EE000430E032202FA0EF224EA02044A6802F0B8
:102EF000030202FA0EF2224302604A6812F4403FD3
:102F0000C6D0002201922D4A546C44F4804454648B
:102F1000526C02F480420192019A9C08A51C254A39
:102F200052F8255003F0030E4FEA8E0E0F2202FADC
:102F30000EF225EA0205224A90423FF473AF02F5F1
:102F40008062904222D002F58062904220D002F549
:102F5000806290421ED002F5806290421CD002F541
:102F6000806290421AD002F58062904218D002F539
:102F70008062904216D002F58062904214D002F531
:102F8000806290423FF44CAF0A224CE701224AE7AC
:102F9000022248E7032246E7042244E7052242E7EB
:102FA000062240E707223EE708223CE702B070BD58
:102FB000704700BF00380140003C0140003802402B
:102FC000000002400AB181617047090481617047C5
:102FD00040B338B5044603684CF6CC421A60036827
:102FE00045F255521A60036842685A600368826865
:102FF0009A60FFF723F805462368DA6812F0030F9A
:103000000BD0FFF71BF8401B3128F5D92368DB688C
:1030100013F0030FF0D0032003E04AF6AA221A604F
:10302000002038BD012070472DE9F04383B0D0F86F
:10303000008001EBC10300EB83039A6A5B6A9A424A
:1030400054D807460C469B1A01EBC10200EB8202E2
:10305000D2699A4200D31A4602F103094FEA99094C
:1030600015E006F103094FEA9909BB7904EBC405A1
:1030700007EB8505296A0093B3B2E2B2404602F03D
:10308000DAFD2B6A33442B62AB6A3344AB6208EB44
:10309000441303F510639B699BB24B4512D304EBB9
:1030A000C40307EB83039A6A5B6A9A420AD24BB164
:1030B0009B1A04EBC40207EB8202D6699E42D0D36E
:1030C0001E46CEE704EBC40307EB83077A6ABB6AAC
:1030D0009A420FD804F00F040122A240D8F83438E5
:1030E00023EA0203C8F83438002000E0012003B0CE
:1030F000BDE8F0830020FAE730B583B000287AD02D
:103100000446056890F89534C3B1032384F89534D8
:10311000B5F1A04F17D0206802F040FB237C8DF85A
:103120000030231D0ECB206802F076FA70B1022326
:1031300084F895340125284603B030BD80F89434D6
:1031400006F0DEFBE1E70023A371E4E7002120683D
:1031500002F087FF024608B9034617E0022384F80D
:1031600095340125E7E703EBC30104EB810101205E
:1031700048750B75CB8500200876C861086203EBA3
:10318000C30104EB810148620133DBB2207998422C
:10319000E9D816E002EBC20304EB8303002183F8B5
:1031A000551283F8542283F85812C3F85C12C3F8FE
:1031B000601202EBC20304EB8303C3F86412013212
:1031C000D2B29042E6D8237C8DF80030231D0ECB7E
:1031D000206802F039FB054620B1022384F89534BB
:1031E0000125A8E700236374012384F8953420683F
:1031F00002F0F6FE9FE701259DE7036890F894240E
:10320000012A1AD010B50446012280F89424DA6805
:1032100012F0400F02D0427B012A09D0206802F050
:10322000B7FA206802F0CEFE002084F8940410BDA6
:103230009A6B42F480329A63F0E7022070470000F4
:1032400070B504460D460068066C00EB411303F5AB
:1032500030639A68A179012911D038498E4256D03D
:103260003DB905EBC50304EB8303D3F86432002BAF
:103270005ED0E9B2204606F08DFB002070BD12F052
:10328000080F09D02E498E42F7D912F4004FF4D01E
:103290004FF400429A60F0E712F0200F02D0202293
:1032A0009A60EAE712F0280FE7D125498E4206D945
:1032B00012F4004F03D04FF400429A60DDE705EBB3
:1032C000C50204EB8202D2F874121B69C3F3120325
:1032D000CB1AC2F868327DB905EBC50204EB820255
:1032E000D2F864226AB105EBC50204EB8202D2F87F
:1032F00060121944C2F86012E9B2204606F04AFB97
:10330000BBE704F29C42012102F0EAFEF4E712F46A
:10331000004F03D04FF400429A60AEE712F0200F46
:1033200001D020229A60E9B2204606F033FBA4E7E0
:1033300004F29C42002102F0D3FE9AE70A31544F76
:103340000A30544F38B5044603681D6C03EB411333
:10335000D3F8081B0E4A954207D903F5306311F4E0
:10336000004F02D04FF400429A60204606F00AFB5C
:10337000074B9D4202D9A379012B01D0002038BD13
:1033800004F29C420121206802F0AAFEF6E700BF89
:103390000A30544F90F89434012B0CD010B50446E9
:1033A000012380F894344174006802F0FBFD002092
:1033B00084F8940410BD0220704738B505468C4649
:1033C00011F0800F2BD101F00F0E0EEBCE04A400F4
:1033D00004F514740444211D0EEBCE0E00EB8E0E8A
:1033E00000208EF855020CF00F0C81F800C0C2F3DB
:1033F0000A028A600B714A780AB1A1F81AC0022B3E
:103400001CD095F89434012B1BD0012385F89434FB
:10341000286802F0F4FA002085F8940438BD01F021
:103420000F0000EBC001890010312944043100EB8A
:10343000C00005EB800001244475D4E700234B71E4
:10344000DFE70220EAE710B504460A4611F0800FD4
:1034500020D101F00F0000EBC0039B0003F51473B3
:103460002344191D00EBC00004EB8000002380F80A
:10347000553202F00F020A7094F89434012B18D0E0
:10348000012384F89434206802F006FB002084F8BD
:10349000940410BD01F00F0000EBC0039B0010333B
:1034A0002344191D00EBC00004EB80000123437589
:1034B000DFE70220EDE710B5144601F00F0C0CEB2E
:1034C000CC01890001F51471014404310CEBCC0EE0
:1034D00000EB8E0ECEF86022CEF864320023CEF8D8
:1034E00068328EF855328EF854C28279012A04D09F
:1034F000006802F0B7FB002010BDCEF87042F7E77D
:1035000001F00F0101EBC10100EB8100D0F868026E
:10351000704710B5144601F00F0C0CEBCC0189007C
:103520001031014404310CEBCC0E00EB8E0ECEF8C2
:103530002020CEF824300023CEF8283001238EF846
:1035400015308EF814C082799A4204D0006802F0D7
:1035500089FB002010BDCEF83040F7E738B501F008
:103560000F050279AA4238D304460B4611F0800FAA
:103570001FD101EBC101890001F51471014404312F
:1035800003EBC30300EB8303002283F855220123DE
:103590008B700D7094F89434012B20D0012384F8A3
:1035A0009434206802F0A3FC85B1002084F89404D0
:1035B00038BD05EBC501890010310144043105EB2C
:1035C000C50300EB830301225A75E0E704F29C4235
:1035D000A179206802F084FDE7E70120E8E70220F6
:1035E000E6E701F00F0302799A4230D310B50446A2
:1035F00011F0800F1ED103EBC301890001F5147196
:103600000144043103EBC30200EB8202002082F884
:10361000550200228A700B7094F89434012B18D054
:10362000012384F89434206802F08EFC002084F892
:10363000940410BD03EBC30189001031014404312F
:1036400003EBC30200EB820201205075E1E7012089
:1036500070470220EDE708B511F0800F0CD101F0A2
:103660000F0101EBC101890001F51471014404311E
:10367000006802F081FA08BD01F00F0101EBC10101
:103680008900103101440431F2E72DE9F04F83B095
:1036900004460568284602F0E0FC10B103B0BDE81E
:1036A000F08F0646206802F0A9FC0028F6D005F548
:1036B0000067BB68C3F30D23C4F8D434206802F05C
:1036C0009DFC10F0020F04D02268536903F002033E
:1036D0005361206802F092FC10F0100F15D02268A0
:1036E000936923F010039361D5F8208008F00F0947
:1036F00008F4F013B3F5802F4CD0B3F5402F6FD002
:103700002268936943F010039361206802F076FC0D
:1037100010F4002F76D1206802F070FC10F4802F96
:1037200040F0E080206802F069FC0028C0F261816E
:10373000206802F063FC10F4006F09D0BB6813F03E
:10374000010F40F06E812268536903F400635361F6
:10375000206802F053FC10F4805F40F0668120681E
:1037600002F04CFC10F4005F40F0B381206802F0DE
:1037700045FC10F0080F40F0C481206802F03EFCC8
:1037800010F0800F00F0D781AB6923F08003AB61AC
:103790000126C0E147F6F07318EA030FB0D04FEAF4
:1037A000181A4FEAC903019309EBC90B04EB8B0B01
:1037B000C8F30A12DBF86012284602F075FBDBF84A
:1037C0006032CAF30A0A5344CBF86032DBF868323D
:1037D000019A4A4404EB82025344C2F868328FE7EC
:1037E000082204F29C41284602F05EFB09EBC90363
:1037F00004EB8303D3F86822C8F30A184244C3F8E1
:1038000068227DE7206802F0FDFB8046B14635E086
:1038100005EB49130122C3F8082B49462046FFF760
:103820000FFD3CE005EB49130822C3F8082B49467D
:103830002046FFF787FD35E009EBC90304EB83035E
:1038400093F85732012B41D005EB49130222C3F8FC
:10385000082B1AF0200F04D005EB49132022C3F8DF
:10386000082B1AF4005F05D005EB49134FF4005202
:10387000C3F8082B09F101094FEA5808B8F1000F05
:103880003FF449AF18F0010FF4D05FFA89FB5946B5
:10389000206802F0C7FB824610F0010FB8D11AF081
:1038A000080FBFD11AF0100F04D005EB49131022F6
:1038B000C3F8082B1AF0020FCBD06B6913F0800FFE
:1038C000BAD07B6843F480637B60B5E709EBC9033A
:1038D00004EB8303002283F857225946204606F062
:1038E000A9F8B1E7206802F095FB8046B14625E0D3
:1038F0005946204606F05AF81AF0080F04D005EB96
:1039000049130822C3F808291AF0100F04D005EB58
:1039100049131022C3F808291AF0400F04D005EB10
:1039200049134022C3F808291AF0020F40D11AF0B7
:10393000800F59D109F101094FEA5808B8F1000F79
:103940003FF4F0AE18F0010FF4D05FFA89FB59464E
:10395000206802F070FB824610F0010FCCD009F015
:103960000F02012101FA02F27B6B23EA02037B635F
:1039700005EB4913C3F80819A3798B42B8D109EBB9
:10398000C90304EB83031A6AD9690A441A62B9F1BC
:10399000000FADD109EBC90304EB83035B6A002B75
:1039A000A6D104F29C420121206802F099FB9FE716
:1039B0004946284601F0F8FE09EBC90304EB8303EE
:1039C000DB7D012B05D005EB49130222C3F8082942
:1039D000ADE709EBC90304EB83030022DA7559460E
:1039E000204606F02DF8EEE749462046FFF71CFB7F
:1039F000A0E77B6823F001037B6094F8CC34012BB3
:103A000008D0204606F010F82268536903F00043FE
:103A100053618DE6002184F8CC14204600F03FF974
:103A2000F2E7204605F0E8FF8DE67B6823F001030E
:103A30007B601021206801F0B7FE1AE005EB461309
:103A40004FF67F31C3F80819D3F8002922F4001289
:103A5000C3F80029C3F8081BD3F8002B22F4001286
:103A6000C3F8002BD3F8002B42F00062C3F8002B00
:103A700001362379B342E1D8FB6943F00113FB61BE
:103A8000E37BDBB1D7F8843043F00B03C7F8843015
:103A90007B6C43F00B037B64D5F8003823F4FE63A2
:103AA000C5F8003804F29C42A179206802F018FBA6
:103AB0002268536903F48053536150E67B6943F4F1
:103AC000005343F02B037B613B6943F00B033B61E5
:103AD000E2E7206802F0F6FA206801F07FFFE0716B
:103AE000266800F0DDFB0146E279304601F0DEFD9C
:103AF000204605F06CFF2268536903F400535361BC
:103B000034E6204605F05DFF2268536903F00803A0
:103B1000536132E601362379B3420CD906EBC60372
:103B200004EB830393F85732012BF3D1F1B2204613
:103B3000FFF791FDEEE7206802F060FA10F4801FB5
:103B400025D1206802F05AFA10F4001F59D0012341
:103B500026E001362379B3421BD905EB4613D3F88F
:103B6000002906EBC60304EB83031B7E012BF0D177
:103B7000002AEEDA06EBC60304EB83030122DA75B2
:103B800066F07F01C9B22046FFF765FDE1E7012637
:103B9000E0E72268536903F480135361D1E70133EE
:103BA00022799A4228D905EB4312D2F8001B03EB85
:103BB000C30204EB820292F85822012AEFD10029B5
:103BC000EDDA01F48031D4F8D42402F001029142FC
:103BD000E5D103EBC30204EB8202012182F8571204
:103BE000AA6942F08002AA616A6912F0800FD6D1F8
:103BF0007B6843F400737B602268536903F400130D
:103C00005361206802F0FAF910F0804F10D120685B
:103C100002F0F4F910F0040F3FF440AD23685D6842
:103C200015F0040F0DD1226853682B43536035E51E
:103C3000204605F00BFF2268536903F0804353616F
:103C4000E5E7204605F008FFEDE710B40468606A78
:103C500031B940EA0240A06200205DF8044B704791
:103C60008C46A36A00EB1340002308E003F14001F7
:103C700004EB8101496800EB11400133DBB20CF128
:103C8000FF318B42F2D340EA02400CF13F0104EBDA
:103C900081046060E0E70368596200207047704764
:103CA000002800F0E08170B582B00446036813F08C
:103CB000010F3BD09F4B9B6803F00C03042B2CD0CF
:103CC0009C4B9B6803F00C03082B21D06368B3F571
:103CD000803F4FD0B3F5A02F52D0964B1A6822F4F4
:103CE00080321A601A6822F480221A606368002BFE
:103CF00050D0FEF7A3F905468E4B1B6813F4003F26
:103D000014D1FEF79BF9401B6428F5D90320B1E1DB
:103D1000884B5B6813F4800FD8D0864B1B6813F474
:103D2000003F03D06368002B00F09F81236813F0ED
:103D3000020F54D07F4B9B6813F00C0F3ED07D4B8D
:103D40009B6803F00C03082B33D0E368002B68D08A
:103D5000794B01221A60FEF771F90546754B1B6815
:103D600013F0020F54D1FEF769F9401B0228F5D970
:103D700003207FE16F4A136843F480331360B5E793
:103D80006C4B1A6842F480221A601A6842F480323E
:103D90001A60ABE7FEF752F90546664B1B6813F451
:103DA000003FC3D0FEF74AF9401B6428F5D9032031
:103DB00060E1604B5B6813F4800FC6D15D4B1B68FC
:103DC00013F0020F03D0E368012B40F05081594AF1
:103DD000136823F0F803216943EAC10313602368E1
:103DE00013F0080F42D063696BB3534B0122C3F841
:103DF000802EFEF723F905464E4B5B6F13F0020F42
:103E000034D1FEF71BF9401B0228F5D9032031E11C
:103E1000484A136823F0F803216943EAC103136099
:103E2000DDE7454B00221A60FEF708F90546414BD5
:103E30001B6813F0020FD2D0FEF700F9401B0228D6
:103E4000F5D9032016E13C4B0022C3F8802EFEF783
:103E5000F5F80546374B5B6F13F0020F06D0FEF7FF
:103E6000EDF8401B0228F5D9032003E1236813F085
:103E7000040F77D02F4B1B6C13F0805F33D10023DE
:103E800001932C4B1A6C42F080521A641B6C03F0A5
:103E900080530193019B0125284B1B6813F4807FFD
:103EA00023D0A368012B34D0052B38D0214B1A6FB7
:103EB00022F001021A671A6F22F004021A67A3683F
:103EC000002B3DD0FEF7BAF806461A4B1B6F13F0D5
:103ED000020F46D1FEF7B2F8801B41F288339842B8
:103EE000F3D90320C6E00025D6E7144A136843F44B
:103EF00080731360FEF7A2F80646104B1B6813F49C
:103F0000807FCED1FEF79AF8801B0228F5D90320D6
:103F1000B0E0084A136F43F001031367CFE7054B86
:103F20001A6F42F004021A671A6F42F001021A6710
:103F3000C5E700BF00380240000047420070004063
:103F4000FEF77CF80646524B1B6F13F0020F08D0A9
:103F5000FEF774F8801B41F288339842F3D90320AE
:103F600088E0EDB9A369002B00F08380484A92688D
:103F700002F00C02082A51D0022B17D0454B002228
:103F80001A66FEF75BF80446414B1B6813F0007F8E
:103F900042D0FEF753F8001B0228F5D9032069E050
:103FA0003B4A136C23F080531364DBE7394B002248
:103FB0001A66FEF743F80546354B1B6813F0007F81
:103FC00006D0FEF73BF8401B0228F5D9032051E04C
:103FD000E369226A1343626A43EA8213A26A5208BF
:103FE000013A43EA0243E26A43EA0263284A536021
:103FF000284B01221A66FEF721F80446244B1B6861
:1040000013F0007F06D1FEF719F8001B0228F5D93E
:1040100003202FE000202DE000202BE0012B2BD0EF
:104020001B4B5B6803F48001E269914226D103F0E7
:104030003F02216A8A4223D1616A47F6C0721A4060
:10404000B2EB811F1ED103F44031A26A5208013A3B
:10405000B1EB024F18D103F07063E26AB3EB026F69
:1040600014D1002006E001207047012002E0012069
:1040700000E0002002B070BD0120FBE70120F9E75D
:104080000120F7E70120F5E70120F3E70120F1E740
:10409000003802400000474208B5264B9B6803F0F9
:1040A0000C03042B41D0082B41D1224B5A6802F05B
:1040B0003F025B6813F4800F12D01E4B5968C1F3A6
:1040C00088111D480023A1FB0001FCF771F8194B72
:1040D0005B68C3F3014301335B00B0FBF3F008BD41
:1040E000144B5868C0F388104FEA401CBCEB000C1E
:1040F0006EEB0E0E4FEA8E1343EA9C634FEA8C116F
:10410000B1EB0C0163EB0E03DB0043EA5173C90012
:1041100011EB000C43F10003990200234FEA8C20BD
:1041200041EA9C51FCF744F8D1E70348D7E703483C
:10413000D5E700BF00380240001BB7000024F400A0
:10414000002800F09B8070B50D4604464F4B1B685D
:1041500003F00F038B4208D2CBB24C4A13701368A2
:1041600003F00F038B4240F08B80236813F0020FA3
:1041700017D013F0040F04D0454A936843F4E0537A
:104180009360236813F0080F04D0414A936843F406
:10419000604393603E4A936823F0F003A1680B43A9
:1041A0009360236813F0010F32D06368012B21D094
:1041B0009A1E012A25D9364A126812F0020F61D0E0
:1041C00033498A6822F0030213438B60FDF736FF00
:1041D00006462F4B9B6803F00C036268B3EB820F1B
:1041E00016D0FDF72BFF801B41F288339842F0D99F
:1041F000032042E0264A126812F4003FE0D1012079
:104200003BE0234A126812F0007FD9D1012034E04C
:104210001E4B1B6803F00F03AB4207D9EAB21B4BDE
:104220001A701B6803F00F03AB422DD1236813F003
:10423000040F06D0164A936823F4E053E1680B4359
:104240009360236813F0080F07D0114A936823F492
:104250006043216943EAC1039360FFF71DFF0C4BE4
:104260009B68C3F303130B4AD35CD8400A4B186016
:104270000A4B1868FDF7BCF9002070BD012070479B
:104280000120FAE70120F8E70120F6E7003C0240B0
:1042900000380240DCA600080000002008000020D2
:1042A000014B1868704700BF0000002008B5FFF7F9
:1042B000F7FF044B9B68C3F38223034AD35CD840C7
:1042C00008BD00BF00380240D4A6000808B5FFF7BB
:1042D000E7FF044B9B68C3F34233034AD35CD840E7
:1042E00008BD00BF00380240D4A600080F230360B9
:1042F0000B4B9A6802F0030242609A6802F0F002E7
:1043000082609A6802F4E052C2609B68DB0803F4A2
:10431000E0530361034B1B6803F00F030B6070470E
:1043200000380240003C024000285AD010B5044634
:10433000436A33B94368B3F5827F05D00023C36174
:1043400002E00023036143610023A36294F851302B
:10435000002B40D0022384F851302268136823F0E8
:1043600040031360636803F48273A26802F404429A
:104370001343E26802F400621343226902F002026E
:104380001343626902F001021343A26902F400724E
:104390001343E26902F038021343226A02F08002FA
:1043A0001343A26A02F40052216813430B60638B2B
:1043B00003F00403626A02F01002216813434B60A9
:1043C0002268D36923F40063D36100206065012370
:1043D00084F8513010BD84F850302046FDF766F85F
:1043E000B8E701207047704730B585B004460268D1
:1043F00051689368C3F3801013F0400F05D113F098
:10440000010F02D011F0400F69D113F0020F02D05A
:1044100011F0800F67D1C3F3401513F0200F03D1C3
:1044200010B913F4807F61D011F0200F5ED078B105
:1044300094F85100C0B203285AD0606D40F00400D7
:10444000606500200090D06800909068009000980F
:1044500065B1606D40F001006065002002909068D9
:104460000290106820F040001060029A13F4807FE0
:1044700009D0636D43F00803636500230393236849
:104480009B680393039B636D002B2FD022685368B6
:1044900023F0E0035360012384F8513011F0030F3F
:1044A0002ED02268536823F003035360E36C4BB1B2
:1044B000154A1A65E06CFEF780FB18B1636D43F096
:1044C00040036365A36C8BB10F4A1A65A06CFEF7BD
:1044D00074FB58B1636D43F04003636506E0236CE1
:1044E0002046984702E0636C2046984705B030BDEF
:1044F00000230193D368019393680193019BF5E72F
:104500002046FFF770FFF1E70D45000808B5806B06
:104510000023C387C386FFF766FF08BD30B4036A74
:10452000026A22F0010202624268846924F0730C7C
:104530000C6844EA0C0423F0020C8B6843EA0C0379
:10454000114DA84203D005F58065A84205D123F09E
:104550000803CD682B4323F004030B4DA84203D07E
:1045600005F58065A84207D122F440724D6945EAFD
:10457000020C8A6942EA0C02426084614A68426322
:10458000036230BC704700BF0000014030B4036AD2
:10459000026A22F4807202624268C46924F0730CD9
:1045A0000C6844EA0C0523F400738C6843EA042386
:1045B000114CA04203D004F58064A04206D123F43C
:1045C0000063CC6843EA042323F480630A4CA042CE
:1045D00003D004F58064A04207D122F440524C6914
:1045E00042EA04128C6942EA04124260C5614A68D8
:1045F000C263036230BC70470000014030B4036AFC
:10460000026A22F4805202624468C26922F4E642DD
:104610000D6842EA052223F400538D6843EA05330E
:10462000094DA84203D005F58065A84204D124F4C1
:1046300080444D6944EA85144460C2614A6802645A
:10464000036230BC704700BF0000014010B4036A31
:10465000046A24F001040462846924F0F00C4CEA3A
:10466000021223F00A030B43826103625DF8044BDC
:10467000704710B4036A046A24F010040462846969
:1046800024F4704C4CEA023223F0A00343EA0113F5
:10469000826103625DF8044B7047836823F0700306
:1046A0000B4343F0070383607047000090F83D30F0
:1046B000DBB2012B37D1022380F83D300268D3688A
:1046C00043F00103D3600368194A934220D0B3F149
:1046D000804F1DD0A2F57C42934219D002F5806232
:1046E000934215D002F58062934211D002F57842D0
:1046F00093420DD002F57052934209D0A2F5943244
:10470000934205D01A6842F001021A6000207047F7
:104710009A6802F00702062A07D01A6842F00102DE
:104720001A6000207047012070470020704700BFCA
:1047300000000140704770477047704770B50446ED
:104740000368DE681D6915F0020F10D016F0020F25
:104750000DD06FF002021A610123037703689B6991
:1047600013F0030F5ED0FFF7E6FF0023237715F069
:10477000040F12D016F0040F0FD023686FF004025C
:104780001A610223237723689B6913F4407F4FD07B
:104790002046FFF7D0FF0023237715F0080F12D033
:1047A00016F0080F0FD023686FF008021A61042377
:1047B00023772368DB6913F0030F40D02046FFF70F
:1047C000BAFF0023237715F0100F12D016F0100F48
:1047D0000FD023686FF010021A6108232377236833
:1047E000DB6913F4407F31D02046FFF7A4FF00239C
:1047F000237715F0010F02D016F0010F2DD115F01F
:10480000800F02D016F0800F2FD115F0400F02D08C
:1048100016F0400F31D115F0200F02D016F0200F06
:1048200033D170BDFFF786FF2046FFF785FF9CE779
:104830002046FFF77FFF2046FFF77EFFABE72046CD
:10484000FFF778FF2046FFF777FFBAE72046FFF72C
:1048500071FF2046FFF770FFC9E723686FF0010280
:104860001A612046FCF770FDC9E723686FF08002EB
:104870001A61204600F04FFAC7E723686FF0400244
:104880001A612046FFF759FFC5E723686FF0200241
:104890001A61204600F03EFAC3E700000368344A7C
:1048A000904212D0B0F1804F0FD0A2F57C429042DE
:1048B0000BD002F58062904207D002F580629042F0
:1048C00003D002F57842904203D123F070034A6886
:1048D0001343274A90422AD0B0F1804F27D0A2F547
:1048E0007C42904223D002F5806290421FD002F5B4
:1048F000806290421BD002F57842904217D002F5B8
:104900007052904213D002F5806290420FD002F5AF
:10491000806290420BD0A2F59832904207D002F507
:104920008062904203D002F58062904203D123F46A
:104930004073CA68134323F080034A69134303603A
:104940008B68C3620B688362094B984203D003F5FE
:104950008063984201D10B690363012343610369BA
:1049600013F0010F03D0036923F0010303617047C3
:104970000000014040B310B5044690F83D30F3B15B
:10498000022384F83D30214651F8040BFFF786FFDF
:10499000012384F8463084F83E3084F83F3084F8B0
:1049A000403084F8413084F8423084F8433084F851
:1049B000443084F8453084F83D30002010BD80F844
:1049C0003C30FCF763FFDBE70120704740B310B5D4
:1049D000044690F83D30F3B1022384F83D3021467F
:1049E00051F8040BFFF75AFF012384F8463084F88E
:1049F0003E3084F83F3084F8403084F8413084F809
:104A0000423084F8433084F8443084F8453084F8E8
:104A10003D30002010BD80F83C30FCF71FFFDBE785
:104A20000120704730B4036A026A22F01002026269
:104A30004468826922F4E6420D6842EA052223F0C6
:104A400020038D6843EA0513114DA84203D005F5F4
:104A50008065A84206D123F08003CD6843EA0513A0
:104A600023F040030A4DA84203D005F58065A84213
:104A700007D124F440644D6944EA85048D6944EA11
:104A80008504446082614A688263036230BC704777
:104A90000000014038B590F83C30012B66D0044648
:104AA0000D46012380F83C300C2A5AD8DFE802F08A
:104AB000075959591B5959593059595944000068D7
:104AC000FFF72CFD2268936943F008039361226885
:104AD000936923F0040393612268936929690B4366
:104AE000936100203EE00068FFF79CFF2268936915
:104AF00043F4006393612268936923F480639361B4
:104B000022689369296943EA01239361002029E01F
:104B10000068FFF73BFD2268D36943F00803D361C7
:104B20002268D36923F00403D3612268D369296919
:104B30000B43D361002015E00068FFF75FFD22689A
:104B4000D36943F40063D3612268D36923F480639B
:104B5000D3612268D369296943EA0123D361002024
:104B600000E00120002384F83C3038BD0220FCE73F
:104B700010B4846824F47F4C42EA03220A4342EAD8
:104B80000C0282605DF8044B704790F83C30012BBA
:104B900078D010B50446012380F83C30022380F819
:104BA0003D300268936823F47F4323F077039360DA
:104BB0000B68602B4CD023D8402B54D011D8202B1D
:104BC00003D00AD80BB1102B05D119462068FFF786
:104BD00064FD002028E0012026E0302BF5D00120E4
:104BE00022E0502B0AD1CA6849680068FFF72EFD01
:104BF00050212068FFF751FD002015E0012013E04F
:104C0000B3F5805F3AD0B3F5005F14D0702B37D185
:104C1000CB684A6889680068FFF7AAFF2268936832
:104C200043F0770393600020012384F83D30002394
:104C300084F83C3010BDCB684A6889680068FFF78B
:104C400097FF2268936843F4804393600020EBE76A
:104C5000CA6849680068FFF70CFD60212068FFF70B
:104C60001CFD0020E0E7CA6849680068FFF7EEFC19
:104C700040212068FFF711FD0020D5E70020D3E791
:104C80000120D1E70220704790F83C20012A3DD056
:104C900010B40346012280F83C20022280F83D2017
:104CA00002685068946820F0700C086840EA0C00B4
:104CB00050601A68164882421AD0B2F1804F17D05D
:104CC000A0F57C40824213D000F5806082420FD074
:104CD00000F5806082420BD000F57840824207D018
:104CE00000F57050824203D0A0F59430824204D186
:104CF00024F08004496821439160012283F83D201B
:104D0000002083F83C005DF8044B70470220704798
:104D10000000014070477047704770477047704708
:104D20007047704770477047704708B50346806BFF
:104D30001B681B6813F4807F2BD10023C385026896
:104D400002F10C0353E8003F23F480730C3242E875
:104D500000310029F3D1026802F1140353E8003F47
:104D600023F00103143242E800310029F3D1026834
:104D700002F1140353E8003F23F04003143242E8E9
:104D800000310029F3D1202380F84230036B012B3E
:104D900007D000234363036B012B0FD0436D98476B
:104DA00008BD026802F10C0353E8003F23F0100332
:104DB0000C3242E800310029F3D1EAE7C36E818D5D
:104DC0009847EDE708B5806B01234363036B012B24
:104DD00002D0036D984708BDC36E818D490898477E
:104DE000F9E7026802F10C0353E8003F23F0C00327
:104DF0000C3242E800310029F3D1202380F8413001
:104E00007047026802F10C0353E8003F23F49073EB
:104E10000C3242E800310029F3D1026802F1140398
:104E200053E8003F23F00103143242E80031002927
:104E3000F3D1036B012B05D0202380F842300023EF
:104E400003637047026802F10C0353E8003F23F04C
:104E500010030C3242E800310029F3D1ECE710B521
:104E6000846B23685A6994F84130DBB2212B10D04F
:104E700023685A6902F0400294F84230DBB2222BD8
:104E800011D0636C43F010036364A36D2046984710
:104E900010BD02F08002002AEAD00023E3842046FD
:104EA000FFF79FFFE4E7002AEBD00023E3852046CD
:104EB000FFF7A7FFE5E708B5806B0023C385C38430
:104EC000836D984708BD90F84130DBB2212B01D0AB
:104ED000022070478368B3F5805F17D0036A5A1CBD
:104EE00002621A7803685A60C38C9BB2013B9BB282
:104EF000C3844BB90268D36823F08003D36002688F
:104F0000D36843F04003D360002070470369002B4F
:104F1000E4D1036A1B880268C3F308035360036A81
:104F200002330362E0E708B50168CA6822F0400274
:104F3000CA60202280F84120C36C9847002008BD39
:104F400090F84230DBB2222B69D18368B3F5805FE1
:104F500034D0826AB3F5805F04D0002B3BD1036963
:104F6000002B38D103685B681370836A0133836256
:104F7000C38D9BB2013B9BB2C385002B51D100B5C1
:104F800083B00268D36823F02003D3600268D3683B
:104F900023F48073D3600268536923F001035361E3
:104FA000202380F8423000234363036B012B18D089
:104FB000436D9847002003B05DF804FB0269002AA6
:104FC000C7D1826A03685B68C3F308031380836AEE
:104FD00002338362CCE703685B6803F07F031370DE
:104FE000C3E700230363026802F10C0353E8003FA8
:104FF00023F010030C3242E800310029F3D103689A
:105000001A6812F0100F06D0002201921A6801925D
:105010005B680193019BC36E818D9847CAE70220AC
:10502000704700207047000010B5044602681369FD
:1050300023F44053C1680B431361836802691A4328
:1050400043691A43C3691A430168CB6823F41643C2
:1050500023F00C031343CB600268536923F44073BD
:1050600081690B4353610368314A934206D002F5CC
:105070008062934202D0FFF719F901E0FFF726F9A9
:10508000E369B3F5004F29D00021031849411B18EB
:1050900041F10001C90041EA5371DB00181863684F
:1050A0004FEA83024FEA937341F10001FBF780F866
:1050B000204AA2FB00314909642303FB11031B01B1
:1050C0003233A2FB03235B0903F0F00202EB01126F
:1050D00003F00F03216813448B6010BD00230218F6
:1050E00043EB0301121841F10001C90041EA52717A
:1050F000D200101841F10001626892185B41FBF781
:1051000057F80C4AA2FB00314909642303FB110341
:10511000DB003233A2FB03235B095A0002F4F8726E
:1051200002EB011203F00703216813448B60D4E7FC
:10513000001001401F85EB510346A1B193F84020B8
:10514000012A19D0012283F8402093F84120D2B2DD
:10515000202A0ED05A6C42F020025A64012000220C
:1051600083F8402070475A6C42F020025A640120B4
:105170007047D9660020F2E70220704710B582B070
:10518000044602681368D068516913F00F0F09D103
:1051900013F0200F0CD010F0200F09D02046FFF79D
:1051A000CFFE16E011F0010115D110F4907F12D15D
:1051B000216B012979D013F0800F03D010F0800FFC
:1051C00040F0148113F0400F03D010F0400F40F076
:1051D000118102B010BD13F0010F06D010F4807FD2
:1051E00003D0626C42F00102626413F0040F04D039
:1051F00019B1626C42F00202626413F0020F04D033
:1052000019B1626C42F00402626413F0080F07D017
:1052100010F0200F00D119B1626C42F008026264F4
:10522000626C002AD5D013F0200F02D010F0200FAE
:1052300029D123685B6903F04003626C12F0080F08
:1052400000D163B32046FFF7DCFD23685B6913F0F0
:10525000400F20D0226802F1140353E8003F23F0EE
:105260004003143242E800310029F3D1E36B73B1FB
:10527000624A1A65E06BFDF7A0FC0028A9D0E06B3C
:10528000036D9847A5E72046FFF75AFED1E7A36DC7
:10529000204698479DE7A36D2046984799E7A36D60
:1052A000204698470023636493E713F0100F82D0E1
:1052B00010F0100F3FF47FAF0023019313680193A8
:1052C00053680193019B536913F0400F52D0E26B76
:1052D00013685B689BB2002B3FF47BAFA18D9942B2
:1052E0007FF677AFE385D369B3F5807F37D0226847
:1052F00002F10C0353E8003F23F480730C3242E8C0
:1053000000310029F3D1226802F1140353E8003F71
:1053100023F00103143242E800310029F3D122685E
:1053200002F1140353E8003F23F04003143242E833
:1053300000310029F3D1202384F842300023236375
:10534000226802F10C0353E8003F23F010030C32F3
:1053500042E800310029F3D1E06BFDF7E4FB0223C2
:105360006363E26EA18DE38D9BB2C91A89B22046B8
:1053700090472EE7A18DE38D9BB2C91A89B2E38DC8
:105380009BB2002B3FF425AF00293FF422AF2268E7
:1053900002F10C0353E8003F23F490730C3242E80F
:1053A00000300028F3D1226802F1140353E8003FD3
:1053B00023F00103143242E800300028F3D1202307
:1053C00084F8423000232363226802F10C0353E87F
:1053D000003F23F010030C3242E800300028F3D1E4
:1053E00002236363E36E20469847F2E62046FFF708
:1053F0006AFDEEE62046FFF796FDEAE6B74E0008A6
:10540000094B8364094BC364094B0365094B43652E
:10541000094B8365094BC365094B0366094B43661A
:10542000094BC366704700BF1B4D0008194D0008AB
:105430001F4D00081D4D0008214D0008234D000898
:10544000254D0008274D0008294D0008002834D0BC
:1054500010B5044690F8413013B3242384F841304A
:105460002268D36823F40053D3602046FFF7DCFDA5
:105470002268136923F4904313612268536923F06F
:105480002A0353612268D36843F40053D360002099
:105490006064202384F8413084F84230606310BD9A
:1054A00080F84030FFF7ACFF236F1BB1236F20461D
:1054B0009847D2E7024B2367F8E70120704700BF07
:1054C0007D1B000830B583B0044613468162828597
:1054D00000254564222280F84220C26B1F48D06319
:1054E000E26B1F481064E26B1E48D064E26B1565E6
:1054F00020680A46011DE06BFDF7E0FA019523687C
:105500001A6801925B680193019B23695BB1226871
:1055100002F10C0353E8003F43F480730C3242E87D
:1055200000310029F3D1226802F1140353E8003F4F
:1055300043F00103143242E800310029F3D122681C
:1055400002F1140353E8003F43F04003143242E8F1
:1055500000310029F3D1002003B030BD2B4D0008ED
:10556000C54D00085F4E000890F84230DBB2202B9A
:1055700029D110B582B0044639B312B9012002B066
:1055800010BD0123036300234363FFF79BFF002843
:10559000F5D1236B012B01D00120F0E7002301930B
:1055A00023681A6801925B680193019B226802F1EB
:1055B0000C0353E8003F43F010030C3242E8003183
:1055C0000029F3D1DBE7022070470120D7E782B042
:1055D00000230193019B01330193019BB3F1706F91
:1055E00015D80369002BF5DA00230193036943F012
:1055F00001030361019B01330193019BB3F1706FC0
:1056000008D8036913F0010FF4D1002000E0032053
:1056100002B070470320FBE784B010B5044603A82E
:1056200080E80E009DF81130012B21D1A36B23F4EB
:105630008033A363E36823F4840323F04003E3602F
:10564000E36823F44013E3609DF81830012B0AD07F
:105650002046FFF7BCFF9DF80E30012B1CD0BDE8A3
:10566000104004B07047E36843F48013E360EFE751
:10567000E36843F04003E3602046FFF7A8FF9DF88E
:10568000153023B9A36B43F48033A363E3E7A36B23
:1056900023F48033A363DEE7A36843F00603A3602B
:1056A000A36843F02003A360D9E70000022A0AD0D0
:1056B0000922C36823F47053C360C36843EA82239A
:1056C000C36000207047234B0B44234A93422FD9D9
:1056D000224B0B44224A93422CD9A1F57403A3F523
:1056E0001053204A934227D9A1F18373A3F5E743CE
:1056F0001D4A934222D31D4B0B441D4A93421FD98E
:105700001C4B0B441C4A93421CD31C4B0B441C4A9D
:10571000934219D3A1F1B773A3F55853194A934291
:1057200014D3194B0B44194A934211D20722C0E7F4
:105730000F22BEE70E22BCE70D22BAE70C22B8E723
:105740000B22B6E70A22B4E70922B2E70822B0E743
:105750000622AEE7405327FFFF340C00401E1BFF1C
:105760003F420F007F4F120020D6130060B6E5FEC7
:105770005FE3160000D3CEFE40771B00C05BB3FE94
:10578000C091210020753800E05459FEE09C410092
:10579000836843F00103836000207047836823F02F
:1057A000010383600020704782B000230193019BB6
:1057B00001330193019BB3F1706F15D80369002B7E
:1057C000F5DA00230193890141F020010161019B79
:1057D00001330193019BB3F1706F08D8036913F093
:1057E000200FF4D1002000E0032002B07047032016
:1057F000FBE782B000230193019B01330193019BDE
:10580000B3F1706F13D80369002BF5DA002301930D
:1058100010230361019B01330193019BB3F1706F6E
:1058200008D8036913F0100FF4D1002000E0032022
:1058300002B070470320FBE7D0F800381943C0F8E6
:10584000001800207047000084B0F8B5044607A88F
:1058500080E80E00002306E003F1400204EB820220
:105860000021516001330E2BF6D99DF8266006BB4E
:10587000D4F8043843F00203C4F80438A36B43F4AB
:105880000013A363A36B23F40023A363A36B23F48C
:105890008023A3630023C4F8003E9DF82130012B30
:1058A00015D19DF81F306BB900212046FFF7C4FFCA
:1058B00011E0A36B23F40013A363A36B43F4002351
:1058C000A363E7E701212046FFF7B6FF03E00321CA
:1058D0002046FFF7B1FF10212046FFF765FF054680
:1058E00000B101252046FFF784FF00B1012504F532
:1058F000006C0023CCF81030CCF81430CCF81C30FD
:105900000AE0CBB94FF00060C2F8000900220A613A
:105910004FF67F328A6001339DF81C10994210D9EE
:1059200004EB431202F51061D2F800090028E8DB0D
:105930000020C2F80009E9E74FF09040C2F80009E2
:10594000E4E700230AE0BBB14FF09047C2F8007BC8
:10595000002202614FF67F3282600133994210D9F2
:1059600004EB431202F53060D2F8007B002FEADB33
:105970000027C2F8007BEBE74FF00067C2F8007B1E
:10598000E6E7DCF8103023F48073CCF81030002305
:10599000A3616FF0804363619DF81E301BB9A3695A
:1059A00043F01003A361A2690B4B1343A3619DF85D
:1059B00022301BB1A36943F00803A361012E04D078
:1059C0002846BDE8F84004B07047A36943F080431F
:1059D00043F00403A361F3E700383C80D0F80838B3
:1059E00003F00603022B04D0062B04D02BB90020B1
:1059F000704702207047022070470F20704710B593
:105A000091F800C04B78012B23D000F5006ED0F840
:105A10001C380CF00F040122A24043EA0243C0F8F4
:105A20001C3800EB4C10D0F8003B13F4004F0ED1A3
:105A3000D0F8003B8A68C2F30A02097942EA81423F
:105A4000134343F0805343F40043C0F8003B00206D
:105A500010BDD0F81C280CF00F0E03FA0EF39BB209
:105A60001343C0F81C3800EB4C10D0F8003913F485
:105A7000004FECD1D0F800398A68C2F30A020979E4
:105A800042EA814242EA8C52134343F0805343F48A
:105A90000043C0F80039DAE730B40B784A78012ABD
:105AA00026D000EB4313D3F8002B002A52DBD0F8AA
:105AB0003C480A7802F00F024FF0010C0CFA02F297
:105AC00024EA0242C0F83C28D0F81C28097801F0EA
:105AD0000F010CFA01FC22EA0C42C0F81C28D3F892
