:020000040800F2
:100000000000032079640008FD5A0008FF5A000828
:10001000015B0008035B0008055B000800000000AE
:10002000000000000000000000000000B1BF000858
:10003000075B00080000000051C000089DB90008DF
:10004000C9640008C9640008C9640008C9640008DC
:10005000C9640008C9640008C9640008C9640008CC
:10006000C9640008C9640008C9640008095B000885
:10007000195B0008C9640008295B0008395B0008A7
:10008000C9640008495B0008C9640008595B00089E
:10009000695B0008C9640008C9640008C9640008F5
:1000A000C9640008C9640008C9640008C96400087C
:1000B000C9640008C9640008C9640008C96400086C
:1000C000C9640008C9640008C9640008C96400085C
:1000D000C9640008795B0008C9640008895B0008EE
:1000E000C9640008C9640008C9640008C96400083C
:1000F000C9640008C9640008C9640008C96400082C
:10010000C9640008C9640008C9640008C96400081B
:10011000C9640008C9640008C9640008995B000844
:10012000C9640008A95B0008B95B0008C95B000846
:10013000D95B0008C9640008C9640008E95B0008CD
:10014000C9640008F95B0008C9640008095C00087C
:10015000C9640008195C0008C9640008295C00082B
:10016000C9640008C9640008C9640008C9640008BB
:10017000C9640008C9640008C964000800000000E0
:10018000C9640008C9640008395C0008495C0008BB
:10019000C9640008595C0008C9640008C964000803
:0C01A0000000000000000000C96400081E
:1001C00081F0004102E000BF83F0004330B54FEA08
:1001D00041044FEA430594EA050F08BF90EA020F75
:1001E0001FBF54EA000C55EA020C7FEA645C7FEA08
:1001F000655C00F0E2804FEA5454D4EB5555B8BF2B
:100200006D420CDD2C4480EA020281EA030382EA9B
:10021000000083EA010180EA020281EA0303362D2D
:1002200088BF30BD11F0004F4FEA01314FF4801C00
:100230004CEA113102D0404261EB410113F0004F12
:100240004FEA03334CEA133302D0524263EB4303C9
:1002500094EA050F00F0A780A4F10104D5F1200E67
:100260000DDB02FA0EFC22FA05F2801841F10001C2
:1002700003FA0EF2801843FA05F359410EE0A5F196
:1002800020050EF1200E012A03FA0EFC28BF4CF0C7
:10029000020C43FA05F3C01851EBE37101F000457D
:1002A00007D54FF0000EDCF1000C7EEB00006EEB8A
:1002B0000101B1F5801F1BD3B1F5001F0CD3490814
:1002C0005FEA30004FEA3C0C04F101044FEA44526B
:1002D00012F5800F80F09A80BCF1004F08BF5FEAF2
:1002E000500C50F1000041EB045141EA050130BDD2
:1002F0005FEA4C0C404141EB0101013C28BFB1F5E4
:10030000801FE9D291F0000F04BF01460020B1FA2E
:1003100081F308BF2033A3F10B03B3F120020CDA01
:100320000C3208DD02F1140CC2F10C0201FA0CF0DF
:1003300021FA02F10CE002F11402D8BFC2F1200C44
:1003400001FA02F120FA0CFCDCBF41EA0C019040FA
:10035000E41AA2BF01EB0451294330BD6FEA040443
:100360001F3C1CDA0C340EDC04F11404C4F120022E
:1003700020FA04F001FA02F340EA030021FA04F340
:1003800045EA030130BDC4F10C04C4F1200220FA97
:1003900002F001FA04F340EA0300294630BD21FAD5
:1003A00004F0294630BD94F0000F83F4801306BF9B
:1003B00081F480110134013D4EE77FEA645C18BF8F
:1003C0007FEA655C29D094EA050F08BF90EA020F26
:1003D00005D054EA000C04BF1946104630BD91EA1E
:1003E000030F1EBF0021002030BD5FEA545C05D121
:1003F0004000494128BF41F0004130BD14F5800460
:100400003CBF01F5801130BD01F0004545F0FE41D3
:1004100041F470014FF0000030BD7FEA645C1ABF08
:10042000194610467FEA655C1CBF0B46024650EA3F
:10043000013406BF52EA033591EA030F41F400216B
:1004400030BD00BF90F0000F04BF0021704730B5F1
:100450004FF4806404F132044FF000054FF00001C6
:1004600050E700BF90F0000F04BF0021704730B587
:100470004FF4806404F1320410F0004548BF40425C
:100480004FF000013EE700BF42004FEAE2014FEAB1
:1004900031014FEA02701FBF12F07F4393F07F4F8C
:1004A00081F06051704732F07F4208BF704793F08F
:1004B0007F4F04BF41F40021704730B54FF46074A2
:1004C00001F0004521F000411CE700BF50EA0102A5
:1004D00008BF704730B54FF000050AE050EA01024E
:1004E00008BF704730B511F0004502D5404261EBBE
:1004F00041014FF4806404F132045FEA915C3FF4FF
:10050000D8AE4FF003025FEADC0C18BF03325FEA9B
:10051000DC0C18BF033202EBDC02C2F1200300FA4C
:1005200003FC20FA02F001FA03FE40EA0E0021FA71
:1005300002F11444BDE600BF70B54FF0FF0C4CF45F
:10054000E06C1CEA11541DBF1CEA135594EA0C0F11
:1005500095EA0C0F00F0DEF82C4481EA030621EA4C
:100560004C5123EA4C5350EA013518BF52EA033587
:1005700041F4801143F4801338D0A0FB02CE4FF039
:100580000005E1FB02E506F00042E0FB03E54FF069
:100590000006E1FB03569CF0000F18BF4EF0010E61
:1005A000A4F1FF04B6F5007F64F5407404D25FEA5D
:1005B0004E0E6D4146EB060642EAC62141EA555110
:1005C0004FEAC52040EA5E504FEACE2EB4F1FD0C52
:1005D00088BFBCF5E06F1ED8BEF1004F08BF5FEAD0
:1005E000500E50F1000041EB045170BD06F0004682
:1005F00046EA010140EA020081EA0301B4EB5C042F
:10060000C2BFD4EB0C0541EA045170BD41F4801126
:100610004FF0000E013C00F3AB8014F1360FDEBF4B
:10062000002001F0004170BDC4F10004203C35DA27
:100630000C341BDC04F11404C4F1200500FA05F3AA
:1006400020FA04F001FA05F240EA020001F000424B
:1006500021F0004110EBD37021FA04F642EB0601C1
:100660005EEA430E08BF20EAD37070BDC4F10C04EB
:10067000C4F1200500FA04F320FA05F001FA04F2AF
:1006800040EA020001F0004110EBD37041F100019B
:100690005EEA430E08BF20EAD37070BDC4F12005A6
:1006A00000FA05F24EEA020E20FA04F301FA05F20E
:1006B00043EA020321FA04F001F0004121FA04F2B6
:1006C00020EA020000EBD3705EEA430E08BF20EA86
:1006D000D37070BD94F0000F0FD101F000464000C0
:1006E00041EB010111F4801F08BF013CF7D041EA42
:1006F000060195F0000F18BF704703F00046520046
:1007000043EB030313F4801F08BF013DF7D043EA16
:100710000603704794EA0C0F0CEA135518BF95EACC
:100720000C0F0CD050EA410618BF52EA4306D1D153
:1007300081EA030101F000414FF0000070BD50EA72
:10074000410606BF1046194652EA430619D094EAFC
:100750000C0F02D150EA013613D195EA0C0F05D1E6
:1007600052EA03361CBF104619460AD181EA03013A
:1007700001F0004141F0FE4141F470014FF00000F2
:1007800070BD41F0FE4141F4780170BD70B54FF08D
:10079000FF0C4CF4E06C1CEA11541DBF1CEA13550D
:1007A00094EA0C0F95EA0C0F00F0A7F8A4EB0504EF
:1007B00081EA030E52EA03354FEA013100F08880E6
:1007C0004FEA03334FF0805545EA131343EA1263AF
:1007D0004FEA022245EA111545EA10654FEA002664
:1007E0000EF000419D4208BF964244F1FD0404F51D
:1007F000407402D25B084FEA3202B61A65EB030579
:100800005B084FEA32024FF480104FF4002CB6EB35
:10081000020E75EB030E22BFB61A754640EA0C00B5
:100820005B084FEA3202B6EB020E75EB030E22BFF5
:10083000B61A754640EA5C005B084FEA3202B6EB36
:10084000020E75EB030E22BFB61A754640EA9C00F5
:100850005B084FEA3202B6EB020E75EB030E22BFC5
:10086000B61A754640EADC0055EA060E18D04FEA83
:10087000051545EA16754FEA06164FEAC30343EA23
:1008800052734FEAC2025FEA1C1CC0D111F4801FF0
:100890000BD141EA00014FF000004FF0004CB6E7E9
:1008A00011F4801F04BF01430020B4F1FD0C88BF88
:1008B000BCF5E06F3FF6AFAEB5EB030C04BFB6EB93
:1008C000020C5FEA500C50F1000041EB045170BD86
:1008D0000EF0004E4EEA113114EB5C04C2BFD4EBB3
:1008E0000C0541EA045170BD41F480114FF0000E37
:1008F000013C90E645EA060E8DE60CEA135594EAB3
:100900000C0F08BF95EA0C0F3FF43BAF94EA0C0FB5
:100910000AD150EA01347FF434AF95EA0C0F7FF42A
:1009200025AF104619462CE795EA0C0F06D152EA7E
:1009300003353FF4FDAE1046194622E750EA410662
:1009400018BF52EA43067FF4C5AE50EA41047FF473
:100950000DAF52EA43057FF4EBAE12E74FF0FF3CD8
:1009600006E000BF4FF0010C02E000BF4FF0010CA9
:100970004DF804CD4FEA410C7FEA6C5C4FEA430C22
:1009800018BF7FEA6C5C1BD001B050EA410C0CBF71
:1009900052EA430C91EA030F02BF90EA020F0020D3
:1009A000704710F1000F91EA030F58BF994208BF3A
:1009B00090422CBFD8176FEAE37040F001007047F7
:1009C0004FEA410C7FEA6C5C02D150EA013C07D14E
:1009D0004FEA430C7FEA6C5CD6D152EA033CD3D099
:1009E0005DF8040B704700BF8446104662468C4693
:1009F0001946634600E000BF01B5FFF7B7FF0028C6
:100A000048BF10F1000F01BD4DF808EDFFF7F4FFEE
:100A10000CBF012000205DF808FB00BF4DF808ED79
:100A2000FFF7EAFF34BF012000205DF808FB00BF9C
:100A30004DF808EDFFF7E0FF94BF012000205DF8BE
:100A400008FB00BF4DF808EDFFF7CEFF94BF012073
:100A500000205DF808FB00BF4DF808EDFFF7C4FF6C
:100A600034BF012000205DF808FB00BF53B94AB92C
:100A7000002908BF00281CBF4FF0FF314FF0FF30A6
:100A800000F0E2B8ADF1080C6DE904CE15F064FA9F
:100A9000DDF804E0DDE9022304B0704700F1340121
:100AA00091E838009C46A6464CF8045D90E8FF0F9C
:100AB000E54600BD90EC210B704700BF80EC210B98
:100AC000704700BF90EC200B704700BF80EC200BFC
:100AD000704700BFD0EC200B704700BFC0EC200B6C
:100AE000704700BFF0EC0201F0EC0211F0EC0221C3
:100AF000F0EC0231F0EC0241F0EC0251F0EC02615A
:100B0000F0EC0271F0EC0281F0EC0291F0EC02A149
:100B1000F0EC02B1F0EC02C1F0EC02D1F0EC02E139
:100B2000F0EC02F1704700BFE0EC0201E0EC0211D2
:100B3000E0EC0221E0EC0231E0EC0241E0EC025199
:100B4000E0EC0261E0EC0271E0EC0281E0EC029189
:100B5000E0EC02A1E0EC02B1E0EC02C1E0EC02D179
:100B6000E0EC02E1E0EC02F1704700BFB0FC018173
:100B7000B0FC0191B0FC01A1B0FC01B1704700BF15
:100B8000A0FC0181A0FC0191A0FC01A1A0FC01B18D
:100B9000704700BFEC4600B52DE900502DE9FF1F5E
:100BA0004FF000032DE90C0001A915F08FFCDDF8D2
:100BB00040E012B0704700BFEC4600B52DE9005090
:100BC0002DE9FF1F4FF000032DE90C0001A915F0DE
:100BD000B9FCDDF840E012B0704700BFEC4600B54C
:100BE0002DE900502DE9FF1F4FF000032DE90C0007
:100BF00001A915F0C9FCDDF840E012B0704700BF54
:100C0000EC4600B52DE900502DE9FF1F4FF0000321
:100C10002DE90C0001AB15F08DFCDDF840E012B0C1
:100C2000704700BFEC4600B52DE900502DE9FF1FCD
:100C30004FF000032DE90C0001AA15F005FDDDF8C9
:100C400040E012B0704700BF704700BF00000000D6
:100C50000000000000000000000000000000000094
:100C600002780B78012A28BF9A4240F0D8806DE9BB
:100C7000044540EA0104CDE902676FF0000C4FEA39
:100C800044721AB380EA010414F0070F6BD100F02C
:100C9000070420F0070004F0030521F007014FEAE4
:100CA000C505F0E8042314F0040FF1E804670CFA1A
:100CB00005F462EA040266EA04060BD063EA040360
:100CC000624667EA0407664604E000BFF0E80423D2
:100CD000F1E8046782FA4CF582EA0604A4FA8CF47F
:100CE0006CBB83FA4CF583EA0705A5FA8CF595B938
:100CF00050E9022351E9026782FA4CF582EA0604C0
:100D0000A4FA8CF483FA4CF583EA0705A5FA8CF56E
:100D10002543DBD09CB92DBAB5FA85F424F007043D
:100D200027FA04F1DDE9026723FA04F303F0FF0078
:100D300001F0FF01FDE80445A0EB0100704724BA73
:100D4000B4FA84F424F0070426FA04F1DDE902671A
:100D500022FA04F202F0FF0001F0FF01FDE8044571
:100D6000A0EB0100704714F0030F3CD110F0030416
:100D700028D150F8082B51F8083B82FA4CF582EA4A
:100D80000305A5FA8CF55DB950F8042C51F8043C24
:100D900082FA4CF582EA0305A5FA8CF5002DE8D01D
:100DA0002DBAB5FA85F424F0070423FA04F122FAE7
:100DB00004F202F0FF0001F0FF01FDE80445A0EBA2
:100DC000010070474FEAC40420F0030050F8082BDC
:100DD00021F0030151F8083B0CFA04F462EA040222
:100DE00063EA0403C9E710F003041DD0A1EB04017A
:100DF00020F00300E40750F8042B06D012D28B78C1
:100E00005FFAA2F4E41A06D12BB1CB785FFAB2F400
:100E1000E41A00D133B920465DF8104B7047A2EBBD
:100E20000300704701F1040150F8042BCC0721F0B6
:100E3000030151F8043B48D824D222F07F4482FABF
:100E40004CF594EA1325A5FA8CF50AD165B951F849
:100E5000043B84EA0204B4EB036F0ED150F8042B78
:100E6000EBE74FEA132355E035F07F454DD1087885
:100E7000FDE80445C0F1000070474FEA126203F03C
:100E8000FF0347E002EA1C4482FA4CF594EA13455A
:100E9000A5FA8CF50AD165B951F8043B84EA02043D
:100EA000B4EB034F0CD150F8042BEBE74FEA13439C
:100EB00030E015EA1C4528D10B884FEA124229E0A0
:100EC0004FEA124203EA1C4324E002F0FF0482FAD4
:100ED0004CF594EA1365A5FA8CF50AD165B951F879
:100EE000043B84EA0204B4EB032F09D150F8042B2D
:100EF000EBE74FEA13630DE015F0FF0F05D10B6828
:100F00004FEA122223F07F4304E04FF00000FDE897
:100F10000445704712BA1BBA82FA4CF482EA030401
:100F2000A4FA8CF5B5FA85F402FA04F203FA04F394
:100F30004FEA1260FDE80445A0EB1360704700BF64
:100F400001F0FF01102A2BDB10F0070F08D010F87A
:100F5000013B013A8B422DD010F0070F42B3F6D17E
:100F6000F0B441EA012141EA014122F007047FF097
:100F700000070023F0E80256083C85EA010586EAEE
:100F8000010685FA47F5A3FA87F586FA47F6A5FA2A
:100F900087F68EB9EED1F0BC01F0FF0102F0070236
:100FA00032B110F8013B013A83EA010313B1F8D1E1
:100FB0000020704701387047002D06BF35460338C2
:100FC000073815F0010F07D1013015F4807F02BFFB
:100FD000013015F4C03F0130F0BC0138704700BF4C
:100FE000844641EA000313F003036DD1403A41D334
:100FF00051F8043B40F8043B51F8043B40F8043BF3
:1010000051F8043B40F8043B51F8043B40F8043BE2
:1010100051F8043B40F8043B51F8043B40F8043BD2
:1010200051F8043B40F8043B51F8043B40F8043BC2
:1010300051F8043B40F8043B51F8043B40F8043BB2
:1010400051F8043B40F8043B51F8043B40F8043BA2
:1010500051F8043B40F8043B51F8043B40F8043B92
:1010600051F8043B40F8043B51F8043B40F8043B82
:10107000403ABDD2303211D351F8043B40F8043B22
:1010800051F8043B40F8043B51F8043B40F8043B62
:1010900051F8043B40F8043B103AEDD20C3205D332
:1010A00051F8043B40F8043B043AF9D2043208D02A
:1010B000D2071CBF11F8013B00F8013B01D30B889C
:1010C00003806046704700BF082A13D38B078DD07A
:1010D00010F003038AD0C3F10403D21ADB071CBF4C
:1010E00011F8013B00F8013B80D331F8023B20F8B6
:1010F000023B7BE7043AD9D3013A11F8013B00F8EF
:10110000013BF9D20B7803704B7843708B78837076
:101110006046704700000000000000000000000072
:1011200000000000000000000000000000000000BF
:1011300000000000000000000000000000000000AF
:1011400030B490F800F020F007016FF0000C10F0C0
:10115000070491F820F040F048804FF000046FF051
:101160000700D1E9002391F840F000F1080082FA6D
:101170004CF2A4FA8CF283FA4CF3A2FA8CF34BBB38
:10118000D1E9022382FA4CF200F10800A4FA8CF2B1
:1011900083FA4CF3A2FA8CF3E3B9D1E9042382FA7F
:1011A0004CF200F10800A4FA8CF283FA4CF3A2FA94
:1011B0008CF37BB9D1E9062301F1200182FA4CF2CC
:1011C00000F10800A4FA8CF283FA4CF3A2FA8CF333
:1011D000002BC6D0002A04BF04301A4612BAB2FA55
:1011E00082F200EBD20030BC7047D1E9002304F05A
:1011F0000305C4F100004FEAC50514F0040F91F88F
:1012000040F00CFA05F562EA05021CBF63EA05032B
:1012100062464FF00004AAE74FEA410C7FEA6C5C9B
:1012200002D150EA013C0AD14FEA430C7FEA6C5CE0
:1012300002D152EA033C02D14FF0000070474FF058
:10124000010070474FEA410212F5001215D211D584
:101250006FF47873B3EB625212D94FEAC12343F0B3
:10126000004343EA505311F0004F23FA02F018BF35
:10127000404270474FF00000704750EA013005D1FE
:1012800011F0004008BF6FF0004070474FF00000C1
:10129000704700BF0348044B834202D0034B03B1A5
:1012A00018477047100F0020100F002000000000AA
:1012B0000548064B1B1AD90F01EBA301491002D0B8
:1012C000034B03B118477047100F0020100F002088
:1012D0000000000010B5064C237843B9FFF7DAFF91
:1012E000044B13B10448AFF300800123237010BDF9
:1012F000100F00200000000050D7010808B5054B72
:101300001BB105490548AFF30080BDE80840FFF771
:10131000CFBF00BF00000000140F002050D701080D
:1013200001608260C0F80D30009B037370470000BD
:1013300008B502680A4B9A4208D000231A4600F109
:101340000801084800680AF0F9FC08BD00231A46A5
:1013500000F10801044800680AF0F0FCF5E700BF5E
:1013600084200020F4200020F820002008B5064B3F
:10137000834204D0054B18680AF066FC08BD044B94
:1013800018680AF061FCF9E784200020AC200020F6
:10139000B020002008B5FFF7E9FF08BD08B5FFF74A
:1013A000E5FF08BD08B5FFF7E1FF08BD2DE9F041F5
:1013B00004460D4690461E46069F0AF00BFE236823
:1013C00013B16368002B4ED12560B8F1000F01D036
:1013D000C4F8048006B1666107B1A7612A4B9D423B
:1013E00044D00123294A13611D46294A52F823207B
:1013F000372A2AD8E261C3EBC30102EBC1012548B9
:1014000040F82140E169C3EBC300400000EB9100CC
:101410001E4E706101F0030160681F4F01EB8301F4
:1014200047F8210001321A4941F823201A0107EB3D
:101430000313BA58520172605A685201F2609A68F6
:1014400052013260DB685B01B3601049206805F02F
:1014500023F90F4B53F8253013F0030F0AD00AF08D
:10146000DBFDBDE8F0810AF0D7FDFAE70023074A6B
:101470001361B9E72901084A02EB0515002353500F
:101480006B60AB60EB60EAE7842000200000002086
:101490004C0F0020540F00202C0F002010B58AB0F4
:1014A00001AB03AA002105F036FA099A064B53F85E
:1014B00022403CB1A06928B10AF0C6FB636901A9CA
:1014C000204698470AB010BD540F002010B58AB0CE
:1014D00001AB03AA012105F01EFA099B3833074A24
:1014E00052F823403CB1A06928B10AF0ADFB636912
:1014F00001A9204698470AB010BD00BF540F002034
:1015000008B5062308F071F901200AF0EAFA08BDCF
:1015100008B508F0D1F901200AF0E3FA08BD10B5CA
:10152000044608F001FCE36B1A68136823F0080313
:10153000136010BD10B504460846114623880022EA
:1015400010E073460CF1010CBCF1070F09D84FEA0B
:10155000430E13F4004FF4D08EF4815383F0010353
:10156000F0E701328A4206D210F802C083EA0C2367
:101570004FF0000CE8E7238010BD000070B52DEDA2
:10158000048B84B00646F0EE418AB0EE619AFFEE1D
:10159000007AB4EEE70AF1EE10FA0BD9B0EE408A09
:1015A000F7EE007AB4EEE70AF1EE10FA04DBB7EEDC
:1015B000008A01E0BFEE008AFFEE007AF4EEE70A4F
:1015C000F1EE10FA09D9F7EE007AF4EEE70AF1EE3F
:1015D00010FA04DBF7EE000A01E0FFEE000A68EE05
:1015E000087A20EEA07A77EE877AF5EEC07AF1EEEF
:1015F00010FA08DBF1EEE77AB7EE007AF4EEC77A7C
:10160000F1EE10FA1BDC78EE607A9FED2B7A28EE73
:10161000871A37EEC17A8DED007A38EE208A38EEDF
:10162000417A8DED017A77EE817ACDED027A31EE55
:10163000081A8DED031AB0EE497A6B4611E080EE80
:10164000880A14F081FBF0EE409A0CF095FFB0EEA2
:10165000408AB0EE690A0CF0DBFFF0EE400AD2E7F8
:10166000043304AA93420BD0D3ED007AF0EEE77A6C
:10167000F4EEC77AF1EE10FAF2DDB0EE677AEFE73A
:1016800089EE078A002410E0E42505FB046504AB1D
:1016900003EB840313ED040A20EE080A284602F047
:1016A000D6FA284602F0A8FA0134032CECDD04B087
:1016B000BDEC048B70BD00BFCDCC4C3F30EE600A5A
:1016C00080ED070A90ED007A20EE077A80ED0A7A25
:1016D000D0ED0B6AD0ED017A60EE277A76EEA76A3C
:1016E000C0ED0B6AD0ED027A90ED086A30EE466AE2
:1016F00067EE867AC0ED0C7A90ED056AF4EEC66A64
:10170000F1EE10FA1DD880ED0B6AD0ED0B6A37EEC2
:10171000267A77EE877AC0ED0D7A90ED037AF1EEB6
:10172000476AF4EEE67AF1EE10FA14D8C0ED0D6ACD
:1017300080ED080A037E0BB90023436390ED0D0A88
:10174000704790ED046AF4EEC66AF1EE10FADCDB45
:1017500080ED0B6AD9E7F4EEC77AF1EE10FAE7DB19
:1017600080ED0D7AE4E7C0ED010A80ED021A80ED0C
:10177000042A80ED000AC0ED031A7047D0ED046A18
:10178000D0ED037AB1EE677AB4EEE67AF1EE10FAB4
:1017900006DAF4EEE67AF1EE10FA22D9B0EE667AC5
:1017A000D0ED007AF5EEC07AF1EE10FA1CDDF4EE21
:1017B000C77AF1EE10FA20DC01231A4677EE676A49
:1017C000F0EEE66A02B390ED016AF0EEC65AF4EE6E
:1017D000E65AF1EE10FA1CDD80ED007A90ED000A79
:1017E0007047B0EE677ADBE7F4EEC77AF1EE10FAF5
:1017F00006D44FF0FF330122E0E701230022DDE7AA
:101800004FF0FF330022D9E790ED026AB1EE466A4D
:10181000DBE7F0EEE77A77EE867AC0ED007A07EE46
:10182000103AB8EEC77A67EE877AC0ED007AD5E74E
:10183000002303600361704780ED050AC0ED040AD0
:10184000002202767047000010B52DED028B044691
:10185000DFED158A9FED158AF0EE680AB0EE480AB2
:10186000203001F07DFEF0EE680AB0EE480A04F187
:101870003C0001F075FEDFED0E0AB0EE480A04F1FF
:10188000580001F06DFE002104F1740002F072FCBA
:10189000002384F87730012284F8752084F87630AC
:1018A0002046BDEC028B10BD00C0F3440040E7446D
:1018B0000080F24408B50248FFF7C6FF08BD00BF2C
:1018C0001811002008B5FFF7F5FF08BD012300F847
:1018D000083C0B784A7802F0030243EA022307EE41
:1018E000903AF8EE677A9FED2D7A77EE877AC0ED21
:1018F0000A7A4A788B7803F00F039B0143EA92033C
:1019000007EE903AF8EE677A9FED257A77EEC77A80
:10191000C0ED0B7A8A78CB7803F03F031B0143EAD2
:10192000121307EE903AF8EE677A9FED1E7A77EE83
:10193000C77AC0ED0C7A0A794B7903F07F035B001C
:1019400043EAD2135BB207EE903AF8EEE77AC0EDC5
:10195000107A4A798B795B0043EAD21343F3080388
:101960001BB207EE903AF8EEE77AC0ED0F7ACA782C
:101970000B7903F07F039B0043EA921343F30803C0
:101980001BB207EE903AF8EEE77AC0ED0E7A064BFE
:101990005A6C42639B6C4364704700BF000048432D
:1019A0000000C84300001643201A002010B52DED9A
:1019B000028B04469FED268AF0EE480AB1EE040A37
:1019C000FFF73AFFF0EE480AB1EE040A04F12000F6
:1019D000FFF732FFF0EE480AB1EE040A04F14000CE
:1019E000FFF72AFF9FED1B8AF0EE480AB1EE040ACA
:1019F00004F16000FFF720FFF0EE480AB1EE040AA0
:101A000004F18000FFF718FFF0EE480AB1EE040A77
:101A100004F1A000FFF710FFF0EE480AB1EE040A4F
:101A200004F1C000FFF708FFF0EE480AB1EE040A27
:101A300004F1E000FFF700FF002384F8213184F86F
:101A40002331A4F824312046BDEC028B10BD00BF29
:101A50009A99993ECDCCCC3D08B50248FFF7A6FF38
:101A600008BD00BFA0110020164BC0F8A831164BCE
:101A7000C0F8C831154BC0F8AC31154BC0F8CC31AB
:101A8000144BC0F8B031144BC0F8D031134BC0F830
:101A9000C031134BC0F8E0310022C0F8C421C0F8B7
:101AA000E431104BC0F8BC310F4BC0F8DC310F4BA8
:101AB000C0F8B4310E4AC0F8D421C0F8D821C0F81B
:101AC000B83170470000484300E083440080C5C33C
:101AD00000400544000043C3000025440000B4C298
:101AE0000000B44200007FC300007F43000020C319
:101AF0000000204310B504460F21064B18680AF079
:101B00006FF818B9012384F8223110BD002384F83E
:101B10002231FAE7B420002090F82101704700003C
:101B2000054B1B791BB1012380F82131704700233D
:101B300080F82131704700BF9C1B002010B504467F
:101B40000AF048FA04F59470FFF7F2FB0AF064FA21
:101B500010BD000010B504460AF03CFA94ED5C0A92
:101B6000DFED437A30EE670A30EE000A14F0CEF96A
:101B7000BCEEC00AB4F8483110EE102A62F30A0332
:101B8000A4F8483194ED5D0ADFED3A7A30EE270A89
:101B900030EE000A14F0BAF9BCEEC00AD4F84831AD
:101BA00010EE102A62F3D523C4F8483194ED5E0A92
:101BB000DFED317A30EE270A30EE000A14F0A6F994
:101BC000FCEEC07A17EE903AC3F30901B4F84A214B
:101BD00002F03F0242EA8112A4F84A21C3F38023B3
:101BE00094F84C2122F00102134384F84C3194ED17
:101BF000610A30EE000A14F089F9BDEEC00A10EE59
:101C0000103A43F30903B4F84E2163F30D12A4F81C
:101C10004E2194ED620A30EE000A14F077F9BDEE21
:101C2000C00A10EE103A43F30803D4F84C2163F3D2
:101C3000D322C4F84C2194ED600A30EE000A14F06F
:101C400065F9BDEEC00A10EE103A43F30903B4F88B
:101C50004C2163F34A02A4F84C21D4F88C21074BA1
:101C60001A63D4F87C215A630AF0D6F910BD00BF7C
:101C7000000048430000C84300001643201A00201B
:101C800090F823313BB101290AD9403100EB8100A2
:101C900080ED000A7047403100EB810080ED000AC2
:101CA000704738B52DED028B04460D4601F16A03ED
:101CB00000EB830393ED008AB4EEC08AF1EE10FAD4
:101CC0000CDA01F1720300EB830393ED008AB4EEAA
:101CD000C08AF1EE10FA01D9B0EE408AB0EE480A9F
:101CE00029462046FFF7CCFFB0EE480A04EB45102A
:101CF0001BF04EFDBDEC028B38BD000010B52DED84
:101D0000028B04469FED190A0021FFF7CAFF9FEDE1
:101D1000180A01212046FFF7C4FFB3EE040A02218E
:101D20002046FFF7BEFF9FED138AB0EE480A03215D
:101D30002046FFF7B6FFB0EE480A04212046FFF721
:101D4000B0FFB0EE480A05212046FFF7AAFFB0EE2B
:101D5000480A06212046FFF7A4FFB0EE480A0721F3
:101D60002046FFF79EFFBDEC028B10BD0000C8436C
:101D700000008C4200000000F0B583B004460D4620
:101D80001E4600F59477089B00930A4B3846FFF7F0
:101D90000DFB0823009304F5A47332462946384608
:101DA000FFF7BEFA2046FFF75FFE2046FFF7A6FFCB
:101DB00003B0F0BDCD18000810B52DED048B04461E
:101DC00090ED270A9FED179A20EE090ADFED168A9B
:101DD00080EE280A0CF0D0FBDFED147A20EE278A83
:101DE000DFED137A38EE278A84ED648AD4ED377AF2
:101DF00067EE897A87EEA80A84ED670A0CF0BCFBCF
:101E000028EE008A84ED668A94ED648A94ED670A70
:101E10000CF0FEFB28EE008A84ED658ABDEC048B95
:101E200010BD00BFDB0F49400000344300004343B6
:101E300000004843D0ED667AC0ED6A7A9FED037AE0
:101E400077EE877AC0ED727A704700BF00002544B4
:101E5000D0ED657AC0ED6B7A9FED037A77EE877AE5
:101E6000C0ED737A704700BF00000A4310B5044606
:101E7000D0ED3F7A9FED0D7A67EE877A9FED0C0AE1
:101E800087EE800A0CF0C4FBDFED0A7A20EE270A09
:101E9000DFED097A77EEC07AC4ED6C7A9FED077AB0
:101EA00077EE877AC4ED747A10BD00BFDB0F49402E
:101EB00000003443000043430000000000002544BC
:101EC000D0ED3F7A9FED057A77EEC76AC0ED6E6A76
:101ED00077EE877AC0ED767A704700BF0000B44293
:101EE00010B50446FFF7A6FF2046FFF7B1FF2046D6
:101EF000FFF7BCFF2046FFF7E3FF10BDF8B507462C
:101F00000024B8E0D7ED407A97ED720AF4EEC07A7B
:101F1000F1EE10FA1FDC97ED6A0AF4EEC07AF1EEEA
:101F200010FA31D5012387F8233197ED687A77EEDF
:101F3000C07A77EEC77A37EE277A87ED687A384627
:101F40001BF01EFCD7ED407A97ED687A77EEC77AE2
:101F5000C7ED007A8DE0012387F8233197ED687A89
:101F600077EEC07A77EEC77A37EE277A87ED687A10
:101F700038461BF005FCD7ED407A97ED687A77EE8E
:101F8000C77AC7ED007A74E0B0EE670A38461BF0F6
:101F9000F7FBD7F800313B606BE0D7ED417A97ED66
:101FA000730AF4EEC07AF1EE10FA20DC97ED6B0ABA
:101FB000F4EEC07AF1EE10FA33D5012387F823311D
:101FC00097ED697A77EEC07A77EEC77A37EE277A9F
:101FD00087ED697A07F120001BF0D2FBD7ED417A3B
:101FE00097ED697A77EEC77AC7ED087A41E0012369
:101FF00087F8233197ED697A77EEC07A77EEC77A62
:1020000037EE277A87ED697A07F120001BF0B8FBDD
:10201000D7ED417A97ED697A77EEC77AC7ED087AFE
:1020200027E0B0EE670A07F120001BF0A9FBD7F804
:1020300004313B621DE004F1720207EB820292ED73
:10204000007AF4EEC77AF1EE10FA05DB04F14002F3
:1020500007EB820282ED007A03F1400607EB860669
:1020600007EB431596ED000A28461BF089FB336801
:102070002B600134E4B2072C1DD8002C3FF442AF92
:10208000012C8AD0234604F1400207EB8202D2EDF4
:10209000007A04F16A0207EB820292ED007AF4EE14
:1020A000C77AF1EE10FAC6D804F1400207EB8202BB
:1020B00082ED007AD0E7F8BD38B50546002405E08A
:1020C00005EB44101BF050FB0134E4B2072CF7D9A8
:1020D00038BD80ED5C0AD0ED6A7AF4EEC07AF1EE9C
:1020E00010FA02DBC0ED5C7A7047D0ED727AF4EE44
:1020F000C07AF1EE10FA01D8C0ED5C7A704780ED3D
:102100005D0AD0ED6B7AF4EEC07AF1EE10FA02DBE4
:10211000C0ED5D7A7047D0ED737AF4EEC07AF1EEDF
:1021200010FA01D8C0ED5D7A704780ED5E0AD0EDFF
:102130006C7AF4EEC07AF1EE10FA02DBC0ED5E7A52
:102140007047D0ED747AF4EEC07AF1EE10FA01D84F
:10215000C0ED5E7A704780ED620AD0ED6E7AF4EEE3
:10216000C07AF1EE10FA02DBC0ED627A7047D0ED72
:10217000767AF4EEC07AF1EE10FA01D8C0ED627A08
:10218000704780ED610AD0ED6F7AF4EEC07AF1EE1F
:1021900010FA02DBC0ED617A7047D0ED777AF4EE89
:1021A000C07AF1EE10FA01D8C0ED617A704780ED87
:1021B000600AD0ED617A90ED6D7AF4EEC77AF1EEB7
:1021C00010FA02D880ED617A704790ED757AF4EEDE
:1021D000C77AF1EE10FA01DB80ED617A704780ED8D
:1021E000630AD0ED717AF4EEC07AF1EE10FA02DBF8
:1021F000C0ED637A7047D0ED797AF4EEC07AF1EEF3
:1022000010FA01D8C0ED637A704780ED5F0AD0ED17
:10221000707AF4EEC07AF1EE10FA02DBC0ED5F7A6C
:102220007047D0ED787AF4EEC07AF1EE10FA01D86A
:10223000C0ED5F7A704710B5044690ED070AFFF7CE
:1022400048FF94ED0F0A2046FFF759FF94ED170A57
:102250002046FFF76AFF94ED270A2046FFF77BFF31
:1022600094ED2F0A2046FFF78CFF94ED1F0A2046BD
:10227000FFF79DFF94ED3F0A2046FFF7B0FF94ED76
:10228000370A2046FFF7C1FF10BD10B50446FFF71F
:1022900093FD2046FFF724FE2046FFF72FFE204641
:1022A000FFF70AFF2046FFF7C6FF2046FFF752FC64
:1022B00010BD000038B52DED028B05460C46F0EE42
:1022C000408AB0EEC08ADFED3C7AB4EEE78AF1EEE8
:1022D00010FA11DD022930D89FED380AF7EE007AA6
:1022E000B4EEE78AF1EE10FA02D901DD20EE080A19
:1022F00005EB44101BF054FAF7EE007AB4EEE78ACF
:10230000F1EE10FA1CD9F7EE007AB4EEE78AF1EE9E
:1023100010FA25DD04F1400305EB8303D3ED007AC9
:1023200088EE887A05EB4412D2ED046A27EE267A0D
:1023300077EE877AC3ED007A12E09FED210ACDE7B0
:1023400004F1400305EB8303D3ED007A05EB44125F
:1023500092ED047A27EE287A77EE877AC3ED007A39
:10236000012C15D904F1400305EB8303D3ED007A6A
:1023700004F16A0305EB830393ED007AF4EEC77A68
:10238000F1EE10FA07D8403405EB840484ED007AAE
:10239000BDEC028B38BD04F1720305EB830393EDB2
:1023A000007AF4EEC77AF1EE10FAF1DB403405EB77
:1023B000840585ED007AEBE717B7D1389A99993EF5
:1023C000CDCCCC3D10B5044690ED540A0021FFF76A
:1023D00068FC94ED550A01212046FFF762FC94ED5C
:1023E000560A02212046FFF75CFC94ED570A0621AD
:1023F0002046FFF756FC94ED5B0A07212046FFF7C5
:1024000050FC94ED580A03212046FFF74AFC94ED56
:102410005A0A04212046FFF744FC94ED590A05218D
:102420002046FFF73EFCD4F85031C4F80031D4F810
:102430005431C4F8043110BD10B50446FFF7C2FF93
:10244000002384F823310023C4F8A031C4F8A43158
:1024500010BDB0F8243141F26F72934201D90120CE
:1024600070470133A0F824310020704708B5FFF70A
:10247000F3FA08BD70B504460646032504E030466D
:1024800001F001FA013DE436002DF8DA012384F869
:102490009033002284F8912384F8923384F89623B1
:1024A00084F8932384F8943384F89533054BC4F867
:1024B000E0334FF07C52C4F8DC23C4F8E433204608
:1024C00070BD00BF3333733F08B50248FFF7D2FF3A
:1024D00008BD00BF88130020034600F564729342D4
:1024E00004D093F8330010B1E433F8E701207047CB
:1024F000F8B50646044600F56477002508E0204656
:1025000001F052FB204601F006FB0544EDB2E43435
:10251000BC42F4D125B1012386F890332846F8BD9A
:10252000002386F89033F9E790F89103704790F80C
:102530009203704790F890331BB1002380F89133D9
:102540007047012380F891337047034600F56471AA
:1025500000E0E4338B4208D093F83020002AF8D111
:1025600093F833000028F4D100E001207047000008
:10257000054B1B791BB1012380F892337047002370
:1025800080F89233704700BF9C1B002010B52DEDE2
:10259000028B044690F89433002B4ED190EDFE8AC6
:1025A000D0EDFD8A38EE680ADFED487A80EE270A22
:1025B00013F0CAFB04F5816383ED000A78EE280A64
:1025C000F6EE007A60EEA70A04F58063C3ED000A18
:1025D00094F89533002B6BD094EDFF7ADFED3C7AC5
:1025E00077EE277AF4EEE70AF1EE10FA38D99FED8C
:1025F000397AC0EE077A04F20443C3ED007A0BF097
:10260000B1FFDFED357AB4EEE70AF1EE10FA0FD83C
:1026100094EDFD7ADFED317AB4EEE77AF1EE10FA5F
:1026200031D494EDFE7AB4EEE77AF1EE10FA2AD4C2
:1026300004F28444002323600FE000F27C42002374
:10264000136000F59062136000F28442136000F59D
:102650008162136000F204442360BDEC028B10BD64
:10266000B0EE470A04F20C40FFF728F8F1EE407A8A
:1026700004F27C43C3ED007AD4EDF47A77EEC07AAD
:10268000C4EDF47AE9E704F20443DFED150A93EDB3
:10269000000A04F24440FFF711F804F2844383ED8A
:1026A000000AD4EDF67A77EE807AC4EDF67AD4E7B4
:1026B00004F27C420023136004F59062136004F27C
:1026C0008442136004F204442360C6E700003243EE
:1026D00000009643DB0FC9400000484200002F4431
:1026E0000000000010B504460F21064B186809F0E1
:1026F00077FA18B1012384F8943310BD002384F8CD
:102700009433FAE7D020002090F89403704780EDCE
:10271000EA0AD0EDF97AB1EE677AB4EEC07AF1EE5A
:1027200010FA02DB80EDEA7A7047F4EEC07AF1EE3F
:1027300010FA01D8C0EDEA7A704780EDF10AD0EDC9
:10274000F97AB1EE677AB4EEC07AF1EE10FA02DBF4
:1027500080EDF17A7047F4EEC07AF1EE10FA01D80C
:10276000C0EDF17A704780EDF40AD0EDF97AB1EE60
:10277000677AB4EEC07AF1EE10FA02DB80EDF47AFB
:102780007047F4EEC07AF1EE10FA01D8C0EDF47A99
:10279000704780EDF50AD0EDF97AB1EE677AB4EEC4
:1027A000C07AF1EE10FA02DB80EDF57A7047F4EEB4
:1027B000C07AF1EE10FA01D8C0EDF57A704780EDDD
:1027C000F60AD0EDF97AB1EE677AB4EEC07AF1EE9E
:1027D00010FA02DB80EDF67A7047F4EEC07AF1EE83
:1027E00010FA01D8C0EDF67A7047000000F59F633B
:1027F000144A1A6000230DE003F59B7200EB82027D
:102800001049516003F5997200EB82020E49116084
:102810000133DBB2032BEFD900F59E630B4A1A603C
:1028200000F2F4430A4A1A6000F2FC4200231360EB
:1028300000F2C442136000F598600360054B13601A
:10284000704700BF6666D6400AD7233C17B7513A97
:1028500017B7513900007043F0B52DED048B83B0EC
:102860000446DFED768A9FED768A764E764F3B689A
:10287000019300250095F0EE680AB0EE480A334651
:102880000122114601F004F8704B1B68019300957A
:10289000F0EE680AB0EE480A33460122022104F144
:1028A000E40000F0F5FF3B68019301250095F0EE90
:1028B000680AB0EE480A33462A46032104F5E4705C
:1028C00000F0E6FF3B6801930095F0EE680AB0EE79
:1028D000480A33462A46042104F52B7000F0D8FF3D
:1028E000DFED5B9ADFED5B8A9FED5B8A9FED5B9A84
:1028F000B0EE692AF0EE681AB0EE481AF0EE480A17
:10290000B0EE490A04F1AC001AF052FFB0EE692AA9
:10291000F0EE681AB0EE481AF0EE480AB0EE490A36
:1029200004F5C8701AF044FFB0EE692AF0EE681A98
:10293000B0EE481AF0EE480AB0EE490A04F51D70F0
:102940001AF036FFB0EE692AF0EE681AB0EE481AB7
:10295000F0EE480AB0EE490A04F556701AF028FF66
:102960009FED3F9AB0EE492AF0EE681AB0EE481A91
:10297000F0EE480AB2EE060A04F174001AF018FFED
:10298000B0EE492AF0EE681AB0EE481AF0EE480AA6
:10299000B2EE060A04F5AC701AF00AFFB0EE492A4E
:1029A000F0EE681AB0EE481AF0EE480AB2EE060AE7
:1029B00004F50F701AF0FCFEB0EE492AF0EE681A2A
:1029C000B0EE481AF0EE480AB2EE060A04F5487076
:1029D0001AF0EEFE9FED239AB0EE482AF6EE001AAA
:1029E000B0EE491AF0EE490AB0EE480A04F56670F6
:1029F000FEF7B9FEB0EE482AF6EE001AB0EE491A1C
:102A0000F0EE490AB0EE480A04F56D70FEF7ABFE31
:102A1000B7EE002AF0EE681AB0EE481AF0EE480A57
:102A20009FED110A04F591601AF0C2FE2046FFF7EF
:102A3000DDFE03B0BDEC048BF0BD00BF9A99993E5A
:102A40000000FA4484200020E8200020E420002038
:102A5000CDCC4C3E0000C842000000009A99193EBF
:102A60003333733F0AD7A33B3333134110B52DEDF6
:102A7000028B044600F2C443D3ED008A002318E021
:102A8000E42202FB034292ED2A7A03F59B7104EBE8
:102A90008101D1ED017AB0EEC77A67EE877A92EDC7
:102AA000157AB0EEC77A67EE877A38EE278A013357
:102AB000DBB2032BE4D904F20453514A1A6004F543
:102AC000A16383ED008A04F20C53C3ED008A28EE63
:102AD000080ADFED4C7A68EEA77ADFED4B6A87EEE5
:102AE000A67A30EE070A13F00DF930EE480A9FED92
:102AF000477AC0EE077AB7EE007AF4EEC77AF1EEC5
:102B000010FA11DDF7EE007AB7EE007AF4EEC77A2C
:102B1000F1EE10FA01DBF7EE007A04F5A064C4EDE3
:102B2000007ABDEC028B10BDB0EEC88A9FED387AFA
:102B3000B4EEC78AF1EE10FA59DD04F5986393ED0F
:102B4000006A36EE686A04F2FC4393ED007A04F5FD
:102B50009E62D2ED006A66EE866A37EE267A83EDD3
:102B6000007AFEEE006AB4EEE67AF1EE10FA03D8CF
:102B7000C3ED006A00231AE0F1EE0C6AB4EEE67AC7
:102B8000F1EE10FAF6DB04F2FC43C3ED006AF1E764
:102B9000F3EE066AB4EEE67AF1EE10FA05DB03F521
:102BA0009B7104EB8101C1ED016A0133DBB2032BA0
:102BB0001DD803F59B7204EB820292ED017A04F2B8
:102BC000F440D0ED006A66EE866A37EE267A82ED32
:102BD000017AF0EE086AB4EEE67AF1EE10FAD7D890
:102BE00003F59B7204EB8202C2ED016ADDE7F5EEAC
:102BF000C07AF1EE10FA87D8DFED067A8DE700BFD4
:102C0000BD378635BD3786360000A042BD37063653
:102C1000DC2434280000000000F21C5090ED000A73
:102C2000DFED027A80EE270A704700BF0000B44350
:102C3000174B93F8233103B9704710B50446144B72
:102C400093ED680A80EDFA0AD3F8A431C0F8EC33AA
:102C50000BF088FCF6EE007AB4EEE70AF1EE10FA1B
:102C600000D410BD94EDFB0A0BF07CFCF6EE007A6C
:102C7000B4EEE70AF1EE10FAF3D5054B002283F823
:102C800023210022C3F8A021C3F8A421E9E700BF53
:102C9000A011002010B5044601F0E6F901F050FA49
:102CA00004F21C5383ED000A0023C4F8D83310BD8E
:102CB00038B52DED028B0446FFF7ECFF04F5667086
:102CC000FEF7B6FD04F56D70FEF7B2FD9FED1A8AB2
:102CD000B0EE480A2046FFF746FDB0EE480A20460F
:102CE000FFF757FDB0EE480A2046FFF768FD25467E
:102CF000B0EE480A204600F037FFB0EE480A04F173
:102D0000E40000F031FFB0EE480A04F5E47000F092
:102D10002BFFB0EE480A04F52B7000F025FF04F5F8
:102D2000647403E0284600F059FFE435A542F9D168
:102D3000BDEC028B38BD00BF0000000038B5054671
:102D4000FFF7A8FF0023C5F8E833C5F8EC33C5F852
:102D5000F0332C4605F5647503E0204600F03EFF95
:102D6000E434AC42F9D138BD70B50546044600F5EF
:102D7000647603E0204600F031FFE434B442F9D138
:102D80002846FFF795FF2846FFF7D8FF002385F870
:102D9000963370BD08B5FFF797FB08BD38B50446FC
:102DA00000F071FD164D0122294604F5827001F0F4
:102DB00069FD0222294604F59C7001F063FD0023A1
:102DC00084F8E430012384F8E53084F8E63084F8B0
:102DD000E73084F8E8300B4BC4F8EC300023C4F83B
:102DE000F030C4F8F430084BC4F8FC304FF4B97339
:102DF000A4F8F8304FF46B73A4F80031204638BDC6
:102E000064260020000082C30000F04108B502489B
:102E1000FFF7C4FF08BD00BFAC18002010B52DEDB2
:102E2000028B82B0174B1B68019301230093DFEDE7
:102E3000160A9FED160A164B0222072100F028FD04
:102E40009FED148A144CB7EE002AF0EE481AB0EE4B
:102E5000421AF0EE480AB1EE000A20461AF0A8FC29
:102E60009FED0E2AF0EE481A9FED0D1AF0EE480A7B
:102E70009FED0C0A04F138001AF09AFC02B0BDEC88
:102E8000028B10BDC8200020295C8F3D0000E1446A
:102E90008420002000000000201900209A99193F8A
:102EA00066662640CDCC4C3E90F83300704700005B
:102EB00010B504460F21064B186808F091FE18B1B2
:102EC000012084F8300010BD84F83000FBE700BF1B
:102ED000C820002010B5044600F01DFE18B10023E4
:102EE00084F8E43010BD012384F8E430FAE790F868
:102EF000E400704790F8E500704790F8E6007047EE
:102F000008B500F06BFE08BD10B50446D0ED3B7A65
:102F10009FED237AF4EEC77AF1EE10FA24D884ED0F
:102F20003B7A94ED3B7ADFED1F7A37EE277ADFEDBF
:102F30001E6AC7EE267A9FED1D7A67EE877A9FEDAF
:102F40001C7A77EE877AC4ED3C7AF4EEC77AF1EE1C
:102F500010FA13D99FED157AF4EEC77AF1EE10FA54
:102F60000EDB84ED3C7A0BE09FED127AF4EEC77A2B
:102F7000F1EE10FAD5DB84ED3B7AD2E784ED3C7AB2
:102F800094ED3C0A204600F07BFE204600F04AFE0D
:102F9000094C204600F0A4FD204600F0B7FD10BD0E
:102FA000000082C3000082430000EB4300808A439C
:102FB0000000000000005243AC180020054B1B79B4
:102FC0001BB1012380F8E5307047002380F8E5301D
:102FD000704700BF9C1B002010B5044690ED3F7A5F
:102FE000DFED167A27EE277ADFED157A77EEC77ACE
:102FF000FDEEE77A17EE903A1BB2A0F80031114AC5
:10300000B2F90020D31A00EE103AB8EEC00A0BF065
:10301000A9FADFED0D7AB4EEE70AF1EE10FA00DC62
:1030200010BDB4F9001189B204F5827001F048FCBA
:10303000B4F90021034B1A80F2E700BF7B096D4011
:1030400000006B44AA1800200AD7A33B10B5044621
:1030500090ED3D7ADFED167A27EE277ADFED157ACF
:1030600077EEC77AFDEEE77A17EE903A1BB2A0F83A
:10307000F830114AB2F90020D31A00EE103AB8EE37
:10308000C00A0BF06FFADFED0D7AB4EEE70AF1EE4D
:1030900010FA00DC10BDB4F9F81089B204F59C7088
:1030A00001F00EFCB4F9F820034B1A80F2E700BFE0
:1030B0007B096D400000B943A81800200AD7A33B44
:1030C00008B5FFF7A3FE08BD91F9003007EE903A6E
:1030D000F8EEE77AC0ED107A91F9013007EE903AF8
:1030E000F8EEE77AC0ED117A8B78CA7802F0030225
:1030F00043EA022307EE903AF8EE677AC0ED127ABF
:10310000CA780B7903F003039B0143EA920307EEAD
:10311000903AF8EE677AC0ED147A0A794B7903F0A9
:103120000F039B0143EA920307EE903AF8EE677AA9
:10313000C0ED137ACB79C3F3401380F85430CB79C8
:10314000C3F3801380F85530CB79DB0980F8563013
:1031500070470022027080F82E20704708B50248A0
:10316000FFF7F7FF08BD00BF201A002070B582B03E
:103170000C4615461A46061D0823009300F1240349
:103180003046FEF7CDF8069B0093044B2A462146B5
:103190003046FEF70BF902B070BD00BFC930000821
:1031A000044B1B7913B10123037070470023037094
:1031B000704700BF9C1B00200078704710B5044684
:1031C0000F21054B186808F00BFD10B9012363703F
:1031D00010BD00236370FBE7B820002008B5FFF79F
:1031E000BDFF08BD7047000010B5022001F02CFBA8
:1031F00068B11348FFF720F9124C2046FFF79EFDF7
:103200002046FFF755FD002384F8963310BD0120BA
:1032100001F01AFB50B10A48FFF70EF9094C20469D
:10322000FFF746FD012384F89633EFE7042001F011
:103230000BFB0028EAD1082001F006FBE6E700BFFF
:10324000A011002088130020014B5B78012B7047F0
:103250007C1A0020014B5B78012B70477C1A002000
:10326000014B5B78012B70477C1A0020014B5B7887
:10327000012B70477C1A0020014B5B78012B7047B3
:103280007C1A0020014B5B78012B70477C1A0020D0
:10329000014B5B78012B70477C1A0020014B5B7857
:1032A000012B70477C1A0020014B5B78012B704783
:1032B0007C1A0020014B5B78012B70477C1A0020A0
:1032C000014B5B78012B70477C1A0020014B5B7827
:1032D000012B70477C1A0020014B5B78012B704753
:1032E0007C1A0020014B5B78012B70477C1A002070
:1032F000014B5B78012B70477C1A0020014B5B78F7
:10330000012B70477C1A00207047000038B501205F
:1033100001F082FA30B3454B002283F82321444B5D
:1033200093F86C30A3B9434B93F89633012B15D027
:103330003F4BD3ED110A93ED131AF6EE007A21EE0E
:10334000671AF1EE600A93ED120A3B4800F080FA2A
:10335000042001F061FA00285FD038BD354B83F8B6
:103360009623E5E7032001F057FA58B3304B93F862
:103370006C30002BECD12F4B93F896331BB92D4BAF
:10338000012283F896232A4D284C95ED120A00213C
:103390002046FEF78FFF95ED110AB1EE400A01219C
:1033A0002046FEF787FF95ED140A02212046FEF71E
:1033B00081FF95ED130AB1EE400A06212046FEF783
:1033C00079FFC5E7022001F027FA0028C0D0184B8A
:1033D00093F86C30002BBBD1154D95ED140A134CAE
:1033E000B1EE400A07212046FEF764FF95ED120A70
:1033F000B1EE400A04212046FEF75CFF95ED130A6A
:1034000005212046FEF756FF95ED110AB1EE400A60
:1034100003212046FEF74EFF9AE7062001F0FCF953
:1034200000289AD1052001F0F7F996E7A0110020B5
:103430009C1B0020881300207C1A0020014B5B7825
:10344000012B70477C1A0020014B5B78012B7047E1
:103450007C1A0020014B5B78012B70477C1A0020FE
:10346000014B5B78012B70477C1A0020014B5B7885
:10347000012B70477C1A0020014B5B78012B7047B1
:103480007C1A0020014B5B78012B70477C1A0020CE
:10349000014B5B78012B70477C1A0020014B5B7855
:1034A000012B70477C1A0020014B5B78012B704781
:1034B0007C1A0020014B5B78012B70477C1A00209E
:1034C000014B5B78012B70477C1A0020014B5B7825
:1034D000012B70477C1A0020014B5B78012B704751
:1034E0007C1A0020014B5B78012B70477C1A00206E
:1034F000014B5B78012B70477C1A002038B50546DC
:10350000002407E004F1100355F823300020984709
:103510000134E4B20F2C0BD8204601F00FF900283B
:10352000F0D004F1100355F8233001209847EFE75D
:1035300038BD38B50546002405E055F82430002094
:1035400098470134E4B20F2C09D8204601F0F6F870
:103550000028F2D055F8243001209847F1E738BD13
:1035600080ED000AC0ED010A0122C2750275002239
:1035700082750276427570478167002380F8743047
:10358000012280F8752080F87630D0ED167A90ED23
:10359000147AF4EEC77AF1EE10FA02D880ED167ABA
:1035A000704790ED157AF4EEC77AF1EE10FA01DB70
:1035B00080ED167A7047000010B5044690ED170AAA
:1035C000806F00F044FBA06F00F08AFAA06F00F05B
:1035D0009DFAA06F00F0F0F9A06F90F8323003B9B7
:1035E00010BD94ED180AD4ED1A7A30EE270A00F0D7
:1035F000BBFA9FED070AA06F00F029FBA06F00F057
:103600006FFAA06F00F082FA012384F87630E7E7C2
:103610000000000010B5044690ED187A90ED166A8F
:10362000D0ED147A36EE676AD0ED156A76EEE76A69
:10363000C6EE267AD0ED196A36EEC76A67EE867A4C
:1036400077EE277AC0ED1C7AB4EEE77AF1EE10FA45
:103650000DDB80ED1C7A94ED1C0AA06F00F010FBCE
:10366000A06F00F03DFAA06F00F050FA10BDF4EE2C
:10367000E76AF1EE10FAEED8C0ED1C6AEBE710B580
:103680000446806F00F018FAD4ED1C7A30EE670A19
:103690000AF068FFD4ED1B7AF4EEC07AF1EE10FA6E
:1036A00001DC002010BD0120FCE790F87530002BF4
:1036B00063D010B588B0044690F87430032B1DD841
:1036C000DFE803F0021E2B360DF1080C8646BEE83B
:1036D0000F00ACE80F00DEF80030CCF8003004F149
:1036E000200393E803008DE8030004F114030ECBDC
:1036F000A06F00F013FA012384F8743008B010BDF5
:1037000090F8763033B1022380F87430002380F8CB
:103710007630F3E7FFF750FFF0E7FFF77BFF204637
:10372000FFF7ADFF0028E9D0032384F87430E5E704
:10373000FFF7A5FFE8B1002384F8743084F87530F2
:103740000DF1080C04F1280EBEE80F00ACE80F00E4
:10375000DEF80030CCF8003004F1480393E80300B1
:103760008DE8030004F13C030ECBA06F00F0D6F906
:10377000C4E72046FFF74EFFC0E770470022027003
:10378000012242707047000008B50248FFF7F6FFBB
:1037900008BD00BF7C1A002010B5084CD4EDF77AA4
:1037A00027EE800A2046FEF7B2FF04F56670FDF7AB
:1037B000E5FF2046FEF7D7FF10BD00BF88130020AD
:1037C00010B5084CD4EDF77A27EE800A2046FEF7B4
:1037D000B4FF04F56D70FDF7D1FF2046FEF7D9FF69
:1037E00010BD00BF8813002010B52DED028B164BC5
:1037F00093F8EA30EBB1154C04F21C53D3ED007A88
:1038000077EE807AC3ED007A2046FFF705FAB0EE36
:10381000408A00F095FCF0EE400AB0EE480A04F54C
:103820009160FDF74BFF2046FEF7C9FFBDEC028B10
:1038300010BD0648D0EDF77A27EE800AFEF7BFFFED
:1038400000F012FCF2E700BFB01A0020881300203D
:1038500010B52DED028B0446F0EE608AB0EE418A81
:10386000FFF79AFFB0EE680A2046FFF7A9FFB0EE17
:10387000480A2046FFF7B8FFBDEC028B10BD08B523
:10388000FFF782FF08BD002280F832207047000059
:1038900010B582B0044608464FF0010C84F830C0E1
:1038A0004FF0000C84F831C084F833C09DF810C08C
:1038B00084F800C084ED0D0AC4ED0E0A01F1FF3C4E
:1038C000BCF1070F37D81946606084F83C2002F13C
:1038D000FF3C5FFA8CFCBCF1010F16D9032A28D1FA
:1038E0002D4B994240D004284ED82C4BC4F81D30A3
:1038F00040F2FF13A361059B0093294B00F5017271
:1039000004F11000FDF752FD13E0234B994214D04F
:10391000042822D8234BC4F81D304FF40073A36150
:10392000059B00931E4B00F5007204F11000FDF79B
:103930003DFD0823237702B010BD042806D81A4B9A
:10394000C4F81D304FF40073A361E9E7174BC4F8C6
:103950001D3040F2FF13A361E2E7104BC4F81D30A5
:1039600040F2FF13A361DBE7042806D80F4BC4F82D
:103970001D3040F2FF13A361BDE70D4BC4F81D30AD
:1039800040F2FF23A361B6E70A4BC4F81D3040F2B2
:10399000FF23A361AFE700BF84200020881A002026
:1039A000233A0008901A0020A81A0020A01A00202C
:1039B000981A0020801A002010B52DED028B0446C5
:1039C00090ED0D0A0AF0CEFDB0EE408A94ED1C0A8F
:1039D0000AF0C8FDB4EEC08AF1EE10FA0AD4002352
:1039E000E360E368142B18D9012384F83230BDEC6E
:1039F000028B10BD94ED0E0A0AF0B4FDB0EE408AC1
:103A000094ED150A0AF0AEFDB4EEC08AF1EE10FA9C
:103A1000E5DDE3680133E360E3E7002384F8323057
:103A2000E5E710B5A0F11004204619F0A1FE2046EC
:103A3000FFF7C2FF10BD0000FFEE007AB4EEE70A08
:103A4000F1EE10FA09D9F7EE007AB4EEE70AF1EEDA
:103A500010FA04DBB7EE000A01E0BFEE000A0378BB
:103A60000BB1B1EE400A90F83C30022B0AD0032B88
:103A700013D0012B1BD1BEEEC90A10EE103AA0F8EC
:103A800050307047DFED0A7A20EE270ABDEEC00AFB
:103A900010EE103AA0F850307047DFED067A20EEB5
:103AA000270ABDEEC00A10EE103AA0F85030704759
:103AB00000401C460060EA46037813B990ED1B0AEB
:103AC000704790ED1B0AB1EE400A7047037813B9B6
:103AD00090ED150A704790ED150AB1EE400A704757
:103AE0004268D3B2042A01D9043BDBB2013BDBB20A
:103AF0005B00DBB290F95110D0F81D20D154B0F921
:103B00005010D0F81D200133D154704708B5103043
:103B1000FDF70EFC08BD90F83000704784B010B57A
:103B2000044603A880E80E009DED082ADDED091A81
:103B30009DED0C1ADDED0B0A9DED0A0A04F1AC00B7
:103B400019F036FE9DED032ADDED041A9DED071AEE
:103B5000DDED060A9DED050A04F1740019F028FE5A
:103B6000BDE8104004B07047FDEEC07AB8EEE77AC9
:103B700030EE470A037853B117EE903AA0F8683058
:103B8000D0ED177A77EEC07AC0ED197A704717EE4C
:103B9000903A5B42A0F86830D0ED177A77EE807AE1
:103BA000C0ED197A7047000010B504460F21806AF5
:103BB00008F016F858B994F830305BB19FED060A5A
:103BC0002046FFF7D1FF002384F8303002E00123C4
:103BD00084F8303010BD00BF0000000010B504466E
:103BE0000023836080F83330A0F85030FFF778FF6F
:103BF0002046FFF78BFF10BD10B52DED028B04465C
:103C000090ED138AFFF762FFF0EE400AB0EE480A2B
:103C100004F17400FDF752FD2046FFF70DFFBDECE7
:103C2000028B10BD10B52DED028B044690ED128A6B
:103C3000FFF742FFF0EE400AB0EE480A04F1AC0094
:103C4000FDF73CFD84ED130ABDEC028B10BD08B5F9
:103C500080ED130AFFEE007AB4EEE70AF1EE10FAF7
:103C600009D9F7EE007AB4EEE70AF1EE10FA04DBB8
:103C7000C0ED137A01E0C0ED137AFFF7BDFF08BD78
:103C800010B5044680ED120AFFF7CCFF2046FFF77F
:103C9000B3FF10BD0088704710B5084C20601C228F
:103CA0000749FDF72DFC012384F8EB3084F8E83058
:103CB000002384F8EA3084F8E93010BDB01A0020FF
:103CC000B8D70108634B93ED276A83ED286A93ED1B
:103CD000215A83ED225AD3ED1B5AC3ED1C5AB3F976
:103CE000262007EE902AF8EEE77AB2EE047AC7EEC5
:103CF000876AC3ED276AB3F9222007EE102AB8EECF
:103D0000C77A9FED554AC7EE047AC3ED1B7AB3F923
:103D1000242004EE902AF8EEE44A84EE847A83EDBF
:103D2000217A36EEC66ADFED4D4AB4EEE46AF1EE72
:103D300010FA67D51A46D3F8A8300133C2F8A83074
:103D4000444B93ED2A6AB8EEC66ADFED454A26EE8B
:103D5000246A36EE066A76EE866A93ED2C6A76EE73
:103D6000C66A9FED406A66EE866AC3ED2B6A37EE3F
:103D7000455ADFED3A6AB4EEE65AF1EE10FA4FD545
:103D80001A46D3F890300133C2F89030314BD3ED5E
:103D9000246AF8EEE66A9FED326A66EE866A76EE8F
:103DA000A66A37EE267AD3ED266A37EE667ADFED1D
:103DB0002D6A27EE267A83ED257A77EEE55A9FED78
:103DC0002A7AF4EEC75AF1EE10FA37D51A469B6FED
:103DD000013393671F4B93ED1E7AB8EEC77ADFED80
:103DE000236A27EE267A37EE077A77EE877A93ED05
:103DF000207A77EEC77A9FED1B7A67EE877AC3ED5C
:103E00001F7A7047DFED164AB4EEE46AF1EE10FA5D
:103E100096DD104AD2F8A830013BC2F8A8308FE7EF
:103E2000DFED0F6AB4EEE65AF1EE10FAAEDD094AA4
:103E3000D2F89030013BC2F89030A7E79FED0B7AA3
:103E4000F4EEC75AF1EE10FAC4DD024A936F013B5B
:103E50009367BFE7B01A00200000C842000034C3D7
:103E600000003443610B363B0000B4C20000B44292
:103E700010B5784CD4F8DC30C4F8E0300AF058FBC8
:103E800084ED370AD4ED387A30EE670ADFED727AC6
:103E900020EE270A84ED390A08F09CF894F8E930FE
:103EA00033B9D4F8D830322B02D90022C4F8D82044
:103EB000684AD2F8D8300133C2F8D830322B40F2F9
:103EC000C4801346012283F8E92008F0A5F8614B6D
:103ED00093F8E930DBBB5F4B0022C3F8E420DA6ED5
:103EE0001A67B3F9222007EE902AF8EEE77A9FEDE1
:103EF0005B7A67EE877AC3ED1B7AC3ED207A0022E6
:103F00009A67D3F88410C3F88810B3F9241007EE29
:103F1000901AF8EEE77A67EE877AC3ED217AC3ED5F
:103F2000267AC3F89020D3F89C10C3F8A010B3F9F8
:103F3000261007EE901AF8EEE77A9FED497A67EEC1
:103F4000877AC3ED277AC3ED2C7AC3F8A820FFF750
:103F5000B9FE404BB3F9142007EE902AF8EEE77A49
:103F60009FED3F7A67EE877AC3ED187AB3F9162092
:103F700007EE902AF8EEE77A67EE877AC3ED197AB2
:103F8000B3F9182007EE902AF8EEE77A67EE877A01
:103F9000C3ED1A7AB3F90D2006EE902AF8EEE66A20
:103FA000DFED2D5A66EEA56A9FED2E6A66EE866AF3
:103FB000C3ED2D6AB3F90F2007EE102AB8EEC77AC9
:103FC00027EE257A27EE067A83ED2E7AB3F91120B3
:103FD00007EE902AF8EEE77A67EEA57A67EE867A22
:103FE000C3ED2F7AD3ED305A93ED396A66EE866AC7
:103FF00075EEA65AC3ED305AD3ED316A27EE067A34
:1040000036EE877A83ED317AD3ED326A67EE867ABF
:1040100076EEA77AC3ED327AD3ED336A66EE255A8F
:1040200076EEA56AC3ED336AD3ED346A26EE077ADD
:1040300036EE877A83ED347A93ED357A26EE276A69
:1040400077EE067AC3ED357A10BD024B002283F875
:10405000E9203AE7B01A00206F12833A0AD7233CCE
:10406000CDCCCC3D0AE81C41034B0022C3F8D8203C
:1040700083F8E920704700BFB01A0020084B93F87E
:10408000E83043B9064B93F8E93023B1044B0122E1
:1040900083F8EA207047024B002283F8EA20704739
:1040A000B01A002008B503495A2251F8040CFDF754
:1040B00036FA08BDB41A002010B582B004460023B9
:1040C000ADF80630042201460DF10600FDF732FA84
:1040D0006288A11D0DF10600FDF72CFA201DFFF7E7
:1040E000D9FDBDF80630984202D1012002B010BDC2
:1040F0000020FBE708B5064B9A884AF25A539A42C9
:1041000001D0002008BD0348FFF7D6FFFAE700BF43
:10411000B01A0020B41A0020044B0022C3F8D820A3
:1041200083F8E920012283F8E8207047B01A0020C4
:10413000024B002283F8E820704700BFB01A00202D
:10414000014B93ED2B0A7047B01A002010B50024E4
:1041500009E00C220549064B1868FDF7D9F905203E
:1041600007F0BFFC0134042CF3DD10BDD8D70108E3
:10417000B01A002001707047014B00225A7170473D
:104180009C1B0020034B5B79C72B02D80133014AEB
:10419000537170479C1B0020064B5B790A2B03D997
:1041A000044B00221A71704713B9024B01221A7195
:1041B000704700BF9C1B00200346002848D00178B0
:1041C0004278120202F4E0621143224A518540789B
:1041D0009978490141EAD001C1F30A0191859878A3
:1041E00093F803C01979890241EA8C0109B241EAC6
:1041F0009011C1F30A01D18518795979C90141EAB1
:104200005001C1F30A0111865979890951865979FA
:10421000C1F3011191869979D87941EA0021D186BB
:10422000197A587A41EA00211187997AD87A41EAB5
:1042300000215187197B82F83C10597B82F83D1090
:10424000997BD187197C5B7C41EA0323A2F840303B
:10425000704700BF9C1B002010B507F0BBFEB84C98
:1042600004F1700C04F1440EBEE80F00ACE80F003E
:10427000BEE80F00ACE80F009EE807008CE80700DE
:10428000638DA3F57B7292B2282A45D84FF48062E1
:104290006285AB4B9B8DA3F57B7292B2282A44D8E2
:1042A000A74B4FF480629A85A54BDB8DA3F57B72FB
:1042B00092B2282A42D8A24B4FF48062DA85A04BF2
:1042C0001B8EA3F57B7292B2282A40D89C4B4FF4E8
:1042D00080621A869A4B5A8D07EE902AF8EE677A1A
:1042E0009FED987A77EEC77ADFED976A87EEA67A28
:1042F00083ED137AFFEE007AB4EEE77AF1EE10FA6E
:104300002ED9F7EE007AB4EEE77AF1EE10FA29DB57
:104310008B4BC3ED137A25E0A3F5B6739BB2B3F5CF
:10432000A56FB6D907F078FE08E1A3F5B6739BB286
:10433000B3F5A56FB8D907F06FFEFFE0A3F5B6732C
:104340009BB2B3F5A56FBAD907F066FEF6E0A3F508
:10435000B6739BB2B3F5A56FBCD907F05DFEEDE077
:10436000C3ED137A764B9A8D07EE902AF8EE677AB2
:104370009FED747A77EEC77ADFED736A87EEA67ADF
:1043800083ED147AFFEE007AB4EEE77AF1EE10FADC
:104390000AD9F7EE007AB4EEE77AF1EE10FA05DB0F
:1043A000674BC3ED147A01E0C3ED147A644BDA8DE8
:1043B00007EE902AF8EE677A9FED627A77EEC77A79
:1043C000DFED616A87EEA67A83ED117AFFEE007A5F
:1043D000B4EEE77AF1EE10FA0AD9F7EE007AB4EE0D
:1043E000E77AF1EE10FA05DB554BC3ED117A01E0E7
:1043F000C3ED117A524B1A8E07EE902AF8EE677AC7
:104400009FED507A77EEC77ADFED4F6A87EEA67A96
:1044100083ED127AFFEE007AB4EEE77AF1EE10FA4D
:104420000AD9F7EE007AB4EEE77AF1EE10FA05DB7E
:10443000434BC3ED127A01E0C3ED127A404B93F87F
:10444000322083F8542093F8342083F85520B3F9B0
:10445000362007EE902AF8EEE77A9FED3C7AC7EE19
:10446000876A16EE902AC3F85620B3F9382007EE73
:10447000902AF8EEE77A87EE876A16EE102AC3F8DC
:104480005A20B3F93A2007EE902AF8EEE77AF3EED5
:10449000045A87EEA57A17EE102AC3F85E2093F827
:1044A0003D2083F8632093F83C2083F86220DA8F64
:1044B000A3F86420AAB9B3F8623093B9F5EE406A64
:1044C000F1EE10FA0DD1B5EE406AF1EE10FA08D116
:1044D000B5EE407AF1EE10FA03D1194B83F86C2057
:1044E00003E0174B012283F86C20154BB3F84020F2
:1044F00007EE902AF8EE677AF1EE677A9FED117A6F
:1045000077EEC77ADFED106A87EEA67A83ED1A7A26
:10451000FFEE007AB4EEE77AF1EE10FA0AD9F7EE80
:10452000007AB4EEE77AF1EE10FA05DB044BC3ED46
:104530001A7A01E0C3ED1A7A07F06EFD10BD00BFD4
:104540009C1B002000008044000025440000FA432A
:1045500008B507F03FFD784BB3F89020D04300B288
:10456000B3F86410B3F964C00140A3F8A01022EAC4
:104570000C02A3F89E2093F88E302BB96E4A92F865
:1045800062205AB9002100E000216B4A82F8A51090
:1045900033B192F8623083B1002202E00121F4E7E6
:1045A0000022654B83F8A42093F88F303BB9624A10
:1045B00092F863206AB9002102E00122F1E70021AC
:1045C0005D4A82F8A31033B192F8633003BB002236
:1045D00002E00121F4E70022574B83F8A22093F870
:1045E0005530012B16D0032B26D0032B36D0022BAF
:1045F00046D0514B93F85430012B53D0032B63D04A
:10460000032B73D0022B00F0838007F005FD08BD5B
:104610000122E1E7484A92F88120032AE3D1464A81
:10462000B2F89C3023F0F0039BB2A2F89C3043F028
:104630002003A2F89C30DCE73F4A92F88120012A4F
:10464000D3D13D4AB2F89C3023F0F0039BB2A2F8DC
:104650009C3043F01003A2F89C30CAE7364A92F827
:104660008120022AC3D1344AB2F89C3023F0F003EF
:104670009BB2A2F89C3043F08003A2F89C30B8E7CC
:104680002D4B93F88130032BB3D12B4AB2F89C30D9
:1046900023F0F0039BB2A2F89C3043F04003A2F851
:1046A0009C30A6E7244A92F88020032AA6D1224A09
:1046B000B2F89C3023F00F039BB2A2F89C3043F079
:1046C0000203A2F89C30A0E71B4A92F88020012A3E
:1046D00096D1194AB2F89C3023F00F039BB2A2F88E
:1046E0009C3043F00103A2F89C308EE7124A92F806
:1046F0008020022A86D1104AB2F89C3023F00F03A2
:104700009BB2A2F89C3043F00803A2F89C307CE7EF
:10471000094B93F88030032B7FF477AF064AB2F849
:104720009C3023F00F039BB2A2F89C3043F00403AB
:10473000A2F89C3069E700BF9C1B00200F2867D8B7
:10474000DFE800F0543C08195A60301F36242A4232
:1047500048134E0E2F4B93F86400C0F3800070474F
:104760002C4B93F86500C00970472A4B93F86500FD
:10477000C0F340107047274B93F86400C0F3C000AB
:104780007047244B93F86400C0097047214B93F89D
:104790006500C0F3400070471E4B93F86500C0F3FE
:1047A000800070471B4B93F86400C0F38010704783
:1047B000184B93F8650000F001007047154B93F813
:1047C0006400C0F340007047124B93F86500C0F3DB
:1047D000C00070470F4B93F86500C0F3001070479E
:1047E0000C4B93F86500C0F380107047094B93F8A9
:1047F000640000F001007047064B93F86400C0F3BA
:1048000000107047034B93F86400C0F340107047EA
:10481000002070479C1B0020032806D8094B93F802
:104820005430834209D0002070470338054B93F879
:104830005530984203D00020704701207047012076
:10484000704700BF9C1B002010B5044607F0C2FB58
:104850000B4BB3F89C3034EA030203D007F0DCFBC7
:10486000002010BDE4B284F47F4484F0FF042340B0
:10487000034AA2F89C3007F0CFFB0120F1E700BF0C
:104880009C1B002010B45FFA82FC80F800C001235A
:10489000437000248470C37003714471074CC4F8E2
:1048A000FC132370637080F832C0022A03D80278A8
:1048B00004EB820358605DF8044B7047441C0020F1
:1048C00038B504460D4607F085FB214621F8305FD8
:1048D00000231A460348006807F030FA07F09CFBF3
:1048E00038BD00BFF02000200022022304E0C15C9C
:1048F0000A4492B20133DBB2C17801319942F6DA4F
:10490000D043C0B27047000070B584B0054600EBDC
:1049100081004668141E05DBB4F57A7F03DD4FF491
:104920007A7400E0002447F23052934228BF1346C5
:1049300055228DF805208DF804208DF806100722E9
:104940008DF8072001228DF808208DF80940C4F366
:1049500007228DF80A208DF80B301B0A8DF80C30D9
:1049600001A8FFF7C1FF8DF80D000A2201A9D5F8B3
:10497000FC03FCF7CDFDF48107EE904AF8EEE77AF0
:104980009FED037A67EE877AC6ED087A04B070BDB2
:104990008FC2753E30B583B0174B1B68009340F251
:1049A000013340F2033215491548FDF7E5F907F0E8
:1049B0002FF8044602E0012007F093F81048FDF7B5
:1049C00048FD0028F7D009E02846FDF75EFC2846A0
:1049D000FDF7B4F80334204607F091F8084D284657
:1049E000FDF79EF82846FDF797F80028ECD104481B
:1049F000FDF722FDEEE700BFB42000205C20002080
:104A0000A011002010B51D48FDF726FF02E001208F
:104A100007F067F81948FDF75FFD0028F7D005E0BB
:104A20001648FEF7A1F9022007F05BF8134C204668
:104A3000FDF79EFD2046FDF77DFD2046FDF774FD48
:104A40000028EDD02046FDF772FD0028E8D0204672
:104A5000FDF77BFD0028E9D0084C2046FEF7E8F87A
:104A600094F896332BB1012BDDD1044818F08CFE5D
:104A7000D9E7024818F098FED5E700BF8813002058
:104A800008B506E00C48FEF7A7FA0CE0012007F095
:104A900028F80948FEF72EFA0028F7D0064B93F8BD
:104AA000E730002BEED1044B93F8E830002BEDD02B
:104AB0000148FEF7CBFAE9E7AC18002010B5204812
:104AC000FEF7ACF902E0012007F00BF81C48FEF7F6
:104AD000EBF90028F7D01A491A48FEF74DFD05E01A
:104AE0001748FEF70DFA032006F0FBFF144C204692
:104AF000FEF7F0F92046FEF761FA2046FEF7F7F9D7
:104B00000028EDD02046FEF7F5F90028E8D0204631
:104B1000FEF7F3F978B10B4C2046FEF7C6FD94F88A
:104B20007530002BDFD1064B002283F8E6200022EF
:104B3000C3F8EC20D7E70248FEF7E6F9D3E700BF59
:104B4000AC180020A800002030B583B0144C154DDF
:104B50002B68009340F202334FF441721249204611
:104B6000FEF704FB0021286807F03AF8204618F009
:104B700003FE204618F010FE08E0204618F0FCFD69
:104B8000204618F009FE022006F0ABFF044C204638
:104B9000FEF706FB2046FEF70FFB0028EDD1F2E7FB
:104BA000201A0020B82000205C20002010B54FF40F
:104BB000FA6006F096FF0CE0084C2046FEF7A4FBD6
:104BC0002046FEF7A3FB2046FEF798FC022006F0E5
:104BD00088FF034B1B78002BEED1FAE7280000205A
:104BE0007C1A00200B4B1B78002BFBD010B50A4C15
:104BF0002046FEF7F7FA2046FEF7F6FA2046FEF7C3
:104C000098FC012006F06DFF024B1B78002BEED1C3
:104C1000FAE700BF7C1A00202800002000B58BB006
:104C20000023039302934FF0FF310C4B186806F0FA
:104C3000D7FF4FF0FF33002206A90948006807F0AC
:104C4000BFF8069B00939DF81C30049309ABDDF878
:104C50001D206946034801F0E9FDE4E7B02000208B
:104C6000F82000208420002000B58BB0002303939F
:104C700002934FF0FF310E4B186806F0B1FF4FF072
:104C8000FF33002207A90B48006807F099F8079B3B
:104C900000939DF82030049306ABDDF8212069468F
:104CA000054801F0C3FD012006F01BFFE1E700BF4E
:104CB000AC200020F42000205C20002008B54FF438
:104CC000FA6006F00EFF0A21094B186806F088FF0B
:104CD0000A21084B186806F083FF062006F001FF42
:104CE0000548FEF76BFA0548FCF704FFF5E700BF3F
:104CF000B8200020B4200020201A0020A01100209D
:104D000008B5024B186806F09FFF08BDD8200020A8
:104D100010B5084C2046FEF7BFFF0021064B18686F
:104D200006F05EFF0549204604F03DFDFFF70EFA50
:104D300010BD00BF44280020D8200020014D0008ED
:104D400008B5FFF7E5FF06E0FFF7E6F9FFF796F98C
:104D5000012006F0C6FEFFF7A5F91421084B1868DC
:104D600006F03EFF074B18600028EDD1FFF7E0F991
:104D7000FFF7C0F90028E9D0FFF77AF8E6E700BFAF
:104D8000D82000204420002010B54FF4FA6006F02F
:104D9000A8FE0A21204B186806F022FF0A211F4BAB
:104DA000186806F01DFF0A211D4B186806F018FF51
:104DB0000A211C4B186806F013FF0A211A4B1868C9
:104DC00006F00EFF0A21194B186806F009FF0A21A8
:104DD000174B186806F004FF03E0164A1368013306
:104DE0001360062006F07DFE1348FDF781FB0446A4
:104DF0001248FEF75DF82044C0B20428EDD830B95F
:104E00000F4B01221A700B4B00221A60E9E7094B85
:104E100000221A60E5E700BFE8200020E42000201F
:104E2000DC200020E0200020CC200020C820002032
:104E3000C42000204820002088130020AC18002047
:104E40007C1A002008B5044B186806F0FDFE0348E4
:104E5000FFF7B2F908BD00BFEC200020A21B002024
:104E600010B5094C09482060094904F09CFC214612
:104E700051F8060B1222FCF752FB00212171054B61
:104E8000186806F0ADFE10BD9C1B002054270020C2
:104E9000454E0008EC20002008B5FFF7E1FF0AE0CE
:104EA000FFF76AF9FFF7D8F9FFF752FBFFF774F93C
:104EB000012006F016FE0949122251F8060CFCF7F3
:104EC0002EFB1421064B186806F08AFE054B18606D
:104ED0000028E5D0FFF756F9E8E700BFA21B002045
:104EE000EC2000204C20002008B5024B186806F08A
:104EF000ABFE08BDC020002000B583B00F4A0121E1
:104F00000F4804F0F6FB0F4B186806F09DFE4FF0BB
:104F1000FF310C4B186806F063FE4FF0FF330022A0
:104F200001A90948006806F04BFF0023BDF90420E1
:104F30009DF806100548FFF7E7FCE8E7E94E000892
:104F400064260020C0200020F0200020441C002007
:104F500010B50A210F4B186806F042FE09E00E4A10
:104F60001368013313600D4B00221A60062006F00F
:104F7000B8FD0B4C2046FDF7B5FB2046FDF7C4FB02
:104F80000028ECD1054A136801331360024B00225C
:104F90001A60EBE7D0200020542000205020002091
:104FA0008813002008B50E480E4B036003234360AE
:104FB00000228260C2604FF4C02303614FF4A0035B
:104FC00043610276012343768376C3760277437783
:104FD00001F0BCFA00B908BD00F0F6FBFBE700BF2A
:104FE000842000200064004008B50E480E4B03608A
:104FF0000323436000228260C2604FF4C023036138
:105000004FF4A00343610276012343768376C3768F
:105010000277437701F09AFA00B908BD00F0D4FB9B
:10502000FBE700BF5C2000200068004010B58AB09C
:105030000023059306930793089309930368464A50
:10504000934204D0454A93423CD00AB010BD444A32
:10505000136801331360012B27D000240194414BC6
:105060001A6B42F008021A631B6B03F008030193EA
:10507000019B0323059302220692089309230993B7
:1050800005A9394802F008F922460521132001F04C
:105090008DFE132001F09AFE22460521142001F016
:1050A00085FE142001F092FECFE7002300932D4BE4
:1050B0001A6C42F000721A641B6C03F000730093C8
:1050C000009BCAE700230293264B1A6C42F08062D1
:1050D0001A641B6C03F080630293029B204A1368DE
:1050E00001331360012B29D0002404941D4B1A6B4B
:1050F00042F002021A631B6B03F002030493049B49
:105100004FF4405305930223069303230893092386
:10511000099305A9154802F0BFF8224605213F2052
:1051200001F044FE3F2001F051FE224605214120BE
:1051300001F03CFE412001F049FE86E70023039385
:10514000084B1A6C42F000721A641B6C03F0007377
:105150000393039BC8E700BF006400400068004061
:105160005820002000380240000C02400004024099
:1051700010B582B000240094324B1A6B42F48002C6
:105180001A631A6B02F480020092009A01941A6B5F
:1051900042F400121A631B6B03F400130193019B8A
:1051A000224605210B2001F001FE0B2001F00EFE2E
:1051B000224605210C2001F0F9FD0C2001F006FE2D
:1051C000224605210E2001F0F1FD0E2001F0FEFD2A
:1051D000224605210F2001F0E9FD0F2001F0F6FD28
:1051E00022460521112001F0E1FD112001F0EEFD24
:1051F00022460521392001F0D9FD392001F0E6FDD4
:10520000224605213A2001F0D1FD3A2001F0DEFDD1
:10521000224605213B2001F0C9FD3B2001F0D6FDCF
:10522000224605213C2001F0C1FD3C2001F0CEFDCD
:1052300022460521452001F0B9FD452001F0C6FDBB
:1052400002B010BD0038024008B508F011FF01207F
:1052500006F047FCFBE708B5012006F042FCFBE73F
:1052600008B5012006F03DFCFBE7000008B5854AC3
:105270000021012006F05BFC834B1860834A00216B
:10528000012006F054FC824B1860824A0021012064
:1052900006F04DFC804B1860804A0021012006F08A
:1052A00046FC7F4B18607F4A0021012006F03FFC3E
:1052B0007D4B18607D4A0021012006F038FC7C4BB4
:1052C00018607C4A0021012006F031FC7A4B1860FE
:1052D0007A4A0021012006F02AFC794B1860794AAD
:1052E0000021012006F023FC774B1860774A00214B
:1052F000012006F01CFC764B1860764A0021012044
:1053000006F015FC744B1860744A0121084606F03B
:105310000EFC734B1860734A0121084606F007FC27
:10532000714B1860714A0121084606F000FC704B71
:105330001860704A0121084606F0F9FB6E4B1860B0
:105340006E4A0321084606F0F2FB6D4B18606D4A69
:105350000321084606F0EBFB6B4B18606B4A0921F2
:10536000402006F0A0FC6A4B18606A4A09214020E0
:1053700006F099FC684B1860684A0421102006F07A
:1053800092FC674B1860674A0021674806F04AFBA9
:10539000664B1860664A0021664806F043FB664B80
:1053A0001860664A0021664806F03CFB654B1860B1
:1053B000654A0021654806F035FB654B1860654A73
:1053C0000021654806F02EFB644B1860644A0021FA
:1053D000644806F027FB644B1860644A0021644867
:1053E00006F020FB634B1860634A0021634806F017
:1053F00019FB634B1860634A0021634806F012FBF7
:10540000624B1860624A0021624806F00BFB624B57
:105410001860624A0021624806F004FB614B186084
:10542000614A0021614806F0FDFA614B1860614A4B
:105430000021614806F0F6FA604B1860604A0021CE
:10544000604806F0EFFA604B1860604A002160483F
:1054500006F0E8FA5F4B18605F4A00215F4806F0EB
:10546000E1FA5F4B18605F4A00215F4806F0DAFA04
:105470005E4B18605E4A00215E4806F0D3FA5E4B30
:10548000186008BD70E70108EC20002060E7010803
:10549000E820002050E70108E420002040E7010850
:1054A000E020002030E70108DC20002020E7010890
:1054B000D820002010E70108D420002000E70108D0
:1054C000D0200020F0E60108CC200020E0E6010812
:1054D000C8200020D0E60108C4200020C0E6010852
:1054E000C0200020B0E60108BC200020A0E6010892
:1054F000B820002090E60108B420002080E60108D2
:10550000B020002070E60108AC200020B0E70108C0
:10551000F820002098E70108F420002080E7010827
:10552000F02000202CEA0108495200084021002008
:1055300008EA0108994E00083C210020E4E901082E
:105540001D4C000838210020C0E90108694C000802
:10555000342100209CE90108054A00083021002080
:1055600078E90108414D00082C21002054E9010888
:10557000575200082821002030E90108514F000847
:10558000242100200CE90108894D00082021002079
:10559000E8E80108F94E00081C210020C4E80108D1
:1055A000BD4A000818210020A0E80108814A00082F
:1055B000142100207CE80108494B0008102100203C
:1055C00058E80108AD4B00080C21002034E8010820
:1055D000E54B00080821002010E80108615200088E
:1055E00004210020ECE70108954900080021002073
:1055F000C8E70108BD4C0008FC2000202DE9F04F51
:105600008FB0002409940A940B940C940D94009488
:10561000614B1A6B42F010021A631A6B02F010020F
:105620000092009A01941A6B42F002021A631A6BFC
:1056300002F002020192019A02941A6B42F04002B7
:105640001A631A6B02F040020292029A03941A6BD8
:1056500042F001021A631A6B02F001020392039AEC
:1056600004941A6B42F008021A631A6B02F00802E3
:105670000492049A05941A6B42F480721A631A6BAE
:1056800002F480720592059A06941A6B42F0800229
:105690001A631A6B02F080020692069A07941A6B3C
:1056A00042F020021A631A6B02F020020792079A56
:1056B00008941A6B42F004021A631B6B03F0040394
:1056C0000893089B354E224641F27001304601F0A6
:1056D000E7FEDFF8CCB022460521584601F0E0FE97
:1056E000DFF8C0A0224644F24001504601F0D8FE47
:1056F000DFF8B49022464FF4C051484601F0D0FE86
:10570000DFF8A88022461121404601F0C9FE01229F
:105710004FF40061304601F0C3FE41F2700309937B
:1057200001250A950B9502270C9709A9304601F02F
:10573000B3FD052309930A950B940C9409A95846C7
:1057400001F0AAFD44F2400309930A950B940C94CE
:1057500009A9504601F0A0FD4FF4C05309930A95E2
:105760000B940C9709A9484601F096FD1123099363
:105770000A950B950C9709A9404601F08DFD4FF451
:10578000006309930A950B940C9409A9304601F023
:1057900083FD0FB0BDE8F08F0038024000100240DA
:1057A0000020024000140240001C02400008024099
:1057B00008B50268034B9A4200D008BD00F0A0FE75
:1057C000FBE700BF0014004072B6FEE700B595B0DD
:1057D0003022002108A813F087FF002303930493CD
:1057E0000593069307930193204A116C41F0805171
:1057F0001164126C02F080520192019A02931C4BC8
:105800001A6842F440421A601B6803F44043029352
:10581000029B012308934FF48033099302230E93D4
:105820004FF480020F9206221092A8221192129336
:105830000723139308A802F075FC98B90F2303936C
:1058400002230493002305934FF4A05306934FF4CF
:1058500080530793052103A802F0B4FE20B915B0C8
:105860005DF804FBFFF7B0FFFFF7AEFF0038024022
:105870000070004008B5154A936823F00303936055
:1058800000F024FEFFF7A2FFFFF7B8FEFFF770FC61
:1058900000F08EFB00F00EFBFFF784FBFFF7A4FB8C
:1058A00000F016F800F0C4FA00F04EFB00F066FBC2
:1058B00000F09EFB00F0B6FB08F01AFE06F07AF846
:1058C000FFF7D4FC06F088F8FEE700BF003802407E
:1058D00008B50E480E4B03604FF4827343600023FB
:1058E0008360C360036143614FF4007282613022C0
:1058F000C2610362436283620A23C36202F066FFED
:1059000000B908BDFFF760FFFBE700BF04220020DD
:105910000050014030B589B00023039304930593F0
:10592000069307930268354B9A4201D009B030BD07
:1059300004460025019503F568435A6C42F4801231
:105940005A645A6C02F480120192019A02951A6B01
:1059500042F020021A631B6B03F020030293029BA8
:105960004FF46073039302230493032306930523E8
:10597000079303A9224801F08FFC2248224B0360C1
:105980004FF0806343608560C5604FF480630361BE
:1059900045618561C5614FF400330362456201F0E2
:1059A00095FA28BB174BE3649C631848184B0360B7
:1059B0004FF080634360402383600023C3604FF453
:1059C0008062026143618361C3614FF4003202620D
:1059D000436201F07BFA70B90C4BA3649C63002214
:1059E0000521552001F0E2F9552001F0EFF99DE77E
:1059F000FFF7EAFED6E7FFF7E7FEEDE700500140CC
:105A000000140240A42100205864024044210020D8
:105A10007064024000B583B0002200920D4B596CB7
:105A200041F480415964596C01F48041009100991E
:105A30000192196C41F0805119641B6C03F0805382
:105A40000193019B0F216FF0010001F0AFF903B04A
:105A50005DF804FB0038024030B589B004460023ED
:105A60000193214B1A6C42F020021A641B6C03F064
:105A700020030193019B02A903A802F079FE069B73
:105A8000CBB902F055FE0346184AA2FB03239B0C38
:105A9000013B1748174A026040F2E732C260436098
:105AA000002303618360836103F0D4F9054630B1BC
:105AB000284609B030BD02F03BFE4300E4E70C4845
:105AC00003F064F805460028F2D1372001F07EF992
:105AD0000F2C01D90125EBE700222146372001F0E8
:105AE00065F9054B1C60E3E70038024083DE1B4389
