:020000040800F2
:1000000000000320257D0008A9730008AB730008D9
:10001000AD730008AF730008B17300080000000062
:10002000000000000000000000000000D1D800081F
:10003000B37300080000000071D90008BDD20008A9
:10004000757D0008757D0008757D0008757D0008C8
:10005000757D0008757D0008757D0008757D0008B8
:10006000757D0008757D0008757D0008B573000872
:10007000C5730008757D0008D5730008E573000896
:10008000757D0008F5730008757D0008057400088B
:1000900015740008757D0008757D0008757D0008E1
:1000A000757D0008757D0008757D0008757D000868
:1000B000757D0008757D0008757D0008757D000858
:1000C000757D0008757D0008757D0008757D000848
:1000D000757D000825740008757D000835740008DA
:1000E000757D0008757D0008757D0008757D000828
:1000F000757D0008757D0008757D0008757D000818
:10010000757D0008757D0008757D0008757D000807
:10011000757D0008757D0008757D00084574000830
:10012000757D000855740008657400087574000832
:1001300085740008757D0008757D000895740008B9
:10014000757D0008A5740008757D0008B574000869
:10015000757D0008C5740008757D0008D574000819
:10016000757D0008757D0008757D0008757D0008A7
:10017000757D0008757D0008757D00080000000091
:10018000757D0008757D0008E5740008F5740008A9
:10019000757D000805750008757D0008757D0008EF
:0C01A0000000000000000000757D000859
:1001C00081F0004102E000BF83F0004330B54FEA08
:1001D00041044FEA430594EA050F08BF90EA020F75
:1001E0001FBF54EA000C55EA020C7FEA645C7FEA08
:1001F000655C00F0E2804FEA5454D4EB5555B8BF2B
:100200006D420CDD2C4480EA020281EA030382EA9B
:10021000000083EA010180EA020281EA0303362D2D
:1002200088BF30BD11F0004F4FEA01314FF4801C00
:100230004CEA113102D0404261EB410113F0004F12
:100240004FEA03334CEA133302D0524263EB4303C9
:1002500094EA050F00F0A780A4F10104D5F1200E67
:100260000DDB02FA0EFC22FA05F2801841F10001C2
:1002700003FA0EF2801843FA05F359410EE0A5F196
:1002800020050EF1200E012A03FA0EFC28BF4CF0C7
:10029000020C43FA05F3C01851EBE37101F000457D
:1002A00007D54FF0000EDCF1000C7EEB00006EEB8A
:1002B0000101B1F5801F1BD3B1F5001F0CD3490814
:1002C0005FEA30004FEA3C0C04F101044FEA44526B
:1002D00012F5800F80F09A80BCF1004F08BF5FEAF2
:1002E000500C50F1000041EB045141EA050130BDD2
:1002F0005FEA4C0C404141EB0101013C28BFB1F5E4
:10030000801FE9D291F0000F04BF01460020B1FA2E
:1003100081F308BF2033A3F10B03B3F120020CDA01
:100320000C3208DD02F1140CC2F10C0201FA0CF0DF
:1003300021FA02F10CE002F11402D8BFC2F1200C44
:1003400001FA02F120FA0CFCDCBF41EA0C019040FA
:10035000E41AA2BF01EB0451294330BD6FEA040443
:100360001F3C1CDA0C340EDC04F11404C4F120022E
:1003700020FA04F001FA02F340EA030021FA04F340
:1003800045EA030130BDC4F10C04C4F1200220FA97
:1003900002F001FA04F340EA0300294630BD21FAD5
:1003A00004F0294630BD94F0000F83F4801306BF9B
:1003B00081F480110134013D4EE77FEA645C18BF8F
:1003C0007FEA655C29D094EA050F08BF90EA020F26
:1003D00005D054EA000C04BF1946104630BD91EA1E
:1003E000030F1EBF0021002030BD5FEA545C05D121
:1003F0004000494128BF41F0004130BD14F5800460
:100400003CBF01F5801130BD01F0004545F0FE41D3
:1004100041F470014FF0000030BD7FEA645C1ABF08
:10042000194610467FEA655C1CBF0B46024650EA3F
:10043000013406BF52EA033591EA030F41F400216B
:1004400030BD00BF90F0000F04BF0021704730B5F1
:100450004FF4806404F132044FF000054FF00001C6
:1004600050E700BF90F0000F04BF0021704730B587
:100470004FF4806404F1320410F0004548BF40425C
:100480004FF000013EE700BF42004FEAE2014FEAB1
:1004900031014FEA02701FBF12F07F4393F07F4F8C
:1004A00081F06051704732F07F4208BF704793F08F
:1004B0007F4F04BF41F40021704730B54FF46074A2
:1004C00001F0004521F000411CE700BF50EA0102A5
:1004D00008BF704730B54FF000050AE050EA01024E
:1004E00008BF704730B511F0004502D5404261EBBE
:1004F00041014FF4806404F132045FEA915C3FF4FF
:10050000D8AE4FF003025FEADC0C18BF03325FEA9B
:10051000DC0C18BF033202EBDC02C2F1200300FA4C
:1005200003FC20FA02F001FA03FE40EA0E0021FA71
:1005300002F11444BDE600BF70B54FF0FF0C4CF45F
:10054000E06C1CEA11541DBF1CEA135594EA0C0F11
:1005500095EA0C0F00F0DEF82C4481EA030621EA4C
:100560004C5123EA4C5350EA013518BF52EA033587
:1005700041F4801143F4801338D0A0FB02CE4FF039
:100580000005E1FB02E506F00042E0FB03E54FF069
:100590000006E1FB03569CF0000F18BF4EF0010E61
:1005A000A4F1FF04B6F5007F64F5407404D25FEA5D
:1005B0004E0E6D4146EB060642EAC62141EA555110
:1005C0004FEAC52040EA5E504FEACE2EB4F1FD0C52
:1005D00088BFBCF5E06F1ED8BEF1004F08BF5FEAD0
:1005E000500E50F1000041EB045170BD06F0004682
:1005F00046EA010140EA020081EA0301B4EB5C042F
:10060000C2BFD4EB0C0541EA045170BD41F4801126
:100610004FF0000E013C00F3AB8014F1360FDEBF4B
:10062000002001F0004170BDC4F10004203C35DA27
:100630000C341BDC04F11404C4F1200500FA05F3AA
:1006400020FA04F001FA05F240EA020001F000424B
:1006500021F0004110EBD37021FA04F642EB0601C1
:100660005EEA430E08BF20EAD37070BDC4F10C04EB
:10067000C4F1200500FA04F320FA05F001FA04F2AF
:1006800040EA020001F0004110EBD37041F100019B
:100690005EEA430E08BF20EAD37070BDC4F12005A6
:1006A00000FA05F24EEA020E20FA04F301FA05F20E
:1006B00043EA020321FA04F001F0004121FA04F2B6
:1006C00020EA020000EBD3705EEA430E08BF20EA86
:1006D000D37070BD94F0000F0FD101F000464000C0
:1006E00041EB010111F4801F08BF013CF7D041EA42
:1006F000060195F0000F18BF704703F00046520046
:1007000043EB030313F4801F08BF013DF7D043EA16
:100710000603704794EA0C0F0CEA135518BF95EACC
:100720000C0F0CD050EA410618BF52EA4306D1D153
:1007300081EA030101F000414FF0000070BD50EA72
:10074000410606BF1046194652EA430619D094EAFC
:100750000C0F02D150EA013613D195EA0C0F05D1E6
:1007600052EA03361CBF104619460AD181EA03013A
:1007700001F0004141F0FE4141F470014FF00000F2
:1007800070BD41F0FE4141F4780170BD70B54FF08D
:10079000FF0C4CF4E06C1CEA11541DBF1CEA13550D
:1007A00094EA0C0F95EA0C0F00F0A7F8A4EB0504EF
:1007B00081EA030E52EA03354FEA013100F08880E6
:1007C0004FEA03334FF0805545EA131343EA1263AF
:1007D0004FEA022245EA111545EA10654FEA002664
:1007E0000EF000419D4208BF964244F1FD0404F51D
:1007F000407402D25B084FEA3202B61A65EB030579
:100800005B084FEA32024FF480104FF4002CB6EB35
:10081000020E75EB030E22BFB61A754640EA0C00B5
:100820005B084FEA3202B6EB020E75EB030E22BFF5
:10083000B61A754640EA5C005B084FEA3202B6EB36
:10084000020E75EB030E22BFB61A754640EA9C00F5
:100850005B084FEA3202B6EB020E75EB030E22BFC5
:10086000B61A754640EADC0055EA060E18D04FEA83
:10087000051545EA16754FEA06164FEAC30343EA23
:1008800052734FEAC2025FEA1C1CC0D111F4801FF0
:100890000BD141EA00014FF000004FF0004CB6E7E9
:1008A00011F4801F04BF01430020B4F1FD0C88BF88
:1008B000BCF5E06F3FF6AFAEB5EB030C04BFB6EB93
:1008C000020C5FEA500C50F1000041EB045170BD86
:1008D0000EF0004E4EEA113114EB5C04C2BFD4EBB3
:1008E0000C0541EA045170BD41F480114FF0000E37
:1008F000013C90E645EA060E8DE60CEA135594EAB3
:100900000C0F08BF95EA0C0F3FF43BAF94EA0C0FB5
:100910000AD150EA01347FF434AF95EA0C0F7FF42A
:1009200025AF104619462CE795EA0C0F06D152EA7E
:1009300003353FF4FDAE1046194622E750EA410662
:1009400018BF52EA43067FF4C5AE50EA41047FF473
:100950000DAF52EA43057FF4EBAE12E74FF0FF3CD8
:1009600006E000BF4FF0010C02E000BF4FF0010CA9
:100970004DF804CD4FEA410C7FEA6C5C4FEA430C22
:1009800018BF7FEA6C5C1BD001B050EA410C0CBF71
:1009900052EA430C91EA030F02BF90EA020F0020D3
:1009A000704710F1000F91EA030F58BF994208BF3A
:1009B00090422CBFD8176FEAE37040F001007047F7
:1009C0004FEA410C7FEA6C5C02D150EA013C07D14E
:1009D0004FEA430C7FEA6C5CD6D152EA033CD3D099
:1009E0005DF8040B704700BF8446104662468C4693
:1009F0001946634600E000BF01B5FFF7B7FF0028C6
:100A000048BF10F1000F01BD4DF808EDFFF7F4FFEE
:100A10000CBF012000205DF808FB00BF4DF808ED79
:100A2000FFF7EAFF34BF012000205DF808FB00BF9C
:100A30004DF808EDFFF7E0FF94BF012000205DF8BE
:100A400008FB00BF4DF808EDFFF7CEFF94BF012073
:100A500000205DF808FB00BF4DF808EDFFF7C4FF6C
:100A600034BF012000205DF808FB00BF53B94AB92C
:100A7000002908BF00281CBF4FF0FF314FF0FF30A6
:100A800000F0E2B8ADF1080C6DE904CE16F0F4FE0A
:100A9000DDF804E0DDE9022304B0704700F1340121
:100AA00091E838009C46A6464CF8045D90E8FF0F9C
:100AB000E54600BD90EC210B704700BF80EC210B98
:100AC000704700BF90EC200B704700BF80EC200BFC
:100AD000704700BFD0EC200B704700BFC0EC200B6C
:100AE000704700BFF0EC0201F0EC0211F0EC0221C3
:100AF000F0EC0231F0EC0241F0EC0251F0EC02615A
:100B0000F0EC0271F0EC0281F0EC0291F0EC02A149
:100B1000F0EC02B1F0EC02C1F0EC02D1F0EC02E139
:100B2000F0EC02F1704700BFE0EC0201E0EC0211D2
:100B3000E0EC0221E0EC0231E0EC0241E0EC025199
:100B4000E0EC0261E0EC0271E0EC0281E0EC029189
:100B5000E0EC02A1E0EC02B1E0EC02C1E0EC02D179
:100B6000E0EC02E1E0EC02F1704700BFB0FC018173
:100B7000B0FC0191B0FC01A1B0FC01B1704700BF15
:100B8000A0FC0181A0FC0191A0FC01A1A0FC01B18D
:100B9000704700BFEC4600B52DE900502DE9FF1F5E
:100BA0004FF000032DE90C0001A917F01FF9DDF843
:100BB00040E012B0704700BFEC4600B52DE9005090
:100BC0002DE9FF1F4FF000032DE90C0001A917F0DC
:100BD00049F9DDF840E012B0704700BFEC4600B5BF
:100BE0002DE900502DE9FF1F4FF000032DE90C0007
:100BF00001A917F059F9DDF840E012B0704700BFC5
:100C0000EC4600B52DE900502DE9FF1F4FF0000321
:100C10002DE90C0001AB17F01DF9DDF840E012B032
:100C2000704700BFEC4600B52DE900502DE9FF1FCD
:100C30004FF000032DE90C0001AA17F095F9DDF83B
:100C400040E012B0704700BF704700BF00000000D6
:100C50000000000000000000000000000000000094
:100C600002780B78012A28BF9A4240F0D8806DE9BB
:100C7000044540EA0104CDE902676FF0000C4FEA39
:100C800044721AB380EA010414F0070F6BD100F02C
:100C9000070420F0070004F0030521F007014FEAE4
:100CA000C505F0E8042314F0040FF1E804670CFA1A
:100CB00005F462EA040266EA04060BD063EA040360
:100CC000624667EA0407664604E000BFF0E80423D2
:100CD000F1E8046782FA4CF582EA0604A4FA8CF47F
:100CE0006CBB83FA4CF583EA0705A5FA8CF595B938
:100CF00050E9022351E9026782FA4CF582EA0604C0
:100D0000A4FA8CF483FA4CF583EA0705A5FA8CF56E
:100D10002543DBD09CB92DBAB5FA85F424F007043D
:100D200027FA04F1DDE9026723FA04F303F0FF0078
:100D300001F0FF01FDE80445A0EB0100704724BA73
:100D4000B4FA84F424F0070426FA04F1DDE902671A
:100D500022FA04F202F0FF0001F0FF01FDE8044571
:100D6000A0EB0100704714F0030F3CD110F0030416
:100D700028D150F8082B51F8083B82FA4CF582EA4A
:100D80000305A5FA8CF55DB950F8042C51F8043C24
:100D900082FA4CF582EA0305A5FA8CF5002DE8D01D
:100DA0002DBAB5FA85F424F0070423FA04F122FAE7
:100DB00004F202F0FF0001F0FF01FDE80445A0EBA2
:100DC000010070474FEAC40420F0030050F8082BDC
:100DD00021F0030151F8083B0CFA04F462EA040222
:100DE00063EA0403C9E710F003041DD0A1EB04017A
:100DF00020F00300E40750F8042B06D012D28B78C1
:100E00005FFAA2F4E41A06D12BB1CB785FFAB2F400
:100E1000E41A00D133B920465DF8104B7047A2EBBD
:100E20000300704701F1040150F8042BCC0721F0B6
:100E3000030151F8043B48D824D222F07F4482FABF
:100E40004CF594EA1325A5FA8CF50AD165B951F849
:100E5000043B84EA0204B4EB036F0ED150F8042B78
:100E6000EBE74FEA132355E035F07F454DD1087885
:100E7000FDE80445C0F1000070474FEA126203F03C
:100E8000FF0347E002EA1C4482FA4CF594EA13455A
:100E9000A5FA8CF50AD165B951F8043B84EA02043D
:100EA000B4EB034F0CD150F8042BEBE74FEA13439C
:100EB00030E015EA1C4528D10B884FEA124229E0A0
:100EC0004FEA124203EA1C4324E002F0FF0482FAD4
:100ED0004CF594EA1365A5FA8CF50AD165B951F879
:100EE000043B84EA0204B4EB032F09D150F8042B2D
:100EF000EBE74FEA13630DE015F0FF0F05D10B6828
:100F00004FEA122223F07F4304E04FF00000FDE897
:100F10000445704712BA1BBA82FA4CF482EA030401
:100F2000A4FA8CF5B5FA85F402FA04F203FA04F394
:100F30004FEA1260FDE80445A0EB1360704700BF64
:100F400001F0FF01102A2BDB10F0070F08D010F87A
:100F5000013B013A8B422DD010F0070F42B3F6D17E
:100F6000F0B441EA012141EA014122F007047FF097
:100F700000070023F0E80256083C85EA010586EAEE
:100F8000010685FA47F5A3FA87F586FA47F6A5FA2A
:100F900087F68EB9EED1F0BC01F0FF0102F0070236
:100FA00032B110F8013B013A83EA010313B1F8D1E1
:100FB0000020704701387047002D06BF35460338C2
:100FC000073815F0010F07D1013015F4807F02BFFB
:100FD000013015F4C03F0130F0BC0138704700BF4C
:100FE000844641EA000313F003036DD1403A41D334
:100FF00051F8043B40F8043B51F8043B40F8043BF3
:1010000051F8043B40F8043B51F8043B40F8043BE2
:1010100051F8043B40F8043B51F8043B40F8043BD2
:1010200051F8043B40F8043B51F8043B40F8043BC2
:1010300051F8043B40F8043B51F8043B40F8043BB2
:1010400051F8043B40F8043B51F8043B40F8043BA2
:1010500051F8043B40F8043B51F8043B40F8043B92
:1010600051F8043B40F8043B51F8043B40F8043B82
:10107000403ABDD2303211D351F8043B40F8043B22
:1010800051F8043B40F8043B51F8043B40F8043B62
:1010900051F8043B40F8043B103AEDD20C3205D332
:1010A00051F8043B40F8043B043AF9D2043208D02A
:1010B000D2071CBF11F8013B00F8013B01D30B889C
:1010C00003806046704700BF082A13D38B078DD07A
:1010D00010F003038AD0C3F10403D21ADB071CBF4C
:1010E00011F8013B00F8013B80D331F8023B20F8B6
:1010F000023B7BE7043AD9D3013A11F8013B00F8EF
:10110000013BF9D20B7803704B7843708B78837076
:101110006046704700000000000000000000000072
:1011200000000000000000000000000000000000BF
:1011300000000000000000000000000000000000AF
:1011400030B490F800F020F007016FF0000C10F0C0
:10115000070491F820F040F048804FF000046FF051
:101160000700D1E9002391F840F000F1080082FA6D
:101170004CF2A4FA8CF283FA4CF3A2FA8CF34BBB38
:10118000D1E9022382FA4CF200F10800A4FA8CF2B1
:1011900083FA4CF3A2FA8CF3E3B9D1E9042382FA7F
:1011A0004CF200F10800A4FA8CF283FA4CF3A2FA94
:1011B0008CF37BB9D1E9062301F1200182FA4CF2CC
:1011C00000F10800A4FA8CF283FA4CF3A2FA8CF333
:1011D000002BC6D0002A04BF04301A4612BAB2FA55
:1011E00082F200EBD20030BC7047D1E9002304F05A
:1011F0000305C4F100004FEAC50514F0040F91F88F
:1012000040F00CFA05F562EA05021CBF63EA05032B
:1012100062464FF00004AAE74FEA410C7FEA6C5C9B
:1012200002D150EA013C0AD14FEA430C7FEA6C5CE0
:1012300002D152EA033C02D14FF0000070474FF058
:10124000010070474FEA410212F5001215D211D584
:101250006FF47873B3EB625212D94FEAC12343F0B3
:10126000004343EA505311F0004F23FA02F018BF35
:10127000404270474FF00000704750EA013005D1FE
:1012800011F0004008BF6FF0004070474FF00000C1
:10129000704700BF0348044B834202D0034B03B1A5
:1012A00018477047C00E0020C00E0020000000004C
:1012B0000548064B1B1AD90F01EBA301491002D0B8
:1012C000034B03B118477047C00E0020C00E00202A
:1012D0000000000010B5064C237843B9FFF7DAFF91
:1012E000044B13B10448AFF300800123237010BDF9
:1012F000C00E00200000000070F0010808B5054B8A
:101300001BB105490548AFF30080BDE80840FFF771
:10131000CFBF00BF00000000C40E002070F0010825
:1013200001608260C0F80D30009B037370470000BD
:1013300008B502680A4B9A4208D000231A4600F109
:101340000801084800680CF089F908BD00231A4616
:1013500000F10801044800680CF080F9F5E700BFCF
:1013600064210020D4210020D821002008B5064B9C
:10137000834204D0054B18680CF0F6F808BD044B06
:1013800018680CF0F1F8F9E7642100208C210020A6
:101390009021002008B5FFF7E9FF08BD08B5FFF769
:1013A000E5FF08BD08B5FFF7E1FF08BD2DE9F041F5
:1013B00004460D4690461E46069F0CF09BFA236895
:1013C00013B16368002B4ED12560B8F1000F01D036
:1013D000C4F8048006B1666107B1A7612A4B9D423B
:1013E00044D00123294A13611D46294A52F823207B
:1013F000372A2AD8E261C3EBC30102EBC1012548B9
:1014000040F82140E169C3EBC300400000EB9100CC
:101410001E4E706101F0030160681F4F01EB8301F4
:1014200047F8210001321A4941F823201A0107EB3D
:101430000313BA58520172605A685201F2609A68F6
:1014400052013260DB685B01B3601049206806F02E
:1014500079FD0F4B53F8253013F0030F0AD00CF031
:101460006BFABDE8F0810CF067FAFAE70023074A4F
:101470001361B9E72901084A02EB0515002353500F
:101480006B60AB60EB60EAE76421002000000020A5
:10149000FC0E0020040F0020DC0E002010B58AB0E6
:1014A00001AB03AA002106F08CFE099A064B53F803
:1014B00022403CB1A06928B10CF056F8636901A93B
:1014C000204698470AB010BD040F002010B58AB01E
:1014D00001AB03AA012106F074FE099B3833074AC9
:1014E00052F823403CB1A06928B10CF03DF8636983
:1014F00001A9204698470AB010BD00BF040F002084
:1015000008B5062309F001FE01200BF07AFF08BDA3
:1015100008B509F061FE01200BF073FF08BD10B59E
:1015200004460AF091F8E36B1A68136823F0080385
:10153000136010BD10B504460846114623880022EA
:1015400010E073460CF1010CBCF1070F09D84FEA0B
:10155000430E13F4004FF4D08EF4815383F0010353
:10156000F0E701328A4206D210F802C083EA0C2367
:101570004FF0000CE8E7238010BD000070B52DEDA2
:10158000048B84B00646F0EE418AB0EE619AFFEE1D
:10159000007AB4EEE70AF1EE10FA0BD9B0EE408A09
:1015A000F7EE007AB4EEE70AF1EE10FA04DBB7EEDC
:1015B000008A01E0BFEE008AFFEE007AF4EEE70A4F
:1015C000F1EE10FA09D9F7EE007AF4EEE70AF1EE3F
:1015D00010FA04DBF7EE000A01E0FFEE000A68EE05
:1015E000087A20EEA07A77EE877AF5EEC07AF1EEEF
:1015F00010FA08DBF1EEE77AB7EE007AF4EEC77A7C
:10160000F1EE10FA1BDC78EE607A9FED2B7A28EE73
:10161000871A37EEC17A8DED007A38EE208A38EEDF
:10162000417A8DED017A77EE817ACDED027A31EE55
:10163000081A8DED031AB0EE497A6B4611E080EE80
:10164000880A16F011F8F0EE409A0EF025FCB0EE84
:10165000408AB0EE690A0EF06BFCF0EE400AD2E769
:10166000043304AA93420BD0D3ED007AF0EEE77A6C
:10167000F4EEC77AF1EE10FAF2DDB0EE677AEFE73A
:1016800089EE078A002410E0E42505FB046504AB1D
:1016900003EB840313ED040A20EE080A284603F046
:1016A0000CFE284603F0DEFD0134032CECDD04B013
:1016B000BDEC048B70BD00BFCDCC4C3F30EE600A5A
:1016C00080ED070A90ED007A20EE077A80ED0A7A25
:1016D000D0ED0B6AD0ED017A60EE277A76EEA76A3C
:1016E000C0ED0B6AD0ED027A90ED086A30EE466AE2
:1016F00067EE867AC0ED0C7A90ED056AF4EEC66A64
:10170000F1EE10FA1DD880ED0B6AD0ED0B6A37EEC2
:10171000267A77EE877AC0ED0D7A90ED037AF1EEB6
:10172000476AF4EEE67AF1EE10FA14D8C0ED0D6ACD
:1017300080ED080A037E0BB90023436390ED0D0A88
:10174000704790ED046AF4EEC66AF1EE10FADCDB45
:1017500080ED0B6AD9E7F4EEC77AF1EE10FAE7DB19
:1017600080ED0D7AE4E7C0ED010A80ED021A80ED0C
:10177000042A80ED000AC0ED031A7047D0ED046A18
:10178000D0ED037AB1EE677AB4EEE67AF1EE10FAB4
:1017900006DAF4EEE67AF1EE10FA22D9B0EE667AC5
:1017A000D0ED007AF5EEC07AF1EE10FA1CDDF4EE21
:1017B000C77AF1EE10FA20DC01231A4677EE676A49
:1017C000F0EEE66A02B390ED016AF0EEC65AF4EE6E
:1017D000E65AF1EE10FA1CDD80ED007A90ED000A79
:1017E0007047B0EE677ADBE7F4EEC77AF1EE10FAF5
:1017F00006D44FF0FF330122E0E701230022DDE7AA
:101800004FF0FF330022D9E790ED026AB1EE466A4D
:10181000DBE7F0EEE77A77EE867AC0ED007A07EE46
:10182000103AB8EEC77A67EE877AC0ED007AD5E74E
:1018300080ED050AC0ED040A00220276704710B55B
:101840002DED068BB0EE409AF0EE608AB0EE418A44
:1018500004460EF021FBF0EE409AB0EE680A0EF05E
:101860001BFB69EE809AC4ED009AB0EE490A0EF0B7
:1018700013FBF0EE409AB0EE680A0EF059FB69EEE9
:10188000809AB0EE480A0EF053FB69EE809AB0EEF3
:10189000490A0EF04DFBB0EE40AAB0EE480A0EF039
:1018A000FBFA2AEE00AA79EECA9AC4ED019AB0EECC
:1018B000490A0EF0F1FAF0EE409AB0EE680A0EF026
:1018C00037FB69EE809AB0EE480A0EF0E5FA69EE51
:1018D000809AB0EE490A0EF02BFBB0EE40AAB0EEB3
:1018E000480A0EF025FB2AEE00AA79EE8A9AC4ED8A
:1018F000029AB0EE490A0EF01BFBF0EE409AB0EEF1
:10190000680A0EF0C9FA69EE809AC4ED039AB0EE47
:10191000490A0EF00DFBF0EE409AB0EE680A0EF0A8
:1019200007FB69EE809AB0EE480A0EF001FB69EE03
:10193000809AB0EE490A0EF0AFFAB0EE40AAB0EECF
:10194000480A0EF0A9FA2AEE00AA79EE8A9AC4EDA6
:10195000049AB0EE490A0EF0EBFAF0EE409AB0EEBF
:10196000680A0EF0E5FA69EE809AB0EE480A0EF0C9
:1019700093FA69EE809AB0EE490A0EF08DFAB0EE55
:10198000409AB0EE480A0EF0D3FA29EE009A79EEAA
:10199000C99AC4ED059AB0EE680A0EF0C9FAB1EE24
:1019A000400A84ED060AB0EE680A0EF075FAB0EE51
:1019B000409AB0EE480A0EF0BBFA29EE009A84ED88
:1019C000079AB0EE680A0EF067FAF0EE408AB0EEC1
:1019D000480A0EF061FA68EE808AC4ED088ABDEC10
:1019E000068B10BD0B88A0F882304B88A0F884309D
:1019F0008B88A0F88630704710B52DED028B044619
:101A0000DFED168A9FED168AF0EE680AB0EE480AFE
:101A1000203002F0FFFFF0EE680AB0EE480A04F151
:101A20003C0002F0F7FFDFED0F0AB0EE480A04F1C8
:101A3000580002F0EFFF002104F1740003F0D0FE23
:101A4000002384F87830012284F8752084F87630F9
:101A500084F877302046BDEC028B10BD00C0F34403
:101A60000040E7440080F24408B50248FFF7C4FF95
:101A700008BD00BFC810002070B582B004460D46F6
:101A800016461A460823009300F17903FFF748FC35
:101A9000069B0093034B324629462046FFF786FCFF
:101AA00002B070BDE519000810B50446B0F88430E6
:101AB00000EE103AB8EE400A203002F0B9FFB4F858
:101AC000863000EE103AB8EE400A04F13C0002F015
:101AD000AFFFB4F8823000EE103AB8EE400A04F1DD
:101AE000580002F0A5FF10BD10B5044690F87530FF
:101AF00073B1002380F87630203002F0F3FF04F158
:101B00003C0002F0EFFF04F1580002F0EBFF10BDC3
:101B1000012380F87630203002F0E7FF04F13C002A
:101B200002F0E3FF04F1580002F0DFFFEFE70000EE
:101B300010B504460F21064B18680BF0E1FC18B1F4
:101B4000012384F8753010BD002384F87530FAE75E
:101B50009C21002070B506460024254601E0013492
:101B600064B2022C0BDCC4EBC40080002030304493
:101B700002F0BEFF0028F2D00135EDB2EFE786F8A3
:101B8000785070BD08B590F86E1090F8792061F328
:101B9000000280F8792090F83610D2B261F3410249
:101BA00080F8792090F85210D2B261F3820280F866
:101BB0007920FFF7BDFB08BD08B5C1EBC101890065
:101BC0002031084402F096FF08BD70B506460C4669
:101BD000CD00C1EBC1039B002033184402F08DFF00
:101BE0002D1B06EB8505012385F83730022C00D02C
:101BF00070BD002106F1740003F0F4FDF8E710B5A4
:101C000004460BF077FE94F86E3013B194F8703000
:101C100073B194F8363013B194F838307BB194F83E
:101C2000523013B194F8543083B10BF085FE10BDDF
:101C300004F1580002F064FF0BF07EFEF7E704F1B8
:101C4000200002F05DFF0BF077FEF0E704F13C00AE
:101C500002F056FF0BF070FEE9E70000054B1B7920
:101C60001BB1012380F877307047002380F877306C
:101C7000704700BF7C1C002090F87700704708B5C3
:101C8000FFF7F2FE08BD0000012300F8083C0B78C6
:101C90004A7802F0030243EA022307EE903AF8EE94
:101CA000677A9FED2D7A77EE877AC0ED0A7A4A78C7
:101CB0008B7803F00F039B0143EA920307EE903AFF
:101CC000F8EE677A9FED257A77EEC77AC0ED0B7A4A
:101CD0008A78CB7803F03F031B0143EA121307EE27
:101CE000903AF8EE677A9FED1E7A77EEC77AC0EDEC
:101CF0000C7A0A794B7903F07F035B0043EAD21335
:101D00005BB207EE903AF8EEE77AC0ED107A4A79C6
:101D10008B795B0043EAD21343F308031BB207EE4F
:101D2000903AF8EEE77AC0ED0F7ACA780B7903F0B3
:101D30007F039B0043EA921343F308031BB207EEB1
:101D4000903AF8EEE77AC0ED0E7A064B5A6C426391
:101D50009B6C4364704700BF000048430000C843C9
:101D600000001643D819002010B52DED028B044653
:101D70009FED268AF0EE480AB1EE040AFFF758FDFF
:101D8000F0EE480AB1EE040A04F12000FFF750FD1E
:101D9000F0EE480AB1EE040A04F14000FFF748FDF6
:101DA0009FED1B8AF0EE480AB1EE040A04F16000D0
:101DB000FFF73EFDF0EE480AB1EE040A04F18000A0
:101DC000FFF736FDF0EE480AB1EE040A04F1A00078
:101DD000FFF72EFDF0EE480AB1EE040A04F1C00050
:101DE000FFF726FDF0EE480AB1EE040A04F1E00028
:101DF000FFF71EFD002384F8213184F82331A4F875
:101E000024312046BDEC028B10BD00BF9A99993E4B
:101E1000CDCCCC3D08B50248FFF7A6FF08BD00BFFA
:101E200050110020164BC0F8AC31164BC0F8CC3125
:101E3000154BC0F8B031154BC0F8D031144BC0F879
:101E4000B431144BC0F8D431134BC0F8C431134B28
:101E5000C0F8E4310022C0F8C821C0F8E831104BC6
:101E6000C0F8C0310F4BC0F8E0310F4BC0F8B831AB
:101E70000E4AC0F8D821C0F8DC21C0F8BC31704748
:101E80000000484300E083440080C5C3004005448F
:101E9000000043C3000025440000B4C20000B44267
:101EA00000007FC300007F43000020C300002043E8
:101EB00010B504460F21064B18680BF021FB18B92A
:101EC000012384F8223110BD002384F82231FAE77F
:101ED0009421002090F8210170470000054B1B79E8
:101EE0001BB1012380F821317047002380F8213194
:101EF000704700BF7C1C002010B504460BF0FAFCB4
:101F000004F59470FFF714FA0BF016FD10BD0000F5
:101F100010B504460BF0EEFC94ED5C0ADFED437A5D
:101F200030EE670A30EE000A15F080FCBCEEC00A05
:101F3000B4F8483110EE102A62F30A03A4F84831CD
:101F400094ED5D0ADFED3A7A30EE270A30EE000AB2
:101F500015F06CFCBCEEC00AD4F8483110EE102A23
:101F600062F3D523C4F8483194ED5E0ADFED317A8F
:101F700030EE270A30EE000A15F058FCFCEEC07A6D
:101F800017EE903AC3F30901B4F84A2102F03F0278
:101F900042EA8112A4F84A21C3F3802394F84C2129
:101FA00022F00102134384F84C3194ED610A30EEC3
:101FB000000A15F03BFCBDEEC00A10EE103A43F3E8
:101FC0000903B4F84E2163F30D12A4F84E2194EDE9
:101FD000620A30EE000A15F029FCBDEEC00A10EED0
:101FE000103A43F30803D4F84C2163F3D322C4F826
:101FF0004C2194ED600A30EE000A15F017FCBDEE9E
:10200000C00A10EE103A43F30903B4F84C2163F30D
:102010004A02A4F84C21D4F88C21074B1A63D4F857
:102020007C215A630BF088FC10BD00BF00004843C0
:102030000000C84300001643D8190020403100EBCF
:10204000810080ED000A704738B52DED028B044603
:102050000D4601F16A0300EB830393ED018AB4EEB0
:10206000C08AF1EE10FA0CDA01F1720300EB83037F
:1020700093ED018AB4EEC08AF1EE10FA01D9B0EE08
:10208000408AB0EE480A29462046FFF7D7FFB0EE57
:10209000480A04EB45101DF00FF8BDEC028B38BD6B
:1020A00010B52DED028B04469FED190A0021FFF7B4
:1020B000CBFF9FED180A01212046FFF7C5FFB3EEC5
:1020C000040A02212046FFF7BFFF9FED138AB0EEFE
:1020D000480A03212046FFF7B7FFB0EE480A042163
:1020E0002046FFF7B1FFB0EE480A05212046FFF772
:1020F000ABFFB0EE480A06212046FFF7A5FFB0EE81
:10210000480A07212046FFF79FFFBDEC028B10BD58
:102110000000C84300008C4200000000F0B583B00E
:1021200004460D461E4600F59477089B00930A4B23
:102130003846FFF73BF90823009304F5A4733246B1
:1021400029463846FFF7ECF82046FFF76BFE20469D
:10215000FFF7A6FF03B0F0BD891C000810B52DEDF8
:10216000048B044690ED3F0A9FED1A9A20EE090A6F
:10217000DFED198A80EE280A0DF08EFEDFED177A6A
:1021800020EE278ADFED167A38EE278A84ED648AFE
:10219000D4ED377A67EE897A87EEA80A84ED670A6C
:1021A0000DF07AFE28EE008A84ED668A94ED648A4A
:1021B00094ED670A0DF0BCFE28EE000A84ED650A76
:1021C000D4ED0F7A77EEC07AC4ED687ABDEC048B5B
:1021D00010BD00BFDB0F4940000034430000434303
:1021E00000004843D0ED667AC0ED6B7A9FED037A2C
:1021F00077EE877AC0ED737A704700BF0000254400
:10220000D0ED657AC0ED6C7A9FED037A77EE877A30
:10221000C0ED747A704700BF00000A4310B5044651
:10222000D0ED3F7A9FED0D7A67EE877A9FED0C0A2D
:1022300087EE800A0DF07CFEDFED0A7A20EE270A99
:10224000DFED097A77EEC07AC4ED6D7A9FED077AFB
:1022500077EE877AC4ED757A10BD00BFDB0F494079
:102260000000344300004343000000000000254408
:10227000D0ED3F7A9FED057A77EEC76AC0ED6F6AC1
:1022800077EE877AC0ED777A704700BF0000B442DE
:1022900010B50446FFF7A6FF2046FFF7B1FF204622
:1022A000FFF7BCFF2046FFF7E3FF10BDF8B505467A
:1022B0000024F2E0D5ED407A95ED730AF4EEC07A91
:1022C000F1EE10FA16DC95ED6B7AF4EEC77AF1EECA
:1022D00010FA27D4F4EEC77AF1EE10FA3CD885ED67
:1022E000407A95ED400A28461CF0DAFED5F8003118
:1022F0002B60D0E0012385F8233195ED697A77EEE4
:10230000C07A77EE277AC5ED697A28461CF0C8FEB8
:10231000D5F8CC31C5F800312B608B4B0022C3F8C7
:102320002025B8E0012385F82331D5ED696A77EEE1
:10233000C77A76EEA77AC5ED697AB0EE470A2846E5
:102340001CF0AEFED5F8AC31C5F800312B607E4BE9
:102350000022C3F820259EE0F4EEC07AF1EE10FAD8
:10236000BFDB85ED400ABCE7D5ED417A95ED740AF7
:10237000F4EEC07AF1EE10FA17DC95ED6C7AF4EE1B
:10238000C77AF1EE10FA29D4F4EEC77AF1EE10FA1A
:102390003FD885ED417A95ED410A05F120001CF00A
:1023A0007FFED5F804312B6275E0012385F82331D7
:1023B00095ED6A7A77EEC07A77EE277AC5ED6A7A7C
:1023C00005F120001CF06CFED5F8D031C5F80431C1
:1023D0002B625D4B0022C3F820255CE0012385F8C9
:1023E0002331D5ED6A6A77EEC77A76EEA77AC5ED26
:1023F0006A7AB0EE470A05F120001CF051FED5F8CC
:10240000B031C5F804312B624F4B0022C3F82025B0
:1024100041E0F4EEC07AF1EE10FABCDB85ED410A42
:10242000B9E704F1720305EB830393ED017AF4EE4F
:10243000C77AF1EE10FA66DB04F1400305EB830383
:1024400083ED007A5FE0204604F1400305EB83034F
:10245000D3ED007A04F16A0305EB830393ED017A6F
:10246000F4EEC77AF1EE10FA5BD804F1400305EB05
:10247000830383ED007A00F1400705EB870705EB46
:10248000401697ED000A30461CF00AFE3B683360A8
:102490002D4800F045FF0134E4B2072C53D82A4BF5
:1024A000D3EDF47AF5EE407AF1EE10FACBD1D3ED1C
:1024B000F57AF5EE407AF1EE10FAC4D1D3EDF67A62
:1024C000F5EE407AF1EE10FABDD1002C3FF4F2AEF9
:1024D000012C3FF449AF204604F1400305EB830390
:1024E000D3ED007A04F16A0305EB830393ED017ADF
:1024F000F4EEC77AF1EE10FA93D804F1400305EB3D
:10250000830383ED007A00F1400705EB870705EBB5
:10251000401697ED000A30461CF0C2FD3B68336060
:10252000B9E704F1720305EB830393ED017AF4EE4E
:10253000C77AF1EE10FA9EDB04F1400305EB83034A
:1025400083ED007A97E7F8BD3C13002038B50546C7
:10255000002405E005EB44101CF0A6FD0134E4B2B4
:10256000072CF7D938BD80ED5C0AD0ED6B7AF4EE1C
:10257000C07AF1EE10FA02DBC0ED5C7A7047D0ED64
:10258000737AF4EEC07AF1EE10FA01D8C0ED5C7AFD
:10259000704780ED5D0AD0ED6C7AF4EEC07AF1EE12
:1025A00010FA02DBC0ED5D7A7047D0ED747AF4EE7C
:1025B000C07AF1EE10FA01D8C0ED5D7A704780ED77
:1025C0005E0AD0ED6D7AF4EEC07AF1EE10FA02DB1D
:1025D000C0ED5E7A7047D0ED757AF4EEC07AF1EE18
:1025E00010FA01D8C0ED5E7A704780ED620AD0ED36
:1025F0006F7AF4EEC07AF1EE10FA02DBC0ED627A87
:102600007047D0ED777AF4EEC07AF1EE10FA01D887
:10261000C0ED627A704780ED610AD0ED707AF4EE19
:10262000C07AF1EE10FA02DBC0ED617A7047D0EDAE
:10263000787AF4EEC07AF1EE10FA01D8C0ED617A42
:10264000704780ED600AD0ED617A90ED6E7AF4EE1D
:10265000C77AF1EE10FA02D880ED617A704790EDFA
:10266000767AF4EEC77AF1EE10FA01DB80ED617A4A
:10267000704780ED630AD0ED727AF4EEC07AF1EE25
:1026800010FA02DBC0ED637A7047D0ED7A7AF4EE8F
:10269000C07AF1EE10FA01D8C0ED637A704780ED90
:1026A0005F0AD0ED717AF4EEC07AF1EE10FA02DB37
:1026B000C0ED5F7A7047D0ED797AF4EEC07AF1EE32
:1026C00010FA01D8C0ED5F7A704710B5044690ED5E
:1026D000070AFFF748FF94ED0F0A2046FFF759FF5E
:1026E00094ED170A2046FFF76AFF94ED270A20466B
:1026F000FFF77BFF94ED2F0A2046FFF78CFF94ED48
:102700001F0A2046FFF79DFF94ED3F0A2046FFF782
:10271000B0FF94ED370A2046FFF7C1FF10BD10B59A
:102720000446FFF71BFD2046FFF7B2FD2046FFF7EA
:10273000BDFD2046FFF70AFF2046FFF7C6FF2046F3
:10274000FFF7E6FB10BD000038B52DED028B054606
:102750000C46F0EE408AB0EEC08ADFED3C7AB4EE73
:10276000E78AF1EE10FA11DD022930D89FED380A20
:10277000F7EE007AB4EEE78AF1EE10FA02D901DD45
:1027800020EE080A05EB44101CF0A2FCF7EE007ADC
:10279000B4EEE78AF1EE10FA1CD9F7EE007AB4EE47
:1027A000E78AF1EE10FA25DD04F1400305EB83031F
:1027B000D3ED007A88EE887A05EB4412D2ED046AF4
:1027C00027EE267A77EE877AC3ED007A12E09FED46
:1027D000210ACDE704F1400305EB8303D3ED007A32
:1027E00005EB441292ED047A27EE287A77EE877A89
:1027F000C3ED007A012C15D904F1400305EB8303E6
:10280000D3ED007A04F16A0305EB830393ED017ABB
:10281000F4EEC77AF1EE10FA07D8403405EB8404E1
:1028200084ED007ABDEC028B38BD04F1720305EB38
:10283000830393ED017AF4EEC77AF1EE10FAF1DB3F
:10284000403405EB840585ED007AEBE717B7D13806
:102850009A99993ECDCCCC3D10B5044690ED540AE2
:102860000021FFF7F1FB94ED550A01212046FFF707
:10287000EBFB94ED560A02212046FFF7E5FB94EDB1
:10288000570A06212046FFF7DFFB94ED5B0A07217C
:102890002046FFF7D9FB94ED580A03212046FFF7A5
:1028A000D3FB94ED5A0A04212046FFF7CDFB94EDAB
:1028B000590A05212046FFF7C7FB10BD10B5044695
:1028C000FFF7CAFF002384F823310023C4F8A431A2
:1028D000C4F8A83110BDB0F8243141F287329342D8
:1028E00001D9012070470133A0F82431002070473E
:1028F00001F1400300EB8303D3ED007A37EE800A49
:1029000083ED000A90F823311BB3012942D901F16C
:102910006A0300EB8303D3ED017AB4EEE70AF1EE2C
:1029200010FA05D8403100EB8100C0ED007A704705
:1029300001F1720300EB8303D3ED017AB4EEE70AF1
:10294000F1EE10FA26DB403100EB8100C0ED007A99
:10295000704701F16A0300EB8303D3ED017AB4EE13
:10296000E70AF1EE10FA05D8403100EB8100C0ED26
:10297000007A704701F1720300EB8303D3ED017A13
:10298000B4EEE70AF1EE10FA04DB403100EB81000F
:10299000C0ED007A70470000022900D9704730B5B9
:1029A0002DED068B8BB005460C46B0EE409AB0EE8E
:1029B000608AF0EE418A2422002101A818F024FB4D
:1029C00095ED1F7ADFED427A87EE270A95ED277A9B
:1029D00037EE097AC7EE270A95ED2F7A87EE271A88
:1029E000DFED3C7A01A821EE271A60EEA70A20EE5F
:1029F000270AFEF724FF0AAB03EB840313ED090A51
:102A0000E31C0AAA02EB830313ED097A67EE08AA16
:102A1000063402EB840454ED097A27EE88AA60EEAE
:102A2000289A27EE289A67EEA88A20EE080A002145
:102A30002846FFF75DFFB0EE6A0A01212846FFF73E
:102A400057FFB0EE4A0A02212846FFF751FFF0EE89
:102A5000E97A17EE900AFDF717FD1BA3D3E90023CF
:102A6000FDF7FAFFD8B9F0EEC97A17EE900AFDF734
:102A70000BFD15A3D3E90023FDF7EEFFA8B9F0EE97
:102A8000E87A17EE900AFDF7FFFC0FA3D3E90023C5
:102A9000FDF7E2FF80B90BB0BDEC068B30BDB0EEA8
:102AA000690A28461CF014FBDDE7B0EE490A05F17F
:102AB00020001CF00DFBE2E7B0EE680A05F14000D3
:102AC0001CF006FBE7E700BFFCA9F1D24D62503FC6
:102AD00000003443DB0F494008B5FFF79BF908BD00
:102AE00070B504460646032504E0304602F002FABB
:102AF000013DE436002DF8DA012284F8902300230A
:102B000084F8913384F8922384F8963384F89333CD
:102B100084F8942384F89523064AC4F8E0234FF000
:102B20007C51C4F8DC13C4F8E423C4F820352046F3
:102B300070BD00BF3333733F08B50248FFF7D0FFC5
:102B400008BD00BF3C130020034600F564729342A9
:102B500004D093F8330010B1E433F8E70120704754
:102B6000F8B50646044600F56477002508E02046DF
:102B700002F050FB204602F004FB0544EDB2E434C1
:102B8000BC42F4D125B1012386F890332846F8BD24
:102B9000002386F89033F9E790F89103704790F896
:102BA0009203704790F890331BB1002380F8913363
:102BB0007047012380F891337047034600F5647134
:102BC00000E0E4338B4208D093F83020002AF8D19B
:102BD00093F833000028F4D100E001207047000092
:102BE000054B1B791BB1012380F8923370470023FA
:102BF00080F89233704700BF7C1C002010B52DED8B
:102C0000028B044690F89433002B4ED190EDFE8A4F
:102C1000D0EDFD8A38EE680ADFED487A80EE270AAB
:102C200014F022FD04F5816383ED000A78EE280A92
:102C3000F6EE007A60EEA70A04F58063C3ED000AA1
:102C400094F89533002B6BD094EDFF7ADFED3C7A4E
:102C500077EE277AF4EEE70AF1EE10FA38D99FED15
:102C6000397AC0EE077A04F20443C3ED007A0DF01E
:102C700009F9DFED357AB4EEE70AF1EE10FA0FD874
:102C800094EDFD7ADFED317AB4EEE77AF1EE10FAE9
:102C900031D494EDFE7AB4EEE77AF1EE10FA2AD44C
:102CA00004F28444002323600FE000F27C420023FE
:102CB000136000F59062136000F28442136000F527
:102CC0008162136000F204442360BDEC028B10BDEE
:102CD000B0EE470A04F20C40FEF7F0FCF1EE407A49
:102CE00004F27C43C3ED007AD4EDF47A77EEC07A37
:102CF000C4EDF47AE9E704F20443DFED150A93ED3D
:102D0000000A04F24440FEF7D9FC04F2844383ED48
:102D1000000AD4EDF67A77EE807AC4EDF67AD4E73D
:102D200004F27C420023136004F59062136004F205
:102D30008442136004F204442360C6E70000324377
:102D400000009643DB0FC9400000484200002F44BA
:102D50000000000010B504460F21064B18680AF069
:102D6000CFFB18B1012384F8943310BD002384F8FD
:102D70009433FAE7B021002090F89403704780ED77
:102D8000EA0AD0EDF97AB1EE677AB4EEC07AF1EEE4
:102D900010FA02DB80EDEA7A7047F4EEC07AF1EEC9
:102DA00010FA01D8C0EDEA7A704780EDF10AD0ED53
:102DB000F97AB1EE677AB4EEC07AF1EE10FA02DB7E
:102DC00080EDF17A7047F4EEC07AF1EE10FA01D896
:102DD000C0EDF17A704780EDF40AD0EDF97AB1EEEA
:102DE000677AB4EEC07AF1EE10FA02DB80EDF47A85
:102DF0007047F4EEC07AF1EE10FA01D8C0EDF47A23
:102E0000704780EDF50AD0EDF97AB1EE677AB4EE4D
:102E1000C07AF1EE10FA02DB80EDF57A7047F4EE3D
:102E2000C07AF1EE10FA01D8C0EDF57A704780ED66
:102E3000F60AD0EDF97AB1EE677AB4EEC07AF1EE27
:102E400010FA02DB80EDF67A7047F4EEC07AF1EE0C
:102E500010FA01D8C0EDF67A7047000000F59F63C4
:102E6000144A1A6000230DE003F59B7200EB820206
:102E70001049516003F5997200EB82020E4911600E
:102E80000133DBB2032BEFD900F59E630B4A1A60C6
:102E900000F2F4430A4A1A6000F2FC420023136075
:102EA00000F2C442136000F598600360054B1360A4
:102EB000704700BF6666D6400AD7233C17B7513A21
:102EC00017B7513900007043F0B52DED048B83B076
:102ED0000446DFED758A9FED758A754E754F3B6828
:102EE000019300250095F0EE680AB0EE480A3346DB
:102EF0000122114602F002F86F4B1B680193009506
:102F0000F0EE680AB0EE480A33460122022104F1CD
:102F1000E40001F0F3FF3B68019301250095F0EE1A
:102F2000680AB0EE480A33462A46032104F5E470E5
:102F300001F0E4FF3B6801930095F0EE680AB0EE03
:102F4000480A33462A46042104F52B7001F0D6FFC7
:102F50009FED5A9ADFED5A8A9FED5A8AB0EE492AC0
:102F6000F0EE681AB0EE481AF0EE480A9FED560AE5
:102F700004F1AC001CF088F8B0EE492AF0EE681AB3
:102F8000B0EE481AF0EE480A9FED500A04F5C870FA
:102F90001CF07AF8B0EE492AF0EE681AB0EE481A42
:102FA000F0EE480A9FED4A0A04F51D701CF06CF81B
:102FB000B0EE492AF0EE681AB0EE481AF0EE480A70
:102FC0009FED440A04F556701CF05EF89FED429A9E
:102FD000B0EE492AF0EE681AB0EE481AF0EE480A50
:102FE000B2EE060A04F174001CF04EF8B0EE492A65
:102FF000F0EE681AB0EE481AF0EE480AB2EE060A91
:1030000004F5AC701CF040F8B0EE492AF0EE681AF6
:10301000B0EE481AF0EE480AB2EE060A04F50F7058
:103020001CF032F8B0EE492AF0EE681AB0EE481AF9
:10303000F0EE480AB2EE020A04F548701CF024F8DB
:103040009FED269AB0EE482AF6EE001AB0EE491A25
:10305000F0EE490AB0EE480A04F56670FEF783FB0D
:10306000B0EE482AF6EE001AB0EE491AF0EE490A20
:10307000B0EE480A04F56D70FEF775FBB7EE002A56
:10308000F0EE681AB0EE481AF0EE480A9FED140A06
:1030900004F591601BF0F8FF2046FFF7DFFE03B058
:1030A000BDEC048BF0BD00BF9A99993E0000FA4434
:1030B00064210020C8210020C4210020CDCC4C3E3A
:1030C0000000C84200000000295C8F3DEC51383EF2
:1030D0009A99193EEC51B83D3333733F0AD7A33B5D
:1030E0003333034110B52DED028B044600F2C44387
:1030F000D3ED008A002318E0E42202FB034292EDA4
:103100002A7A03F59B7104EB8101D1ED017AB0EECF
:10311000C77A67EE877A92ED157AB0EEC77A67EED6
:10312000877A38EE278A0133DBB2032BE4D904F225
:103130000453514A1A6004F5A16383ED008A04F236
:103140000C53C3ED008A28EE080ADFED4C7A68EED6
:10315000A77ADFED4B6A87EEA67A30EE070A14F005
:1031600061FA30EE480A9FED477AC0EE077AB7EE73
:10317000007AF4EEC77AF1EE10FA11DDF7EE007A7C
:10318000B7EE007AF4EEC77AF1EE10FA01DBF7EE53
:10319000007A04F5A064C4ED007ABDEC028B10BD8A
:1031A000B0EEC88A9FED387AB4EEC78AF1EE10FA15
:1031B00059DD04F5986393ED006A36EE686A04F20F
:1031C000FC4393ED007A04F59E62D2ED006A66EE50
:1031D000866A37EE267A83ED007AFEEE006AB4EE58
:1031E000E67AF1EE10FA03D8C3ED006A00231AE084
:1031F000F1EE0C6AB4EEE67AF1EE10FAF6DB04F2C8
:10320000FC43C3ED006AF1E7F3EE066AB4EEE67A3A
:10321000F1EE10FA05DB03F59B7104EB8101C1EDC2
:10322000016A0133DBB2032B1DD803F59B7204EB5B
:10323000820292ED017A04F2F440D0ED006A66EE6B
:10324000866A37EE267A82ED017AF0EE086AB4EEED
:10325000E67AF1EE10FAD7D803F59B7204EB8202FE
:10326000C2ED016ADDE7F5EEC07AF1EE10FA87D81B
:10327000DFED067A8DE700BFBD378635BD37863670
:103280000000A042BD370636DC24342800000000D0
:1032900000F21C5090ED000ADFED027A80EE270A62
:1032A000704700BF0000B44310B5044602F012FAA4
:1032B00002F07CFA04F21C5383ED000A9FED020A2F
:1032C0002046FFF7B4FD10BD00000000012380F888
:1032D0009633704738B505460AF00CFB2846FFF7D1
:1032E000E3FF0023C5F8E833C5F8EC33C5F8F03345
:1032F0002C4605F5647509E00023A4F850302046FB
:1033000001F024FF204601F037FFE434AC42F3D152
:103310000AF012FB38BD002380F896337047000096
:1033200010B52DED028B04469FED0D8AB0EE480AD4
:1033300001F050FFB0EE480A04F1E40001F04AFF4A
:10334000B0EE480A04F5E47001F044FFB0EE480A1C
:1033500004F52B7001F03EFFBDEC028B10BD00BFE9
:103360000000000038B52DED028B05460AF0C2FAC8
:103370002846FFF799FF9FED128AB0EE480A2846CB
:10338000FFF7FDFCB0EE480A2846FFF70EFD284681
:10339000FFF7C6FF2C4605F5647509E00023A4F885
:1033A0005030204601F0D2FE204601F0E5FEE43424
:1033B000AC42F3D10AF0C0FABDEC028B38BD00BFBD
:1033C0000000000070B50546044600F5647603E091
:1033D000204601F039FFE434B442F9D12846FFF722
:1033E000C1FF2846FFF776FF002385F8963370BDAE
:1033F00010B504461A4B93F8233173B390F8963303
:1034000083B1174BD3F8A421C4F8E823D3F8A8312B
:10341000C4F8EC33D4F820350133C4F82035C82B78
:1034200006D810BDFFF79EFF2046FFF74FFFE8E7E5
:103430000B4B002283F823210021C3F8A411C3F809
:10344000A811C4F820252046FFF744FF2046FFF7C7
:1034500089FF2046FFF75FFFE3E7FFF761FFE0E743
:103460005011002008B5FFF767FB08BD38B50446CA
:1034700001F040FD164D0122294604F5827002F04C
:10348000D3FD0222294604F59C7002F0CDFD0023F5
:1034900084F8E430012384F8E53084F8E63084F8D9
:1034A000E73084F8E8300B4BC4F8EC300023C4F864
:1034B000F030C4F8F430084BC4F8FC304FF4B97362
:1034C000A4F8F8304FF46B73A4F80031204638BDEF
:1034D00054270020000082C30000F04108B50248D4
:1034E000FFF7C4FF08BD00BF6418002010B52DED24
:1034F000028B82B0174B1B68019301230093DFED11
:10350000160A9FED160A164B0222072101F0F6FC5F
:103510009FED148A144CB7EE002AF0EE481AB0EE74
:10352000421AF0EE480AB1EE000A20461BF0ACFD4C
:103530009FED0E2AF0EE481A9FED0D1AF0EE480AA4
:103540009FED0C0A04F138001BF09EFD02B0BDECAB
:10355000028B10BDA8210020295C8F3D0000E144B2
:103560006421002000000000D81800209A99193F1B
:1035700066662640CDCC4C3E90F833007047000084
:1035800010B504460F21064B186809F0B9FF18B1B1
:10359000012084F8300010BD84F83000FBE700BF44
:1035A000A821002010B5044601F0EBFD18B100235E
:1035B00084F8E43010BD012384F8E430FAE790F891
:1035C000E400704790F8E500704790F8E600704717
:1035D00008B501F039FE08BD10B50446D0ED3B7AC0
:1035E0009FED237AF4EEC77AF1EE10FA24D884ED39
:1035F0003B7A94ED3B7ADFED1F7A37EE277ADFEDE9
:103600001E6AC7EE267A9FED1D7A67EE877A9FEDD8
:103610001C7A77EE877AC4ED3C7AF4EEC77AF1EE45
:1036200010FA13D99FED157AF4EEC77AF1EE10FA7D
:103630000EDB84ED3C7A0BE09FED127AF4EEC77A54
:10364000F1EE10FAD5DB84ED3B7AD2E784ED3C7ADB
:1036500094ED3C0A204601F049FE204601F018FE98
:10366000094C204601F072FD204601F085FD10BD99
:10367000000082C3000082430000EB4300808A43C5
:10368000000000000000524364180020054B1B7925
:103690001BB1012380F8E5307047002380F8E53046
:1036A000704700BF7C1C002010B5044690ED3F7AA7
:1036B000DFED167A27EE277ADFED157A77EEC77AF7
:1036C000FDEEE77A17EE903A1BB2A0F80031114AEE
:1036D000B2F90020D31A00EE103AB8EEC00A0CF08E
:1036E000D1FBDFED0D7AB4EEE70AF1EE10FA00DC63
:1036F00010BDB4F9001189B204F5827002F0B2FC79
:10370000B4F90021034B1A80F2E700BF7B096D403A
:1037100000006B44621800200AD7A33B10B5044692
:1037200090ED3D7ADFED167A27EE277ADFED157AF8
:1037300077EEC77AFDEEE77A17EE903A1BB2A0F863
:10374000F830114AB2F90020D31A00EE103AB8EE60
:10375000C00A0CF097FBDFED0D7AB4EEE70AF1EE4C
:1037600010FA00DC10BDB4F9F81089B204F59C70B1
:1037700002F078FCB4F9F820034B1A80F2E700BF9E
:103780007B096D400000B943601800200AD7A33BB5
:10379000D0ED3F7A37EE800A80ED3F0AB5EEC00AE1
:1037A000F1EE10FA09D9DFED077AB4EEE70AF1EE8F
:1037B00010FA01DBC0ED3F7A70470023C0F8FC30FF
:1037C000704700BF00002042D0ED3D7A37EE800AFE
:1037D00080ED3D0ADFED097AB4EEE70AF1EE10FA6A
:1037E00002D8C0ED3D7A7047DFED057AB4EEE70A06
:1037F000F1EE10FA01DBC0ED3D7A7047000020C207
:1038000000007042D0ED3B7A37EE800A80ED3B0A33
:10381000DFED097AB4EEE70AF1EE10FA02D8C0ED56
:103820003B7A7047DFED057AB4EEE70AF1EE10FA65
:1038300001DBC0ED3B7A7047000082C300005243B9
:1038400008B5FFF74BFE08BD91F9003007EE903A3E
:10385000F8EEE77AC0ED107A91F9013007EE903A70
:10386000F8EEE77AC0ED117A8B78CA7802F003029D
:1038700043EA022307EE903AF8EE677AC0ED127A37
:10388000CA780B7903F003039B0143EA920307EE26
:10389000903AF8EE677AC0ED147A0A794B7903F022
:1038A0000F039B0143EA920307EE903AF8EE677A22
:1038B000C0ED137ACB79C3F3401380F85430CB7941
:1038C000C3F3801380F85530CB79DB0980F856308C
:1038D00070470022027080F82E20704708B5024819
:1038E000FFF7F7FF08BD00BFD819002070B582B000
:1038F0000C4615461A46061D0823009300F12403C2
:103900003046FDF70DFD069B0093044B2A462146E9
:103910003046FDF74BFD02B070BD00BF49380008CE
:10392000044B1B7913B1012303707047002303700C
:10393000704700BF7C1C00200078704710B504461B
:103940000F21054B186809F0DBFD10B901236370E6
:1039500010BD00236370FBE79821002008B5FFF736
:10396000BDFF08BD08B5384B5B79012B2ED0022B6B
:1039700058D102F0A7FA80B1344B93F8643003F0C9
:103980003002302A09D013F0200F06D113F0100FA7
:1039900051D002212E48FEF70FF902F0BFFA80B194
:1039A0002A4B93F8643003F03002302A09D013F028
:1039B000200F06D113F0100F41D002212448FEF74A
:1039C00004F902F095FA02F0BFFA2BE002F07AFA5D
:1039D00080B11E4B93F8643003F03002302A09D0D6
:1039E00013F0200F06D113F0100F1CD0022118483D
:1039F000FEF7E2F802F092FA80B1144B93F86430CB
:103A000003F03002302A09D013F0200F06D113F052
:103A1000100F0CD002210E48FEF7D7F802F068FA1A
:103A200002F092FA08BD084801F05AFAE2E70648A7
:103A300001F059FAF2E7044801F052FAADE7024802
:103A400001F051FABDE700BFB81A00207C1C00202D
:103A5000C810002010B5022002F0A4FAA8B1234833
:103A6000FEF72CFF224C2046FFF734FC2046FFF7E0
:103A700079FC0023C4F82035202002F093FAC0B16D
:103A800001211C48FEF798F810BD012002F08AFAC7
:103A900030B11648FEF712FF1548FFF763FCEBE75D
:103AA000042002F07FFA0028E6D1082002F07AFA1A
:103AB000E2E7102002F076FA20B101210D48FEF76E
:103AC00084F8E1E7802002F06DFA20B10021094876
:103AD000FEF77BF8D8E7402002F064FA0028D3D044
:103AE00000210448FEF768F8CEE700BF501100201F
:103AF0003C130020C8100020014B5B79012B70475C
:103B0000B81A0020014B5B79012B7047B81A0020CE
:103B1000014B5B79012B7047B81A0020014B5B7990
:103B2000012B7047B81A00207047704708B5104B3A
:103B30005B79012B02D0022B0DD008BD0128FCD1EE
:103B40000C4B93F8643003F03003302BF5D10A4866
:103B5000FEF755F8F1E70128EFD1064B93F86430F2
:103B600003F03003302BE8D1044800F04BFFE4E7CA
:103B7000B81A00207C1C0020C8100020341A002035
:103B8000014B5B79012B7047B81A0020014B5B7920
:103B9000012B7047B81A0020014B5B79012B70474D
:103BA000B81A0020014B5B79012B7047B81A00202E
:103BB000014B5B79012B7047B81A0020014B5B79F0
:103BC000012B7047B81A0020014B5B79012B70471D
:103BD000B81A0020014B5B79012B7047B81A0020FE
:103BE000014B5B79012B7047B81A002038B5BD4BEB
:103BF0005B79012B03D0022B00F0AC8038BDBA4BAF
:103C000093F86230BBB1B84B93F8643003F03002E4
:103C1000302A09D013F0200FF0D0B7EE000A0221AD
:103C2000B248FEF791FDE9E7B0EE000A0221AF4885
:103C3000FEF78AFDE2E7AC4B93F86330BBB1AA4BC9
:103C400093F8643003F03002302A09D013F0200FCB
:103C5000D4D0BFEE000A0221A448FEF775FDCDE7DF
:103C6000B8EE000A0221A148FEF76EFDC6E79E4BA2
:103C700093F8643003F03002302A1FD013F0200F85
:103C800043D113F0100FB9D1974CD4F85A3000EE4D
:103C9000103ADFED977A20EE270A9648FFF778FD75
:103CA00094F86C30002BA9D0D4F8563000EE103ABE
:103CB000B1EE400A8B4801F089F89FE78A4DD5F8AC
:103CC000563000EE103A894CF9EE007A20EE270AC1
:103CD00003212046FEF738FDD5F85A3000EE103AA1
:103CE000F1EE007A20EE270A04212046FEF72CFD93
:103CF000D5F85E3000EE103AF3EE007A20EE270A97
:103D000005212046FEF720FD78E7774DD5F856309F
:103D100000EE103A754CF8EE007A20EE270A0321E7
:103D20002046FEF711FDD5F85A3000EE103A30EE7D
:103D3000000A04212046FEF707FDD5F85E3000EEAC
:103D4000103AF1EE047A20EE270A05212046FEF70C
:103D5000FBFC53E7644B93F86230C3B1624B93F8BA
:103D6000643003F03002302A0AD013F0200F3FF401
:103D700045AFB7EE000A02215C48FEF7E5FC3DE7DF
:103D8000B0EE000A02215948FEF7DEFC36E7564B3A
:103D900093F86330C3B1544B93F8643003F03002AE
:103DA000302A0AD013F0200F3FF428AFBFEE000AEC
:103DB00002214E48FEF7C8FC20E7B8EE000A0221B7
:103DC0004A48FEF7C1FC19E7474B93F8643003F00B
:103DD0003002302A1ED013F0200F42D113F0100F02
:103DE00064D0414DD5F85A3000EE103A414CDFED29
:103DF000427A20EE270A2046FFF7CAFCD5F8563053
:103E000000EE103ADFED3D7A20EE270A2046FFF75C
:103E1000DBFCF3E6344DD5F8563000EE103A334C67
:103E2000F9EE007A20EE270A03212046FEF78CFCEB
:103E3000D5F85A3000EE103AF1EE007A20EE270A5B
:103E400004212046FEF780FCD5F85E3000EE103AE3
:103E5000F3EE007A20EE270A05212046FEF774FCD7
:103E6000CCE6214DD5F8563000EE103A1F4CF8EE56
:103E7000007A20EE270A03212046FEF765FCD5F8DC
:103E80005A3000EE103A30EE000A04212046FEF7C8
:103E90005BFCD5F85E3000EE103AF1EE047A20EECD
:103EA000270A05212046FEF74FFCA7E60E4CD4F862
:103EB0005A3000EE103ADFED0E7A20EE270A0D4858
:103EC000FFF766FC94F86C30002B3FF497AED4F803
:103ED000563000EE103AB1EE400A024800F076FF8C
:103EE0008CE600BFB81A00207C1C00205011002076
:103EF000EC51B83E64180020EC51383FEC5138BF0B
:103F000038B52DED028B012002F034F890B35A4BF6
:103F1000002283F82321594B93F86C30A3B9584BF6
:103F200093F89633012B21D0544BD3ED110A93ED26
:103F3000131ADFED547A21EE671AF1EE600A93ED61
:103F4000120A514800F076FF042002F013F800280E
:103F50007DD0012002F044F8002800F08280022188
:103F60004A48FDF729FEBDEC028B38BD444B83F86F
:103F70009623D9E7032001F0FDFF80B39FED448A2B
:103F80003F4CB0EE480A2046FEF7F9FEB0EE480A74
:103F90002046FEF70AFF394B93F86C30002BD3D143
:103FA000364D354C95ED120A00212046FEF7CCFB2C
:103FB00095ED110AB1EE400A01212046FEF7C4FB3F
:103FC00095ED140A02212046FEF7BEFB95ED130A7B
:103FD000B1EE400A06212046FEF7B6FBB4E7022008
:103FE00001F0C8FF0028AFD09FED298A244CB0EE25
:103FF000480A2046FEF7C3FEB0EE480A2046FEF708
:10400000D4FE1E4B93F86C30002B9DD11B4D95EDCB
:10401000140A194CB1EE400A07212046FEF794FB22
:1040200095ED120AB1EE400A04212046FEF78CFB02
:1040300095ED130A05212046FEF786FB95ED110A42
:10404000B1EE400A03212046FEF77EFB7CE7062006
:1040500001F090FF00287FF47CAF052001F08AFF7B
:1040600077E7022001F0BCFF00283FF47CAF02217B
:104070000648FDF7AAFD76E7501100207C1C0020C1
:104080003C1300203333333FB81A0020C8100020FF
:104090000000000008B5564B5B79012B02D0022BC3
:1040A0005DD008BD012818D00028FAD1514B93F8F3
:1040B000643003F03002302AF3D013F0200FF0D137
:1040C00013F0100F36D0012001F072FE60B39FEDA7
:1040D0004A0A474800F062FEE3E7464B93F8643033
:1040E00003F03002302A0BD013F0200F0FD113F061
:1040F000100F13D09FED410A3D4800F04FFED0E76E
:10410000B0EE000A00213E48FEF71EFBC9E7B7EEFD
:10411000000A00213A48FEF717FBC2E79FED390A73
:10412000334800F03BFEBCE79FED370A304800F013
:1041300035FEB6E7012001F03BFE50B92D4B93F858
:104140006C30002BADD09FED300A294800F026FEE0
:10415000A7E79FED2E0A264800F020FEA1E70128E0
:104160001DD000289DD1234B93F8643003F030021A
:10417000302A96D013F0200F93D113F0100F90D166
:10418000012001F083FE60BB1A4B93F86C30002BCA
:1041900087D09FED1D0A164800F000FE81E7154B01
:1041A00093F8643003F03002302A0CD013F0200F63
:1041B00010D113F0100F7FF474AF9FED150A0C4867
:1041C00000F0ECFD6DE7B0EE000A00210C48FEF7B0
:1041D000BBFA66E7B7EE000A00210948FEF7B4FA19
:1041E0005FE79FED0C0A024800F0D8FD59E700BFD9
:1041F000B81A00207C1C0020333333BF3333333FE5
:10420000501100209A99993E000000009A9999BE99
:10421000CDCC4C3DCDCC4CBD08B5554B5B79012B7D
:1042200002D0022B5CD008BD012817D00028FAD19B
:10423000504B93F8643003F03002302AF3D013F07F
:10424000200FF0D113F0100F35D001F0B1FD60B3A5
:104250009FED490A464800F0A1FDE4E7454B93F87D
:10426000643003F03002302A0BD013F0200F0FD14E
:1042700013F0100F13D09FED410A3D4800F08EFD62
:10428000D1E7B8EE000A00213D48FEF75DFACAE723
:10429000BFEE000A00213A48FEF756FAC3E79FED49
:1042A000390A334800F07AFDBDE79FED370A304800
:1042B00000F074FDB7E7002001F07AFD50B92D4BF6
:1042C00093F86C30002BAED09FED2F0A284800F0F9
:1042D00065FDA8E79FED2D0A254800F05FFDA2E7E8
:1042E00001281CD000289ED1224B93F8643003F0A3
:1042F0003002302A97D013F0200F94D113F0100F12
:1043000091D101F0C3FD60BB1A4B93F86C30002BC8
:1043100089D09FED1D0A164800F040FD83E7154B3C
:1043200093F8643003F03002302A0CD013F0200FE1
:1043300010D113F0100F7FF476AF9FED150A0C48E3
:1043400000F02CFD6FE7B8EE000A00210C48FEF7E4
:10435000FBF968E7BFEE000A00210948FEF7F4F90F
:1043600061E79FED0C0A024800F018FD5BE700BF13
:10437000B81A00207C1C00203333333F333333BF63
:10438000501100209A9999BE000000009A99993E18
:10439000CDCC4CBDCDCC4C3D08B5584B5B79012BF9
:1043A00002D0022B5DD008BD012818D00028FAD118
:1043B000534B93F8643003F03002302AF3D013F0FB
:1043C000200FF0D113F0100F36D0032001F0F0FCD5
:1043D00060B39FED4C0A494800F0ECFCE3E7484B22
:1043E00093F8643003F03002302A0BD013F0200F22
:1043F0000FD113F0100F13D09FED430A3F4800F088
:10440000D9FCD0E7B0EE000A01214048FEF79CF944
:10441000C9E7B7EE000A01213C48FEF795F9C2E76B
:104420009FED3B0A354800F0C5FCBCE79FED390A1B
:10443000324800F0BFFCB6E7032001F0B9FC50B9E8
:104440002F4B93F86C30002BADD09FED320A2B48E8
:1044500000F0B0FCA7E79FED300A284800F0AAFC66
:10446000A1E701281DD000289DD1254B93F8643089
:1044700003F03002302A96D013F0200F93D113F0BE
:10448000100F90D1032001F001FD88BB1C4B93F865
:104490006C30002B87D09FED1F0A184800F07EFC7F
:1044A00081E7174B93F8643003F03002302A0BD0C9
:1044B00013F0200F0FD113F0100F13D0B5EE000A38
:1044C0001648FFF79FF96EE7B0EE000A01210F488A
:1044D000FEF73AF967E7B7EE000A01210B48FEF74D
:1044E00033F960E79FED0E0A044800F063FC5AE7D9
:1044F0009FED0C0A014800F05DFC54E7B81A00205B
:104500007C1C0020333333BF3333333F5011002042
:104510009A99993E000000009A9999BE641800206B
:10452000CDCC4C3DCDCC4CBD08B5584B5B79012B67
:1045300002D0022B5DD008BD012818D00028FAD186
:10454000534B93F8643003F03002302AF3D013F069
:10455000200FF0D113F0100F36D0022001F028FC0C
:1045600060B39FED4C0A494800F024FCE3E7484B58
:1045700093F8643003F03002302A0BD013F0200F90
:104580000FD113F0100F13D09FED430A3F4800F0F6
:1045900011FCD0E7B8EE000A01214048FEF7D4F83C
:1045A000C9E7BFEE000A01213C48FEF7CDF8C2E79B
:1045B0009FED3B0A354800F0FDFBBCE79FED390A53
:1045C000324800F0F7FBB6E7022001F0F1FB50B9EA
:1045D0002F4B93F86C30002BADD09FED320A2B4857
:1045E00000F0E8FBA7E79FED300A284800F0E2FB67
:1045F000A1E701281DD000289DD1254B93F86430F8
:1046000003F03002302A96D013F0200F93D113F02C
:10461000100F90D1022001F039FC88BB1C4B93F89D
:104620006C30002B87D09FED1F0A184800F0B6FBB6
:1046300081E7174B93F8643003F03002302A0BD037
:1046400013F0200F0FD113F0100F13D0BDEE000A9E
:104650001648FFF7D7F86EE7B8EE000A01210F48B9
:10466000FEF772F867E7BFEE000A01210B48FEF77C
:104670006BF860E79FED0E0A044800F09BFB5AE7D9
:104680009FED0C0A014800F095FB54E7B81A002092
:104690007C1C00203333333F333333BF50110020B1
:1046A0009A9999BE000000009A99993E64180020DA
:1046B000CDCC4CBDCDCC4C3D7047704708B5164BAA
:1046C0005B79012B02D0022B13D008BD0128FCD14D
:1046D000124B93F8643003F03002302AF5D013F017
:1046E000200FF2D0B7EE000A06210D48FEF72CF895
:1046F000EBE70128E9D1094B93F8643003F030026D
:10470000302AE2D013F0200FDFD0B7EE000A0621E6
:104710000348FEF719F8D8E7B81A00207C1C0020DF
:104720005011002008B5164B5B79012B02D0022BEB
:1047300013D008BD0128FCD1124B93F8643003F06C
:104740003002302AF5D013F0200FF2D0BFEE000A6D
:1047500006210D48FDF7F8FFEBE70128E9D1094BE9
:1047600093F8643003F03002302AE2D013F0200FC7
:10477000DFD0BFEE000A06210348FDF7E5FFD8E7CA
:10478000B81A00207C1C002050110020014B5B79DE
:10479000012B7047B81A002008B5274B5B79012B15
:1047A00002D0022B24D008BD0128FCD1234B93F862
:1047B000643003F03002302A0CD013F0200F10D1F7
:1047C00013F0100FEFD09FED1E0A00211A4800F0E1
:1047D00049FBE8E79FED1A0A0221174800F042FB67
:1047E000E1E79FED170A0121134800F03BFBDAE7F0
:1047F0000128D8D1114B93F8643003F03002302AED
:104800000CD013F0200F10D113F0100FCBD09FED70
:104810000C0A0021084800F025FBC4E79FED080AB8
:104820000221054800F01EFBBDE79FED050A0121AE
:10483000014800F017FBB6E7B81A00207C1C0020E6
:10484000CDCC4C3E08B5274B5B79012B02D0022B17
:1048500024D008BD0128FCD1234B93F8643003F029
:104860003002302A0CD013F0200F10D113F0100FAB
:10487000EFD09FED1E0A00211A4800F0F3FAE8E796
:104880009FED1A0A0221174800F0ECFAE1E79FEDCC
:10489000170A0121134800F0E5FADAE70128D8D118
:1048A000114B93F8643003F03002302A0CD013F02F
:1048B000200F10D113F0100FCBD09FED0C0A002168
:1048C000084800F0CFFAC4E79FED080A0221054826
:1048D00000F0C8FABDE79FED050A0121014800F08C
:1048E000C1FAB6E7B81A00207C1C0020CDCC4CBE23
:1048F000014B5B79012B7047B81A0020014B5B79A3
:10490000012B7047B81A0020014B5B79012B7047CF
:10491000B81A0020014B5B79012B7047B81A0020B0
:10492000014B5B79012B7047B81A002030B5054662
:10493000164C8446A646BEE80F00ACE80F00BEE861
:104940000F00ACE80F00BEE80F00ACE80F009EE8D7
:104950000F008CE80F0005F1400E04F1400CBCE89C
:104960000F00AEE80F00BCE80F00AEE80F00BCE897
:104970000F00AEE80F009CE80F008EE80F00002348
:1049800085F8803085F88130284630BDD8F00108A0
:1049900008B50248FFF7CAFF08BD00BF341A00205F
:1049A00038B50546002407E004F1100355F823301C
:1049B000002098470134E4B20F2C0BD8204601F0B8
:1049C000F7F90028F0D004F1100355F82330012046
:1049D0009847EFE738BD38B50546002405E055F89F
:1049E0002430002098470134E4B20F2C09D8204627
:1049F00001F04CFA0028F2D055F8243001209847F5
:104A0000F1E738BD012380F88130704708B5FFF722
:104A1000BFFF08BD80ED000AC0ED010A0122C2758A
:104A2000027500228275027642757047007D7047DC
:104A300010B52DED028B0446C37D002B40D0B0EEA7
:104A4000408AFFF7F3FF00283AD184ED028ADFEDB8
:104A5000247AB4EEE78AF1EE10FA1EDDD4ED007A86
:104A6000F4EEC87AF1EE10FA17DDA37D8BB1A37DC9
:104A700033B303F0A7F9E36803F5FA7383421FD257
:104A800003F0A0F923696433834219D2012323760A
:104A900016E003F097F9E060E9E7D4ED017AF4EE6F
:104AA000C87AF1EE10FA06D4DFED0D7AB4EEE78A9B
:104AB000F1EE10FA04D503F085F920610023237686
:104AC000237E23B102236375BDEC028B10BDA37D51
:104AD00013B101236375F7E700236375F4E700BFA3
:104AE00000007A4401230375704700230375704763
:104AF000007E7047012383757047002383757047DC
:104B0000C37D0BB10023C375012303767047816712
:104B1000002380F87430012280F8752080F8763008
:104B2000D0ED167A90ED147AF4EEC77AF1EE10FA21
:104B300002D880ED167A704790ED157AF4EEC77AB8
:104B4000F1EE10FA01DB80ED167A704710B50446DD
:104B500090ED170A806F00F0B0FBA06F00F0F6FA3E
:104B6000A06F00F009FBA06F00F05CFAA06F90F856
:104B7000323003B910BD94ED180AD4ED1A7A30EE34
:104B8000270A00F027FB9FED070AA06F00F095FBB6
:104B9000A06F00F0DBFAA06F00F0EEFA012384F8BA
:104BA0007630E7E70000000010B5044690ED187A73
:104BB00090ED166AD0ED147A36EE676AD0ED156A7C
:104BC00076EEE76AC6EE267AD0ED196A36EEC76A47
:104BD00067EE867A77EE277AC0ED1C7AB4EEE77A34
:104BE000F1EE10FA0DDB80ED1C7A94ED1C0AA06F3B
:104BF00000F07CFBA06F00F0A9FAA06F00F0BCFAF7
:104C000010BDF4EEE76AF1EE10FAEED8C0ED1C6AC2
:104C1000EBE710B50446806F00F084FAD4ED1C7AFF
:104C200030EE670A0BF02EF9D4ED1B7AF4EEC07A61
:104C3000F1EE10FA01DC002010BD0120FCE790F835
:104C40007530002B63D010B588B0044690F87430EE
:104C5000032B1DD8DFE803F0021E2B360DF1080CE4
:104C60008646BEE80F00ACE80F00DEF80030CCF856
:104C7000003004F1200393E803008DE8030004F101
:104C800014030ECBA06F00F07FFA012384F8743078
:104C900008B010BD90F8763033B1022380F874303C
:104CA000002380F87630F3E7FFF750FFF0E7FFF7D7
:104CB0007BFF2046FFF7ADFF0028E9D0032384F8EF
:104CC0007430E5E7FFF7A5FFE8B1002384F87430FE
:104CD00084F875300DF1080C04F1280EBEE80F00C1
:104CE000ACE80F00DEF80030CCF8003004F14803E7
:104CF00093E803008DE8030004F13C030ECBA06FA2
:104D000000F042FAC4E72046FFF74EFFC0E77047C5
:104D1000F8B5044624273A460021183016F074F9F5
:104D2000164BA3614FF40076E662202525633A46D0
:104D3000002104F13C0016F067F9114BE36326658E
:104D400065653A46002104F1600016F05DF90D4BEF
:104D500023666667A5673A46002104F1840016F0D1
:104D600053F9094BC4F88430C4F89860C4F89C50D7
:104D70000123237063712046F8BD00BF58F101087C
:104D800068F1010878F1010888F1010808B50248C6
:104D9000FFF7BEFF08BD00BFB81A002008B50448E1
:104DA000D0EDF77A27EE800AFDF7E9FF08BD00BFD6
:104DB0003C13002008B50448D0EDF77A27EE800AAE
:104DC000FDF7F3FF08BD00BF3C13002010B52DED2B
:104DD000028B164B93F8EA30EBB1154C04F21C53DE
:104DE000D3ED007A77EE807AC3ED007A2046FEF7A5
:104DF0004FFAB0EE408A00F0D9FCF0EE400AB0EE77
:104E0000480A04F59160FCF759FC2046FEF70FF8BC
:104E1000BDEC028B10BD0648D0EDF77A27EE800A74
:104E2000FEF705F800F056FCF2E700BF901B0020EB
:104E30003C13002010B52DED028B0446F0EE608A85
:104E4000B0EE418AFFF7AAFFB0EE680A2046FFF7EE
:104E5000B1FFB0EE480A2046FFF7B8FFBDEC028B69
:104E600010BD000038B52DED048B0D46B0EE408A24
:104E7000174CD4ED277ADFED179A87EEA90A9FED3C
:104E8000169A20EE090A0BF007F8F1EE047A60EEAC
:104E9000278A78EEA78AD4ED277A87EEA90A20EE32
:104EA000090A0BF045F8F3EE067A20EE270A38EEF1
:104EB000088A9FED0A1AF0EE080AC8EE200A38EEBA
:104EC000800A29462046FDF767FDBDEC048B38BDFE
:104ED0005011002000003443DB0F49409A99993E5D
:104EE00001234370704701238370704708B5FFF7B3
:104EF0004DFF08BD002280F83220704710B582B007
:104F0000044608464FF0010C84F830C04FF0000C06
:104F100084F831C084F833C09DF810C084F800C014
:104F200084ED0D0AC4ED0E0A01F1FF3CBCF1070F40
:104F300037D81946606084F83C2002F1FF3C5FFAE4
:104F40008CFCBCF1010F16D9032A28D12D4B9942B4
:104F500040D004284ED82C4BC4F81D3040F2FF132B
:104F6000A361059B0093294B00F5017204F1100029
:104F7000FCF71CFA13E0234B994214D0042822D8E2
:104F8000234BC4F81D304FF40073A361059B0093BD
:104F90001E4B00F5007204F11000FCF707FA08231D
:104FA000237702B010BD042806D81A4BC4F81D3070
:104FB0004FF40073A361E9E7174BC4F81D3040F2CA
:104FC000FF13A361E2E7104BC4F81D3040F2FF135A
:104FD000A361DBE7042806D80F4BC4F81D3040F26C
:104FE000FF13A361BDE70D4BC4F81D3040F2FF2352
:104FF000A361B6E70A4BC4F81D3040F2FF23A3615A
:10500000AFE700BF64210020681B00208F5000081C
:10501000701B0020881B0020801B0020781B0020B4
:10502000601B002010B52DED028B044690ED0D0A9B
:105030000AF028FFB0EE408A94ED1C0A0AF022FF25
:10504000B4EEC08AF1EE10FA0AD40023E360E368FC
:10505000142B18D9012384F83230BDEC028B10BD1B
:1050600094ED0E0A0AF00EFFB0EE408A94ED150A98
:105070000AF008FFB4EEC08AF1EE10FAE5DDE3684D
:105080000133E360E3E7002384F83230E5E710B54D
:10509000A0F1100420461AF017F82046FFF7C2FFCF
:1050A00010BD0000FFEE007AB4EEE70AF1EE10FA50
:1050B00009D9F7EE007AB4EEE70AF1EE10FA04DB54
:1050C000B7EE000A01E0BFEE000A03780BB1B1EEC3
:1050D000400A90F83C30022B0AD0032B13D0012B4E
:1050E0001BD1BEEEC90A10EE103AA0F8503070473E
:1050F000DFED0A7A20EE270ABDEEC00A10EE103A64
:10510000A0F850307047DFED067A20EE270ABDEE9A
:10511000C00A10EE103AA0F85030704700401C460C
:105120000060EA46037813B990ED1B0A704790EDD2
:105130001B0AB1EE400A7047037813B990ED150AC7
:10514000704790ED150AB1EE400A70474268D3B23D
:10515000042A01D9043BDBB2013BDBB25B00DBB2CA
:1051600090F95110D0F81D20D154B0F95010D0F85A
:105170001D200133D154704708B51030FCF7D8F822
:1051800008BD90F83000704784B010B5044603A8FD
:1051900080E80E009DED082ADDED091A9DED0C1A40
:1051A000DDED0B0A9DED0A0A04F1AC0019F06CFF6D
:1051B0009DED032ADDED041A9DED071ADDED060ACB
:1051C0009DED050A04F1740019F05EFFBDE8104082
:1051D00004B07047FDEEC07AB8EEE77A30EE470AC9
:1051E000037853B117EE903AA0F86830D0ED177AF3
:1051F00077EEC07AC0ED197A704717EE903A5B42AD
:10520000A0F86830D0ED177A77EE807AC0ED197A81
:105210007047000010B504460F21806A08F070F94D
:1052200058B994F830305BB19FED060A2046FFF77D
:10523000D1FF002384F8303002E0012384F83030BD
:1052400010BD00BF0000000010B5044600238360BD
:1052500080F83330A0F85030FFF778FF2046FFF792
:105260008BFF10BD10B52DED028B044690ED138A17
:10527000FFF762FFF0EE400AB0EE480A04F1740056
:10528000FCF71CFA2046FFF70DFFBDEC028B10BDAA
:1052900010B52DED028B044690ED128AFFF742FF08
:1052A000F0EE400AB0EE480A04F1AC00FCF706FA52
:1052B00084ED130ABDEC028B10BD08B580ED130A16
:1052C000FFEE007AB4EEE70AF1EE10FA09D9F7EE34
:1052D000007AB4EEE70AF1EE10FA04DBC0ED137ABF
:1052E00001E0C0ED137AFFF7BDFF08BD10B504461D
:1052F00080ED120AFFF7CCFF2046FFF7B3FF10BD89
:105300000088704710B5084C20601C220749FCF744
:10531000F7F8012384F8EB3084F8E830002384F8B0
:10532000EA3084F8E93010BD901B002030000208FC
:10533000634B93ED276A83ED286A93ED215A83ED41
:10534000225AD3ED1B5AC3ED1C5AB3F9262007EE9F
:10535000902AF8EEE77AB2EE047AC7EE876AC3EDD8
:10536000276AB3F9222007EE102AB8EEC77A9FED1C
:10537000554AC7EE047AC3ED1B7AB3F9242004EE34
:10538000902AF8EEE44A84EE847A83ED217A36EEB0
:10539000C66ADFED4D4AB4EEE46AF1EE10FA67D565
:1053A0001A46D3F8A8300133C2F8A830444B93ED25
:1053B0002A6AB8EEC66ADFED454A26EE246A36EE62
:1053C000066A76EE866A93ED2C6A76EEC66A9FEDE3
:1053D000406A66EE866AC3ED2B6A37EE455ADFED0A
:1053E0003A6AB4EEE65AF1EE10FA4FD51A46D3F8FF
:1053F00090300133C2F89030314BD3ED246AF8EE8F
:10540000E66A9FED326A66EE866A76EEA66A37EE47
:10541000267AD3ED266A37EE667ADFED2D6A27EE1F
:10542000267A83ED257A77EEE55A9FED2A7AF4EE17
:10543000C75AF1EE10FA37D51A469B6F01339367BE
:105440001F4B93ED1E7AB8EEC77ADFED236A27EE85
:10545000267A37EE077A77EE877A93ED207A77EE21
:10546000C77A9FED1B7A67EE877AC3ED1F7A704784
:10547000DFED164AB4EEE46AF1EE10FA96DD104A5A
:10548000D2F8A830013BC2F8A8308FE7DFED0F6AF1
:10549000B4EEE65AF1EE10FAAEDD094AD2F89030D9
:1054A000013BC2F89030A7E79FED0B7AF4EEC75AA4
:1054B000F1EE10FAC4DD024A936F013B9367BFE738
:1054C000901B00200000C842000034C30000344399
:1054D000610B363B0000B4C20000B44210B5784CFA
:1054E000D4F8DC30C4F8E0300AF0B2FC84ED370ABE
:1054F000D4ED387A30EE670ADFED727A20EE270AB3
:1055000084ED390A08F0F6F994F8E93033B9D4F8A3
:10551000D830322B02D90022C4F8D820684AD2F8F9
:10552000D8300133C2F8D830322B40F2C480134651
:10553000012283F8E92008F0FFF9614B93F8E93084
:10554000DBBB5F4B0022C3F8E420DA6E1A67B3F9C5
:10555000222007EE902AF8EEE77A9FED5B7A67EE5D
:10556000877AC3ED1B7AC3ED207A00229A67D3F8BD
:105570008410C3F88810B3F9241007EE901AF8EEDF
:10558000E77A67EE877AC3ED217AC3ED267AC3F80E
:105590009020D3F89C10C3F8A010B3F9261007EEA2
:1055A000901AF8EEE77A9FED497A67EE877AC3EDB5
:1055B000277AC3ED2C7AC3F8A820FFF7B9FE404B39
:1055C000B3F9142007EE902AF8EEE77A9FED3F7AC0
:1055D00067EE877AC3ED187AB3F9162007EE902AA2
:1055E000F8EEE77A67EE877AC3ED197AB3F91820F7
:1055F00007EE902AF8EEE77A67EE877AC3ED1A7A1B
:10560000B3F90D2006EE902AF8EEE66ADFED2D5A8A
:1056100066EEA56A9FED2E6A66EE866AC3ED2D6A78
:10562000B3F90F2007EE102AB8EEC77A27EE257AD5
:1056300027EE067A83ED2E7AB3F9112007EE902A31
:10564000F8EEE77A67EEA57A67EE867AC3ED2F7AF1
:10565000D3ED305A93ED396A66EE866A75EEA65A36
:10566000C3ED305AD3ED316A27EE067A36EE877AEB
:1056700083ED317AD3ED326A67EE867A76EEA77AD9
:10568000C3ED327AD3ED336A66EE255A76EEA56A1B
:10569000C3ED336AD3ED346A26EE077A36EE877AA5
:1056A00083ED347A93ED357A26EE276A77EE067A23
:1056B000C3ED357A10BD024B002283F8E9203AE7AA
:1056C000901B00206F12833A0AD7233CCDCCCC3DEF
:1056D0000AE81C41034B0022C3F8D82083F8E920D4
:1056E000704700BF901B0020084B93F8E83043B987
:1056F000064B93F8E93023B1044B012283F8EA20EA
:105700007047024B002283F8EA207047901B00206C
:1057100008B503495A2251F8040CFBF700FF08BDF5
:10572000941B002010B582B004460023ADF806306B
:10573000042201460DF10600FBF7FCFE6288A11D64
:105740000DF10600FBF7F6FE201DFFF7D9FDBDF8B1
:105750000630984202D1012002B010BD0020FBE7C4
:1057600008B5064B9A884AF25A539A4201D0002053
:1057700008BD0348FFF7D6FFFAE700BF901B0020E3
:10578000941B0020044B0022C3F8D82083F8E920A2
:10579000012283F8E8207047901B0020024B002272
:1057A00083F8E820704700BF901B0020014B93ED69
:1057B0002B0A7047901B002010B5002409E00C2232
:1057C0000549064B1868FBF7A3FE052007F019FEF4
:1057D0000134042CF3DD10BD50000208901B0020A2
:1057E0000170704701707047014B00225A71704779
:1057F0007C1C0020034B5B79C72B02D80133014A84
:10580000537170477C1C0020064B5B790A2B03D92F
:10581000044B00221A71704713B9024B01221A710E
:10582000704700BF7C1C0020034600284BD0017845
:105830004278120202F4E0621143234A5185407813
:105840009978490141EAD001C1F30A01918598781C
:1058500093F803C01979890241EA8C0109B241EA3F
:105860009011C1F30A01D18518795979C90141EA2A
:105870005001C1F30A011186597989095186597974
:10588000C1F3011191869979D87941EA0021D18635
:10589000197A587A41EA00211187997AD87A41EA2F
:1058A00000215187197B82F83C10597B82F83D100A
:1058B000997BD87B41EA0021D187197C5B7C41EA46
:1058C0000323A2F8403070477C1C002010B508F07C
:1058D00011F8B84C04F1700C04F1440EBEE80F004E
:1058E000ACE80F00BEE80F00ACE80F009EE8070030
:1058F0008CE80700638DA3F57B7292B2282A45D805
:105900004FF480626285AB4B9B8DA3F57B7292B2A4
:10591000282A44D8A74B4FF480629A85A54BDB8D8B
:10592000A3F57B7292B2282A42D8A24B4FF4806230
:10593000DA85A04B1B8EA3F57B7292B2282A40D841
:105940009C4B4FF480621A869A4B5A8D07EE902A30
:10595000F8EE677A9FED987A77EEC77ADFED976A6F
:1059600087EEA67A83ED137AFFEE007AB4EEE77A3B
:10597000F1EE10FA2ED9F7EE007AB4EEE77AF1EEF6
:1059800010FA29DB8B4BC3ED137A25E0A3F5B67330
:105990009BB2B3F5A56FB6D907F0CEFF08E1A3F52A
:1059A000B6739BB2B3F5A56FB8D907F0C5FFFFE09A
:1059B000A3F5B6739BB2B3F5A56FBAD907F0BCFFD8
:1059C000F6E0A3F5B6739BB2B3F5A56FBCD907F0AB
:1059D000B3FFEDE0C3ED137A764B9A8D07EE902A74
:1059E000F8EE677A9FED747A77EEC77ADFED736A27
:1059F00087EEA67A83ED147AFFEE007AB4EEE77AAA
:105A0000F1EE10FA0AD9F7EE007AB4EEE77AF1EE89
:105A100010FA05DB674BC3ED147A01E0C3ED147A8D
:105A2000644BDA8D07EE902AF8EE677A9FED627A82
:105A300077EEC77ADFED616A87EEA67A83ED117A99
:105A4000FFEE007AB4EEE77AF1EE10FA0AD9F7EE3B
:105A5000007AB4EEE77AF1EE10FA05DB554BC3EDB0
:105A6000117A01E0C3ED117A524B1A8E07EE902A9B
:105A7000F8EE677A9FED507A77EEC77ADFED4F6ADE
:105A800087EEA67A83ED127AFFEE007AB4EEE77A1B
:105A9000F1EE10FA0AD9F7EE007AB4EEE77AF1EEF9
:105AA00010FA05DB434BC3ED127A01E0C3ED127A25
:105AB000404B93F8322083F8542093F8342083F835
:105AC0005520B3F9362007EE902AF8EEE77A9FEDDD
:105AD0003C7AC7EE876A16EE902AC3F85620B3F9CF
:105AE000382007EE902AF8EEE77A87EE876A16EEFE
