:020000040800F2
:100000000000032029440008693A00086B3A000800
:100010006D3A00086F3A0008713A000800000000CD
:10002000000000000000000000000000B17B00089C
:10003000733A000800000000517C0008DF750008DA
:10004000794400087944000879440008794400089C
:10005000794400087944000879440008794400088C
:10006000794400087944000879440008753A00088A
:10007000853A000879440008953A0008A53A000836
:1000800079440008B53A000879440008C53A0008E8
:10009000D53A0008794400087944000879440008FA
:1000A000794400087944000879440008794400083C
:1000B000794400087944000879440008794400082C
:1000C000794400087944000879440008794400081C
:1000D00079440008E53A000879440008F53A000838
:1000E00079440008794400087944000879440008FC
:1000F00079440008794400087944000879440008EC
:1001000079440008794400087944000879440008DB
:10011000794400087944000879440008053B000848
:1001200079440008153B0008253B0008353B0008D2
:10013000453B00087944000879440008553B000815
:1001400079440008653B00087944000879440008B8
:1001500079440008753B000879440008853B000895
:10016000794400087944000879440008794400087B
:100170007944000879440008794400080000000030
:100180007944000879440008953B0008A53B000825
:1001900079440008B53B0008794400087944000818
:0C01A0000000000000000000794400088E
:1001B00081F0004102E000BF83F0004330B54FEA18
:1001C00041044FEA430594EA050F08BF90EA020F85
:1001D0001FBF54EA000C55EA020C7FEA645C7FEA18
:1001E000655C00F0E2804FEA5454D4EB5555B8BF3B
:1001F0006D420CDD2C4480EA020281EA030382EAAC
:10020000000083EA010180EA020281EA0303362D3D
:1002100088BF30BD11F0004F4FEA01314FF4801C10
:100220004CEA113102D0404261EB410113F0004F22
:100230004FEA03334CEA133302D0524263EB4303D9
:1002400094EA050F00F0A780A4F10104D5F1200E77
:100250000DDB02FA0EFC22FA05F2801841F10001D2
:1002600003FA0EF2801843FA05F359410EE0A5F1A6
:1002700020050EF1200E012A03FA0EFC28BF4CF0D7
:10028000020C43FA05F3C01851EBE37101F000458D
:1002900007D54FF0000EDCF1000C7EEB00006EEB9A
:1002A0000101B1F5801F1BD3B1F5001F0CD3490824
:1002B0005FEA30004FEA3C0C04F101044FEA44527B
:1002C00012F5800F80F09A80BCF1004F08BF5FEA02
:1002D000500C50F1000041EB045141EA050130BDE2
:1002E0005FEA4C0C404141EB0101013C28BFB1F5F4
:1002F000801FE9D291F0000F04BF01460020B1FA3F
:1003000081F308BF2033A3F10B03B3F120020CDA11
:100310000C3208DD02F1140CC2F10C0201FA0CF0EF
:1003200021FA02F10CE002F11402D8BFC2F1200C54
:1003300001FA02F120FA0CFCDCBF41EA0C0190400A
:10034000E41AA2BF01EB0451294330BD6FEA040453
:100350001F3C1CDA0C340EDC04F11404C4F120023E
:1003600020FA04F001FA02F340EA030021FA04F350
:1003700045EA030130BDC4F10C04C4F1200220FAA7
:1003800002F001FA04F340EA0300294630BD21FAE5
:1003900004F0294630BD94F0000F83F4801306BFAB
:1003A00081F480110134013D4EE77FEA645C18BF9F
:1003B0007FEA655C29D094EA050F08BF90EA020F36
:1003C00005D054EA000C04BF1946104630BD91EA2E
:1003D000030F1EBF0021002030BD5FEA545C05D131
:1003E0004000494128BF41F0004130BD14F5800470
:1003F0003CBF01F5801130BD01F0004545F0FE41E4
:1004000041F470014FF0000030BD7FEA645C1ABF18
:10041000194610467FEA655C1CBF0B46024650EA4F
:10042000013406BF52EA033591EA030F41F400217B
:1004300030BD00BF90F0000F04BF0021704730B501
:100440004FF4806404F132044FF000054FF00001D6
:1004500050E700BF90F0000F04BF0021704730B597
:100460004FF4806404F1320410F0004548BF40426C
:100470004FF000013EE700BF42004FEAE2014FEAC1
:1004800031014FEA02701FBF12F07F4393F07F4F9C
:1004900081F06051704732F07F4208BF704793F09F
:1004A0007F4F04BF41F40021704730B54FF46074B2
:1004B00001F0004521F000411CE700BF50EA0102B5
:1004C00008BF704730B54FF000050AE050EA01025E
:1004D00008BF704730B511F0004502D5404261EBCE
:1004E00041014FF4806404F132045FEA915C3FF40F
:1004F000D8AE4FF003025FEADC0C18BF03325FEAAC
:10050000DC0C18BF033202EBDC02C2F1200300FA5C
:1005100003FC20FA02F001FA03FE40EA0E0021FA81
:1005200002F11444BDE600BF4FF0FF3C06E000BFFF
:100530004FF0010C02E000BF4FF0010C4DF804CD6C
:100540004FEA410C7FEA6C5C4FEA430C18BF7FEA2C
:100550006C5C1BD001B050EA410C0CBF52EA430C5A
:1005600091EA030F02BF90EA020F0020704710F1DA
:10057000000F91EA030F58BF994208BF90422CBF69
:10058000D8176FEAE37040F0010070474FEA410C62
:100590007FEA6C5C02D150EA013C07D14FEA430C80
:1005A0007FEA6C5CD6D152EA033CD3D05DF8040BF1
:1005B000704700BF8446104662468C461946634623
:1005C00000E000BF01B5FFF7B7FF002848BF10F1FA
:1005D000000F01BD4DF808EDFFF7F4FF0CBF01203F
:1005E00000205DF808FB00BF4DF808EDFFF7EAFFBB
:1005F00034BF012000205DF808FB00BF4DF808ED76
:10060000FFF7E0FF94BF012000205DF808FB00BF6A
:100610004DF808EDFFF7CEFF94BF012000205DF8F4
:1006200008FB00BF4DF808EDFFF7C4FF34BF012001
:1006300000205DF808FB00BF53B94AB9002908BF84
:1006400000281CBF4FF0FF314FF0FF3000F0E2B840
:10065000ADF1080C6DE904CE09F004FEDDF804E00C
:10066000DDE9022304B0704700F1340191E838005D
:100670009C46A6464CF8045D90E8FF0FE54600BD99
:1006800090EC210B704700BF80EC210B704700BF3E
:1006900090EC200B704700BF80EC200B704700BF30
:1006A000D0EC200B704700BFC0EC200B704700BFA0
:1006B000F0EC0201F0EC0211F0EC0221F0EC02315E
:1006C000F0EC0241F0EC0251F0EC0261F0EC02714E
:1006D000F0EC0281F0EC0291F0EC02A1F0EC02B13E
:1006E000F0EC02C1F0EC02D1F0EC02E1F0EC02F12E
:1006F000704700BFE0EC0201E0EC0211E0EC0221E7
:10070000E0EC0231E0EC0241E0EC0251E0EC02618D
:10071000E0EC0271E0EC0281E0EC0291E0EC02A17D
:10072000E0EC02B1E0EC02C1E0EC02D1E0EC02E16D
:10073000E0EC02F1704700BFB0FC0181B0FC019118
:10074000B0FC01A1B0FC01B1704700BFA0FC018169
:10075000A0FC0191A0FC01A1A0FC01B1704700BF69
:10076000EC4600B52DE900502DE9FF1F4FF00003C6
:100770002DE90C0001A90AF02FF8DDF840E012B0D5
:10078000704700BFEC4600B52DE900502DE9FF1F72
:100790004FF000032DE90C0001A90AF059F8DDF82B
:1007A00040E012B0704700BFEC4600B52DE90050A4
:1007B0002DE9FF1F4FF000032DE90C0001A90AF0FD
:1007C00069F8DDF840E012B0704700BFEC4600B5B4
:1007D0002DE900502DE9FF1F4FF000032DE90C001B
:1007E00001AB0AF02DF8DDF840E012B0704700BF11
:1007F000EC4600B52DE900502DE9FF1F4FF0000336
:100800002DE90C0001AA0AF09DF8DDF840E012B0D5
:10081000704700BF704700BF844641EA000313F0F1
:1008200003036DD1403A41D351F8043B40F8043BF7
:1008300051F8043B40F8043B51F8043B40F8043BBA
:1008400051F8043B40F8043B51F8043B40F8043BAA
:1008500051F8043B40F8043B51F8043B40F8043B9A
:1008600051F8043B40F8043B51F8043B40F8043B8A
:1008700051F8043B40F8043B51F8043B40F8043B7A
:1008800051F8043B40F8043B51F8043B40F8043B6A
:1008900051F8043B40F8043B51F8043B40F8043B5A
:1008A00051F8043B40F8043B403ABDD2303211D3FA
:1008B00051F8043B40F8043B51F8043B40F8043B3A
:1008C00051F8043B40F8043B51F8043B40F8043B2A
:1008D000103AEDD20C3205D351F8043B40F8043BFA
:1008E000043AF9D2043208D0D2071CBF11F8013BF8
:1008F00000F8013B01D30B8803806046704700BFBE
:10090000082A13D38B078DD010F003038AD0C3F1CC
:100910000403D21ADB071CBF11F8013B00F8013BAE
:1009200080D331F8023B20F8023B7BE7043AD9D36D
:10093000013A11F8013B00F8013BF9D20B78037042
:100940004B7843708B788370604670470348044B44
:10095000834202D0034B03B118477047580B002065
:10096000580B0020000000000548064B1B1AD90F49
:1009700001EBA301491002D0034B03B118477047A4
:10098000580B0020580B00200000000010B5064C4A
:10099000237843B9FFF7DAFF044B13B10448AFF3F0
:1009A00000800123237010BD580B002000000000C0
:1009B00084B8000808B5054B1BB105490548AFF3DD
:1009C0000080BDE80840FFF7CFBF00BF0000000077
:1009D0005C0B002084B8000801608260C0F80D3014
:1009E000009B03737047000008B502680A4B9A42E7
:1009F00008D000231A4600F108010848006806F0F4
:100A00009DFF08BD00231A4600F108010448006854
:100A100006F094FFF5E700BF1C1A00207C1A0020A6
:100A2000801A002008B5064B834204D0054B186895
:100A300006F00AFF08BD044B186806F005FFF9E749
:100A40001C1A0020441A0020481A002008B5FFF79D
:100A5000E9FF08BD08B5FFF7E5FF08BD08B5FFF7DA
:100A6000E1FF08BD2DE9F04104460D4690461E46C3
:100A7000069F07F0AFF8236813B16368002B4ED1CF
:100A80002560B8F1000F01D0C4F8048006B166619A
:100A900007B1A7612A4B9D4244D00123294A136123
:100AA0001D46294A52F82320372A2AD8E261C3EB8F
:100AB000C30102EBC101254840F82140E169C3EBC5
:100AC000C300400000EB91001E4E706101F0030175
:100AD00060681F4F01EB830147F8210001321A497A
:100AE00041F823201A0107EB0313BA585201726030
:100AF0005A685201F2609A6852013260DB685B0109
:100B0000B3601049206803F09FFD0F4B53F8253068
:100B100013F0030F0AD007F07FF8BDE8F08107F06B
:100B20007BF8FAE70023074A1361B9E72901084A6D
:100B300002EB0515002353506B60AB60EB60EAE7F6
:100B40001C1A002000000020940B00209C0B0020A9
:100B5000740B002010B58AB001AB03AA002103F08A
:100B6000B2FE099A064B53F822403CB1A06928B165
:100B700006F06AFE636901A9204698470AB010BDD5
:100B80009C0B002010B58AB001AB03AA012103F031
:100B90009AFE099B3833074A52F823403CB1A069BA
:100BA00028B106F051FE636901A9204698470AB0B2
:100BB00010BD00BF9C0B002008B5062306F06DF8A1
:100BC000012006F0A6FD08BD08B506F0CDF801200D
:100BD00006F09FFD08BD10B5044606F0FDFAE36B74
:100BE0001A68136823F00803136010BD10B504469B
:100BF000084611462388002210E073460CF1010CD0
:100C0000BCF1070F09D84FEA430E13F4004FF4D09C
:100C10008EF4815383F00103F0E701328A4206D259
:100C200010F802C083EA0C234FF0000CE8E72380A1
:100C300010BD000070B52DED048B84B00646F0EEBB
:100C4000418AB0EE619AFFEE007AB4EEE70AF1EE67
:100C500010FA0BD9B0EE408AF7EE007AB4EEE70A4C
:100C6000F1EE10FA04DBB7EE008A01E0BFEE008A75
:100C7000FFEE007AF4EEE70AF1EE10FA09D9F7EE8A
:100C8000007AF4EEE70AF1EE10FA04DBF7EE000A60
:100C900001E0FFEE000A68EE087A20EEA07A77EE17
:100CA000877AF5EEC07AF1EE10FA08DBF1EEE77A1A
:100CB000B7EE007AF4EEC77AF1EE10FA1BDC78EEAC
:100CC000607A9FED2B7A28EE871A37EEC17A8DED88
:100CD000007A38EE208A38EE417A8DED017A77EE8F
:100CE000817ACDED027A31EE081A8DED031AB0EE5D
:100CF000497A6B4611E080EE880A09F0A9F8F0EE17
:100D0000409A08F0B3FFB0EE408AB0EE690A08F0EE
:100D1000F9FFF0EE400AD2E7043304AA93420BD065
:100D2000D3ED007AF0EEE77AF4EEC77AF1EE10FA3E
:100D3000F2DDB0EE677AEFE789EE078A002410E073
:100D4000E42505FB046504AB03EB840313ED040AFF
:100D500020EE080A284601F0BFFB284601F0A6FB5A
:100D60000134032CECDD04B0BDEC048B70BD00BF7E
:100D7000CDCC4C3F30EE600A80ED070A90ED007A52
:100D800020EE077A80ED0A7AD0ED0B6AD0ED017A79
:100D900060EE277A76EEA76AC0ED0B6AD0ED027A94
:100DA00090ED086A30EE466A67EE867AC0ED0C7AFE
:100DB00090ED056AF4EEC66AF1EE10FA1DD880EDEA
:100DC0000B6AD0ED0B6A37EE267A77EE877AC0EDA4
:100DD0000D7A90ED037AF1EE476AF4EEE67AF1EEE1
:100DE00010FA14D8C0ED0D6A80ED080A037E0BB925
:100DF0000023436390ED0D0A704790ED046AF4EE12
:100E0000C66AF1EE10FADCDB80ED0B6AD9E7F4EE8E
:100E1000C77AF1EE10FAE7DB80ED0D7AE4E7012303
:100E20000370002303658361C3614361C360036191
:100E30000362436280ED110AF5EEC00AF1EE10FA8A
:100E400012DBC0ED120AF1EE600AC0ED130A80ED6C
:100E50000A1AC0ED0B1A80ED0C2AC0ED0D2A80EDA8
:100E60000E3AC0ED0F3A7047F1EE607AC0ED127A9B
:100E7000C0ED130AEBE7C0ED010A80ED021A80ED28
:100E8000042A80ED000AC0ED031A7047D0ED046A11
:100E9000D0ED037AB1EE677AB4EEE67AF1EE10FAAD
:100EA00006DAF4EEE67AF1EE10FA22D9B0EE667ABE
:100EB000D0ED007AF5EEC07AF1EE10FA1CDDF4EE1A
:100EC000C77AF1EE10FA20DC01231A4677EE676A42
:100ED000F0EEE66A02B390ED016AF0EEC65AF4EE67
:100EE000E65AF1EE10FA1CDD80ED007A90ED000A72
:100EF0007047B0EE677ADBE7F4EEC77AF1EE10FAEE
:100F000006D44FF0FF330122E0E701230022DDE7A2
:100F10004FF0FF330022D9E790ED026AB1EE466A46
:100F2000DBE7F0EEE77A77EE867AC0ED007A07EE3F
:100F3000103AB8EEC77A67EE877AC0ED007AD5E747
:100F40000B88A0F882304B88A0F884308B88A0F8FA
:100F50008630704710B52DED028B0446DFED168A02
:100F60009FED168AF0EE680AB0EE480A203000F0D5
:100F700063FFF0EE680AB0EE480A04F13C0000F0AE
:100F80005BFFDFED0F0AB0EE480A04F1580000F0F5
:100F900053FF002104F1740001F05AFD002384F88E
:100FA0007830012284F8752084F8763084F8773020
:100FB0002046BDEC028B10BD00C0F3440040E74466
:100FC0000080F24408B50248FFF7C4FF08BD00BF27
:100FD000600D002070B582B004460D4616461A46D4
:100FE0000823009300F17903FFF7F6FC069B0093BA
:100FF000034B324629462046FFF734FD02B070BD50
:10100000410F000810B50446B0F8843000EE103AE5
:10101000B8EE400A203000F01DFFB4F8863000EE34
:10102000103AB8EE400A04F13C0000F013FFB4F8A7
:10103000823000EE103AB8EE400A04F1580000F099
:1010400009FF10BD10B5044690F8753073B1002348
:1010500080F87630203000F057FF04F13C0000F0BB
:1010600053FF04F1580000F04FFF10BD012380F83A
:101070007630203000F04BFF04F13C0000F047FFD9
:1010800004F1580000F043FFEFE7000010B50446FC
:101090000F21064B186806F0A3FB18B1012384F852
:1010A000753010BD002384F87530FAE74C1A002023
:1010B00070B506460024254601E0013464B2022CD6
:1010C0000BDCC4EBC40080002030304400F022FF71
:1010D0000028F2D00135EDB2EFE786F8785070BD08
:1010E00008B590F86E1090F8792061F3000280F84E
:1010F000792090F83610D2B261F3410280F879205D
:1011000090F85210D2B261F3820280F87920FFF792
:101110006BFC08BD054B1B781BB1012380F87730B1
:101120007047002380F87730704700BFC414002058
:1011300090F87700704708B5FFF744FF08BD0B88AB
:1011400007EE903AA0F5A860F8EE677AC0EDFE7A57
:101150004B8807EE903AF8EE677AC0EDFF7A704759
:1011600070B504460646032504E0304600F0E6FF6D
:10117000013DE436002DF8DA012284F890230023A3
:1011800084F8913384F8922384F8983384F8933365
:1011900084F894230849C4F8E4134FF07C50C4F851
:1011A000E003C4F8E81384F8973384F8962384F8AE
:1011B0009533204670BD00BF3333733F08B50248F6
:1011C000FFF7CEFF08BD00BFE80D0020034600F585
:1011D0006472934204D093F8330010B1E433F8E71B
:1011E00001207047F8B50646044600F564770025EF
:1011F00008E0204601F032F9204601F0E6F8054407
:10120000EDB2E434BC42F4D11DB1012386F8903331
:10121000F8BD002386F89033FAE790F89103704701
:1012200090F89203704790F890331BB1002380F838
:1012300091337047012380F891337047034600F5DE
:10124000647100E0E4338B4208D093F83020002A28
:10125000F8D193F833000028F4D100E00120704762
:10126000064B1B7833B190F896331BB1012380F8FD
:1012700092337047002380F892337047C4140020E3
:1012800010B504461E21064B186806F0A9FA18B1DD
:10129000012384F8943310BD002384F89433FAE7D3
:1012A0005C1A002090F89403704780EDEB0AD0EDB3
:1012B000FA7AB1EE677AB4EEC07AF1EE10FA02DB98
:1012C00080EDEB7A7047F4EEC07AF1EE10FA01D8B7
:1012D000C0EDEB7A704780EDF20AD0EDFA7AB1EE0C
:1012E000677AB4EEC07AF1EE10FA02DB80EDF27AA2
:1012F0007047F4EEC07AF1EE10FA01D8C0EDF27A40
:101300007047000010B5044680EDF50A9FED0D0A08
:1013100000F5757008F095FC94EDF57AD4EDFA7A45
:10132000F1EE676AB4EEE67AF1EE10FA02D8C4ED97
:10133000F56A10BDB4EEE77AF1EE10FAF9DBC4ED10
:10134000F57AF6E70AD7A33B10B5044680EDF60A16
:101350009FED0D0A00F5767008F073FC94EDF67AB7
:10136000D4EDFA7AF1EE676AB4EEE67AF1EE10FAAD
:1013700002D8C4EDF66A10BDB4EEE77AF1EE10FAC9
:10138000F9DBC4EDF67AF6E70AD7A33B10B50446BD
:1013900080EDF70A9FED0D0A00F5777008F051FC1B
:1013A00094EDF77AD4EDFA7AF1EE676AB4EEE67A64
:1013B000F1EE10FA02D8C4EDF76A10BDB4EEE77A88
:1013C000F1EE10FAF9DBC4EDF77AF6E70AD7A33BA2
:1013D00010B52DED028B044690F89433002B54D1B8
:1013E00090EDFF8AD0EDFE8A38EE680ADFED477A8D
:1013F00080EE270A08F02CFD04F20C4383ED000A6E
:1014000078EE280AF6EE007A60EEA70A04F20443AA
:10141000C3ED000A94F89533002B69D004F580637E
:1014200093ED000ADFED3A7A70EE277AF4EEE70AE0
:10143000F1EE10FA3CD904F20C4393ED000A9FED53
:10144000357AC0EE077A04F58163C3ED007A08F0BF
:10145000EFFBDFED317AB4EEE70AF1EE10FA0FD8C8
:1014600094EDFE7ADFED2D7AB4EEE77AF1EE10FA24
:101470002CD494EDFF7AB4EEE77AF1EE10FA25D48D
:1014800004F59164002323600FE000F590620023CF
:10149000136000F28442136000F59162136000F261
:1014A0000C42136000F581642360BDEC028B10BD1B
:1014B00004F58260FFF75EFCB1EE400A04F590632C
:1014C00083ED000A2046FFF71DFFB4E704F58163B2
:1014D000DFED130A93ED000A04F58960FFF74AFC7B
:1014E00004F5916383ED000A2046FFF74FFFDCE728
:1014F00004F590620023136004F28442136004F543
:101500009162136004F581642360CEE700003243EA
:1015100000009643DB0FC9400000484200002F4402
:101520000000000000F5A363144A1A6000230DE0D8
:1015300003F59F7200EB82021049516003F59D7222
:1015400000EB82020E4911600133DBB2032BEFD9AD
:1015500000F5A2630B4A1A6000F214530A4A1A609B
:1015600000F21C520023136000F2E442136000F505
:101570009C600360054B1360704700BF6666D640F1
:101580000AD7233C17B7513A17B7513900007043B7
:1015900070B52DED048B82B00446DFED7A8A9FEDA5
:1015A0007A8A7A4E7A4B1B68019300250095F0EEFB
:1015B000680AB0EE480A33460122114600F0C2FD27
:1015C000744B1B6801930095F0EE680AB0EE480A70
:1015D00033460122022104F1E40000F0B3FD6E4B1A
:1015E0001B68019301250095F0EE680AB0EE480AE9
:1015F00033462A46032104F5E47000F0A3FD674B4F
:101600001B6801930095F0EE680AB0EE480A334675
:101610002A46042104F52B7000F094FD9FED609A9A
:10162000DFED608A9FED608AB0EE492AF0EE681A1D
:10163000B0EE481AF0EE480A9FED5C0A04F1AC00E7
:101640000AF02EF9DFED5A9AB0EE492AF0EE681A48
:10165000B0EE481AF0EE480AB0EE690A04F5C87018
:101660000AF01EF9B0EE492AF0EE681AB0EE481AF8
:10167000F0EE480AB0EE690A04F51D700AF010F9A0
:10168000B0EE492AF0EE681AB0EE481AF0EE480AB9
:101690009FED480A04F556700AF002F99FED469A4C
:1016A000B0EE492AF0EE681AB0EE481AF0EE480A99
:1016B000B1EE040A04F174000AF0F2F8B0EE492A1F
:1016C000F0EE681AB0EE481AF0EE480AB1EE040ADD
:1016D00004F5AC700AF0E4F8B0EE492AF0EE681AAE
:1016E000B0EE481AF0EE480AB1EE040A04F50F70A5
:1016F0000AF0D6F8B0EE492AF0EE681AB0EE481AB1
:10170000F0EE480AB1EE040A04F548700AF0C8F891
:10171000DFED2A8AB0EE482AF6EE001AB0EE681A1B
:10172000F0EE680AB0EE480A04F56770FFF7A3FB15
:10173000B0EE482AF6EE001AB0EE681AF0EE680A2B
:10174000B0EE480A04F56E70FFF795FBF0EE483AEC
:10175000B0EE483AF0EE482AB1EE002AF1EE041A53
:10176000B2EE001AF2EE040A9FED150A04F28C4064
:10177000FFF755FB2046FFF7D5FE02B0BDEC048B0A
:1017800070BD00BF9A99993E0000FA441C1A0020CF
:10179000741A0020701A00206C1A0020681A0020A9
:1017A000CDCC4C3E0000C84200000000295C8F3DBB
:1017B000CDCCCC3DEC51B83D3333733F0AD7A33B7E
:1017C0003333333F10B52DED028B044600F2E44372
:1017D000D3ED008A002318E0E42202FB034292EDDD
:1017E0002A7A03F59F7104EB8101D1ED017AB0EE05
:1017F000C77A67EE877A92ED157AB0EEC77A67EE10
:10180000877A38EE278A0133DBB2032BE4D904F25E
:101810002453514A1A6004F5A56383ED008A04F24B
:101820002C53C3ED008A28EE080ADFED4C7A68EEEF
:10183000A77ADFED4B6A87EEA67A30EE070A08F04A
:10184000E5FA30EE480A9FED477AC0EE077AB7EE28
:10185000007AF4EEC77AF1EE10FA11DDF7EE007AB5
:10186000B7EE007AF4EEC77AF1EE10FA01DBF7EE8C
:10187000007A04F5A464C4ED007ABDEC028B10BDBF
:10188000B0EEC88A9FED387AB4EEC78AF1EE10FA4E
:1018900059DD04F59C6393ED006A36EE686A04F244
:1018A0001C5393ED007A04F5A262D2ED006A66EE55
:1018B000866A37EE267A83ED007AFEEE006AB4EE91
:1018C000E67AF1EE10FA03D8C3ED006A00231AE0BD
:1018D000F1EE0C6AB4EEE67AF1EE10FAF6DB04F201
:1018E0001C53C3ED006AF1E7F3EE066AB4EEE67A44
:1018F000F1EE10FA05DB03F59F7104EB8101C1EDF8
:10190000016A0133DBB2032B1DD803F59F7204EB90
:10191000820292ED017A04F21450D0ED006A66EE74
:10192000866A37EE267A82ED017AF0EE086AB4EE26
:10193000E67AF1EE10FAD7D803F59F7204EB820233
:10194000C2ED016ADDE7F5EEC07AF1EE10FA87D854
:10195000DFED067A8DE700BFBD378635BD378636A9
:101960000000A042BD370636DC2434280000000009
:1019700010B5044600F0ECFF04F23C539FED030A5F
:1019800083ED000A2046FFF701FD10BD00000000B6
:1019900038B5054606F01EF92846FFF7E9FF002393
:1019A000C5F8EC33C5F8F033C5F8F4332C4605F52B
:1019B000647509E00023A4F85030204600F0EAFCEA
:1019C000204600F0FDFCE434AC42F3D106F024F9EB
:1019D00038BD000010B52DED028B04469FED0D8A39
:1019E000B0EE480A00F01AFDB0EE480A04F1E40037
:1019F00000F014FDB0EE480A04F5E47000F00EFDAE
:101A0000B0EE480A04F52B7000F008FDBDEC028B27
:101A100010BD00BF0000000038B52DED028B05465B
:101A200006F0D8F82846FFF7A3FF9FED128AB0EE24
:101A3000480A2846FFF739FCB0EE480A2846FFF767
:101A40004AFC2846FFF7C6FF2C4605F5647509E0F9
:101A50000023A4F85030204600F09CFC204600F003
:101A6000AFFCE434AC42F3D106F0D6F8BDEC028B07
:101A700038BD00BF0000000070B50546044600F503
:101A8000647603E0204600F003FDE434B442F9D16B
:101A90002846FFF7C1FF2846FFF77AFF002385F8A5
:101AA000983370BD10B52DED028B82B004460093C3
:101AB000134B00F5A860FEF7D5FF9FED128AB7EE35
:101AC000002AF2EE041AB0EE481AF0EE480A9FED32
:101AD0000E0A04F5826009F0E3FEB7EE002AF2EE8A
:101AE000041AB0EE481AF0EE480AB0EE420A04F5C5
:101AF000896009F0D5FE02B0BDEC028B10BD00BFBD
:101B00003F1100080000000017B7513A08B5FFF771
:101B100055FB08BD38B5044600F010FB164D0122F8
:101B2000294604F5827000F095FF0222294604F54B
:101B30009C7000F08FFF002384F8E430012384F8C8
:101B4000E53084F8E63084F8E73084F8E8300B4B71
:101B5000C4F8EC300023C4F8F030C4F8F430084B7B
:101B6000C4F8FC304FF4B973A4F8F8304FF46B7339
:101B7000A4F80031204638BDE01F0020000082C3D9
:101B80000000F04108B50248FFF7C4FF08BD00BFE0
:101B90005413002010B52DED028B82B0174B1B683B
:101BA000019301230093DFED160A9FED160A164BF1
:101BB0000222072100F0C6FA9FED148A144CB7EEFA
:101BC000002AF0EE481AB0EE421AF0EE480AB1EEE2
:101BD000000A204609F064FE9FED0E2AF0EE481A36
:101BE0009FED0D1AF0EE480A9FED0C0A04F1380043
:101BF00009F056FE02B0BDEC028B10BD541A002055
:101C0000295C8F3D0000E1441C1A00200000000008
:101C1000C8130020CDCCCC3E66662640CDCC4C3ED1
:101C200090F833007047000010B504461421064BAD
:101C3000186805F0D5FD10B9002384F83030012371
:101C400084F8303010BD00BF541A002010B504468F
:101C500000F0BBFB18B1002384F8E43010BD012371
:101C600084F8E430FAE790F8E400704790F8E50073
:101C7000704790F8E600704708B500F009FC08BD11
:101C800010B5D0ED3B7A9FED227AF4EEC77AF1EEF3
:101C900010FA24D880ED3B7A90ED3B7ADFED1D7A87
:101CA00037EE277ADFED1C6AC7EE267A9FED1B7AA6
:101CB00067EE877A9FED1A7A77EE877AC0ED3C7AE5
:101CC000F4EEC77AF1EE10FA13D99FED147AF4EE20
:101CD000C77AF1EE10FA0EDB80ED3C7A0BE09FED57
:101CE000117AF4EEC77AF1EE10FAD5DB80ED3B7A8B
:101CF000D2E780ED3C7A90ED3C0A00F039FC0A4CCA
:101D0000204600F047FB204600F05AFB10BD00BF04
:101D1000000082C3000082430000EB4300808A433E
:101D2000000000000000524354130020054B1B78B4
:101D30001BB1012380F8E5307047002380F8E530BF
:101D4000704700BFC414002010B5044690ED3F7AE0
:101D5000DFED167A27EE277ADFED157A77EEC77A70
:101D6000FDEEE77A17EE903A1BB2A0F80031114A67
:101D7000B2F90020D31A00EE103AB8EEC00A07F00C
:101D800057FFDFED0D7AB4EEE70AF1EE10FA00DC52
:101D900010BDB4F9001189B204F5827000F078FE2C
:101DA000B4F90021034B1A80F2E700BF7B096D40B4
:101DB00000006B44521300200AD7A33B10B5044621
:101DC00090ED3D7ADFED167A27EE277ADFED157A72
:101DD00077EEC77AFDEEE77A17EE903A1BB2A0F8DD
:101DE000F830114AB2F90020D31A00EE103AB8EEDA
:101DF000C00A07F01DFFDFED0D7AB4EEE70AF1EE41
:101E000010FA00DC10BDB4F9F81089B204F59C702A
:101E100000F03EFEB4F9F820034B1A80F2E700BF51
:101E20007B096D400000B943501300200AD7A33B43
:101E300008B5FFF7A7FE08BD80ED000AC0ED010A56
:101E40000122C275027500228275027642757047C2
:101E5000007D704710B52DED028B0446C37D002B2D
:101E600040D0B0EE408AFFF7F3FF00283AD184ED6E
:101E7000028ADFED247AB4EEE78AF1EE10FA1EDD75
:101E8000D4ED007AF4EEC87AF1EE10FA17DDA37DF6
:101E90008BB1A37D33B302F017FBE36803F5FA734C
:101EA00083421FD202F010FB23696433834219D2AC
:101EB0000123237616E002F007FBE060E9E7D4EDAA
:101EC000017AF4EEC87AF1EE10FA06D4DFED0D7A5D
:101ED000B4EEE78AF1EE10FA04D502F0F5FA2061CB
:101EE00000232376237E23B102236375BDEC028B8E
:101EF00010BDA37D13B101236375F7E7002363755C
:101F0000F4E700BF00007A44012303757047002303
:101F100003757047007E70478167002380F8743036
:101F2000012280F8752080F87630D0ED167A90ED99
:101F3000147AF4EEC77AF1EE10FA02D880ED167A30
:101F4000704790ED157AF4EEC77AF1EE10FA01DBE6
:101F500080ED167A7047000010B5044690ED170A20
:101F6000806F00F0B9FAA06F00F014FAA06F00F0D3
:101F700027FAA06F00F07AF9A06F90F8323003B919
:101F800010BD94ED180AD4ED1A7A30EE270A00F04D
:101F900045FA9FED070AA06F00F09EFAA06F00F0CF
:101FA000F9F9A06F00F00CFA012384F87630E7E726
:101FB0000000000010B5044690ED187A90ED166A06
:101FC000D0ED147A36EE676AD0ED156A76EEE76AE0
:101FD000C6EE267AD0ED196A36EEC76A67EE867AC3
:101FE00077EE277AC0ED1C7AB4EEE77AF1EE10FABC
:101FF0000DDB80ED1C7A94ED1C0AA06F00F0B8FA9E
:10200000A06F00F0C7F9A06F00F0DAF910BDF4EE90
:10201000E76AF1EE10FAEED8C0ED1C6AEBE710B5F6
:102020000446806F00F0A2F9D4ED1C7A30EE670A06
:1020300007F0FEFDD4ED1B7AF4EEC07AF1EE10FA53
:1020400001DC002010BD0120FCE790F87530002B6A
:1020500063D010B588B0044690F87430032B1DD8B7
:10206000DFE803F0021E2B360DF1080C8646BEE8B1
:102070000F00ACE80F00DEF80030CCF8003004F1BF
:10208000200393E803008DE8030004F114030ECB52
:10209000A06F00F09DF9012384F8743008B010BDE2
:1020A00090F8763033B1022380F87430002380F842
:1020B0007630F3E7FFF750FFF0E7FFF77BFF2046AE
:1020C000FFF7ADFF0028E9D0032384F87430E5E77B
:1020D000FFF7A5FFE8B1002384F8743084F8753069
:1020E0000DF1080C04F1280EBEE80F00ACE80F005B
:1020F000DEF80030CCF8003004F1480393E8030028
:102100008DE8030004F13C030ECBA06F00F060F9F2
:10211000C4E72046FFF74EFFC0E770470022027079
:102120007047000008B50248FFF7F8FF08BD00BF80
:10213000C414002008B5FFF7F5FF08BD002280F8A1
:102140003220704710B582B0044608464FF0010CAB
:1021500084F830C04FF0000C84F831C084F833C0EC
:102160009DF810C084F800C084ED0D0AC4ED0E0A7D
:1021700001F1FF3CBCF1070F37D81946606084F8C5
:102180003C2002F1FF3C5FFA8CFCBCF1010F16D938
:10219000032A28D12D4B994240D004284ED82C4BED
:1021A000C4F81D3040F2FF13A361059B0093294B37
:1021B00000F5017204F11000FEF754FC13E0234B0C
:1021C000994214D0042822D8234BC4F81D304FF470
:1021D0000073A361059B00931E4B00F5007204F190
:1021E0001000FEF73FFC0823237702B010BD04283F
:1021F00006D81A4BC4F81D304FF40073A361E9E709
:10220000174BC4F81D3040F2FF13A361E2E7104BF7
:10221000C4F81D3040F2FF13A361DBE7042806D8A1
:102220000F4BC4F81D3040F2FF13A361BDE70D4B07
:10223000C4F81D3040F2FF23A361B6E70A4BC4F88F
:102240001D3040F2FF23A361AFE700BF1C1A00203E
:10225000D0140020D7220008D8140020F014002049
:10226000E8140020E0140020C814002010B52DED63
:10227000028B044690ED0D0A07F0DAFCB0EE408ABE
:1022800094ED1C0A07F0D4FCB4EEC08AF1EE10FA0B
:102290000AD40023E360E368142B18D9012384F8DF
:1022A0003230BDEC028B10BD94ED0E0A07F0C0FC7D
:1022B000B0EE408A94ED150A07F0BAFCB4EEC08A7D
:1022C000F1EE10FAE5DDE3680133E360E3E70023B4
:1022D00084F83230E5E710B5A0F11004204609F08B
:1022E000EBFA2046FFF7C2FF10BD0000FFEE007AB8
:1022F000B4EEE70AF1EE10FA09D9F7EE007AB4EE7F
:10230000E70AF1EE10FA04DBB7EE000A01E0BFEED7
:10231000000A03780BB1B1EE400A90F83C30022B72
:102320000AD0032B13D0012B1BD1BEEEC90A10EE2D
:10233000103AA0F850307047DFED0A7A20EE270AF5
:10234000BDEEC00A10EE103AA0F850307047DFED35
:10235000067A20EE270ABDEEC00A10EE103AA0F869
:102360005030704700401C460060EA46037813B9BD
:1023700090ED1B0A704790ED1B0AB1EE400A7047C2
:10238000037813B990ED150A704790ED150AB1EE78
:10239000400A70474268D3B2042A01D9043BDBB239
:1023A000013BDBB25B00DBB290F95110D0F81D208D
:1023B000D154B0F95010D0F81D200133D1547047DA
:1023C00008B51030FEF710FB08BD90F830007047DC
:1023D00084B010B5044603A880E80E009DED082ADD
:1023E000DDED091A9DED0C1ADDED0B0A9DED0A0AD3
:1023F00004F1AC0009F054FA9DED032ADDED041A56
:102400009DED071ADDED060A9DED050A04F1740045
:1024100009F046FABDE8104004B07047FDEEC07AFE
:10242000B8EEE77A30EE470A037853B117EE903AE8
:10243000A0F86830D0ED177A77EEC07AC0ED197A3F
:10244000704717EE903A5B42A0F86830D0ED177AEB
:1024500077EE807AC0ED197A7047000010B5044617
:102460001421806A05F0BCF958B994F830305BB19A
:102470009FED060A2046FFF7D1FF002384F8303095
:1024800002E0012384F8303010BD00BF00000000DE
:1024900010B504460023836080F83330A0F8503034
:1024A000FFF778FF2046FFF78BFF10BD10B52DED2D
:1024B000028B044690ED138AFFF762FFF0EE400AAC
:1024C000B0EE480A04F17400FEF754FC2046FFF712
:1024D0000DFFBDEC028B10BD10B582B004468DED32
:1024E000010A90F83C30012B1BD0022B04D19FED48
:1024F000130A01A807F0A5FBDDED017AC4ED137AFC
:10250000BFEE007AF4EEC77AF1EE10FA0FD9B7EE0B
:10251000007AF4EEC77AF1EE10FA0ADB84ED137A52
:1025200007E09FED070A01A807F08BFBE4E784EDC5
:10253000137A2046FFF7BAFF02B010BD6F12833A3C
:102540000AD7A33B10B52DED028B044690ED128AFD
:10255000FFF70CFFF0EE400AB0EE480A04F1AC00C1
:10256000FEF708FC2046FFF7B7FFBDEC028B10BD5D
:1025700008B580ED120AFFF7E5FF08BD0088704737
:1025800010B5084C20601C220749FEF715FB0123FB
:1025900084F8EB3084F8E830002384F8EA3084F8DB
:1025A000E93010BDF8140020C0B80008634B93ED6B
:1025B000276A83ED286A93ED215A83ED225AD3EDE1
:1025C0001B5AC3ED1C5AB3F9262007EE902AF8EEE9
:1025D000E77AB2EE047AC7EE876AC3ED276AB3F9E9
:1025E000222007EE102AB8EEC77A9FED554AC7EEB3
:1025F000047AC3ED1B7AB3F9242004EE902AF8EE96
:10260000E44A84EE847A83ED217A36EEC66ADFED01
:102610004D4AB4EEE46AF1EE10FA67D51A46D3F8E3
:10262000A8300133C2F8A830444B93ED2A6AB8EEC3
:10263000C66ADFED454A26EE246A36EE066A76EE75
:10264000866A93ED2C6A76EEC66A9FED406A66EE66
:10265000866AC3ED2B6A37EE455ADFED3A6AB4EE6F
:10266000E65AF1EE10FA4FD51A46D3F890300133FE
:10267000C2F89030314BD3ED246AF8EEE66A9FED54
:10268000326A66EE866A76EEA66A37EE267AD3ED71
:10269000266A37EE667ADFED2D6A27EE267A83ED1D
:1026A000257A77EEE55A9FED2A7AF4EEC75AF1EED5
:1026B00010FA37D51A469B6F013393671F4B93ED82
:1026C0001E7AB8EEC77ADFED236A27EE267A37EE58
:1026D000077A77EE877A93ED207A77EEC77A9FEDC7
:1026E0001B7A67EE877AC3ED1F7A7047DFED164AD3
:1026F000B4EEE46AF1EE10FA96DD104AD2F8A83092
:10270000013BC2F8A8308FE7DFED0F6AB4EEE65A5E
:10271000F1EE10FAAEDD094AD2F89030013BC2F872
:102720009030A7E79FED0B7AF4EEC75AF1EE10FA5E
:10273000C4DD024A936F013B9367BFE7F8140020A2
:102740000000C842000034C300003443610B363B34
:102750000000B4C20000B44210B5784CD4F8DC30AC
:10276000C4F8E03007F04AFA84ED370AD4ED387A3D
:1027700030EE670ADFED727A20EE270A84ED390A1F
:1027800005F028FA94F8E93033B9D4F8D830322B70
:1027900002D90022C4F8D820684AD2F8D8300133D0
:1027A000C2F8D830322B40F2C4801346012283F89D
:1027B000E92005F031FA614B93F8E930DBBB5F4B60
:1027C0000022C3F8E420DA6E1A67B3F9222007EE7C
:1027D000902AF8EEE77A9FED5B7A67EE877AC3ED91
:1027E0001B7AC3ED207A00229A67D3F88410C3F8CD
:1027F0008810B3F9241007EE901AF8EEE77A67EE26
:10280000877AC3ED217AC3ED267AC3F89020D3F8F6
:102810009C10C3F8A010B3F9261007EE901AF8EE3A
:10282000E77A9FED497A67EE877AC3ED277AC3EDA1
:102830002C7AC3F8A820FFF7B9FE404BB3F9142057
:1028400007EE902AF8EEE77A9FED3F7A67EE877AF7
:10285000C3ED187AB3F9162007EE902AF8EEE77A5E
:1028600067EE877AC3ED197AB3F9182007EE902A3C
:10287000F8EEE77A67EE877AC3ED1A7AB3F90D209E
:1028800006EE902AF8EEE66ADFED2D5A66EEA56AAE
:102890009FED2E6A66EE866AC3ED2D6AB3F90F20AE
:1028A00007EE102AB8EEC77A27EE257A27EE067AC9
:1028B00083ED2E7AB3F9112007EE902AF8EEE77A2D
:1028C00067EEA57A67EE867AC3ED2F7AD3ED305A9C
:1028D00093ED396A66EE866A75EEA65AC3ED305AF4
:1028E000D3ED316A27EE067A36EE877A83ED317AB8
:1028F000D3ED326A67EE867A76EEA77AC3ED327A46
:10290000D3ED336A66EE255A76EEA56AC3ED336AD7
:10291000D3ED346A26EE077A36EE877A83ED347A81
:1029200093ED357A26EE276A77EE067AC3ED357A8F
:1029300010BD024B002283F8E9203AE7F81400208A
:102940006F12833A0AD7233CCDCCCC3D0AE81C4118
:10295000034B0022C3F8D82083F8E920704700BF5A
:10296000F8140020084B93F8E83043B9064B93F86D
:10297000E93023B1044B012283F8EA207047024B6F
:10298000002283F8EA207047F814002008B50349B4
:102990005A2251F8040CFEF71EF908BDFC14002061
:1029A00010B582B004460023ADF80630042201467B
:1029B0000DF10600FEF71AF96288A11D0DF106005F
:1029C000FEF714F9201DFFF7D9FDBDF80630984237
:1029D00002D1012002B010BD0020FBE708B5064B74
:1029E0009A884AF25A539A4201D0002008BD0348FF
:1029F000FFF7D6FFFAE700BFF8140020FC14002010
:102A0000044B0022C3F8D82083F8E920012283F880
:102A1000E8207047F8140020024B002283F8E820D9
:102A2000704700BFF814002010B5002409E00C2204
:102A30000549064B1868FEF7C7F8052004F069FE43
:102A40000134042CF3DD10BDE0B80008F8140020B8
:102A50000170704710B45FFA82FC80F800C0012357
:102A6000437000248470C37003714471074CC4F830
:102A7000FC132370637080F832C0022A03D80278F6
:102A800004EB820358605DF8044B7047E4150020A6
:102A900038B504460D4605F09DF8214621F8305F13
:102AA00000231A460348006804F048FF05F0B4F814
:102AB00038BD00BF781A00200022022304E0C15C68
:102AC0000A4492B20133DBB2C17801319942F6DA9D
:102AD000D043C0B27047000070B584B0054600EB2B
:102AE00081004668141E05DBB4F57A7F03DD4FF4E0
:102AF0007A7400E0002447F23052934228BF134614
:102B000055228DF805208DF804208DF80610072237
:102B10008DF8072001228DF808208DF80940C4F3B4
:102B200007228DF80A208DF80B301B0A8DF80C3027
:102B300001A8FFF7C1FF8DF80D000A2201A9D5F801
:102B4000FC03FEF741F8F48107EE904AF8EEE77ACD
:102B50009FED037A67EE877AC6ED087A04B070BD00
:102B60008FC2753E10B582B0164B1B68009340F2C1
:102B7000025340F2015214491448FEF72BFA4FF465
:102B80007A7004F0C6FD02E0082004F0C2FD0F4C8C
:102B90002046FEF7BFFA2046FEF754FA94F8763046
:102BA000002BF1D02046FEF7C3FA0028ECD02046D7
:102BB000FEF728FA2046FEF77BFA2046FEF790FA49
:102BC000E2E700BF4C1A00201C1A0020600D002014
:102BD00010B5204C2046FEF7DBFC1F4B1B6840F273
:102BE00022221E492046FEF75DFF02E0012004F08C
:102BF00090FD1848FEF7EAFA0028F7D005E01548DE
:102C0000FEF73AFF032004F084FD124C2046FEF745
:102C100027FB2046FEF707FB2046FEF7FEFA0028BA
:102C2000EDD02046FEF7FCFA0028E8D02046FEF75B
:102C300005FB0028E9D0074B93F898332BB1012B03
:102C4000E0D1044808F030FEDCE7024808F030FE2E
:102C5000D8E700BFE80D00205C1A00201C1A0020F5
:102C600008B506E00C48FFF76FF80CE0012004F00F
:102C700050FD0948FEF7FAFF0028F7D0064B93F8FD
:102C8000E730002BEED1044B93F8E830002BEDD069
:102C90000148FFF793F8E9E75413002010B52148E5
:102CA000FEF778FF02E0012004F033FD1D48FEF737
:102CB000B7FF0028F7D01B491B48FFF72DF905E0A7
:102CC0001848FEF7D9FF032004F023FD154C2046D9
:102CD000FEF7BCFF2046FFF729F82046FEF7C3FFAA
:102CE0000028EDD02046FEF7C1FF0028E8D020469E
:102CF000FEF7BFFF90B10C4C2046FFF7A6F994F801
:102D00007530002BDFD1074B002283F8E62000222C
:102D1000C3F8EC20012284F87520D4E70148FEF7BF
:102D2000AFFFD0E7541300202800002000B58BB07F
:102D30000023039302934FF0FF310C4B186804F00B
:102D40004FFD4FF0FF33002206A90948006804F048
:102D500037FE069B00939DF81C30049309ABDDF809
:102D60001D206946034801F039FDE4E7481A0020B8
:102D7000801A00201C1A002000B58BB0002303939A
:102D800002934FF0FF310E4B186804F029FD4FF00D
:102D9000FF33002207A90B48006804F011FE079BCF
:102DA00000939DF82030049306ABDDF8212069469E
:102DB000054801F013FD012004F0ABFCE1E700BF82
:102DC000441A00207C1A0020F419002008B54FF4A2
:102DD000FA6004F09EFC062004F09BFC0148FEF71C
:102DE00055F9F8E7600D002008B5024B186804F0AB
:102DF0002BFD08BD641A002010B5084C2046FFF7D3
:102E0000BFFB0021064B186804F0EAFC0549204688
:102E100003F021FFFFF708FE10BD00BFC021002016
:102E2000641A0020E92D000808B5FFF7E5FF06E069
:102E3000FFF7E6FDFFF796FD012004F06AFCFFF7BF
:102E4000A5FD1421084B186804F0CAFC074B186054
:102E50000028EDD1FFF7E0FDFFF7C0FD0028E9D025
:102E6000FFF77AFCE6E700BF641A0020E4190020AF
:102E700008B54FF4FA6004F04CFC0A21134B1868B3
:102E800004F0AEFC0A21124B186804F0A9FC0A21D8
:102E9000104B186804F0A4FC0A210F4B186804F0CA
:102EA0009FFC0A210D4B186804F09AFC0A210C4B78
:102EB000186804F095FC062004F02BFC0948FEF786
:102EC00091F90948FEF7B0FEF5E700BF741A00203B
:102ED000701A0020681A00206C1A0020581A00206E
:102EE000541A0020E80D00205413002008B5024BAE
:102EF000186804F0A9FC08BD501A002000B583B082
:102F00000F4A01210F4803F04CFE0F4B186804F0E4
:102F10009BFC4FF0FF310C4B186804F061FC4FF044
:102F2000FF33002201A90948006804F049FD00238D
:102F3000BDF904209DF806100548FFF7CDFDE8E730
:102F4000ED2E0008E01F0020501A0020781A002003
:102F5000E415002010B50A210F4B186804F040FC5E
:102F600009E00E4A1368013313600D4B00221A600A
:102F70000A2004F0CEFB0B4C2046FEF781F92046D8
:102F8000FEF790F90028ECD1054A1368013313606D
:102F9000024B00221A60EBE75C1A0020EC190020BB
:102FA000E8190020E80D002008B50E480E4B03601C
:102FB0000323436000228260C2604FF4C023036198
:102FC0004FF4A00343610276012343768376C376F0
:102FD0000277437701F092FA00B908BD00F0A4FB34
:102FE000FBE700BF1C1A00200064004008B50E4833
:102FF0000E4B03600323436000228260C2604FF4E3
:10300000C02303614FF4A00343610276012343769A
:103010008376C3760277437701F070FA00B908BD72
:1030200000F082FBFBE700BFF419002000680040BD
:1030300010B58AB00023059306930793089309936C
:103040000368464A934204D0454A93423CD00AB0B2
:1030500010BD444A136801331360012B27D00024AC
:103060000194414B1A6B42F008021A631B6B03F088
:1030700008030193019B0323059302220692089300
:103080000923099305A9394802F0DEF822460521F3
:10309000132001F063FE132001F070FE224605218B
:1030A000142001F05BFE142001F068FECFE700233E
:1030B00000932D4B1A6C42F000721A641B6C03F0E3
:1030C00000730093009BCAE700230293264B1A6CFF
:1030D00042F080621A641B6C03F080630293029BCF
:1030E000204A136801331360012B29D00024049473
:1030F0001D4B1A6B42F002021A631B6B03F00203B2
:103100000493049B4FF44053059302230693032337
:1031100008930923099305A9154802F095F822465A
:1031200005213F2001F01AFE3F2001F027FE224634
:103130000521412001F012FE412001F01FFE86E72B
:1031400000230393084B1A6C42F000721A641B6C44
:1031500003F000730393039BC8E700BF00640040C3
:1031600000680040F019002000380240000C0240C6
:103170000004024010B582B000240094324B1A6B58
:1031800042F480021A631A6B02F480020092009AE1
:1031900001941A6B42F400121A631B6B03F40013C0
:1031A0000193019B224605210B2001F0D7FD0B2046
:1031B00001F0E4FD224605210C2001F0CFFD0C209A
:1031C00001F0DCFD224605210E2001F0C7FD0E2096
:1031D00001F0D4FD224605210F2001F0BFFD0F2094
:1031E00001F0CCFD22460521112001F0B7FD112090
:1031F00001F0C4FD22460521392001F0AFFD392040
:1032000001F0BCFD224605213A2001F0A7FD3A203D
:1032100001F0B4FD224605213B2001F09FFD3B203B
:1032200001F0ACFD224605213C2001F097FD3C2039
:1032300001F0A4FD22460521452001F08FFD452027
:1032400001F09CFD02B010BD0038024008B50648F0
:1032500002F039F94FF48041044802F0FFF84FF4CE
:10326000FA7004F056FAF2E7B81A0020001402408F
:1032700008B5012004F04DFAFBE7000008B5664AE6
:103280000021012004F053FA644B1860644A0021C5
:10329000012004F04CFA634B1860634A00210120BE
:1032A00004F045FA614B1860614A0021012004F0E6
:1032B0003EFA604B1860604A0021012004F037FAA2
:1032C0005E4B18605E4A0021012004F030FA5D4B2D
:1032D00018605D4A0021012004F029FA5B4B186058
:1032E0005B4A0021012004F022FA5A4B18605A4A26
:1032F0000021012004F01BFA584B1860584A0121A4
:10330000084604F014FA574B1860574A0121084642
:1033100004F00DFA554B1860554A0321084604F095
:1033200006FA544B1860544A0321084604F0FFF98A
:10333000524B1860524A0921402004F0B4FA514B14
:103340001860514A0921402004F0ADFA4F4B186033
:103350004F4A0421102004F0A6FA4E4B18604E4A42
:1033600000214E4804F076F94D4B18604D4A00217B
:103370004D4804F06FF94D4B18604D4A00214D48FF
:1033800004F068F94C4B18604C4A00214C4804F09A
:1033900061F94C4B18604C4A00214C4804F05AF932
:1033A0004B4B18604B4A00214B4804F053F94B4BF0
:1033B00018604B4A00214B4804F04CF94A4B186006
:1033C0004A4A00214A4804F045F94A4B18604A4AE3
:1033D00000214A4804F03EF9494B1860494A00214F
:1033E000494804F037F9494B1860494A00214948D7
:1033F00004F030F9484B1860484A0021484804F06E
:1034000029F9484B1860484A0021484804F022F93D
:10341000474B186008BD00BFDCBB0008741A0020D1
:10342000CCBB0008701A0020BCBB00086C1A00203E
:10343000ACBB0008681A00209CBB0008641A00207E
:103440008CBB0008601A00207CBB00085C1A0020BE
:103450006CBB0008581A00205CBB0008541A0020FE
:103460004CBB0008501A00203CBB00084C1A00203E
:103470002CBB0008481A00201CBB0008441A00207E
:103480001CBC0008801A002004BC00087C1A002024
:10349000ECBB0008781A0020E4BD00084D3200089B
:1034A000B41A0020C0BD00082D2D0008B01A00205D
:1034B0009CBD0008792D0008AC1A002078BD0008DA
:1034C000D12B0008A81A002054BD0008292E00089E
:1034D000A41A002030BD0008552F0008A01A0020B3
:1034E0000CBD0008712E00089C1A0020E8BC0008E2
:1034F000FD2E0008981A0020C4BC00089D2C00086E
:10350000941A0020A0BC0008612C0008901A00202A
:103510007CBC0008713200088C1A002058BC0008DE
:10352000652B0008881A002034BC0008CD2D000847
:10353000841A00202DE9F04F8FB0002409940A94DA
:103540000B940C940D940094614B1A6B42F0100292
:103550001A631A6B02F010020092009A01941A6B1F
:1035600042F002021A631A6B02F002020192019AFF
:1035700002941A6B42F040021A631A6B02F0400286
:103580000292029A03941A6B42F001021A631A6BB8
:1035900002F001020392039A04941A6B42F00802AB
:1035A0001A631A6B02F008020492049A05941A6BCB
:1035B00042F480721A631A6B02F480720592059AC3
:1035C00006941A6B42F080021A631A6B02F08002B2
:1035D0000692069A07941A6B42F020021A631A6B3D
:1035E00002F020020792079A08941A6B42F0040234
:1035F0001A631B6B03F004030893089B354E2246A5
:1036000041F27001304601F023FFDFF8CCB02246D2
:103610000521584601F01CFFDFF8C0A0224644F205
:103620004001504601F014FFDFF8B49022464FF4F9
:10363000C051484601F00CFFDFF8A8802246112156
:10364000404601F005FF01224FF40061304601F0D1
:10365000FFFE41F27003099301250A950B9502279D
:103660000C9709A9304601F0EFFD052309930A954F
:103670000B940C9409A9584601F0E6FD44F240036E
:1036800009930A950B940C9409A9504601F0DCFDAE
:103690004FF4C05309930A950B940C9709A9484617
:1036A00001F0D2FD112309930A950B950C9709A9F6
:1036B000404601F0C9FD4FF4006309930A950B944D
:1036C0000C9409A9304601F0BFFD0FB0BDE8F08FA2
:1036D0000038024000100240002002400014024066
:1036E000001C02400008024008B50748074B036071
:1036F0000423436040F27123836001F0B8FE00B9F7
:1037000008BD00F011F8FBE7B81A002000300040B7
:1037100008B50268034B9A4200D008BD00F0C8FE0D
:10372000FBE700BF0014004072B6FEE700B595B09D
:103730003022002108A807F0CBFD00230393049357
:103740000593069307930193214A116C41F0805130
:103750001164126C02F080520192019A02931D4B87
:103760001A6842F440421A601B6803F44043029313
:10377000029B092308934FF48033099301230D938F
:1037800002230E934FF480020F9206221092A82279
:10379000119212930723139308A801F01BFF98B905
:1037A0000F23039302230493002305934FF4A053A4
:1037B00006934FF480530793052103A802F05AF9AA
:1037C00020B915B05DF804FBFFF7AEFFFFF7ACFFC3
:1037D000003802400070004008B5174A936823F093
:1037E0000303936000F04AFEFFF7A0FFFFF7A2FE7D
:1037F000FFF7C0FC00F060FB00F0E0FAFFF7D4FB3D
:10380000FFF7F4FB00F01AF800F096FA00F020FB46
:1038100000F038FB00F070FB00F088FBFFF764FF5E
:1038200000F0AEFD06F0CAF903F0E6FEFFF726FD54
:1038300003F0F4FEFEE700BF0038024008B50E4872
:103840000E4B03604FF48273436000238360C360B8
:10385000036143614FF4007282613022C2610362EE
:10386000436283620A23C36202F008FA00B908BD0A
:10387000FFF75AFFFBE700BF841B00200050014008
:1038800030B589B0002303930493059306930793FF
:103890000268354B9A4201D009B030BD044600257C
:1038A000019503F568435A6C42F480125A645A6CCD
:1038B00002F480120192019A02951A6B42F02002E2
:1038C0001A631B6B03F020030293029B4FF4607397
:1038D000039302230493032306930523079303A969
:1038E000224801F0B1FC2248224B03604FF0806374
:1038F00043608560C5604FF4806303614561856105
:10390000C5614FF400330362456201F0B7FA28BB8A
:10391000174BE3649C631848184B03604FF08063B7
:103920004360402383600023C3604FF480620261E0
:1039300043618361C3614FF400320262436201F06C
:103940009DFA70B90C4BA3649C630022052155209D
:1039500001F004FA552001F011FA9DE7FFF7E4FEAB
:10396000D6E7FFF7E1FEEDE700500140001402400A
:10397000241B002058640240C41A002070640240D6
:1039800000B583B0002200920D4B596C41F4804188
:103990005964596C01F48041009100990192196CAD
:1039A00041F0805119641B6C03F080530193019B1B
:1039B0000F216FF0010001F0D1F903B05DF804FBB5
:1039C0000038024030B589B0044600230193214BF2
:1039D0001A6C42F020021A641B6C03F0200301935E
:1039E000019B02A903A802F01BF9069BCBB902F0C8
:1039F000F7F80346184AA2FB03239B0C013B174828
:103A0000174A026040F2E732C2604360002303615C
:103A10008360836102F076FC054630B1284609B028
:103A200030BD02F0DDF84300E4E70C4802F006FB8D
:103A300005460028F2D1372001F0A0F90F2C01D95A
:103A40000125EBE700222146372001F087F9054BDD
:103A50001C60E3E70038024083DE1B43041C0020A7
:103A600000140040AC000020FEE7FEE7FEE7FEE7A2
:103A7000FEE7704708B5024801F0F8FA08BD00BF3C
:103A8000C01E002008B5024801F0F0FA08BD00BFD2
:103A9000001E002008B5024801F0E8FA08BD00BF8A
:103AA000801F002008B5024801F0E0FA08BD00BF01
:103AB000A01D002008B5024801F0D8FA08BD00BFDB
:103AC000201F002008B5024800F0CCFF08BD00BF51
:103AD0001C1A002008B5024800F0C4FF08BD00BF52
:103AE0001C1A002008B5024803F080F908BD00BF89
:103AF000D020002008B5024803F078F908BD00BFC7
:103B00005820002008B5024802F0E0FA08BD00BFC6
:103B1000041C002008B5024801F0A8FA08BD00BF47
:103B2000401D002008B5024801F0A0FA08BD00BF02
:103B3000601E002008B5024801F098FA08BD00BFD9
:103B4000241B002008B5024801F090FA08BD00BF10
:103B5000C41A002008B5024800F084FF08BD00BF69
:103B6000F419002008B5024800F07CFF08BD00BF32
:103B7000F419002008B5024801F078FA08BD00BF2A
:103B8000E01C002008B5024803F030F908BD00BF72
:103B9000E01F002008B5024803F028F908BD00BF67
:103BA000C021002008B5024803F020F908BD00BF7D
:103BB0004821002008B5024802F0E6F808BD00BF21
:103BC000841B00200120704708B507F05FFC162316
:103BD00003604FF0FF3008BD08B54FF0FF31FFF72D
:103BE000F3FFFEE710B503460C4A0D490D48006887
:103BF00040B10C4800680344521A934206D8094A5F
:103C0000136010BD0748084C0460F2E707F03EFC63
:103C10000C2303604FF0FF30F3E700BF00000320E8
:103C2000001000004C1C0020C00E0220034AD2F8F5
:103C3000883043F47003C2F88830704700ED00E02C
:103C40000268094B9A4200D0704782B0002301936A
:103C5000064B1A6C42F002021A641B6C03F002035A
:103C60000193019B02B070470004004000380240FD
:103C70000268094B9A4200D0704782B0002301933A
:103C8000064B1A6C42F040021A641B6C03F04003AE
:103C90000193019B02B070470018004000380240B9
:103CA00000B589B00023039304930593069307930B
:103CB00003681C4A934205D01B4A93421BD009B0AB
:103CC0005DF804FB00230193184B1A6B42F00202CB
:103CD0001A631B6B03F002030193019B20230393E0
:103CE00002230493012205920693079303A9104827
:103CF00001F0AAFAE3E7002302930C4B1A6B42F09F
:103D000080021A631B6B03F080030293029B402323
:103D10000393022304930923079303A9054801F0A1
:103D200093FACCE70004004000180040003802403D
:103D300000040240001C024000B58BB00023089331
:103D400009930193029303930493059306930793B6
:103D50001848194A02604360836042F20F72C260E1
:103D60000361836102F0FAFAD0B900230893099342
:103D700008A9104802F050FCA8B960230193002361
:103D800002930393059304220DEB0201094802F00C
:103D900049FB58B90748FFF783FF0BB05DF804FBF8
:103DA000FFF7C2FCE1E7FFF7BFFCE6E7FFF7BCFC6B
:103DB000F0E700BF981C00200004004000B58DB063
:103DC0000023089309930A930B930193029303939F
:103DD00004930593069307931B481C4A02605322E1
:103DE0004260836040F27112C2600361836102F03D
:103DF00089FAE0B94FF48053089308A9124802F0F9
:103E00008CFBB8B9104802F0A9FAB0B9602301934D
:103E1000002202920392059201A90B4802F002FBD4
:103E200070B90948FFF73CFF0DB05DF804FBFFF7E0
:103E30007BFCDFE7FFF778FCE4E7FFF775FCE5E7DD
:103E4000FFF772FCEDE700BF501C00200018004097
:103E500008B50A480A4B03604FF4E123436000238E
:103E60008360C36003610C2242618361C36103F01C
:103E700025F900B908BDFFF757FCFBE7C02100207A
:103E80000078004008B50A480A4B03604FF4E1335C
:103E9000436000238360C36003610C22426183613D
:103EA000C36103F00BF900B908BDFFF73DFCFBE768
:103EB00048210020007C004008B50C480C4B0360F2
:103EC0000C4B43604FF4805383600023C3604FF476
:103ED000806202610C2242618361C36103F0EEF8EB
:103EE00000B908BDFFF720FCFBE700BFD020002091
:103EF00000100140A086010008B50A480A4B036083
:103F00004FF4E133436000238360C36003610C22FC
:103F100042618361C36103F0D1F800B908BDFFF7C6
:103F200003FCFBE7582000200048004008B50A4881
:103F30000A4B03604FF4E133436000238360C360A6
:103F400003610C2242618361C36103F0B7F800B9D9
:103F500008BDFFF7E9FBFBE7E01F0020001401406C
:103F600030B591B0044600230B930C930D930E9340
:103F70000F930368824A934210D0824A934254D0EE
:103F8000814A934200F0B580804A934200F0188144
:103F90007F4A934200F07A8111B030BD002501952F
:103FA0007C4B1A6C42F080421A641A6C02F0804218
:103FB0000192019A02951A6B42F010021A631B6B70
:103FC00003F010030293029B4FF4C0730B93022380
:103FD0000C9303230E9308230F930BA96E4801F053
:103FE00033F96E486E4B03604FF020634360856089
:103FF000C5604FF48063036145618561C5614FF41D
:1040000000330362456200F039FF58B9634BE36344
:104010009C6300220521522000F0A0FE522000F0F7
:10402000ADFEB9E7FFF780FBF0E700250395594B9C
:104030001A6C42F000421A641A6C02F000420392B9
:10404000039A04951A6B42F010021A631B6B03F07B
:1040500010030493049B03230B9302220C920E93F0
:1040600008230F930BA94C4801F0EEF84D484E4B36
:1040700003604FF0206343608560C5604FF4806348
:104080000361456185614FF48073C3614FF4003370
:104090000362456200F0F2FE28BB424BE3639C637F
:1040A0004248434B03604FF02063436040238360EA
:1040B0000023C3604FF48062026143618361C36186
:1040C0004FF400320262436200F0D8FE70B9374B01
:1040D000A3639C6300220521532000F03FFE532080
:1040E00000F04CFE58E7FFF71FFBD6E7FFF71CFB7D
:1040F000EDE700250595274B5A6C42F010025A64F3
:104100005A6C02F010020592059A06951A6B42F05D
:1041100002021A631B6B03F002030693069BC02383
:104120000B9302230C9303230E9307230F930BA9E6
:10413000204801F089F82048204B03604FF00063CD
:1041400043608560C5604FF48063036145618561AC
:10415000C5614FF400330362456200F08FFE58B929
:10416000154BE3639C6300220521252000F0F6FD3A
:10417000252000F003FE0FE7FFF7D6FAF0E700BFB7
:1041800000780040007C00400010014000480040E2
:10419000001401400038024000100240801F00203F
:1041A00058600240201F0020A0600240C01E002076
:1041B0001060024000040240601E00204064024083
:1041C00000250795634B1A6C42F480221A641A6C1E
:1041D00002F480220792079A08951A6B42F00802AF
:1041E0001A631B6B03F008030893089B4FF440739A
:1041F0000B9302230C9303230E9307230F930BA916
:10420000554801F021F85548554B03604FF00063C5
:1042100043608560C5604FF48063036145618561DB
:104220004FF48073C3614FF400330362456200F0C2
:1042300025FE28BB494BE3639C634A484A4B036015
:104240004FF060634360402383600023C3604FF4FA
:104250008062026143618361C3614FF40032026294
:10426000436200F00BFE70B93E4BA3639C630022D7
:104270000521272000F072FD272000F07FFD8BE64E
:10428000FFF752FAD6E7FFF74FFAEDE70025099559
:10429000304B5A6C42F020025A645A6C02F02002F1
:1042A0000992099A0A951A6B42F040021A631B6B35
:1042B00003F040030A930A9B4FF484430B930223B9
:1042C0000C9303230E9308230F930BA9274800F0A8
:1042D000BBFF2748274B03604FF020634360856096
:1042E000C5604FF48063036145618561C5614FF42A
:1042F00000330362456200F0C1FD28BB1C4BE36341
:104300009C631D481D4B03604FF0206343604023B6
:1043100083600023C3604FF4806202614361836164
:10432000C3614FF400320262436200F0A7FD70B92E
:10433000114BA3639C6300220521472000F00EFD72
:10434000472000F01BFD27E6FFF7EEF9D6E7FFF761
:10435000EBF9EDE700380240000C0240001E00209F
:1043600028600240A01D002070600240001802403A
:10437000401D002028640240E01C0020A064024090
:1043800008B50B484FF0A0430360042303710222D9
:10439000C2710023837142728372C3720373837389
:1043A000C37301F096F800B908BDFFF7BDF9FBE74C
:1043B0003822002030B589B000230393049305937D
:1043C000069307930368B3F1A04F01D009B030BD45
:1043D00000250195124C236B43F001032363236BEB
:1043E00003F001030193019B4FF4C0530393022395
:1043F0000493032306930A23079303A9094800F0B3
:1044000023FF636B43F0800363630295636C43F4A3
:1044100080436364636C03F480430293029BD5E79B
:104420000038024000000240DFF834D0FFF7FEFB06
:104430000C480D490D4A002302E0D458C4500433FF
:10444000C4188C42F9D30A4A0A4C002301E01360D5
:104450000432A242FBD307F01FF8FFF7BDF9704703
:104460000000032000000020580B002038CB00087B
:10447000580B0020BC0E0220FEE7000008B50B4BD5
:104480001A6842F400721A601A6842F480621A6074
:104490001A6842F480721A60032000F04DFC0F206D
:1044A000FFF790FAFFF76CFA002008BD003C0240CD
:1044B000034A1168034B1B780B441360704700BF1D
:1044C0001C270020A8000020014B1868704700BF7F
:1044D0001C27002038B50446FFF7F6FF0546B4F167
:1044E000FF3F02D0044B1B781C44FFF7EDFF401B3D
:1044F000A042FAD338BD00BFA8000020002800F079
:10450000A18038B5044690F82030D3B122681368F2
:1045100043F001031360FFF7D7FF054623685A688D
:1045200012F0010F10D1FFF7CFFF401B0A28F5D979
:10453000636A43F400336362052384F8203001206A
:1045400038BDFEF775FDE1E71A6822F002021A6035
:10455000FFF7BAFF054623685A6812F0020F0DD024
:10456000FFF7B2FF401B0A28F5D9636A43F4003312
:104570006362052384F820300120E1E7227E012ACE
:104580003DD01A6822F080021A60637E012B3BD076
:104590002268136823F040031360A37E012B39D0F7
:1045A0002268136823F020031360E37E012B37D0C9
:1045B0002268136843F010031360237F012B35D06A
:1045C0002268136823F008031360637F012B33D044
:1045D0002268136823F004031360A368E26813439E
:1045E00022691343626913436268013A21681343E5
:1045F000CB6100206062012384F82030A0E71A68B4
:1046000042F080021A60C0E72268136843F040035A
:104610001360C2E72268136843F020031360C4E705
:104620002268136823F010031360C6E7226813683A
:1046300043F008031360C8E72268136843F00403DB
:104640001360CAE70120704790F82030013BDBB2CD
:10465000012B05D9436A43F480234362012070474C
:1046600030B5464BD3F8002242F00102C3F80022D5
:10467000D3F8002222F47C52C3F80022D3F800229F
:10468000486A42EA0022C3F800224A6902F01F0287
:10469000012000FA02F2D3F81C026FEA020C20EAB1
:1046A0000200C3F81C02CB69C3B9344BD3F80C0227
:1046B0000CEA0000C3F80C028C884869CD6844EA13
:1046C0000544483043F830408C68088840EA04408C
:1046D0004C6904F1480E03EBCE035860CB69012B03
:1046E0001ED08B69002B33D12448D0F804320CEA59
:1046F0000303C0F804320B698BBB2048D0F8143296
:104700000CEA0303C0F814320B6A012B2ED01B4AAB
:10471000D2F8003223F00103C2F80032002030BD8D
:10472000164BD3F80C021043C3F80C028C8848696E
:104730000D6844EA0544483043F8304088894C69A4
:104740008D6840EA0540483403EBC4035860C8E76D
:104750000A48D0F804321343C0F80432CBE70748C4
:10476000D0F814321343C0F81432CDE70349D1F81E
:104770001C321343C1F81C32C9E700BF006400407B
:1047800070B5044690F82050EDB2012D06D0436A72
:1047900043F4002343620125284670BD022380F8BC
:1047A00020300268136823F001031360FFF78CFECA
:1047B000064623685B6813F0010F0CD0FFF784FEF8
:1047C000831B0A2BF5D9636A43F400336362052324
:1047D00084F82030E0E700256562DDE730B590F829
:1047E00020C00468A4680CF1FF3C5FFA8CFCBCF1AB
:1047F000010F62D814F0E05F59D0C4F3016C0124BA
:1048000004FA0CF41C608B68002B3DD10D68CB685A
:10481000046843EA45550CF118031B01E550036891
:104820000C690CF1180E03EB0E135C600B7D012B71
:1048300035D0D17993791B0443EA0163517943EA76
:10484000012314790168234301EB0C11C1F88C3169
:10485000D17893781B0443EA0163517843EA01233A
:10486000117802680B4302EB0C12C2F8883102681F
:104870000CF1180C4FEA0C1C52F80C3043F00103F9
:1048800042F80C3000201DE04C6843EAC403CC68B9
:1048900023430CF11804240105682B51BFE703687A
:1048A00003EB0E13596841F480715960C1E7436A04
:1048B00043F400134362012004E0436A43F480237D
:1048C0004362012030BD90F820C00CF1FF3C5FFA3C
:1048D0008CFCBCF1010F00F2A58030B451B9046822
:1048E000E46814F0030F10D1436A43F400134362E9
:1048F00001207EE00468246914F0030F05D1436AA7
:1049000043F400134362012073E0056801F11B04C6
:1049100024012C5904F004049460002C6BD1056828
:1049200001F11B0424012C59640D1460046801F189
:104930001B0C4FEA0C1C54F80C4004F00204D46029
:104940000468A444DCF8045015F0080F5BD0082478
:104950001461046801F11B0C04EB0C146468C4F3CB
:1049600007249461046804EB0C146468240C5461FB
:10497000026802EB0112D2F8B8211A70026802EB49
:104980000112D2F8B821C2F307225A70026802EB72
:104990000112D2F8B821C2F307429A70026802EB02
:1049A0000112D2F8B821120EDA70026802EB01127D
:1049B000D2F8BC211A71026802EB0112D2F8BC21B4
:1049C000C2F307225A71026802EB0112D2F8BC212D
:1049D000C2F307429A71026802EB0112D2F8BC21BD
:1049E000120EDA71C1B90268D36843F02003D360B4
:1049F000002030BC7047056801F11B0424012C59CC
:104A0000E408546092E701F11B0504EB05146468A7
:104A100004F00F0414619CE70268136943F020035B
:104A20001361E5E7436A43F4802343620120704742
:104A300090F82030013BDBB2012B05D9436A43F4E7
:104A40008023436201207047026853690B4353611E
:104A50000020704770477047704770477047704735
:104A6000704770472DE9F84F054603685C69D3F835
:104A700004809F68D3F80CA0D3F81090D3F818B036
:104A800014F001063BD017F0010616D001229A60FF
:104A900017F0020F08D117F0040F0CD117F0080619
:104AA00006D04FF4805608E0FBF7D0FF002604E064
:104AB000FFF7D0FF01E04FF4006617F4807F0DD0C0
:104AC0002B684FF480729A6017F4007F40F0968054
:104AD00017F4806F00F0968046F4005617F4803F7C
:104AE0000DD02B684FF480329A6017F4003F40F0ED
:104AF000938017F4802F00F0938046F4004614F062
:104B0000080F07D01AF0100F04D046F400762B6877
:104B10001022DA6014F0040F03D01AF0080F40F0EE
:104B2000898014F0020F05D02B68DB6813F0030FA7
:104B300040F0878014F0400F07D019F0100F04D018
:104B400046F480662B6810221A6114F0200F02D000
:104B500019F0080F79D114F0100F04D02B681B69DD
:104B600013F0030F78D114F4003F02D018F0100FA7
:104B700076D114F4803F02D018F0080F77D114F4E6
:104B8000004F37D018F0040F31D014F4807F04D0D8
:104B90001BF0010F01D046F0010614F4007F04D091
:104BA0001BF0020F01D046F0020614F4806F04D00F
:104BB0001BF0040F01D046F0040614F4006F16D069
:104BC0001BF0700B13D0BBF1400F66D056D8BBF171
:104BD000200F5CD0BBF1300F5CD0BBF1100F01D1C6
:104BE00046F008062A68936923F0700393612B68E6
:104BF00004225A60002E56D1BDE8F88F2846FBF7F4
:104C000029FF6BE717F4006F02D046F4804665E792
:104C10002846FFF720FF61E72846FBF71FFF6EE7F6
:104C200017F4002F02D046F4803668E72846FFF7D5
:104C300013FF64E72B680822DA602846FFF70DFFB0
:104C40006FE72846FBF786FF74E72B6808221A6196
:104C50002846FFF703FF7EE72846FBF793FF82E72E
:104C60002B6810225A602846FFF7F9FE81E72B686F
:104C700008225A602846FFF7F3FE80E7BBF1500F89
:104C80000ED0BBF1600FADD146F48076AAE746F0B6
:104C90001006A7E746F02006A4E746F04006A1E785
:104CA00046F080069EE76B6A33436B622846FFF747
:104CB000D8FEA1E7002807DB00F01F02400901230E
:104CC0009340024A42F82030704700BF00E100E004
:104CD000002808DB0901C9B200F1604000F561401D
:104CE00080F80013704700F00F000901C9B2014BB2
:104CF0001954704714ED00E000B500F00700C0F152
:104D0000070CBCF1040F28BF4FF0040C031D062B49
:104D10000FD9C31E4FF0FF3E0EFA0CF021EA00013E
:104D200099400EFA03FE22EA0E0241EA02005DF803
:104D300004FB0023EEE70000074AD36823F4E06396
:104D40001B041B0C000200F4E060034343F0BF634C
:104D500043F40033D360704700ED00E010B5044623
:104D6000054BD868C0F30220FFF7C6FF0146204676
:104D7000FFF7AEFF10BD00BF00ED00E008B5FFF784
:104D800099FF08BD30B405682C6824F480242C6099
:104D9000046863608368402B05D0036899600368EA
:104DA000DA6030BC704703689A600368D960F8E73E
:104DB00010B40368D9B210390A4AA2FB01421209A1
:104DC000094CA25CC2655F2907D96FF3090304335C
:104DD0008365806D5DF8044B70476FF3090383654D
:104DE000F7E700BFABAAAAAA20BE0008836A8269BF
:104DF00092B9012B0AD0022B02D00BB100207047D0
:104E0000C36A13F0807F28D100207047C36AB3F1D2
:104E1000C07F24D000207047B2F5005F09D0022B7C
:104E200025D9032B25D1C36A13F0807F23D100201D
:104E30007047032B03D8DFE803F01404140A0020A2
:104E40007047C36A13F0807F0DD100207047C36A9A
:104E5000B3F1C07F09D000207047012070470120C6
:104E600070470120704701207047012070470120E2
:104E700070470020704701207047000070B504465D
:104E8000FFF722FB002C5BD00546022384F8353067
:104E9000002384F834302268136823F00103136080
:104EA00023681A6812F0010F0AD0FFF70DFB431BAD
:104EB000052BF5D920236365032084F8350070BDE8
:104EC0001A68204911406268A0680243E068024302
:104ED0002069024360690243A0690243E06902431A
:104EE000206A02430A43616A04291ED01A602668B8
:104EF000756925F00705636A1D43042B07D1A36A72
:104F00001D43E36A1BB12046FFF770FF90B975613E
:104F10002046FFF74DFFE26D3F2393408360002062
:104F20006065012384F83530C9E7E16A206B0143ED
:104F30000A43DBE740236365012084F83500BEE7C0
:104F40000120BCE73F8010F038B50446856D90F82D
:104F5000340001282BD0012084F8340094F8350067
:104F6000C0B2012804D0002384F83430022038BDB8
:104F7000022084F83500002060652046FFF702FF1C
:104F8000E26D3F239340AB602268136843F0160341
:104F90001360236C23B12268136843F00803136085
:104FA0002268136843F0010313600020DFE702204A
:104FB000DDE770B50446866DFFF786FA94F8353064
:104FC000DBB2022B06D080236365002384F83430E3
:104FD000012070BD05462268136823F01603136094
:104FE0002268536923F080035361236CE3B1226884
:104FF000136823F0080313602268136823F0010389
:10500000136023681B6813F0010F11D0FFF75CFADF
:10501000431B052BF5D920236365032084F8350055
:10502000002384F83430D4E7A36C002BDFD1E3E70E
:10503000E26D3F239340B360012384F835300020B4
:1050400084F83400C5E790F83530DBB2022B03D08A
:105050008023436501207047052380F835300268BE
:10506000136823F00103136000207047F0B583B08C
:10507000044600230193724B1D68724BA3FB053558
:10508000AD0A876D3E68C26D08239340334210D04D
:1050900003681A6812F0040F0BD01A6822F0040299
:1050A0001A60C26D08239340BB60436D43F0010357
:1050B0004365E26D01239340334209D0226852696F
:1050C00012F0800F04D0BB60636D43F00203636590
:1050D000E26D04239340334209D02268126812F033
:1050E000020F04D0BB60636D43F004036365E26D9F
:1050F00010239340334224D02268126812F0080F24
:105100001FD0BB6023681A6812F4802F0DD01B6873
:1051100013F4002F04D1236C9BB12046984710E074
:10512000A36C73B1204698470BE01A6812F4807F95
:1051300003D11A6822F008021A60236C0BB12046D2
:105140009847E26D20239340334255D0226812687D
:1051500012F0100F50D0BB6094F83530DBB2052B45
:105160000ED023681A6812F4802F33D01B6813F412
:10517000002F2AD1636C002B3ED0204698473BE09D
:105180002268136823F0160313602268536923F022
:1051900080035361236CA3B12268136823F00803D2
:1051A0001360E26D3F239340BB60012384F83530E8
:1051B000002384F83430236D002B3FD020469847DD
:1051C0003CE0A36C002BE7D1EBE7E36BA3B12046F7
:1051D000984711E01A6812F4807F09D11A6822F00A
:1051E00010021A60012384F83530002384F834302B
:1051F000E36B0BB120469847636DFBB1636D13F011
:10520000010F17D0052384F835302268136823F086
:1052100001031360019B01330193AB4204D823685F
:105220001B6813F0010FF5D1012384F835300023FA
:1052300084F83430E36C0BB12046984703B0F0BDDE
:10524000A4000020B5814E1B00230F2B00F2F68036
:1052500070B582B066E085684FEA430E032404FA15
:105260000EF425EA0405CC6804FA0EF42C4384609D
:10527000446824EA02044A68C2F300129A402243B6
:1052800042605DE0DC08083450F8242003F0070594
:10529000AD004FF00F0E0EFA05FE22EA0E0E0A695F
:1052A000AA4042EA0E0240F824205DE0092200E014
:1052B000002202FA0EF22A430234614D45F82420FE
:1052C000604A94686FEA0C0224EA0C054E6816F4F2
:1052D000801F01D04CEA04055A4CA560E46802EA3C
:1052E00004054E6816F4001F01D04CEA0405554C25
:1052F000E560646802EA04054E6816F4003F01D0D8
:105300004CEA04054F4C6560246822404D6815F452
:10531000803F01D04CEA04024A4C226001330F2B3B
:1053200000F28A8001229A400C6804EA020C32EAF8
:105330000404F3D14C6804F00304013C012C8AD925
:105340004A6802F00302032A09D0C4685D00032200
:10535000AA4024EA02048A68AA402243C2604A683A
:1053600002F00302022A8DD004684FEA430E0322A2
:1053700002FA0EF224EA02044A6802F0030202FA78
:105380000EF2224302604A6812F4403FC6D0002267
:1053900001922D4A546C44F480445464526C02F4DB
:1053A00080420192019A9C08A51C254A52F825507A
:1053B00003F0030E4FEA8E0E0F2202FA0EF225EAD8
:1053C0000205224A90423FF473AF02F58062904298
:1053D00022D002F58062904220D002F58062904295
:1053E0001ED002F5806290421CD002F5806290428D
:1053F0001AD002F58062904218D002F58062904285
:1054000016D002F58062904214D002F5806290427C
:105410003FF44CAF0A224CE701224AE7022248E758
:10542000032246E7042244E7052242E7062240E73A
:1054300007223EE708223CE702B070BD704700BF7C
:1054400000380140003C01400038024000000240AA
:105450000AB181617047090481617047436901EABB
:10546000030221EA030141EA02418161704740B32E
:1054700038B5044603684CF6CC421A60036845F21E
:1054800055521A60036842685A60036882689A60DD
:10549000FFF71AF805462368DA6812F0030F0BD0FD
:1054A000FFF712F8401B3128F5D92368DB6813F0A9
:1054B000030FF0D0032003E04AF6AA221A6000206E
:1054C00038BD0120704703684AF6AA221A600020FE
:1054D000704730B583B000287AD00446056890F84C
:1054E0009534C3B1032384F89534B5F1A04F17D098
:1054F000206801F012FF237C8DF80030231D0ECBB5
:10550000206801F0C1FE70B1022384F895340125B2
:10551000284603B030BD80F89434FEF74BFFE1E736
:105520000023A371E4E70021206802F027F8024677
:1055300008B9034617E0022384F895340125E7E70C
:1055400003EBC30104EB8101012048750B75CB858A
:1055500000200876C861086203EBC30104EB8101F7
:1055600048620133DBB220799842E9D816E002EBB9
:10557000C20304EB8303002183F8551283F85422FD
:1055800083F85812C3F85C12C3F8601202EBC2032E
:1055900004EB8303C3F864120132D2B29042E6D81E
:1055A000237C8DF80030231D0ECB206801F00AFF0C
:1055B000054620B1022384F895340125A8E700238D
:1055C0006374012384F89534206801F0C5FF9FE7D8
:1055D00001259DE7002800F0E08170B582B0044607
:1055E000036813F0010F3BD09F4B9B6803F00C0343
:1055F000042B2CD09C4B9B6803F00C03082B21D070
:105600006368B3F5803F4FD0B3F5A02F52D0964BCF
:105610001A6822F480321A601A6822F480221A6012
:105620006368002B50D0FEF74FFF05468E4B1B687A
:1056300013F4003F14D1FEF747FF401B6428F5D94F
:105640000320B1E1884B5B6813F4800FD8D0864B00
:105650001B6813F4003F03D06368002B00F09F81A8
:10566000236813F0020F54D07F4B9B6813F00C0F8C
:105670003ED07D4B9B6803F00C03082B33D0E368CE
:10568000002B68D0794B01221A60FEF71DFF0546FA
:10569000754B1B6813F0020F54D1FEF715FF401B2A
:1056A0000228F5D903207FE16F4A136843F4803361
:1056B0001360B5E76C4B1A6842F480221A601A68CE
:1056C00042F480321A60ABE7FEF7FEFE0546664BF9
:1056D0001B6813F4003FC3D0FEF7F6FE401B64289E
:1056E000F5D9032060E1604B5B6813F4800FC6D1ED
:1056F0005D4B1B6813F0020F03D0E368012B40F0F1
:105700005081594A136823F0F803216943EAC10321
:105710001360236813F0080F42D063696BB3534BD7
:105720000122C3F8802EFEF7CFFE05464E4B5B6F7D
:1057300013F0020F34D1FEF7C7FE401B0228F5D943
:10574000032031E1484A136823F0F803216943EA52
:10575000C1031360DDE7454B00221A60FEF7B4FE7B
:105760000546414B1B6813F0020FD2D0FEF7ACFE8A
:10577000401B0228F5D9032016E13C4B0022C3F858
:10578000802EFEF7A1FE0546374B5B6F13F0020F2C
:1057900006D0FEF799FE401B0228F5D9032003E14D
:1057A000236813F0040F77D02F4B1B6C13F0805F2E
:1057B00033D1002301932C4B1A6C42F080521A64AF
:1057C0001B6C03F080530193019B0125284B1B6840
:1057D00013F4807F23D0A368012B34D0052B38D05D
:1057E000214B1A6F22F001021A671A6F22F004028D
:1057F0001A67A368002B3DD0FEF766FE06461A4BDB
:105800001B6F13F0020F46D1FEF75EFE801B41F2C4
:1058100088339842F3D90320C6E00025D6E7144A1E
:10582000136843F480731360FEF74EFE0646104B78
:105830001B6813F4807FCED1FEF746FE801B022842
:10584000F5D90320B0E0084A136F43F00103136752
:10585000CFE7054B1A6F42F004021A671A6F42F045
:1058600001021A67C5E700BF003802400000474246
:1058700000700040FEF728FE0646524B1B6F13F0E7
:10588000020F08D0FEF720FE801B41F288339842B9
:10589000F3D9032088E0EDB9A369002B00F08380E1
:1058A000484A926802F00C02082A51D0022B17D005
:1058B000454B00221A66FEF707FE0446414B1B6863
:1058C00013F0007F42D0FEF7FFFD001B0228F5D940
:1058D000032069E03B4A136C23F080531364DBE739
:1058E000394B00221A66FEF7EFFD0546354B1B6863
:1058F00013F0007F06D0FEF7E7FD401B0228F5D924
:10590000032051E0E369226A1343626A43EA821387
:10591000A26A5208013A43EA0243E26A43EA026396
:10592000284A5360284B01221A66FEF7CDFD044633
:10593000244B1B6813F0007F06D1FEF7C5FD001B4A
:105940000228F5D903202FE000202DE000202BE0D5
:10595000012B2BD01B4B5B6803F48001E269914261
:1059600026D103F03F02216A8A4223D1616A47F6B9
:10597000C0721A40B2EB811F1ED103F44031A26AFB
:105980005208013AB1EB024F18D103F07063E26A9A
:10599000B3EB026F14D1002006E001207047012014
:1059A00002E0012000E0002002B070BD0120FBE712
:1059B0000120F9E70120F7E70120F5E70120F3E7EF
:1059C0000120F1E7003802400000474208B5264BAD
:1059D0009B6803F00C03042B41D0082B41D1224BD0
:1059E0005A6802F03F025B6813F4800F12D01E4B1E
:1059F0005968C1F388111D480023A1FB0001FAF783
:105A00001BFE194B5B68C3F3014301335B00B0FB22
:105A1000F3F008BD144B5868C0F388104FEA401CDF
:105A2000BCEB000C6EEB0E0E4FEA8E1343EA9C6348
:105A30004FEA8C11B1EB0C0163EB0E03DB0043EA80
:105A40005173C90011EB000C43F1000399020023CC
:105A50004FEA8C2041EA9C51FAF7EEFDD1E703486A
:105A6000D7E70348D5E700BF00380240001BB70066
:105A70000024F400002800F09B8070B50D46044619
:105A80004F4B1B6803F00F038B4208D2CBB24C4A3A
:105A90001370136803F00F038B4240F08B80236870
:105AA00013F0020F17D013F0040F04D0454A936887
:105AB00043F4E0539360236813F0080F04D0414A85
:105AC000936843F4604393603E4A936823F0F00385
:105AD000A1680B439360236813F0010F32D0636811
