:020000040800F2
:1000000000000320750A00082109000823090008E0
:100010002509000827090008290900080000000038
:100020000000000000000000000000008126000821
:100030002B090008000000002127000855220008B5
:10004000C50A0008C50A0008C50A0008C50A000854
:10005000C50A0008C50A0008C50A0008C50A000844
:10006000C50A0008C50A0008C50A0008C50A000834
:10007000C50A0008C50A0008C50A0008C50A000824
:10008000C50A0008C50A0008C50A0008C50A000814
:10009000C50A0008C50A0008C50A0008C50A000804
:1000A000C50A0008C50A0008C50A0008C50A0008F4
:1000B000C50A0008C50A0008C50A0008C50A0008E4
:1000C000C50A0008C50A0008C50A0008C50A0008D4
:1000D000C50A00082D090008C50A0008C50A00085D
:1000E000C50A0008C50A0008C50A0008C50A0008B4
:1000F000C50A0008C50A0008C50A0008C50A0008A4
:10010000C50A0008C50A0008C50A0008C50A000893
:10011000C50A0008C50A0008C50A00083D0900080C
:10012000C50A0008C50A00084D090008C50A0008EC
:10013000C50A0008C50A0008C50A0008C50A000863
:10014000C50A0008C50A0008C50A0008C50A000853
:10015000C50A0008C50A0008C50A0008C50A000843
:10016000C50A0008C50A0008C50A0008C50A000833
:10017000C50A0008C50A0008C50A000800000000FA
:10018000C50A0008C50A0008C50A0008C50A000813
:10019000C50A0008C50A0008C50A0008C50A000803
:0C01A0000000000000000000C50A00087C
:1001B00053B94AB9002908BF00281CBF4FF0FF31CE
:1001C0004FF0FF3000F00CB8ADF1080C6DE904CE33
:1001D00004F028FADDF804E0DDE9022304B07047FA
:1001E000704700BF844641EA000313F003036DD15A
:1001F000403A41D351F8043B40F8043B51F8043BEA
:1002000040F8043B51F8043B40F8043B51F8043BF0
:1002100040F8043B51F8043B40F8043B51F8043BE0
:1002200040F8043B51F8043B40F8043B51F8043BD0
:1002300040F8043B51F8043B40F8043B51F8043BC0
:1002400040F8043B51F8043B40F8043B51F8043BB0
:1002500040F8043B51F8043B40F8043B51F8043BA0
:1002600040F8043B51F8043B40F8043B51F8043B90
:1002700040F8043B403ABDD2303211D351F8043B30
:1002800040F8043B51F8043B40F8043B51F8043B70
:1002900040F8043B51F8043B40F8043B103AEDD2DF
:1002A0000C3205D351F8043B40F8043B043AF9D230
:1002B000043208D0D2071CBF11F8013B00F8013B03
:1002C00001D30B8803806046704700BF082A13D310
:1002D0008B078DD010F003038AD0C3F10403D21A28
:1002E000DB071CBF11F8013B00F8013B80D331F85C
:1002F000023B20F8023B7BE7043AD9D3013A11F8DC
:10030000013B00F8013BF9D20B7803704B78437046
:100310008B788370604670470348044B834202D059
:10032000034B03B11847704714000020140000204D
:10033000000000000548064B1B1AD90F01EBA30172
:10034000491002D0034B03B1184770471400002036
:10035000140000200000000010B5064C237843B9BB
:10036000FFF7DAFF044B13B10448AFF30080012319
:10037000237010BD1400002000000000A44A0008F3
:1003800008B5054B1BB105490548AFF30080BDE832
:100390000840FFF7CFBF00BF00000000180000209A
:1003A000A44A0008014B00225A7170473000002017
:1003B000034B5B79C72B02D80133014A5371704755
:1003C00030000020054B5B79962B03D9034B0022AC
:1003D0001A717047014B01221A71704730000020DA
:1003E00038B52DED028B02F05DF9804C04F1440C20
:1003F00004F1180EBEE80F00ACE80F00BEE80F00D5
:10040000ACE80F009EE807008CE80700E3884FF493
:10041000806262F30A03E380E37903F00703E37188
:10042000237A23F03F0343F020032372238903F050
:100430003F032381A37A43F00103A372638962F32C
:100440004B0363812546002345F8203FB7EE000AA1
:10045000284604F0D2F8E279237A03F03F035B01E7
:1004600043EAD20307EE903AF8EE677ADFED608A4E
:1004700077EEE87A9FED5F8A87EE887A204624300F
:1004800080ED007AB7EE000A04F0B7F8A368C3F372
:100490008A1307EE903AF8EE677A77EEE87A87EEFD
:1004A000887A84ED067AB7EE000AA5F1080004F018
:1004B000A4F86389C3F34A0307EE903AF8EE677A2B
:1004C00077EEE87A87EE887A20461C3080ED007A55
:1004D000B7EE000A04F091F8E37AC3F3811284F8CE
:1004E0002820C3F3011384F82930B4F90C3007EE47
:1004F000903AF8EEE77A9FED408AC7EE887A17EED9
:10050000903A204640F82A3FB7EE000A04F075F80A
:10051000B4F90E3007EE903AF8EEE77AC7EE887A33
:1005200017EE903A204640F82E3FB7EE000A04F04E
:1005300064F8B4F9103007EE903AF8EEE77AB3EECB
:10054000047AC7EE877A17EE903A204640F8323F99
:10055000B7EE000A04F051F8E37C84F83730A37C4E
:1005600084F83630A38A238703BBE38EF3B9D4F82B
:100570002A3007EE903AF5EE407AF1EE10FA15D1F6
:10058000D4F82E3007EE903AF5EE407AF1EE10FAFC
:100590000CD1D4F8323007EE903AF5EE407AF1EE15
:1005A00010FA03D1002284F8402003E00F4B01220F
:1005B00083F840200D48C38A07EE903AF8EE677A38
:1005C000F1EE677A9FED0A7A77EEC77ADFED096A76
:1005D00087EEA67A3C3080ED007AB7EE000A04F090
:1005E0000CF802F081F8BDEC028B38BD3000002021
:1005F00000008044000025440000FA4308B5024B87
:10060000186801F05AFF08BDA400002010B5064C80
:1006100006482060064901F057FC00212171054B76
:10062000186801F016FF10BD3000002058010020AE
:10063000FD050008A400002008B5FFF7E7FF08E06B
:10064000FFF7B0FEFFF7CCFEFFF7BCFE012001F084
:1006500099FE1421054B186801F0FBFE044B18604D
:100660000028EDD0FFF7A4FEEEE700BFA4000020B5
:10067000A000002000B583B000220192094B196B45
:1006800041F4800119631B6B03F480030193019B08
:1006900005213A2000F098FA3A2000F0A5FA03B0BC
:1006A0005DF804FB0038024008B5012001F06AFE45
:1006B000FBE7000008B50B4A0121084601F070FE77
:1006C000094B1860094A0021094801F0FDFD094B5A
:1006D0001860094A0021094801F0F6FD084B18602E
:1006E00008BD00BF044B0008A4000020384B0008E0
:1006F000A9060008AC000020144B000839060008C9
:10070000A800002084B000220192104B196B41F028
:1007100001011963196B01F0010101910199029224
:10072000196B41F002011963196B01F0020102918A
:10073000029903921A6B42F080021A631B6B03F05A
:1007400080030393039B04B0704700BF003802404E
:1007500008B50268034B9A4200D008BD00F0CEF9FC
:10076000FBE700BF0014004072B6FEE700B595B08D
:100770003022002108A804F0B3F800230393049367
:100780000593069307930193204A116C41F0805121
:100790001164126C02F080520192019A02931C4B78
:1007A0001A6842F440421A601B6803F44043029303
:1007B000029B012308934FF48033099302230E9385
:1007C0004FF480020F9206221092A82211921293E7
:1007D0000423139308A800F027FD98B90F2303936F
:1007E00002230493002305934FF4A05306934FF480
:1007F00080530793052103A800F066FF20B915B0C8
:100800005DF804FBFFF7B0FFFFF7AEFF00380240D2
:100810000070004008B500F057F9FFF7A7FFFFF799
:1008200071FFFFF727FF00F0A3F801F01FFDFFF7AE
:1008300041FF01F02DFDFEE700B583B000220092DC
:100840000D4B596C41F480415964596C01F480415D
:10085000009100990192196C41F0805119641B6C50
:1008600003F080530193019B0F216FF0010000F012
:10087000ABF903B05DF804FB0038024030B589B035
:10088000044600230193214B1A6C42F020021A64A3
:100890001B6C03F020030193019B02A903A800F045
:1008A000E9FF069BCBB900F0C5FF0346184AA2FB3F
:1008B00003239B0C013B1748174A026040F2E732C2
:1008C000C2604360002303618360836101F056F9D5
:1008D000054630B1284609B030BD00F0ABFF4300FB
:1008E000E4E70C4800F0E6FF05460028F2D1372087
:1008F00000F07AF90F2C01D90125EBE700222146FF
:10090000372000F061F9054B1C60E3E70038024036
:1009100083DE1B43B00000200014004008000020CC
:10092000FEE7FEE7FEE7FEE7FEE7704708B5024890
:1009300001F0ECFA08BD00BF5801002008B50248DC
:1009400001F000F808BD00BFB000002008B5024863
:1009500000F078FA08BD00BFF8000020034AD2F882
:10096000883043F47003C2F88830704700ED00E02F
:1009700008B50C480C4B03600C4B43604FF480539C
:1009800083600023C3604FF4806202610C224261E5
:100990008361C36101F022FC00B908BDFFF7E4FEEA
:1009A000FBE700BF5801002000100140A0860100B5
:1009B00030B589B0002303930493059306930793FE
:1009C000026803F1804303F588339A4201D009B0ED
:1009D00030BD04460025019503F594335A6C42F06E
:1009E00010025A645A6C02F010020192019A0295A8
:1009F0001A6B42F002021A631B6B03F002030293AC
:100A0000029BC0230393022304930323069307232B
:100A1000079303A9144800F003FB1448144B036028
:100A20004FF0006343608560C5604FF480630361ED
:100A3000456185614FF48073C3614FF400330362F5
:100A4000456200F03BF958B9084BE3639C63002210
:100A50000521252000F0B8F8252000F0C5F8B6E7FC
:100A6000FFF782FEF0E700BF00040240F80000201C
:100A700040640240DFF834D0FFF770FF0C480D49A6
:100A80000D4A002302E0D458C4500433C4188C42E9
:100A9000F9D30A4A0A4C002301E013600432A2424F
:100AA000FBD303F06FFFFFF7B5FE70470000032094
:100AB0000000002014000020904B000814000020CB
:100AC000BC4C0020FEE7000008B50B4B1A6842F44E
:100AD00000721A601A6842F480621A601A6842F45E
:100AE00080721A60032000F05DF80F20FFF7C6FE49
:100AF000FFF7A2FE002008BD003C0240034A116837
:100B0000034B1B780B441360704700BFD0010020DB
:100B100004000020014B1868704700BFD00100207E
:100B2000002807DB00F01F02400901239340024A1E
:100B300042F82030704700BF00E100E0002808DBE9
:100B40000901C9B200F1604000F5614080F800136E
:100B5000704700F00F000901C9B2014B19547047EA
:100B600014ED00E000B500F00700C0F1070CBCF187
:100B7000040F28BF4FF0040C031D062B0FD9C31E12
:100B80004FF0FF3E0EFA0CF021EA000199400EFAF8
:100B900003FE22EA0E0241EA02005DF804FB002394
:100BA000EEE70000074AD36823F4E0631B041B0C44
:100BB000000200F4E060034343F0BF6343F40033FA
:100BC000D360704700ED00E010B50446054BD868CF
:100BD000C0F30220FFF7C6FF01462046FFF7AEFF35
:100BE00010BD00BF00ED00E008B5FFF799FF08BD9C
:100BF00010B40368D9B210390A4AA2FB01421209A3
:100C0000094CA25CC2655F2907D96FF3090304335D
:100C10008365806D5DF8044B70476FF3090383654E
:100C2000F7E700BFABAAAAAA744B0008836A8269DF
:100C300092B9012B0AD0022B02D00BB100207047D1
:100C4000C36A13F0807F28D100207047C36AB3F1D4
:100C5000C07F24D000207047B2F5005F09D0022B7E
:100C600025D9032B25D1C36A13F0807F23D100201F
:100C70007047032B03D8DFE803F01404140A0020A4
:100C80007047C36A13F0807F0DD100207047C36A9C
:100C9000B3F1C07F09D000207047012070470120C8
:100CA00070470120704701207047012070470120E4
:100CB00070470020704701207047000070B504465F
:100CC000FFF728FF002C5BD00546022384F835305F
:100CD000002384F834302268136823F00103136082
:100CE00023681A6812F0010F0AD0FFF713FF431BA5
:100CF000052BF5D920236365032084F8350070BDEA
:100D00001A68204911406268A0680243E068024303
:100D10002069024360690243A0690243E06902431B
:100D2000206A02430A43616A04291ED01A602668B9
:100D3000756925F00705636A1D43042B07D1A36A73
:100D40001D43E36A1BB12046FFF770FF90B9756140
:100D50002046FFF74DFFE26D3F2393408360002064
:100D60006065012384F83530C9E7E16A206B0143EF
:100D70000A43DBE740236365012084F83500BEE7C2
:100D80000120BCE73F8010F070B50446866DFFF788
:100D9000C1FE94F83530DBB2022B06D080236365A8
:100DA000002384F83430012070BD054622681368A2
:100DB00023F0160313602268536923F08003536104
:100DC000236CE3B12268136823F0080313602268E0
:100DD000136823F00103136023681B6813F0010FED
:100DE00011D0FFF797FE431B052BF5D92023636530
:100DF000032084F83500002384F83430D4E7A36C52
:100E0000002BDFD1E3E7E26D3F239340B360012382
:100E100084F83530002084F83400C5E790F8353088
:100E2000DBB2022B03D080234365012070470523EA
:100E300080F835300268136823F001031360002046
:100E400070470000F0B583B0044600230193724B55
:100E50001D68724BA3FB0535AD0A876D3E68C26DF8
:100E600008239340334210D003681A6812F0040F2D
:100E70000BD01A6822F004021A60C26D0823934056
:100E8000BB60436D43F001034365E26D0123934072
:100E9000334209D02268526912F0800F04D0BB603F
:100EA000636D43F002036365E26D042393403342B4
:100EB00009D02268126812F0020F04D0BB60636D83
:100EC00043F004036365E26D10239340334224D062
:100ED0002268126812F0080F1FD0BB6023681A68DE
:100EE00012F4802F0DD01B6813F4002F04D1236C53
:100EF0009BB12046984710E0A36C73B120469847F9
:100F00000BE01A6812F4807F03D11A6822F00802FD
:100F10001A60236C0BB120469847E26D2023934062
:100F2000334255D02268126812F0100F50D0BB60C7
:100F300094F83530DBB2052B0ED023681A6812F412
:100F4000802F33D01B6813F4002F2AD1636C002B41
:100F50003ED0204698473BE02268136823F01603F2
:100F600013602268536923F080035361236CA3B19B
:100F70002268136823F008031360E26D3F23934057
:100F8000BB60012384F83530002384F83430236DAE
:100F9000002B3FD0204698473CE0A36C002BE7D1C4
:100FA000EBE7E36BA3B12046984711E01A6812F40F
:100FB000807F09D11A6822F010021A60012384F898
:100FC0003530002384F83430E36B0BB1204698476A
:100FD000636DFBB1636D13F0010F17D0052384F827
:100FE00035302268136823F001031360019B01333D
:100FF0000193AB4204D823681B6813F0010FF5D1AD
:10100000012384F83530002384F83430E36C0BB1CD
:101010002046984703B0F0BD00000020B5814E1B6C
:1010200000230F2B00F2F68070B582B066E0856871
:101030004FEA430E032404FA0EF425EA0405CC68B3
:1010400004FA0EF42C438460446824EA02044A68DB
:10105000C2F300129A40224342605DE0DC0808348B
:1010600050F8242003F00705AD004FF00F0E0EFAE4
:1010700005FE22EA0E0E0A69AA4042EA0E0240F874
:1010800024205DE0092200E0002202FA0EF22A4349
:101090000234614D45F82420604A94686FEA0C02DE
:1010A00024EA0C054E6816F4801F01D04CEA0405B2
:1010B0005A4CA560E46802EA04054E6816F4001F65
:1010C00001D04CEA0405554CE560646802EA040569
:1010D0004E6816F4003F01D04CEA04054F4C6560A1
:1010E000246822404D6815F4803F01D04CEA040288
:1010F0004A4C226001330F2B00F28A8001229A4071
:101100000C6804EA020C32EA0404F3D14C6804F0DF
:101110000304013C012C8AD94A6802F00302032A25
:1011200009D0C4685D000322AA4024EA02048A6848
:10113000AA402243C2604A6802F00302022A8DD00C
:1011400004684FEA430E032202FA0EF224EA020474
:101150004A6802F0030202FA0EF2224302604A6871
:1011600012F4403FC6D0002201922D4A546C44F440
:1011700080445464526C02F480420192019A9C08AB
:10118000A51C254A52F8255003F0030E4FEA8E0E97
:101190000F2202FA0EF225EA0205224A90423FF49B
:1011A00073AF02F58062904222D002F580629042D5
:1011B00020D002F5806290421ED002F580629042FB
:1011C0001CD002F5806290421AD002F580629042F3
:1011D00018D002F58062904216D002F580629042EB
:1011E00014D002F5806290423FF44CAF0A224CE7E3
:1011F00001224AE7022248E7032246E7042244E7A5
:10120000052242E7062240E707223EE708223CE7A4
:1012100002B070BD704700BF00380140003C014083
:101220000038024000000240002800F0E08170B564
:1012300082B00446036813F0010F3BD09F4B9B68BC
:1012400003F00C03042B2CD09C4B9B6803F00C0385
:10125000082B21D06368B3F5803F4FD0B3F5A02FA2
:1012600052D0964B1A6822F480321A601A6822F41F
:1012700080221A606368002B50D0FFF74BFC0546B4
:101280008E4B1B6813F4003F14D1FFF743FC401B47
:101290006428F5D90320B1E1884B5B6813F4800F13
:1012A000D8D0864B1B6813F4003F03D06368002B33
:1012B00000F09F81236813F0020F54D07F4B9B688E
:1012C00013F00C0F3ED07D4B9B6803F00C03082BF2
:1012D00033D0E368002B68D0794B01221A60FFF706
:1012E00019FC0546754B1B6813F0020F54D1FFF72C
:1012F00011FC401B0228F5D903207FE16F4A1368D7
:1013000043F480331360B5E76C4B1A6842F48022D3
:101310001A601A6842F480321A60ABE7FFF7FAFBF2
:101320000546664B1B6813F4003FC3D0FFF7F2FB82
:10133000401B6428F5D9032060E1604B5B6813F41F
:10134000800FC6D15D4B1B6813F0020F03D0E3681A
:10135000012B40F05081594A136823F0F8032169AA
:1013600043EAC1031360236813F0080F42D0636996
:101370006BB3534B0122C3F8802EFFF7CBFB05461E
:101380004E4B5B6F13F0020F34D1FFF7C3FB401BD2
:101390000228F5D9032031E1484A136823F0F80305
:1013A000216943EAC1031360DDE7454B00221A605F
:1013B000FFF7B0FB0546414B1B6813F0020FD2D07C
:1013C000FFF7A8FB401B0228F5D9032016E13C4B90
:1013D0000022C3F8802EFFF79DFB0546374B5B6F5D
:1013E00013F0020F06D0FFF795FB401B0228F5D93A
:1013F000032003E1236813F0040F77D02F4B1B6CFD
:1014000013F0805F33D1002301932C4B1A6C42F010
:1014100080521A641B6C03F080530193019B0125D9
:10142000284B1B6813F4807F23D0A368012B34D092
:10143000052B38D0214B1A6F22F001021A671A6F60
:1014400022F004021A67A368002B3DD0FFF762FB6D
:1014500006461A4B1B6F13F0020F46D1FFF75AFBDB
:10146000801B41F288339842F3D90320C6E000255F
:10147000D6E7144A136843F480731360FFF74AFBFE
:101480000646104B1B6813F4807FCED1FFF742FB5A
:10149000801B0228F5D90320B0E0084A136F43F0FF
:1014A00001031367CFE7054B1A6F42F004021A6776
:1014B0001A6F42F001021A67C5E700BF0038024008
:1014C0000000474200700040FFF724FB0646524BE5
:1014D0001B6F13F0020F08D0FFF71CFB801B41F2BB
:1014E00088339842F3D9032088E0EDB9A369002B33
:1014F00000F08380484A926802F00C02082A51D01A
:10150000022B17D0454B00221A66FFF703FB044657
:10151000414B1B6813F0007F42D0FFF7FBFA001B22
:101520000228F5D9032069E03B4A136C23F080536D
:101530001364DBE7394B00221A66FFF7EBFA054626
:10154000354B1B6813F0007F06D0FFF7E3FA401B12
:101550000228F5D9032051E0E369226A1343626A45
:1015600043EA8213A26A5208013A43EA0243E26A5A
:1015700043EA0263284A5360284B01221A66FFF7A8
:10158000C9FA0446244B1B6813F0007F06D1FFF70D
:10159000C1FA001B0228F5D903202FE000202DE01E
:1015A00000202BE0012B2BD01B4B5B6803F4800148
:1015B000E269914226D103F03F02216A8A4223D197
:1015C000616A47F6C0721A40B2EB811F1ED103F464
:1015D0004031A26A5208013AB1EB024F18D103F030
:1015E0007063E26AB3EB026F14D1002006E00120C1
:1015F0007047012002E0012000E0002002B070BD31
:101600000120FBE70120F9E70120F7E70120F5E7DA
:101610000120F3E70120F1E70038024000004742D3
:1016200008B5264B9B6803F00C03042B41D0082B14
:1016300041D1224B5A6802F03F025B6813F4800FDD
:1016400012D01E4B5968C1F388111D480023A1FB1D
:101650000001FEF7ADFD194B5B68C3F30143013395
:101660005B00B0FBF3F008BD144B5868C0F3881062
:101670004FEA401CBCEB000C6EEB0E0E4FEA8E13D3
:1016800043EA9C634FEA8C11B1EB0C0163EB0E0350
:10169000DB0043EA5173C90011EB000C43F1000376
:1016A000990200234FEA8C2041EA9C51FEF780FD0D
:1016B000D1E70348D7E70348D5E700BF0038024029
:1016C000001BB7000024F400002800F09B8070B5D8
:1016D0000D4604464F4B1B6803F00F038B4208D2A4
:1016E000CBB24C4A1370136803F00F038B4240F0E7
:1016F0008B80236813F0020F17D013F0040F04D06F
:10170000454A936843F4E0539360236813F0080F4D
:1017100004D0414A936843F4604393603E4A93681F
:1017200023F0F003A1680B439360236813F0010FCB
:1017300032D06368012B21D09A1E012A25D9364A5E
:10174000126812F0020F61D033498A6822F0030256
:1017500013438B60FFF7DEF906462F4B9B6803F0BF
:101760000C036268B3EB820F16D0FFF7D3F9801B2E
:1017700041F288339842F0D9032042E0264A1268A9
:1017800012F4003FE0D101203BE0234A126812F03E
:10179000007FD9D1012034E01E4B1B6803F00F03FA
:1017A000AB4207D9EAB21B4B1A701B6803F00F0358
:1017B000AB422DD1236813F0040F06D0164A93686C
:1017C00023F4E053E1680B439360236813F0080FA0
:1017D00007D0114A936823F46043216943EAC103A7
:1017E0009360FFF71DFF0C4B9B68C3F303130B4A79
:1017F000D35CD8400A4B18600A4B1868FFF73EF8D4
:10180000002070BD012070470120FAE70120F8E7B1
:101810000120F6E7003C024000380240644B00081B
:101820000000002008000020014B1868704700BF2E
:101830000000002008B5FFF7F7FF044B9B68C3F3D7
:101840008223034AD35CD84008BD00BF0038024061
:101850005C4B000808B5FFF7E7FF044B9B68C3F338
:101860004233034AD35CD84008BD00BF0038024071
:101870005C4B00080F2303600B4B9A6802F00302D5
:1018800042609A6802F0F00282609A6802F4E052C4
:10189000C2609B68DB0803F4E0530361034B1B68E1
:1018A00003F00F030B60704700380240003C024019
:1018B0007047000090F83D30DBB2012B37D1022396
:1018C00080F83D300268D36843F00103D3600368B9
:1018D000194A934220D0B3F1804F1DD0A2F57C422B
:1018E000934219D002F58062934215D002F58062CE
:1018F000934211D002F5784293420DD002F5705216
:10190000934209D0A2F59432934205D01A6842F06E
:1019100001021A60002070479A6802F00702062A46
:1019200007D01A6842F001021A60002070470120B7
:1019300070470020704700BF0000014070477047AB
:101940007047704770B504460368DE681D6915F07E
:10195000020F10D016F0020F0DD06FF002021A61C4
:101960000123037703689B6913F0030F5ED0FFF731
:10197000E6FF0023237715F0040F12D016F0040FB2
:101980000FD023686FF004021A61022323772368C3
:101990009B6913F4407F4FD02046FFF7D0FF002310
:1019A000237715F0080F12D016F0080F0FD0236818
:1019B0006FF008021A61042323772368DB6913F0B0
:1019C000030F40D02046FFF7BAFF0023237715F01E
:1019D000100F12D016F0100F0FD023686FF0100206
:1019E0001A61082323772368DB6913F4407F31D021
:1019F0002046FFF7A4FF0023237715F0010F02D044
:101A000016F0010F2DD115F0800F02D016F0800FC7
:101A10002FD115F0400F02D016F0400F31D115F044
:101A2000200F02D016F0200F33D170BDFFF786FFD4
:101A30002046FFF785FF9CE72046FFF77FFF204603
:101A4000FFF77EFFABE72046FFF778FF2046FFF762
:101A500077FFBAE72046FFF771FF2046FFF770FFD8
:101A6000C9E723686FF001021A612046FEF770FE95
:101A7000C9E723686FF080021A61204600F0ABF8D6
:101A8000C7E723686FF040021A612046FFF759FF4D
:101A9000C5E723686FF020021A61204600F09AF82B
:101AA000C3E700000368344A904212D0B0F1804F7F
:101AB0000FD0A2F57C4290420BD002F5806290429A
:101AC00007D002F58062904203D002F5784290423E
:101AD00003D123F070034A681343274A90422AD067
:101AE000B0F1804F27D0A2F57C42904223D002F57E
:101AF000806290421FD002F5806290421BD002F5B6
:101B00007842904217D002F57052904213D002F5FD
:101B1000806290420FD002F5806290420BD0A2F515
:101B20009832904207D002F58062904203D002F5CD
:101B30008062904203D123F44073CA68134323F0B8
:101B400080034A69134303608B68C3620B68836236
:101B5000094B984203D003F58063984201D10B6989
:101B6000036301234361036913F0010F03D0036989
:101B700023F00103036170470000014040B310B53A
:101B8000044690F83D30F3B1022384F83D302146FD
:101B900051F8040BFFF786FF012384F8463084F8E0
:101BA0003E3084F83F3084F8403084F8413084F887
:101BB000423084F8433084F8443084F8453084F867
:101BC0003D30002010BD80F83C30FFF771FEDBE7B0
:101BD00001207047704770477047704770477047E3
:101BE00070477047704770477047026802F10C03F6
:101BF00053E8003F23F490730C3242E8003100298F
:101C0000F3D1026802F1140353E8003F23F001030B
:101C1000143242E800310029F3D1036B012B05D0C7
:101C2000202380F84230002303637047026802F1EA
:101C30000C0353E8003F23F010030C3242E800315C
:101C40000029F3D1ECE708B5806B0023C385C3847A
:101C5000836D984708BD90F84130DBB2212B01D04D
:101C6000022070478368B3F5805F17D0036A5A1C5F
:101C700002621A7803685A60C38C9BB2013B9BB224
:101C8000C3844BB90268D36823F08003D360026831
:101C9000D36843F04003D360002070470369002BF2
:101CA000E4D1036A1B880268C3F308035360036A24
:101CB00002330362E0E708B50168CA6822F0400217
:101CC000CA60202280F84120C36C9847002008BDDC
:101CD00090F84230DBB2222B69D18368B3F5805F84
:101CE00034D0826AB3F5805F04D0002B3BD1036906
:101CF000002B38D103685B681370836A01338362F9
:101D0000C38D9BB2013B9BB2C385002B51D100B563
:101D100083B00268D36823F02003D3600268D368DD
:101D200023F48073D3600268536923F00103536185
:101D3000202380F8423000234363036B012B18D02B
:101D4000436D9847002003B05DF804FB0269002A48
:101D5000C7D1826A03685B68C3F308031380836A90
:101D600002338362CCE703685B6803F07F03137080
:101D7000C3E700230363026802F10C0353E8003F4A
:101D800023F010030C3242E800310029F3D103683C
:101D90001A6812F0100F06D0002201921A68019200
:101DA0005B680193019BC36E818D9847CAE702204F
:101DB000704700207047000010B5044602681369A0
:101DC00023F44053C1680B431361836802691A43CB
:101DD00043691A43C3691A430168CB6823F4164365
:101DE00023F00C031343CB600268536923F4407360
:101DF00081690B4353610368314A934206D002F56F
:101E00008062934202D0FFF715FD01E0FFF722FD4B
:101E1000E369B3F5004F29D00021031849411B188D
:101E200041F10001C90041EA5371DB0018186368F1
:101E30004FEA83024FEA937341F10001FEF7B8F9CC
:101E4000204AA2FB00314909642303FB11031B0153
:101E50003233A2FB03235B0903F0F00202EB011211
:101E600003F00F03216813448B6010BD0023021898
:101E700043EB0301121841F10001C90041EA52711C
:101E8000D200101841F10001626892185B41FEF720
:101E90008FF90C4AA2FB00314909642303FB1103AB
:101EA000DB003233A2FB03235B095A0002F4F87211
:101EB00002EB011203F00703216813448B60D4E79F
:101EC000001001401F85EB510346A1B193F840205B
:101ED000012A19D0012283F8402093F84120D2B280
:101EE000202A0ED05A6C42F020025A6401200022AF
:101EF00083F8402070475A6C42F020025A64012057
:101F00007047D9660020F2E70220704710B582B012
:101F1000044602681368D068516913F00F0F09D1A5
:101F200013F0200F0CD010F0200F09D02046FFF73F
:101F3000CFFE16E011F0010115D110F4907F12D1FF
:101F4000216B012979D013F0800F03D010F0800F9E
:101F500040F0148113F0400F03D010F0400F40F018
:101F6000118102B010BD13F0010F06D010F4807F74
:101F700003D0626C42F00102626413F0040F04D0DB
:101F800019B1626C42F00202626413F0020F04D0D5
:101F900019B1626C42F00402626413F0080F07D0BA
:101FA00010F0200F00D119B1626C42F00802626497
:101FB000626C002AD5D013F0200F02D010F0200F51
:101FC00029D123685B6903F04003626C12F0080FAB
:101FD00000D163B32046FFF708FE23685B6913F066
:101FE000400F20D0226802F1140353E8003F23F091
:101FF0004003143242E800310029F3D1E36B73B19E
:10200000624A1A65E06BFEF709FF0028A9D0E06B71
:10201000036D9847A5E72046FFF75AFED1E7A36D69
:10202000204698479DE7A36D2046984799E7A36D02
:10203000204698470023636493E713F0100F82D083
:1020400010F0100F3FF47FAF00230193136801934A
:1020500053680193019B536913F0400F52D0E26B18
:1020600013685B689BB2002B3FF47BAFA18D994254
:102070007FF677AFE385D369B3F5807F37D02268E9
:1020800002F10C0353E8003F23F480730C3242E862
:1020900000310029F3D1226802F1140353E8003F14
:1020A00023F00103143242E800310029F3D1226801
:1020B00002F1140353E8003F23F04003143242E8D6
:1020C00000310029F3D1202384F842300023236318
:1020D000226802F10C0353E8003F23F010030C3296
:1020E00042E800310029F3D1E06BFEF74DFE0223F8
:1020F0006363E26EA18DE38D9BB2C91A89B220465B
:1021000090472EE7A18DE38D9BB2C91A89B2E38D6A
:102110009BB2002B3FF425AF00293FF422AF226889
:1021200002F10C0353E8003F23F490730C3242E8B1
:1021300000300028F3D1226802F1140353E8003F75
:1021400023F00103143242E800300028F3D12023A9
:1021500084F8423000232363226802F10C0353E821
:10216000003F23F010030C3242E800300028F3D186
:1021700002236363E36E20469847F2E62046FFF7AA
:102180006AFDEEE62046FFF796FDEAE6471C0008EA
:10219000094B8364094BC364094B0365094B4365D1
:1021A000094B8365094BC365094B0366094B4366BD
:1021B000094BC366704700BFDB1B0008D91B000832
:1021C000DF1B0008DD1B0008E11B0008E31B000803
:1021D000E51B0008E71B0008E91B0008002834D0B5
:1021E00010B5044690F8413013B3242384F84130ED
:1021F0002268D36823F40053D3602046FFF7DCFD48
:102200002268136923F4904313612268536923F011
:102210002A0353612268D36843F40053D36000203B
:102220006064202384F8413084F84230606310BD3C
:1022300080F84030FFF7ACFF236F1BB1236F2046BF
:102240009847D2E7024B2367F8E70120704700BFA9
:10225000B109000808B54FF0E0231B6901F0A2FEA8
:10226000012800D108BD00F08DFAFBE7EFF30583EC
:102270002BB9064B186828B901221A6070476FF015
:10228000050070474FF0FF30704700BF8C080020FA
:10229000EFF3058373B90A4B1B68012B0DD110B501
:1022A0000024084BDC77064B02221A6001F0D8FBB1
:1022B000204610BD6FF0050070474FF0FF307047AB
:1022C0008C08002000ED00E0F0B587B000240594F4
:1022D000EFF3058474BB68B322B31568936903B93F
:1022E00018235C1E372C49D8546814F0010F47D1CD
:1022F00056696EB14FEA960C94682CB1D7685B2F83
:1023000002D9176907B1C6B92CB14FF0FF340EE0FE
:102310004FF0800CF0E7D4688CB9146994B14FF099
:10232000FF3404E01546002418234FF0800C012CE4
:102330000AD0ACB1059807B0F0BD0124F7E74FF023
:10234000FF34F4E70024F2E71469926802920194E2
:1023500000930B466246294601F014FB0590E9E71D
:1023600005AA019200930B461FFA8CF2294601F050
:1023700044FB0128DED000230593DBE70020DAE7E9
:102380000020D8E708B5EFF3058333B908B900207A
:1023900008BD01F0C7FC0020FAE76FF00500F7E781
:1023A00070B582B0EFF30583002B48D10E4614467A
:1023B000002848D0884248D34AB1956815B1D368FF
:1023C0004F2B14D8002D42D1E3680BB138E0002325
:1023D00001280ED06BBB314600F068FD05467DB389
:1023E00004B124682146284601F0DCF828E00123E6
:1023F000EEE7ABB903220021012000F010FD0546F5
:10240000F5B1002EEBD000231A461946284600F0FD
:102410006BFD0128E3D0284601F0EEF800250FE01F
:10242000A368032200920022114600F0AEFC05468C
:10243000E6E7A268314600F016FD0546CFE7002525
:10244000284602B070BD0025FAE70025F8E7002510
:10245000F6E720B310B582B00C46EFF30583B3B1B5
:1024600001BB0021019101AA01F044F801281CD10F
:10247000019850B14FF0E0234FF08052C3F8042D83
:10248000BFF34F8FBFF36F8F002002B010BD00F07D
:102490005EFF01280CD06CB16FF00100F5E76FF022
:1024A000030070476FF00300EFE76FF00200ECE706
:1024B0000020EAE76FF00200E7E720B300B583B041
:1024C000EFF30583A3B10023019301A900F037FEC8
:1024D00001281BD1019898B14FF0E0234FF08052B2
:1024E000C3F8042DBFF34F8FBFF36F8F002007E0B9
:1024F00000231A46194600F0F7FC012809D10020F4
:1025000003B05DF804FB6FF0030070476FF002004A
:10251000F6E76FF00200F3E7034B0360034B0B6039
:1025200080231360704700BF300800203006002071
:10253000034B0360034B0B604FF4807313607047D1
:10254000D4050020D401002000F1080343604FF0BF
:10255000FF328260C3600361002303607047002381
:102560000361704743684B609A688A605160996064
:102570000861036801330360704730B40D68B5F13A
:10258000FF3F11D000F108031C465B681A68AA429D
:10259000FAD963684B6099608C6061600861036878
:1025A0000133036030BC70470469F2E70369416896
:1025B00082688A60416851605A68824206D000226F
:1025C00002611A68013A1A601868704782685A6096
:1025D000F5E7000082B0002301930D4B1B68B3F1B7
:1025E000FF3F08D04FF0500383F31188BFF36F8F84
:1025F000BFF34F8FFEE74FF0500383F31188BFF313
:102600006F8FBFF34F8F019B002BFCD002B0704740
:102610000C00002008480068006880F308884FF02C
:10262000000080F3148862B661B6BFF34F8FBFF32A
:102630006F8F00DF00BF000008ED00E0DFF80C0046
:10264000016841F4700101607047000088ED00E00E
:102650004FF0807340F8043C21F0010140F8081C61
:10266000054B40F80C3C40F8202C6FF0020340F87A
:10267000243C4438704700BFD52500080000000006
:10268000074B19680868B0E8F04F80F30988BFF37A
:102690006F8F4FF0000080F311887047AFF3008018
:1026A000F44900204FF0500383F31188BFF36F8F7C
:1026B000BFF34F8F0B4A136801331360012B00D017
:1026C00070474FF0E023D3F8043D13F0FF0FF7D02D
:1026D0004FF0500383F31188BFF36F8FBFF34F8F19
:1026E000FEE700BF0C000020094B1B6843B94FF008
:1026F000500383F31188BFF36F8FBFF34F8FFEE753
:10270000013B034A13600BB983F31188704700BF84
:102710000C0000200000000000000000000000008D
:10272000EFF30980BFF36F8F154B1A681EF0100F7F
:1027300008BF20ED108A20E9F04F10602DE9090054
:102740004FF0500080F31188BFF34F8FBFF36F8FAE
:1027500001F00EFB4FF0000080F3118809BC1968EE
:102760000868B0E8F04F1EF0100F08BFB0EC108AF8
:1027700080F30988BFF36F8F704700BFAFF300800D
:10278000F449002008B54FF0500383F31188BFF3DC
:102790006F8FBFF34F8F01F0BDF928B14FF0E023E9
:1027A0004FF08052C3F8042D002383F3118808BD35
:1027B0004FF0E022002313619361054B1B6805492C
:1027C000A1FB03139B09013B53610723136170476E
:1027D00000000020D34D62104FF0E023D3F8002D0D
:1027E0003D4B9A421CD04FF0E023D3F8002D3B4BD9
:1027F0009A421ED030B583B0394B1A78D2B20192CA
:10280000FF221A701B78DBB28DF803309DF803307D
:1028100003F05003334A1370334B07221A601BE056
:102820004FF0500383F31188BFF36F8FBFF34F8FC7
:10283000FEE74FF0500383F31188BFF36F8FBFF3B0
:102840004F8FFEE7284A1368013B13609DF8033061
:102850005B00DBB28DF803309DF8033013F0800F7E
:10286000F0D1214B1B68032B08D04FF0500383F3AA
:102870001188BFF36F8FBFF34F8FFEE71B021A4A19
:10288000136003F4E0631360019BDBB2144A13701E
:102890004FF0E024D4F8203D43F47003C4F8203D09
:1028A000D4F8203D43F07043C4F8203DFFF780FF8B
:1028B00000250E4B1D60FFF7C1FED4F8343F43F0F6
:1028C0004043C4F8343FFFF7A5FE01F051FAFFF78B
:1028D00081FE284603B030BD71C20F4170C20F4166
:1028E00000E400E094080020900800200C00002084
:1028F000EFF305830F2B0FD9114A9B5CDBB2114A12
:1029000012789A4208D94FF0500383F31188BFF32D
:102910006F8FBFF34F8FFEE74FF0E023D3F80C3DEE
:1029200003F4E063084A1268934208D94FF0500359
:1029300083F31188BFF36F8FBFF34F8FFEE77047AC
:10294000F0E300E09408002090080020124A12F002
:10295000070F1ED0D11D21F00701C1F5705313449C
:102960000A460E480260002141601344083B23F0F0
:1029700007030B48036059601960991A516013608E
:10298000084B1960084B1960084B4FF000421A6061
:1029900070474FF47053E4E7B8080020B0080020F7
:1029A000AC080020A4080020A808002098080020F7
:1029B000164B1A461B688342FBD3516802EB010C8D
:1029C000844509D0416800EB010C634509D00360E0
:1029D000904219D010607047406801445160104621
:1029E000F0E710B40A4C2468A3420BD05B6819448A
:1029F000416013681B680360904200D010605DF86E
:102A0000044B70470460F7E7704700BFB008002030
:102A1000AC08002038B5044601F06EF8384B1B684E
:102A2000B3B1384B1B681C4250D1002C50D004F17C
:102A3000080214F0070F02D022F007020832002A21
:102A400055D0314B1B68934253D330490C6804E096
:102A5000FFF77CFFE5E721461C466368934202D2FC
:102A60002368002BF7D1264B1B68A34243D00D6887
:102A7000083523680B6063689B1A102B10D9A018C7
:102A800010F0070F08D04FF0500383F31188BFF305
:102A90006F8FBFF34F8FFEE743606260FFF788FFE1
:102AA000626819490B689B1A0B60194909688B42C7
:102AB00001D217490B60134B1B681343636000235B
:102AC0002360144A13680133136002E0002500E01C
:102AD000002501F0ABF815F0070F0ED04FF05003B2
:102AE00083F31188BFF36F8FBFF34F8FFEE700258D
:102AF000EFE70025EDE70025EBE7284638BD00BFEE
:102B0000AC08002098080020A8080020B008002089
:102B1000A4080020A0080020002834D038B50446BE
:102B2000A0F1080550F8043C174A1268134208D176
:102B30004FF0500383F31188BFF36F8FBFF34F8FB4
:102B4000FEE750F8081C41B14FF0500383F31188A1
:102B5000BFF36F8FBFF34F8FFEE723EA020340F806
:102B6000043C00F0C9FF54F8041C084A13680B44E5
:102B700013602846FFF71CFF054A136801331360F2
:102B800001F054F838BD704798080020A8080020CC
:102B90009C0800200346406A18B11B6B1868C0F1FE
:102BA0003800704710B50446FFF77CFDA26BE36B5D
:102BB0009A4204D00024FFF797FD204610BD01245F
:102BC000F9E710B50446FFF76DFDA36B23B90124A7
:102BD000FFF78AFD204610BD0024F9E770B50446D2
:102BE0001546866B026C5AB903681BB1002001368A
:102BF000A66370BD806801F031FA0023A360F6E798
:102C00006DB94068FDF7EEFA6368226C13446360A7
:102C1000A268934219D3236863602846E7E7C06837
:102C2000FDF7E0FAE368226C51429B1AE3602268E8
:102C3000934202D2A3680B44E360022D01D000202E
:102C4000D5E726B1013E0020D1E72846CFE7002096
:102C5000CDE70346026C6AB110B50846D968114445
:102C6000D9609C68A14201D31968D960D968FDF781
:102C7000B9FA10BD704738B50546FFF713FD95F852
:102C8000454064B201E0013C64B2002C0ADD6B6A8D
:102C900043B105F1240001F0EBF80028F3D001F076
:102CA0007BF9F0E7FF2385F84530FFF71DFDFFF7BF
:102CB000F9FC95F8444064B201E0013C64B2002C98
:102CC0000ADD2B6943B105F1100001F0D1F80028AD
:102CD000F3D001F061F9F0E7FF2385F84430FFF706
:102CE00003FD38BD38B5E0B10D460446FFF7DAFC08
:102CF0002368E26B216C01FB0230A0600020A0631E
:102D00006360013A02FB0133E360FF2384F844303F
:102D100084F84530FDB9236963B9FFF7E5FC01206C
:102D200038BD4FF0500383F31188BFF36F8FBFF3AB
:102D30004F8FFEE704F1100001F09AF80028ECD064
:102D40004FF0E0234FF08052C3F8042DBFF34F8FB4
:102D5000BFF36F8FE1E704F11000FFF7F5FB04F11B
:102D60002400FFF7F1FBD8E738B51D46049C0B465D
:102D700049B92460E063236401212046FFF7B2FFD4
:102D800084F84C5038BD2260F4E740B94FF050034E
:102D900083F31188BFF36F8FBFF34F8FFEE710B53A
:102DA00084B01C46844653B192B189B94FF05003A8
:102DB00083F31188BFF36F8FBFF34F8FFEE74FF0A0
:102DC000500383F31188BFF36F8FBFF34F8FFEE77C
:102DD0006AB150230393039B502B13D04FF0500341
:102DE00083F31188BFF36F8FBFF34F8FFEE7002986
:102DF000EFD04FF0500383F31188BFF36F8FBFF311
:102E00004F8FFEE7039B012384F8463000949DF822
:102E100018306046FFF7A8FF204604B010BD40B947
:102E20004FF0500383F31188BFF36F8FBFF34F8FC1
:102E3000FEE7F0B583B00D461446064601FB00F0F0
:102E40005030FFF7E7FD074650B1002380F84630C9
:102E50000090234600F1500229463046FFF784FFD8
:102E6000384603B0F0BD40B94FF0500383F31188EA
:102E7000BFF36F8FBFF34F8FFEE710B582B00C46E4
:102E8000884208D24FF0500383F31188BFF36F8F4D
:102E9000BFF34F8FFEE70223009313460022114633
:102EA000FFF773FF00B1846302B010BD40B94FF06B
:102EB000500383F31188BFF36F8FBFF34F8FFEE78B
:102EC00010B50C46884208D24FF0500383F31188A6
:102ED000BFF36F8FBFF34F8FFEE702220021FFF792
:102EE0009EFF00B1846310BDF0B585B0019288B13A
:102EF0000F461D460446B1B1022D20D1E36B012BD4
:102F00001DD04FF0500383F31188BFF36F8FBFF3D1
:102F10004F8FFEE74FF0500383F31188BFF36F8F9D
:102F2000BFF34F8FFEE7036C002BE5D04FF050034B
:102F300083F31188BFF36F8FBFF34F8FFEE701F06C
:102F400031F8064658B9019B002B48D04FF050038A
:102F500083F31188BFF36F8FBFF34F8FFEE7002617
:102F60003DE02A4639462046FFF738FE636A7BB9C2
:102F700048B14FF0E0234FF08052C3F8042DBFF367
:102F80004F8FBFF36F8FFFF7AFFB012005B0F0BD90
:102F900004F1240000F06CFF0028F4D04FF0E0238F
:102FA0004FF08052C3F8042DBFF34F8FBFF36F8FE4
:102FB000E9E7FFF799FB0020E8E702A800F09EFF91
:102FC000012619E0002384F8443021E0002384F82E
:102FD000453023E02046FFF74EFE00F027FEFFF7C6
:102FE00061FBA26BE36B9A42BBD3022DB9D0019B6C
:102FF000002BDED0002EE0D0FFF776FB00F07CFD4A
:10300000FFF750FB94F8442052B2B2F1FF3FD9D001
:1030100094F8452052B2B2F1FF3FD7D0FFF764FBDE
:1030200001A902A800F076FFD8B92046FFF7BAFD43
:103030000028CFD0019904F1100000F0E5FE2046F1
:10304000FFF719FE00F0F2FD0028C8D14FF0E02391
:103050004FF08052C3F8042DBFF34F8FBFF36F8F33
:10306000BDE72046FFF707FE00F0E0FD00208DE7FA
:103070002DE9F84390B10F4616461C460546B1B1FE
:10308000022C20D1EB6B012B1DD04FF0500383F3AA
:103090001188BFF36F8FBFF34F8FFEE74FF05003E0
:1030A00083F31188BFF36F8FBFF34F8FFEE7036C7D
:1030B000002BE5D04FF0500383F31188BFF36F8FDF
:1030C000BFF34F8FFEE7FFF713FCEFF311884FF0CC
:1030D000500383F31188BFF36F8FBFF34F8FAA6B39
:1030E000EB6B9A4206D3022C04D0002088F311889F
:1030F000BDE8F88395F845904FFA89F9AB6B224605
:1031000039462846FFF76AFDB9F1FF3F06D009F1BD
:1031100001035BB285F845300120E7E76B6A0BB924
:103120000120E3E705F1240000F0A2FE18B126B16A
:1031300001203060DAE70120D8E70120D6E768B146
:1031400070B50C460546036C8BB14FF0500383F30A
:103150001188BFF36F8FBFF34F8FFEE74FF050031F
:1031600083F31188BFF36F8FBFF34F8FFEE70368C0
:10317000EBB1FFF7BDFBEFF311864FF0500383F384
:103180001188BFF36F8FBFF34F8FAA6BEB6B934226
:1031900026D995F845305BB20132AA63B3F1FF3FFF
:1031A00011D001335BB285F84530012019E0836806
:1031B000002BDED04FF0500383F31188BFF36F8FE5
:1031C000BFF34F8FFEE76B6A0BB9012009E005F1F1
:1031D000240000F04DFE38B144B10120206000E031
:1031E000002086F3118870BD0120FAE70120F8E77E
:1031F000F0B585B0019290B10F460446C1B100F020
:10320000D1FE064600BB019B002B5ED04FF0500361
:1032100083F31188BFF36F8FBFF34F8FFEE74FF03B
:10322000500383F31188BFF36F8FBFF34F8FFEE717
:10323000036C002BE3D04FF0500383F31188BFF3EE
:103240006F8FBFF34F8FFEE700263EE039462046E2
:10325000FFF7FFFC013DA563236923B9FFF744FA9B
:10326000012005B0F0BD04F1100000F001FE0028BF
:10327000F4D04FF0E0234FF08052C3F8042DBFF399
:103280004F8FBFF36F8FE9E7FFF72EFA0020E8E7D3
:1032900002A800F033FE012621E0002384F8443028
:1032A00029E0002384F845302BE02046FFF7E3FCBB
:1032B00000F0BCFC09E02046FFF7DDFC00F0B6FCA6
:1032C0002046FFF77EFC00283FD1FFF7EBF9A56B06
:1032D000002DBBD1019B002BD6D0002ED8D0FFF7FC
:1032E00003FA00F009FCFFF7DDF994F844305BB213
:1032F000B3F1FF3FD1D094F845305BB2B3F1FF3F5B
:10330000CFD0FFF7F1F901A902A800F003FE0028D1
:10331000D1D12046FFF755FC0028C6D0019904F111
:10332000240000F071FD2046FFF7A5FC00F07EFCB4
:103330000028CAD14FF0E0234FF08052C3F8042D8B
:10334000BFF34F8FBFF36F8FBFE7002089E770B5E2
:1033500084B0019158B10446036C8BB14FF0500317
:1033600083F31188BFF36F8FBFF34F8FFEE74FF0EA
:10337000500383F31188BFF36F8FBFF34F8FFEE7C6
:1033800000F010FE054650B9019B5BB14FF05003B1
:1033900083F31188BFF36F8FBFF34F8FFEE70026D3
:1033A000354655E0064653E0013BA36323683BB135
:1033B00023694BB9FFF798F90126304604B070BD78
:1033C00000F0E4FEA060F3E704F1100000F050FD0F
:1033D0000028EFD04FF0E0234FF08052C3F8042DC7
:1033E000BFF34F8FBFF36F8FE4E746B14FF0500349
:1033F00083F31188BFF36F8FBFF34F8FFEE7FFF7A3
:1034000073F9DAE702A800F079FD01252AE000232C
:1034100084F8443032E0002384F8453034E0FFF78C
:1034200041F9A06800F0CEFD0646FFF75DF93BE0EC
:103430002046FFF720FC00F0F9FB09E02046FFF7EB
:103440001AFC00F0F3FB2046FFF7BBFB002842D13B
:10345000FFF728F9A36B002BA6D1019B002BC4D04A
:10346000002DCFD0FFF740F900F046FBFFF71AF927
:1034700094F844305BB2B3F1FF3FC8D094F84530C4
:103480005BB2B3F1FF3FC6D0FFF72EF901A902A846
:1034900000F040FD0028D1D12046FFF792FB002824
:1034A000C6D02368002BBAD0019904F1240000F0A3
:1034B000ABFC2046FFF7DFFB00F0B8FB0028C7D1CC
:1034C0004FF0E0234FF08052C3F8042DBFF34F8F2D
:1034D000BFF36F8FBCE70EB900266EE7FFF7E2F887
:1034E0002046FFF757FB0146A06800F0FFFDFFF7FD
:1034F000FBF8F1E72DE9F843B0B10D4690460446DC
:10350000D9B1FFF7F5F9EFF311874FF0500383F3CB
:103510001188BFF36F8FBFF34F8FA66BCEB900201A
:1035200087F31188BDE8F8834FF0500383F31188C7
:10353000BFF36F8FBFF34F8FFEE7036C002BE0D01C
:103540004FF0500383F31188BFF36F8FBFF34F8F9A
:10355000FEE794F844904FFA89F929462046FFF790
:1035600078FB731EA363B9F1FF3F06D009F1010395
:103570005BB284F844300120D2E723690BB9012003
:10358000CEE704F1100000F073FC30B1B8F1000F89
:1035900005D00120C8F80000C2E70120C0E70120E3
:1035A000BEE700000023072B0CD8074A52F833204F
:1035B0000AB10133F7E7044A42F8331002EBC302C1
:1035C00050607047704700BFB84400200023072BAD
:1035D0000FD8084A02EBC3025268824201D001337D
:1035E000F5E7044A002142F8331002EBC3025160B0
:1035F00070477047B844002038B110B50446FFF753
:10360000E5FF94F846304BB110BD4FF0500383F303
:103610001188BFF36F8FBFF34F8FFEE72046FFF790
:103620007BFAF1E770B504460D461646FFF73AF807
:1036300094F844305BB2B3F1FF3F0DD094F84530BD
:103640005BB2B3F1FF3F0BD0FFF74EF8A36B5BB15A
:103650002046FFF710FB70BD002384F84430EDE7EF
:10366000002384F84530EFE73246294604F1240070
:1036700000F0E2FBECE70000084B1B681B6823B975
:10368000074B4FF0FF321A607047044B1B68DB6832
:10369000DB685A68024B1A60704700BF684500201B
:1036A000004500202DE9F04780460D461746994613
:1036B000089EDDF824A00A9C9200A521206B01F051
:1036C0000FF9236B07F18042013A03EB820727F0E1
:1036D0000707A5B34FF0000CBCF10F0F09D815F880
:1036E0000C3004EB0C0282F8343013B10CF1010CF5
:1036F000F2E7002384F84330372E00D93726E662FC
:10370000E66400252565201DFEF729FF04F1180059
:10371000FEF725FF2461C6F13806A661646265657F
:1037200084F858504A4641463846FEF791FF2060DB
:10373000BAF1000F01D0CAF80040BDE8F0870023BD
:1037400084F83430D8E7000038B5002407E004EBF3
:10375000840293000E481844FEF7F6FE0134372C1D
:10376000F5D90C4D2846FEF7EFFE0B4C2046FEF730
:10377000EBFE0A48FEF7E8FE0948FEF7E5FE0948B9
:10378000FEF7E2FE084B1D60084B1C6038BD00BF11
:1037900094450020804500206C45002050450020C5
:1037A0003C45002024450020684500206445002059
:1037B00010B50446FEF776FF224A13680133136002
:1037C000214B1B685BB1214B1B686BB91E4B1B68FF
:1037D000DA6AE36A9A4207D81B4B1C6004E01A4B72
:1037E0001C601368012B29D0194A13680133136038
:1037F0006364E06A174B1B68984201D9154B186047
:1038000000EB8000211D144B03EB8000FEF7AAFEA5
:10381000FEF76AFF0D4B1B687BB10B4B1B68DA6A26
:10382000E36A9A4209D24FF0E0234FF08052C3F886
:10383000042DBFF34F8FBFF36F8F10BDFFF784FFD1
:10384000D2E700BF20450020F449002014450020A5
:1038500004450020184500209445002010B504467A
:1038600090F8593063B1012B11D0022B0ED04FF0DC
:10387000500383F31188BFF36F8FBFF34F8FFEE7C1
:10388000006BFFF749F92046FFF746F910BDFFF737
:1038900043F9FBE70F4B1B68D3B110B5FEF702FFEE
:1038A0000D4BDB68DC68201DFEF780FE0B4A1368B9
:1038B000013B1360074A1368013B1360FEF714FFD6
:1038C0002046FFF7CBFF034B1B68002BE6D110BD52
:1038D000704700BF384500203C45002020450020AF
:1038E00008B5FFF7D7FF074B1B68012BF9D94FF03D
:1038F000E0234FF08052C3F8042DBFF34F8FBFF386
:103900006F8FEEE79445002070B504460D46174BC7
:103910001E68174B18680430FEF748FEB4F1FF3FED
:103920000DD03444124B1B685C60A64210D9114B79
:1039300018680F4B19680431FEF71FFE70BD002D8B
:10394000EFD00B4B196804310B48FEF70BFEF5E77F
:103950000A4B1868064B19680431FEF70EFE084B37
:103960001B68A342EAD9064B1C60E7E71C45002010
:10397000F4490020644500202445002068450020CB
:103980000045002030B587B00B9C7CB10C9DB5B1D3
:103990005C250495049D5C2D1AD04FF0500383F3F1
:1039A0001188BFF36F8FBFF34F8FFEE74FF05003C7
:1039B00083F31188BFF36F8FBFF34F8FFEE74FF094
:1039C000500383F31188BFF36F8FBFF34F8FFEE770
:1039D000049D0C9D2C63022485F859400024039417
:1039E000029505AC01940A9C0094FFF75BFE0C98CD
:1039F000FFF7DEFE059807B030BD2DE9F04385B036
:103A00000746884614461E469000FFF703F808B3A1
:103A100081465C20FEF7FEFF0546A8B1C0F8309055
:103A2000002380F85930039302900D9B01930C9B67
:103A300000933346224641463846FFF733FE284678
:103A4000FFF7B6FE012007E04846FFF765F84FF0A4
:103A5000FF3001E04FF0FF3005B0BDE8F08300001B
:103A600010B588B000240594069407AA06A905A8F5
:103A7000FEF752FD059B0293069B0193009423469B
:103A8000079A17491748FFF77DFF174B1860C0B119
:103A900000F0F6FB012815D14FF0500383F3118895
:103AA000BFF36F8FBFF34F8F104B4FF0FF321A6091
:103AB0000F4B01221A600F4B00221A60FEF78CFE9A
:103AC00003E00020B0F1FF3F01D008B010BD4FF07F
:103AD000500383F31188BFF36F8FBFF34F8FFEE75F
:103AE000EC4A0008E1380008FC44002000450020B2
:103AF000144500201C450020024A1368013313605E
:103B0000704700BFF8440020014B1868704700BFA1
:103B10001C450020F8B53A4B1B68002B69D1394B86
:103B20001D6801351D60C5B9374B1B681B6843B163
:103B30004FF0500383F31188BFF36F8FBFF34F8FA4
:103B4000FEE7314A1168314B186810601960304A3D
:103B5000136801331360FFF78FFD2E4B1B68AB42D8
:103B60003DD900272C4B1B68DB6A03EB83039A00CB
:103B70002A4B9B58012B00D90127294B1B68002B8E
:103B80003CD001273AE001271F4B1B681B6843B359
:103B90001D4B1B68DB68DC6863689D4226D3261DCD
:103BA0003046FEF703FDA36A1BB104F11800FEF7CF
:103BB000FDFCE36A1B4A1268934201D9194A13605B
:103BC00003EB83039A00314614481044FEF7CAFC05
:103BD000E26A114B1B68DB6A9A42D4D2D4E7002711
:103BE000D2E70C4B4FF0FF321A60BBE7094A136073
:103BF000B8E70D4A13680133136000273846F8BD53
:103C0000F84400201C450020684500206445002041
:103C10000845002000450020F4490020944500207C
:103C20000C450020184500201045002038B5354BC4
:103C30001B6843B94FF0500383F31188BFF36F8FB4
:103C4000BFF34F8FFEE7FEF72DFD2E4B1A68013AAA
:103C50001A601B68002B4FD12B4B1B680BB900243B
:103C60004BE00024294B1B681BB3284BDB68DC6846
:103C700004F11800FEF79AFC251D2846FEF796FC75
:103C8000E06A234B1B68984201D9214B186000EB76
:103C9000800029461F4B03EB8000FEF763FCE26ABD
:103CA0001D4B1B68DB6A9A42DCD31C4B01221A6055
:103CB000D8E70CB1FFF7E0FC194B1C6884B9174B2F
:103CC0001C68D4B14FF0E0234FF08052C3F8042DAC
:103CD000BFF34F8FBFF36F8F01240EE0013C07D07D
:103CE000FFF718FF0028F9D00C4B01221A60F5E706
:103CF0000B4B00221A60E2E70024FEF7F5FC204699
:103D000038BD00BFF8440020204500205045002069
:103D10001845002094450020F44900200C4500205F
:103D20001045002010B5A8B10446104B1B6843B1E4
:103D30004FF0500383F31188BFF36F8FBFF34F8FA2
:103D4000FEE7FFF7D9FE00212046FFF7DDFDFFF774
:103D50006DFF48B94FF0E0234FF08052C3F8042DB7
:103D6000BFF34F8FBFF36F8F10BD00BFF84400202B
:103D7000204B1B681BB1204B01221A6070471E4B61
:103D800000221A601D4B1B6803EB83018A001C494B
:103D90008A585AB90BB1013BF6E74FF0500383F351
:103DA0001188BFF36F8FBFF34F8FFEE7084603EB19
:103DB00083018A00024451684968516003EB830C17
:103DC0004FEA8C020832024491420BD003EB83028B
:103DD00091000B4A0A445268D1680A4A1160074AA6
:103DE00013607047486862469100054A0A44506073
:103DF000ECE700BFF84400200C45002018450020E7
:103E000094450020F449002058B110B50C46094AE9
:103E100011681831FEF7B1FB01212046FFF774FD50
:103E200010BD4FF0500383F31188BFF36F8FBFF3C2
:103E30004F8FFEE7F449002038B570B10D461446A7
:103E40000A4A11681831FEF78DFB0CB14FF0FF35AF
:103E500021462846FFF758FD38BD4FF0500383F345
:103E60001188BFF36F8FBFF34F8FFEE7F449002037
:103E700038B5C368DC6824B304F118052846FEF79A
:103E800095FB184B1B682BBB251D2846FEF78EFBA8
:103E9000E06A154B1B68984201D9134B186000EB80
:103EA00080002946114B03EB8000FEF75BFBE26AC2
:103EB0000F4B1B68DB6A9A4211D901200D4B186029
:103EC00038BD4FF0500383F31188BFF36F8FBFF3FA
:103ED0004F8FFEE729460848FEF744FBE7E700203E
:103EE000EEE700BFF844002018450020944500206C
:103EF000F44900200C45002050450020034B1B686E
:103F00000360034B1B684360704700BF08450020F7
:103F10001C450020F8B5C8B10C460546F9B1FEF7BE
:103F2000C1FB1B4B19686B68C81A2268B2F1FF3FCE
:103F300026D0184E36682F68B74201D08B4224D95C
:103F4000824215D80023236001241AE04FF0500369
:103F500083F31188BFF36F8FBFF34F8FFEE74FF0EE
:103F6000500383F31188BFF36F8FBFF34F8FFEE7CA
:103F70005B1A134423602846FFF7C0FF002400E0CB
:103F80000024FEF7B1FB2046F8BD0124F9E700BF8D
:103F90001C45002008450020014B01221A60704793
:103FA0000C450020054B1B6833B1054B1B680BB15A
:103FB0000020704702207047012070471445002000
:103FC000F844002000283ED038B50446C36A204A91
:103FD0001268D26A93422ED28269002A05DB1C4AFB
:103FE0001268D26AC2F138028261616903EB83030D
:103FF000184A02EB8303994205D0154B1B68DB6A14
:10400000E362012038BD251D2846FEF7CFFA104B8C
:104010001B68D86AE062104B1B68984201D90E4BAE
:10402000186000EB800029460A4B03EB8000FEF786
:1040300099FA0120E6E7C26C054B1B68DB6A9A42DD
:1040400003D30020DEE7002070470120DAE700BF3D
:10405000F4490020944500201845002000283BD05A
:1040600038B504461E4B1B68834208D04FF05003FE
:1040700083F31188BFF36F8FBFF34F8FFEE7036D9C
:1040800043B94FF0500383F31188BFF36F8FBFF331
:104090004F8FFEE7013B0365C16AC26C91421DD0A0
:1040A0000BB1002038BD051D2846FEF77FFAE06CF5
:1040B000E062C0F13803A3610A4B1B68984201D942
:1040C000084B186000EB80002946074B03EB80008B
:1040D000FEF748FA0120E5E7002070470020E1E7FD
:1040E000F44900201845002094450020002846D0BF
:1040F00038B50446036D43B94FF0500383F311887C
:10410000BFF36F8FBFF34F8FFEE7C26C8A4200D2BE
:104110000A46E16A914201D0012B00D038BD184B0C
:104120001B68A34222D0E262A369002B02DBC2F12A
:104130003802A261626901EB8101124B03EB81033A
:104140009A42EBD1251D2846FEF730FAE06A0E4B65
:104150001B68984201D90C4B186000EB800029467F
:10416000084B03EB8000FEF7FDF9D7E74FF0500353
:1041700083F31188BFF36F8FBFF34F8FFEE7704754
:10418000F44900209445002018450020054B1B6889
:1041900023B1044B1A68136D01331365014B186882
:1041A000704700BFF4490020064B1A6813682BB90A
:1041B0000123036023B9D368186870470023F8E728
:1041C00000207047F84A002008B541600061914224
:1041D0000CD8D21A83699A4201D3012008BD011D6F
:1041E000094B1868FEF7C9F90020F7E79A4201D297
:1041F000994206D2011D054B1868FEF7BEF9002052
:10420000ECE70120EAE700BFF44A0020F84A00206A
:1042100030B583B0FEF746FA114B1B681BB1FEF7B1
:1042200063FA03B030BD0F4D2846FEF78DF90E4CF2
:104230002046FEF789F90D4B1D600D4B1C600023D5
:1042400000930C4B0C4A10210A20FEF79EFD044BF4
:1042500018600028E3D00949FFF7A4F9DFE700BFA1
:10426000F04A0020104B0020FC4A0020F84A0020B1
:10427000F44A0020F8490020484A0020F44A000887
:1042800010B588B0FFF7C4FF124B1B68CBB10024F8
:104290000594069407AA06A905A8FEF749F9059B07
:1042A0000293069B0193022300932346079A0A492F
:1042B0000A48FFF767FB0A4B186010B1012008B0ED
:1042C00010BD4FF0500383F31188BFF36F8FBFF31E
:1042D0004F8FFEE7F04A0020FC4A0008E545000841
:1042E000EC4A0020B8B19C4603461848006858B311
:1042F00000B585B000910192029305291CDCFFF7FF
:1043000051FE022810D000231A4669460F48006863
:10431000FEF7EAFD15E04FF0500383F31188BFF379
:104320006F8FBFF34F8FFEE70023069A6946074859
:104330000068FEF7D9FD04E0002362466946FEF7F7
:1043400097FE05B05DF804FB00207047F04A00209E
:1043500070B582B01B4B1B681A6862B3DB681E68BD
:10436000DC68251D2846FEF721F9236A2046984778
:1043700094F8283013F0040FECD0A36933449E4224
:1043800007D26360246129460E4B1868FEF7F5F8E2
:10439000E0E7002100910B4632462046FFF7A2FFDE
:1043A0000028D7D14FF0500383F31188BFF36F8FEC
:1043B000BFF34F8FFEE7044A10680249086013609C
:1043C00002B070BDF84A0020F44A002038B5054616
:1043D000FFF79AFB0446074B1B68834205D800236E
:1043E0002B60044B1C60204638BDFFF7B1FF012352
:1043F0002B60F6E7E84A002070B582B006460D460D
:1044000017490968C968CC68201DFEF7CFF894F8F1
:1044100028C01CF0040F08D12CF0010C84F828C02F
:10442000236A2046984702B070BDA16933462A46E8
:1044300031442046FFF7C8FE0028F1D0002100914A
:104440000B4632462046FFF74DFF0028E8D14FF0DB
:10445000500383F31188BFF36F8FBFF34F8FFEE7D5
:10446000F84A002070B582B006460C46FFF744FBC0
:1044700001A8FFF7ABFF019B33BB0546E4B9B0428F
:1044800013D22246711B124B1868FFF7CBF8FFF7C7
:10449000CDFBD8B94FF0E0234FF08052C3F8042D84
:1044A000BFF34F8FBFF36F8F10E0FFF7BFFB2946BD
:1044B0003046FFF7A1FF09E0064A126812680AB900
:1044C0000124DEE71C46DCE7FFF7B0FB02B070BD5D
:1044D000F04A0020F44A002010B588B002E0049BA6
:1044E000002B0FDA002204A93D4B1868FEF780FE6E
:1044F000002873D0049B002BF1DA07990698059BDE
:104500009847ECE7069C636913B1201DFEF74EF84F
:1045100003A8FFF75BFF049B092BE3D8DFE803F058
:104520000505053037500505303794F8283043F03D
:10453000010384F82830059BA169024619442046EE
:10454000FFF742FE0028CDD0236A2046984794F812
:10455000283013F0040FC5D0A269002100910B464A
:10456000059802442046FFF7BDFE0028BAD14FF05F
:10457000500383F31188BFF36F8FBFF34F8FFEE7B4
:1045800094F8283023F0010384F82830AAE794F83F
:10459000283043F0010384F828300599A16131B136
:1045A0000346024601442046FFF70EFE9AE74FF00D
:1045B000500383F31188BFF36F8FBFF34F8FFEE774
:1045C00094F8283013F0020F04D023F0010384F88C
:1045D000283087E72046FEF79FFA83E708B010BD32
:1045E000F04A002000B583B001A8FFF7DDFD019976
:1045F000FFF738FFFFF770FFF6E7D0ED007AF4EE33
:10460000C07AF1EE10FA02DD80ED000A7047B1EEDB
:10461000400AF4EEC07AF1EE10FA01D580ED000AFE
:10462000704700002DE9F047089D0E4604460F46EE
:10463000002B4AD194468C45B2FA82F260D942B13D
:10464000C2F12003974020FA03F30CFA02FC1F4347
:1046500094404FEA1C4E1FFA8CF6B7FBFEF1230C78
:104660000EFB117743EA074301FB06F098420AD993
:104670001CEB030301F1FF3780F01581984240F2F3
:104680001281023963441B1AA4B2B3FBFEF00EFB85
:10469000103344EA034400FB06F6A6420AD91CEB99
:1046A000040400F1FF3380F00081A64240F2FD8057
:1046B0006444023840EA0140A41B00211DB1D440EB
:1046C0000023C5E90043BDE8F0878B4205D90DB151
:1046D000C5E9000100210846F5E7B3FA83F1002996
:1046E00046D1B34202D3824200F2F580841A66EBCF
:1046F000030201201746002DE5D0C5E90047E2E797
:10470000002A40F09380A1EB0C034FEA1C471FFAEC
:104710008CFE0121B3FBF7F607FB1630230C43EAAE
:1047200000430EFB06F0984208D91CEB030306F188
:10473000FF3802D2984200F2D08046461B1AA4B23B
:10474000B3FBF7F007FB103344EA03440EFB00FE13
:10475000A64508D91CEB040400F1FF3302D2A6459C
:1047600000F2B6801846A4EB0E0440EA0640A5E726
:10477000C1F120078B4022FA07FC4CEA030C06FA31
:1047800001FE20FA07F426FA07F344EA0E0400FAC1
:1047900001F84FEA1C404FEA1449B3FBF0FE1FFA40
:1047A0008CF600FB1E3349EA03430EFB06F99945DC
:1047B00002FA01F20BD91CEB03030EF1FF3A80F071
:1047C0008580994540F28280AEF1020E6344A3EBEE
:1047D0000909A4B2B9FBF0F300FB139944EA0944B8
:1047E00003FB06F6A64208D91CEB040403F1FF30D4
:1047F00068D2A64266D9023B644443EA0E40A41B39
:10480000A0FB02E6B4427346B14652D34FD05DB12D
:10481000B8EB030264EB090404FA07F722FA01F388
:104820001F43CC40C5E9007400214CE7C2F12001D0
:1048300020FA01F30CFA02FC26FA01F19640334308
:104840004FEA1C471FFA8CFEB1FBF7F007FB10166E
:10485000190C41EA064100FB0EF68E4204FA02F4FE
:1048600008D91CEB010100F1FF382DD28E422BD963
:1048700002386144891B9BB2B1FBF7F607FB1611A6
:1048800043EA014306FB0EF1994208D91CEB0303EE
:1048900006F1FF3814D2994212D9023E63445B1AE2
:1048A00046EA004136E73946EDE6184602E7F045AC
:1048B000ADD2BEEB020366EB0C060138B146A6E7AB
:1048C0004646ECE7034698E74046D3E7D6467EE700
:1048D0006444023847E708460DE7023E63442DE78B
:1048E000830730B547D0541E002A3ED0CAB20346D3
:1048F00001E0013C39D303F8012B9D07F9D1032CCA
:104900002CD9CDB205EB05250F2C05EB054535D986
:10491000A4F1100222F00F0C03F1100EE6444FEA4E
:10492000121C1A46C2E90055C2E9025510327245FE
:10493000F8D10CF1010214F00C0F03EB021204F099
:104940000F0C13D0ACF1040323F00303043313441E
:1049500042F8045B9342FBD10CF003042CB1C9B2C2
:104960001C4403F8011BA342FBD130BD644613462F
:10497000002CF4D1F9E703461446C0E71A46A446D2
:10498000E0E700BF70B50F4B0F4DAB42A3EB050640
:1049900007D0B610002455F8043B01349847A642CE
:1049A000F9D800F07FF8094D094B5E1BAB424FEA86
:1049B000A60606D0002455F8043B01349847A642C9
:1049C000F9D870BD844B0008844B0008844B000864
:1049D0008C4B0008704700BF704700BF024B13B1FB
:1049E000024800F005B8704700000000FD490008CB
:1049F000002301461A46184600F014B838B5074D92
:104A0000074C2C1BA41005D0013C55F8043D9847D9
:104A1000002CF9D1BDE8384000F04AB8904B0008AE
:104A20008C4B00082DE9F8431B4D06462868984634
:104A30000F469146FFF7CEFF184B1C681CB3286841
:104A400065681F2D22DC4EB96B1C0235636044F88B
:104A50002570FFF7C1FF0020BDE8F88304EB850156
:104A60000123C1F88890D4F88821AB401A43022E64
:104A7000C4F88821C1F80881E6D1D4F88C211A4302
:104A8000C4F88C21E0E7064C1C60D8E7FFF7A4FFD0
:104A90004FF0FF30E0E700BF10000020284B00205F
:104AA0002C4B0020F8B500BFF8BC08BC9E467047F0
:0C4AB000F8B500BFF8BC08BC9E4670477B
:104ABC00524355706461746542696E6172795365D5
:104ACC006D00000072656D6F74656374726C5F5479
:104ADC0061736B0064656661756C745461736B0013
:104AEC0049444C4500000000546D72510000000018
:104AFC00546D722053766300BC4A0008000000001D
:104B0C000000000000000000D04A00080000000077
:104B1C000000000000000000000000000002000087
:104B2C00080000000000000000000000E04A00083F
:104B3C000000000000000000000000000000000069
:104B4C00000200001800000000000000000000003F
:104B5C00000000000102030400000000000000003F
:104B6C0001020304060708090006101600061016B9
:084B7C0068B6FF7F0100000094
:084B8400DD490008810300086F
:044B8C0059030008C1
:104B90000024F4000100000010000000AAAAAAAA44
:044BA000244B002082
:0400000508000A7570
:00000001FF
