:020000040800F2
:1000000000000320B5A60008399D00083B9D0008AC
:100010003D9D00083F9D0008419D00080000000034
:1000200000000000000000000000000001030108C3
:10003000439D000800000000A103010879FC0008AE
:1000400005A7000805A7000805A7000805A70008E0
:1000500005A7000805A7000805A7000805A70008D0
:1000600005A7000805A7000805A70008459D00088A
:10007000559D000805A70008659D0008759D0008AE
:1000800005A70008859D000805A70008959D0008A4
:10009000A59D000805A7000805A7000805A70008FA
:1000A00005A7000805A7000805A7000805A7000880
:1000B00005A7000805A7000805A7000805A7000870
:1000C00005A7000805A7000805A7000805A7000860
:1000D00005A70008B59D000805A70008C59D0008F4
:1000E00005A7000805A7000805A7000805A7000840
:1000F00005A7000805A7000805A7000805A7000830
:1001000005A7000805A7000805A7000805A700081F
:1001100005A7000805A7000805A70008D59D000849
:1001200005A70008E59D0008F59D0008059E00084C
:10013000159E000805A7000805A70008259E0008D1
:1001400005A70008359E000805A70008459E000881
:1001500005A70008559E000805A70008659E000831
:1001600005A7000805A7000805A7000805A70008BF
:1001700005A7000805A7000805A700080000000063
:1001800005A7000805A70008759E0008859E0008C1
:1001900005A70008959E000805A7000805A7000808
:0C01A000000000000000000005A700089F
:1001C00081F0004102E000BF83F0004330B54FEA08
:1001D00041044FEA430594EA050F08BF90EA020F75
:1001E0001FBF54EA000C55EA020C7FEA645C7FEA08
:1001F000655C00F0E2804FEA5454D4EB5555B8BF2B
:100200006D420CDD2C4480EA020281EA030382EA9B
:10021000000083EA010180EA020281EA0303362D2D
:1002200088BF30BD11F0004F4FEA01314FF4801C00
:100230004CEA113102D0404261EB410113F0004F12
:100240004FEA03334CEA133302D0524263EB4303C9
:1002500094EA050F00F0A780A4F10104D5F1200E67
:100260000DDB02FA0EFC22FA05F2801841F10001C2
:1002700003FA0EF2801843FA05F359410EE0A5F196
:1002800020050EF1200E012A03FA0EFC28BF4CF0C7
:10029000020C43FA05F3C01851EBE37101F000457D
:1002A00007D54FF0000EDCF1000C7EEB00006EEB8A
:1002B0000101B1F5801F1BD3B1F5001F0CD3490814
:1002C0005FEA30004FEA3C0C04F101044FEA44526B
:1002D00012F5800F80F09A80BCF1004F08BF5FEAF2
:1002E000500C50F1000041EB045141EA050130BDD2
:1002F0005FEA4C0C404141EB0101013C28BFB1F5E4
:10030000801FE9D291F0000F04BF01460020B1FA2E
:1003100081F308BF2033A3F10B03B3F120020CDA01
:100320000C3208DD02F1140CC2F10C0201FA0CF0DF
:1003300021FA02F10CE002F11402D8BFC2F1200C44
:1003400001FA02F120FA0CFCDCBF41EA0C019040FA
:10035000E41AA2BF01EB0451294330BD6FEA040443
:100360001F3C1CDA0C340EDC04F11404C4F120022E
:1003700020FA04F001FA02F340EA030021FA04F340
:1003800045EA030130BDC4F10C04C4F1200220FA97
:1003900002F001FA04F340EA0300294630BD21FAD5
:1003A00004F0294630BD94F0000F83F4801306BF9B
:1003B00081F480110134013D4EE77FEA645C18BF8F
:1003C0007FEA655C29D094EA050F08BF90EA020F26
:1003D00005D054EA000C04BF1946104630BD91EA1E
:1003E000030F1EBF0021002030BD5FEA545C05D121
:1003F0004000494128BF41F0004130BD14F5800460
:100400003CBF01F5801130BD01F0004545F0FE41D3
:1004100041F470014FF0000030BD7FEA645C1ABF08
:10042000194610467FEA655C1CBF0B46024650EA3F
:10043000013406BF52EA033591EA030F41F400216B
:1004400030BD00BF90F0000F04BF0021704730B5F1
:100450004FF4806404F132044FF000054FF00001C6
:1004600050E700BF90F0000F04BF0021704730B587
:100470004FF4806404F1320410F0004548BF40425C
:100480004FF000013EE700BF42004FEAE2014FEAB1
:1004900031014FEA02701FBF12F07F4393F07F4F8C
:1004A00081F06051704732F07F4208BF704793F08F
:1004B0007F4F04BF41F40021704730B54FF46074A2
:1004C00001F0004521F000411CE700BF50EA0102A5
:1004D00008BF704730B54FF000050AE050EA01024E
:1004E00008BF704730B511F0004502D5404261EBBE
:1004F00041014FF4806404F132045FEA915C3FF4FF
:10050000D8AE4FF003025FEADC0C18BF03325FEA9B
:10051000DC0C18BF033202EBDC02C2F1200300FA4C
:1005200003FC20FA02F001FA03FE40EA0E0021FA71
:1005300002F11444BDE600BF70B54FF0FF0C4CF45F
:10054000E06C1CEA11541DBF1CEA135594EA0C0F11
:1005500095EA0C0F00F0DEF82C4481EA030621EA4C
:100560004C5123EA4C5350EA013518BF52EA033587
:1005700041F4801143F4801338D0A0FB02CE4FF039
:100580000005E1FB02E506F00042E0FB03E54FF069
:100590000006E1FB03569CF0000F18BF4EF0010E61
:1005A000A4F1FF04B6F5007F64F5407404D25FEA5D
:1005B0004E0E6D4146EB060642EAC62141EA555110
:1005C0004FEAC52040EA5E504FEACE2EB4F1FD0C52
:1005D00088BFBCF5E06F1ED8BEF1004F08BF5FEAD0
:1005E000500E50F1000041EB045170BD06F0004682
:1005F00046EA010140EA020081EA0301B4EB5C042F
:10060000C2BFD4EB0C0541EA045170BD41F4801126
:100610004FF0000E013C00F3AB8014F1360FDEBF4B
:10062000002001F0004170BDC4F10004203C35DA27
:100630000C341BDC04F11404C4F1200500FA05F3AA
:1006400020FA04F001FA05F240EA020001F000424B
:1006500021F0004110EBD37021FA04F642EB0601C1
:100660005EEA430E08BF20EAD37070BDC4F10C04EB
:10067000C4F1200500FA04F320FA05F001FA04F2AF
:1006800040EA020001F0004110EBD37041F100019B
:100690005EEA430E08BF20EAD37070BDC4F12005A6
:1006A00000FA05F24EEA020E20FA04F301FA05F20E
:1006B00043EA020321FA04F001F0004121FA04F2B6
:1006C00020EA020000EBD3705EEA430E08BF20EA86
:1006D000D37070BD94F0000F0FD101F000464000C0
:1006E00041EB010111F4801F08BF013CF7D041EA42
:1006F000060195F0000F18BF704703F00046520046
:1007000043EB030313F4801F08BF013DF7D043EA16
:100710000603704794EA0C0F0CEA135518BF95EACC
:100720000C0F0CD050EA410618BF52EA4306D1D153
:1007300081EA030101F000414FF0000070BD50EA72
:10074000410606BF1046194652EA430619D094EAFC
:100750000C0F02D150EA013613D195EA0C0F05D1E6
:1007600052EA03361CBF104619460AD181EA03013A
:1007700001F0004141F0FE4141F470014FF00000F2
:1007800070BD41F0FE4141F4780170BD70B54FF08D
:10079000FF0C4CF4E06C1CEA11541DBF1CEA13550D
:1007A00094EA0C0F95EA0C0F00F0A7F8A4EB0504EF
:1007B00081EA030E52EA03354FEA013100F08880E6
:1007C0004FEA03334FF0805545EA131343EA1263AF
:1007D0004FEA022245EA111545EA10654FEA002664
:1007E0000EF000419D4208BF964244F1FD0404F51D
:1007F000407402D25B084FEA3202B61A65EB030579
:100800005B084FEA32024FF480104FF4002CB6EB35
:10081000020E75EB030E22BFB61A754640EA0C00B5
:100820005B084FEA3202B6EB020E75EB030E22BFF5
:10083000B61A754640EA5C005B084FEA3202B6EB36
:10084000020E75EB030E22BFB61A754640EA9C00F5
:100850005B084FEA3202B6EB020E75EB030E22BFC5
:10086000B61A754640EADC0055EA060E18D04FEA83
:10087000051545EA16754FEA06164FEAC30343EA23
:1008800052734FEAC2025FEA1C1CC0D111F4801FF0
:100890000BD141EA00014FF000004FF0004CB6E7E9
:1008A00011F4801F04BF01430020B4F1FD0C88BF88
:1008B000BCF5E06F3FF6AFAEB5EB030C04BFB6EB93
:1008C000020C5FEA500C50F1000041EB045170BD86
:1008D0000EF0004E4EEA113114EB5C04C2BFD4EBB3
:1008E0000C0541EA045170BD41F480114FF0000E37
:1008F000013C90E645EA060E8DE60CEA135594EAB3
:100900000C0F08BF95EA0C0F3FF43BAF94EA0C0FB5
:100910000AD150EA01347FF434AF95EA0C0F7FF42A
:1009200025AF104619462CE795EA0C0F06D152EA7E
:1009300003353FF4FDAE1046194622E750EA410662
:1009400018BF52EA43067FF4C5AE50EA41047FF473
:100950000DAF52EA43057FF4EBAE12E74FF0FF3CD8
:1009600006E000BF4FF0010C02E000BF4FF0010CA9
:100970004DF804CD4FEA410C7FEA6C5C4FEA430C22
:1009800018BF7FEA6C5C1BD001B050EA410C0CBF71
:1009900052EA430C91EA030F02BF90EA020F0020D3
:1009A000704710F1000F91EA030F58BF994208BF3A
:1009B00090422CBFD8176FEAE37040F001007047F7
:1009C0004FEA410C7FEA6C5C02D150EA013C07D14E
:1009D0004FEA430C7FEA6C5CD6D152EA033CD3D099
:1009E0005DF8040B704700BF8446104662468C4693
:1009F0001946634600E000BF01B5FFF7B7FF0028C6
:100A000048BF10F1000F01BD4DF808EDFFF7F4FFEE
:100A10000CBF012000205DF808FB00BF4DF808ED79
:100A2000FFF7EAFF34BF012000205DF808FB00BF9C
:100A30004DF808EDFFF7E0FF94BF012000205DF8BE
:100A400008FB00BF4DF808EDFFF7CEFF94BF012073
:100A500000205DF808FB00BF4DF808EDFFF7C4FF6C
:100A600034BF012000205DF808FB00BF53B94AB92C
:100A7000002908BF00281CBF4FF0FF314FF0FF30A6
:100A800000F0E2B8ADF1080C6DE904CE1AF0F6FA08
:100A9000DDF804E0DDE9022304B0704700F1340121
:100AA00091E838009C46A6464CF8045D90E8FF0F9C
:100AB000E54600BD90EC210B704700BF80EC210B98
:100AC000704700BF90EC200B704700BF80EC200BFC
:100AD000704700BFD0EC200B704700BFC0EC200B6C
:100AE000704700BFF0EC0201F0EC0211F0EC0221C3
:100AF000F0EC0231F0EC0241F0EC0251F0EC02615A
:100B0000F0EC0271F0EC0281F0EC0291F0EC02A149
:100B1000F0EC02B1F0EC02C1F0EC02D1F0EC02E139
:100B2000F0EC02F1704700BFE0EC0201E0EC0211D2
:100B3000E0EC0221E0EC0231E0EC0241E0EC025199
:100B4000E0EC0261E0EC0271E0EC0281E0EC029189
:100B5000E0EC02A1E0EC02B1E0EC02C1E0EC02D179
:100B6000E0EC02E1E0EC02F1704700BFB0FC018173
:100B7000B0FC0191B0FC01A1B0FC01B1704700BF15
:100B8000A0FC0181A0FC0191A0FC01A1A0FC01B18D
:100B9000704700BFEC4600B52DE900502DE9FF1F5E
:100BA0004FF000032DE90C0001A91AF021FDDDF83A
:100BB00040E012B0704700BFEC4600B52DE9005090
:100BC0002DE9FF1F4FF000032DE90C0001A91AF0D9
:100BD0004BFDDDF840E012B0704700BFEC4600B5B9
:100BE0002DE900502DE9FF1F4FF000032DE90C0007
:100BF00001A91AF05BFDDDF840E012B0704700BFBC
:100C0000EC4600B52DE900502DE9FF1F4FF0000321
:100C10002DE90C0001AB1AF01FFDDDF840E012B029
:100C2000704700BFEC4600B52DE900502DE9FF1FCD
:100C30004FF000032DE90C0001AA1AF097FDDDF832
:100C400040E012B0704700BF704700BF00000000D6
:100C50000000000000000000000000000000000094
:100C600002780B78012A28BF9A4240F0D8806DE9BB
:100C7000044540EA0104CDE902676FF0000C4FEA39
:100C800044721AB380EA010414F0070F6BD100F02C
:100C9000070420F0070004F0030521F007014FEAE4
:100CA000C505F0E8042314F0040FF1E804670CFA1A
:100CB00005F462EA040266EA04060BD063EA040360
:100CC000624667EA0407664604E000BFF0E80423D2
:100CD000F1E8046782FA4CF582EA0604A4FA8CF47F
:100CE0006CBB83FA4CF583EA0705A5FA8CF595B938
:100CF00050E9022351E9026782FA4CF582EA0604C0
:100D0000A4FA8CF483FA4CF583EA0705A5FA8CF56E
:100D10002543DBD09CB92DBAB5FA85F424F007043D
:100D200027FA04F1DDE9026723FA04F303F0FF0078
:100D300001F0FF01FDE80445A0EB0100704724BA73
:100D4000B4FA84F424F0070426FA04F1DDE902671A
:100D500022FA04F202F0FF0001F0FF01FDE8044571
:100D6000A0EB0100704714F0030F3CD110F0030416
:100D700028D150F8082B51F8083B82FA4CF582EA4A
:100D80000305A5FA8CF55DB950F8042C51F8043C24
:100D900082FA4CF582EA0305A5FA8CF5002DE8D01D
:100DA0002DBAB5FA85F424F0070423FA04F122FAE7
:100DB00004F202F0FF0001F0FF01FDE80445A0EBA2
:100DC000010070474FEAC40420F0030050F8082BDC
:100DD00021F0030151F8083B0CFA04F462EA040222
:100DE00063EA0403C9E710F003041DD0A1EB04017A
:100DF00020F00300E40750F8042B06D012D28B78C1
:100E00005FFAA2F4E41A06D12BB1CB785FFAB2F400
:100E1000E41A00D133B920465DF8104B7047A2EBBD
:100E20000300704701F1040150F8042BCC0721F0B6
:100E3000030151F8043B48D824D222F07F4482FABF
:100E40004CF594EA1325A5FA8CF50AD165B951F849
:100E5000043B84EA0204B4EB036F0ED150F8042B78
:100E6000EBE74FEA132355E035F07F454DD1087885
:100E7000FDE80445C0F1000070474FEA126203F03C
:100E8000FF0347E002EA1C4482FA4CF594EA13455A
:100E9000A5FA8CF50AD165B951F8043B84EA02043D
:100EA000B4EB034F0CD150F8042BEBE74FEA13439C
:100EB00030E015EA1C4528D10B884FEA124229E0A0
:100EC0004FEA124203EA1C4324E002F0FF0482FAD4
:100ED0004CF594EA1365A5FA8CF50AD165B951F879
:100EE000043B84EA0204B4EB032F09D150F8042B2D
:100EF000EBE74FEA13630DE015F0FF0F05D10B6828
:100F00004FEA122223F07F4304E04FF00000FDE897
:100F10000445704712BA1BBA82FA4CF482EA030401
:100F2000A4FA8CF5B5FA85F402FA04F203FA04F394
:100F30004FEA1260FDE80445A0EB1360704700BF64
:100F400001F0FF01102A2BDB10F0070F08D010F87A
:100F5000013B013A8B422DD010F0070F42B3F6D17E
:100F6000F0B441EA012141EA014122F007047FF097
:100F700000070023F0E80256083C85EA010586EAEE
:100F8000010685FA47F5A3FA87F586FA47F6A5FA2A
:100F900087F68EB9EED1F0BC01F0FF0102F0070236
:100FA00032B110F8013B013A83EA010313B1F8D1E1
:100FB0000020704701387047002D06BF35460338C2
:100FC000073815F0010F07D1013015F4807F02BFFB
:100FD000013015F4C03F0130F0BC0138704700BF4C
:100FE000844641EA000313F003036DD1403A41D334
:100FF00051F8043B40F8043B51F8043B40F8043BF3
:1010000051F8043B40F8043B51F8043B40F8043BE2
:1010100051F8043B40F8043B51F8043B40F8043BD2
:1010200051F8043B40F8043B51F8043B40F8043BC2
:1010300051F8043B40F8043B51F8043B40F8043BB2
:1010400051F8043B40F8043B51F8043B40F8043BA2
:1010500051F8043B40F8043B51F8043B40F8043B92
:1010600051F8043B40F8043B51F8043B40F8043B82
:10107000403ABDD2303211D351F8043B40F8043B22
:1010800051F8043B40F8043B51F8043B40F8043B62
:1010900051F8043B40F8043B103AEDD20C3205D332
:1010A00051F8043B40F8043B043AF9D2043208D02A
:1010B000D2071CBF11F8013B00F8013B01D30B889C
:1010C00003806046704700BF082A13D38B078DD07A
:1010D00010F003038AD0C3F10403D21ADB071CBF4C
:1010E00011F8013B00F8013B80D331F8023B20F8B6
:1010F000023B7BE7043AD9D3013A11F8013B00F8EF
:10110000013BF9D20B7803704B7843708B78837076
:101110006046704700000000000000000000000072
:1011200000000000000000000000000000000000BF
:1011300000000000000000000000000000000000AF
:1011400030B490F800F020F007016FF0000C10F0C0
:10115000070491F820F040F048804FF000046FF051
:101160000700D1E9002391F840F000F1080082FA6D
:101170004CF2A4FA8CF283FA4CF3A2FA8CF34BBB38
:10118000D1E9022382FA4CF200F10800A4FA8CF2B1
:1011900083FA4CF3A2FA8CF3E3B9D1E9042382FA7F
:1011A0004CF200F10800A4FA8CF283FA4CF3A2FA94
:1011B0008CF37BB9D1E9062301F1200182FA4CF2CC
:1011C00000F10800A4FA8CF283FA4CF3A2FA8CF333
:1011D000002BC6D0002A04BF04301A4612BAB2FA55
:1011E00082F200EBD20030BC7047D1E9002304F05A
:1011F0000305C4F100004FEAC50514F0040F91F88F
:1012000040F00CFA05F562EA05021CBF63EA05032B
:1012100062464FF00004AAE74FEA410C7FEA6C5C9B
:1012200002D150EA013C0AD14FEA430C7FEA6C5CE0
:1012300002D152EA033C02D14FF0000070474FF058
:10124000010070474FEA410212F5001215D211D584
:101250006FF47873B3EB625212D94FEAC12343F0B3
:10126000004343EA505311F0004F23FA02F018BF35
:10127000404270474FF00000704750EA013005D1FE
:1012800011F0004008BF6FF0004070474FF00000C1
:10129000704700BF0348044B834202D0034B03B1A5
:1012A00018477047100F0020100F002000000000AA
:1012B0000548064B1B1AD90F01EBA301491002D0B8
:1012C000034B03B118477047100F0020100F002088
:1012D0000000000010B5064C237843B9FFF7DAFF91
:1012E000044B13B10448AFF300800123237010BDF9
:1012F000100F0020000000007828020808B5054BF8
:101300001BB105490548AFF30080BDE80840FFF771
:10131000CFBF00BF00000000140F00207828020893
:1013200001608260C0F80D30009B037370470000BD
:1013300008B502680A4B9A4208D000231A4600F109
:101340000801084800680EF0A3FE08BD00231A46F5
:1013500000F10801044800680EF09AFEF5E700BFAE
:1013600078250020E8250020EC25002008B5064B54
:10137000834204D0054B18680EF010FE08BD044BE4
:1013800018680EF00BFEF9E778250020A025002054
:10139000A425002008B5FFF7E9FF08BD08B5FFF751
:1013A000E5FF08BD08B5FFF7E1FF08BD2DE9F041F5
:1013B00004460D4690461E46069F0EF0B3FF236876
:1013C00013B16368002B4ED12560B8F1000F01D036
:1013D000C4F8048006B1666107B1A7612A4B9D423B
:1013E00044D00123294A13611D46294A52F823207B
:1013F000372A2AD8E261C3EBC30102EBC1012548B9
:1014000040F82140E169C3EBC300400000EB9100CC
:101410001E4E706101F0030160681F4F01EB8301F4
:1014200047F8210001321A4941F823201A0107EB3D
:101430000313BA58520172605A685201F2609A68F6
:1014400052013260DB685B01B3601049206809F02B
:1014500041FA0F4B53F8253013F0030F0AD00EF06A
:1014600083FFBDE8F0810EF07FFFFAE70023074A13
:101470001361B9E72901084A02EB0515002353500F
:101480006B60AB60EB60EAE778250020000000208D
:101490004C0F0020540F00202C0F002010B58AB0F4
:1014A00001AB03AA002109F054FB099A064B53F83B
:1014B00022403CB1A06928B10EF070FD636901A91A
:1014C000204698470AB010BD540F002010B58AB0CE
:1014D00001AB03AA012109F03CFB099B3833074A01
:1014E00052F823403CB1A06928B10EF057FD636962
:1014F00001A9204698470AB010BD00BF540F002034
:1015000008B506230CF0DFFA01200EF094FC08BDAC
:1015100008B50CF03FFB01200EF08DFC08BD10B5A6
:1015200004460CF06FFDE36B1A68136823F00803A0
:10153000136010BD10B504460846114623880022EA
:1015400010E073460CF1010CBCF1070F09D84FEA0B
:10155000430E13F4004FF4D08EF4815383F0010353
:10156000F0E701328A4206D210F802C083EA0C2367
:101570004FF0000CE8E7238010BD000070B52DEDA2
:10158000048B84B00646F0EE418AB0EE619AFFEE1D
:10159000007AB4EEE70AF1EE10FA0BD9B0EE408A09
:1015A000F7EE007AB4EEE70AF1EE10FA04DBB7EEDC
:1015B000008A01E0BFEE008AFFEE007AF4EEE70A4F
:1015C000F1EE10FA09D9F7EE007AF4EEE70AF1EE3F
:1015D00010FA04DBF7EE000A01E0FFEE000A68EE05
:1015E000087A20EEA07A77EE877AF5EEC07AF1EEEF
:1015F00010FA08DBF1EEE77AB7EE007AF4EEC77A7C
:10160000F1EE10FA1BDC78EE607A9FED2B7A28EE73
:10161000871A37EEC17A8DED007A38EE208A38EEDF
:10162000417A8DED017A77EE817ACDED027A31EE55
:10163000081A8DED031AB0EE497A6B4611E080EE80
:10164000880A18F0CDFDF0EE409A11F0E1F9B0EE05
:10165000408AB0EE690A11F027FAF0EE400AD2E7AC
:10166000043304AA93420BD0D3ED007AF0EEE77A6C
:10167000F4EEC77AF1EE10FAF2DDB0EE677AEFE73A
:1016800089EE078A002410E0E42505FB046504AB1D
:1016900003EB840313ED040A20EE080A284606F043
:1016A00004F8284605F0D6FF0134032CECDD04B025
:1016B000BDEC048B70BD00BFCDCC4C3F30EE600A5A
:1016C00080ED070A90ED007A20EE077A80ED0A7A25
:1016D000D0ED0B6AD0ED017A60EE277A76EEA76A3C
:1016E000C0ED0B6AD0ED027A90ED086A30EE466AE2
:1016F00067EE867AC0ED0C7A90ED056AF4EEC66A64
:10170000F1EE10FA1DD880ED0B6AD0ED0B6A37EEC2
:10171000267A77EE877AC0ED0D7A90ED037AF1EEB6
:10172000476AF4EEE67AF1EE10FA14D8C0ED0D6ACD
:1017300080ED080A037E0BB90023436390ED0D0A88
:10174000704790ED046AF4EEC66AF1EE10FADCDB45
:1017500080ED0B6AD9E7F4EEC77AF1EE10FAE7DB19
:1017600080ED0D7AE4E7C0ED010A80ED021A80ED0C
:10177000042A80ED000AC0ED031A7047D0ED046A18
:10178000D0ED037AB1EE677AB4EEE67AF1EE10FAB4
:1017900006DAF4EEE67AF1EE10FA22D9B0EE667AC5
:1017A000D0ED007AF5EEC07AF1EE10FA1CDDF4EE21
:1017B000C77AF1EE10FA20DC01231A4677EE676A49
:1017C000F0EEE66A02B390ED016AF0EEC65AF4EE6E
:1017D000E65AF1EE10FA1CDD80ED007A90ED000A79
:1017E0007047B0EE677ADBE7F4EEC77AF1EE10FAF5
:1017F00006D44FF0FF330122E0E701230022DDE7AA
:101800004FF0FF330022D9E790ED026AB1EE466A4D
:10181000DBE7F0EEE77A77EE867AC0ED007A07EE46
:10182000103AB8EEC77A67EE877AC0ED007AD5E74E
:1018300080ED010AC0ED020A80ED031A704780EDC9
:10184000050AC0ED040A00220276704701230376E0
:10185000704700230376704710B52DED068BB0EE70
:10186000409AF0EE608AB0EE418A044611F0D0F85A
:10187000F0EE409AB0EE680A11F0CAF869EE809A6C
:10188000C4ED009AB0EE490A11F0C2F8F0EE409AA9
:10189000B0EE680A11F008F969EE809AB0EE480AD5
:1018A00011F002F969EE809AB0EE490A11F0FCF8E5
:1018B000B0EE40AAB0EE480A11F0AAF82AEE00AA4B
:1018C00079EECA9AC4ED019AB0EE490A11F0A0F877
:1018D000F0EE409AB0EE680A11F0E6F869EE809AF0
:1018E000B0EE480A11F094F869EE809AB0EE490A19
:1018F00011F0DAF8B0EE40AAB0EE480A11F0D4F8D0
:101900002AEE00AA79EE8A9AC4ED029AB0EE490A4C
:1019100011F0CAF8F0EE409AB0EE680A11F078F8CB
:1019200069EE809AC4ED039AB0EE490A11F0BCF852
:10193000F0EE409AB0EE680A11F0B6F869EE809ABF
:10194000B0EE480A11F0B0F869EE809AB0EE490A9C
:1019500011F05EF8B0EE40AAB0EE480A11F058F867
:101960002AEE00AA79EE8A9AC4ED049AB0EE490AEA
:1019700011F09AF8F0EE409AB0EE680A11F094F87F
:1019800069EE809AB0EE480A11F042F869EE809A4A
:10199000B0EE490A11F03CF8B0EE409AB0EE480AB9
:1019A00011F082F829EE009A79EEC99AC4ED059AF1
:1019B000B0EE680A11F078F8B1EE400A84ED060A3C
:1019C000B0EE680A11F024F8B0EE409AB0EE480A82
:1019D00011F06AF829EE009A84ED079AB0EE680AD1
:1019E00011F016F8F0EE408AB0EE480A11F010F847
:1019F00068EE808AC4ED088ABDEC068B10BD00003D
:101A000010B583680268012B12D08368002B1FDC9D
:101A1000C468012C22D1D1F800C041685C1C8460EC
:101A200003EB4303194402EB8102C2F800C010BD6E
:101A30004368C46823444360002484600124C46074
:101A4000022BE2DD084B094A482109481AF084FBC1
:101A5000084B064A4B2106481AF07EFB064B034A08
:101A60004D2103481AF078FB68290208B8290208BA
:101A7000582A0208A02A0208F82A020808B50346D4
:101A80004268C1680A440068032A03D19B68012B9D
:101A900000D108BD024B034A7A2103481AF05CFBCF
:101AA000102B0208B02B0208582A0208C07901281E
:101AB00014BF00200120704784B010B52DED048BB9
:101AC00007A880E80E00DDED0A8AF5EEC08AF1EE87
:101AD00010FA74D4F5EEC08AF1EE10FA11DD464B1F
:101AE00093ED0F7ADDED087AB4EEE77AF1EE10FAB5
:101AF00007DDDFED420A9DED080A01213E4801F0B5
:101B00003AFA3D4C204601F0FFFAD4ED177A9DEDEC
:101B1000099AF4EEC97AF1EE10FA5BD4364C2046FD
:101B200001F0F2FAD4ED077ADDED079AF4EEE97AE6
:101B3000F1EE10FA57D4304C204601F0E5FA9FED53
:101B4000308AF0EE480AB0EE680A0321204601F020
:101B500012FAF0EE480A9DED0B0A0421204601F02E
:101B60000AFAF0EE480A9DED0C0A0521204601F024
:101B700002FA204601F0C8FA9FED208AF0EE480AEA
:101B8000B0EE690A0021204601F0F5F9F0EE480AAE
:101B90009DED080A0121204601F0EDF9F0EE480A1A
:101BA000B0EE490A0221204601F0E5F9204601F095
:101BB000ABFABDEC048BBDE8104004B070470E4B8F
:101BC00093ED0F7ADDED087AB4EEE77AF1EE10FAD4
:101BD0008FD47FE7DFED090AB0EE490A02212046E3
:101BE00001F0C9F99AE7DFED050AB0EE690A0021B4
:101BF000204601F0C0F99EE7A01100209A99993F74
:101C00009A99993E30B585B08446284B01225A7185
:101C100093EDCA7ADFED267AB4EEE77AF1EE10FAA8
:101C20001AD503F54B7207CA8DE8070003F5487310
:101C30000ECB6046FFF740FF1E4CF6EE000A9FED0C
:101C40001E0A204601F096FA204601F05DFA174B75
:101C500000225A7105B030BD144C04F5577393E857
:101C600007008DE8070004F554730ECB6046FFF7BC
:101C700023FF104DF6EE000A94EDCE0A002128460F
:101C800001F079F9F6EE000A94EDCF0A0121284619
:101C900001F071F9F6EE000A94EDD00A022128460F
:101CA00001F069F9284601F02FFAD0E7A0210020C1
:101CB00000002044A01100200000484308B5002186
:101CC000014802F02BFE08BD481A0020C379012B01
:101CD00000D0704710B50446134B5B78DBB1124B54
:101CE0009B7A83B1104BDB7A33B90F4B1B7B53B11B
:101CF0000E4802F055FD06E00C4802F03DFD02E002
:101D000001200EF098F8084B1B79002BF8D02046E4
:101D1000FFF7CCFE00B910BD2046FFF773FF204649
:101D2000FFF7CCFFF7E700BFA0210020D418002068
:101D30000B88A0F882304B88A0F884308B88A0F8FC
:101D40008630704710B52DED028B0446DFED168A04
:101D50009FED168AF0EE680AB0EE480A203004F0D3
:101D600017FBF0EE680AB0EE480A04F13C0004F0FC
:101D70000FFBDFED0F0AB0EE480A04F1580004F043
:101D800007FB002104F1740005F022FF002384F812
:101D90007830012284F8752084F8763084F8773022
:101DA0002046BDEC028B10BD00C0F3440040E74468
:101DB0000080F24408B50248FFF7C4FF08BD00BF29
:101DC0001811002070B582B004460D4616461A461A
:101DD0000823009300F17903FFF7A2FA069B009312
:101DE000034B324629462046FFF7E0FA02B070BDA9
:101DF000311D000810B50446B0F8843000EE103AEA
:101E0000B8EE400A203004F0D1FAB4F8863000EE83
:101E1000103AB8EE400A04F13C0004F0C7FAB4F8F6
:101E2000823000EE103AB8EE400A04F1580004F097
:101E3000BDFA10BD10B5044690F8753073B100239B
:101E400080F87630203004F00BFB04F13C0004F005
:101E500007FB04F1580004F003FB10BD012380F8D8
:101E60007630203004F0FFFA04F13C0004F0FBFA75
:101E700004F1580004F0F7FAEFE7000010B504464B
:101E80000F21064B18680EF055F818B1012384F89D
:101E9000753010BD002384F87530FAE7B0250020B6
:101EA00070B506460024254601E0013464B2022CD8
:101EB0000BDCC4EBC40080002030304404F0D6FAC0
:101EC0000028F2D00135EDB2EFE786F8785070BD0A
:101ED00008B590F86E1090F8792061F3000280F850
:101EE000792090F83610D2B261F3410280F879205F
:101EF00090F85210D2B261F3820280F87920FFF795
:101F000017FA08BD08B5C1EBC101890020310844AA
:101F100004F0AEFA08BD70B506460C46CD00C1EB24
:101F2000C1039B002033184404F0A5FA2D1B06EBD7
:101F30008505012385F83730022C00D070BD0021C3
:101F400006F1740005F046FEF8E790F87800704757
:101F5000C1EBC10100EB810090F83800704710B56B
:101F600004460EF0DFF994F86E3013B194F8703037
:101F700073B194F8363013B194F838307BB194F8DB
:101F8000523013B194F8543083B10EF0EDF910BD16
:101F900004F1580004F072FA0EF0E6F9F7E704F1E4
:101FA000200004F06BFA0EF0DFF9F0E704F13C00DA
:101FB00004F064FA0EF0D8F9E9E70000054B1B794C
:101FC0001BB1012380F877307047002380F8773009
:101FD000704700BFF81C002090F87700704708B5E4
:101FE000FFF7E8FE08BD0000012300F8083C0B786D
:101FF0004A7802F0030243EA022307EE903AF8EE31
:10200000677A9FED2D7A77EE877AC0ED0A7A4A7863
:102010008B7803F00F039B0143EA920307EE903A9B
:10202000F8EE677A9FED257A77EEC77AC0ED0B7AE6
:102030008A78CB7803F03F031B0143EA121307EEC3
:10204000903AF8EE677A9FED1E7A77EEC77AC0ED88
:102050000C7A0A794B7903F07F035B0043EAD213D1
:102060005BB207EE903AF8EEE77AC0ED107A4A7963
:102070008B795B0043EAD21343F308031BB207EEEC
:10208000903AF8EEE77AC0ED0F7ACA780B7903F050
:102090007F039B0043EA921343F308031BB207EE4E
:1020A000903AF8EEE77AC0ED0E7A064B5A6C42632E
:1020B0009B6C4364704700BF000048430000C84366
:1020C00000001643481A002010B52DED028B04467F
:1020D0009FED268AF0EE480AB1EE040AFFF7AFFB47
:1020E000F0EE480AB1EE040A04F12000FFF7A7FB66
:1020F000F0EE480AB1EE040A04F14000FFF79FFB3E
:102100009FED1B8AF0EE480AB1EE040A04F160006C
:10211000FFF795FBF0EE480AB1EE040A04F18000E7
:10212000FFF78DFBF0EE480AB1EE040A04F1A000BF
:10213000FFF785FBF0EE480AB1EE040A04F1C00097
:10214000FFF77DFBF0EE480AB1EE040A04F1E0006F
:10215000FFF775FB002384F8213184F82331A4F8BC
:1021600024312046BDEC028B10BD00BF9A99993EE8
:10217000CDCCCC3D08B50248FFF7A6FF08BD00BF97
:10218000A0110020164BC0F8CC31164BC0F8EC3132
:10219000154BC0F8D031154BC0F8F031144BC0F8D6
:1021A000D431144BC0F8F431134AC0F8E421134B76
:1021B000C0F804320021C0F8E811C0F80832104914
:1021C000C0F8E0110F49C0F800120F49C0F8D8114B
:1021D0000E49C0F8F811C0F8FC31C0F8DC21704796
:1021E0000000484300E083440080C5C3004005442C
:1021F000000043C3000025440000B4C20000B44204
:1022000000007FC300007F43000020C30000204384
:1022100010B504460F21064B18680DF08BFE18B957
:10222000012384F8223110BD002384F82231FAE71B
:10223000A825002090F8210170470000054B1B796C
:102240001BB1012380F821317047002380F8213130
:10225000704700BFF81C002010B504460EF062F86D
:1022600004F59470FFF764F80EF07EF810BD0000DE
:1022700010B504460EF056F894ED5C0ADFED437A93
:1022800030EE670A30EE000A18F0FEF8BCEEC00A25
:10229000B4F8483110EE102A62F30A03A4F848316A
:1022A00094ED5D0ADFED3A7A30EE270A30EE000A4F
:1022B00018F0EAF8BCEEC00AD4F8483110EE102A43
:1022C00062F3D523C4F8483194ED5E0ADFED317A2C
:1022D00030EE270A30EE000A18F0D6F8FCEEC07A8D
:1022E00017EE903AC3F30901B4F84A2102F03F0215
:1022F00042EA8112A4F84A21C3F3802394F84C21C6
:1023000022F00102134384F84C3194ED610A30EE5F
:10231000000A18F0B9F8BDEEC00A10EE103A43F307
:102320000903B4F84E2163F30D12A4F84E2194ED85
:10233000620A30EE000A18F0A7F8BDEEC00A10EEEF
:10234000103A43F30803D4F84C2163F3D322C4F8C2
:102350004C2194ED600A30EE000A18F095F8BDEEBD
:10236000C00A10EE103A43F30903B4F84C2163F3AA
:102370004A02A4F84C21D4F88C21074B1A63D4F8F4
:102380007C215A630DF0F0FF10BD00BF00004843F0
:102390000000C84300001643481A002001F1400322
:1023A00000EB830383ED000A012924D9CB1EDBB2A5
:1023B000012B20D901F1720300EB8303D3ED017AE5
:1023C000F4EEC07AF1EE10FA05DB403100EB81004B
:1023D000C0ED007A704701F17A0300EB8303D3ED7F
:1023E000017AF4EEC07AF1EE10FA04D8403100EB35
:1023F0008100C0ED007A704738B52DED028B0446A0
:102400000D4601F1720300EB830393ED018AB4EEF4
:10241000C08AF1EE10FA0CDA01F17A0300EB8303C3
:1024200093ED018AB4EEC08AF1EE10FA01D9B0EE54
:10243000408AB0EE480A29462046FFF7AFFFB0EECB
:10244000480A04EB451020F03BFABDEC028B38BD86
:1024500010B52DED028B04469FED190A0021FFF700
:10246000CBFF9FED180A01212046FFF7C5FFB3EE11
:10247000040A02212046FFF7BFFF9FED138AB0EE4A
:10248000480A03212046FFF7B7FFB0EE480A0421AF
:102490002046FFF7B1FFB0EE480A05212046FFF7BE
:1024A000ABFFB0EE480A06212046FFF7A5FFB0EECD
:1024B000480A07212046FFF79FFFBDEC028B10BDA5
:1024C0000000C84300008C4200000000F0B583B05B
:1024D00004460D461E4600F59477089B00930A4B70
:1024E0003846FEF763FF0823009304F5A4733246D1
:1024F00029463846FEF714FF2046FFF743FE2046E4
:10250000FFF7A6FF03B0F0BDE91F000810B52DEDE1
:10251000048B044690ED3F0A9FED179A20EE090ABE
:10252000DFED168A80EE280A10F072FADFED147AD9
:1025300020EE278ADFED137A38EE278A84ED648A4D
:10254000D4ED377A67EE897A87EEA80A84ED670AB8
:1025500010F05EFA28EE008A84ED668A94ED648AB3
:1025600094ED670A10F0A0FA28EE008A84ED658ADF
:10257000BDEC048B10BD00BFDB0F494000003443AD
:102580000000434300004843D0ED667AC0ED737A03
:102590009FED037A77EE877AC0ED7B7A704700BFB4
:1025A00000002544D0ED657AC0ED747A9FED037A82
:1025B00077EE877AC0ED7C7A704700BF00000A434F
:1025C00010B50446D0ED3F7A9FED0D7A67EE877A1D
:1025D0009FED0C0A87EE800A10F066FADFED0A7AAA
:1025E00020EE270ADFED097A77EEC07AC4ED757A1E
:1025F0009FED077A77EE877AC4ED7D7A10BD00BF34
:10260000DB0F49400000344300004343000000005A
:1026100000002544D0ED377A9FED057A77EEC76A42
:10262000C0ED766A77EE877AC0ED7E7A704700BF9C
:102630000000A442D0ED3F7A9FED047A77EEC77A8E
:10264000C0ED777A80ED7F7A704700BF0000B4421A
:1026500010B50446FFF798FF2046FFF7A3FF20467A
:10266000FFF7AEFF2046FFF7D5FF2046FFF7E2FF5A
:1026700010BD000010B50446D0ED407A90ED7B0A05
:10268000F4EEC07AF1EE10FA1DDC90ED730AF4EE70
:10269000C07AF1EE10FA2DD5012380F8233190EDA8
:1026A000687A77EEC07A37EE277A80ED687A20F084
:1026B000EFF8D4F8CC31C4F800312360114B00227C
:1026C000C3F8202510BD012380F8233190ED687AEE
:1026D00077EEC07A37EE277A80ED687A20F0D8F866
:1026E000D4F8EC31C4F800312360064B0022C3F863
:1026F0002025E7E7B0EE670A20F0CAF8D4F80031E9
:102700002360DFE7AC13002010B50446D0ED417A1A
:1027100090ED7C0AF4EEC07AF1EE10FA1EDC90ED3A
:10272000740AF4EEC07AF1EE10FA2FD5012380F886
:10273000233190ED697A77EEC07A37EE277A80ED13
:10274000697A203020F0A4F8D4F8D031C4F80431EC
:102750002362134B0022C3F8202510BD012380F80B
:10276000233190ED697A77EEC07A37EE277A80EDE3
:10277000697A203020F08CF8D4F8F031C4F80431B4
:102780002362074B0022C3F82025E6E7B0EE670A74
:10279000203020F07DF8D4F804312362DDE700BF5B
:1027A000AC13002038B501F1400300EB8303D3EDF7
:1027B000007A01F1720300EB830393ED017AF4EEEA
:1027C000C77AF1EE10FA13D801F1400300EB83034E
:1027D00083ED007A01F1400500EB850500EB411423
:1027E00095ED000A204620F053F82B68236038BD91
:1027F00001F17A0300EB830393ED017AF4EEC77ADB
:10280000F1EE10FAE6DB01F1400300EB830383ED08
:10281000007ADFE710B50446D0ED437A90ED7E0AEA
:10282000F4EEC07AF1EE10FA19DC90ED760AF4EECF
:10283000C07AF1EE10FA23D590ED467A77EEC07AA1
:1028400037EE277A80ED467A80ED430A603020F03B
:102850001FF8D4F8D831C4F80C31236610BD90EDC0
:10286000467A77EEC07A37EE277A80ED467A603086
:1028700020F00EF8D4F8F831C4F80C312366EDE7F7
:10288000B0EE670A603020F003F8D4F80C3123660C
:10289000E4E710B50446D0ED447A90ED7F0AF4EEFB
:1028A000C07AF1EE10FA1ADC90ED770AF4EEC07AF5
:1028B000F1EE10FA25D590ED477A77EEC07A37EE33
:1028C000277A80ED477A80ED440A80301FF0E0FFE0
:1028D000D4F8DC31C4F81031C4F8803010BD90ED6C
:1028E000477A77EEC07A37EE277A80ED477A8030E4
:1028F0001FF0CEFFD4F8FC31C4F81031C4F880309A
:10290000ECE7B0EE670A80301FF0C2FFD4F8103158
:10291000C4F88030E2E7000038B5054600240CE03A
:10292000032C42D0042C44D021462846FFF73AFF1E
:10293000224801F0FFFB0134E4B2072C3DD81F4BC5
:10294000D3EDF47AF5EE407AF1EE10FAE8D1D3ED5A
:10295000F57AF5EE407AF1EE10FAE1D193EDF60A50
:1029600010F04CF8DFED167AB4EEE70AF1EE10FA4B
:10297000D6D5042C14D8DFE804F00307130B0F009E
:102980002846FFF777FED6E72846FFF7BDFED2E7D9
:102990002846FFF73FFFCEE72846FFF77AFFCAE752
:1029A00021462846FFF7FEFEC5E72846FFF732FF1F
:1029B000C1E72846FFF76DFFBDE738BDAC13002027
:1029C0000AD7233C38B50546002405E005EB441042
:1029D0001FF07AFF0134E4B2072CF7D938BD80ED3F
:1029E0005C0AD0ED737AF4EEC07AF1EE10FA02DBF5
:1029F000C0ED5C7A7047D0ED7B7AF4EEC07AF1EEF0
:102A000010FA01D8C0ED5C7A704780ED5D0AD0ED18
:102A1000747AF4EEC07AF1EE10FA02DBC0ED5D7A62
:102A20007047D0ED7C7AF4EEC07AF1EE10FA01D85E
:102A3000C0ED5D7A704780ED5E0AD0ED757AF4EEF8
:102A4000C07AF1EE10FA02DBC0ED5E7A7047D0ED8D
:102A50007D7AF4EEC07AF1EE10FA01D8C0ED5E7A1C
:102A6000704780ED620AD0ED777AF4EEC07AF1EE2D
:102A700010FA02DBC0ED627A7047D0ED7F7AF4EE97
:102A8000C07AF1EE10FA01D8C0ED627A704780ED9D
:102A9000610AD0ED787AF4EEC07AF1EE10FA02DB3A
:102AA000C0ED617A7047D0ED807AF4EEC07AF1EE35
:102AB00010FA01D8C0ED617A704780ED600AD0ED60
:102AC000617A90ED767AF4EEC77AF1EE10FA02D8D8
:102AD00080ED617A704790ED7E7AF4EEC77AF1EE80
:102AE00010FA01DB80ED617A704780ED630AD0ED6A
:102AF0007A7AF4EEC07AF1EE10FA02DBC0ED637A76
:102B00007047D0ED827AF4EEC07AF1EE10FA01D877
:102B1000C0ED637A704780ED5F0AD0ED797AF4EE0C
:102B2000C07AF1EE10FA02DBC0ED5F7A7047D0EDAB
:102B3000817AF4EEC07AF1EE10FA01D8C0ED5F7A36
:102B4000704710B5044690ED070AFFF748FF94ED73
:102B50000F0A2046FFF759FF94ED170A2046FFF7AA
:102B60006AFF94ED270A2046FFF77BFF94ED2F0ABA
:102B70002046FFF78CFF94ED1F0A2046FFF79DFFCC
:102B800094ED3F0A2046FFF7B0FF94ED370A204648
:102B9000FFF7C1FF10BD10B50446FFF7B7FC204694
:102BA000FFF756FD2046FFF7B7FE2046FFF70AFF66
:102BB0002046FFF7C6FF2046FFF75AFB10BD000076
:102BC00038B52DED028B05460C46B0EE408AF0EE8E
:102BD000C08ADFED3E7AF4EEE78AF1EE10FA10DDFE
:102BE00002292FD89FED3A0AF7EE007AF4EEE78A31
:102BF000F1EE10FA01DD20EE280A05EB44101FF07B
:102C00004FFEF7EE007AF4EEE78AF1EE10FA1CD9E7
:102C1000F7EE007AF4EEE78AF1EE10FA25DD04F122
:102C2000400305EB8303D3ED007A88EE287A05EBA9
:102C30004412D2ED046A27EE267A77EE877AC3ED46
:102C4000007A12E09FED230ACEE704F1400305EB82
:102C50008303D3ED007A05EB441292ED047A27EE5C
:102C6000087A77EE877AC3ED007A012C19D9E31E32
:102C7000DBB2012B15D904F1400305EB8303D3ED3F
:102C8000007A04F1720305EB830393ED017AF4EE0D
:102C9000C77AF1EE10FA07D8403405EB840484EDCE
:102CA000007ABDEC028B38BD04F17A0305EB830397
:102CB00093ED017AF4EEC77AF1EE10FAF1DB4034CD
:102CC00005EB840585ED007AEBE700BF17B7D13837
:102CD0006766E63E9A99193E10B5044690ED540A8F
:102CE0000021FFF789FB94ED550A01212046FFF7EB
:102CF00083FB94ED560A02212046FFF77DFB94EDFD
:102D0000570A06212046FFF777FB94ED5B0A07215F
:102D10002046FFF771FB94ED580A03212046FFF788
:102D20006BFB94ED5A0A04212046FFF765FB94EDF6
:102D3000590A05212046FFF75FFB10BD10B5044678
:102D4000FFF7CAFF002384F823310023C4F8A03121
:102D5000C4F8A43110BDB0F8243141F28732934257
:102D600001D9012070470133A0F8243100207047B9
:102D700001F1400300EB8303D3ED007A37EE800AC4
:102D800083ED000A012924D9CB1EDBB2012B20D907
:102D900001F1720300EB8303D3ED017AB4EEE70A8D
:102DA000F1EE10FA05D8403100EB8100C0ED007A59
:102DB000704701F17A0300EB8303D3ED017AB4EE9F
:102DC000E70AF1EE10FA04DB403100EB8100C0EDC0
:102DD000007A704700000000022900D9704730B522
:102DE0002DED088B8BB005460C46F0EE408AB0EE18
:102DF000608AB0EE41AA2422002101A81BF006FD42
:102E000095ED1F7ADFED447A87EE270A95ED277A54
:102E100037EE287AC7EE270A95ED2F7A87EE271A24
:102E2000DFED3E7A01A821EE271A60EEA70A20EE18
:102E3000270AFEF711FD0AAB03EB840313ED090A21
:102E400020EE08BAE31C0AAA02EB830313ED097A09
:102E500067EE08AA063402EB840454ED097A27EEE3
:102E6000888A60EE0A9A27EE0A9A27EE8AAAF0EE7E
:102E7000E97A17EE900AFDF707FB25A3D3E90023B3
:102E8000FDF7EAFD68BBF0EEC97A17EE900AFDF790
:102E9000FBFA1FA3D3E90023FDF7DEFD38BBF0EEFC
:102EA000CA7A17EE900AFDF7EFFA19A3D3E90023C7
:102EB000FDF7D2FD10BBB0EE4B0A00212846FFF70C
:102EC00057FFB0EE6A0A01212846FFF751FFB0EE26
:102ED000480A02212846FFF74BFF0BB0BDEC088BD8
:102EE00030BDB0EE690A28461FF0DAFCCBE7B0EE41
:102EF000490A05F120001FF0D3FCD0E7B0EE4A0AE2
:102F000005F140001FF0CCFCD5E700BFAFF3008017
:102F1000FCA9F1D24D62503F00003443DB0F494021
:102F200038B50546002405E005EB4410FEF78EFC9D
:102F30000134E4B2072CF7D938BD38B50546002472
:102F400005E005EB4410FEF784FC0134E4B2072CE5
:102F5000F7D938BD38B505460024072C08D805EB4D
:102F600044101FF0A1FC034618B10134E4B2F4E7A9
:102F70000123184638BD38B52DED028B04460D46A9
:102F8000B0EE608AFFF70AFAB0EE480A04EB45108B
:102F90001FF086FCBDEC028B38BD38B505460C46EB
:102FA00001F1400300EB8303D3ED007A77EE807AE2
:102FB000C3ED007AB0EE600A00EB41101FF070FC28
:102FC000012C19D9E31EDBB2012B15D904F1400302
:102FD00005EB8303D3ED007A04F1720305EB830361
:102FE00093ED017AF4EEC77AF1EE10FA05D8403489
:102FF00005EB840484ED007A38BD04F17A0305EB17
:10300000830393ED017AF4EEC77AF1EE10FAF3DB65
:10301000403405EB840585ED007AEDE710B52DED24
:10302000028B0446B0EE408A60301FF039FCB0EEEF
:10303000480A04F180001FF033FCB0EE480A04F1A6
:10304000A0001FF02DFCB0EE480A04F1C0001FF0F4
:1030500027FCB0EE480A04F1E0001FF021FCBDECB3
:10306000028B10BD10B52DED028B0446B0EE408AE8
:103070001FF016FCB0EE480A04F120001FF010FC0F
:10308000B0EE480A04F140001FF00AFCBDEC028BD0
:1030900010BD0000D0ED077A9FED197A77EEC77A60
:1030A000F0EEE77AB1EE047AF4EEC77AF1EE10FAB8
:1030B0001FD5D0ED0F7A9FED137A77EEC77AF0EE39
:1030C000E77AB1EE047AF4EEC77AF1EE10FA12D58F
:1030D000D0ED177AB3EE047A77EEC77AF0EEE77A9E
:1030E000B1EE047AF4EEC77AF1EE10FA05D40020BE
:1030F000704700207047002070470120704700BFD4
:103100000000C84300008C4210B507F023FB0446C2
:1031100002E001200CF08FFE0548FFF71BFF28B9E5
:1031200007F018FB04F5FA538342F2D210BD00BF3A
:10313000A011002000B583B000290EDB02290CDCB1
:10314000002A0ADB022A08DC019002EB4202114449
:1031500000EB810003B05DF804FB034B034A4FF41E
:10316000B771034818F0F8FF182C0208502C020819
:10317000182D020870B52DED068B0646F0EE409A2C
:10318000B0EE60AA00249FED218AF0EE488AB0EEEE
:10319000489A1DE006F5D475224600212846FFF71F
:1031A000C9FFD0ED007A39EE279A22460121284640
:1031B000FFF7C0FFD0ED007A78EEA78A2246022101
:1031C0002846FFF7B7FFD0ED007A38EE278A0134A2
:1031D000022CDFDD69EE0A0A29EE290A00213046B9
:1031E000FFF7C9FE68EE8A0A28EEA90A01213046D7
:1031F000FFF7C1FE68EE0A0A28EE290A02213046CE
:10320000FFF7B9FEBDEC068B70BD00BF00000000EB
:10321000D1ED007A37EEA76AD1ED015A35EEA55A05
:1032200091ED027A77EE074AD1ED036A26EE864ADF
:1032300026EE853A66EEA46A27EE866A67EE852A50
:1032400067EEA47A25EE855A65EEA45A27EE247A15
:1032500075EE073AF7EE004A74EEE33AC0ED003A35
:1032600072EEE63AC0ED033A73EE273AC0ED063A45
:1032700076EEA26AC0ED016A36EE077A34EEC77ABE
:1032800080ED047A35EEC47A80ED077A77EEC37A62
:10329000C0ED027A34EE254A80ED054A36EE056A25
:1032A00074EEC64AC0ED084A704710B58AB00446AD
:1032B00001A8FFF7ADFFA6460DF1040CBCE80F0016
:1032C000AEE80F00BCE80F00AEE80F00DCF80030FD
:1032D000CEF8003020460AB010BD0000032900D10E
:1032E000704708B5024B034A8521034818F034FFA4
:1032F0005C2D02086C2D0208D42D020870B505461D
:103300000E461446FFF7EAFF2146681CFFF7E6FF6A
:10331000032E05D1002C03DB032C01D1284670BD00
:10332000024B034A4721034818F016FF182E0208E3
:10333000B02E02089C2F020838B50446154600231B
:103340004360826003210C30FFF7C8FF002D03DBD0
:10335000022D01DC204638BD024B034A7821034888
:1033600018F0FAFEE02F020888300208A83102089F
:1033700030B583B004460D4601AB032211466846C2
:10338000FFF7BCFF2A4669462046FFF7D5FF2046D7
:1033900003B030BD012900D1704708B5024B034A84
:1033A0008521034818F0D8FE5C2D0208E43102089C
:1033B000D42D0208F8B504460E4615461F46FFF701
:1033C0008DFF2946601CFFF7E5FF3B686360032E15
:1033D00005D1002D03DB012D01D12046F8BD034BA3
:1033E000034A4721034818F0B7FE00BF182E020811
:1033F0004C3202089C2F020810F00F0F00D17047CA
:1034000008B5034B034A6D21034818F0A5FE00BF21
:103410004033020830340208BC34020810B52DEDE8
:10342000048B0446D1ED037A92ED036A67EE868A37
:10343000D1ED006A92ED007A66EE875A78EEE58A61
:10344000D1ED015A92ED015A65EE854A78EEE48A93
:10345000D1ED024A92ED024A64EE843A78EEE38AB4
:1034600067EE879A66EE263A79EEA39A65EE843A7D
:1034700079EEA39A65EE243A79EEE39A27EE859ADF
:1034800066EE253A39EE239A67EE243A39EE239A0E
:1034900066EE843A39EE639A27EE848A26EE246A31
:1034A00038EE068A66EE856A38EE268A27EE257A99
:1034B00038EE478AFFF7A0FFC4ED009A84ED019A29
:1034C00084ED028AC4ED038A2046BDEC048B10BD56
:1034D00003681968426853680133926893420CD0BC
:1034E00000234B600368196842685368023392688E
:1034F000934205D000238B6070474FF07E53F0E776
:103500004FF07E53F7E708B503681A6843685968B7
:103510009B68994204D000231360FFF7D9FF08BDD0
:103520004FF07E53F8E700B58BB04B6807938B687C
:103530000893059005AB019306AB029303920490A8
:1035400001A8FFF7E0FF0BB05DF804FB01B970477D
:1035500008B5034B034A8521034818F0FDFD00BF61
:103560005C2D020800350208D42D0208F8B5044687
:103570000E4617461D4640F8041B1146FFF7AEFEE7
:103580002946601DFFF706FF2EB1032F05D1002D40
:1035900003DB012D01D12046F8BD034B034AB021C6
:1035A000034818F0D9FD00BF683502081436020838
:1035B000D4360208F8B504460F4616461D4602EBFF
:1035C0008301079B069A07EB8101FFF7CFFFA760F6
:1035D000E660294604F11000FFF7B8FF0423636199
:1035E0002046F8BD2DE9F04182B0804616461F46C0
:1035F000089C099D01950094FFF7DCFF032C15D171
:10360000012D13D1002E17DB002C15DBC4F10404AF
:10361000B44211DB002F0FDB002D0DDBC5F10105DE
:10362000BD4209DB404602B0BDE8F081054B064AC9
:103630009021064818F090FD054B034A922103485B
:1036400018F08AFD1037020890370208A8310208E6
:103650009038020803681A684368D3ED017ADB6882
:1036600093ED017A67EE877AC2ED017A03681A68F2
:103670004368D3ED017ADB6893ED027A67EE877ACF
:10368000C2ED027A704708B5026812684368D3ED4C
:10369000017ADB6893ED007A67EE877AC2ED007AF3
:1036A000FFF7D8FF08BD0000042900D1704708B516
:1036B000024B034A8521034818F04EFD5C2D020899
:1036C00020390208D42D020810B504460B6840F8D2
:1036D000043B0121FFF75EFE0421601DFFF7E4FFBC
:1036E000204610BD70B58AB0044615468B68079316
:1036F000CB68099304AE01463046FFF7E5FF00961C
:1037000006AB0193029503946846FFF7BCFF0AB02D
:1037100070BD30B52DED028B93B004460D4691ED92
:10372000038AF6EE007A28EE278AB0EE480A16F0F1
:103730002DFE109484ED030AB0EE480A16F066FEE2
:103740008DED0D0A0DAB012203210EA8FFF732FE0D
:103750000F9B0493059501230193032300930023FA
:103760001A46214607A8FFF73DFF11AA02A907A89C
:10377000FFF7B8FF204613B0BDEC028B30BD2DE93A
:10378000F0418AB00546884617460DF10F0424F033
:103790000F0404F110063046FFF72EFE4146304676
:1037A000FFF7B7FF2046FFF727FE39462046FFF711
:1037B000B0FF224631462846FFF730FE28460AB0C1
:1037C000BDE8F081F0B587B005460E4617460DF10D
:1037D0000F0424F00F042046FFF70EFE3946204662
:1037E000FFF797FF224631462846FFF717FE284687
:1037F00007B0F0BD70B52DED048BA6B004460DF1F9
:103800000F0525F00F05D0ED1F7A9FED259A87EE65
:10381000898ADFED248A28EE288A02210FA8FFF783
:10382000A7FD23AA0FA90BA8FFF77DFE8DED0E8A39
:10383000D4ED277A87EE898A28EE288A012117A8F5
:10384000FFF796FD24AA17A913A8FFF76CFE8DEDCC
:10385000168A05F1100613AA0BA93046FFF78FFF51
:10386000D4ED2F7A87EE898A28EE288A00211FA8B6
:10387000FFF77EFD25AA1FA91BA8FFF754FE8DEDBB
:103880001E8A1BAA31462846FFF79CFF294604F5ED
:10389000D470FFF70AFD26B0BDEC048B70BD00BFED
:1038A00000003443DB0F494008B5FEF763FC08BD58
:1038B00070B504460646032504E0304603F012FDC9
:1038C000013DE436002DF8DA012284F8902300232C
:1038D00084F8913384F8922384F8973384F89333EF
:1038E00084F8942384F89523074AC4F8E0234FF022
:1038F0007C51C4F8DC13C4F8E423C4F8203584F800
:103900009633204670BD00BF3333733F08B502487D
:10391000FFF7CEFF08BD00BFAC130020034600F543
:103920006472934204D093F8330010B1E433F8E7A3
:1039300001207047F8B50646044600F56477002577
:1039400008E0204603F05EFE204603F012FE054428
:10395000EDB2E434BC42F4D125B1012386F89033B2
:103960002846F8BD002386F89033F9E790F89103D4
:10397000704790F89203704790F890331BB1002382
:1039800080F891337047012380F8913370470346E4
:1039900000F5647100E0E4338B4208D093F83020E6
:1039A000002AF8D193F833000028F4D100E0012078
:1039B00070470000054B1B791BB1012380F892333F
:1039C0007047002380F89233704700BFF81C002036
:1039D00010B52DED028B044690F89433002B4ED198
:1039E00090EDFE8AD0EDFD8A38EE680ADFED487A68
:1039F00080EE270A16F0F4FB04F5816383ED000ADC
:103A000078EE280AF6EE007A60EEA70A04F58063E5
:103A1000C3ED000A94F89533002B6BD094EDFF7A38
:103A2000DFED3C7A77EE277AF4EEE70AF1EE10FA52
:103A300038D99FED397AC0EE077A04F20443C3ED1A
:103A4000007A0EF0DBFFDFED357AB4EEE70AF1EE37
:103A500010FA0FD894EDFD7ADFED317AB4EEE77A03
:103A6000F1EE10FA31D494EDFE7AB4EEE77AF1EE8D
:103A700010FA2AD404F28444002323600FE000F2F9
:103A80007C420023136000F59062136000F28442D0
:103A9000136000F58162136000F204442360BDEC02
:103AA000028B10BDB0EE470A04F20C40FDF706FE93
:103AB000F1EE407A04F27C43C3ED007AD4EDF47A5F
:103AC00077EEC07AC4EDF47AE9E704F20443DFED5F
:103AD000150A93ED000A04F24440FDF7EFFD04F2ED
:103AE000844383ED000AD4EDF67A77EE807AC4ED54
:103AF000F67AD4E704F27C420023136004F5906266
:103B0000136004F28442136004F204442360C6E7A5
:103B10000000324300009643DB0FC94000004842DA
:103B200000002F440000000010B504460F21064B92
:103B300018680CF0FFF918B1012384F8943310BD14
:103B4000002384F89433FAE7C425002090F8940306
:103B50007047D0EDFC7A37EE800A80EDFC0AFBEE70
:103B60000E7AB4EEE70AF1EE10FA02D8C0EDFC7A54
:103B70007047F3EE0E7AB4EEE70AF1EE10FA01DBCD
:103B8000C0EDFC7A704780EDEA0AD0EDF97AB1EE2B
:103B9000677AB4EEC07AF1EE10FA02DB80EDEA7AD1
:103BA0007047F4EEC07AF1EE10FA01D8C0EDEA7A6F
:103BB000704780EDF10AD0EDF97AB1EE677AB4EE94
:103BC000C07AF1EE10FA02DB80EDF17A7047F4EE84
:103BD000C07AF1EE10FA01D8C0EDF17A704780EDAD
:103BE000F40AD0EDF97AB1EE677AB4EEC07AF1EE6C
:103BF00010FA02DB80EDF47A7047F4EEC07AF1EE51
:103C000010FA01D8C0EDF47A704780EDF50AD0EDD6
:103C1000F97AB1EE677AB4EEC07AF1EE10FA02DB0F
:103C200080EDF57A7047F4EEC07AF1EE10FA01D823
:103C3000C0EDF57A704780EDF60AD0EDF97AB1EE75
:103C4000677AB4EEC07AF1EE10FA02DB80EDF67A14
:103C50007047F4EEC07AF1EE10FA01D8C0EDF67AB2
:103C60007047000000F59F63144A1A6000230DE0BE
:103C700003F59B7200EB82021049516003F59972C3
:103C800000EB82020E4911600133DBB2032BEFD946
:103C900000F59E630B4A1A6000F2F4430A4A1A6068
:103CA00000F2FC420023136000F2C442136000F5EE
:103CB00098600360054B1360704700BF6666D6408E
:103CC0000AD7233C17B7513A17B751390000704350
:103CD000F0B52DED048B83B00446DFED758A9FEDC2
:103CE000758A754E754F3B68019300250095F0EE7F
:103CF000680AB0EE480A33460122114603F0F6FA8C
:103D00006F4B1B6801930095F0EE680AB0EE480A0D
:103D100033460122022104F1E40003F0E7FA3B6894
:103D2000019301250095F0EE680AB0EE480A33468B
:103D30002A46032104F5E47003F0D8FA3B680193A6
:103D40000095F0EE680AB0EE480A33462A46042190
:103D500004F52B7003F0CAFA9FED5A9ADFED5A8AE8
:103D60009FED5A8AB0EE492AF0EE681AB0EE481A72
:103D7000F0EE480A9FED560A04F1AC001EF0B0FDCB
:103D8000B0EE492AF0EE681AB0EE481AF0EE480A92
:103D90009FED500A04F5C8701EF0A2FDB0EE492A4E
:103DA000F0EE681AB0EE481AF0EE480A9FED4A0AA3
:103DB00004F51D701EF094FDB0EE492AF0EE681A6D
:103DC000B0EE481AF0EE480A9FED440A04F556702A
:103DD0001EF086FD9FED429AB0EE492AF0EE681A79
:103DE000B0EE481AF0EE480AB2EE060A04F174008A
:103DF0001EF076FDB0EE492AF0EE681AB0EE481AD1
:103E0000F0EE480AB2EE060A04F5AC701EF068FD4A
:103E1000B0EE492AF0EE681AB0EE481AF0EE480A01
:103E2000B2EE060A04F50F701EF05AFDB0EE492AF4
:103E3000F0EE681AB0EE481AF0EE480AB2EE020A46
:103E400004F548701EF04CFD9FED269AB0EE482A0E
:103E5000F6EE001AB0EE491AF0EE490AB0EE480A42
:103E600004F56670FDF77FFCB0EE482AF6EE001A06
:103E7000B0EE491AF0EE490AB0EE480A04F56D704A
:103E8000FDF771FC9FED182AF0EE681AB0EE481AA3
:103E9000F0EE480A9FED150A04F591601EF020FD32
:103EA0002046FFF7DFFE03B0BDEC048BF0BD00BF82
:103EB0009A99993E0000FA4478250020DC250020DC
:103EC000D8250020CDCC4C3E0000C84200000000A8
:103ED000295C8F3DEC51383E9A99193EEC51B83D22
:103EE0003333733F0AD7A33B6666663F33330341E0
:103EF00010B52DED028B044600F2C443D3ED008AC9
:103F0000002318E0E42202FB034292ED2A7A03F533
:103F10009B7104EB8101D1ED017AB0EEC77A67EEB7
:103F2000877A92ED157AB0EEC77A67EE877A38EE27
:103F3000278A0133DBB2032BE4D904F20453514A3C
:103F40001A6004F5A16383ED008A04F20C53C3EDFB
:103F5000008A28EE080ADFED4C7A68EEA77ADFEDDA
:103F60004B6A87EEA67A30EE070A16F017F930EEA4
:103F7000480A9FED477AC0EE077AB7EE007AF4EE72
:103F8000C77AF1EE10FA11DDF7EE007AB7EE007A9B
:103F9000F4EEC77AF1EE10FA01DBF7EE007A04F5E1
:103FA000A064C4ED007ABDEC028B10BDB0EEC88AEF
:103FB0009FED387AB4EEC78AF1EE10FA59DD04F5B8
:103FC000986393ED006A36EE686A04F2FC4393ED61
:103FD000007A04F59E62D2ED006A66EE866A37EEDC
:103FE000267A83ED007AFEEE006AB4EEE67AF1EE10
:103FF00010FA03D8C3ED006A00231AE0F1EE0C6A50
:10400000B4EEE67AF1EE10FAF6DB04F2FC43C3ED0F
:10401000006AF1E7F3EE066AB4EEE67AF1EE10FA22
:1040200005DB03F59B7104EB8101C1ED016A0133EE
:10403000DBB2032B1DD803F59B7204EB820292EDD9
:10404000017A04F2F440D0ED006A66EE866A37EE3B
:10405000267A82ED017AF0EE086AB4EEE67AF1EEA5
:1040600010FAD7D803F59B7204EB8202C2ED016A05
:10407000DDE7F5EEC07AF1EE10FA87D8DFED067ACB
:104080008DE700BFBD378635BD3786360000A042BC
:10409000BD370636DC2434280000000000F21C5036
:1040A00090ED000ADFED027A80EE270A704700BF2C
:1040B0000000B44310B5044603F004FD04F21C53A1
:1040C0009FED030A83ED000A2046FFF7B4FD10BD03
:1040D00000000000012380F89733704738B505468B
:1040E0000CF020F92846FFF7E5FF0023C5F8E83378
:1040F000C5F8EC33C5F8F0332C4605F5647509E0D6
:104100000023A4F85030204603F018FA204603F0AC
:104110002BFAE434AC42F3D10CF026F938BD00237D
:1041200080F89733704780EDF81A80EDF90AC0EDFA
:10413000F70A704710B52DED028B04469FED0D8AEE
:10414000B0EE480A03F03EFAB0EE480A04F1E4008B
:1041500003F038FAB0EE480A04F5E47003F032FADE
:10416000B0EE480A04F52B7003F02CFABDEC028B7C
:1041700010BD00BF0000000038B52DED028B0546D4
:104180000CF0D0F82846FFF795FF9FED128AB0EEAD
:10419000480A2846FFF7F7FCB0EE480A2846FFF722
:1041A00008FD2846FFF7C6FF2C4605F5647509E0B3
:1041B0000023A4F85030204603F0C0F9204603F055
:1041C000D3F9E434AC42F3D10CF0CEF8BDEC028B61
:1041D00038BD00BF0000000070B50546044600F57C
:1041E000647603E0204603F027FAE434B442F9D1C0
:1041F0002846FFF7C1FF2846FFF770FF002385F828
:10420000973370BD10B504461C4B93F823318BB324
:1042100090F897339BB1194BD3F8A021C4F8E82349
:10422000D3F8A431C4F8EC332046FFF743FFD4F8A9
:1042300020350133C4F82035C82B06D810BDFFF750
:104240009BFF2046FFF746FFE5E70C4B002283F873
:1042500023210021C3F8A011C3F8A411C4F820251C
:104260002046FFF73BFF2046FFF786FF2046FFF77B
:1042700056FFE3E7FFF75EFFE0E700BFA011002075
:10428000012380F89633024A82F88730704700BFD6
:10429000A41A002008B5002280F89623024B83F868
:1042A0008720FFF707FF08BDA41A002010B52DEDE9
:1042B000028B104B93F8EA4024B901242046BDEC50
:1042C000028B10BD00F21C5090ED007ADFED0A7AEF
:1042D00087EE278A03F062FC38EE400A0EF08EFB70
:1042E000DFED067AB4EEE70AF1EE10FAE6D4002428
:1042F000E4E700BF0C1C00200000B4438FC2F53C73
:1043000008B5FFF703FB08BD38B5044602F0EAFF25
:10431000164D0122294604F5827004F07DF8022230
:10432000294604F59C7004F077F8002384F8E43003
:10433000012384F8E53084F8E63084F8E73084F827
:10434000E8300B4BC4F8EC300023C4F8F030C4F86C
:10435000F430084BC4F8FC304FF4B973A4F8F830CB
:104360004FF46B73A4F80031204638BD682B002051
:10437000000082C30000F04108B50248FFF7C4FF07
:1043800008BD00BFD418002010B52DED028B82B0FF
:10439000174B1B68019301230093DFED160A9FED75
:1043A000160A164B0222072102F0A0FF9FED148A85
:1043B000144CB7EE002AF0EE481AB0EE421AF0EEB6
:1043C000480AB1EE000A20461EF08AFA9FED0E2A36
:1043D000F0EE481A9FED0D1AF0EE480A9FED0C0A18
:1043E00004F138001EF07CFA02B0BDEC028B10BD67
:1043F000BC250020295C8F3D0000E1447825002089
:1044000000000000481900209A99193F666626406E
:10441000CDCC4C3E90F833007047000010B50446F8
:104420000F21064B18680BF085FD18B1012084F8A8
:10443000300010BD84F83000FBE700BFBC25002031
:1044400010B5044603F095F818B1002384F8E43061
:1044500010BD012384F8E430FAE790F8E4007047D7
:1044600090F8E500704790F8E600704708B503F053
:10447000E3F808BD10B50446D0ED3B7A9FED237AF2
:10448000F4EEC77AF1EE10FA24D884ED3B7A94ED7D
:104490003B7ADFED1F7A37EE277ADFED1E6AC7EE33
:1044A000267A9FED1D7A67EE877A9FED1C7A77EE6C
:1044B000877AC4ED3C7AF4EEC77AF1EE10FA13D99C
:1044C0009FED157AF4EEC77AF1EE10FA0EDB84ED6B
:1044D0003C7A0BE09FED127AF4EEC77AF1EE10FA17
:1044E000D5DB84ED3B7AD2E784ED3C7A94ED3C0A4F
:1044F000204603F0F3F8204603F0C2F8094C2046AA
:1045000003F01CF8204603F02FF810BD000082C312
:10451000000082430000EB4300808A43000000005B
:1045200000005243D4180020054B1B791BB1012316
:1045300080F8E5307047002380F8E530704700BF11
:10454000F81C002010B5044690ED3F7ADFED167A96
:1045500027EE277ADFED157A77EEC77AFDEEE77A58
:1045600017EE903A1BB2A0F80031114AB2F90020C0
:10457000D31A00EE103AB8EEC00A0EF03FFADFEDA3
:104580000D7AB4EEE70AF1EE10FA00DC10BDB4F9D2
:10459000001189B204F5827003F05CFFB4F90021C8
:1045A000034B1A80F2E700BF7B096D4000006B44AB
:1045B000D21800200AD7A33B10B5044690ED3D7AEF
:1045C000DFED167A27EE277ADFED157A77EEC77AD8
:1045D000FDEEE77A17EE903A1BB2A0F8F830114AD8
:1045E000B2F90020D31A00EE103AB8EEC00A0EF06D
:1045F00005FADFED0D7AB4EEE70AF1EE10FA00DC11
:1046000010BDB4F9F81089B204F59C7003F022FFD4
:10461000B4F9F820034B1A80F2E700BF7B096D4024
:104620000000B943D01800200AD7A33B80ED3F0A11
:10463000B5EEC00AF1EE10FA09D9DFED077AB4EE53
:10464000E70AF1EE10FA01DBC0ED3F7A7047002374
:10465000C0F8FC30704700BF00002042D0ED3F7A28
:1046600037EE800A80ED3F0AB5EEC00AF1EE10FA8F
:1046700009D9DFED077AB4EEE70AF1EE10FA01DBB3
:10468000C0ED3F7A70470023C0F8FC30704700BF90
:1046900000002042D0ED3D7A37EE800A80ED3D0AE1
:1046A000B5EEC00AF1EE10FA09D9DFED077AB4EEE3
:1046B000E70AF1EE10FA01DBC0ED3D7A7047002306
:1046C000C0F8F430704700BF00002042D0ED3D7AC2
:1046D00037EE800A80ED3D0ADFED097AB4EEE70A95
:1046E000F1EE10FA02D8C0ED3D7A7047DFED057AA1
:1046F000B4EEE70AF1EE10FA01DBC0ED3D7A704747
:10470000000020C20000704280ED3B0ADFED097A14
:10471000B4EEE70AF1EE10FA02D8C0ED3B7A70472A
:10472000DFED057AB4EEE70AF1EE10FA01DBC0ED39
:104730003B7A7047000082C300005243D0ED3B7AC1
:1047400037EE800A80ED3B0ADFED097AB4EEE70A26
:10475000F1EE10FA02D8C0ED3B7A7047DFED057A32
:10476000B4EEE70AF1EE10FA01DBC0ED3B7A7047D8
:10477000000082C30000524310B50446B3EE040AA1
:10478000FFF754FFBBEE040A2046FFF783FF9FEDBF
:10479000030A2046FFF7B8FF10BD00BF00004843E2
:1047A00010B50446B3EE040AFFF740FFB3EE040A67
:1047B0002046FFF76FFF9FED030A2046FFF7A4FF97
:1047C00010BD00BF000048C310B52DED028B04469C
:1047D0009FED090AFFF72AFF9FED088AB0EE480A0D
:1047E0002046FFF757FFB0EE480A2046FFF78CFF40
:1047F000BDEC028B10BD00BF000020420000000095
:1048000008B5FFF7B9FD08BD91F9003007EE903A01
:10481000F8EEE77AC0ED107A91F9013007EE903AA0
:10482000F8EEE77AC0ED117A8B78CA7802F00302CD
:1048300043EA022307EE903AF8EE677AC0ED127A67
:10484000CA780B7903F003039B0143EA920307EE56
:10485000903AF8EE677AC0ED147A0A794B7903F052
:104860000F039B0143EA920307EE903AF8EE677A52
:10487000C0ED137ACB79C3F3401380F85430CB7971
:10488000C3F3801380F85530CB79DB0980F85630BC
:1048900070470022027080F82E20704708B5024849
:1048A000FFF7F7FF08BD00BF481A002070B582B0BF
:1048B0000C4615461A46061D0823009300F12403F2
:1048C0003046FCF72DFD069B0093044B2A462146FB
:1048D0003046FCF76BFD02B070BD00BF0948000810
:1048E000044B1B7913B1012303707047002303703D
:1048F000704700BFF81C00200078704710B50446D0
:104900000F21054B18680BF015FB10B901236370DC
:1049100010BD00236370FBE7AC25002080F82E104B
:10492000704708B5FFF7BAFF08BD000008B5384B5F
:104930009B79012B2ED0022B58D103F0BBFC80B108
:10494000344B93F8643003F03002302A09D013F06E
:10495000200F06D113F0100F51D002212E48FDF781
:10496000D1FA03F0D3FC80B12A4B93F8643003F002
:104970003002302A09D013F0200F06D113F0100FA7
:1049800041D002212448FDF7C6FA03F0A9FC03F048
:10499000D3FC2BE003F08EFC80B11E4B93F8643007
:1049A00003F03002302A09D013F0200F06D113F0A3
:1049B000100F1CD002211848FDF7A4FA03F0A6FC42
:1049C00080B1144B93F8643003F03002302A09D0E0
:1049D00013F0200F06D113F0100F0CD002210E4857
:1049E000FDF799FA03F07CFC03F0A6FC08BD08482B
:1049F00001F05CFFE2E7064801F05BFFF2E70448E4
:104A000001F054FFADE7024801F053FFBDE700BFDE
:104A1000301B0020F81C00201811002010B50220C7
:104A200003F0B8FCA8B12348FEF788F9224C2046D1
:104A3000FFF754FB2046FFF79FFB0023C4F8203507
:104A4000202003F0A7FCC0B101211C48FDF75AFA51
:104A500010BD012003F09EFC30B11648FEF76EF940
:104A60001548FFF789FBEBE7042003F093FC0028CF
:104A7000E6D1082003F08EFCE2E7102003F08AFC68
:104A800020B101210D48FDF746FAE1E7802003F04F
:104A900081FC20B100210948FDF73DFAD8E740200C
:104AA00003F078FC0028D3D000210448FDF72AFA4F
:104AB000CEE700BFA0110020AC1300201811002089
:104AC000014B9B79012B7047301B0020014B9B79D8
:104AD000012B7047301B0020014B9B79012B704745
:104AE000301B0020014B9B79012B7047301B0020AD
:104AF0007047704708B5104B9B79012B02D0022BF1
:104B00000DD008BD0128FCD10C4B93F8643003F0A4
:104B10003003302BF5D10A48FDF721FAF1E70128DF
:104B2000EFD1064B93F8643003F03003302BE8D11B
:104B3000044801F013FCE4E7301B0020F81C0020BF
:104B400018110020A41A002008B50A4B9B79012BEC
:104B500003D0022B01D1012800D008BD064B93F8E9
:104B6000643003F03003302BF7D1044801F0F2FB3E
:104B7000F3E700BF301B0020F81C0020A41A00201F
:104B800008B5204B9B79012B02D0022B1DD008BD0C
:104B90000128FCD11C4B93F8643003F03002302A1A
:104BA00009D013F0200F0CD113F0100FEFD11748DC
:104BB00001F0E0FBEBE7012383F3138806F03AFAF8
:104BC000E5E7124801F0D2FBE1E70128DFD10E4B07
:104BD00093F8643003F03002302A09D013F0200F2C
:104BE0000CD113F0100FD2D1084801F0C3FBCEE76F
:104BF000012383F3138806F01DFAC8E7034801F088
:104C0000B5FBC4E7301B0020F81C0020A41A0020CC
:104C100008B5164B9B79012B02D0022B13D008BD8F
:104C20000128FCD1124B93F8643003F03002302A93
:104C3000F5D013F0200FF2D113F0100FEFD10B4885
:104C400001F03AFEEBE70128E9D1094B93F8643013
:104C500003F03002302AE2D013F0200FDFD113F03E
:104C6000100FDCD1014801F027FED8E7301B0020EF
:104C7000F81C002008B5164B9B79012B02D0022BA3
:104C800013D008BD0128FCD1124B93F8643003F017
:104C90003002302AF5D013F0200FF2D113F0100FAC
:104CA000EFD10B4801F00BFEEBE70128E9D1094BEE
:104CB00093F8643003F03002302AE2D013F0200F72
:104CC000DFD113F0100FDCD1014801F0F8FDD8E777
:104CD000301B0020F81C002008B5244B9B79012BC9
:104CE00002D0022B21D008BD0128FCD1204B93F823
:104CF000643003F03002302A09D013F0200F0BD1BA
:104D000013F0100F0DD0194803F0CEFDEBE7002192
:104D10001848FFF703FEE6E700211748FDF7F2F811
:104D2000E1E7124803F082FDDDE70128DBD1104BFB
:104D300093F8643003F03002302A09D013F0200FCA
:104D40000BD113F0100F0DD0084803F0ADFDCAE7EA
:104D500000210848FFF7E2FDC5E700210648FDF7FE
:104D6000D1F8C0E7014803F061FDBCE7301B00202B
:104D7000F81C0020481A00201811002008B5234B09
:104D80009B79012B02D0022B20D008BD0128FCD139
:104D90001F4B93F8643003F03002302A09D013F02F
:104DA000200F0AD113F0100F0CD0184803F084FE26
:104DB000EBE71848FFF764FAE7E700211648FDF72C
:104DC000AAF8E2E7114803F039FEDEE70128DCD15A
:104DD0000F4B93F8643003F03002302A09D013F0FF
:104DE000200F0AD113F0100F0CD0084803F064FE16
:104DF000CBE70848FFF744FAC7E700210648FDF76C
:104E00008AF8C2E7014803F019FEBEE7301B002014
:104E1000F81C0020AC1300201811002008B5234B0B
:104E20009B79012B02D0022B20D008BD0128FCD198
:104E30001F4B93F8643003F03002302A09D013F08E
:104E4000200F0AD113F0100F0CD0184803F0D8FD32
:104E5000EBE71848FFF71EFAE7E701211648FDF7D0
:104E600051F8E2E7114803F08DFDDEE70128DCD1BF
:104E70000F4B93F8643003F03002302A09D013F05E
:104E8000200F0AD113F0100F0CD0084803F0B8FD22
:104E9000CBE70848FFF7FEF9C7E701210648FDF711
:104EA00031F8C2E7014803F06DFDBEE7301B00207A
:104EB000F81C0020AC1300201811002008B51F4B6F
:104EC0009B79012B02D0022B1CD008BD0128FCD1FC
:104ED0001B4B93F8643003F03002302AF5D013F006
:104EE000200F06D113F0100F08D0144803F026FD50
:104EF000EBE701211348FDF70EF8E6E70F4803F052
:104F0000E1FCE2E70128E0D10D4B93F8643003F0B7
:104F10003002302AD9D013F0200F06D113F0100F31
:104F200008D0064803F00AFDCFE701210548FCF749
:104F3000F2FFCAE7014803F0C5FCC6E7301B0020BA
:104F4000F81C00201811002008B5274B9B79012B75
:104F500002D0022B24D008BD0128FCD1234B93F8AA
:104F6000643003F03002302A09D013F0200F0FD143
:104F700013F0100F10D01C4801F0D6FBEBE7DFED6B
:104F80001C0A9FED1C0A04211B48FEF706F8E2E705
:104F90001A4801F0F3F9DEE71948FFF715FCDAE7E4
:104FA0000128D8D1114B93F8643003F03002302A35
:104FB00009D013F0200F0FD113F0100F10D00A48B2
:104FC00001F0B5FBC7E7DFED0A0A9FED0A0A0421ED
:104FD0000948FDF7E2FFBEE7084801F0CFF9BAE75C
:104FE0000748FFF7F1FBB6E7301B0020F81C002054
:104FF0009A99993E0000B4C2A0110020A41A002082
:10500000D418002038B5BA4B9B79012B03D0022B62
:1050100000F03D8138BDB74B93F86230002B44D08F
:10502000B44B93F8643003F03002302A10D013F000
:10503000200F1ED113F0100F2CD0AF4B93F88730F8
:10504000002BE7D19FEDAD0AA94801F0A7FBE1E7EE
:10505000B0EE000A0221AA48FDF7B2FDA64B93F874
:105060008730002BD6D19FEDA50AA14801F096FB11
:10507000D0E7B7EE000A0221A148FDF7A1FD9E4B43
:1050800093F88730002BC5D19FED9C0A984801F01A
:1050900085FBBFE7984B93F88730002BBAD19FED83
:1050A000970A934801F07AFBB4E7924B93F8633088
:1050B000002B46D08F4B93F8643003F03002302A37
:1050C00010D013F0200F1ED113F0100F2DD08A4BEB
:1050D00093F88730002B9DD19FED880A844801F01A
:1050E0005DFB97E7B8EE000A02218548FDF768FDF1
:1050F000814B93F88730002B8CD19FED800A7C4840
:1051000001F04CFB86E7BFEE000A02217C48FDF768
:1051100057FD794B93F88730002B7FF47BAF9FEDE1
:10512000770A734801F03AFB74E7734B93F88730C2
:10513000002B7FF46FAF9FED710A6D4801F02EFBDD
:1051400068E76C4B93F8643003F03002302A11D0DA
:1051500013F0200F40D113F0100F6DD0664B93F871
:105160008730002B7FF456AF9FED640A604801F052
:1051700015FB4FE75F4DD5F8563000EE103A604C06
:10518000F9EE007A20EE270A03212046FDF718FDEC
:10519000D5F85A3000EE103AF1EE007A20EE270AE8
:1051A00004212046FDF70CFDD5F85E3000EE103AE4
:1051B000F3EE007A20EE270A05212046FDF700FDD8
:1051C0004D4B93F88730002B7FF424AF9FED4B0AB3
:1051D000474801F0E3FA1DE7464DD5F8563000EE9A
:1051E000103A474CF8EE007A20EE270A03212046B9
:1051F000FDF7E6FCD5F85A3000EE103A30EE000A22
:1052000004212046FDF7DCFCD5F85E3000EE103AB4
:10521000F1EE047A20EE270A05212046FDF7D0FCA6
:10522000354B93F88730002B7FF4F4AE9FED330AB3
:105230002F4801F0B3FAEDE62E4CD4F85A3000EEC8
:10524000103ADFED307A20EE270A2F48FFF706FAF2
:1052500094F86C304BB1D4F8563000EE103AB1EE01
:10526000400A234801F09AFAD4E6012003F07AF8C4
:1052700000287FF4CFAE204B93F88730002B7FF4CB
:10528000C9AE9FED1E0A1A4801F088FAC2E6194B12
:1052900093F86230002B57D0164B93F8643003F02C
:1052A0003002302A11D013F0200F2FD113F0100F3D
:1052B0003ED0114B93F88730002B7FF4ABAE9FEDBF
:1052C0000F0A0B4801F06AFAA4E6B0EE000A0221C8
:1052D0000B48FDF775FC084B93F88730002B7FF4E3
:1052E00099AE9FED060A024801F058FA92E600BF17
:1052F000301B0020F81C0020A41A00200000000031
:10530000A0110020EC51B83ED4180020B7EE000ADE
:1053100002219448FDF754FC934B93F88730002BFF
:105320007FF478AE9FED910A914801F037FA71E66B
:105330008D4B93F88730002B7FF46CAE9FED8B0A7A
:105340008B4801F02BFA65E68A4B93F86330002B0B
:1053500048D0884B93F8643003F03002302A11D0E3
:1053600013F0200F20D113F0100F2FD07E4B93F8A5
:105370008730002B7FF44EAE9FED7C0A7C4801F015
:105380000DFA47E6B8EE000A02217648FDF718FC50
:10539000754B93F88730002B7FF43CAE9FED730A7A
:1053A000734801F0FBF935E6BFEE000A02216D48B3
:1053B000FDF706FC6C4B93F88730002B7FF42AAE88
:1053C0009FED6A0A6A4801F0E9F923E6664B93F813
:1053D0008730002B7FF41EAE9FED640A644801F015
:1053E000DDF917E6634B93F8643003F03002302A9E
:1053F0002AD013F0200F59D113F0100F00F086803F
:105400005C4DD5F85A3000EE103A5B4CDFED5B7A1C
:1054100020EE270A2046FFF721F9D5F8563000EE96
:10542000103ADFED577A20EE270A2046FFF74EF9B3
:105430004D4B93F88730002B7FF4ECAD9FED4B0A7A
:105440004B4801F0ABF9E5E54A4DD5F8563000EE92
:10545000103A444CF9EE007A20EE270A0321204648
:10546000FDF7AEFBD5F85A3000EE103AF1EE007AB7
:1054700020EE270A04212046FDF7A2FBD5F85E3076
:1054800000EE103AF3EE007A20EE270A05212046BE
:10549000FDF796FB344B93F88730002B7FF4BAADC1
:1054A0009FED320A324801F079F9B3E5314DD5F874
:1054B000563000EE103A2B4CF8EE007A20EE270A18
:1054C00003212046FDF77CFBD5F85A3000EE103A58
:1054D00030EE000A04212046FDF772FBD5F85E305D
:1054E00000EE103AF1EE047A20EE270A052120465C
:1054F000FDF766FB1C4B93F88730002B7FF48AADD9
:105500009FED1A0A1A4801F049F983E5194CD4F8BD
:105510005A3000EE103ADFED1B7A20EE270A1648CB
:10552000FFF79CF894F86C304BB1D4F8563000EE8D
:10553000103AB1EE400A0E4801F030F96AE5012058
:1055400002F010FF00287FF465AD074B93F8873019
:10555000002B7FF45FAD9FED050A054801F01EF9B1
:1055600058E500BFA0110020A41A00200000000090
:10557000301B0020F81C0020D4180020EC51383FCC
:10558000EC5138BFEC51B83E38B5012002F0EAFECC
:1055900078B34B4B93F86C30C3B94A4B002283F875
:1055A0002321494B93F89733012B1ED0444BD3ED65
:1055B000110A93ED131ADFED457A21EE671AF1EE29
:1055C000600A93ED120A424801F01AF9042002F031
:1055D000C9FE002860D0012002F0FAFE002864D045
:1055E00002213C48FCF78EFC38BD374B83F89723EB
:1055F000DCE7032002F0B6FE18B3314B93F86C30B1
:10560000002BE3D12E4D2F4C95ED120A00212046A0
:10561000FDF7D6FA95ED110AB1EE400A01212046B8
:10562000FDF7CEFA95ED140A02212046FDF7C8FADF
:1056300095ED130AB1EE400A06212046FDF7C0FAA7
:10564000C4E7022002F08EFE0028BFD01C4B93F866
:105650006C30002BBAD11A4D95ED140A194CB1EEED
:10566000400A07212046FDF7ABFA95ED120AB1EE8C
:10567000400A04212046FDF7A3FA95ED130A0521FF
:105680002046FDF79DFA95ED110AB1EE400A03217F
:105690002046FDF795FA99E7062002F063FE002800
:1056A00099D1052002F05EFE95E7022002F090FEFF
:1056B000002899D002210748FCF72DFC94E700BF91
:1056C000F81C0020A0110020AC1300209A99993EEC
:1056D000301B00201811002008B5784B9B79012B56
:1056E00003D0022B00F0858008BD012819D00028C6
:1056F000FAD1734B93F8643003F03002302A41D072
:1057000013F0200F44D113F0100F4DD0012002F000
:1057100047FD002842D09FED6B0A684801F00AF867
:10572000E2E7674B93F8643003F03002302A0BD085
:1057300013F0200F14D113F0100F1DD09FED620A4B
:105740005E4800F0F7FFCFE7B0EE000A00215F48A7
:10575000FDF736FA9FED5E0A584800F0EBFFC3E70D
:10576000B7EE000A00215948FDF72AFA9FED580AC2
:10577000524800F0DFFFB7E79FED560A4F4800F0B0
:10578000D9FFB1E79FED520A4C4800F0D3FFABE7D9
:105790009FED4F0A494800F0CDFFA5E79FED4C0A69
:1057A000464800F0C7FF9FE7012002F0F9FC48B926
:1057B000434B93F86C305BB19FED450A3F4800F0D6
:1057C000B9FF91E79FED440A3C4800F0B3FF8BE737
:1057D000012002F0C7FD30B1394B93ED120A374872
:1057E00000F0A8FF80E79FED3A0A344800F0A2FFDE
:1057F0007AE7012815D000287FF476AF304B93F874
:10580000643003F03002302A3CD013F0200F3FD137
:1058100013F0100F42D09FED2E0A284800F08AFFA7
:1058200062E7274B93F8643003F03002302A0BD044
:1058300013F0200F14D113F0100F1DD09FED240A88
:105840001E4800F077FF4FE7B0EE000A00211F4826
:10585000FDF7B6F99FED1E0A184800F06BFF43E70D
:10586000B7EE000A00211948FDF7AAF99FED180AC2
:10587000124800F05FFF37E79FED180A0F4800F06D
:1058800059FF31E79FED120A0C4800F053FF2BE758
:105890009FED0F0A094800F04DFF25E7012002F0B7
:1058A0007FFC28B19FED0E0A044800F043FF1BE780
:1058B0009FED070A014800F03DFF15E7301B00206F
:1058C000F81C0020333333BF3333333FA0110020A3
:1058D000000000009A99993E9A9999BECDCC4C3D12
:1058E000CDCC4CBD08B5784B9B79012B03D0022B56
:1058F00000F0858008BD012819D00028FAD1734B2B
:1059000093F8643003F03002302A41D013F0200FB6
:1059100044D113F0100F4DD0002002F041FC0028BC
:1059200042D09FED6B0A684800F004FFE2E7674B46
:1059300093F8643003F03002302A0BD013F0200FBC
:1059400014D113F0100F1DD09FED620A5E4800F0D5
:10595000F1FECFE7B8EE000A00215F48FDF730F90D
:105960009FED5E0A584800F0E5FEC3E7BFEE000A6F
:1059700000215948FDF724F99FED580A524800F0DC
:10598000D9FEB7E79FED560A4F4800F0D3FEB1E7C6
:105990009FED520A4C4800F0CDFEABE79FED4F0A59
:1059A000494800F0C7FEA5E79FED4C0A464800F0C5
:1059B000C1FE9FE7002002F0F3FB48B9434B93F888
:1059C0006C305BB19FED450A3F4800F0B3FE91E7B4
:1059D0009FED440A3C4800F0ADFE8BE7012002F049
:1059E000C1FC30B1394B93ED120A374800F0A2FEEA
:1059F00080E79FED3A0A344800F09CFE7AE70128E0
:105A000015D000287FF476AF304B93F8643003F064
:105A10003002302A3CD013F0200F3FD113F0100F8A
:105A200042D09FED2E0A284800F084FE62E7274B03
:105A300093F8643003F03002302A0BD013F0200FBB
:105A400014D113F0100F1DD09FED240A1E4800F052
:105A500071FE4FE7B8EE000A00211F48FDF7B0F8CD
:105A60009FED1E0A184800F065FE43E7BFEE000AEE
:105A700000211948FDF7A4F89FED180A124800F01C
:105A800059FE37E79FED180A0F4800F053FE31E743
:105A90009FED120A0C4800F04DFE2BE79FED0F0A18
:105AA000094800F047FE25E7002002F079FB28B105
:105AB0009FED0E0A044800F03DFE1BE79FED070A2C
:105AC000014800F037FE15E7301B0020F81C0020CD
:105AD0003333333F333333BFA011002000000000C5
:105AE0009A9999BE9A99993ECDCC4CBDCDCC4C3D5E
