:020000040800F2
:1000000000000320C1B4000845AB000847AB00085E
:1000100049AB00084BAB00084DAB000800000000E6
:10002000000000000000000000000000B111010805
:100030004FAB00080000000051120108850A0108BA
:1000400011B5000811B5000811B5000811B5000878
:1000500011B5000811B5000811B5000811B5000868
:1000600011B5000811B5000811B5000851AB000822
:1000700061AB000811B5000871AB000881AB000846
:1000800011B5000891AB000811B50008A1AB00083C
:10009000B1AB000811B5000811B5000811B5000892
:1000A00011B5000811B5000811B5000811B5000818
:1000B00011B5000811B5000811B5000811B5000808
:1000C00011B5000811B5000811B5000811B50008F8
:1000D00011B50008C1AB000811B50008D1AB00088C
:1000E00011B5000811B5000811B5000811B50008D8
:1000F00011B5000811B5000811B5000811B50008C8
:1001000011B5000811B5000811B5000811B50008B7
:1001100011B5000811B5000811B50008E1AB0008E1
:1001200011B50008F1AB000801AC000811AC0008E3
:1001300021AC000811B5000811B5000831AC000869
:1001400011B5000841AC000811B5000851AC000819
:1001500011B5000861AC000811B5000871AC0008C9
:1001600011B5000811B5000811B5000811B5000857
:1001700011B5000811B5000811B500080000000015
:1001800011B5000811B5000881AC000891AC000859
:1001900011B50008A1AC000811B5000811B50008A0
:0C01A000000000000000000011B5000885
:1001C00081F0004102E000BF83F0004330B54FEA08
:1001D00041044FEA430594EA050F08BF90EA020F75
:1001E0001FBF54EA000C55EA020C7FEA645C7FEA08
:1001F000655C00F0E2804FEA5454D4EB5555B8BF2B
:100200006D420CDD2C4480EA020281EA030382EA9B
:10021000000083EA010180EA020281EA0303362D2D
:1002200088BF30BD11F0004F4FEA01314FF4801C00
:100230004CEA113102D0404261EB410113F0004F12
:100240004FEA03334CEA133302D0524263EB4303C9
:1002500094EA050F00F0A780A4F10104D5F1200E67
:100260000DDB02FA0EFC22FA05F2801841F10001C2
:1002700003FA0EF2801843FA05F359410EE0A5F196
:1002800020050EF1200E012A03FA0EFC28BF4CF0C7
:10029000020C43FA05F3C01851EBE37101F000457D
:1002A00007D54FF0000EDCF1000C7EEB00006EEB8A
:1002B0000101B1F5801F1BD3B1F5001F0CD3490814
:1002C0005FEA30004FEA3C0C04F101044FEA44526B
:1002D00012F5800F80F09A80BCF1004F08BF5FEAF2
:1002E000500C50F1000041EB045141EA050130BDD2
:1002F0005FEA4C0C404141EB0101013C28BFB1F5E4
:10030000801FE9D291F0000F04BF01460020B1FA2E
:1003100081F308BF2033A3F10B03B3F120020CDA01
:100320000C3208DD02F1140CC2F10C0201FA0CF0DF
:1003300021FA02F10CE002F11402D8BFC2F1200C44
:1003400001FA02F120FA0CFCDCBF41EA0C019040FA
:10035000E41AA2BF01EB0451294330BD6FEA040443
:100360001F3C1CDA0C340EDC04F11404C4F120022E
:1003700020FA04F001FA02F340EA030021FA04F340
:1003800045EA030130BDC4F10C04C4F1200220FA97
:1003900002F001FA04F340EA0300294630BD21FAD5
:1003A00004F0294630BD94F0000F83F4801306BF9B
:1003B00081F480110134013D4EE77FEA645C18BF8F
:1003C0007FEA655C29D094EA050F08BF90EA020F26
:1003D00005D054EA000C04BF1946104630BD91EA1E
:1003E000030F1EBF0021002030BD5FEA545C05D121
:1003F0004000494128BF41F0004130BD14F5800460
:100400003CBF01F5801130BD01F0004545F0FE41D3
:1004100041F470014FF0000030BD7FEA645C1ABF08
:10042000194610467FEA655C1CBF0B46024650EA3F
:10043000013406BF52EA033591EA030F41F400216B
:1004400030BD00BF90F0000F04BF0021704730B5F1
:100450004FF4806404F132044FF000054FF00001C6
:1004600050E700BF90F0000F04BF0021704730B587
:100470004FF4806404F1320410F0004548BF40425C
:100480004FF000013EE700BF42004FEAE2014FEAB1
:1004900031014FEA02701FBF12F07F4393F07F4F8C
:1004A00081F06051704732F07F4208BF704793F08F
:1004B0007F4F04BF41F40021704730B54FF46074A2
:1004C00001F0004521F000411CE700BF50EA0102A5
:1004D00008BF704730B54FF000050AE050EA01024E
:1004E00008BF704730B511F0004502D5404261EBBE
:1004F00041014FF4806404F132045FEA915C3FF4FF
:10050000D8AE4FF003025FEADC0C18BF03325FEA9B
:10051000DC0C18BF033202EBDC02C2F1200300FA4C
:1005200003FC20FA02F001FA03FE40EA0E0021FA71
:1005300002F11444BDE600BF70B54FF0FF0C4CF45F
:10054000E06C1CEA11541DBF1CEA135594EA0C0F11
:1005500095EA0C0F00F0DEF82C4481EA030621EA4C
:100560004C5123EA4C5350EA013518BF52EA033587
:1005700041F4801143F4801338D0A0FB02CE4FF039
:100580000005E1FB02E506F00042E0FB03E54FF069
:100590000006E1FB03569CF0000F18BF4EF0010E61
:1005A000A4F1FF04B6F5007F64F5407404D25FEA5D
:1005B0004E0E6D4146EB060642EAC62141EA555110
:1005C0004FEAC52040EA5E504FEACE2EB4F1FD0C52
:1005D00088BFBCF5E06F1ED8BEF1004F08BF5FEAD0
:1005E000500E50F1000041EB045170BD06F0004682
:1005F00046EA010140EA020081EA0301B4EB5C042F
:10060000C2BFD4EB0C0541EA045170BD41F4801126
:100610004FF0000E013C00F3AB8014F1360FDEBF4B
:10062000002001F0004170BDC4F10004203C35DA27
:100630000C341BDC04F11404C4F1200500FA05F3AA
:1006400020FA04F001FA05F240EA020001F000424B
:1006500021F0004110EBD37021FA04F642EB0601C1
:100660005EEA430E08BF20EAD37070BDC4F10C04EB
:10067000C4F1200500FA04F320FA05F001FA04F2AF
:1006800040EA020001F0004110EBD37041F100019B
:100690005EEA430E08BF20EAD37070BDC4F12005A6
:1006A00000FA05F24EEA020E20FA04F301FA05F20E
:1006B00043EA020321FA04F001F0004121FA04F2B6
:1006C00020EA020000EBD3705EEA430E08BF20EA86
:1006D000D37070BD94F0000F0FD101F000464000C0
:1006E00041EB010111F4801F08BF013CF7D041EA42
:1006F000060195F0000F18BF704703F00046520046
:1007000043EB030313F4801F08BF013DF7D043EA16
:100710000603704794EA0C0F0CEA135518BF95EACC
:100720000C0F0CD050EA410618BF52EA4306D1D153
:1007300081EA030101F000414FF0000070BD50EA72
:10074000410606BF1046194652EA430619D094EAFC
:100750000C0F02D150EA013613D195EA0C0F05D1E6
:1007600052EA03361CBF104619460AD181EA03013A
:1007700001F0004141F0FE4141F470014FF00000F2
:1007800070BD41F0FE4141F4780170BD70B54FF08D
:10079000FF0C4CF4E06C1CEA11541DBF1CEA13550D
:1007A00094EA0C0F95EA0C0F00F0A7F8A4EB0504EF
:1007B00081EA030E52EA03354FEA013100F08880E6
:1007C0004FEA03334FF0805545EA131343EA1263AF
:1007D0004FEA022245EA111545EA10654FEA002664
:1007E0000EF000419D4208BF964244F1FD0404F51D
:1007F000407402D25B084FEA3202B61A65EB030579
:100800005B084FEA32024FF480104FF4002CB6EB35
:10081000020E75EB030E22BFB61A754640EA0C00B5
:100820005B084FEA3202B6EB020E75EB030E22BFF5
:10083000B61A754640EA5C005B084FEA3202B6EB36
:10084000020E75EB030E22BFB61A754640EA9C00F5
:100850005B084FEA3202B6EB020E75EB030E22BFC5
:10086000B61A754640EADC0055EA060E18D04FEA83
:10087000051545EA16754FEA06164FEAC30343EA23
:1008800052734FEAC2025FEA1C1CC0D111F4801FF0
:100890000BD141EA00014FF000004FF0004CB6E7E9
:1008A00011F4801F04BF01430020B4F1FD0C88BF88
:1008B000BCF5E06F3FF6AFAEB5EB030C04BFB6EB93
:1008C000020C5FEA500C50F1000041EB045170BD86
:1008D0000EF0004E4EEA113114EB5C04C2BFD4EBB3
:1008E0000C0541EA045170BD41F480114FF0000E37
:1008F000013C90E645EA060E8DE60CEA135594EAB3
:100900000C0F08BF95EA0C0F3FF43BAF94EA0C0FB5
:100910000AD150EA01347FF434AF95EA0C0F7FF42A
:1009200025AF104619462CE795EA0C0F06D152EA7E
:1009300003353FF4FDAE1046194622E750EA410662
:1009400018BF52EA43067FF4C5AE50EA41047FF473
:100950000DAF52EA43057FF4EBAE12E74FF0FF3CD8
:1009600006E000BF4FF0010C02E000BF4FF0010CA9
:100970004DF804CD4FEA410C7FEA6C5C4FEA430C22
:1009800018BF7FEA6C5C1BD001B050EA410C0CBF71
:1009900052EA430C91EA030F02BF90EA020F0020D3
:1009A000704710F1000F91EA030F58BF994208BF3A
:1009B00090422CBFD8176FEAE37040F001007047F7
:1009C0004FEA410C7FEA6C5C02D150EA013C07D14E
:1009D0004FEA430C7FEA6C5CD6D152EA033CD3D099
:1009E0005DF8040B704700BF8446104662468C4693
:1009F0001946634600E000BF01B5FFF7B7FF0028C6
:100A000048BF10F1000F01BD4DF808EDFFF7F4FFEE
:100A10000CBF012000205DF808FB00BF4DF808ED79
:100A2000FFF7EAFF34BF012000205DF808FB00BF9C
:100A30004DF808EDFFF7E0FF94BF012000205DF8BE
:100A400008FB00BF4DF808EDFFF7CEFF94BF012073
:100A500000205DF808FB00BF4DF808EDFFF7C4FF6C
:100A600034BF012000205DF808FB00BF53B94AB92C
:100A7000002908BF00281CBF4FF0FF314FF0FF30A6
:100A800000F0E2B8ADF1080C6DE904CE1BF006FCF5
:100A9000DDF804E0DDE9022304B0704700F1340121
:100AA00091E838009C46A6464CF8045D90E8FF0F9C
:100AB000E54600BD90EC210B704700BF80EC210B98
:100AC000704700BF90EC200B704700BF80EC200BFC
:100AD000704700BFD0EC200B704700BFC0EC200B6C
:100AE000704700BFF0EC0201F0EC0211F0EC0221C3
:100AF000F0EC0231F0EC0241F0EC0251F0EC02615A
:100B0000F0EC0271F0EC0281F0EC0291F0EC02A149
:100B1000F0EC02B1F0EC02C1F0EC02D1F0EC02E139
:100B2000F0EC02F1704700BFE0EC0201E0EC0211D2
:100B3000E0EC0221E0EC0231E0EC0241E0EC025199
:100B4000E0EC0261E0EC0271E0EC0281E0EC029189
:100B5000E0EC02A1E0EC02B1E0EC02C1E0EC02D179
:100B6000E0EC02E1E0EC02F1704700BFB0FC018173
:100B7000B0FC0191B0FC01A1B0FC01B1704700BF15
:100B8000A0FC0181A0FC0191A0FC01A1A0FC01B18D
:100B9000704700BFEC4600B52DE900502DE9FF1F5E
:100BA0004FF000032DE90C0001A91BF031FEDDF828
:100BB00040E012B0704700BFEC4600B52DE9005090
:100BC0002DE9FF1F4FF000032DE90C0001A91BF0D8
:100BD0005BFEDDF840E012B0704700BFEC4600B5A8
:100BE0002DE900502DE9FF1F4FF000032DE90C0007
:100BF00001A91BF06BFEDDF840E012B0704700BFAA
:100C0000EC4600B52DE900502DE9FF1F4FF0000321
:100C10002DE90C0001AB1BF02FFEDDF840E012B017
:100C2000704700BFEC4600B52DE900502DE9FF1FCD
:100C30004FF000032DE90C0001AA1BF0A7FEDDF820
:100C400040E012B0704700BF704700BF00000000D6
:100C50000000000000000000000000000000000094
:100C600002780B78012A28BF9A4240F0D8806DE9BB
:100C7000044540EA0104CDE902676FF0000C4FEA39
:100C800044721AB380EA010414F0070F6BD100F02C
:100C9000070420F0070004F0030521F007014FEAE4
:100CA000C505F0E8042314F0040FF1E804670CFA1A
:100CB00005F462EA040266EA04060BD063EA040360
:100CC000624667EA0407664604E000BFF0E80423D2
:100CD000F1E8046782FA4CF582EA0604A4FA8CF47F
:100CE0006CBB83FA4CF583EA0705A5FA8CF595B938
:100CF00050E9022351E9026782FA4CF582EA0604C0
:100D0000A4FA8CF483FA4CF583EA0705A5FA8CF56E
:100D10002543DBD09CB92DBAB5FA85F424F007043D
:100D200027FA04F1DDE9026723FA04F303F0FF0078
:100D300001F0FF01FDE80445A0EB0100704724BA73
:100D4000B4FA84F424F0070426FA04F1DDE902671A
:100D500022FA04F202F0FF0001F0FF01FDE8044571
:100D6000A0EB0100704714F0030F3CD110F0030416
:100D700028D150F8082B51F8083B82FA4CF582EA4A
:100D80000305A5FA8CF55DB950F8042C51F8043C24
:100D900082FA4CF582EA0305A5FA8CF5002DE8D01D
:100DA0002DBAB5FA85F424F0070423FA04F122FAE7
:100DB00004F202F0FF0001F0FF01FDE80445A0EBA2
:100DC000010070474FEAC40420F0030050F8082BDC
:100DD00021F0030151F8083B0CFA04F462EA040222
:100DE00063EA0403C9E710F003041DD0A1EB04017A
:100DF00020F00300E40750F8042B06D012D28B78C1
:100E00005FFAA2F4E41A06D12BB1CB785FFAB2F400
:100E1000E41A00D133B920465DF8104B7047A2EBBD
:100E20000300704701F1040150F8042BCC0721F0B6
:100E3000030151F8043B48D824D222F07F4482FABF
:100E40004CF594EA1325A5FA8CF50AD165B951F849
:100E5000043B84EA0204B4EB036F0ED150F8042B78
:100E6000EBE74FEA132355E035F07F454DD1087885
:100E7000FDE80445C0F1000070474FEA126203F03C
:100E8000FF0347E002EA1C4482FA4CF594EA13455A
:100E9000A5FA8CF50AD165B951F8043B84EA02043D
:100EA000B4EB034F0CD150F8042BEBE74FEA13439C
:100EB00030E015EA1C4528D10B884FEA124229E0A0
:100EC0004FEA124203EA1C4324E002F0FF0482FAD4
:100ED0004CF594EA1365A5FA8CF50AD165B951F879
:100EE000043B84EA0204B4EB032F09D150F8042B2D
:100EF000EBE74FEA13630DE015F0FF0F05D10B6828
:100F00004FEA122223F07F4304E04FF00000FDE897
:100F10000445704712BA1BBA82FA4CF482EA030401
:100F2000A4FA8CF5B5FA85F402FA04F203FA04F394
:100F30004FEA1260FDE80445A0EB1360704700BF64
:100F400001F0FF01102A2BDB10F0070F08D010F87A
:100F5000013B013A8B422DD010F0070F42B3F6D17E
:100F6000F0B441EA012141EA014122F007047FF097
:100F700000070023F0E80256083C85EA010586EAEE
:100F8000010685FA47F5A3FA87F586FA47F6A5FA2A
:100F900087F68EB9EED1F0BC01F0FF0102F0070236
:100FA00032B110F8013B013A83EA010313B1F8D1E1
:100FB0000020704701387047002D06BF35460338C2
:100FC000073815F0010F07D1013015F4807F02BFFB
:100FD000013015F4C03F0130F0BC0138704700BF4C
:100FE000844641EA000313F003036DD1403A41D334
:100FF00051F8043B40F8043B51F8043B40F8043BF3
:1010000051F8043B40F8043B51F8043B40F8043BE2
:1010100051F8043B40F8043B51F8043B40F8043BD2
:1010200051F8043B40F8043B51F8043B40F8043BC2
:1010300051F8043B40F8043B51F8043B40F8043BB2
:1010400051F8043B40F8043B51F8043B40F8043BA2
:1010500051F8043B40F8043B51F8043B40F8043B92
:1010600051F8043B40F8043B51F8043B40F8043B82
:10107000403ABDD2303211D351F8043B40F8043B22
:1010800051F8043B40F8043B51F8043B40F8043B62
:1010900051F8043B40F8043B103AEDD20C3205D332
:1010A00051F8043B40F8043B043AF9D2043208D02A
:1010B000D2071CBF11F8013B00F8013B01D30B889C
:1010C00003806046704700BF082A13D38B078DD07A
:1010D00010F003038AD0C3F10403D21ADB071CBF4C
:1010E00011F8013B00F8013B80D331F8023B20F8B6
:1010F000023B7BE7043AD9D3013A11F8013B00F8EF
:10110000013BF9D20B7803704B7843708B78837076
:101110006046704700000000000000000000000072
:1011200000000000000000000000000000000000BF
:1011300000000000000000000000000000000000AF
:1011400030B490F800F020F007016FF0000C10F0C0
:10115000070491F820F040F048804FF000046FF051
:101160000700D1E9002391F840F000F1080082FA6D
:101170004CF2A4FA8CF283FA4CF3A2FA8CF34BBB38
:10118000D1E9022382FA4CF200F10800A4FA8CF2B1
:1011900083FA4CF3A2FA8CF3E3B9D1E9042382FA7F
:1011A0004CF200F10800A4FA8CF283FA4CF3A2FA94
:1011B0008CF37BB9D1E9062301F1200182FA4CF2CC
:1011C00000F10800A4FA8CF283FA4CF3A2FA8CF333
:1011D000002BC6D0002A04BF04301A4612BAB2FA55
:1011E00082F200EBD20030BC7047D1E9002304F05A
:1011F0000305C4F100004FEAC50514F0040F91F88F
:1012000040F00CFA05F562EA05021CBF63EA05032B
:1012100062464FF00004AAE74FEA410C7FEA6C5C9B
:1012200002D150EA013C0AD14FEA430C7FEA6C5CE0
:1012300002D152EA033C02D14FF0000070474FF058
:10124000010070474FEA410212F5001215D211D584
:101250006FF47873B3EB625212D94FEAC12343F0B3
:10126000004343EA505311F0004F23FA02F018BF35
:10127000404270474FF00000704750EA013005D1FE
:1012800011F0004008BF6FF0004070474FF00000C1
:10129000704700BF0348044B834202D0034B03B1A5
:1012A00018477047100F0020100F002000000000AA
:1012B0000548064B1B1AD90F01EBA301491002D0B8
:1012C000034B03B118477047100F0020100F002088
:1012D0000000000010B5064C237843B9FFF7DAFF91
:1012E000044B13B10448AFF300800123237010BDF9
:1012F000100F002000000000A03A020808B5054BBE
:101300001BB105490548AFF30080BDE80840FFF771
:10131000CFBF00BF00000000140F0020A03A020859
:1013200001608260C0F80D30009B037370470000BD
:1013300008B502680A4B9A4208D000231A4600F109
:101340000801084800680FF0CBFD08BD00231A46CD
:1013500000F10801044800680FF0C2FDF5E700BF86
:10136000F4470020704800207448002008B5064B60
:10137000834204D0054B18680FF038FD08BD044BBC
:1013800018680FF033FDF9E7F447002024480020E7
:101390002848002008B5FFF7E9FF08BD08B5FFF7AA
:1013A000E5FF08BD08B5FFF7E1FF08BD2DE9F041F5
:1013B00004460D4690461E46069F0FF00BFF23681D
:1013C00013B16368002B4ED12560B8F1000F01D036
:1013D000C4F8048006B1666107B1A7612A4B9D423B
:1013E00044D00123294A13611D46294A52F823207B
:1013F000372A2AD8E261C3EBC30102EBC1012548B9
:1014000040F82140E169C3EBC300400000EB9100CC
:101410001E4E706101F0030160681F4F01EB8301F4
:1014200047F8210001321A4941F823201A0107EB3D
:101430000313BA58520172605A685201F2609A68F6
:1014400052013260DB685B01B360104920680AF02A
:1014500047F90F4B53F8253013F0030F0AD00FF064
:10146000DBFEBDE8F0810FF0D7FEFAE70023074A64
:101470001361B9E72901084A02EB0515002353500F
:101480006B60AB60EB60EAE7F447002004000020EB
:101490004C0F0020540F00202C0F002010B58AB0F4
:1014A00001AB03AA00210AF05AFA099A064B53F835
:1014B00022403CB1A06928B10FF098FC636901A9F2
:1014C000204698470AB010BD540F002010B58AB0CE
:1014D00001AB03AA01210AF042FA099B3833074AFB
:1014E00052F823403CB1A06928B10FF07FFC63693A
:1014F00001A9204698470AB010BD00BF540F002034
:1015000008B506230DF0E5F901200FF09AFB08BDA0
:1015100008B50DF045FA01200FF093FB08BD10B59A
:1015200004460DF075FCE36B1A68136823F008039A
:10153000136010BD10B504460846114623880022EA
:1015400010E073460CF1010CBCF1070F09D84FEA0B
:10155000430E13F4004FF4D08EF4815383F0010353
:10156000F0E701328A4206D210F802C083EA0C2367
:101570004FF0000CE8E7238010BD000070B52DEDA2
:10158000048B84B00646F0EE418AB0EE619AFFEE1D
:10159000007AB4EEE70AF1EE10FA0BD9B0EE408A09
:1015A000F7EE007AB4EEE70AF1EE10FA04DBB7EEDC
:1015B000008A01E0BFEE008AFFEE007AF4EEE70A4F
:1015C000F1EE10FA09D9F7EE007AF4EEE70AF1EE3F
:1015D00010FA04DBF7EE000A01E0FFEE000A68EE05
:1015E000087A20EEA07A77EE877AF5EEC07AF1EEEF
:1015F00010FA08DBF1EEE77AB7EE007AF4EEC77A7C
:10160000F1EE10FA1BDC78EE607A9FED2B7A28EE73
:10161000871A37EEC17A8DED007A38EE208A38EEDF
:10162000417A8DED017A77EE817ACDED027A31EE55
:10163000081A8DED031AB0EE497A6B4611E080EE80
:10164000880A19F0DDFEF0EE409A12F039F9B0EE9A
:10165000408AB0EE690A12F07FF9F0EE400AD2E754
:10166000043304AA93420BD0D3ED007AF0EEE77A6C
:10167000F4EEC77AF1EE10FAF2DDB0EE677AEFE73A
:1016800089EE078A002410E0E42505FB046504AB1D
:1016900003EB840313ED040A20EE080A284606F043
:1016A0005EFD284606F030FD0134032CECDD04B06D
:1016B000BDEC048B70BD00BFCDCC4C3F30EE600A5A
:1016C00080ED070A90ED007A20EE077A80ED0A7A25
:1016D000D0ED0B6AD0ED017A60EE277A76EEA76A3C
:1016E000C0ED0B6AD0ED027A90ED086A30EE466AE2
:1016F00067EE867AC0ED0C7A90ED056AF4EEC66A64
:10170000F1EE10FA1DD880ED0B6AD0ED0B6A37EEC2
:10171000267A77EE877AC0ED0D7A90ED037AF1EEB6
:10172000476AF4EEE67AF1EE10FA14D8C0ED0D6ACD
:1017300080ED080A037E0BB90023436390ED0D0A88
:10174000704790ED046AF4EEC66AF1EE10FADCDB45
:1017500080ED0B6AD9E7F4EEC77AF1EE10FAE7DB19
:1017600080ED0D7AE4E7C0ED010A80ED021A80ED0C
:10177000042A80ED000AC0ED031A7047D0ED046A18
:10178000D0ED037AB1EE677AB4EEE67AF1EE10FAB4
:1017900006DAF4EEE67AF1EE10FA22D9B0EE667AC5
:1017A000D0ED007AF5EEC07AF1EE10FA1CDDF4EE21
:1017B000C77AF1EE10FA20DC01231A4677EE676A49
:1017C000F0EEE66A02B390ED016AF0EEC65AF4EE6E
:1017D000E65AF1EE10FA1CDD80ED007A90ED000A79
:1017E0007047B0EE677ADBE7F4EEC77AF1EE10FAF5
:1017F00006D44FF0FF330122E0E701230022DDE7AA
:101800004FF0FF330022D9E790ED026AB1EE466A4D
:10181000DBE7F0EEE77A77EE867AC0ED007A07EE46
:10182000103AB8EEC77A67EE877AC0ED007AD5E74E
:1018300080ED010AC0ED020A80ED031A704780EDC9
:10184000050AC0ED040A00220276704701230376E0
:10185000704700230376704710B52DED068BB0EE70
:10186000409AF0EE608AB0EE418A044612F028F801
:10187000F0EE409AB0EE680A12F022F869EE809A13
:10188000C4ED009AB0EE490A12F01AF8F0EE409A50
:10189000B0EE680A12F060F869EE809AB0EE480A7D
:1018A00012F05AF869EE809AB0EE490A12F054F834
:1018B000B0EE40AAB0EE480A12F002F82AEE00AAF2
:1018C00079EECA9AC4ED019AB0EE490A11F0F8FF18
:1018D000F0EE409AB0EE680A12F03EF869EE809A97
:1018E000B0EE480A11F0ECFF69EE809AB0EE490ABA
:1018F00012F032F8B0EE40AAB0EE480A12F02CF81E
:101900002AEE00AA79EE8A9AC4ED029AB0EE490A4C
:1019100012F022F8F0EE409AB0EE680A11F0D0FF13
:1019200069EE809AC4ED039AB0EE490A12F014F8F9
:10193000F0EE409AB0EE680A12F00EF869EE809A66
:10194000B0EE480A12F008F869EE809AB0EE490A43
:1019500011F0B6FFB0EE40AAB0EE480A11F0B0FFA9
:101960002AEE00AA79EE8A9AC4ED049AB0EE490AEA
:1019700011F0F2FFF0EE409AB0EE680A11F0ECFFC1
:1019800069EE809AB0EE480A11F09AFF69EE809AEB
:10199000B0EE490A11F094FFB0EE409AB0EE480A5A
:1019A00011F0DAFF29EE009A79EEC99AC4ED059A92
:1019B000B0EE680A11F0D0FFB1EE400A84ED060ADD
:1019C000B0EE680A11F07CFFB0EE409AB0EE480A23
:1019D00011F0C2FF29EE009A84ED079AB0EE680A72
:1019E00011F06EFFF0EE408AB0EE480A11F068FF89
:1019F00068EE808AC4ED088ABDEC068B10BD00003D
:101A000010B583680268012B12D08368002B1FDC9D
:101A1000C468012C22D1D1F800C041685C1C8460EC
:101A200003EB4303194402EB8102C2F800C010BD6E
:101A30004368C46823444360002484600124C46074
:101A4000022BE2DD084B094A482109481BF094FCAF
:101A5000084B064A4B2106481BF08EFC064B034AF6
:101A60004D2103481BF088FC943B0208E43B02082C
:101A7000843C0208CC3C0208243D020808B5034619
:101A80004268C1680A440068032A03D19B68012B9D
:101A900000D108BD024B034A7A2103481BF06CFCBD
:101AA0003C3D0208DC3D0208843C020810B50446B7
:101AB000806802F0DFFF0223E371FD2363710023DE
:101AC000E370A3706370237110BD10B504464069C4
:101AD00001F0D0FDFD2363710023E370A3706370F8
:101AE000237194F82230032B05D0E06803F0F6FA56
:101AF0000023E37110BD204600F0C6FDF5E7022388
:101B00008371704710B50446204605F085FB68B91F
:101B1000204605F097FB70B9204605F088FB0028A9
:101B2000F2D00121E06900F0A7FE03E00221E069A4
:101B300000F0A2FE10BD0021E06900F09DFEF9E773
:101B400010B52DED028B04469FED288ADFED288A23
:101B5000F0EE480AB0EE680A0321406901F0D7FEB2
:101B6000F0EE480A9FED230A0421606901F0CFFEE0
:101B7000F0EE480AB0EE680A0521606901F0C7FE80
:101B8000606901F08DFFF0EE480AB0EE680A0621A8
:101B9000606901F0BCFEF0EE480AB0EE680A072169
:101BA000606901F0B4FE606901F07AFF9FED128A6E
:101BB000F0EE480A9FED110A0021606901F0A7FECE
:101BC000F0EE480A9FED0E0A0121606901F09FFEC8
:101BD000F0EE480A9FED0B0A0221606901F097FEC2
:101BE000606901F05DFFBDEC028B10BDCDCCCC3E39
:101BF000000000000000B4C23333B33F0000FA43DA
:101C000000008C420000484310B52DED048B0446C3
:101C10009FED498A9FED499AF0EE480AB0EE490AD5
:101C20000021406901F073FEF0EE480A9FED440A7E
:101C30000121606901F06BFEDFED428AF0EE480A97
:101C4000B0EE680A0221606901F061FEDFED3E9AA4
:101C5000F6EE000AB0EE690A0421606901F057FE51
:101C6000606901F01DFFF5EE000AB3EE0E0A0621D1
:101C7000606901F04CFEF5EE000AB0EE690A07213A
:101C8000606901F044FE606901F00AFFF6EE000AA7
:101C9000B1EE040A0421606901F039FEF6EE000A93
:101CA0009FED2A0A0321606901F031FEF6EE000A79
:101CB0009FED270A0521606901F029FE606901F0A6
:101CC000EFFEF0EE480AB0EE490A0021606901F02B
:101CD0001EFEF0EE480A9FED1F0A0121606901F027
:101CE00016FEF0EE480AB0EE680A0221606901F0C3
:101CF0000EFE606901F0D4FEDFED170A9FED170AB2
:101D00000121606901F003FE606901F0C9FE022152
:101D1000204605F093FF0021E06900F0B6FDE06980
:101D200000F0CDFD012106F0B1FC606901F0A2FCDC
:101D3000BDEC048B10BD00BF3333B33F0000A5439F
:101D400000008C420000B442000000000000C842C5
:101D50000000B4C200006643CDCCCC3D00009643E9
:101D600010B52DED048B04469FED498A9FED499AED
:101D7000F0EE480AB0EE490A0021406901F0C7FDC3
:101D8000F0EE480A9FED440A0121606901F0BFFDB1
:101D9000DFED428AF0EE480AB0EE680A022160697F
:101DA00001F0B5FDDFED3E9AF6EE000AB0EE690AED
:101DB0000421606901F0ABFD606901F071FEF5EE90
:101DC000000ABBEE0E0A0621606901F0A0FDF5EEE7
:101DD000000AB0EE690A0721606901F098FD6069A8
:101DE00001F05EFEF6EE000AB1EE040A042160691D
:101DF00001F08DFDF6EE000A9FED2A0A03216069CD
:101E000001F085FDF6EE000AB0EE680A0521606972
:101E100001F07DFD606901F043FEF0EE480AB0EE8E
:101E2000490A0021606901F072FDF0EE480A9FED59
:101E30001E0A0121606901F06AFDF0EE480AB0EE69
:101E4000680A0221606901F062FD606901F028FE04
:101E5000DFED160A9FED160A0121606901F057FDBA
:101E6000606901F01DFE0221204605F0E7FE012118
:101E7000E06900F00AFDE06900F021FD012106F0B3
:101E800005FC606901F0F6FBBDEC048B10BD00BFE2
:101E90003333B33F0000A54300008C420000B4423E
:101EA000000000000000C8C2000048C2CDCCCC3DFC
:101EB000000020C338B504460221C06900F011FDBE
:101EC00000B138BD0221E06900F0D6FCE06900F005
:101ED000FBFC054610F1030FF3D0204605F0A6FAEF
:101EE00040F6C4100EF0ADFE606901F0EFFD022077
:101EF0000EF0A7FE65B92046FFF786FE2046FFF7E5
:101F00001FFEC8200EF09DFE606901F0F7FDD8E7C6
:101F10002046FFF725FFF1E770B50646FFF7F2FD13
:101F2000304600F0A3FA09F01BFB0446012509F036
:101F300017FB04F54873834208D901200EF081FE97
:101F400006F014FF0028F2D00025F0E705B970BDB7
:101F50003046FFF7AFFFFAE710B504460221C0692B
:101F600000F093FC204605F092F80021A06903F0F0
:101F700063F99FED060AE06803F016F8044800F0E4
:101F800083FB03200EF05DFE10BD00BF00000000CB
:101F9000341B002010B52DED028B04460221C069D0
:101FA00000F09FFC10B1BDEC028B10BD606901F028
:101FB0008DFDDFED2B8A9FED2B8AF0EE680AB0EEE7
:101FC000480A0321606901F0A2FCF0EE680AB0EE55
:101FD000480A0521606901F09AFCF0EE680AB0EE4B
:101FE000480A0421606901F092FC606901F058FD23
:101FF000F0EE680AB0EE480A0721606901F087FC3C
:10200000F5EE000AB0EE480A0621606901F07FFC97
:10201000606901F045FD9FED148AF0EE480A9FEDDE
:10202000130A0021606901F072FCF0EE480A9FED8E
:10203000100A0121606901F06AFCF0EE480AB3EE73
:10204000040A0221606901F062FC606901F028FD68
:1020500064200EF0F6FD606901F050FDA3E700BFBB
:10206000CDCCCC3E000000003333B33F0000C8436A
:1020700000008C4210B52DED028B0446406901F042
:1020800025FDDFED2A8A9FED2A8AF0EE680AB0EE80
:10209000480A0321606901F03AFCF0EE680A9FEDFE
:1020A000250A0421606901F032FCF0EE680AB0EE06
:1020B000480A0521606901F02AFC606901F0F0FC22
:1020C000F0EE680AB0EE480A0621606901F01FFCD4
:1020D000F0EE680AB0EE480A0721606901F017FCCB
:1020E000606901F0DDFCDFED148AF0EE680A9FED17
:1020F000130A0021606901F00AFCF0EE680A9FED06
:10210000100A0121606901F002FCF0EE680AB0EEED
:10211000480A0221606901F0FAFB606901F0C0FC25
:10212000606901F0EBFCBDEC028B10BDCDCCCC3E68
:10213000000000000000B4423333B33F0080094484
:1021400000008C4210B52DED048B0446F0EE408A61
:10215000406901F0BBFC9FED498AF0EE480A9FED13
:10216000480A0321606901F0D2FB9FED469AF0EE28
:10217000480AB0EE490A0421606901F0C8FBF0EE9C
:10218000480A9FED410A0521606901F0C0FB6069C2
:1021900001F086FCF0EE480A9FED3C0A06216069DA
:1021A00001F0B5FBF0EE480AB0EE490A072160697C
:1021B00001F0ADFB606901F073FC9FED358A9FED86
:1021C000359AF0EE480AB0EE490A0021606901F044
:1021D0009EFBF0EE480A9FED300A0121606901F094
:1021E00096FBF0EE480A9FED2D0A0221606901F08E
:1021F0008EFB606901F054FCF0EE480A38EE890A63
:102200000021606901F083FBF0EE480A9FED240A8B
:102210000121606901F07BFB606901F041FCDFEDA9
:10222000218AF0EE480AB0EE680A0221606901F0E6
:102230006EFB636993ED170A30EE680A11F036FB06
:10224000F1EE047AB4EEE70AF1EE10FA10D40021B0
:10225000204605F0F3FC606901F00CFA0221E06908
:1022600000F013FB606901F049FCBDEC048B10BD6C
:102270000021E06900F000FBE9E700BFCDCCCC3ED7
:102280000000BE42000000000000B4C20000204276
:102290003333B33F0080994300005C430000484360
:1022A000000066430000484210B52DED048B044643
:1022B000F0EE408A406901F009FC9FED4A8AF0EE99
:1022C000480A9FED490A0321606901F020FBDFED18
:1022D000479AF0EE480AB0EE690A0421606901F0FD
:1022E00016FBF0EE480A9FED420A0521606901F0F5
:1022F0000EFB606901F0D4FB9FED3E9AF0EE480AB8
:10230000B0EE490A0621606901F001FBF0EE480ACF
:10231000B0EE690A0721606901F0F9FA606901F01D
:10232000BFFB9FED358ADFED359AF0EE480AB0EE3F
:10233000690A0021606901F0EAFAF0EE480A9FEDAF
:10234000300A0121606901F0E2FAF0EE480A9FEDDF
:102350002D0A0221606901F0DAFA606901F0A0FB40
:10236000F0EE480A38EEA90A0021606901F0CFFAC0
:10237000F0EE480AB0EE490A0121606901F0C7FA9F
:10238000606901F08DFBDFED208AF0EE480AB0EEC7
:10239000680A0221606901F0BAFA636993ED170ACD
:1023A00030EE680A11F082FAF1EE047AB4EEE70A30
:1023B000F1EE10FA10D40121204605F03FFC6069CF
:1023C00001F058F90221E06900F05FFA606901F05C
:1023D00095FBBDEC048B10BD0121E06900F04CFAC7
:1023E000E9E700BFCDCCCC3E0000BEC2000000003B
:1023F0000000B442000020C23333B33F0080994351
:102400000000A0C2000048430000484210B5044646
:10241000C06900F054FA06F037F9032804D0042804
:1024200010D1B2EE040A01E09FED0E0A94F90530D6
:10243000022B0AD06BB1012B0FD04FF47A700EF043
:1024400000FC10BD9FED080AF0E72046FFF712FEE2
:10245000F3E72046FFF776FEEFE72046FFF724FF7D
:10246000EBE700BF000000800000000010B504464C
:102470000021806902F0E0FE03200EF0E2FB20461E
:10248000FFF7C4FF2046FFF785FD10BDC079012886
:1024900014BF00200120704784B010B52DED048BCF
:1024A000044607A880E80E00DDED0A8AF5EEC08A32
:1024B000F1EE10FA73D4F5EEC08AF1EE10FA11DDE8
:1024C000636993ED0F7ADDED087AB4EEE77AF1EE09
:1024D00010FA07DDDFED3F0A9DED080A0121606972
:1024E00001F015FA606901F0DBFA6069D0ED177A46
:1024F0009DED099AF4EEC97AF1EE10FA5AD46069AA
:1025000001F0CEFA6069D0ED077ADDED079AF4EEBE
:10251000E97AF1EE10FA55D4606901F0C1FA9FED45
:102520002E8AF0EE480AB0EE680A0321606901F0D5
:10253000EEF9F0EE480A9DED0B0A0421606901F006
:10254000E6F9F0EE480A9DED0C0A0521606901F0FC
:10255000DEF9606901F0A4FA9FED1E8AF0EE480AE8
:10256000B0EE690A0021606901F0D1F9F0EE480A85
:102570009DED080A0121606901F0C9F9F0EE480AF1
:10258000B0EE490A0221606901F0C1F9606901F009
:1025900087FABDEC048BBDE8104004B07047636956
:1025A00093ED0F7ADDED087AB4EEE77AF1EE10FAEA
:1025B00090D480E7DFED070AB0EE490A022101F06E
:1025C000A6F99CE7DFED030AB0EE690A002101F0ED
:1025D0009EF9A1E79A99993F9A99993E10B584B0CE
:1025E0000446036900229A71036993ED907ADFED46
:1025F000147AB4EEE77AF1EE10FA12D503F51172FF
:1026000007CA8DE8070003F50E730ECB2046FFF7CF
:1026100043FF606901F044FA236901229A7104B012
:1026200010BD03F51D7207CA8DE8070003F51A7384
:102630000ECB2046FFF730FF606901F031FAEBE77F
:1026400000002044C379012B00D0704710B5044628
:1026500003699A793AB1DA782AB1DA791AB11A7A31
:102660000AB15B7A1BB910BD01200EF0EAFA2369AA
:102670009B78002BF8D02046FFF708FF0028F2D007
:102680002046FFF7ABFFEEE708B50021C171806976
:1026900002F0D2FD08BD0123C3710269D370026943
:1026A000137170470B88A0F882304B88A0F88430F3
:1026B0008B88A0F88630704710B52DED028B04464C
:1026C000DFED168A9FED168AF0EE680AB0EE480A32
:1026D000203004F0F3FAF0EE680AB0EE480A04F194
:1026E0003C0004F0EBFADFED0F0AB0EE480A04F10B
:1026F000580004F0E3FA002104F1740005F0C2FF71
:10270000002384F87830012284F8752084F876302C
:1027100084F877302046BDEC028B10BD00C0F34436
:102720000040E7440080F24408B50248FFF7C4FFC8
:1027300008BD00BF1811002070B582B004460D46D8
:1027400016461A460823009300F17903FEF7E8FDC8
:10275000069B0093034B324629462046FEF726FE91
:1027600002B070BDA526000810B50446B0F884304C
:1027700000EE103AB8EE400A203004F0ADFAB4F89A
:10278000863000EE103AB8EE400A04F13C0004F046
:10279000A3FAB4F8823000EE103AB8EE400A04F121
:1027A000580004F099FA10BD10B5044690F8753041
:1027B00073B1002380F87630203004F0E7FA04F19A
:1027C0003C0004F0E3FA04F1580004F0DFFA10BD15
:1027D000012380F87630203004F0DBFA04F13C006D
:1027E00004F0D7FA04F1580004F0D3FAEFE7000040
:1027F00010B504460F21064B18680EF0C3FA18B145
:10280000012384F8753010BD002384F87530FAE791
:102810003848002070B506460024254601E0013402
:1028200064B2022C0BDCC4EBC400800020303044C6
:1028300004F0B2FA0028F2D00135EDB2EFE786F8E5
:10284000785070BD08B590F86E1090F8792061F35B
:10285000000280F8792090F83610D2B261F341027C
:1028600080F8792090F85210D2B261F3820280F899
:102870007920FEF75DFD08BD08B5C1EBC1018900F7
:102880002031084404F08AFA08BD70B506460C46AB
:10289000CD00C1EBC1039B002033184404F081FA42
:1028A0002D1B06EB8505012385F83730022C00D05F
:1028B00070BD002106F1740005F0E8FEF8E7743001
:1028C000704790F87800704790F838303BB990F82E
:1028D00054300BB1012070476FF0020070470020A8
:1028E0007047C1EBC10100EB810090F838007047E0
:1028F00010B504460EF06EFC94F86E3013B194F8E7
:10290000703073B194F8363013B194F838307BB12D
:1029100094F8523013B194F8543083B10EF07CFC2B
:1029200010BD04F1580004F03FFA0EF075FCF7E713
:1029300004F1200004F038FA0EF06EFCF0E704F128
:102940003C0004F031FA0EF067FCE9E7054B1B7917
:102950001BB1012380F877307047002380F877306F
:10296000704700BF201D002090F87700704708B521
:10297000FFF7DAFE08BD0000012300F8083C0B78E1
:102980004A7802F0030243EA022307EE903AF8EE97
:10299000677A9FED2D7A77EE877AC0ED0A7A4A78CA
:1029A0008B7803F00F039B0143EA920307EE903A02
:1029B000F8EE677A9FED257A77EEC77AC0ED0B7A4D
:1029C0008A78CB7803F03F031B0143EA121307EE2A
:1029D000903AF8EE677A9FED1E7A77EEC77AC0EDEF
:1029E0000C7A0A794B7903F07F035B0043EAD21338
:1029F0005BB207EE903AF8EEE77AC0ED107A4A79CA
:102A00008B795B0043EAD21343F308031BB207EE52
:102A1000903AF8EEE77AC0ED0F7ACA780B7903F0B6
:102A20007F039B0043EA921343F308031BB207EEB4
:102A3000903AF8EEE77AC0ED0E7A064B5A6C426394
:102A40009B6C4364704700BF000048430000C843CC
:102A5000000016434C1A002010B52DED028B0446E1
:102A60009FED278AF0EE480AB1EE040AFEF7E7FE72
:102A7000F0EE480AB1EE040A04F12000FEF7DFFE92
:102A8000F0EE480AB1EE040A04F14000FEF7D7FE6A
:102A90009FED1C8AF0EE480AB1EE040A04F16000D2
:102AA000FEF7CDFEF0EE480AB1EE040A04F1800014
:102AB000FEF7C5FEF0EE480AB1EE040A04F1A000EC
:102AC000FEF7BDFEF0EE480AB1EE040A04F1C000C4
:102AD000FEF7B5FEF0EE480AB1EE040A04F1E0009C
:102AE000FEF7ADFE002384F8213184F82331012262
:102AF00084F82421A4F826312046BDEC028B10BDB9
:102B00009A99993ECDCCCC3D08B50248FFF7A4FF79
:102B100008BD00BFA0110020164BC0F8CC31164BE9
:102B2000C0F8EC31154BC0F8D031154BC0F8F0317E
:102B3000144BC0F8D431144BC0F8F431134AC0F828
:102B4000E421134BC0F804320021C0F8E811C0F8AA
:102B500008321049C0F8E0110F49C0F800120F49BF
:102B6000C0F8D8110E49C0F8F811C0F8FC31C0F80F
:102B7000DC2170470000484300E083440080C5C367
:102B800000400544000043C3000025440000B4C2D7
:102B90000000B44200007FC300007F43000020C358
:102BA0000000204310B504460F21064B18680EF0B4
:102BB000E9F818B9012384F8223110BD002384F804
:102BC0002231FAE73048002090F8210170470000D8
:102BD000054B1B791BB1012380F82131704700237D
:102BE00080F82131704700BF201D002010B5044639
:102BF0000EF0F0FA04F59470FEF79AFB0EF00CFB61
:102C000010BD000010B504460EF0E4FA94ED5C0A25
:102C1000DFED437A30EE670A30EE000A18F044FD2B
:102C2000BCEEC00AB4F8483110EE102A62F30A0371
:102C3000A4F8483194ED5D0ADFED3A7A30EE270AC8
:102C400030EE000A18F030FDBCEEC00AD4F848316E
:102C500010EE102A62F3D523C4F8483194ED5E0AD1
:102C6000DFED317A30EE270A30EE000A18F01CFD55
:102C7000FCEEC07A17EE903AC3F30901B4F84A218A
:102C800002F03F0242EA8112A4F84A21C3F38023F2
:102C900094F84C2122F00102134384F84C3194ED56
:102CA000610A30EE000A18F0FFFCBDEEC00A10EE1B
:102CB000103A43F30903B4F84E2163F30D12A4F85C
:102CC0004E2194ED620A30EE000A18F0EDFCBDEEE4
:102CD000C00A10EE103A43F30803D4F84C2163F312
:102CE000D322C4F84C2194ED600A30EE000A18F0AB
:102CF000DBFCBDEEC00A10EE103A43F30903B4F852
:102D00004C2163F34A02A4F84C21D4F88C21074BE0
:102D10001A63D4F87C215A630EF07EFA10BD00BF0E
:102D2000000048430000C843000016434C1A00202E
:102D300001F1400300EB830383ED000A012924D94C
:102D4000CB1EDBB2012B20D901F1720300EB830310
:102D5000D3ED017AF4EEC07AF1EE10FA05DB4031E2
:102D600000EB8100C0ED007A704701F17A0300EBBF
:102D70008303D3ED017AF4EEC07AF1EE10FA04D8B1
:102D8000403100EB8100C0ED007A704738B52DED81
:102D9000028B04460D4601F1720300EB830393EDB1
:102DA000018AB4EEC08AF1EE10FA0CDA01F17A036E
:102DB00000EB830393ED018AB4EEC08AF1EE10FAC2
:102DC00001D9B0EE408AB0EE480A29462046FFF706
:102DD000AFFFB0EE480A04EB451020F081FEBDECD9
:102DE000028B38BD10B52DED028B04469FED190AFC
:102DF0000021FFF7CBFF9FED180A01212046FFF7C6
:102E0000C5FFB3EE040A02212046FFF7BFFF9FED86
:102E1000138AB0EE480A03212046FFF7B7FFB0EE51
:102E2000480A04212046FFF7B1FFB0EE480A052109
:102E30002046FFF7ABFFB0EE480A06212046FFF719
:102E4000A5FFB0EE480A07212046FFF79FFFBDEC23
:102E5000028B10BD0000C84300008C42000000003F
:102E6000F0B583B004460D461E4600F59477089BE6
:102E700000930A4B3846FEF799FA0823009304F5AD
:102E8000A473324629463846FEF74AFA2046FFF731
:102E900043FE2046FFF7A6FF03B0F0BD79290008E6
:102EA00010B52DED048B044690ED3F0A9FED179A67
:102EB00020EE090ADFED168A80EE280A10F000FDE8
:102EC000DFED147A20EE278ADFED137A38EE278AB9
:102ED00084ED648AD4ED377A67EE897A87EEA80AA2
:102EE00084ED670A10F0ECFC28EE008A84ED668A17
:102EF00094ED648A94ED670A10F02EFD28EE008AA6
:102F000084ED658ABDEC048B10BD00BFDB0F49402A
:102F1000000034430000434300004843D0ED667A8C
:102F2000C0ED737A9FED037A77EE877AC0ED7B7AF6
:102F3000704700BF00002544D0ED657AC0ED747A7B
:102F40009FED037A77EE877AC0ED7C7A704700BFF9
:102F500000000A4310B50446D0ED3F7A9FED0D7A8C
:102F600067EE877A9FED0C0A87EE800A10F0F4FC7A
:102F7000DFED0A7A20EE270ADFED097A77EEC07AD4
:102F8000C4ED757A9FED077A77EE877AC4ED7D7A86
:102F900010BD00BFDB0F4940000034430000434335
:102FA0000000000000002544D0ED377A9FED057A3F
:102FB00077EEC76AC0ED766A77EE877AC0ED7E7AE3
:102FC000704700BF0000A442D0ED3F7A9FED047A25
:102FD00077EEC77AC0ED777A80ED7F7A704700BFD1
:102FE0000000B44210B50446FFF798FF2046FFF7F3
:102FF000A3FF2046FFF7AEFF2046FFF7D5FF204690
:10300000FFF7E2FF10BD000010B50446D0ED407A96
:1030100090ED7B0AF4EEC07AF1EE10FA1DDC90ED33
:10302000730AF4EEC07AF1EE10FA2DD5012380F880
:10303000233190ED687A77EEC07A37EE277A80ED0B
:10304000687A20F03DFDD4F8CC31C4F8003123601B
:10305000114B0022C3F8202510BD012380F8233135
:1030600090ED687A77EEC07A37EE277A80ED687A4D
:1030700020F026FDD4F8EC31C4F800312360064B73
:103080000022C3F82025E7E7B0EE670A20F018FD1C
:10309000D4F800312360DFE7AC13002010B50446FC
:1030A000D0ED417A90ED7C0AF4EEC07AF1EE10FAA0
:1030B0001EDC90ED740AF4EEC07AF1EE10FA2FD512
:1030C000012380F8233190ED697A77EEC07A37EEEC
:1030D000277A80ED697A203020F0F2FCD4F8D031E4
:1030E000C4F804312362134B0022C3F8202510BD1D
:1030F000012380F8233190ED697A77EEC07A37EEBC
:10310000277A80ED697A203020F0DAFCD4F8F031AB
:10311000C4F804312362074B0022C3F82025E6E7F8
:10312000B0EE670A203020F0CBFCD4F804312362E3
:10313000DDE700BFAC13002038B501F1400300EB20
:103140008303D3ED007A01F1720300EB830393ED67
:10315000017AF4EEC77AF1EE10FA13D801F14003C8
:1031600000EB830383ED007A01F1400500EB850558
:1031700000EB411495ED000A204620F0A1FC2B68DD
:10318000236038BD01F17A0300EB830393ED017AEC
:10319000F4EEC77AF1EE10FAE6DB01F1400300EB42
:1031A000830383ED007ADFE710B50446D0ED437A60
:1031B00090ED7E0AF4EEC07AF1EE10FA19DC90ED93
:1031C000760AF4EEC07AF1EE10FA23D590ED467A45
:1031D00077EEC07A37EE277A80ED467A80ED430AA3
:1031E000603020F06DFCD4F8D831C4F80C3123667F
:1031F00010BD90ED467A77EEC07A37EE277A80EDF3
:10320000467A603020F05CFCD4F8F831C4F80C3118
:103210002366EDE7B0EE670A603020F051FCD4F889
:103220000C312366E4E710B50446D0ED447A90ED06
:103230007F0AF4EEC07AF1EE10FA1ADC90ED770A0C
:10324000F4EEC07AF1EE10FA25D590ED477A77EEDC
:10325000C07A37EE277A80ED477A80ED440A8030D5
:1032600020F02EFCD4F8DC31C4F81031C4F88030E2
:1032700010BD90ED477A77EEC07A37EE277A80ED71
:10328000477A803020F01CFCD4F8FC31C4F81031AF
:10329000C4F88030ECE7B0EE670A803020F010FC14
:1032A000D4F81031C4F88030E2E7000038B50546A4
:1032B00000240CE0032C46D0042C48D0214628469C
:1032C000FFF73AFF244801F0B3FB0134E4B2072CC6
:1032D00041D8214BD3EDF47AF5EE407AF1EE10FAB5
:1032E000E8D1D3EDF57AF5EE407AF1EE10FAE1D1BE
:1032F00093EDF60A10F0DAFADFED187AB4EEE70A89
:10330000F1EE10FAD6D595F82431002BD2D0042C4A
:1033100014D8DFE804F00307130B0F002846FFF76B
:1033200073FED2E72846FFF7B9FECEE72846FFF73F
:103330003BFFCAE72846FFF776FFC6E72146284647
:10334000FFF7FAFEC1E72846FFF72EFFBDE7284644
:10335000FFF769FFB9E738BDAC1300200AD7233C5B
:1033600038B50546002405E005EB441020F0C0FB0D
:103370000134E4B2072CF7D938BD80ED5C0AD0EDFA
:10338000737AF4EEC07AF1EE10FA02DBC0ED5C7AEB
:103390007047D0ED7B7AF4EEC07AF1EE10FA01D8E6
:1033A000C0ED5C7A704780ED5D0AD0ED747AF4EE82
:1033B000C07AF1EE10FA02DBC0ED5D7A7047D0ED15
:1033C0007C7AF4EEC07AF1EE10FA01D8C0ED5D7AA5
:1033D000704780ED5E0AD0ED757AF4EEC07AF1EEBA
:1033E00010FA02DBC0ED5E7A7047D0ED7D7AF4EE24
:1033F000C07AF1EE10FA01D8C0ED5E7A704780ED28
:10340000620AD0ED777AF4EEC07AF1EE10FA02DBC0
:10341000C0ED627A7047D0ED7F7AF4EEC07AF1EEBB
:1034200010FA01D8C0ED627A704780ED610AD0EDE4
:10343000787AF4EEC07AF1EE10FA02DBC0ED617A30
:103440007047D0ED807AF4EEC07AF1EE10FA01D830
:10345000C0ED617A704780ED600AD0ED617A90ED41
:10346000767AF4EEC77AF1EE10FA02D880ED617A3E
:10347000704790ED7E7AF4EEC77AF1EE10FA01DB38
:1034800080ED617A704780ED630AD0ED7A7AF4EED0
:10349000C07AF1EE10FA02DBC0ED637A7047D0ED2E
:1034A000827AF4EEC07AF1EE10FA01D8C0ED637AB8
:1034B000704780ED5F0AD0ED797AF4EEC07AF1EED4
:1034C00010FA02DBC0ED5F7A7047D0ED817AF4EE3E
:1034D000C07AF1EE10FA01D8C0ED5F7A704710B5EE
:1034E000044690ED070AFFF748FF94ED0F0A2046C7
:1034F000FFF759FF94ED170A2046FFF76AFF94ED96
:10350000270A2046FFF77BFF94ED2F0A2046FFF79E
:103510008CFF94ED1F0A2046FFF79DFF94ED3F0AB4
:103520002046FFF7B0FF94ED370A2046FFF7C1FFB2
:1035300010BD10B50446FFF7B3FC2046FFF752FD5F
:103540002046FFF7B3FE2046FFF70AFF2046FFF7AD
:10355000C6FF2046FFF756FB10BD000038B52DED25
:10356000028B05460C46B0EE408AF0EEC08ADFEDD5
:103570003E7AF4EEE78AF1EE10FA10DD02292FD838
:103580009FED3A0AF7EE007AF4EEE78AF1EE10FAD0
:1035900001DD20EE280A05EB441020F08DFAF7EE4D
:1035A000007AF4EEE78AF1EE10FA1CD9F7EE007A11
:1035B000F4EEE78AF1EE10FA25DD04F1400305EBA5
:1035C0008303D3ED007A88EE287A05EB4412D2ED1E
:1035D000046A27EE267A77EE877AC3ED007A12E046
:1035E0009FED230ACEE704F1400305EB8303D3EDFF
:1035F000007A05EB441292ED047A27EE087A77EE12
:10360000877AC3ED007A012C19D9E31EDBB2012BB6
:1036100015D904F1400305EB8303D3ED007A04F1DF
:10362000720305EB830393ED017AF4EEC77AF1EEB2
:1036300010FA07D8403405EB840484ED007ABDEC21
:10364000028B38BD04F17A0305EB830393ED017A15
:10365000F4EEC77AF1EE10FAF1DB403405EB8405A5
:1036600085ED007AEBE700BF17B7D1386766E63E15
:103670009A99193E10B5044690ED540A0021FFF7BF
:1036800085FB94ED550A01212046FFF77FFB94ED61
:10369000560A02212046FFF779FB94ED570A0621CE
:1036A0002046FFF773FB94ED5B0A07212046FFF7E6
:1036B0006DFB94ED580A03212046FFF767FB94ED5C
:1036C0005A0A04212046FFF761FB94ED590A0521AF
:1036D0002046FFF75BFB10BD10B50446FFF7CAFF9D
:1036E000002384F823310023C4F8A031C4F8A431A6
:1036F00010BDB0F8263141F28732934201D9012042
:1037000070470133A0F826310020704701F14003D3
:1037100000EB8303D3ED007A37EE800A83ED000AD5
:10372000012924D9CB1EDBB2012B20D901F1720370
:1037300000EB8303D3ED017AB4EEE70AF1EE10FA61
:1037400005D8403100EB8100C0ED007A704701F1EF
:103750007A0300EB8303D3ED017AB4EEE70AF1EECE
:1037600010FA04DB403100EB8100C0ED007A7047B5
:10377000022900D9704730B52DED088B8BB0054676
:103780000C46F0EE408AB0EE608AB0EE41AA2422E8
:10379000002101A81CF050F995ED1F7ADFED447A65
:1037A00087EE270A95ED277A37EE287AC7EE270AA3
:1037B00095ED2F7A87EE271ADFED3E7A01A821EEEC
:1037C000271A60EEA70A20EE270AFEF745F80AAB93
:1037D00003EB840313ED090A20EE08BAE31C0AAADE
:1037E00002EB830313ED097A67EE08AA063402EBB5
:1037F000840454ED097A27EE888A60EE0A9A27EE4F
:103800000A9A27EE8AAAF0EEE97A17EE900AFCF7F8
:103810003BFE25A3D3E90023FDF71EF968BBF0EEBC
:10382000C97A17EE900AFCF72FFE1FA3D3E90023F5
:10383000FDF712F938BBF0EECA7A17EE900AFCF7E2
:1038400023FE19A3D3E90023FDF706F910BBB0EE60
:103850004B0A00212846FFF759FFB0EE6A0A012102
:103860002846FFF753FFB0EE480A02212846FFF72B
:103870004DFF0BB0BDEC088B30BDB0EE690A284699
:1038800020F01AF9CBE7B0EE490A05F1200020F04C
:1038900013F9D0E7B0EE4A0A05F1400020F00CF928
:1038A000D5E700BFAFF30080FCA9F1D24D62503FD5
:1038B00000003443DB0F494038B50546002405E0DD
:1038C00005EB4410FDF7C2FF0134E4B2072CF7D931
:1038D00038BD38B50546002405E005EB4410FDF77A
:1038E000B8FF0134E4B2072CF7D938BD38B5054626
:1038F0000024072C08D805EB441020F0EDF803460F
:1039000018B10134E4B2F4E70123184638BD38B5E4
:103910002DED028B04460D46B0EE608AFFF708FAE3
:10392000B0EE480A04EB451020F0C6F8BDEC028B5F
:1039300038BD38B505460C4601F1400300EB830362
:10394000D3ED007A77EE807AC3ED007AB0EE600AAC
:1039500000EB411020F0B0F8012C19D9E31EDBB2C6
:10396000012B15D904F1400305EB8303D3ED007A55
:1039700004F1720305EB830393ED017AF4EEC77A49
:10398000F1EE10FA05D8403405EB840484ED007A9A
:1039900038BD04F17A0305EB830393ED017AF4EE6D
:1039A000C77AF1EE10FAF3DB403405EB840585EDC0
:1039B000007AEDE710B52DED028B0446B0EE408A9B
:1039C000603020F079F8B0EE480A04F1800020F071
:1039D00073F8B0EE480A04F1A00020F06DF8B0EEE4
:1039E000480A04F1C00020F067F8B0EE480A04F17C
:1039F000E00020F061F8BDEC028B10BD10B52DED9C
:103A0000028B0446B0EE408A20F056F8B0EE480A29
:103A100004F1200020F050F8B0EE480A04F1400014
:103A200020F04AF8BDEC028B10BD0000D0ED077A03
:103A30009FED197A77EEC77AF0EEE77AB1EE047A65
:103A4000F4EEC77AF1EE10FA1FD5D0ED0F7A9FEDA4
:103A5000137A77EEC77AF0EEE77AB1EE047AF4EEF5
:103A6000C77AF1EE10FA12D5D0ED177AB3EE047AD8
:103A700077EEC77AF0EEE77AB1EE047AF4EEC77A21
:103A8000F1EE10FA05D400207047002070470020A6
:103A900070470120704700BF0000C84300008C42FF
:103AA00010B507F05DFD044602E001200DF0C9F8F5
:103AB0000548FFF71BFF28B907F052FD04F5FA533C
:103AC0008342F2D210BD00BFA011002010B5002328
:103AD00080F823310022C0F8A021C0F8A421064CB0
:103AE000C4F82035204600F077FF204600F0C2FFE2
:103AF000204600F092FF10BDAC130020012380F897
:103B00002331704790F8220180F001007047D1ED19
:103B1000007A37EEA76AD1ED015A35EEA55A91ED3C
:103B2000027A77EE074AD1ED036A26EE864A26EE40
:103B3000853A66EEA46A27EE866A67EE852A67EE06
:103B4000A47A25EE855A65EEA45A27EE247A75EEFE
:103B5000073AF7EE004A74EEE33AC0ED003A72EE2F
:103B6000E63AC0ED033A73EE273AC0ED063A76EE38
:103B7000A26AC0ED016A36EE077A34EEC77A80EDAC
:103B8000047A35EEC47A80ED077A77EEC37AC0ED19
:103B9000027A34EE254A80ED054A36EE056A74EE67
:103BA000C64AC0ED084A704710B58AB0044601A85D
:103BB000FFF7ADFFA6460DF1040CBCE80F00AEE820
:103BC0000F00BCE80F00AEE80F00DCF80030CEF8C4
:103BD000003020460AB010BD032900D1704708B557
:103BE000024B034A8521034819F0C6FB443E0208F4
:103BF000543E0208BC3E020870B505460E46144607
:103C0000FFF7EAFF2146681CFFF7E6FF032E05D108
:103C1000002C03DB032C01D1284670BD024B034A64
:103C20004721034819F0A8FB003F0208983F02080B
:103C30008440020838B5044615460023436082607C
:103C400003210C30FFF7C8FF002D03DB022D01DC40
:103C5000204638BD024B034A7821034819F08CFBFB
:103C6000C8400208704102089042020830B583B093
:103C700004460D4601AB032211466846FFF7BCFF20
:103C80002A4669462046FFF7D5FF204603B030BDDF
:103C9000012900D1704708B5024B034A852103482A
:103CA00019F06AFB443E0208CC420208BC3E0208FE
:103CB000F8B504460E4615461F46FFF78DFF294608
:103CC000601CFFF7E5FF3B686360032E05D1002D04
:103CD00003DB012D01D12046F8BD034B034A4721E8
:103CE000034819F049FB00BF003F020834430208B3
:103CF0008440020810F00F0F00D1704708B5034B45
:103D0000034A6D21034819F037FB00BF284402081D
:103D100018450208A445020810B52DED048B044691
:103D2000D1ED037A92ED036A67EE868AD1ED006ADF
:103D300092ED007A66EE875A78EEE58AD1ED015A67
:103D400092ED015A65EE854A78EEE48AD1ED024A99
:103D500092ED024A64EE843A78EEE38A67EE879A3F
:103D600066EE263A79EEA39A65EE843A79EEA39A46
:103D700065EE243A79EEE39A27EE859A66EE253AC7
:103D800039EE239A67EE243A39EE239A66EE843AA6
:103D900039EE639A27EE848A26EE246A38EE068A84
:103DA00066EE856A38EE268A27EE257A38EE478A4F
:103DB000FFF7A0FFC4ED009A84ED019A84ED028A1A
:103DC000C4ED038A2046BDEC048B10BD036819685E
:103DD000426853680133926893420CD000234B60D1
:103DE000036819684268536802339268934205D0A9
:103DF00000238B6070474FF07E53F0E74FF07E5307
:103E0000F7E708B503681A68436859689B689942E0
:103E100004D000231360FFF7D9FF08BD4FF07E5395
:103E2000F8E700B58BB04B6807938B680893059053
:103E300005AB019306AB02930392049001A8FFF730
:103E4000E0FF0BB05DF804FB01B9704708B5034B08
:103E5000034A8521034819F08FFA00BF443E020847
:103E6000E8450208BC3E0208F8B504460E4617466F
:103E70001D4640F8041B1146FFF7AEFE2946601DA3
:103E8000FFF706FF2EB1032F05D1002D03DB012D17
:103E900001D12046F8BD034B034AB021034819F075
:103EA0006BFA00BF50460208FC460208BC470208F5
:103EB000F8B504460F4616461D4602EB8301079BE4
:103EC000069A07EB8101FFF7CFFFA760E66029465E
:103ED00004F11000FFF7B8FF042363612046F8BD2A
:103EE0002DE9F04182B0804616461F46089C099D88
:103EF00001950094FFF7DCFF032C15D1012D13D1A0
:103F0000002E17DB002C15DBC4F10404B44211DBD6
:103F1000002F0FDB002D0DDBC5F10105BD4209DBD4
:103F2000404602B0BDE8F081054B064A90210648A4
:103F300019F022FA054B034A9221034819F01CFAA2
:103F4000F8470208784802089042020878490208B7
:103F500003681A684368D3ED017ADB6893ED017A50
:103F600067EE877AC2ED017A03681A684368D3ED79
:103F7000017ADB6893ED027A67EE877AC2ED027A06
:103F8000704708B5026812684368D3ED017ADB68B0
:103F900093ED007A67EE877AC2ED007AFFF7D8FFDB
:103FA00008BD0000042900D1704708B5024B034A40
:103FB0008521034819F0E0F9443E0208084A020846
:103FC000BC3E020810B504460B6840F8043B0121D2
:103FD000FFF75EFE0421601DFFF7E4FF204610BDE1
:103FE00070B58AB0044615468B680793CB68099371
:103FF00004AE01463046FFF7E5FF009606AB01939D
:10400000029503946846FFF7BCFF0AB070BD30B557
:104010002DED028B93B004460D4691ED038AF6EE2A
:10402000007A28EE278AB0EE480A17F0BFFA1094FB
:1040300084ED030AB0EE480A17F0F8FA8DED0D0A88
:104040000DAB012203210EA8FFF732FE0F9B049354
:104050000595012301930323009300231A4621466B
:1040600007A8FFF73DFF11AA02A907A8FFF7B8FFAD
:10407000204613B0BDEC028B30BD2DE9F0418AB073
:104080000546884617460DF10F0424F00F0404F18D
:1040900010063046FFF72EFE41463046FFF7B7FFC9
:1040A0002046FFF727FE39462046FFF7B0FF22469D
:1040B00031462846FFF730FE28460AB0BDE8F081B9
:1040C000F0B587B005460E4617460DF10F0424F0F3
:1040D0000F042046FFF70EFE39462046FFF797FFF4
:1040E000224631462846FFF717FE284607B0F0BDA6
:1040F00070B52DED048BA6B004460DF10F0525F02B
:104100000F05D0ED1F7A9FED259A87EE898ADFEDA6
:10411000248A28EE288A02210FA8FFF7A7FD23AAE8
:104120000FA90BA8FFF77DFE8DED0E8AD4ED277A3F
:1041300087EE898A28EE288A012117A8FFF796FDC5
:1041400024AA17A913A8FFF76CFE8DED168A05F1B6
:10415000100613AA0BA93046FFF78FFFD4ED2F7A74
:1041600087EE898A28EE288A00211FA8FFF77EFDA6
:1041700025AA1FA91BA8FFF754FE8DED1E8A1BAAB6
:1041800031462846FFF79CFF294604F5D470FFF717
:104190000BFD26B0BDEC048B70BD00BF00003443A6
:1041A000DB0F494008B5FEF7AFFC08BD70B504460B
:1041B0000646032504E0304603F0EEFD013DE436FB
:1041C000002DF8DA012284F89023002384F891333B
:1041D00084F8922384F8973384F8933384F89423F3
:1041E00084F89523074AC4F8E0234FF07C51C4F8C3
:1041F000DC13C4F8E423C4F8203584F89633204651
:1042000070BD00BF3333733F08B50248FFF7CEFFE0
:1042100008BD00BFAC130020034600F56472934252
:1042200004D093F8330010B1E433F8E7012070476D
:10423000F8B50646044600F56477002508E02046F8
:1042400003F03AFF204603F0EEFE0544EDB2E434FD
:10425000BC42F4D125B1012386F890332846F8BD3D
:10426000002386F89033F9E790F89103704790F8AF
:104270009203704790F890331BB1002380F891337C
:104280007047012380F891337047034600F564714D
:1042900000E0E4338B4208D093F83020002AF8D1B4
:1042A00093F833000028F4D100E0012070470000AB
:1042B000054B1B791BB1012380F892337047002313
:1042C00080F89233704700BF201D002010B52DEDFF
:1042D000028B044690F89433002B4ED190EDFE8A69
:1042E000D0EDFD8A38EE680ADFED487A80EE270AC5
:1042F00017F086F804F5816383ED000A78EE280A4A
:10430000F6EE007A60EEA70A04F58063C3ED000ABA
:1043100094F89533002B6BD094EDFF7ADFED3C7A67
:1043200077EE277AF4EEE70AF1EE10FA38D99FED2E
:10433000397AC0EE077A04F20443C3ED007A0FF035
:10434000B5FADFED357AB4EEE70AF1EE10FA0FD8E0
:1043500094EDFD7ADFED317AB4EEE77AF1EE10FA02
:1043600031D494EDFE7AB4EEE77AF1EE10FA2AD465
:1043700004F28444002323600FE000F27C42002317
:10438000136000F59062136000F28442136000F540
:104390008162136000F204442360BDEC028B10BD07
:1043A000B0EE470A04F20C40FDF788F9F1EE407ACE
:1043B00004F27C43C3ED007AD4EDF47A77EEC07A50
:1043C000C4EDF47AE9E704F20443DFED150A93ED56
:1043D000000A04F24440FDF771F904F2844383EDCE
:1043E000000AD4EDF67A77EE807AC4EDF67AD4E757
:1043F00004F27C420023136004F59062136004F21F
:104400008442136004F204442360C6E70000324390
:1044100000009643DB0FC9400000484200002F44D3
:104420000000000010B504460F21064B18680CF080
:10443000A9FC18B1012384F8943310BD002384F83B
:104440009433FAE74C48002090F894037047D0ED7D
:10445000FC7A37EE800A80EDFC0AFBEE0E7AB4EEB1
:10446000E70AF1EE10FA02D8C0EDFC7A7047F3EEDD
:104470000E7AB4EEE70AF1EE10FA01DBC0EDFC7A39
:10448000704780EDEA0AD0EDF97AB1EE677AB4EEC2
:10449000C07AF1EE10FA02DB80EDEA7A7047F4EEB2
:1044A000C07AF1EE10FA01D8C0EDEA7A704780EDDB
:1044B000F10AD0EDF97AB1EE677AB4EEC07AF1EE96
:1044C00010FA02DB80EDF17A7047F4EEC07AF1EE7B
:1044D00010FA01D8C0EDF17A704780EDF40AD0ED02
:1044E000F97AB1EE677AB4EEC07AF1EE10FA02DB37
:1044F00080EDF47A7047F4EEC07AF1EE10FA01D84C
:10450000C0EDF47A704780EDF50AD0EDF97AB1EE9E
:10451000677AB4EEC07AF1EE10FA02DB80EDF57A3C
:104520007047F4EEC07AF1EE10FA01D8C0EDF57ADA
:10453000704780EDF60AD0EDF97AB1EE677AB4EE05
:10454000C07AF1EE10FA02DB80EDF67A7047F4EEF5
:10455000C07AF1EE10FA01D8C0EDF67A704700008B
:1045600000F59F63144A1A6000230DE003F59B7267
:1045700000EB82021049516003F5997200EB820250
:104580000E4911600133DBB2032BEFD900F59E63B6
:104590000B4A1A6000F2F4430A4A1A6000F2FC4225
:1045A0000023136000F2C442136000F598600360BA
:1045B000054B1360704700BF6666D6400AD7233CA0
:1045C00017B7513A17B7513900007043F0B52DEDC8
:1045D000048B83B00446DFED758A9FED758A754EB6
:1045E000754F3B68019300250095F0EE680AB0EE28
:1045F000480A33460122114603F0D2FB6F4B1B6879
:1046000001930095F0EE680AB0EE480A33460122A5
:10461000022104F1E40003F0C3FB3B680193012590
:104620000095F0EE680AB0EE480A33462A460321A8
:1046300004F5E47003F0B4FB3B6801930095F0EEE1
:10464000680AB0EE480A33462A46042104F52B7066
:1046500003F0A6FB9FED5A9ADFED5A8A9FED5A8A26
:10466000B0EE492AF0EE681AB0EE481AF0EE480AA9
:104670009FED560A04F1AC001FF036FAB0EE492A5D
:10468000F0EE681AB0EE481AF0EE480A9FED500AB4
:1046900004F5C8701FF028FAB0EE492AF0EE681A47
:1046A000B0EE481AF0EE480A9FED4A0A04F51D7074
:1046B0001FF01AFAB0EE492AF0EE681AB0EE481A66
:1046C000F0EE480A9FED440A04F556701FF00CFA0C
:1046D0009FED429AB0EE492AF0EE681AB0EE481A01
:1046E000F0EE480AB2EE060A04F174001FF0FCF97D
:1046F000B0EE492AF0EE681AB0EE481AF0EE480A19
:10470000B2EE060A04F5AC701FF0EEF9B0EE492ADD
:10471000F0EE681AB0EE481AF0EE480AB2EE060A59
:1047200004F50F701FF0E0F9B0EE492AF0EE681AB8
:10473000B0EE481AF0EE480AB2EE020A04F54870EC
:104740001FF0D2F99FED269AB0EE482AF6EE001A35
:10475000B0EE491AF0EE490AB0EE480A04F5667068
:10476000FDF701F8B0EE482AF6EE001AB0EE491A4D
:10477000F0EE490AB0EE480A04F56D70FCF7F3FF5D
:104780009FED182AF0EE681AB0EE481AF0EE480ACB
:104790009FED150A04F591601FF0A6F92046FFF77A
:1047A000DFFE03B0BDEC048BF0BD00BF9A99993ECB
:1047B0000000FA44F44700206448002060480020CC
:1047C000CDCC4C3E0000C84200000000295C8F3D6B
:1047D000EC51383E9A99193EEC51B83D3333733F52
:1047E0000AD7A33B6666663F3333034110B52DED10
:1047F000028B044600F2C443D3ED008A002318E084
:10480000E42202FB034292ED2A7A03F59B7104EB4A
:104810008101D1ED017AB0EEC77A67EE877A92ED29
:10482000157AB0EEC77A67EE877A38EE278A0133B9
:10483000DBB2032BE4D904F20453514A1A6004F5A5
:10484000A16383ED008A04F20C53C3ED008A28EEC5
:10485000080ADFED4C7A68EEA77ADFED4B6A87EE47
:10486000A67A30EE070A16F0A9FD30EE480A9FED51
:10487000477AC0EE077AB7EE007AF4EEC77AF1EE27
:1048800010FA11DDF7EE007AB7EE007AF4EEC77A8F
:10489000F1EE10FA01DBF7EE007A04F5A064C4ED46
:1048A000007ABDEC028B10BDB0EEC88A9FED387A5D
:1048B000B4EEC78AF1EE10FA59DD04F5986393ED72
:1048C000006A36EE686A04F2FC4393ED007A04F560
:1048D0009E62D2ED006A66EE866A37EE267A83ED36
:1048E000007AFEEE006AB4EEE67AF1EE10FA03D832
:1048F000C3ED006A00231AE0F1EE0C6AB4EEE67A2A
:10490000F1EE10FAF6DB04F2FC43C3ED006AF1E7C6
:10491000F3EE066AB4EEE67AF1EE10FA05DB03F583
:104920009B7104EB8101C1ED016A0133DBB2032B02
:104930001DD803F59B7204EB820292ED017A04F21A
:10494000F440D0ED006A66EE866A37EE267A82ED94
:10495000017AF0EE086AB4EEE67AF1EE10FAD7D8F2
:1049600003F59B7204EB8202C2ED016ADDE7F5EE0E
:10497000C07AF1EE10FA87D8DFED067A8DE700BF36
:10498000BD378635BD3786360000A042BD370636B6
:10499000DC2434280000000000F21C5090ED000AD6
:1049A000DFED027A80EE270A704700BF0000B443B3
:1049B00010B5044603F0E0FD04F21C539FED030A1A
:1049C00083ED000A2046FFF7B4FD10BD0000000093
:1049D000012380F89733704738B505460CF0FAFB91
:1049E0002846FFF7E5FF0023C5F8E833C5F8EC33A8
:1049F000C5F8F0332C4605F5647509E00023A4F8EA
:104A00005030204603F0F4FA204603F007FBE4346C
:104A1000AC42F3D10CF000FC38BD002380F8973392
:104A2000704780EDF81A80EDF90AC0EDF70A70477B
:104A300010B52DED028B04469FED0D8AB0EE480AAD
:104A400003F01AFBB0EE480A04F1E40003F014FB93
:104A5000B0EE480A04F5E47003F00EFBB0EE480A2D
:104A600004F52B7003F008FBBDEC028B10BD00BFFA
:104A70000000000038B52DED028B05460CF0AAFBB6
:104A80002846FFF795FF9FED128AB0EE480A2846A8
:104A9000FFF7F7FCB0EE480A2846FFF708FD284666
:104AA000FFF7C6FF2C4605F5647509E00023A4F85E
:104AB0005030204603F09CFA204603F0AFFAE4346D
:104AC000AC42F3D10CF0A8FBBDEC028B38BD00BFAB
:104AD0000000000070B50546044600F5647603E06A
:104AE000204603F003FBE434B442F9D12846FFF733
:104AF000C1FF2846FFF770FF002385F8973370BD8C
:104B000010B50446224B93F82331A3B3204B93F8FE
:104B1000243183B390F897333BB31D4BD3F8A021D6
:104B2000C4F8E823D3F8A431C4F8EC332046FFF7E7
:104B30003FFFD4F820350133C4F82035C82B26D9DF
:104B4000134B002283F823210021C3F8A011C3F8DE
:104B5000A411C4F820252046FFF73EFF2046FFF7AA
:104B600089FF2046FFF759FF11E0FFF783FF20463A
:104B7000FFF72EFFD1E7064B0022C3F8A021C3F8B0
:104B8000A4210023C4F820352046FFF751FF10BDB3
:104B9000A0110020012380F89633024A82F8873062
:104BA000704700BFA81A002008B5002280F896239D
:104BB000024B83F88720FFF7FBFE08BDA81A0020F0
:104BC00010B52DED028B104B93F8EA4024B9012467
:104BD0002046BDEC028B10BD00F21C5090ED007A17
:104BE000DFED0A7A87EE278A03F032FD38EE400ABD
:104BF0000EF05CFEDFED067AB4EEE70AF1EE10FA95
:104C0000E6D40024E4E700BF341C00200000B443D5
:104C10008FC2F53C08B5FFF7F7FA08BD38B5044672
:104C200003F0BAF8164D0122294604F5827004F00B
:104C30004FF90222294604F59C7004F049F900233B
:104C400084F8E430012384F8E53084F8E63084F811
:104C5000E73084F8E8300B4BC4F8EC300023C4F89C
:104C6000F030C4F8F430084BC4F8FC304FF4B9739A
:104C7000A4F8F8304FF46B73A4F80031204638BD27
:104C8000F04D0020000082C30000F04108B502484A
:104C9000FFF7C4FF08BD00BFD418002010B52DEDEC
:104CA000028B82B0174B1B68019301230093DFED49
:104CB000160A9FED160A164B0222072103F070F820
:104CC0009FED148A144CB7EE002AF0EE481AB0EEAD
:104CD000421AF0EE480AB1EE000A20461EF004FF28
:104CE0009FED0E2AF0EE481A9FED0D1AF0EE480ADD
:104CF0009FED0C0A04F138001EF0F6FE02B0BDEC88
:104D0000028B10BD44480020295C8F3D0000E14427
:104D1000F44700200000000048190020CDCCCC3E14
:104D200066662640CDCC4C3E90F8330070470000BC
:104D300010B504460F21064B18680CF023F818B183
:104D4000012084F8300010BD84F83000FBE700BF7C
:104D50004448002010B5044603F065F918B100235B
:104D600084F8E43010BD012384F8E430FAE790F8C9
:104D7000E400704790F8E500704790F8E60070474F
:104D800008B503F0B3F908BD10B50446D0ED3B7A81
:104D90009FED237AF4EEC77AF1EE10FA24D884ED71
:104DA0003B7A94ED3B7ADFED1F7A37EE277ADFED21
:104DB0001E6AC7EE267A9FED1D7A67EE877A9FED11
:104DC0001C7A77EE877AC4ED3C7AF4EEC77AF1EE7E
:104DD00010FA13D99FED157AF4EEC77AF1EE10FAB6
:104DE0000EDB84ED3C7A0BE09FED127AF4EEC77A8D
:104DF000F1EE10FAD5DB84ED3B7AD2E784ED3C7A14
:104E000094ED3C0A204603F0C3F9204603F092F9E2
:104E1000094C204603F0ECF8204603F0FFF810BDE3
:104E2000000082C3000082430000EB4300808A43FD
:104E30000000000000005243D4180020054B1B79ED
:104E40001BB1012380F8E5307047002380F8E5307E
:104E5000704700BF201D002010B5044690ED3F7A3A
:104E6000DFED167A27EE277ADFED157A77EEC77A2F
:104E7000FDEEE77A17EE903A1BB2A0F80031114A26
:104E8000B2F90020D31A00EE103AB8EEC00A0EF0C4
:104E90000DFDDFED0D7AB4EEE70AF1EE10FA00DC5D
:104EA00010BDB4F9001189B204F5827004F02EF837
:104EB000B4F90021034B1A80F2E700BF7B096D4073
:104EC00000006B44D21800200AD7A33B10B504465B
:104ED00090ED3D7ADFED167A27EE277ADFED157A31
:104EE00077EEC77AFDEEE77A17EE903A1BB2A0F89C
:104EF000F830114AB2F90020D31A00EE103AB8EE99
:104F0000C00A0EF0D3FCDFED0D7AB4EEE70AF1EE45
:104F100010FA00DC10BDB4F9F81089B204F59C70E9
:104F200003F0F4FFB4F9F820034B1A80F2E700BF56
:104F30007B096D400000B943D01800200AD7A33B7D
:104F400080ED3F0AB5EEC00AF1EE10FA09D9DFEDA7
:104F5000077AB4EEE70AF1EE10FA01DBC0ED3F7A12
:104F600070470023C0F8FC30704700BF00002042AB
:104F7000D0ED3F7A37EE800A80ED3F0AB5EEC00AE9
:104F8000F1EE10FA09D9DFED077AB4EEE70AF1EE97
:104F900010FA01DBC0ED3F7A70470023C0F8FC3007
:104FA000704700BF00002042D0ED3D7A37EE800A06
:104FB00080ED3D0AB5EEC00AF1EE10FA09D9DFED39
:104FC000077AB4EEE70AF1EE10FA01DBC0ED3D7AA4
:104FD00070470023C0F8F430704700BF0000204243
:104FE000D0ED3D7A37EE800A80ED3D0ADFED097A9B
:104FF000B4EEE70AF1EE10FA02D8C0ED3D7A704740
:10500000DFED057AB4EEE70AF1EE10FA01DBC0ED50
:105010003D7A7047000020C20000704280ED3B0ADC
:10502000DFED097AB4EEE70AF1EE10FA02D8C0ED2E
:105030003B7A7047DFED057AB4EEE70AF1EE10FA3D
:1050400001DBC0ED3B7A7047000082C30000524391
:10505000D0ED3B7A37EE800A80ED3B0ADFED097A2E
:10506000B4EEE70AF1EE10FA02D8C0ED3B7A7047D1
:10507000DFED057AB4EEE70AF1EE10FA01DBC0EDE0
:105080003B7A7047000082C30000524310B50446CB
:10509000B3EE040AFFF754FFBBEE040A2046FFF705
:1050A00083FF9FED030A2046FFF7B8FF10BD00BF46
:1050B0000000484310B50446B3EE040AFFF740FF72
:1050C000B3EE040A2046FFF76FFF9FED030A204668
:1050D000FFF7A4FF10BD00BF000048C310B52DEDC1
:1050E000028B04469FED090AFFF72AFF9FED088A0D
:1050F000B0EE480A2046FFF757FFB0EE480A2046B8
:10510000FFF78CFFBDEC028B10BD00BF00002042FA
:1051100000000000012380F8E630704708B5FFF773
:10512000B5FD08BD91F9003007EE903AF8EEE77A48
:10513000C0ED107A91F9013007EE903AF8EEE77A77
:10514000C0ED117A8B78CA7802F0030243EA022399
:1051500007EE903AF8EE677AC0ED127ACA780B79CA
:1051600003F003039B0143EA920307EE903AF8EE43
:10517000677AC0ED147A0A794B7903F00F039B012B
:1051800043EA920307EE903AF8EE677AC0ED137A9D
:10519000CB79C3F3401380F85430CB79C3F3801339
:1051A00080F85530CB79DB0980F856307047002203
:1051B000027080F82E20704708B50248FFF7F7FF0D
:1051C00008BD00BF4C1A002070B582B00C461546D1
:1051D0001A46061D0823009300F124033046FCF70D
:1051E0009FF8069B0093044B2A4621463046FCF765
:1051F000DDF802B070BD00BF25510008044B1B79DB
:1052000013B101230370704700230370704700BF80
:10521000201D00200078704710B504460F21054B73
:1052200018680BF0AFFD10B90123637010BD0023A7
:105230006370FBE73448002080F82E10704790F828
:105240005800704790F85900704790F85A0070471E
:1052500008B5FFF7B1FF08BD08B5384B9B79012BA6
:105260002ED0022B58D103F081FD80B1344B93F83E
:10527000643003F03002302A09D013F0200F06D139
:1052800013F0100F51D002212E48FDF7F5FA03F06C
:1052900099FD80B12A4B93F8643003F03002302A34
:1052A00009D013F0200F06D113F0100F41D00221C6
:1052B0002448FDF7EAFA03F06FFD03F099FD2BE0B7
:1052C00003F054FD80B11E4B93F8643003F03002BC
:1052D000302A09D013F0200F06D113F0100F1CD084
:1052E00002211848FDF7C8FA03F06CFD80B1144B99
:1052F00093F8643003F03002302A09D013F0200F05
:1053000006D113F0100F0CD002210E48FDF7BDFAA4
:1053100003F042FD03F06CFD08BD084801F070FF8A
:10532000E2E7064801F06FFFF2E7044801F068FF8A
:10533000ADE7024801F067FFBDE700BF341B002066
:10534000201D00201811002010B5022003F07EFD62
:10535000A8B12348FEF7C0F9224C2046FFF73CFBDA
:105360002046FFF787FB0023C4F82035202003F0F8
:105370006DFDC0B101211C48FDF77EFA10BD012072
:1053800003F064FD30B11648FEF7A6F91548FFF7A3
:1053900071FBEBE7042003F059FD0028E6D108205B
:1053A00003F054FDE2E7102003F050FD20B101218D
:1053B0000D48FDF76AFAE1E7802003F047FD20B1D0
:1053C00000210948FDF761FAD8E7402003F03EFDCF
:1053D0000028D3D000210448FDF74EFACEE700BFE5
:1053E000A0110020AC13002018110020014B9B7964
:1053F000012B7047341B0020014B9B79012B704718
:10540000341B0020014B9B79012B7047341B00207B
:10541000014B9B79012B7047341B0020704770476C
:1054200008B5104B9B79012B02D0022B0DD008BD83
:105430000128FCD10C4B93F8643003F03003302B7F
:10544000F5D10A48FDF754FAF1E70128EFD1064BF0
:1054500093F8643003F03003302BE8D1044801F0B6
:1054600013FCE4E7341B0020201D0020181100204D
:10547000A81A002008B50A4B9B79012B03D0022BF8
:1054800001D1012800D008BD064B93F8643003F029
:105490003003302BF7D1044801F0F2FBF3E700BFF3
:1054A000341B0020201D0020A81A002008B5204B26
:1054B0009B79012B02D0022B1DD008BD0128FCD105
:1054C0001C4B93F8643003F03002302A09D013F0FB
:1054D000200F0CD113F0100FEFD1174801F0E0FBB3
:1054E000EBE7012383F3138806F0AAFCE5E71248F3
:1054F00001F0D2FBE1E70128DFD10E4B93F86430D5
:1055000003F03002302A09D013F0200F0CD113F031
:10551000100FD2D1084801F0C3FBCEE7012383F37B
:10552000138806F08DFCC8E7034801F0B5FBC4E71B
:10553000341B0020201D0020A81A002008B5164B9F
:105540009B79012B02D0022B13D008BD0128FCD17E
:10555000124B93F8643003F03002302AF5D013F088
:10556000200FF2D113F0100FEFD10B4801F04EFED7
:10557000EBE70128E9D1094B93F8643003F03002DE
:10558000302AE2D013F0200FDFD113F0100FDCD15E
:10559000014801F03BFED8E7341B0020201D00200D
:1055A00008B5164B9B79012B02D0022B13D008BDF6
:1055B0000128FCD1124B93F8643003F03002302AFA
:1055C000F5D013F0200FF2D113F0100FEFD10B48EC
:1055D00001F01FFEEBE70128E9D1094B93F8643095
:1055E00003F03002302AE2D013F0200FDFD113F0A5
:1055F000100FDCD1014801F00CFED8E7341B00206D
:10560000201D002008B5244B9B79012B02D0022BD2
:1056100021D008BD0128FCD1204B93F8643003F061
:105620003002302A09D013F0200F0BD113F0100FE5
:105630000DD0194803F016FEEBE700211848FFF7DC
:10564000FBFDE6E700211748FDF716F9E1E71248F0
:1056500003F0CAFDDDE70128DBD1104B93F864307D
:1056600003F03002302A09D013F0200F0BD113F0D1
:10567000100F0DD0084803F0F5FDCAE700210848D7
:10568000FFF7DAFDC5E700210648FDF7F5F8C0E7AA
:10569000014803F0A9FDBCE7341B0020201D0020B9
:1056A0004C1A00201811002008B5234B9B79012BC0
:1056B00002D0022B20D008BD0128FCD11F4B93F84B
:1056C000643003F03002302A09D013F0200F0AD1E1
:1056D00013F0100F0CD0184803F0F4FEEBE7184855
:1056E000FFF758FAE7E700211648FDF7CEF8E2E7A2
:1056F000114803F0A9FEDEE70128DCD10F4B93F837
:10570000643003F03002302A09D013F0200F0AD1A0
:1057100013F0100F0CD0084803F0D4FECBE7084874
:10572000FFF738FAC7E700210648FDF7AEF8C2E7F1
:10573000014803F089FEBEE7341B0020201D002035
:10574000AC1300201811002008B5234B9B79012BC6
:1057500002D0022B20D008BD0128FCD11F4B93F8AA
:10576000643003F03002302A09D013F0200F0AD140
:1057700013F0100F0CD0184803F048FEEBE7184860
:10578000FFF712FAE7E701211648FDF775F8E2E79F
:10579000114803F0FDFDDEE70128DCD10F4B93F843
:1057A000643003F03002302A09D013F0200F0AD100
:1057B00013F0100F0CD0084803F028FECBE7084880
:1057C000FFF7F2F9C7E701210648FDF755F8C2E7F0
:1057D000014803F0DDFDBEE7341B0020201D002042
:1057E000AC1300201811002008B51F4B9B79012B2A
:1057F00002D0022B1CD008BD0128FCD11B4B93F812
:10580000643003F03002302AF5D013F0200F06D1B7
:1058100013F0100F08D0144803F096FDEBE70121B8
:105820001348FDF732F8E6E70F4803F04BFDE2E7D7
:105830000128E0D10D4B93F8643003F03002302A98
:10584000D9D013F0200F06D113F0100F08D006485E
:1058500003F07AFDCFE701210548FDF716F8CAE706
:10586000014803F02FFDC6E7341B0020201D002057
:105870001811002008B5274B9B79012B02D0022B71
:1058800024D008BD0128FCD1234B93F8643003F0E9
:105890003002302A09D013F0200F0FD113F0100F6F
:1058A00010D01C4801F0F0FBEBE7DFED1C0A9FED88
:1058B0001C0A04211B48FEF73CF8E2E71A4801F0F5
:1058C000F3F9DEE71948FFF709FCDAE70128D8D138
:1058D000114B93F8643003F03002302A09D013F0F2
:1058E000200F0FD113F0100F10D00A4801F0CFFB9A
:1058F000C7E7DFED0A0A9FED0A0A04210948FEF70F
:1059000018F8BEE7084801F0CFF9BAE70748FFF7F3
:10591000E5FBB6E7341B0020201D00209A99993E34
:105920000000B4C2A0110020A81A0020D418002042
:1059300038B5BA4B9B79012B03D0022B00F03D8187
:1059400038BDB74B93F86230002B44D0B44B93F87A
:10595000643003F03002302A10D013F0200F1ED133
:1059600013F0100F2CD0AF4B93F88730002BE7D1FA
:105970009FEDAD0AA94801F0BDFBE1E7B0EE000ADA
:105980000221AA48FDF7EAFDA64B93F88730002BC9
:10599000D6D19FEDA50AA14801F0ACFBD0E7B7EE48
:1059A000000A0221A148FDF7D9FD9E4B93F88730EC
:1059B000002BC5D19FED9C0A984801F09BFBBFE7E7
:1059C000984B93F88730002BBAD19FED970A9348F4
:1059D00001F090FBB4E7924B93F86330002B46D074
:1059E0008F4B93F8643003F03002302A10D013F05C
:1059F000200F1ED113F0100F2DD08A4B93F8873053
:105A0000002B9DD19FED880A844801F073FB97E736
:105A1000B8EE000A02218548FDF7A0FD814B93F8FE
:105A20008730002B8CD19FED800A7C4801F062FB0F
:105A300086E7BFEE000A02217C48FDF78FFD794B17
:105A400093F88730002B7FF47BAF9FED770A734884
:105A500001F050FB74E7734B93F88730002B7FF411
:105A60006FAF9FED710A6D4801F044FB68E76C4B26
:105A700093F8643003F03002302A11D013F0200F75
:105A800040D113F0100F6DD0664B93F88730002B88
:105A90007FF456AF9FED640A604801F02BFB4FE79F
:105AA0005F4DD5F8563000EE103A604CF9EE007AB2
:105AB00020EE270A03212046FDF750FDD5F85A3085
:105AC00000EE103AF1EE007A20EE270A042120467B
:105AD000FDF744FDD5F85E3000EE103AF3EE007AA3
:105AE00020EE270A05212046FDF738FD4D4B93F89F
